S02600006164635F73696E676C657363616E5F63706B6E65745F72613874325F65702E7372656328
S3150200000000400020814F0002614F0002412C000295
S31502000010894F0002894F0002894F0002894F000270
S31502000020000000000000000000000000894F0002EE
S31502000030E928000200000000894F0002894F0002F1
S31502000040813D0002A93C0002693E0002F13E000227
S315020000504943000221440002E1440002A145000294
S3150200006079460002B93F000281410002514700026F
S3150200007011480002D148000291490002514A000289
S31502000080114B0002E94B0002994C0002494D000255
S30D02000090F94D0002A94E00021F
S315020000988078002818BF704744F200000121C2F296
S311020000A8000001704168013141607047A0
S315020000B400000300712B0002912B000200000000D5
S309020000C440090000E7
S315020000D0844641EA000313F0030349D1403A23D38D
S315020000E00B6803604B6843608B688360CB68C360B0
S315020000F00B6903614B6943618B698361CB69C36198
S315020001000B6A03624B6A43628B6A8362CB6AC3627F
S315020001100B6B03634B6B43638B6B8363CB6BC36367
S3150200012040304031403ADBD230320BD30B680360A9
S315020001304B6843608B688360CB68C36010301031B4
S31502000140103AF3D20C3205D351F8043B40F8043B83
S31502000150043AF9D2043208D0D2071CBF11F8013B87
S3150200016000F8013B01D30B8803806046704700BF4D
S31502000170082A13D38B07B1D010F00303AED0C3F114
S315020001800403D21ADB071CBF11F8013B00F8013B3E
S31502000190A4D331F8023B20F8023B9FE7043AD9D3B5
S315020001A0013A11F8013B00F8013BF9D20B780370D2
S315020001B04B7843708B7883706046704770B48407BF
S315020001C046D0541E002A41D0CDB2034602E0621E3A
S315020001D0E4B3144603F8015B9A07F8D1032C2ED92F
S315020001E0CDB245EA05250F2C45EA054519D926461D
S315020001F003F11002103E0F2E42F8105C42F80C5C1E
S3150200020042F8085C42F8045C02F11002F2D8A4F14A
S31502000210100222F00F0204F00F041032032C1344D2
S315020002200DD91E462246121F032A46F8045BFAD847
S31502000230221F22F00302121D134404F003042CB100
S31502000240C9B21C4403F8011BA342FBD170BC704720
S3150200025014460346C2E710B540F2C80140F2000256
S31502000260C0F20021C0F200020446FFF731FF40F25D
S31502000270000040F20001C0F20000C0F2000120447A
S3150200028000F001F810BD0A460021FFF797BF40F2C1
S315020002900801C0F20001401A40F25001C2F20021E8
S315020002A00860704783B080B581B0844603A80EC04B
S315020002B046F2B860C0F20020006803AA61460092C6
S315020002C000F05AF801B0BDE8804003B0704770B53F
S315020002D0054646F2B860C0F200200468A07880079E
S315020002E014D56668287828B12146B047013500281A
S315020002F0F8D507E00A202146B047B0F1FF3FC4BF58
S31502000300002070BDA07840F00400A0704FF0FF30CE
S3150200031070BD81B0B0B589B00C4640F26731C0F20B
S315020003200021002501914FF4003194460DAA009157
S3150200033001190D93002C0892CDE906550490CDE9DA
S31502000340025518BF481E48BF002005906846614600
S3150200035000F012F8002C1CBF04990D7009B0BDE81C
S31502000360B04001B07047D1E904239A421EBF531C24
S315020003700B6110707047D4D42DE9F04F99B08146C5
S3150200038080781892800740F1B58518980027D9F829
S3150200039004808A46179011A8821D0C92421E0530CF
S315020003A010920E900D91514611F8010B252803D09B
S315020003B08A4638B900F0A0BD9AF801500AF1020A3D
S315020003C0252D06D14946C04701370028EBD500F056
S315020003D08BBD002200244FF0000C4FF0000B04E00E
S315020003E01AF8015B002D00F02D811FFA8BF61F2EE5
S315020003F020D8A5F1200010281ED8DFE810F015003D
S315020004001D001D0018001D001D001D0014001D000A
S315020004101D001D0011001D00CC001D001D00C9009D
S315020004204BF0020B00E0DBE74BF0040BD8E74BF096
S31502000430100BD5E77F2E0DD8A5F13000092840D83C
S31502000440402E80F0A0800CEB8C014BF0200B00EBD1
S31502000450410CC5E7A5F14C002E2800F2F480DFE836
S3150200046010F08F00F200F200F200F200F200F20049
S31502000470F200F200F200F200F200F200F200F200E4
S31502000480F200F200F200F200F200F200F200F200D4
S31502000490F200F200F200F200F200A400F2008F0075
S315020004A0F2009D00F200F200F200F200F200F20009
S315020004B0F2002F00F200F200F200F200F2002F002A
S315020004C08EE7A5F12400562800F2BD80DFE810F081
S315020004D08600BB00BB00BB00BB00BB007400BB00B8
S315020004E0BB00BB00A400BB00BB00BB00BB00BB0043
S315020004F0BB00BB00BB00BB00BB00BB00BB00BB001C
S31502000500BB00BB00BB00BB00BB00BB00BB00BB000B
S31502000510BB00BB00BB00BB00BB00BB00BB00BB00FB
S315020005205800BB00BB00BB00BB00BB00BB00BB004E
S31502000530BB00BB00BB00BB00BB00BB00BB00BB00DB
S31502000540BB00BB00BB00BB00BB00BB00BB00BB00CB
S31502000550BB00BB00BB00BB006D00BB005800BB006C
S315020005606600BB00BB00BB00BB00BB00BB00BB0000
S315020005705700BB00BB00BB00BB00BB0057002FE708
S315020005804BF4207B2CE704EB840100EB410427E7C4
S315020005904BF0010B24E74BF0080B21E70BF0800030
S315020005A04BEA800040F0800B1AE70BF480704BEAAE
S315020005B0400040F4807B13E7002A7FF411AF1798BE
S315020005C03F2E00F104011791006832D8B0F1FF3FC7
S315020005D032DD4BF0200B0022844601E712B3189855
S315020005E0402E179017A90D986546CDF83C90C14646
S315020005F090465CEA348200F083FC1798402E42460D
S31502000600C84600F1040117910068DDF83C9050EAF3
S31502000610358C54EA3084E3E63F2E00F26D844BF0CB
S31502000620400BDDE6624600244FF0000C4FF0000B53
S31502000630D6E600220446D3E64BF0280BC0F1000CA6
S315020006400022CDE60025CDF83CC03AB1189817A98C
S3150200065017900D9800F054FCDDF83CC0002C24EAFB
S31502000660E47E45F0200048BF2BF0400B61281CBFFA
S31502000670A0F16501022925D81799612801F1070120
S3150200068021F0070101F108021792A0EB050291ED94
S31502000690000B0A9244D15FEA4B6058BF4FF0FF3E0F
S315020006A011A8D2B27146764600F0C8FD451C4BF43D
S315020006B0C05B4FF0700C4FF0010EE8B28642D8BF15
S315020006C0461E5CE0A5F16301122900F20A810823A5
S315020006D00026DFE811F035011300060106010601C6
S315020006E00601130006010601060106010601610163
S315020006F05D01060106010D0106012E011FFA8BF1AD
S315020007005FEA0B6000F10C811798021D17920068D0
S31502000710CA0540F10C81890554BF00B240B206E118
S315020007205FEA4B6158BF4FF0060E662809D065286E
S315020007300FD14BF4805B76460EF10101002365244E
S3150200074011E04BF4005B01226624112176467346C2
S315020007500AE05FEA0E61A0F10204714676464FF0A6
S31502000760000308BF0121002211A8C9B2112928BF1E
S31502000770112101F0B6F805464FF0020EA446119B70
S315020007809DF84800A3F10A0111F1130F38BF4FF08B
S31502000790020EA3F16401089111F1C70F38BF4FF0A1
S315020007A0030E0F9CC1074FD15FEA8B716FD41FFAFC
S315020007B08BF1202202EAC10211F0040F5FEA1F91B7
S315020007C010F00C0F45D11BF4405F0493CDE90621CE
S315020007D040F02B82012E4FF0010056EA80801FFA6C
S315020007E08BF12A0600F06D810E9BEAB2134413F8D0
S315020007F0013C302B40F006826B1E1A0621D02E4693
S315020008000E9DDAB2154415F8015C302D40F0F981DF
S31502000810B31E1A0615D00E9DDAB2154415F8015C00
S31502000820302D40F0EE81F31E1A060AD00E9DDAB282
S31502000830154415F8015C302D40F0E381351F2A0678
S31502000840D2D100250022DDE12D22002110F00C0F6D
S31502000850B9D000294FF0030050EA1090844212DD0D
S315020008600A9E0D465FEA0B7117D4041B934620209D
S315020008704946C047002800F1378301370134F6D3D1
S3150200088000245A460AE000240A9E49B10FE02B22B0
S31502000890002110F00C0FDCD195E7241A294631B954
S315020008A010464946C047002800F11E8301379DF8CD
S315020008B0480046F24E21C0F20021000745F6687054
S315020008C0C0F2002050EA51852878002800F0F9820B
S315020008D0801B4946C0B2C047013701350028F3D50F
S315020008E002E3782840F09880C5F188032E4653E04B
S315020008F01798011D1791006846F22231C0F20021B5
S31502000900002851EA00855FEA4B6058BF4FF0FF3E70
S315020009102846714600F06AFEDDF83CC0064617E03E
S315020009201798890500F18680011D17910068C11785
S3150200093088E04FF6EF700BEA000B0A2375262BE0D0
S315020009401798012611AD011D179100688DF8440014
S315020009505FEA0B700ED4B4450CD920204946644692
S31502000960C047002800F1C082A4F1010C0137B4454A
S31502000970F3D8B4463744ACEB0604002E00F0A1824D
S3150200098015F8010B4946C047013E0028F5D5ABE2F2
S315020009904BF0100B102378264FF6F9700BEA000283
S315020009A05FEA0B600B960AD41798011D1791066829
S315020009B0D1050AD5900554BFB6B2F6B205E017982E
S315020009C091050AD4011D17910668002156EA010015
S315020009D008BF2BF0160278D10FE00730154620F03B
S315020009E007000246416852F8086B17922A4656EAF1
S315020009F0010008BF2BF0160267D100265FEA4B60A2
S31502000A0062D50021012C60DA4FF6E9700BEA00018B
S31502000A100B9D480637D467E025204946C047002883
S31502000A2000F1628228464946C047023700287FF510
S31502000A30BAAC59E2073020F007010A46496852F873
S31502000A40080B179200295A46CDF82CE048BF42F40B
S31502000A50806250EA010322D080EAE17081EAE17302
S31502000A60B0EBE17063EBE17111AC22F010060A23E0
S31502000A70224600F06DFB3146061BDDF83CC0DDF870
S31502000A802CE0480630D54FF6FE70764500EA0100A6
S31502000A902BDA002D08BF21F01100714626E05FEA2D
S31502000AA04B604FF0000040F19E810021012CDBDA01
S31502000AB04FF6EE70DDF83CC000EA0B00DDF82CE0E4
S31502000AC014E0002500229EE0002111AC30461646B5
S31502000AD07546224600F03CFB3146AE46DDF83CC088
S31502000AE0061B0B9D4806CED4084631461FFA80FBEC
S31502000AF0C0060AD440F206401BEA000F5FEA0F90D6
S31502000B0044185FEA0B7009D526E0002D4FF001006C
S31502000B1050EA009044185FEA0B701DD45FEACB706E
S31502000B2008D0B646644505DA06EB0C00A0EB040EC7
S31502000B30644611E064450FDACDF82CE020204946E0
S31502000B40C047002800F1D0810F9801340137A04236
S31502000B50F4D1DDF82CE004465FEACB601BD440F208
S31502000B6006401BEA000F26D05FEA8B7075464FF0EF
S31502000B702B0058BF20205FEA4B51494648BF2D2023
S31502000B80C047002800F1B0810137AE46F3467546EC
S31502000B90B64514DC1CE030204946F346C04700281F
S31502000BA000F1A28135B328464946C047002800F124
S31502000BB09B810237DE46F3467546B64508DD302090
S31502000BC04946C047002800F18F81013DB542F6DC57
S31502000BD00F985E45A0EB040456EACB800744002E2C
S31502000BE000F06F8110984946805DC047013E00289B
S31502000BF0F5D579E10137DE46F3467546B645DEDCC4
S31502000C00E6E71D46049BC90652EA508113F1040F1A
S31502000C1008DB834206DA4BF4005B8B4204DAD843E4
S31502000C200E1802E04E1E00E00026A3F57A711FFAA6
S31502000C308BF4099424055FEA8B400395CDE9011CE8
S31502000C4005940CD411F5FA6F70464FF0050198BF62
S31502000C500420002C58BF032101EB000C03E023EA19
S31502000C60E37000F1010CDDF824B0002E079A4FF074
S31502000C7000050B96CBF3001182F0010251EA0690B1
S31502000C800F9983186344CB1A53EAC5841BF0090FE4
S31502000C9011D10A9E84B1604475461044441A20203C
S31502000CA04946C047002800F11F8101370134F6D3B7
S31502000CB00024AE4600E00A9E0798CDF800E0002820
S31502000CC0069805D14946C047002800F10D81013733
S31502000CD0059800280ED530204946C047002800F165
S31502000CE00381C6F178004946C0B2C047002800F128
S31502000CF0FB800237099800070AD44CB127443020FA
S31502000D004946C047002800F1EF80013CF7D1002494
S31502000D100998800427D49DF849004946C04700280F
S31502000D2000F1E2800B98012857DB2E204946C04786
S31502000D30002800F1D9800B98384400F1020B039881
S31502000D40C5B20020471CAF4202D20C99085C00E0F3
S31502000D5030204946C047002800F1C6800B98B842A9
S31502000D603846EFD148E0049820EAE076851B0B98D6
S31502000D70C0F1000B0398C0B20F90701C06D12E2052
S31502000D804946C047002800F1AF8001373020002DC8
S31502000D9004D40F998D42BCBF0E98405D49465E450C
S31502000DA006DDC04701350137013E0028E5D59BE047
S31502000DB0C047002800F198800999781CC90640F1BD
S31502000DC09180002E40F08C802E204946C047B0F11B
S31502000DD0FF3F40F38980023773E00998C00604D4C6
S31502000DE007F1010B08E000213EE62E204946C047E6
S31502000DF0002879D407F1020B02984946801BC0B23B
S31502000E00C047002870D4049E2B204946002E48BFB6
S31502000E102D20C047002E48BF7642002864D4019890
S31502000E2010F5FA6F15D844F6D3504946C1F262005E
S31502000E30A6FB0005302000EB9510C0B2C047002883
S31502000E4052D4A8094FF47A7100FB11620BF1030523
S31502000E5006E008980BF10205324610F1C80F3BD89E
S31502000E6048F21F504946C5F2EB101746A2FB000690
S31502000E70302000EB5610C0B2C047002834D47009A7
S31502000E80642100FB117201354CF6CD404946CCF681
S31502000E90CC401746A2FB0006302000EBD600C0B2BB
S31502000EA0C047002820D4F008013500EB8000A7EBEC
S31502000EB0400202F130004946C0B2C047002813D4AE
S31502000EC06F1C012CFFF66FAA20204946C047013746
S31502000ED0013C0028F5D507E000980228D4D2E8E7BD
S31502000EE00746EEE70746ECE799F8020040F00400F1
S31502000EF089F802004FF0FF37384619B0BDE8F08F87
S31502000F00022AB8BF70472DE9F04F42F689084FF022
S31502000F10010CC0F2010804464FF0010E03E05F78AF
S31502000F209C1C252F29D1234613F8015B252D01D0C0
S31502000F3025B90AE16778A31C252F1DD11C4614F892
S31502000F40015B252D01D025B9FFE05F789C1C252F7A
S31502000F5013D1234613F8015B252D01D025B9F4E000
S31502000F606778A31C252F07D11C4614F8015B252D93
S31502000F70D5D0002DD7D1E8E01C464FF0000A4FF03D
S31502000F800009002604E014F8017B002F00F0A98076
S31502000F90B346BAF11F0F0AD8A7F12005102D09D8BA
S31502000FA00CFA05F515EA080F40F07C8002E0BAF16A
S31502000FB07F0F0AD8A7F13005092D3ED80BEB8B031C
S31502000FC04AF0200A05EB4306DDE7A7F14C052E2D74
S31502000FD000F288805E46DFE815F06700850085002E
S31502000FE085008500850085008500850085008500D1
S31502000FF085008500850085008500850085008500C1
S3150200100085008500850085008500850085008500B0
S3150200101085007700850067008500700085008500E1
S31502001020850085008500850085002F0085008500E6
S315020010308500850085002F00A5E7A7F12405562D1A
S3150200104000F250800026DFE805F0334D4D4D4D4D40
S31502001050324D4D4D324D4D4D4D4D4D4D4D4D4D4DEE
S315020010604D4D4D4D4D4D4D4D4D4D4D4D4D4D4D4DA8
S315020010704D4D2F4D4D4D4D4D4D4D4D4D4D4D4D4DB6
S315020010804D4D4D4D4D4D4D4D4D4D4D4D4D4D3F4D96
S315020010902F4D384D4D4D4D4D4D4D2C4D4D4D4D4DCC
S315020010A02C00FFE75E466EE74AF4207AFAE76AE723
S315020010B0B9F1000F0FD1D94665E70AF080034AEA73
S315020010C0830343F0800AEDE70AF480734AEA430396
S315020010D043F4807AE6E7F3457FF455AF6327F1469A
S315020010E000E00027B9F1000F2FD0F14524D147F0D7
S315020010F02003612B1CBF653B022B05D80B68073307
S3150200110023F00703083313E0A7F16303102B0AD871
S31502001110DFE803F00C09090909090909090909099E
S31502001120090909090C005FEA0A6309D40B6804334A
S315020011300EF1010E04460B609645FFF6F4AE04E08E
S315020011400B685FEA8A54DAD4F1E7BDE8F04F7047DC
S315020011502DE9F04703F01F06984691468A46054652
S31502001160284651463246002300F06EFA044600FB3A
S3150200117016500F46A0EB0801092888BF01F1370077
S31502001180303089F80000A81B7AF1000049D32046C6
S3150200119039463246002300F057FA054600FB164050
S315020011A08A46A0EB0801092888BF01F137003030D2
S315020011B089F80100A01B77F1000036D32846514674
S315020011C03246002300F040FA044600FB16500F4652
S315020011D0A0EB0801092888BF01F13700303089F8F1
S315020011E00200A81B7AF1000023D320463946324674
S315020011F0002300F029FA054600FB16408A46A0EBBA
S315020012000801092888BF01F13700303089F8030048
S3150200121009F10409A01B77F10000A1D24846BDE8F6
S31502001220F08709F10100BDE8F08709F10200BDE887
S31502001230F08709F103094846BDE8F0872DE9F04F2A
S3150200124085B05AEC103B4FEADA77CAF30A566FF3C7
S315020012501F5A077153EA0A0408BF002E0ED040F245
S31502001260FF75AE423CD10421002C18BF0821394437
S3150200127001710021084605B0BDE8F08F0027002362
S315020012804FF0000A0029076037D40D2937D3190F0A
S3150200129000F1050B41EA0A110491190E4FEA1A549C
S315020012A041EA0A210391190D4FEA1A4641EA0A3127
S315020012B00291190C4FEA1A3841EA0A410191190BB7
S315020012C041EA0A5C190A41EA0A6E190941EA0A79EF
S315020012D04FEA1A1103F00F034FEA1A27009180E032
S315020012E04FF60247002ECFF6FF771CBFA6F2FF3756
S315020012F00AF5801A00290760C7D5002146E0332681
S31502001300A6EB8105C5F1200613274FF0020CA7EBC9
S3150200131081072CFA06F401264FF0000E002F58BF63
S315020013200CFA07F458BF06FA07FE06FA05F60CFA97
S3150200133005F558BF002658BF0025D5F100094FF024
S31502001340000868EB040C013D64F100041D4004EA48
S315020013500A04751B7EEB040411D38C00C4F1340518
S31502001360D4F1140423FA05F7C5F120050AFA05F5A6
S3150200137045EA070558BF2AFA04F5EC0702D09B197D
S315020013804AEB0E0A03EA09030AEA0C0A1F0947EAAC
S315020013900A791F0F1D0B47EA0A1704971F0E45EA23
S315020013A00A5C47EA0A2703971F0D1D0A47EA0A370E
S315020013B002971F0C45EA0A6E47EA0A4700F1050B37
S315020013C013F00F0301974FEA1A174FEA1A544FEA1E
S315020013D01A464FEA1A384FEA1A25009700F0B480E7
S315020013E02F46991A092B88BF01F1270303F1300111
S315020013F0817409F00F030D219D1A092B88BF05F18F
S3150200140027030C2903F13003437498BF0C210EF015
S315020014100F039D1A092B88BF05F127030B2903F138
S315020014203003037498BF0B210CF00F039D1A092B8E
S3150200143088BF05F127030A2903F13003C37398BF56
S315020014400A21019B3D4603F00F039F1A092B88BF11
S3150200145007F12703092903F13003837398BF092192
S31502001460029B03F00F039F1A092B88BF07F127037C
S31502001470082903F13003437398BF0821039B03F045
S315020014800F039F1A092B88BF07F12703072903F1C8
S315020014903003037398BF0721049B03F00F039F1ABF
S315020014A0092B88BF07F12703062903F13003C3720C
S315020014B098BF06210AF00F039F1A092B88BF07F16E
S315020014C02703052903F13003837298BF0521009B88
S315020014D003F00F039F1A092B88BF07F1270304297C
S315020014E003F13003437298BF042105F00F039F1ADC
S315020014F0092B88BF07F12703032903F1300303727F
S3150200150098BF032108F00F039F1A092B88BF07F122
S315020015102703022903F13003C37106F00F0398BFB4
S3150200152002219A1A092B88BF02F1270303F130021E
S315020015308271012998BF012104F130008BF8000065
S31502001540084605B0BDE8F08F19F00F0348D10C2903
S3150200155046D21EF00F0345D10B2943D21CF00F03CE
S3150200156042D10A2940D2019B13F00F037FF46DAFDB
S315020015700929BFF46AAF029B13F00F037FF473AF1E
S315020015800829BFF470AF039B13F00F037FF479AF02
S315020015900729BFF476AF049B13F00F037FF47FAFE6
S315020015A00629BFF47CAF1AF00F037FF485AF052935
S315020015B0BFF482AF17F00F038CD104298AD215F03B
S315020015C00F0394D1032992D218F00F039CD102295A
S315020015D09AD206F00F0353EA0107A2D10021ABE724
S315020015E02F4609E72F4614E72F461FE7844639B3ED
S315020015F070B500EB010C4B1EA1F1020ECC1E0022AF
S31502001600855C85B1934219D085186E7876B1964578
S3150200161014D0AE786EB1944210D0EE7866B1043230
S315020016209142EDD10AE000EB020C07E005F1010C54
S3150200163004E005F1020C01E005F1030CBDE870407F
S31502001640ACEB00007047D4D440B584B002AE00962D
S3150200165000F004F8029A039B04B040BD2DE9F04F56
S31502001660099D844681B1C2B14BB3B1FA81F7B3FA8F
S3150200167083F6F71B202F4FD3002D18BFC5E900C1F3
S3150200168000200021BDE8F08FCBB30021002D64D0ED
S315020016900020C5E900C1BDE8F08F002B60D000280C
S315020016A061D05F1E3B4200F08580B1FA81F7B3FA42
S315020016B083F6F71B1F2FDFD207F1010C3CE0571E02
S315020016C03A425DD0B1FA81F7B2FA82F6F71B07F118
S315020016D0210CBCF1200F24D0BCF11F0F79D8CCF11C
S315020016E0200620FA0CF721FA0CF901FA06F5B040A9
S315020016F03D434FF0000ABCF1010F2CD07CE0B0FB59
S31502001700F2FC002D1EBF0CFB12000021C5E90001F0
S3150200171000216046BDE8F08F07F1010CBCF1200FF5
S315020017200AD14FF000094FF0200C0D464FF0000A87
S31502001730BCF1010F0FD05FE0C7F11F0720FA0CF6CC
S3150200174021FA0CF901FA07F5B84035434FF0000AC1
S31502001750BCF1010F50D100248FE00020BDE8F08FCC
S315020017606046BDE8F08FB1FBF3FC002D1EBF0CFBFB
S3150200177013100021C5E9001000216046BDE8F08F74
S31502001780002D1EBF00230740C5E90073012A0ED0B3
S3150200179092FAA2F24F00B2FA82F202F01F03D1408D
S315020017A0D8401F23934307FA03F343EA000C60462B
S315020017B0BDE8F08F002D1CBF07EA0100C5E900C095
S315020017C093FAA3F0B0FA80F021FA00F00021BDE806
S315020017D0F08FACF12007CCF140044FF0000920FA5B
S315020017E007F601FA04F52E4300FA04FA21FA07F580
S315020017F03046BCF1010FAED02CF001070126023FA4
S315020018004FF0000B06EB570E4FEA490444EAD57433
S315020018106D0045EAD0754000E743E943891843EB7A
S315020018200708AF1A64EB0306B8F1000F56EA4484C0
S3150200183057EA4585640044EAD5746D0045EAD075D9
S3150200184040EADA70AE1A6FEA050164EB03078918FB
S315020018504FEA40006FEA0401594157EA448956EAC1
S315020018604585CC0F4BEA4A010027A34640EAD170D0
S31502001870490041EAD87A0FF039C85FEACC711ED026
S315020018806F004FEA490147EAD07741EAD571B7EBD3
S31502001890020C4FEA400061EB030EFD4352196FEA58
S315020018A0010653EB060240EADA705EEA41895CEA17
S315020018B04785D10F44EA4A0200270C4692464FEA70
S315020018C0DA7141EA400009994FEA4A02002918BF33
S315020018D0C1E9005940EA070122F001002043BDE8B0
S315020018E0F08F2DE9F04FA1B056EC108BB246C6F33D
S315020018F00A546FF31F5AF50F58EA0A0708BF002C5D
S315020019000ED040F2FF76B44215D10821002F08BF4F
S315020019100421002429440171204621B0BDE8F08F3C
S31502001920A91C017130210124417100210160204668
S3150200193021B0BDE8F08FA4F23549002CCDE906238B
S3150200194008F001060495CDE9081006BF4FF6CC391A
S31502001950CFF6FF790AF5801A4FEA8A0242EA9870B0
S31502001960002F15905FEA0F90022C5FEA2F91B9F1D2
S31502001970000F40EA01074FEA880014900596139774
S3150200198049D4484600F021FD0546B9F1030F88BF48
S31502001990013D284600F027FD0DF1580B0446284666
S315020019A0594600F00BFE1AA81CA95A460297CDE921
S315020019B00010A5EB09002044514600F17C03404685
S315020019C0AB4600F031FC8246152D5FD8149F4CF6CB
S315020019D0CD46159D1EA8CCF6CC460C460090384640
S315020019E0294632464FF0CC3300F072FEDDE91E0185
S315020019F0820842EA817120F0030008444042F8421C
S31502001A006AD13846294600F0F7FC58455FEA3F900E
S31502001A101290002087E0C9F1000B584600F0DCFC6A
S31502001A20044619F1010018BF013CABEB040B584602
S31502001A3000F0D9FC16A9054658468B4600F03BFD38
S31502001A401AA81CA95A460297CDE90010601B00F19C
S31502001A507D034046514600F0E7FB04EB090B824644
S31502001A60012C1BD8089B002E069D4CF6CD46CCF6C3
S31502001A70CC4608D0DDE91C0201381C9062F1000058
S31502001A801D90002013900120129050E04CF6CD4696
S31502001A900020CDE91200CCF6CC4646E0089B4CF677
S31502001AA0CD46069DCCF6CC463E2C25D84FF0FF30CF
S31502001AB0B4F1200200FA04F758BF0027149C58BF5D
S31502001AC09040159A24EA070722EA000038435FEAA3
S31502001AD01F901290002011E0059888B91398C04310
S31502001AE0C01965F1000100F087FC58455FEA3F9096
S31502001AF013900020129017E000201290139016E027
S31502001B0047F00200294600F077FCDDE91C124B1E65
S31502001B1062F10005584553EA21801C9055EA22805D
S31502001B201D900020129013902146089B069D002DC1
S31502001B300C934AD0BAF10A0071F1000001D20120D9
S31502001B4037E000274FF00A0C02204FF064094FF4E9
S31502001B507A7842F2107E0A22A2FB0C4507EB870333
S31502001B6005EB4303BAEB040471EB030320D3A2FB98
S31502001B70093407FB0944BAEB030371EB040314D3DC
S31502001B80A2FB083407FB0844BAEB030371EB040318
S31502001B900DD3A2FB0E23043007FB0E37BAEB02036A
S31502001BA071EB0703D8D2013802E0013000E00230BF
S31502001BB0089B079A0BEB02073844B0EBD27FB8BFFB
S31502001BC0D00F834253EAB0800C90CDF80CB00DF1E1
S31502001BD0680B1D9C16AD9BE8000B00201591149016
S31502001BE011900B902FE01599504632464FF0CC33A8
S31502001BF016AD4FEADB04009500F06AFD1498BB4669
S31502001C00129910F0FF0FDDE916235FEA1F900140DB
S31502001C1008EB88001291404210994942B1EB400FFD
S31502001C2013995FEA1F9001401391D00840EA43716D
S31502001C3001EB8000AAEB4000149011988A4601300D
S31502001C401190D80815905846214632464FF0CC33AB
S31502001C500095CDF834B00E9400F03AFD4046494660
S31502001C6032464FF0CC33DDE9164B0095CDE90F989D
S31502001C7000F02EFDDDE91601E20842EA4B774FEA53
S31502001C80D109C00840EA4178B8EB070079EBDB00DE
S31502001C90A9D31599BAF10A0071F1000001D2012007
S31502001CA03BE00A9700250A2202204FF00A0C64271D
S31502001CB04FF47A7EA2FB0C3605EB850406EB44064E
S31502001CC0BAEB030371EB060322D3A2FB073605FB2D
S31502001CD00766BAEB030371EB060316D3A2FB0E36B5
S31502001CE005FB0E66BAEB030371EB06030FD342F252
S31502001CF010740430A2FB042305FB0435BAEB02037D
S31502001D0071EB0503D6D2013802E0013000E0023061
S31502001D100A9F4CF6CD46CCF6CC460C9A4AEA01030B
S31502001D2013435FEA1F93904203DD13B901200B9020
S31502001D305AE71398C00771D0DDF8408032460F99F2
S31502001D404FF0CC3316AD0095404600F0C1FCDDE9FC
S31502001D501610C8F10003DDF848B0CA0842EA40741A
S31502001D6004EB82025242B3EB420F5FD1C208DDF8A6
S31502001D704490DDF850C0DDE90D01904632464FF041
S31502001D80CC33CDF850C0009500F0A2FC159932462E
S31502001D9016984FF0CC3312905046179F009500F0DC
S31502001DA097FC4CF6CD4216A8009020464146CCF64A
S31502001DB0CC424FF0CC33DDE91665CDF83C8000F01D
S31502001DC087FCF10841EA457E14980EEB8101A04694
S31502001DD0ED0810F0FF0FAAEB410C5FEA1F90DDE958
S31502001DE016120BEA000B12984CF6CD461595CB0847
S31502001DF043EA4274C00804EB830340EA47705B423D
S31502001E0009F1010916ADF908C8F10007CCF6CC466E
S31502001E10D208F246B7EB430FAFD00CE00DF1400B00
S31502001E20D646DDF850C09BE8000B04E0D646DDF846
S31502001E304490DDF850C0159A8EEA08010F981346B1
S31502001E40424011430B9A5FEA0F911143CA07059963
S31502001E5000295FEA1F91002A04BF139A11EA0201C0
S31502001E600ED05FFA8CF105295FEA0F92042962EA25
S31502001E700B025FEA9F9142EA0E0202EA010C01E0BE
S31502001E804FF0010C039809EB00051EEB0C0043F121
S31502001E900001B0F10A0271F1000201D2012338E019
S31502001EA0AE4600264FF00A0802234FF0640B4FF4A9
S31502001EB07A7A42F210790A25A5FB087206EB8604A5
S31502001EC002EB4402C41B71EB02021DD3A5FB0B24D9
S31502001ED006FB0B44821A71EB040212D3A5FB0A24F9
S31502001EE006FB0A44821A71EB04020CD3A5FB0952C3
S31502001EF0043306FB0926421B71EB0602DCD2013BC8
S31502001F0002E0013300E002334CF6CD467546CCF6CC
S31502001F10CC460C9A93425FEADC82012A079A3AD1AE
S31502001F20069F4FB12A441A44012AD8BF0122089FAC
S31502001F30974257EAB2820C920C9A93422BDD0530F5
S31502001F404CF6CD4741F10001CCF6CC474008013BA7
S31502001F5040EAC170013510EB51024FEA510142F1DC
S31502001F600002A2FB077626F0030707EB96074FF05F
S31502001F70CC36D21B821A4CF6CD40CCF6CC4061F15F
S31502001F800001A2FB000702FB06724CF6CD46CCF618
S31502001F90CC4601FB06210C9A934253EAB2822BB23B
S31502001FA014B22344A3F10108012CC0F2348102F0D9
S31502001FB00303099ACDF84880042C02F1050911930E
S31502001FC0149402D24FF0000AA9E0E31A2244149CA8
S31502001FD002F104084FF0000A139364220023834699
S31502001FE00F46FFF731FB420800F0010042EAC172D8
S31502001FF012EB510141F10001A1FB062323F003027A
S3150200200002EB93020023891A4FF47A7240EA4100E6
S31502002010394640F0300015905846FFF715FB420846
S315020020204CF6CD4642EAC172CCF6CC4612EB5101D1
S3150200203000F0010041F100024FEA5B0141EAC7717B
S3150200204011EB570343F10003A3FB066525F00306D4
S3150200205006EB95069B1B6FF00206CB1A4CF6CD419A
S31502002060CCF6CC41A3FB011C01EB8105ABEB45058C
S3150200207045F0300508F804598AEA0605159E2544F6
S3150200208009F805604CF6CD46CCF6CC46A2FB0656C0
S3150200209026F0030505EB9606A2EB06024CF6CD46A4
S315020020A0CCF6CC4640EA42006FF0030282EA0A020C
S315020020B040F03000224409F802004FF0CC304FEADB
S315020020C0570203FB00C062F1000202FB06004A0847
S315020020D001F0010142EAC07212EB500040F1000029
S315020020E0A0FB062323F0030202EB93020023801ACD
S315020020F042F2107241EA40006FF0010181EA0A01E0
S3150200210040F03000214409F8010058463946FFF7ED
S315020021109BFA0AF1040A139A52457FF45EAFDDF880
S3150200212044E0DDF84880149CBEF1000F73D04208EB
S315020021304CF6CD4742EAC172CCF6CC4712EB5103BC
S315020021406FEA0A0543F100032544A3FB077626F04E
S31502002150030707EB96074E08DB1BD31A4CF6CD4254
S31502002160CCF6CC4266F1000CA3FB0227BEF1010FAE
S3150200217002EB8206A0EB460646F0300609F8056039
S3150200218049D04FF0CC364CF6CD4503FB06734CF6E0
S31502002190CD47CCF6CC47CCF6CC450CFB07335708DB
S315020021A002F0010247EAC37717EB53034CF6CD4719
S315020021B043F10003CCF6CC47BEF1020FA3FB077630
S315020021C026F0030707EB9607A3EB070342EA43024F
S315020021D0A4EB0A0303EB090642F0300206F8022CCE
S315020021E019D064220023FFF72FFA420800F00100FB
S315020021F042EAC17212EB510141F10001A1FB052332
S3150200220023F0030202EB9302891A40EA410040F0EE
S31502002210300006F8030C099804990171C0F8008091
S31502002220204621B0BDE8F08F2DE9F04F8BB0490072
S3150200223041EAD07405931646D2E9002345002846A2
S31502002240214608AF009700F043FAD6E902238346F7
S3150200225006A88946009028462146DDE9087A00F05C
S3150200226037FA10EB0708DDE906234AEB010ADDE936
S315020022700801571C059C43F10005B8EB00007AEBF8
S315020022800100A4F1410455EA338357EA328296E803
S31502002290830017EB0807F568049445EB0A0510EB73
S315020022A00B0059EB0100009457F10000CDE906231B
S315020022B045F10001571C43F10005B0EB080471EB30
S315020022C00A04CDF80CB055EA338357EA3282CDF8C8
S315020022D0089000F01BFADDE91429169BC2E90001F9
S315020022E043B3D6E900C1D6E902560398B8EB050511
S315020022F0DDE906236AEB06066C1E66F10007B0EB03
S315020023000C000298DDF810B08841CDF800B054EA0E
S31502002310358057EA3681571E63F10006B8EB000591
S315020023207AEB010557EA328256EA338300F0EEF978
S315020023305F463EE0DDE906204FEA4804D6E900ECB6
S3150200234001900598D6E90276A0F14005029800951B
S315020023504FEA4A05039945EAD87544EAD074430020
S31502002360E71B65EB0606B7F1010B43EAD17366F18B
S315020023700000DEEB410173EB0C0150EA36815BEAA9
S315020023803780B4EB0803019F75EB0A035FEA2F93CC
S315020023907F0043EA420347EAD2775A1E67F10006F4
S315020023A0241A8D4152EA338256EA378300F0AEF997
S315020023B0049FDDE90623C9E900014046514600971C
S315020023C000F0A4F90BB0BDE8F08F43F24141C0F230
S315020023D001014843800C704742F6FB61C0F20B01D3
S315020023E04843000D704749F24F31C0F2120148438B
S315020023F0012101EBD04070472DE9F04F4CF6CD4E4E
S3150200240045F6294442F6F50A47F6D50847F6916994
S3150200241043F2343B02460020CCF6CC4E4FF0333327
S31502002420CCF28F24C8F65C7AC2F2E968C3F6FB29BD
S31502002430C3F2333BA2FB0E5C4FF0CC3702FB07C75D
S31502002440D5F1333501FB0E7773EB07072ED3A2FBCB
S31502002450047502FB0A55D7F1333701FB045573EBBA
S31502002460050722D3A2FB087540F63106C1F6AC4633
S3150200247002FB0655D7F1333701FB085573EB050707
S3150200248016D3A2FB09754CF67066CDF28826043087
S3150200249002FB065201FB0921B7EB0B0271F1333243
S315020024A03A46C7D30138BDE8F08F0130BDE8F08F58
S315020024B00230BDE8F08F2DE9F04F87B005464EF6A3
S315020024C04F40C4F6C4608B46A5FB0001C8081A211A
S315020024D000FB01F646F27831C0F2002101EB001052
S315020024E0B54209D190E80E00C0688BE80E00CBF821
S315020024F00C0007B0BDE8F08FD0E9009246F24841E1
S31502002500C0F200210192D0E90223A81B51F83070D3
S3150200251001EBC000446804A800903846214600F04A
S31502002520D7F8019B824602A8884600903846214683
S315020025304A4600F0CDF881460191DDE9020100220A
S3150200254010EB0A0758EB010842F10000012806D1F8
S31502002550DDE904010130049041F1000005902846AE
S31502002560FFF741FF04463046FFF73DFF0199241A63
S3150200257048463A464346009400F0C8F86FF0030214
S3150200258046F2185302EA9502C0F200239A581E2315
S3150200259003EA4503DA4002F003068019DDE9042363
S315020025A041F10001CBE9000138464146009400F0B2
S315020025B0ADF8CBE9020107B0BDE8F08F2DE9F04F87
S315020025C087B08B464EF64F4105461930C4F6C461B4
S315020025D0A0FB0101C8081A2100FB01F646F2705160
S315020025E0C0F2002101EB0010AE4209D190E80E00C4
S315020025F0C0688BE80E00CBF80C0007B0BDE8F08F80
S31502002600D0E900A246F24841C0F200210192D0E987
S315020026100223701B51F8307001EBC000446804A815
S3150200262000903846214600F053F8804602A80090F2
S31502002630BAF1010201988946214660F10003384643
S3150200264000F046F804468A46DDE90201002210EB54
S31502002650080751EB090842F10000012806D1DDE91D
S3150200266004010130049041F1000005903046FFF765
S31502002670BAFE06462846FFF7B6FE361A20465146E9
S315020026803A464346009600F041F86FF0030246F2DE
S31502002690606302EA9502C0F200239A581E2303EAF7
S315020026A04503DA4002F003054019DDE9042341F14E
S315020026B00001013041F10001CBE9000138464146F3
S315020026C0009600F023F8CBE9020107B0BDE8F08FCF
S315020026D0F0B5A2FB01CEA2FB0075A3FB011415EB1C
S315020026E00C05DDF814C051EB0E06294644F1000430
S315020026F03246E3FB0012A3FB0003401956EB03002C
S3150200270044F10000CCE900203846F0BD10B5DDF8F2
S3150200271008C0CCF1400ECEF1200420FA0CF003FAE8
S315020027200EF322FA04F42343DCF1200458BF02FA22
S3150200273004F302FA0EF201FA04F440EA040058BF66
S315020027400022BCF1200458BF21FA04F021FA0CF150
S3150200275058BF00211043194310BDD4D4D4D4D4D4C5
S31502002760F0B581B040F23016EFF31184C2F20026C2
S31502002770002585F31288012086F8380000F040F91A
S3150200278043F680404FF00041CEF200009FED261A3C
S31502002790016044F2402184F31188C0F20F013069CE
S315020027A000EE100A88425FEA2F9186F83910B8EED9
S315020027B0400A96F8391080EE012A81EE000A0029B5
S315020027C09FED1A1A44F6D35102FE000AC1F26201C3
S315020027D0B6EE002AA0FB0101A0EE012A8809BDEE91
S315020027E0C20A86ED0C0A7063EFF3118785F312882D
S315020027F0B56000F01DF8BFF34F8FBFF36F8F00BFB8
S31502002800BFF34F8FBFF36F8F044600F011F8B16824
S315020028102144401AB06087F31188C6E90855C6E913
S315020028200A5501B0F0BD00BF00247449000080477C
S31502002830B0B543F27C0240F23013CEF20002C2F28D
S315020028400023EFF3118C002080F31288106893F8AE
S315020028503810012943F6C041CEF2000108D10968B9
S31502002860B1F1FF3F10DD002125E000BF00BF00BF30
S31502002870EFF3108E72B60C68B4F1FF3F08DD00214B
S3150200288017E000BF00BF00BF1068012113E000BFC0
S315020028904FF0004041F8400C0021EFF3118081F324
S315020028A01288D3E908450135C3E9084580F3118842
S315020028B010688EF31088D3E908258018D3E90A2414
S315020028C06941821A71EB040206DAD3E90A018CF332
S315020028D01188B0BD00BF00BFC3E90A018CF311889D
S315020028E0B0BDD4D4D4D4D4D410B54EF63050CEF232
S315020028F000000068800647D543F68040CEF200000D
S31502002900016CB1F1FF3F07DDD0F88011C9B202298F
S315020029101AD239E000BF00BF40F2301C4FF000412E
S31502002920C2F2002C0160EFF31181002282F31288B9
S31502002930DCE908320132CCE9083281F31188D0F899
S315020029408011C9B202291FD3026892070AD540F242
S31502002950301C0222C2F2002C0260DCE91032013283
S31502002960CCE9103204290FD3026812070AD540F2C5
S31502002970301C0822C2F2002C0260DCE9123201325B
S31502002980CCE91232062903D210BD00BF00BF00BF38
S31502002990026892060AD540F2301C2022C2F2002CAE
S315020029A00260DCE914320132CCE91432062908BF8E
S315020029B010BD08294FF0010C5CEA3C9E40F2301132
S315020029C0C2F200210623F64601F1580208E000BFD2
S315020029D001330832BEF1010E02D1D5E700BF00BFB6
S315020029E00CFA03F1046C0C42F2D00160D2E9001435
S315020029F011F5803144F10004C2E90014E8E7D4D4A9
S31502002A0043F60040CEF20000D0F80012490458BF47
S31502002A10704770B543F60462EFF3108CCEF20002F3
S31502002A2072B64FF00043116821F001011160036292
S31502002A300366116841F004011160C0F88030116824
S31502002A4041F002011160D0F80012C9B2022954D332
S31502002A504FF600044FF60405CFF6FF74CFF6FF7566
S31502002A604FF0080E042940F804E04FF01E044451CA
S31502002A704FF00305C0F880504FF002060664056069
S31502002A803BD34FF608051326CFF6FF7506294651A6
S31502002A904FF60C05CFF6FF7544514FF00C04C0F803
S31502002AA08040C0F840E0046027D34FF610060325A5
S31502002AB0CFF6FF76062985514FF61406CFF6FF7636
S31502002AC04FF01E0585514FF03006C0F880604FF07A
S31502002AD020050564066010D008294FF0010151EA6D
S31502002AE0319E062400BF00BF01FA04F50134C0F886
S31502002AF08050056405600FF009C84EF6FC51CEF20F
S31502002B0000010E6846F0807646F444160E600364B1
S31502002B1003601068002140F00100106041F20000DD
S31502002B20CEF2000001608CF3108870BDD4D4D4D4E8
S31502002B30017904291AD140F2301C8068C2F2002CB5
S31502002B40DCE900314A1C803A52EA0192CCF80420B0
S31502002B509A4240F25403C2F20023585418BF7047F7
S31502002B60501C803850EA0290CCF800007047D4D44A
S31502002B7040F29811C2F20021CA6C1071C86C00BFF3
S31502002B80816C8900FCD500207047D4D4D4D4D4D427
S31502002B902DE9F04182B040F23017C2F20027D7E9A0
S31502002BA00050854205D100BF00BFD7E900508542DB
S31502002BB0FAD0A84210D940F254010138C2F20021DB
S31502002BC07860495D8DF807109DF8070002B0BDE8F0
S31502002BD0F08100BF00BF00BF401BC5F180048030FA
S31502002BE040F25400C2F200200DF1070800EB050185
S31502002BF0404622465FEA0F96FDF76AFAA6420BD2D4
S31502002C00A819B0F1800150EA118038609DF80700DA
S31502002C1002B0BDE8F08100BF361B40F2540108EB5A
S31502002C200400C2F200213246FDF752FA70193860EA
S31502002C309DF8070002B0BDE8F081D4D4D4D4D4D430
S31502002C40B0B546F26E0072B64EF62855C0F20020B6
S31502002C50CEF20005FDF73BFB6868002808D46868D9
S31502002C6040000BD546F27720C0F2002004E000BFF8
S31502002C7045F69D70C0F20020FDF729FB46F2293089
S31502002C80EFF30884C0F20020FDF721FB46F25F1045
S31502002C902168C0F20020FDF705FB46F29D0061683F
S31502002CA0C0F20020FDF7FEFA45F66C70A168C0F28C
S31502002CB00020FDF7F7FA46F2CD20E168C0F20020C7
S31502002CC0FDF7F0FA45F60B702169C0F20020FDF718
S31502002CD0E9FA46F2D7106169C0F20020FDF7E2FA7E
S31502002CE045F60260A169C0F20020FDF7DBFA45F65F
S31502002CF01060E169C0F20020FDF7D4FA45F67A7059
S31502002D00C0F20020FDF7E3FA45F619702968C0F211
S31502002D100020FDF7C7FA46F2B21055F8241CC0F29D
S31502002D200020FDF7BFFA46F26D106968C0F2002076
S31502002D30FDF7B8FA45F61E60C0F20020FDF7C7FAA5
S31502002D4045F6C160EFF30581C0F20020FDF7AAFA4D
S31502002D502868800118D42868C0011ED42868C002D9
S31502002D6024D42868000349D4286840034FD428682D
S31502002D70800355D42868C0035BD42868C00561D493
S31502002D8000BEB0BD00BF00BF46F2AB00C0F20020DD
S31502002D90FDF79DFA2868C001E0D546F2F200C0F2BE
S31502002DA00020FDF794FA2868C002DAD546F2180028
S31502002DB0C0F20020FDF78BFA45F643602146C0F2C9
S31502002DC00020FDF76FFA46F2C610EFF30A81C0F251
S31502002DD00020FDF767FA46F24C30EFF30981C0F2A4
S31502002DE00020FDF75FFA45F62D70EFF30B81C0F276
S31502002DF00020FDF757FA28680003B5D545F6BB70E3
S31502002E00C0F20020FDF763FA28684003AFD545F605
S31502002E105460C0F20020FDF75AFA28688003A9D54B
S31502002E2045F6DB70C0F20020FDF751FA2868C003B0
S31502002E30A3D546F2A620C0F20020FDF748FA28687C
S31502002E40C0059DD545F68160C0F20020FDF73FFA28
S31502002E5000BEB0BDD4D4D4D4D4D4D4D4D4D4D4D44F
S31502002E6084B040F254004EF2001B43F20C084CF2BE
S31502002E7000344CF6002941F2FF1A44F23F26C2F210
S31502002E8000208021CEF2000BC4F22008C4F2000416
S31502002E90C3F69A39C0F27A0AC0F20F06FDF7F3F9C1
S31502002EA040F2981040F2301CC2F20020002148F68F
S31502002EB0001246F6240300F8281FC2F2002CC4F2C0
S31502002EC03502C0F20023C0E90832827842F6313771
S31502002ED00163CCE90011C0F2002740F2D4050123B8
S31502002EE0C0E90A7102F0FC01013181700821CBF8B8
S31502002EF08010BFF34F8FBFF36F8FE168C2F20025D8
S31502002F0021F48031E160E1684EF20141C022CEF245
S31502002F1000018A70E860CBF88030BFF34F8FBFF3B1
S31502002F206F8F276827F48037276027688BF800237E
S31502002F3028600227CBF88070BFF34F8FBFF36F8FE5
S31502002F40676827F48037676067680A7068600427D5
S31502002F50CBF88070BFF34F8FBFF36F8FA76827F44C
S31502002F608037A760A7684A70A860EFF3108483F3DE
S31502002F70108858F8080C4DF6836120F4800048F852
S31502002F80080C58F8080CDCF81000C4F21B31504546
S31502002F900ED93044A0FB0101880C0001A0EB914040
S31502002FA0400040F29815C2F2002560B911E000BF58
S31502002FB0B9FBF0F047F23051B1FBF0F040F2981550
S31502002FC0C2F2002528B101F0C7FF40F2301CC2F25E
S31502002FD0002C84F310884FF48061E86C0022816033
S31502002FE04FF41241E86C416140F21001E86CC2F202
S31502002FF0002109680161E86C3021C1600021E86C9A
S31502003000C1F61F718261E86C416240F20011E86C00
S31502003010C0F201010163A96CC5E90E22C5E91022BD
S31502003020CB692A635A7C8AB34EF25403C4F2010373
S315020030301F7807F00F07022F02D801260EE000BF05
S31502003040FE1E052E08D246F61437C0F2002757F8A0
S31502003050267005E000BF00BF083F102606FA07F7F4
S315020030605B7840F22006C2F2002603F00F0356F800
S31502003070233044F23F26C0F20F06B3FBF7F3DCF827
S3150200308010707A43B2FBF3F201322A6310234FF631
S31502003090FF72C9F60753AA8683664CF2003791F986
S315020030A00510C4F200074A0901F01F0357F8210070
S315020030B020F4803047F8210057F821000BF5C07044
S315020030C00121BFF35F8F01FA03F340F822304BF878
S315020030D02230AA6C92F90B2057F8223023F480335F
S315020030E047F8223057F82230530902F01F02BFF385
S315020030F05F8F01FA02F240F823204BF82320AA6CD4
S3150200310092F9072057F8223023F4803347F8223009
S3150200311057F82230530902F01F02BFF35F8F01FAFC
S3150200312002F240F823204BF82320AA6C92F90920D8
S3150200313057F8223023F4803347F8223057F82230EA
S31502003140530902F01F02BFF35F8F914040F823102C
S315020031504BF8231040F21141E86CC0F20101816084
S31502003160E86C00BF00BF00BF017FC907FCD044F670
S315020031704210C5F24330E8620025EFF3118485F36D
S3150200318012888CF83850FFF73BFC43F680404FF02C
S315020031900041CEF2000040F23012C2F200229FED50
S315020031A0E51A016040F23010C2F2002084F3118861
S315020031B0711C0391006900EE100A88425FEA2F91A2
S315020031C082F8391040F23011C2F20021B8EE400AFC
S315020031D091F8391080EE012A81EE000A9FEDD61A87
S315020031E0002944F6D351C1F2620102FE000AA0FB95
S315020031F00101B6EE002A40F23010A0EE012AC2F218
S315020032000020BDEEC20A80ED0C0A880940F2301198
S31502003210C2F20021486340F23010C2F20020EFF3FE
S31502003220118485F312888560FFF702FBBFF34F8F87
S31502003230BFF36F8F00BFBFF34F8FBFF36F8F804611
S31502003240FFF7F6FA40F23011C2F2002189684144D2
S31502003250401A40F23011C2F20021886040F230106A
S31502003260C2F2002084F31188C0E90855C0E90A5564
S3150200327045F6EE60C0F20020FDF729F846F2380066
S31502003280C0F20020FDF723F846F21410C0F2002027
S31502003290FDF71DF846F2DB20C0F20020FDF717F815
S315020032A045F63E70C0F20020FDF711F846F25D3099
S315020032B0C0F20020FDF70BF840F2981246F2F870C1
S315020032C0C2F20022C0F2002040F2010140F2301C9C
S315020032D0106140F29810C2F20020C0F20001C2F260
S315020032E0002C40F2981AC0E9051543F20C01C4F20B
S315020032F02001C56105700120EFF3108480F3108868
S315020033000868C2F2002A20F400100860086841F238
S31502003310FF11C0F27A01DCF81000884214D94DF68A
S3150200332083613044C4F21B31A0FB0101880C000109
S31502003330A0EB914040004CF20039C4F2000990B96A
S3150200334017E000BF00BF00BF4CF6002847F230511D
S31502003350C3F69A38B8FBF0F0B1FBF0F04CF2003944
S31502003360C4F2000928B101F0F7FD40F2301CC2F2A6
S31502003370002C48F280254FF68C50C4F23305CFF666
S31502003380FF70642184F31088C0F2030129504FF6BE
S3150200339080510020CFF6FF7168504FF68450CFF669
S315020033A0FF7000BF00BF00BF2A580AB12FF005C048
S315020033B04FF688520023CFF6FF72AB5001226A50B5
S315020033C029580129FCD14FF6C0500027CFF6FF70CD
S315020033D04FF0020E07210F232F5046F2F460F646F5
S315020033E0C0F20020002207E003FA07F73A4301275A
S315020033F0BEF1010E00D10FE0C61996F8246016F050
S315020034000C0FF4D106F00306FF00012EECD001FAF0
S3150200341007F7EBE700BF00BF4FF6C4514FF0080EA7
S31502003420CFF6FF7105F59273E4306A5040F205510A
S3150200343045F8201C00212960E9604FF00511A960BA
S315020034405F214FF00132C0F205016961C5F8C02063
S31502003450C5F8C42045F81C1C296305F1E00105F5F1
S31502003460807200BF00BF00BF50F8447C50F8246C45
S3150200347041F8047B42F8046B50F8047B43F8047B62
S315020034800FF00FC048F6804248F20448C4F23302F5
S31502003490C4F233080021C5F82011C5F88011C8F816
S315020034A00010C8F80410C8F80810C8F8BC10C8F80C
S315020034B0C010C8F8C410C8F8C810C8F8CC10C8F8AC
S315020034C0D010C8F8D41040F2FF11116740F2D400B0
S315020034D0DAF810101C220123C2F200204969C96ED3
S315020034E006E000BF00BF00BF013A01F1010127D08B
S315020034F091F91C70002FF7D40E780BEB07043601F6
S3150200350084F8006340F827A059F8276026F480362D
S3150200351049F8276059F827607E0907F01F07BFF3AD
S315020035205F8F0BEB860403FA07F7C4F880714BF83A
S315020035302670D9E7002474490000804700BF00BF07
S315020035404FF6A8524FF44033CFF6FF724FF6A45708
S31502003550CFF6FF7744F24831AB504FF6A052CFF682
S31502003560FF720323C4F24411AB50EB510FF21072F7
S31502003570DAF81070CAF8241000238AF8003092EDA7
S31502003580001F21237A6980EF502023F001E000BF5B
S31502003590A0FD103E1FF005C04FF6CC53D76ACFF6FA
S315020035A0FF73EF504FF6D057CFF6FF77136BEB5101
S315020035B04FF6D453CFF6FF73576BEF50136D45F8A2
S315020035C0C03C536D45F8BC3C936D45F8B83CD36D91
S315020035D045F8B43C47F63F63176ECBF6CC7345F815
S315020035E0B07C13447032102BA5F140030CD24FF07D
S315020035F0080E00BF00BF00BF52F8047B43F8047BED
S315020036000FF007C00AE000BF4FF0020E00BF00BF76
S31502003610B2EC041FA3EC101E0FF007C04FF6406772
S315020036200022CFF6FF770123CAE901234FF4901651
S31502003630EA514FF64467CFF6FF77EA514FF64867ED
S31502003640CFF6FF77EA5145F8802C40F20157C8E9D8
S315020036507F72C8E98126DAF8040088B1DAF8100028
S3150200366040F6FE764069076AB0F85000FC034FF058
S31502003670040458BF06EA47042044013001E000BFB3
S315020036800120CAF80C004FF6C850CFF6FF7048F674
S315020036908046C4F2330644F23F292B504FF6DC50E3
S315020036A0CFF6FF704CF60027C0F20F09C3F69A3721
S315020036B02B50CAF820108AF8002046F8782CDAF83F
S315020036C00C0020B100BF00BF01383168FCD1306860
S315020036D050B140F2011046F8200C00BF00BF00BFF7
S315020036E0306808B12FF005C00320F06070634FF612
S315020036F0FF7040F27331C0F27F00C0F27701B0630F
S3150200370071649AF8000005E004208AF80000E9686E
S3150200371049073DD1C0B2052826D8DFE800F02909BD
S315020037200531151500BF00BFEEE700BF00BF00BFA1
S3150200373003208AF8000029684907EBD00720286091
S31502003740042029E000BF00BFDAF81000406990F8B3
S31502003750901001F00701296090F89000C0F3021062
S31502003760E86005208AF80000002015E000BF00BFCF
S3150200377001208AF8000003200EE000BF00BF00BF50
S3150200378002208AF800004FF4407005E000BF00BF37
S315020037900720E8604FF4806046F8800C02204FF460
S315020037A07A74039D15E000BFB7FBF0F0B5FBF0F0AD
S315020037B028B101F0D1FB40F2301CC2F2002C9AF87B
S315020037C00000411E306800285FEA0F90042938BFC6
S315020037D00220000614D041F2FF11DCF81000C0F2FC
S315020037E07A018842E0D94DF683614844C4F21B311E
S315020037F0A0FB0101880C60430028DAD1DFE700BF95
S3150200380045F6A8605F4640F2280BC0F20020C4F2DB
S31502003810400B6546FCF75BFDDAF8040056F8781CA7
S3150200382000F0010046F2CB0848F28044C0F20028BC
S31502003830084346F8780CDAF8080056F8701C00F0CF
S3150200384001004DF6836AC0F21E04C4F21B3A084315
S3150200385046F8700C49F200464FF48060C7F235769E
S31502003860CBF8000012E000BF4CF60021C3F69A31F5
S31502003870B1FBF0F0B6FBF0F001F06EFB40F2301552
S31502003880C2F20025D5E90001884219D14046FCF76B
S315020038901EFD41F2FF112869C0F27A018842E3D97E
S315020038A04844A0FB0A01880CA0FB040121B14FF099
S315020038B0FF30E1E700BF00BF0028DDD1E2E700BF2D
S315020038C046F20620C0F20020FCF701FDFEF7B0FF2B
S315020038D0BFF34F8F44F2000840F29814BFF36F8F84
S315020038E0C2F2000848F6804605460391002042F2DD
S315020038F01071C2F20024C4F23306C8F80800C8F8F0
S31502003900040000BF00BF00BF88F80000626846F8E6
S31502003910782CA26846F8702C98F800200AB92FF085
S3150200392005C8D8F808200132C8F80820D8F80820B7
S315020039308A42E9D3BFF34F8FBFF36F8FFEF778FF4B
S3150200394040F23012C2F200229268AB18039D45EB98
S31502003950E272C51A45F64160C0F2002061EB020A26
S31502003960FCF7B5FC46F28110C0F20020FCF79AFC87
S3150200397046F22820C0F20020FCF7A9FC46F2E51028
S3150200398046F26A01C0F20020C0F200212A465346DE
S31502003990CDE9005AFCF786FC4AF21400C4F2330061
S315020039A00068A8F8020000282ED480B29FEDB81B4A
S315020039B000EE100A08F10C05B8EE400B46F29A1218
S315020039C0C0F20022052120EE010B28469FEDB21B14
S315020039D020EE010BB7EEC00BB7EEC00A8DED000B61
S315020039E0FCF797FCB8F8021046F25220C0F200200B
S315020039F0FCF758FC45F6D0602946C0F20020FCF7D9
S31502003A0051FC0DE000BF00BF45F6FA70C0F200207F
S31502003A10FCF75DFC45F67060C0F20020FCF757FC2F
S31502003A20002046F8780C4CF60028E0684DF6836ACA
S31502003A30C3F69A38C4F21B3A28B100BF00BF00BFD2
S31502003A4001383168FCD1306850B140F2011046F8B5
S31502003A50200C00BF00BF00BF306808B12FF005C0C0
S31502003A6046F2A010C0F20020FCF731FC002046F816
S31502003A70780CE06818B100BF01383168FCD13068B3
S31502003A8040F23015C2F2002550B140F2011046F85C
S31502003A90200C00BF00BF00BF306808B12FF005C080
S31502003AA040F2981148F28022C2F20021C4F2330297
S31502003AB000204FF01C0EC1E90800C1E90100C2F85E
S31502003AC0A000086901214069C06EF6461C3003E079
S31502003AD0BEF1010E00D113E010F9012B002AF7D432
S31502003AE0530902F01F0201FA02F207EB8303C3F83D
S31502003AF08020BFF34F8FBFF36F8FE9E700BF00BF90
S31502003B0045F2000043F20C06C4F22300C4F220067A
S31502003B1090F90010B1F1FF3F31DC017801F0EF01BD
S31502003B200170017801F07F0101700120EFF310842A
S31502003B3080F3108841F2FF113068C0F27A0140F436
S31502003B408000306030682869884209D94844A0FB61
S31502003B500A01880C0001A0EB9140400038B90CE044
S31502003B60B8FBF0F047F23051B1FBF0F028B101F0AA
S31502003B70F3F940F23015C2F2002584F310880120D1
S31502003B80EFF3108480F3108841F2FF113068C0F21F
S31502003B907A0140F4001030603068286988420BD9F7
S31502003BA04844A0FB0A01880C0001A0EB91404000AA
S31502003BB0D14648B90EE000BFB8FBF0F047F23051EB
S31502003BC0B1FBF0F0D14628B101F0C6F940F230154A
S31502003BD0C2F2002546F2005A4AF22016C1F6CD5A22
S31502003BE0C0F2070684F310884FF480674FF08064B2
S31502003BF00DE000BF00BF00BFB8FBF0F0BAFBF0F06B
S31502003C0028B101F0A9F940F23015C2F2002541F2BD
S31502003C10FF11CBF80070C0F27A01286988420BD9ED
S31502003C2044F23F21C0F20F010844A0FB0901880CAF
S31502003C30704330B90BE000BFB8FBF0F0BAFBF0F00E
S31502003C4028B101F089F940F23015C2F2002541F29D
S31502003C50FF11CBF80040C0F27A0128698842CBD91D
S31502003C6044F23F21C0F20F010844A0FB0901880C6F
S31502003C7070430028C5D1CAE700BF00BF00BF00BF1E
S31502003C80C0853340D0853340E0853340F0853340EC
S31502003C90A4703D0AD7A30A40000000000000303F8E
S31502003CA0FFF7DEF8D4D4D4D4B0B584B04FF0704167
S31502003CB0EFF3038001EB00604CF200318015C4F291
S31502003CC00001425822F48032425040F2D402415856
S31502003CD0C2F200221458206A00690028606903D0E3
S31502003CE000B304B0B0BD00BFE0B1A07800F003009D
S31502003CF00228206908D10088616A20F4DC40486005
S31502003D0005E000BF00BF00BF616A00780871A078B5
S31502003D10226900F003016069401A60611144216161
S31502003D200028DED1616A02228D68A06862F3155509
S31502003D3010B101F011F9616A8D60A06A00284FF096
S31502003D4000002061CDD0E06A30B190E82E008DE807
S31502003D502E0002E000BF00BF6846216A09780160B2
S31502003D600021816080210171216BC160A16A8847AF
S31502003D70E06A00281CBF9DE82E002EC004B0B0BD2C
S31502003D8010B586B04FF07041EFF3038001EB00608F
S31502003D904CF200318015C4F20001425822F48032FE
S31502003DA0425040F2D4024158C2F200221458A0787E
S31502003DB000F00302606A022A22D101686FF35F21D2
S31502003DC0E069019108B3A06901A9FCF781F9A0781D
S31502003DD0D4E9061200F003000144101AC4E90610E1
S31502003DE03ED1A06A00283BD0E06A28B3D0E900C2DF
S31502003DF0D0E90231CDE90431CDE902C21DE000BFAE
S31502003E000178E06901910028DDD1A06A40B3E06A39
S31502003E1050B1D0E900CED0E90223CDE90423CDE9A1
S31502003E2002CE02E000BF00BF02A8226A12788160B9
S31502003E300260042107E000BF02A8216A0978016036
S31502003E400021816001210171216BC160A16A88474D
S31502003E50E06A28B102AC1ECC016042608360C46095
S31502003E6006B010BDD4D4D4D4B0B584B04FF07041EE
S31502003E70EFF3038001EB006040F2D4028115C2F237
S31502003E8000224FF6EF7304165558CFF6CF73696AC0
S31502003E908A681A408A60A96AE1B1E86A40B1D0E943
S31502003EA000C2D0E90231CDE90231CDE900C200E01B
S31502003EB06846296A09780160002181600221017140
S31502003EC0296BC160A96A8847E86A00281CBF9DE879
S31502003ED02E002EC04CF20030C4F2000050F824101E
S31502003EE021F4803140F8241050F8240004B0B0BD0B
S31502003EF070B584B04FF07041EFF3038001EB0060C0
S31502003F0040F2D4028115C2F200225458A178636AA3
S31502003F1001F00301022907D1D3F800C06FF35F2C29
S31502003F2004E000BF00BF00BF93F800C09A6C2025D2
S31502003F30082105EAD2454FF0100E01EA12611EEA87
S31502003F40126229440A4403D0996C090458BF4032CC
S31502003F50996E051641F0C8519966A16AE9B1E06AFF
S31502003F6050B1D0E900E3D0E90216CDE90216CDE957
S31502003F7000E302E000BF00BF6846216A0978C0F884
S31502003F8008C001600271216BC160A16A8847E06ABC
S31502003F9000281CBF9DE84E004EC04CF20030C4F211
S31502003FA0000050F8251021F4803140F8251050F811
S31502003FB0250004B070BDD4D42DE9F04F91B048F677
S31502003FC08848C4F23308D8F80000D8F81810C00799
S31502003FD04FF0070008BF0320C90705D14FF0000CB8
S31502003FE0002206E000BF00BFD8F81CC0D8F828207F
S31502003FF007204FF07043EFF3038103EB016640F2B3
S31502004000D403B115C2F2002348F280254FEA266A8C
S315020040105958C4F233050F7807E000BF00BF00BF4E
S3150200402004270F70EC68640742D1FFB2052F25D82A
S31502004030DFE807F02A0A0632161600BF00BF00BFE5
S31502004040EEE700BF00BF00BF03270F702C686407AE
S31502004050EBD007272F604FF00409032822D02DE06A
S315020040600F697F6997F8904004F007042C6097F86F
S315020040709070C7F30217EF6005270F704FF0000923
S3150200408003280FD01AE000BF01270F704FF0030973
S31502004090032807D012E000BF02270F704FF44079C1
S315020040A003280BD1097805290CD244E000BF00BFD2
S315020040B00727EF604FF480690328F3D006270F70B5
S315020040C04FF000094FF07044EFF3038104EB0161F6
S315020040D0891553F801B0DBF8141061B38DF80200AC
S315020040E00020ADF818000592DBE90602CDF810C0F3
S315020040F0EC464FF0FF038DF808300192ADF8003020
S31502004100B0B3034608A9D4CBD4C193E8D400D4C132
S315020041100146BCE8CC00CCC19CE8CC00CCC1DBF8A3
S3150200412014108847DBF8180028B108A9CCC9CCC0FE
S3150200413091E8CC00CCC00120C8F814004CF2003043
S31502004140C4F2000050F82A1021F4803140F82A10F7
S3150200415050F82A0000BF00BFD5F8000A08B12FF0B8
S3150200416005C8C5F8809911B0BDE8F08F00BF00BF41
S3150200417060468847DBF818000028D6D1DBE7D4D49E
S315020041802DE9F04F91B048F68848C4F23308D8F8C2
S315020041900000D8F8181080074FF0070058BF032018
S315020041A0890705D44FF0000C002206E000BF00BFCD
S315020041B0D8F81CC0D8F8282007204FF07043EFF338
S315020041C0038103EB016640F2D403B115C2F2002368
S315020041D048F280254FEA266A5958C4F233050F7809
S315020041E007E000BF00BF00BF04270F70EC6864073A
S315020041F042D1FFB2052F25D8DFE807F02A0A063298
S31502004200161600BF00BF00BFEEE700BF00BF00BF2B
S3150200421003270F702C686407EBD007272F604FF037
S315020042200409032822D02DE00F697F6997F8904090
S3150200423004F007042C6097F89070C7F30217EF603A
S3150200424005270F704FF0000903280FD01AE000BFB0
S3150200425001270F704FF00309032807D012E000BFB1
S3150200426002270F704FF4407903280BD109780529EC
S315020042700CD244E000BF00BF0727EF604FF480690D
S315020042800328F3D006270F704FF000094FF0704451
S31502004290EFF3038104EB0161891553F801B0DBF8F2
S315020042A0141061B38DF802000020ADF818000592D3
S315020042B0DBE90602CDF810C0EC464FF0FF038DF89D
S315020042C008300192ADF80030B0B3034608A9D4CB4A
S315020042D0D4C193E8D400D4C10146BCE8CC00CCC119
S315020042E09CE8CC00CCC1DBF814108847DBF8180038
S315020042F028B108A9CCC9CCC091E8CC00CCC0022018
S31502004300C8F814004CF20030C4F2000050F82A102B
S3150200431021F4803140F82A1050F82A0000BF00BF6D
S31502004320D5F8000A08B12FF005C8C5F8809911B072
S31502004330BDE8F08F00BF00BF60468847DBF8180073
S315020043400028D6D1DBE7D4D42DE9F04F93B048F656
S31502004350285B4FF07041C4F2330B40F2D402C2F232
S315020043600022DBF800A0DBF80430DBF81070EFF374
S31502004370038001EB006081154FEA206852F8019034
S31502004380D9F8141069B3ADF820A008208DF80A00F8
S3150200439001930693D9E90603FF228DF81020ADF8A2
S315020043A0082002AA07970393009788B303460AA92F
S315020043B0F0CBF0C193E8F000F0C10146E8CAE8C1CB
S315020043C092E8E800E8C1D9F814108847D9F818002D
S315020043D028B10AA9CCC9CCC091E8CC00CCC0DDE991
S315020043E000731FFA8AF0CBF814004CF20030CBF8B7
S315020043F01830C4F20000CBF8247050F8281021F4CB
S31502004400803140F8281050F8280013B0BDE8F08F2C
S3150200441010468847D9F818000028DAD1DFE7D4D445
S315020044202DE9F04391B04FF07041EFF3038001EBB9
S31502004430006040F2D4028115C2F200224FEA2068DF
S3150200444052F80190D9F8141059B306208DF80200DB
S31502004450FF208DF808000020ADF81800CDE9040011
S31502004460D9E9060201920122ADF800206A4678B324
S31502004470034608A9F0CBF0C193E8F000F0C101466B
S31502004480E8CAE8C192E8E800E8C1D9F814108847FA
S31502004490D9F8180028B108A9CCC9CCC091E8CC003B
S315020044A0CCC048F68C400121C4F2330001604CF2C4
S315020044B00030C4F2000050F8281021F4803140F890
S315020044C0281050F8280011B0BDE8F08300BF00BFE5
S315020044D010468847D9F818000028DCD1E1E7D4D481
S315020044E02DE9F04391B04FF07041EFF3038001EBF9
S315020044F0006040F2D4028115C2F200224FEA20681F
S3150200450052F80190D9F8141059B306208DF802001A
S31502004510FF208DF808000020ADF81800CDE9040050
S31502004520D9E9060201920222ADF800206A4678B362
S31502004530034608A9F0CBF0C193E8F000F0C10146AA
S31502004540E8CAE8C192E8E800E8C1D9F81410884739
S31502004550D9F8180028B108A9CCC9CCC091E8CC007A
S31502004560CCC048F68C400221C4F2330001604CF202
S315020045700030C4F2000050F8281021F4803140F8CF
S31502004580281050F8280011B0BDE8F08300BF00BF24
S3150200459010468847D9F818000028DCD1E1E7D4D4C0
S315020045A02DE9F04F93B048F6A44A4FF07041C4F299
S315020045B0330A40F2D402C2F20022DAF80030DAF804
S315020045C00C90EFF3038001EB006081154FEA206B3C
S315020045D052F80180D8F8141069B307208DF80A0042
S315020045E0FF208DF810000020ADF82000D8E9060261
S315020045F003920122ADF8082002AA0193CDE90639F9
S3150200460090B303460AA9F0CBF0C193E8F000F0C1DB
S315020046100146E8CAE8C192E8E800E8C1D8F81410F1
S315020046208847D8F8180028B10AA9CCC9CCC091E8A5
S31502004630CC00CCC0019BCAF81430CAF820900120E5
S31502004640CAF810004CF20030C4F2000050F82B10E9
S3150200465021F4803140F82B1050F82B0013B0BDE83E
S31502004660F08F00BF00BF00BF10468847D8F8180079
S315020046700028D9D1DEE7D4D42DE9F04F93B048F61D
S31502004680A44A4FF07041C4F2330A40F2D402C2F295
S315020046900022DAF80030DAF80C90EFF3038001EB2F
S315020046A0006081154FEA206B52F80180D8F8141089
S315020046B069B307208DF80A00FF208DF8100000204C
S315020046C0ADF82000D8E9060203920222ADF80820CE
S315020046D002AA0193CDE9063990B303460AA9F0CBA3
S315020046E0F0C193E8F000F0C10146E8CAE8C192E8D9
S315020046F0E800E8C1D8F814108847D8F8180028B19D
S315020047000AA9CCC9CCC091E8CC00CCC0019BCAF89E
S315020047101430CAF820900220CAF810004CF2003079
S31502004720C4F2000050F82B1021F4803140F82B100F
S3150200473050F82B0013B0BDE8F08F00BF00BF00BFDA
S3150200474010468847D8F818000028D9D1DEE7D4D415
S315020047502DE9F04391B04FF07041EFF3038001EB86
S31502004760006040F2D4028115C2F200224FEA2068AC
S3150200477052F80190D9F8141051B30123ADF818304C
S3150200478000208DF8020005900490D9E90603FF2265
S315020047908DF80820ADF800206A46019380B30346DF
S315020047A008A9F0CBF0C193E8F000F0C10146E8CACF
S315020047B0E8C192E8E800E8C1D9F814108847D9F8A8
S315020047C0180028B108A9CCC9CCC091E8CC00CCC04D
S315020047D048F654500121C4F2330001604CF2003015
S315020047E0C4F2000050F8281021F4803140F8281055
S315020047F050F8280011B0BDE8F08300BF00BF00BF2B
S3150200480010468847D9F818000028DBD1E0E7D4D44F
S315020048102DE9F04391B04FF07041EFF3038001EBC5
S31502004820006040F2D4028115C2F200224FEA2068EB
S3150200483052F80190D9F8141051B30223ADF818308A
S3150200484000208DF8020005900490D9E90603FF22A4
S315020048508DF80820ADF800206A46019380B303461E
S3150200486008A9F0CBF0C193E8F000F0C10146E8CA0E
S31502004870E8C192E8E800E8C1D9F814108847D9F8E7
S31502004880180028B108A9CCC9CCC091E8CC00CCC08C
S3150200489048F654500221C4F2330001604CF2003053
S315020048A0C4F2000050F8281021F4803140F8281094
S315020048B050F8280011B0BDE8F08300BF00BF00BF6A
S315020048C010468847D9F818000028DBD1E0E7D4D48F
S315020048D02DE9F04391B04FF07041EFF3038001EB05
S315020048E0006040F2D4028115C2F200224FEA20682B
S315020048F052F80190D9F8141051B30423ADF81830C8
S3150200490000208DF8020005900490D9E90603FF22E3
S315020049108DF80820ADF800206A46019380B303465D
S3150200492008A9F0CBF0C193E8F000F0C10146E8CA4D
S31502004930E8C192E8E800E8C1D9F814108847D9F826
S31502004940180028B108A9CCC9CCC091E8CC00CCC0CB
S3150200495048F654500421C4F2330001604CF2003090
S31502004960C4F2000050F8281021F4803140F82810D3
S3150200497050F8280011B0BDE8F08300BF00BF00BFA9
S3150200498010468847D9F818000028DBD1E0E7D4D4CE
S315020049902DE9F04391B04FF07041EFF3038001EB44
S315020049A0006040F2D4028115C2F200224FEA20686A
S315020049B052F80190D9F8141051B30823ADF8183003
S315020049C000208DF8020005900490D9E90603FF2223
S315020049D08DF80820ADF800206A46019380B303469D
S315020049E008A9F0CBF0C193E8F000F0C10146E8CA8D
S315020049F0E8C192E8E800E8C1D9F814108847D9F866
S31502004A00180028B108A9CCC9CCC091E8CC00CCC00A
S31502004A1048F654500821C4F2330001604CF20030CB
S31502004A20C4F2000050F8281021F4803140F8281012
S31502004A3050F8280011B0BDE8F08300BF00BF00BFE8
S31502004A4010468847D9F818000028DBD1E0E7D4D40D
S31502004A502DE9F04391B04FF07041EFF3038001EB83
S31502004A60006040F2D4028115C2F200224FEA2068A9
S31502004A7052F80190D9F8141051B31023ADF818303A
S31502004A8000208DF8020005900490D9E90603FF2262
S31502004A908DF80820ADF800206A46019380B30346DC
S31502004AA008A9F0CBF0C193E8F000F0C10146E8CACC
S31502004AB0E8C192E8E800E8C1D9F814108847D9F8A5
S31502004AC0180028B108A9CCC9CCC091E8CC00CCC04A
S31502004AD048F654501021C4F2330001604CF2003003
S31502004AE0C4F2000050F8281021F4803140F8281052
S31502004AF050F8280011B0BDE8F08300BF00BF00BF28
S31502004B0010468847D9F818000028DBD1E0E7D4D44C
S31502004B102DE9F04F91B048F6F8484FF07041C4F2D3
S31502004B20330840F2D402C2F2002258F8049CEFF392
S31502004B30038001EB006081154FEA206A52F801B04A
S31502004B40DBF8141069B3484600236FF35F20ADF813
S31502004B50180005930493DBE906030A228DF8022066
S31502004B60FF228DF80820ADF800206A46019398B31B
S31502004B70034608A9F0CBF0C193E8F000F0C1014664
S31502004B80E8CAE8C192E8E800E8C1DBF814108847F1
S31502004B90DBF8180028B108A9CCC9CCC091E8CC0032
S31502004BA0CCC048466FF35F2048F8080CD8F80000DE
S31502004BB069F30800C8F800004CF20030C4F20000A5
S31502004BC050F82A1021F4803140F82A1050F82A00B1
S31502004BD011B0BDE8F08F00BF10468847DBF8180019
S31502004BE00028D8D1DDE7D4D42DE9F04391B04FF0B7
S31502004BF07041EFF3038001EB006040F2D4028115AD
S31502004C00C2F200224FEA206852F80190D9F8141035
S31502004C1059B30123ADF8183009208DF8020000209F
S31502004C2005900490D9E90603FF228DF80820ADF815
S31502004C3000206A46019338B3034608A9F0CBF0C1B7
S31502004C4093E8F000F0C10146E8CAE8C192E8E8003C
S31502004C50E8C1D9F814108847D9F8180028B108A96C
S31502004C60CCC9CCC091E8CC00CCC04CF20030C4F226
S31502004C70000050F8281021F4803140F8281050F82E
S31502004C80280011B0BDE8F08310468847D9F818000D
S31502004C900028E4D1E9E7D4D42DE9F04391B04FF0EE
S31502004CA07041EFF3038001EB006040F2D4028115FC
S31502004CB0C2F200224FEA206852F80190D9F8141085
S31502004CC059B30223ADF8183009208DF802000020EE
S31502004CD005900490D9E90603FF228DF80820ADF865
S31502004CE000206A46019338B3034608A9F0CBF0C107
S31502004CF093E8F000F0C10146E8CAE8C192E8E8008C
S31502004D00E8C1D9F814108847D9F8180028B108A9BB
S31502004D10CCC9CCC091E8CC00CCC04CF20030C4F275
S31502004D20000050F8281021F4803140F8281050F87D
S31502004D30280011B0BDE8F08310468847D9F818005C
S31502004D400028E4D1E9E7D4D42DE9F04391B04FF03D
S31502004D507041EFF3038001EB006040F2D40281154B
S31502004D60C2F200224FEA206852F80190D9F81410D4
S31502004D7059B30423ADF8183009208DF8020000203B
S31502004D8005900490D9E90603FF228DF80820ADF8B4
S31502004D9000206A46019338B3034608A9F0CBF0C156
S31502004DA093E8F000F0C10146E8CAE8C192E8E800DB
S31502004DB0E8C1D9F814108847D9F8180028B108A90B
S31502004DC0CCC9CCC091E8CC00CCC04CF20030C4F2C5
S31502004DD0000050F8281021F4803140F8281050F8CD
S31502004DE0280011B0BDE8F08310468847D9F81800AC
S31502004DF00028E4D1E9E7D4D42DE9F04391B04FF08D
S31502004E007041EFF3038001EB006040F2D40281159A
S31502004E10C2F200224FEA206852F80190D9F8141023
S31502004E2059B30823ADF8183009208DF80200002086
S31502004E3005900490D9E90603FF228DF80820ADF803
S31502004E4000206A46019338B3034608A9F0CBF0C1A5
S31502004E5093E8F000F0C10146E8CAE8C192E8E8002A
S31502004E60E8C1D9F814108847D9F8180028B108A95A
S31502004E70CCC9CCC091E8CC00CCC04CF20030C4F214
S31502004E80000050F8281021F4803140F8281050F81C
S31502004E90280011B0BDE8F08310468847D9F81800FB
S31502004EA00028E4D1E9E7D4D42DE9F04391B04FF0DC
S31502004EB07041EFF3038001EB006040F2D4028115EA
S31502004EC0C2F200224FEA206852F80190D9F8141073
S31502004ED059B31023ADF8183009208DF802000020CE
S31502004EE005900490D9E90603FF228DF80820ADF853
S31502004EF000206A46019338B3034608A9F0CBF0C1F5
S31502004F0093E8F000F0C10146E8CAE8C192E8E80079
S31502004F10E8C1D9F814108847D9F8180028B108A9A9
S31502004F20CCC9CCC091E8CC00CCC04CF20030C4F263
S31502004F30000050F8281021F4803140F8281050F86B
S31502004F40280011B0BDE8F08310468847D9F818004A
S31502004F500028E4D1E9E7D4D401380028FCD170470F
S31502004F604CF22010C4F2000050F8201C02681140D6
S31502004F7040F8101C00BF00BF02680A42FCD170470D
S31502004F8000F006F8FEF78CFE00BE7047D4D4D4D4E7
S31502004F902DE9F04F83B04EF6145840F20120CEF2BE
S31502004FA00008C0F20E004EF2000BC8F80000CEF266
S31502004FB0010BBFF34F8FBFF36F8F58F8141CC1F369
S31502004FC0035001285FEA1F9211F00F0F5FEA0F915B
S31502004FD01142DBF8001013D1022811D241F004006D
S31502004FE0CBF800004EF20800BFF34F8FCEF200005E
S31502004FF0BFF36F8F016841F48031016004E000BFA6
S3150200500021F00400CBF80000BFF34F8F4EF2FA32C4
S315020050104FF47000BFF36F8FC8F8740040F20000BF
S31502005020C4F20102C0F2002048F80C0C4AF2025007
S31502005030CFF6FF7040F220090FF6143101301080CE
S31502005040C2F200290FF6183091ED001F4EF2550AF2
S3150200505009F1200389ED001FC4F2010A48F200415A
S3150200506090ED001F43F6000044F25532C1F69C4013
S3150200507089ED041FC1F2D771C1F2DE3207C31AF8F5
S315020050802F0C3AF8311C01F00F02A2F10801032994
S3150200509036D8DFE801F00529111D00BF00BF00BFA9
S315020050A04AF6AB2159F82000CAF6AA21A0FB010153
S315020050B0480828E000BF00BF4AF6AB2159F8200095
S315020050C0CAF6AA21A0FB0101C8081CE000BF00BF66
S315020050D04AF6AB2159F82000CAF6AA21A0FB010123
S315020050E0080910E000BF00BF4AF6AB2159F82000BC
S315020050F0CAF6AA21A0FB0101880804E000BF00BF8E
S3150200510059F82000D04040F230164EF60045C2F261
S315020051100026C4F201050A214EF64C4730614FF6CD
S315020051205060CFF6FF70C4F20107295409208AF8AD
S315020051304D00287818B917F84B0C800737D0287815
S3150200514088BB41F2FF1101202870C0F27A01306952
S31502005150884211D944F23F21C0F20F0108444DF6AC
S315020051608361C4F21B31A0FB0101880CC8214843AC
S3150200517078B915E000BF00BF4CF60021C3F69A319C
S31502005180B1FBF0F040F64051C0F20301B1FBF0F082
S3150200519030B1FFF7E1FE40F23016C2F2002600BF40
S315020051A028780128FCD1002007F84B0C2870002033
S315020051B00AF8230C00BF00BF1AF8190C0007FBD52A
S315020051C042F602314FF60210CAF8730040F241501D
S315020051D02AF8070C0020C0F201010AF80B0CCAF8E3
S315020051E0571040F283412AF8091CBFF34F8FBFF3D1
S315020051F06F8FD8F8001021F40031C8F80010C8F8F3
S315020052003C02BFF34F8FBFF36F8FDBF8000020F431
S315020052104050CBF80000BFF34F8FBFF36F8F1AF8E1
S31502005220410C00F0F80001300AF8410C00BF00BF43
S315020052301AF8410CC006FBD4DBF8000040F44050DB
S31502005240CBF80000BFF34F8FBFF36F8FD8F8000083
S31502005250800314D4BFF34F8FBFF36F8F0020C8F8BB
S315020052603C02BFF34F8FBFF36F8FD8F8000040F4B4
S315020052700030C8F80000BFF34F8FBFF36F8F0020D6
S315020052800AF82B0C00BF00BF1AF8190C8006FBD5D2
S315020052904CF200040020C4F2130420702078207817
S315020052A020786068C82807D0C820C1F6006000BF11
S315020052B060606168C829FBD1A068642808D06420B0
S315020052C0CEF2001000BF00BFA060A1686429FBD126
S315020052D049F69820C9F689004AF8350C48F6800046
S315020052E02AF8310C05200AF82F0C1AF82F0C3AF876
S315020052F0311C01F00F02A2F10801032934D8DFE8BC
S3150200530001F003270F1B00BF4AF6AB2159F8200014
S31502005310CAF6AA21A0FB0101480828E000BF00BF87
S315020053204AF6AB2159F82000CAF6AA21A0FB0101D0
S31502005330C8081CE000BF00BF4AF6AB2159F820009E
S31502005340CAF6AA21A0FB0101080910E000BF00BFAE
S315020053504AF6AB2159F82000CAF6AA21A0FB0101A0
S31502005360880804E000BF00BF59F82000D04041F28F
S31502005370FF113061C0F27A01884211D944F23F210D
S31502005380C0F20F0108444DF68361C4F21B31A0FB43
S315020053900101880C0001A0EB9140400058B910E0D1
S315020053A04CF60021C3F69A31B1FBF0F047F23051C8
S315020053B0B1FBF0F028B1FFF7CFFD40F23016C2F292
S315020053C0002660686FF39F20652801D301202070B4
S315020053D01AF82F0C3AF8311C01F00F02A2F108015B
S315020053E0032935D8DFE801F00428101C00BF00BFEE
S315020053F04AF6AB2159F82000CAF6AA21A0FB010100
S31502005400480828E000BF00BF4AF6AB2159F8200041
S31502005410CAF6AA21A0FB0101C8081CE000BF00BF12
S315020054204AF6AB2159F82000CAF6AA21A0FB0101CF
S31502005430080910E000BF00BF4AF6AB2159F8200068
S31502005440CAF6AA21A0FB0101880804E000BF00BF3A
S3150200545059F82000D04042F200013061C4F2000146
S315020054604AF20250013808800120BFF35F8F0872AA
S315020054704FF42540BFF35F8F08809AF8850040F00D
S3150200548040008AF8850000BF9AF98500B0F1FF3F17
S31502005490FADC01208AF87F00C7208AF885009AF88C
S315020054A0850000F0BF008AF8850000BF00BF00BF7C
S315020054B09AF985000028FBD401200AF8020C9AF812
S315020054C01F0040F040008AF81F0000BF00BF00BF67
S315020054D09AF91F00B0F1FF3FFADC07208AF817009D
S315020054E048208AF81F0008208AF81F0000BF00BF64
S315020054F09AF91F000028FBD49AF8000040F04000F9
