:020000040200F8
:1000000040040022313B0002313900027107000236
:10001000413B0002413B0002413B0002413B0002E8
:10002000000000000000000000000000413B000252
:10003000413B000200000000413B0002413B000246
:10004000A9130002D912000281140002091500024E
:10005000F93100021920000291200002092100025A
:0C00600009220002892200020123000294
:10006C000100000000000300210B0002410B000204
:10007C0000000000400900000020344000283440FB
:02008C00010170
:1000900001460078002808BF7047B0B546F69002C8
:1000A0004D1CC0F200221468214604F003F915F833
:1000B000010B08B12FF009C0BDE8B0407047D4D49F
:1000C00083B070B581B0044605A840F26C45C2F219
:1000D00000250EC005AB4FF48071284622460093E0
:1000E00004F0FEF846F690012878C0F200210C6872
:1000F00050B1013500BF00BF214604F0DBF815F810
:10010000010B08B12FF009C046F2C5500226C0F21B
:100110000020451C0D2000BF214604F0CBF815F847
:10012000010B013EF8D101B0BDE8704003B070474B
:100130002DE9F04381B046F690060F46C0F2002646
:10014000984634689146DFE800F00233132346F204
:1001500004500626C0F20020451C442000BF00BF0A
:10016000214604F0A7F815F8010B013EF8D12EE066
:1001700046F28E500626C0F20020451C572000BFD4
:10018000214604F097F815F8010B013EF8D11EE066
:1001900046F2A8600626C0F20020451C452000BF9C
:1001A000214604F087F815F8010B013EF8D10EE066
:1001B00046F2D4400626C0F20020451C492000BF6C
:1001C000214604F077F815F8010B013EF8D17FB114
:1001D000387848B17D1C00BF214604F06BF815F853
:1001E000010B08B12FF009C02020214604F062F86D
:1001F00046F2FD600426C0F20020451C3D2000BFF1
:10020000214604F057F815F8010B013EF8D140F2F1
:100210006C474FF48071C2F200274A463846434685
:1002200004F05EF840F20000C2F200200178387855
:10023000D1B148B17D1C00BF214604F03BF815F850
:10024000010B08B12FF009C046F2C5500226C0F2DA
:100250000020451C0D2000BF214604F02BF815F8A6
:10026000010B013EF8D10BE050B17D1C00BF00BF77
:10027000214604F01FF815F8010B08B12FF009C052
:1002800001B0BDE8F083D4D482B080B582B08C4692
:100290000146CDE9042304AB012062460193FFF738
:1002A00047FF02B0BDE8804002B07047D4D4D4D438
:1002B0002DE9F04182B044F240218046C0F20F01A6
:1002C000022003F0F1FA46F2D05046F2DB41C0F2D0
:1002D0000020C0F20021FFF7D7FFB8F8040046F273
:1002E000F4770026C0F20027C50800BF00BF00BF9A
:1002F00005FB06F0B8F80030002157F8044B82B235
:100300004046CDE9005400F007F80136082EEFD141
:10031000002002B0BDE8F081002B4FF0000C00F08F
:10032000A3802DE9F04F85B0DDF838A0BAF1000FB9
:1003300000F09780B0F800E088468E4540F28F804C
:100340008188914240F28B8003EB0807047A77455D
:100350000AEB020788BFAEEB08038F424FF0000C98
:1003600088BFA1EB020A052C00F27B800121A1408D
:100370000F9C11F00B0F79D05FEA0A4171D008F1A0
:10038000010118FA83F689B20EFB02F2711A40F2EB
:10039000000551EA2C81C6F600056FF0010905EB56
:1003A00042021FFA81FBA9EB080918FA81F7BDB2D6
:1003B0007D401FFA89F94F1CD9455FEA2F9955EA0C
:1003C00011414FF6F8755FEA0F91C0F20305A0EEF8
:1003D000304B3D4049EA0109A5F1080B05EB080146
:1003E0000391012104954544029501EBDB01019144
:1003F00011E000BF00BF00BFB0F800E01FFA8EF1AF
:100400000CF1010C1FFA8AF51FFA8CFB02EB41027A
:10041000AB4580F0A8801904F0D0182F5FEA2F9127
:10042000454641EA0901C907414611D1019941F008
:1004300001E002EB480100BFA1EC101E0FF005C067
:1004400004998F42DDE90215D6D000BF00BF00BF7E
:10045000013122F815408DB2AE42F9D8CCE74FF009
:10046000010C05B0BDE8F04F6046704711F0240F55
:1004700018BF5FEA0A41F4D008F1010118FA83F6C7
:1004800089B26FF00105711AA5EB080551EA2C81BC
:10049000A0EE104B4FF0000B1FFA81FC18FA81F709
:1004A0001FFA87F989EA0709AFB20EFB02F5674523
:1004B0005FEA2F9C59EA11425FEA0F9701F10109A7
:1004C00040F2000247EA0C014FF6FC77C0F2030746
:1004D000049109EA0701C6F60002A1F1040C01EB40
:1004E00008070297012702EB85020391414401911D
:1004F00007EB9C014FF0000C00910FE000BF00BF24
:10050000B0F800E01FFA8EF70BF1010B1FFA8AF129
:100510001FFA8BF502EB87028D42A2D21F04F1D0A5
:10052000B9F1180F5FEA2F97049945460F43FF076B
:10053000474611D1009902EB880741F001E000BF66
:10054000A7EC101E0FF005C00399DDE90175894580
:10055000D6D000BF00BF00BF013742F82540BDB272
:10056000AE42F9D8CCE74FF0000C7AE7D4D4D4D41B
:100570002DE9F04F87B0EFF31082012181F310884D
:1005800040F69831C2F200210B6802903BB940F668
:1005900014500023C4F24000037040230370086825
:1005A00043F6FA730130086040F6300082F3108899
:1005B000C4F24000CFF6FE7342681A400532426032
:1005C00002681A40053202600122EFF3108082F3C4
:1005D00010880A6812B10A68013A0A60096839B9D4
:1005E00040F614510022C4F240010A7080220A70C1
:1005F00080F3108832204FF47A7103F055F946F6F3
:100600000C20C0F20020D0E90001019002F0E4F8D3
:1006100000208DF80C00069046F66810C0F200200D
:1006200046F6140440F26C5944F2150B0668C0F209
:1006300000240D254FF00208C2F2002903AF4FF04D
:10064000000A0BE000BF00BF05204FF47A7103F0F1
:100650002BF90AF1010ABAF1080F17D00AFB05407D
:10066000ADF80DB0ADF8108039460130059000208E
:1006700089F80000304601F053FC00BF00BF00BF06
:1006800099F800000028DFD100BFF9E7019802F0D7
:1006900047FB46F68411029AC0F200210320108124
:1006A0004FF4167090804FF48060108008684FF40B
:1006B000161103F015FD002007B0BDE8F08FD4D46B
:1006C0000078032818BF704740F26D500121C2F234
:1006D000002001707047D4D40078002818BF7047FC
:1006E00040F26C500121C2F2002001707047D4D456
:1006F00010B540F27054A821C2F20024204603F045
:10070000EFFC03202061606146F2CF6040F2186187
:10071000C0F20020A061C2F20021E1614FF48061CB
:1007200021620021A1626162E16240F61822206626
:100730004FF0100E46F67C00C2F200226266C4F84A
:1007400068E02167E1666167BFF35F8FC0F2002058
:100750000F3000BF00BF00BF10F8011904F8011BE3
:100760000FF007C0BFF35F8F10BDD4D4D4D4D4D45E
:1007700070B546F2A37072B64EF62856C0F200204D
:10078000CEF20006FFF784FC46F2C550C0F200200E
:10079000FFF77EFC7068002807D47068400010D511
:1007A00046F2F450C0F2002003E046F2D850C0F206
:1007B0000020FFF76DFC46F2C550C0F20020FFF7A5
:1007C00067FC46F22160EFF30884C0F20020FFF7D7
:1007D0005FFC46F2C555C0F200252846FFF758FCDD
:1007E00046F295502168C0F20020FFF769FC46F2FE
:1007F00002706168C0F20020FFF762FC46F294408C
:10080000A168C0F20020FFF75BFC46F23A50E168B5
:10081000C0F20020FFF754FC46F2A1502169C0F25B
:100820000020FFF74DFC46F2AD506169C0F2002098
:10083000FFF746FC46F2B950A169C0F20020FFF76D
:100840003FFC46F20B50E169C0F20020FFF738FC94
:1008500046F24650C0F20020FFF71AFC2846FFF788
:1008600017FC46F269503168C0F20020FFF728FCFF
:1008700046F2607056F8241CC0F20020FFF720FCFE
:1008800046F2F2407168C0F20020FFF719FC46F210
:100890001750C0F20020FFF7FBFB2846FFF7F8FBDC
:1008A00046F24260EFF30581C0F20020FFF708FC3A
:1008B000306880010BD546F24F60C0F20020FFF790
:1008C000E7FB46F2C550C0F20020FFF7E1FB3068BD
:1008D000C0010BD546F2AF60C0F20020FFF7D8FB95
:1008E00046F2C550C0F20020FFF7D2FB3068C002CC
:1008F0002AD546F27270C0F20020FFF7C9FB46F21B
:10090000C550C0F20020FFF7C3FB46F20E7021462F
:10091000C0F20020FFF7D4FB46F29470EFF30A8197
:10092000C0F20020FFF7CCFB46F2A040EFF30981B4
:10093000C0F20020FFF7C4FB46F27B50EFF30B81BF
:10094000C0F20020FFF7BCFB306800030BD546F275
:100950008A60C0F20020FFF79BFB46F2C550C0F250
:100960000020FFF795FB306840030BD546F2D270AC
:10097000C0F20020FFF78CFB46F2C550C0F2002009
:10098000FFF786FB306880030BD546F26D60C0F23E
:100990000020FFF77DFB46F2C550C0F20020FFF7B4
:1009A00077FB3068C0030BD546F2D860C0F2002058
:1009B000FFF76EFB46F2C550C0F20020FFF768FB60
:1009C0003068800515D546F21D70C0F20020FFF793
:1009D0005FFB46F2C550C0F20020FFF759FB3068BC
:1009E000000406D546F243703169C0F20020FFF7DB
:1009F00067FB3068C0050BD546F2AF40C0F200205F
:100A0000FFF746FB46F2C550C0F20020FFF740FB5F
:100A100000BE70BDD4D4D4D480B546F6582100228F
:100A2000C0F200214FF00D0CD1F800E000BF00BF74
:100A3000815CDEF824300A2902D049B911E000BFF8
:100A400083F804C0DEF82430996C8900FCD5815C01
:100A50001971DEF8241000BF8B6C9B00FCD50132AD
:100A6000E6E70D201871DEF8240000BF00BF00BFCC
:100A7000816C8900FCD50A210171DEF8240000BFD9
:100A8000816C8900FCD5002080BDD4D4D4D4D4D4CA
:100A900080B540F630208021C2F2002003F020FB18
:100AA00040F6282C46F6582040F62C22C2F2002CA4
:100AB000C0F20020C2F200220023CCF80030D0E9BE
:100AC00000011360BDE8804000F0DEB8D4D4D4D477
:100AD0000179042923D180B540F62C2E40F6282C2C
:100AE000C2F2002EC2F2002C8068DEF80010DCF8A2
:100AF00000304A1C803A52EA0192CEF800209A4215
:100B000040F63023C2F200235854BDE8804018BF9D
:100B10007047501C803850EA0290CCF800007047B3
:100B200046F65821C0F2002109684A6A1071486AE5
:100B3000816C8900FCD500207047D4D4D4D4D4D49F
:100B40002DE9F04182B040F62C2040F62827C2F271
:100B50000020C2F2002700BF01683D688D4201D12C
:100B600000BFF9E7A94209D940F630220139C2F2A3
:100B700000220160525D8DF8072025E0481BC5F179
:100B80008004803040F63020C2F200200DF10708CA
:100B900000EB0501404622465FEA0F9603F0A4FAF7
:100BA000A64205D2A819B0F1800150EA11800AE0EE
:100BB000361B40F6302108EB0400C2F20021324619
:100BC00003F092FA701938609DF8070002B0BDE892
:100BD000F081D4D4D4D4D4D4FFF78AFDFFF758FFE2
:100BE00046F2C850C0F20020FFF716FF46F25B70D5
:100BF000C0F20020FFF710FF40F6B024C2F200243C
:100C00002046FFF7B5FC2046FFF752FB46F61820BA
:100C1000C0F20020046800BF4FF485710022204616
:100C200001F086FC4FF4FA704FF47A7102F03CFE4A
:100C30004FF485710122204601F07AFC4FF4FA70DE
:100C40004FF47A7102F030FEE6E7D4D4D4D4D4D491
:100C5000022818BF704780B540F6EC2046F60C51CC
:100C6000C2F20020C0F2002101F09AFB0120BDE891
:100C7000804002F0F5BED4D480B5FFF7ADFF002070
:100C800080BDD4D4D4D4D4D42DE9F0470D4609780E
:100C900048F200020446C4F2350202EB0120606211
:100CA000002020702562A2786969A162A969C4E95F
:100CB0000B0122F00300D5F81C80411CA17069785B
:100CC00011B940F00200A07095F90B204EF2001906
:100CD000CEF200090126500902F01F034CF2003A3F
:100CE000A97A09EB800006FA03F3C4F2000A4EF673
:100CF000185CC0F88030CEF2000CBFF34F8FBFF30A
:100D00006F8F5AF82230002A23F480334AF82230B9
:100D10004FEA01115AF8223004D409EB020383F898
:100D2000001304E002F00F03634403F8041C40F6D0
:100D30009C310120C2F2002141F8224095F90520A2
:100D4000530902F01F06B0402E7909EB8303002AF5
:100D5000C3F880004FEA0613BFF34F8FBFF36F8FC6
:100D60005AF8220020F480304AF822005AF8220073
:100D700004D409EB020080F8003304E002F00F0015
:100D8000604400F8043C41F82240012695F9072010
:100D9000500902F01F0306FA03F3AE7909EB800055
:100DA000002AC0F880304FEA0613BFF34F8FBFF31D
:100DB0006F8F5AF8220020F480304AF822005AF847
:100DC000220004D409EB020080F8003304E002F0B2
:100DD0000F00604400F8043C41F82240012695F9D8
:100DE0000920500902F01F0306FA03F32E7A09EBDB
:100DF0008000002AC0F880304FEA0613BFF34F8FFF
:100E0000BFF36F8F5AF8220020F480304AF8220096
:100E10005AF8220004D409EB020080F8003304E001
:100E200002F00F00604400F8043C41F82240012029
:100E3000EFF3108680F3108828784FF0004121FAF4
:100E400000F043F20401C4F220010A6822EA000023
:100E5000086008681E20012102F026FD86F3108834
:100E60004FF48061606A4FF480428160E869E978FC
:100E70006E78437802EA8131077866F30921DA0354
:100E8000437B92B207F0030703F00103114441EAE8
:100E90004352636A42EA0762416802F580525A612E
:100EA000027802F0FE03022B07D14FF60471022AEA
:100EB000CFF6007108BF203100E00968626A116155
:100EC0000C22017BAB78877862F39F014FF440726C
:100ED000022B08BF4FF48072002B07F00103676AF2
:100EE00018BF114341EA0371F960626A0021916100
:100EF0002A78092A04D8626A0023C1F61F73536254
:100F0000B0F80F20807B636A40EA022041F601724C
:100F1000C0F21F0210401863206AC4E90411C4E93A
:100F20000611C569A160687C50B34EF25400C4F24A
:100F30000100017801F00F01022901D801220BE024
:100F4000CA1E052A06D246F65C51C0F2002151F8AD
:100F5000226003E00839102202FA01F6407800F01E
:100F60000F0002F051FC40F6D432697CC2F200223C
:100F7000B0FBF6F012685143B1FBF0F00130A06015
:100F8000606AB8F80A101022A181C9F60752826679
:100F9000206A90F905104A0901F01F035AF8210050
:100FA00020F480304AF821005AF8210009F5C07079
:100FB0000121BFF35F8F01FA03F340F8223049F8B3
:100FC0002230226A92F90B205AF8223023F480331F
:100FD0004AF822305AF82230530902F01F02BFF3B8
:100FE0005F8F01FA02F240F8232049F82320226A99
:100FF00092F907205AF8223023F480334AF822303D
:101000005AF82230530902F01F02BFF35F8F01FA32
:1010100002F240F8232049F82320226A92F909209D
:101020005AF8223023F480334AF822305AF822301A
:10103000530902F01F02BFF35F8F914040F8231065
:1010400049F8231040F21141606AC0F20101816049
:10105000606A00BF00BF00BF017FC907FCD044F633
:1010600042110020C5F243316160BDE8F087D4D45D
:1010700003460020C3E906127047D4D4D4D4D4D494
:10108000D0F824C0DCF8083023F44013CCF8083042
:10109000D0F824C000BF00BFDCF848305B00FBD5AF
:1010A000DCF8083023F01003CCF80830D0F824C066
:1010B0009CF81C30DB06FBD4C0E904120020DCF8ED
:1010C000081041F01011CCF808107047D4D4D4D4D3
:1010D0002DE9F0410446406A4FF6EE728846866874
:1010E000CFF6CE7232408260206A00222261C76948
:1010F000A260787C50B34EF25400C4F20100017833
:1011000001F00F01022901D801220BE0CA1E052AB5
:1011100006D246F65C51C0F2002151F8225003E09D
:101120000839102202FA01F5407800F00F0002F0B1
:101130006BFB40F6D432797CC2F20022B0FBF5F0B2
:1011400012685143B1FBF0F00130A060606AD8F83A
:10115000001026F4401201610020616A8A60BDE837
:10116000F081D4D4D4D4D4D400204FF0FF32C1E9DC
:1011700000227047D4D4D4D48A0703D40622C907E6
:1011800015D116E0426A936823F440139360426AD3
:10119000936C5B00FCD5936823F010039360426A64
:1011A000137FDB06FCD400224261C90701D0002274
:1011B000C26110467047D4D4844681620020CCE9D5
:1011C0000B327047D4D4D4D444F642124168C5F2ED
:1011D000433291426DD1B0B5416A8A6822F440121F
:1011E0008A60416A8A6822F010028A60416A00BF00
:1011F0000A7FD206FCD4016A4EF2801CCEF2000CAB
:10120000054691F907104A0901F01F03012101FA6F
:1012100003F34CF82230BFF34F8FBFF36F8F026A96
:1012200092F90920530902F01F0201FA02F24CF868
:101230002320BFF34F8FBFF36F8F426A936823F46D
:1012400080339360026A92F90520530902F01F026D
:1012500001FA02F24CF82320BFF34F8FBFF36F8FD8
:10126000026A92F90B20530902F01F0201FA02F2FE
:101270004CF8232043F20402BFF34F8FBFF36F8F6C
:10128000EFF3108481F31088016AC4F220024FF05A
:10129000004C1E20097813682CFA01F119431160E3
:1012A0001168012102F000FB84F3108800206860BF
:1012B000B0BD07207047D4D40246C0690860002042
:1012C0000021D1617047D4D406207047D4D4D4D43F
:1012D00006207047D4D4D4D4B0B584B04FF0704158
:1012E000EFF3038001EB00604CF200318015C4F293
:1012F0000001425822F48032425040F69C3241585C
:10130000C2F200221458206A00690028606902D0E5
:10131000E0B104B0B0BDC8B1A07800F0030002286D
:10132000206905D10088616A20F4DC40486002E051
:10133000616A00780871A078226900F00301606991
:10134000401A6061114421610028E2D1616A0222E1
:101350008D68A06862F3155510B102F0E5FA616A74
:101360008D60A06A00284FF000002061D1D0E06AB3
:1013700020B190E82E008DE82E0000E06846216A3A
:10138000097801600021816080210171216BC160B9
:10139000A16A8847E06A00281CBF9DE82E002EC085
:1013A00004B0B0BDD4D4D4D410B586B04FF07041E1
:1013B000EFF3038001EB00604CF200318015C4F2C2
:1013C0000001425822F48032425040F69C3241588B
:1013D000C2F200221458A07800F00302606A022AC8
:1013E00003D101686FF35F2100E00178E0690191AA
:1013F000D0B1A06901A902F077FEA078D4E9061265
:1014000000F003000144101AC4E9061034D1A06AA8
:1014100090B3E06AE0B1D0E900C2D0E90231CDE991
:101420000431CDE902C214E0A06A28B3E06A40B1F9
:10143000D0E900CED0E90223CDE90423CDE902CEE4
:1014400000E002A8226A127881600260042106E0AE
:1014500002A8216A097801600021816001210171DF
:10146000216BC160A16A8847E06A28B102AC1ECC3A
:10147000016042608360C46006B010BDD4D4D4D48F
:10148000B0B584B04FF07041EFF3038001EB006022
:1014900040F69C328115C2F200224FF6EF7304161B
:1014A0005558CFF6CF73696A8A681A408A60A96A6C
:1014B000E1B1E86A40B1D0E900C2D0E90231CDE93A
:1014C0000231CDE900C200E06846296A097801606E
:1014D0000021816002210171296BC160A96A8847DE
:1014E000E86A00281CBF9DE82E002EC04CF2003098
:1014F000C4F2000050F8241021F4803140F8241088
:1015000050F8240004B0B0BD70B584B04FF0704105
:10151000EFF3038001EB006040F69C328115C2F2CC
:1015200000225458A178636A01F00301022904D112
:10153000D3F800C06FF35F2C01E093F800C09A6C01
:101540002025082105EAD2454FF0100E01EA12616C
:101550001EEA126229440A4403D0996C090458BF58
:101560004032996E051641F0C8519966A16AD9B109
:10157000E06A40B1D0E900E3D0E90216CDE90216F5
:10158000CDE900E300E06846216A0978C0F808C0A8
:1015900001600271216BC160A16A8847E06A00287E
:1015A0001CBF9DE84E004EC04CF20030C4F200005B
:1015B00050F8251021F4803140F8251050F825000E
:1015C00004B070BDD4D4D4D4F0B546F6004391F83D
:1015D0000CC0C4F234039A6C22F0010262444EF251
:1015E000200CC4F2010C9A64DCF80020BCF8044022
:1015F000844644EA123E5FEA0E70C2F3033E04F0F2
:101600000F0009D440F6D432C2F20022126802FA66
:1016100000F020FA0EF01BE000F00704032505FAA5
:1016200004F40126170B082838BF06FA00F407F067
:10163000070040F6D437C2F2002705FA00F0120482
:101640003D6805FB04F258BF06FA0EF0B2FBF0F05D
:101650004DF683621F68C4F21B32A0FB02024FF0FA
:10166000FF3000EB92403A0A62F31F2018601869BD
:1016700040F00100186100BFD869C007FCD0087BAA
:10168000012810D1086858600879DA6860F304020C
:10169000DA60986820F00100986000BF00BF00BFCA
:1016A000D869C005FCD5886802686FF3DF425A62CA
:1016B00042689A628268DA62C2681A6302695A638F
:1016C000007D44F650129863C4F65052186A40F0F8
:1016D000010018620020CCE90021F0BDD4D4D4D49C
:1016E00046F60842C4F23402916921F00101916189
:1016F000116841F0010111609368014623F0010077
:101700009060002000220A607047D4D4D4D4D4D48E
:101710002DE9F04788B043F25042C4F23402126817
:10172000520603D41E2008B0BDE8F0870D4640F6EF
:10173000283840F629318246C2F20028C2F2002140
:10174000002088F800000870CAF80850EFF31086EF
:10175000012080F3108843F20800C4F220000168E1
:1017600021F48061016000681E20012102F09CF8D4
:1017700086F310882868D0E90001FFF725FF10B133
:1017800008B0BDE8F08746F21010C4F2340050F8FB
:10179000101C41F4807140F8101C016841F00101F7
:1017A000016000BF00BF00BF4168C943C906FBD14B
:1017B000E97A013941F4407140F8101C297B50F856
:1017C000082C22F0FF02114440F8081C95F82C1058
:1017D0002A8D95F82D3095F82E7095F82F6042EAF5
:1017E000014195F8302063F3175141EA477141EA0E
:1017F000867141EAC27101616968D1E9003212045F
:1018000089683FFA82F263F38B0242EA0161C0F811
:10181000041269686FF0FF02C9686FF39F21C0F876
:101820000812E969C0F80011296AC0F80411696A50
:10183000C0F808112969C0F8D0116969C0F8D4113D
:10184000A969C0F8D811016841F480310160E97AD2
:1018500002EB412100BF00BF426802F403428A420A
:10186000FAD1016821F480310160016821F00101A1
:10187000016000BF00BF00BF4168C906FCD1A96E6E
:101880004EF6185C4EF20019CEF2000CCA68C0F891
:10189000F8200A69C0F8F8214A69C0F818228A6954
:1018A000C0F8082346F2D452CB69C4F23402CEF217
:1018B000000953600B6A536440F21013C7F60953D2
:1018C000136013640B224EF20753C0F2D002C5F22C
:1018D000F773C0F80423C0F8F4300022CAF81420CB
:1018E0002A6ECAF80C206A6ECAF8102091F90170AD
:1018F0000B78002F4FEA031304D409EB070686F890
:10190000003304E007F00F06664406F8043C40F696
:101910009C3E4CF20033C2F2002EC4F200030124BC
:101920004EF827A053F8276026F4803643F8276046
:1019300053F827607E0907F01F07BFF35F8F09EB9D
:101940008602BC40C2F8804149F8264091F90370F4
:101950008A78002F4FEA021604D409EB070282F8B6
:10196000006304E007F00F02624402F8046C4EF8D2
:1019700027A007F01F0653F8272022F4803243F8EF
:10198000272053F827207A090127BFF35F8F09EB3F
:10199000820407FA06F6C4F8806149F8226091F9DA
:1019A00005700A79002F4FEA021604D409EB0702EA
:1019B00082F8006304E007F00F02624402F8046C4E
:1019C0004EF827A007F01F0653F8272022F4803294
:1019D00043F8272053F827207A090127BFF35F8FA8
:1019E00009EB820407FA06F6C4F8806149F8226020
:1019F00091F907708A79002F4FEA021604D409EB97
:101A0000070282F8006304E007F00F02624402F864
:101A1000046C4EF827A007F01F0653F8272022F485
:101A2000803243F8272053F827207A090127BFF393
:101A30005F8F09EB820407FA06F6C4F8806149F863
:101A4000226091F909700A7A002F4FEA021604D435
:101A500009EB070282F8006304E007F00F0262441A
:101A600002F8046C4EF827A007F01F0653F8272051
:101A700022F4803243F8272053F827207A090127DF
:101A8000BFF35F8F09EB820407FA06F6C4F88061A2
:101A900049F8226091F90B70897A002F4FEA011101
:101AA00004D409EB070282F8001304E007F00F02E8
:101AB000624402F8041C4EF827A053F8271021F4C2
:101AC000803143F8271053F82710790907F01F03D6
:101AD000012709EB810207FA03F3BFF35F8FC2F816
:101AE000803149F8213044F64411C4F65051CAF807
:101AF0000010DAF8081050F8102C42F4807240F808
:101B0000102C88F800704A7B002A4FF0030208BFAF
:101B1000012240F80C2C497BD0F81022C2F38062DD
:101B20008A421CBF98F80020022AF5D1022188F8C9
:101B3000001095F8311095F8332095F83230C9032C
:101B400002F0030263F31541002341EA8251C0F819
:101B5000101395F838106A6B6FF31F32C7F6FF73D6
:101B600042EAC131EA6B03EA02421144C0F8181399
:101B7000D5E910126FF35F3162F31C41C0F81C13FA
:101B800095F84C10AA6C6FF31F3242EAC1312A6DEE
:101B900003EA02421144C0F82013D5E915126FF38D
:101BA0005F3162F31C41C0F82413E96D43F6FC7207
:101BB00002EA8101C0F8F412DAE9041006228DF875
:101BC0000020039150B10DF1100C90E88E008CE8CC
:101BD0008E009DE88E0080E88E0000E06846DAF80E
:101BE0000C108847DAF8140010B104AF8ECF8EC005
:101BF000002008B0BDE8F0872DE9F04146F2104121
:101C00008046C4F234010A68520714D551F8100C0A
:101C100040F0020041F8100C40F62930C2F20020DA
:101C20000A68920703D402780AB12FF007C800228D
:101C30000270086848604FF6F440D8F80820CFF6E4
:101C4000FF700B5823F001030B5040F6283003239C
:101C5000C2F200200370527B51F8F03CC3F3C06322
:101C600093421CBF0378002BF6D100250570D8F8ED
:101C700008000126816E91F9012002F01F0354092A
:101C80004EF2801206FA03F3CEF2000242F824303C
:101C900040F69C33BFF34F8FBFF36F8F91F9014034
:101CA000C2F2002343F8245091F90340670904F07D
:101CB0001F0406FA04F442F82740BFF34F8FBFF326
:101CC0006F8F91F9037043F8275091F905707C09E3
:101CD00007F01F0706FA07F742F82470BFF34F8F8B
:101CE000BFF36F8F91F9057043F8275091F9077092
:101CF0007C0907F01F0706FA07F742F82470BFF3C4
:101D00004F8FBFF36F8F91F9077043F8275091F908
:101D100009707C0907F01F0706FA07F742F82470DC
:101D2000BFF34F8FBFF36F8F91F9097043F82750BE
:101D300091F90B707C0907F01F0706FA07F742F8C4
:101D40002470BFF34F8FBFF36F8F91F90B1043F8DF
:101D5000215000680068FFF7C3FC43F20800C8F890
:101D60000050C4F22000EFF3108486F3108801685D
:101D700041F48061016000681E20012101F094FDA2
:101D800084F310880020BDE8F081D4D4D4D4D4D416
:101D900010B588B00446D0E904104FF007028DF862
:101DA0000020039160B1D0E900C2CDE904C2D0E9BE
:101DB0000231CDE906319DE80E1080E80E1000E0FA
:101DC0006846E1688847606928B10DF1100C9CE80D
:101DD0000E1080E80E1046F21000C4F234000168C4
:101DE000C90721D10168C9061ED4A1680A7A4B7AB5
:101DF000897A120242EA432242EA81210131C0F883
:101E0000F01340F62931C2F2002100BF00BF00BF2D
:101E1000D0F80024120702D40A78012AF8D1012050
:101E20000870002008B010BD082008B010BDD4D440
:101E300046F21040C4F234000168490717D550F843
:101E4000101C41F0020140F8101C40F62931C2F28A
:101E5000002100BF00BF00BF0268920703D40A78C8
:101E60000AB12FF007C800220A7001684160002003
:101E70007047D4D4D4D4D4D48A07024606D5107976
:101E800000284FF0805018BF002000E0002070B5FF
:101E90005379044692F806E01579002B01F0020C04
:101EA00008BF44F08074CE074EEA010654EA10845D
:101EB00041EA030046F20C1300F00100C4F23403BF
:101EC00050710020967145EA5C0111711C6070BD73
:101ED00010B58A07024602D44FF0000E02E01079D6
:101EE0004FEA407E11F0020F5FEA1F9CC80753794A
:101EF0005FEA1F90147918BF4EEA436E184046F20D
:101F00000C13C4F2340350710CEA04001071C3F8CE
:101F100000E00020937923EA0101917110BDD4D42F
:101F200046F210008B78C4F234000268D20719D14F
:101F30000268D20616D4F0B54FEA931E01224C78FF
:101F40008D8822EA0E02C3F3801C04F00F0700EB19
:101F5000C212092F02F5EE6206D3EEB22F0A4FF03D
:101F600080750FE00820704735B18F68012D3E78ED
:101F700006D10025002705E000250026002701E006
:101F80007F78002504F03F0446EA07260F7803F027
:101F9000030346EA044467F397540EF0010744EA4A
:101FA000050646EA476747EA836313604FF080738C
:101FB00053608B784FF4800707EA43451E072F468E
:101FC00018BF07F180779B0655EA578393608B789B
:101FD0009B074FF00C0308BF0823C958D1608CF051
:101FE00001020CF50001C0F8B01502F50001C0F8BF
:101FF000F0150020F0BDD4D446F21002C4F2340231
:1020000010680880D2F8100248600020D2F814321C
:102010008B60C2F81832704710B588B046F2D050C5
:102020004FF07042C4F2340001684160EFF3038066
:1020300002EB00604CF200328015C4F200028358BB
:1020400023F48033835040F69C338258C2F200233D
:1020500000228DF800201C580191D4E9043003932C
:1020600060B1D0E900C2CDE904C2D0E90231CDE9C6
:1020700006319DE80E1080E80E1000E06846E16829
:102080008847606910B104AC1ECC1EC008B010BDFA
:1020900010B588B046F210604FF07042C4F23400C0
:1020A00001684160EFF3038002EB00604CF2003204
:1020B0008015C4F20002835823F48033835040F625
:1020C0009C338258C2F2002301228DF800201C5854
:1020D0000191D4E90430039360B1D0E900C2CDE9A5
:1020E00004C2D0E90231CDE906319DE80E1080E846
:1020F0000E1000E06846E1688847606910B104ACE2
:102100001ECC1EC008B010BDF0B589B046F2101448
:102110004FF07041C4F23404D4F80063C4F804638F
:10212000EFF3038001EB00604CF200318015C4F244
:1021300000013307425822F48032425040F69C326C
:102140004158C2F20022175803D4B00707D5002027
:1021500000E0012040F62931C2F200210870D7E9E1
:10216000042002218DF804100296049260B101ADA2
:10217000D0E900C2CDE905C2D0E90231CDE907318D
:102180002ECD80E82E0000E001A8F9688847786924
:1021900010B105AD2ECD2EC016F4400F2FD054F83F
:1021A000100C40F4807044F8100C206840F00100DE
:1021B000206000BF00BF00BF6068C043C006FBD105
:1021C000B868216841F480312160C07A6FF0FF0166
:1021D00001EB402000BF00BF616801F40341814270
:1021E000FAD1206820F480302060206820F00100BF
:1021F000206000BF00BF00BF6068C006FCD109B00E
:10220000F0BDD4D4D4D4D4D470B588B046F200266E
:102210004FF07042C4F2340630687060EFF303810F
:1022200002EB01614CF200328915C4F200028B58B6
:1022300023F480338B5040F69C338A58C2F200233B
:10224000019006F140025D5803218DF80010D5E998
:102250000410CDE9022150B10DF1100C90E81E00E0
:102260008CE81E009DE81E0080E81E0000E0684625
:10227000E9688847686910B104AD2ECD2EC00120F1
:10228000F06308B070BDD4D410B588B046F2003009
:102290004FF07042C4F2340001684160EFF30380F4
:1022A00002EB00604CF200328015C4F20002835849
:1022B00023F48033835040F69C338258C2F20023CB
:1022C00004228DF800201C580191D4E904300393B6
:1022D00060B1D0E900C2CDE904C2D0E90231CDE954
:1022E00006319DE80E1080E80E1000E06846E168B7
:1022F0008847606910B104AC1ECC1EC008B010BD88
:10230000B0B588B046F220304FF07042C4F23400CD
:1023100001684160EFF3038002EB006082154CF22C
:102320000030C4F20000135823F4803313501058C7
:1023300040F69C3340F62830C2F20023C2F200205F
:102340009D580278012A04D111F0806201D0022246
:1023500006E00278032A04D111F0006201D00022C5
:102360000270D5E9043005228DF800200191039315
:1023700060B1D0E900C2CDE904C2D0E90231CDE9B3
:1023800006319DE81E0080E81E0000E06846E9680E
:102390008847686910B104AD2ECD2EC008B0B0BD1D
:1023A00080B545F25422C5F24F020260084600F0A3
:1023B00037F9002080BDD4D40146002000220A60F5
:1023C0007047D4D4D4D4D4D480B5084600F028F9CA
:1023D000002080BDD4D4D4D470B586B001A80490B8
:1023E00003A814460D46ADF8081001920126ADF879
:1023F0000C6000F07DF940F69830EFF31081C2F2E6
:10240000002086F3108802683AB940F6145200237F
:10241000C4F240021370402313700268013202605C
:1024200081F31088E10340F600014FEA1522C4F25F
:10243000400101D4EBB20CE001EB8216EBB256F88E
:10244000235025F4803546F8235024F4803546F88F
:10245000235001EB8211012241F82340EFF3108158
:1024600082F31088026812B10268013A02600068C3
:1024700038B940F614500022C4F2400002708022A5
:10248000027081F31088002006B070BDD4D4D4D47B
:1024900004200023C4F24000CFF6FF7340EAD100CD
:1024A000C9B220F01B00006843EA104020FA01F195
:1024B000002001F0010111707047D4D4D4D4D4D4D9
:1024C00010B56FF00100CBB200EAD11001210C244D
:1024D00001FA03FE0101C4F2400444EA001C4FF477
:1024E0008030012A625800FA03F004D122EA000089
:1024F00040EA0E0203E022EA0E0141EA0002002057
:10250000CCF8002010BDD4D46FF03F00CBB200EA6D
:10251000910040F6000100EB8300C4F240014158F5
:102520000020C1F3400111707047D4D4D4D4D4D466
:1025300010B5CBB2012098406FF0010E84B20EEAC4
:10254000D110002A40F208024FF4803C4FEA0011FB
:10255000C4F240024FF0000008BF0CFA03F45450DC
:1025600010BDD4D4D4D4D4D480B56FF0010040F2DF
:10257000000C00EAD110C4F2400C010103EA020E83
:1025800062EA03025CF801004EEA000E002002EA53
:102590000E024CF8012080BD6FF0010000EAD1105E
:1025A00004210001C4F2400109580020090C1180E7
:1025B0007047D4D4D4D4D4D46FF0010003EA020C11
:1025C00000EAD11023EA02010C230201C4F2400305
:1025D00000204CEA014199507047D4D4D4D4D4D4CB
:1025E0006FF00100042300EAD110C4F2400301019E
:1025F00000205958118070476FF0010003EA020C67
:1026000000EAD11023EA020108230201C4F24003C8
:1026100000204CEA014199507047D4D4D4D4D4D48A
:1026200070B5044600F064F840F6983CEFF3108172
:10263000C2F2002C012080F31088DCF8000038B9C9
:1026400040F614500022C4F2400002704022027092
:10265000DCF800000130CCF8000081F310882088FD
:1026600030B340F6000E0021C4F2400E08E000BF77
:102670000EEB8010013140F822302088814217D2C1
:10268000606800EBC10250F831309288D8034FEAFD
:102690001220D2B2ECD50EEB801555F8226026F44C
:1026A000803645F8226023F4803645F82260DFE763
:1026B0000120EFF3108180F31088DCF8000020B1D6
:1026C000DCF800000138CCF80000DCF8000010B1A4
:1026D00081F3108870BD40F614500022C4F240000F
:1026E00002708022027081F3108870BDD4D4D4D4DB
:1026F0002DE9F04F81B004460088002867D04EF6DF
:102700004C4B0025C4F2010B4FF0010A04E000BF5E
:102710002088013585425AD246F6CC5642F240080E
:102720000027C0F20026C4F220080CE000BF00BF62
:1027300088F80000C820012101F0B6F8013708F13F
:102740000208032FE4D0606836F8021B00EBC500D6
:1027500082888A42F2D100689BF8001000F0B850DD
:102760000AFA07F9B0F1807F09EA010018D158B9D7
:10277000012001F04DF99BF8000040EA09008BF8B8
:102780000000012001F018F998F900000028D5D4C4
:1027900098F8000040F08000CAE700BF00BF00BF0B
:1027A00058B1012001F034F99BF8000020EA09003B
:1027B0008BF80000012001F0FFF898F90000B0F15B
:1027C000FF3FBBDC98F8000000F07F00B0E701B0ED
:1027D000BDE8F08FD4D4D4D42DE9F04F81B043F2CA
:1027E00008088246C4F22008002707700120EFF392
:1027F000108480F31088D8F800000D4620F01000F7
:10280000C8F8000043F20C49D8F8000043F2000B6E
:102810001E200121C4F23409C4F2340B01F044F843
:1028200084F31088DBF8000040F48030CBF800001F
:10283000D5F8840095F83C100279407903294FF0CF
:10284000400108BF4FF48251002A00F03F0008BF4A
:1028500001F580710844C9F8440095F84000D5F8A6
:102860008410002818BF4FF4BC70CBF8E40349F87B
:10287000087C91F9007091F9012091F90200791C0E
:1028800046F60061D3B2C0F2002113D095F8304073
:102890002CB9D9F8104044F01004C9F8104051F890
:1028A00027703C6844F002043C60EF8D6FF3DF2733
:1028B000C9F80C70FF2BC3B211D095F83A702FB93C
:1028C000D9F8007047F01007C9F8007051F82220BD
:1028D000176817602A8F6FF3DF2249F8042CFF2B4B
:1028E0001FD095F83F2012B90122C9F81C2051F8D9
:1028F0002000016841F007010160A88D698D6FF328
:10290000DF206FF3DF2141EA0040C9F81400E88EB0
:10291000A98E6FF3DF206FF3DF2141EA0040C9F891
:102920000400688E298D40F630336FF3DF20C2F249
:1029300000236FF3DF2141EA0040CBF804004FF0A1
:102940000110CBF80800A88D698D01306FF3DF21ED
:102950006FF3DF2041EA0040CBF81000E88EA98E2B
:1029600001306FF3DF216FF3DF2041EA0040CBF845
:102970000C0095F8450095F8461095F844200002A3
:1029800040EA014040F62C311044CBF81400C2F26A
:102990000021A88D6A8D088040F62E31C2F20021F8
:1029A000E88E1A800022088040F63231C2F20021FF
:1029B000A88E088005F15C01284600F0EDFA05F1CB
:1029C000140005F16801012200F0E6FA95F83C00D8
:1029D00046F62867C0F2002746F62C64C0F20024B1
:1029E00095F858303E5C95F83D2095F83E10275CF0
:1029F000012B4FEA064316D1D5F88440A679022E62
:102A00000FD1E67994F808C094F809E0A47A360367
:102A100046EA0C2646EA0E162643334343F40013D7
:102A200001E043F480133F03012A08BF07F18057F8
:102A3000012948F2800108BF07F1807703284FF48D
:102A4000007008BF07F50077CBF8C473CBF8D43318
:102A5000CBF8C8034FF00220C0F28001CBF8CC03C2
:102A6000CBF8D01340F63432E86FCAF80400D5F83A
:102A70008000CAE90205E88EA98EC2F2002208444D
:102A8000C2F800A00130DBF8501260F30A01CBF865
:102A90005012DAF80C00D0F88400C16807C9126837
:102AA0009047B8B10121EFF3108581F310880446F7
:102AB000D8F800101E2041F01001C8F80010D8F816
:102AC0000010012100F0F0FE85F31088204601B0CF
:102AD000BDE8F08F0621C9F834100721C9F8381075
:102AE000DAF80C704EF200114CF2003240F69C33D2
:102AF00097F97760CEF20001C4F20002C2F200231F
:102B0000002E1FD497F874708D1901243F0185F8A9
:102B1000007343F826A052F8267027F4803742F855
:102B2000267052F82670770906F01F06BFF35F8FF4
:102B300001EB870504FA06F6C5F8806141F82760C5
:102B4000DAF80C7097F97860002E1FD497F875703A
:102B50008D1901243F0185F8007343F826A052F82F
:102B6000267027F4803742F8267052F826707709CD
:102B700006F01F06BFF35F8F01EB870504FA06F628
:102B8000C5F8806141F82760DAF80C7097F9796030
:102B9000002E1DD497F876708D193F0185F80073CB
:102BA00043F826A006F01F0752F8263023F480339E
:102BB00042F8263052F8262072090126BFF35F8FB3
:102BC00001EB820306FA07F7C3F8807141F822701F
:102BD00001218AF8001001B0BDE8F08FD4D4D4D41C
:102BE000F0B581B043F200050446C4F2340529680B
:102BF000C9070ED0E068D0F88400C068816800681A
:102C0000C9688847002804BFD5F800015FEAC07092
:102C10006ED0E068D0F88400C068816800684968B8
:102C20008847A969C9055FD4E2684EF28011CEF2E7
:102C3000000192F97730002B0CD45A0903F01F03DE
:102C4000012707FA03F341F82230BFF34F8FBFF398
:102C50006F8FE26892F97830002B0CD45A0903F098
:102C60001F03012707FA03F341F82230BFF34F8F08
:102C7000BFF36F8FE268064692F9790000280BD403
:102C8000420900F01F00012303FA00F041F822007E
:102C9000BFF34F8FBFF36F8F43F244400027C4F25E
:102CA0003400C5F840740760286820F001002860EF
:102CB000286820F480302860EFF31085012080F32D
:102CC000108843F20800C4F22000016841F01001AE
:102CD000016000681E20012100F0E6FD85F31088E8
:102CE0002770304601B0F0BD40F2EE3001B0F0BDCB
:102CF000D5F80002C00704BFD5F8C0035FEAC07072
:102D00007FF487AF2868C0053FF583AF286820F0BF
:102D100001002860012020707BE7D4D4D4D4D4D41F
:102D200010B50446C068D0F88400C06881680068A7
:102D30008968884743F20001C4F234010A6842F40A
:102D400080720A600A6842F001020A60D1F84024E9
:102D500042F00102C1F840240221217010BDD4D4F8
:102D600010B50446C068D0F88400C0688168006867
:102D7000C9688847002818BF10BD43F20000C4F29C
:102D80003400D0F80011C90708D1D0F80012C907E3
:102D900004BFD0F8C0135FEAC17102D040F2EE3038
:102DA00010BD0168C905F9D4016821F00101016075
:102DB00001202070002010BD43F2000CC4F2340C3E
:102DC0000CEB0220D0F80031DB0712D1DCF8003028
:102DD000DB050ED410B501F1140300F5807408462C
:102DE000194600F0D9F8206840F00100206000206A
:102DF00010BD40F2EE30704743F20003C4F23403DA
:102E000003EB0220D0F80021D20718D11A68D205AE
:102E100015D400F58070012200295FEA0F9C18BFCD
:102E20000322036A23F002031A430262C0F804C0BB
:102E3000C160016841F0010101600020704740F26B
:102E4000EE307047D4D4D4D406207047D4D4D4D430
:102E500070B542F2000041F25016C4F23400012570
:102E600000EB0224D202A35925EA13458B8842EADB
:102E7000852202EB8302CB88104409689A0001F096
:102E800033F9A05920F48031002041EA0541A151D5
:102E900070BDD4D4D4D4D4D42DE9F04F81B040F255
:102EA00020000D46C2F2002040F2180899469346D1
:102EB000415CC2F20028012923D142F2000141F213
:102EC000501AC4F23401002201EB052442550122BC
:102ED00054F80A0022EA1046E8024FF4806240EA01
:102EE0008620471858F82510384601F0FDF848F8B4
:102EF000257054F80A0020F4803040EA064044F877
:102F00000A0058F82510002041F82B9001B0BDE8C8
:102F1000F08FD4D4D4D4D4D406207047D4D4D4D40D
:102F20002DE9F041007843F2001301F8010B022073
:102F3000864640F6383240F640344FF0000CC4F27A
:102F40003403C2F20022C2F200244FF0010800262E
:102F500008E000BF00BF00BF88550126BEF1010E8A
:102F600000D113E03702DF59FF07F5D152F8267080
:102F70002568AF42F0D803EB06256D6DED0702D151
:102F800001F806C0E9E701F80680E6E70020BDE8A1
:102F9000F081D4D4D4D4D4D40368002B43F20013EA
:102FA000C4F2340332D02DE9F04F85B0077B46F6EA
:102FB000206646F6106CC0F20026C0F2002C03EB2F
:102FC0000229F65D02923CF8172040F62C3E019251
:102FD000826800923707C9F81C7040F63037C2F299
:102FE0000027067B0D8888463C8882682FB23CF813
:102FF0001630C2F2002EA7420FD9B7F1FF3F3CDDD9
:10300000016800274FF0000A049711E003EB02204B
:103010000121016200214160704786881FFA87FA0A
:10302000A4EB0A070168B74257EAB6870026049660
:10303000BCB2867BB8F802B004FB03F5CDF80C8077
:10304000012E0FFA8BF84FEAD50C02D1C6880CFB83
:1030500006FC40F63236C2F200263688464505D2D6
:10306000B8F1FF3F17DD4FF0000E1EE0C288A6EB5F
:103070000806964256EA328E19E085883D44012DB5
:10308000BEDB083E16F1030F00F29480DE084024F8
:10309000B4FBF6F68FE0C78807EB080EBEF1010F10
:1030A000E1DB5A43D20802FB18114FF0000BC9F8BC
:1030B0000C1040F62C33827B0CF13F06C2F2002349
:1030C0000399012A049A42EA040709D1028A0025D9
:1030D000C9F810501FFA8EF5008A964668430CE036
:1030E000DDE900526A43407BD208002852EA02B070
:1030F0000004C9F810001FFA8EF0AEF101024FF083
:10310000FF356FF3DF2205EB9616C6EA0242C9F8D7
:1031100018201A886FF3DF273C466FF3DF205244F4
:1031200062F31A44C9F828401A88524462F31A47D5
:1031300040F62E32C2F20022C9F8307012885A448A
:1031400062F31A40C9F82400C9F82C00087A28B1A3
:10315000012805D1487A0021000407E0032018E087
:10316000487A4FF47F01000400F18070029AC9F898
:10317000340040F64030C9F83810C2F2002040F662
:103180003831C2F200210068023041F8220041F2D9
:103190000300C9F820000120C9F804000021C9F883
:1031A000501040F22001C2F200210870487005B0B2
:1031B000BDE8F08F01267C42BEF900E0B4FBF6FCCE
:1031C00076450CFB164405EB040C03FB07F5C4F134
:1031D00000045CEACC87C5F100061FFA84FA046893
:1031E0004FF0000504EBD606C8BF4FF0000A049567
:1031F00026F03F011CE7D4D440F6343040F640318D
:10320000C2F20020C2F2002100680A6801320A609E
:10321000096831B940F638310022C2F20021C1E913
:10322000002280B582B040F220010122C2F20021CA
:103230000A704A70416831B1806801906846032283
:103240008DF80020884743F24840C4F234000168FA
:1032500041F0010101604FF07041EFF3038001EB99
:1032600000604CF200318015C4F20001425822F493
:1032700080324250405802B080BDD4D4D4D4D4D48B
:103280004EF22401C4F201018878098801F00F028E
:10329000A2F1080103293BD8DFE801F0022C101E3F
:1032A00040F24041C2F2002151F820004AF6AB2121
:1032B000CAF6AA21A0FB0101480830E040F24041D3
:1032C000C2F2002151F820004AF6AB21CAF6AA2129
:1032D000A0FB0101C80822E040F24041C2F20021F7
:1032E00051F820004AF6AB21CAF6AA21A0FB010141
:1032F000080914E040F24041C2F2002151F82000D8
:103300004AF6AB21CAF6AA21A0FB0101880806E013
:1033100040F24041C2F2002151F82000D04040F676
:10332000D431C2F2002108607047D4D4D4D4D4D4AC
:103330002DE9F0470FF2A8404EF2FA3840F240462D
:10334000C4F201084AF2015190ED001FC2F20026BA
:103350000FF29C40CFF6FF714EF255050231A8F8EE
:10336000001086ED001F06F12003C4F2010590ED68
:10337000001F44F2553040F2AA21C1F2DE3043F67C
:10338000000286ED041FC0F6E571C1F69C4207C33A
:1033900015F82F0C35F8311C01F00F02A2F10801CD
:1033A00003292BD8DFE801F002200C164AF6AB21E6
:1033B00056F82000CAF6AA21A0FB0101480820E027
:1033C0004AF6AB2156F82000CAF6AA21A0FB01015B
:1033D000C80816E04AF6AB2156F82000CAF6AA2122
:1033E000A0FB010108090CE04AF6AB2156F82000C9
:1033F000CAF6AA21A0FB0101880802E056F82000C5
:10340000D04040F6D43A4EF60044C2F2002AC4F24C
:1034100001040A214EF60147CAF800004FF6506039
:10342000CFF6FF70C4F201072154092085F84D0042
:10343000207818B93878800700F0C881207850B912
:1034400001202070C820012100F02EFA00BF00BF2B
:1034500020780128FCD10020387020704AF20159F0
:10346000002005F8230C00BF15F8190C0007FBD548
:1034700042F602314EF61450C0F20101C5F8731045
:1034800040F2834125F8071C002205F80B2C4FF66B
:103490000211C5F8571040F2415125F8091CCEF22F
:1034A00000004EF20001BFF34F8FBFF36F8F036830
:1034B000CEF2010123F400330360C0F83C22BFF3D5
:1034C0004F8FBFF36F8F0A6822F440520A60BFF338
:1034D0004F8FBFF36F8F15F8412C02F0F8020132C5
:1034E00005F8412C00BF00BF15F8412CD206FBD4D3
:1034F0000A6842F440520A60BFF34F8FBFF36F8FE8
:103500000168890312D4BFF34F8FBFF36F8F00217F
:10351000C0F83C12BFF34F8FBFF36F8F016841F4C7
:1035200000310160BFF34F8FBFF36F8F002005F8AC
:103530002B0C00BF00BF00BF15F8190C8006FBD58F
:103540004CF200040020C4F213042070207820788C
:1035500020786068FA2807D0FA20C1F6006000BF22
:1035600060606168FA29FBD1A0687D2808D07D20C1
:10357000CEF2001000BF00BFA060A1687D29FBD182
:1035800043F23240C3F2232045F8350C42F22010BA
:1035900025F8310C052005F82F0C15F82F0C35F8FF
:1035A000311C01F00F02A2F1080103292BD8DFE83A
:1035B00001F002200C164AF6AB2156F82000CAF69C
:1035C000AA21A0FB0101480820E04AF6AB2156F8E9
:1035D0002000CAF6AA21A0FB0101C80816E04AF69D
:1035E000AB2156F82000CAF6AA21A0FB0101080968
:1035F0000CE04AF6AB2156F82000CAF6AA21A0FB3F
:103600000101880802E056F82000D040CAF8000006
:103610001E200121012700F047F960686FF39F2009
:10362000652828BF277015F82F0C35F8311C01F0DC
:103630000F02A2F1080103292BD8DFE801F00220D4
:103640000C164AF6AB2156F82000CAF6AA21A0FBB8
:103650000101480820E04AF6AB2156F82000CAF6DE
:10366000AA21A0FB0101C80816E04AF6AB2156F8D2
:103670002000CAF6AA21A0FB010108090CE04AF6C5
:10368000AB2156F82000CAF6AA21A0FB0101880848
:1036900002E056F82000D04042F20001CAF80000D3
:1036A000C4F200010120A1F80090BFF35F8F0872FF
:1036B0004FF42540BFF35F8F088095F8850040F0F8
:1036C000400085F8850000BF95F98500B0F1FF3F07
:1036D000FADC012085F87F00C92085F8850095F87F
:1036E000850000F0BF0085F8850000BF00BF00BF67
:1036F00095F985000028FBD4012005F8020CE87F2D
:1037000040F04000E87700BF95F91F00B0F1FF3F9F
:10371000FADC0720E8754A20E8770A20E87700BF3E
:1037200095F91F000028FBD4287840F0400028704D
:1037300095F90000B0F1FF3FFADC022005F8010C1A
:10374000CA202870287800F0BF00287000BF00BF92
:1037500095F900000028FBD4A87A40F04000A87238
:1037600095F90A00B0F1FF3FFADC01206872CA2027
:10377000A872A87A00F0BF00A87200BF00BF00BF07
:1037800095F90A000028FBD495F8220040F040008B
:1037900085F8220000BF00BF95F92200B0F1FF3F7D
:1037A000FADC0420A876CA2085F8220095F82200C9
:1037B00000F0BF0085F8220095F922000028FBD414
:1037C0004FF42540A8F80000BDE8F0874FF47A7068
:1037D00000F016F842E600BF00BF00BF00BF00BF08
:1037E000006CDC0200127A000080000000366E01DE
:1037F0000080000000CA9A3B0046C3230084D7170C
:103800007047D4D4D4D4D4D440F24041C2F2002181
:1038100051F820007047D4D4B0B542F22404C82037
:10382000C4F2200401210025257100F03DF8257027
:10383000207808B12FF005C0207840F002002070F9
:1038400020788007FCD4002004F8020C00BF00BFE1
:1038500014F8020C08B12FF005C84FF0030E002039
:1038600004F11C0100BF00BF11F8102002F07F021C
:1038700001F8102000BF00BF11F91020002AFBD46E
:1038800001300FF00FC8012000F0C2F84EF64C4195
:103890000120C4F2010100220A70BDE8B04000F02E
:1038A0008BB8D4D4D4D4D4D440F6D43241F200234B
:1038B000C2F20022C0F27A03484312689A420FD340
:1038C00044F23F21C0F20F0111444DF68362C4F26D
:1038D0001B32A1FB0212910CA0FB0101C9B11DE03A
:1038E0004CF60021C3F69A31B1FBF2F148F63812DA
:1038F000C0F24102904205D24FF47A725043B0FBBD
:10390000F1F006E0B0FBF1F0904207D24FF47A718B
:103910004843002808BF704700F006B84FF0FF305A
:1039200000F002B8D4D4D4D401380028FCD17047B8
:10393000F0B581B04CF2201540F64437C4F20005D2
:103940000024C2F2002755F8200C296801EA00067D
:1039500006E000BF00BF00BF01340437152C09D0BA
:1039600026FA04F0C007F7D039680029F4D02046C1
:103970008847F1E745F8106C28683042FCD101B067
:10398000F0BDD4D4D4D4D4D480B54FF00B0E4CF2C7
:10399000003046F61851C4F20000C0F2002100BF0A
:1039A00031F8022B002A18BF026004300FF009C062
:1039B00080BDD4D4D4D4D4D4EFF31081012282F3C7
:1039C000108840F6C832C2F2002232F8103023B11B
:1039D00032F81030013B22F8103032F8102012B1CA
:1039E00081F3108870474EF2FA3247F27C0CC4F231
:1039F0000102C0F2002C13883CF8100043F4254368
:103A000023EA0000108081F310887047D4D4D4D406
:103A100010B5EFF31081012282F3108840F6C8320E
:103A2000C2F2002232F8103083B94EF2FA3E47F269
:103A30007C0CC4F2010EC0F2002CBEF800403CF831
:103A40001030234343F42543AEF8003032F81030F1
:103A5000013322F8103081F3108810BDD4D4D4D4AF
:103A6000F0B581B043F650450446C4F2000500BFEE
:103A7000287808B12FF005C04FF000064FF08700FE
:103A800025F82C0C05F8506C8CB10020FFF7C0FF16
:103A90004EF253000127C4F2010007700020FFF727
:103AA0008BFF05F8307C00BF28780007FCD401208C
:103AB00005F84E0C05F84F6C287808B12FF005C0BA
:103AC00042F20350C0F20500BCB14FF40C7125F86E
:103AD000081C00BF00BF00BF2978C907FCD145F80A
:103AE0000C0C012005F8100C47F2A83125F83C1CFD
:103AF00005F83A0CA5F1500014E045F80C0C012033
:103B000005F8100C47F2A83125F83C1C05F83A0CD2
:103B100015F8500CC007FBD1287808B12FF009C068
:103B2000A5F140000121017001B0F0BDD4D4D4D47E
:103B300000F00AF8FDF7A0F8FEE7D4D4D4D4D4D42A
:103B400000BE7047D4D4D4D42DE9F04381B04EF6F2
:103B5000085840F20120CEF20008C0F20E004EF2EA
:103B60000004C8F80C00CEF20104BFF34F8FBFF37E
:103B70006F8F58F8081CC1F3035001285FEA1F92A9
:103B800011F00F0F5FEA0F911142216811D1022845
:103B90000FD241F0040020604EF20800BFF34F8FB7
:103BA000CEF20000BFF36F8F016841F480310160F5
:103BB00002E021F004002060BFF34F8FBFF36F8F4E
:103BC0004FF4700040F20001C8F880000020C0F2FD
:103BD0000021C8F80010FDF73BF8FFF7A9FB4EF2F3
:103BE000FA304AF20251C4F20100022201804EF67C
:103BF000B021C4F201010A704FF425410180012077
:103C0000FDF726F840F24000C2F2002080F30A8857
:103C10002068800724D5D8F80000B0F1007F1FD1BC
:103C200020694FF40071C0F3C300626901FA00F328
:103C3000C2F3C30081400020DA08CB0801460746E2
:103C400042F007C000BF00BFE7E802010FF005C067
:103C50004FF0005243F005C0E2E802010FF005C04A
:103C600046F65064C0F20024276897B160683E466B
:103C7000051D05E000BF00BF013E05F10C0508D0A1
:103C800068790028F8D155E90101091A00F028FAED
:103C9000F2E7D4F80890B9F1000F13D0E0684E466F
:103CA00000F1080504E000BF013E05F1100509D050
:103CB00068790028F8D155E902022968121A00F043
:103CC00013FAF1E7FFF7DCFAFFF7A6FD0320FFF791
:103CD0009FFE4FF00E0E40F63050C4F2400000211F
:103CE00020F8041B0FF005C04EF210150320C4F29B
:103CF0000105FFF761FE0320FFF78AFE44F204008E
:103D00000021C4F22000016041608160C160032095
:103D1000FFF752FED5F8C802800714D42878A0B166
:103D20000120FFF775FE00BF95F9000010F1410F6B
:103D3000FADC0020287000BF28783F28FCD801203A
:103D4000FFF73AFE01E0D5F8C802D5F8C8024007EF
:103D500015D42879A8B10120FFF75AFE00BF00BF93
:103D600095F9040010F1410FFADC0020287100BF22
:103D700028793F28FCD80120FFF71EFE01E0D5F886
:103D8000C8020220FCF764FFA7B160684FF4807698
:103D9000051D05E000BF00BF013F05F10C0509D07E
:103DA0006879B6EB002FF7D155E90101091A00F047
:103DB00097F9F1E7B9F1000F16D0E0684FF480757C
:103DC00000F1080405E000BFB9F1010904F1100495
:103DD0000AD06079B5EB002FF6D154E902022168D0
:103DE000121A00F081F9EFE740F6DC34C2F2002449
:103DF000204600F03CFA204600F051FABFF34F8F06
:103E0000BFF36F8F0020C8F8480247F2164047F210
:103E10001641C0F20020C0F20021BFF34F8F081AF4
:103E2000BFF36F8F8410012C0BDB47F21645C0F2F5
:103E3000002500BF00BF00BF55F8040B8047013CC0
:103E4000FAD1FFF7A1FD002001B0BDE8F04300F07A
:103E500003B8D4D4D4D4D4D470472DE9F04F099DFD
:103E6000844681B1C2B14BB3B1FA81F7B3FA83F69C
:103E7000F71B202F4FD3002D18BFC5E900C100202C
:103E80000021BDE8F08FCBB30021002D64D00020CD
:103E9000C5E900C1BDE8F08F002B60D0002861D0DB
:103EA0005F1E3B4200F08580B1FA81F7B3FA83F6DA
:103EB000F71B1F2FDFD207F1010C3CE0571E3A42DF
:103EC0005DD0B1FA81F7B2FA82F6F71B07F1210C47
:103ED000BCF1200F24D0BCF11F0F79D8CCF1200603
:103EE00020FA0CF721FA0CF901FA06F5B0403D432F
:103EF0004FF0000ABCF1010F2CD07CE0B0FBF2FCCB
:103F0000002D1EBF0CFB12000021C5E9000100219D
:103F10006046BDE8F08F07F1010CBCF1200F0AD11B
:103F20004FF000094FF0200C0D464FF0000ABCF195
:103F3000010F0FD05FE0C7F11F0720FA0CF621FA3E
:103F40000CF901FA07F5B84035434FF0000ABCF10F
:103F5000010F50D100248FE00020BDE8F08F6046B3
:103F6000BDE8F08FB1FBF3FC002D1EBF0CFB13105E
:103F70000021C5E9001000216046BDE8F08F002D4A
:103F80001EBF00230740C5E90073012A0ED092FA34
:103F9000A2F24F00B2FA82F202F01F03D140D840E1
:103FA0001F23934307FA03F343EA000C6046BDE87E
:103FB000F08F002D1CBF07EA0100C5E900C093FA8D
:103FC000A3F0B0FA80F021FA00F00021BDE8F08FF4
:103FD000ACF12007CCF140044FF0000920FA07F6BD
:103FE00001FA04F52E4300FA04FA21FA07F53046E7
:103FF000BCF1010FAED02CF001070126023F4FF0BB
:10400000000B06EB570E4FEA490444EAD5746D00E5
:1040100045EAD0754000E743E943891843EB0708B8
:10402000AF1A64EB0306B8F1000F56EA448457EA6E
:104030004585640044EAD5746D0045EAD07540EAD0
:10404000DA70AE1A6FEA050164EB030789184FEACC
:1040500040006FEA0401594157EA448956EA458510
:10406000CC0F4BEA4A010027A34640EAD170490031
:1040700041EAD87A0FF039C85FEACC711ED06F00E0
:104080004FEA490147EAD07741EAD571B7EB020C14
:104090004FEA400061EB030EFD4352196FEA01063F
:1040A00053EB060240EADA705EEA41895CEA478532
:1040B000D10F44EA4A0200270C4692464FEADA71D1
:1040C00041EA400009994FEA4A02002918BFC1E9B4
:1040D000005940EA070122F001002043BDE8F08FBB
:1040E0000A46002100F076B8844641EA000313F046
:1040F000030349D1403A23D30B6803604B68436004
:104100008B688360CB68C3600B6903614B69436153
:104110008B698361CB69C3610B6A03624B6A43623B
:104120008B6A8362CB6AC3620B6B03634B6B436323
:104130008B6B8363CB6BC36340304031403ADBD23F
:1041400030320BD30B6803604B6843608B6883602D
:10415000CB68C36010301031103AF3D20C3205D363
:1041600051F8043B40F8043B043AF9D2043208D039
:10417000D2071CBF11F8013B00F8013B01D30B88AB
:1041800003806046704700BF082A13D38B07B1D065
:1041900010F00303AED0C3F10403D21ADB071CBF37
:1041A00011F8013B00F8013BA4D331F8023B20F8A1
:1041B000023B9FE7043AD9D3013A11F8013B00F8DA
:1041C000013BF9D20B7803704B7843708B78837086
:1041D0006046704770B4840746D0541E002A41D010
:1041E000CDB2034602E0621EE4B3144603F8015B5D
:1041F0009A07F8D1032C2ED9CDB245EA05250F2C0C
:1042000045EA054519D9264603F11002103E0F2E46
:1042100042F8105C42F80C5C42F8085C42F8045C1E
:1042200002F11002F2D8A4F1100222F00F0204F001
:104230000F041032032C13440DD91E462246121FC0
:10424000032A46F8045BFAD8221F22F00302121D4B
:10425000134404F003042CB1C9B21C4403F8011B3D
:10426000A342FBD170BC704714460346C2E710B5A9
:1042700040F28E0140F20002C0F20021C0F20002C2
:104280000446FFF731FF40F2000040F20001C0F2A7
:104290000000C0F200012044FFF722FF10BD40F2F1
:1042A0000801C0F20001401A40F6D831C2F20021E4
:1042B00008607047B0B58A7892070DD5C4B24A68D5
:1042C00020460D469047B0F1FF3F01DD2046B0BDCE
:1042D000A87840F00400A8704FF0FF342046B0BD2D
:1042E000B0B588B00C4644F22731C0F20021002559
:1042F00001914FF4003100910119CDE90655002CD0
:104300000490CDE9025518BF481E48BF0020059013
:10431000114668461A4600F00FF8002C1CBF04999D
:104320000D7008B0B0BDD1E904239A421EBF531CE2
:104330000B6110707047D4D42DE9F04F99B08146CD
:1043400080781892800740F1B58518980027D9F831
:1043500004808A46179011A8821D0C92421E0530D7
:1043600010920E900D91514611F8010B252803D0A3
:104370008A4638B900F0A0BD9AF801500AF1020A45
:10438000252D06D14946C04701370028EBD500F05E
:104390008BBD002200244FF0000C4FF0000B04E016
:1043A0001AF8015B002D00F02D811FFA8BF61F2EED
:1043B00020D8A5F1200010281ED8DFE810F0150045
:1043C0001D001D0018001D001D001D0014001D0013
:1043D0001D001D0011001D00CC001D001D00C900A6
:1043E0004BF0020B00E0DBE74BF0040BD8E74BF09F
:1043F000100BD5E77F2E0DD8A5F13000092840D845
:10440000402E80F0A0800CEB8C014BF0200B00EBD9
:10441000410CC5E7A5F14C002E2800F2F480DFE83E
:1044200010F08F00F200F200F200F200F200F20051
:10443000F200F200F200F200F200F200F200F200EC
:10444000F200F200F200F200F200F200F200F200DC
:10445000F200F200F200F200F200A400F2008F007D
:10446000F2009D00F200F200F200F200F200F20011
:10447000F2002F00F200F200F200F200F2002F0032
:104480008EE7A5F12400562800F2BD80DFE810F089
:104490008600BB00BB00BB00BB00BB007400BB00C0
:1044A000BB00BB00A400BB00BB00BB00BB00BB004B
:1044B000BB00BB00BB00BB00BB00BB00BB00BB0024
:1044C000BB00BB00BB00BB00BB00BB00BB00BB0014
:1044D000BB00BB00BB00BB00BB00BB00BB00BB0004
:1044E0005800BB00BB00BB00BB00BB00BB00BB0057
:1044F000BB00BB00BB00BB00BB00BB00BB00BB00E4
:10450000BB00BB00BB00BB00BB00BB00BB00BB00D3
:10451000BB00BB00BB00BB006D00BB005800BB0074
:104520006600BB00BB00BB00BB00BB00BB00BB0008
:104530005700BB00BB00BB00BB00BB0057002FE710
:104540004BF4207B2CE704EB840100EB410427E7CC
:104550004BF0010B24E74BF0080B21E70BF0800038
:104560004BEA800040F0800B1AE70BF480704BEAB6
:10457000400040F4807B13E7002A7FF411AF1798C6
:104580003F2E00F104011791006832D8B0F1FF3FCF
:1045900032DD4BF0200B0022844601E712B318985D
:1045A000402E179017A90D986546CDF83C90C1464E
:1045B00090465CEA348200F083FC1798402E424615
:1045C000C84600F1040117910068DDF83C9050EAFC
:1045D000358C54EA3084E3E63F2E00F26D844BF0D4
:1045E000400BDDE6624600244FF0000C4FF0000B5C
:1045F000D6E600220446D3E64BF0280BC0F1000CAF
:104600000022CDE60025CDF83CC03AB1189817A994
:1046100017900D9800F054FCDDF83CC0002C24EA03
:10462000E47E45F0200048BF2BF0400B61281CBF02
:10463000A0F16501022925D81799612801F1070128
:1046400021F0070101F108021792A0EB050291ED9C
:10465000000B0A9244D15FEA4B6058BF4FF0FF3E17
:1046600011A8D2B27146764600F0C8FD451C4BF445
:10467000C05B4FF0700C4FF0010EE8B28642D8BF1D
:10468000461E5CE0A5F16301122900F20A810823AD
:104690000026DFE811F035011300060106010601CE
:1046A000060113000601060106010601060161016B
:1046B0005D01060106010D0106012E011FFA8BF1B5
:1046C0005FEA0B6000F10C811798021D17920068D9
:1046D000CA0540F10C81890554BF00B240B206E121
:1046E0005FEA4B6158BF4FF0060E662809D0652877
:1046F0000FD14BF4805B76460EF101010023652457
:1047000011E04BF4005B01226624112176467346CA
:104710000AE05FEA0E61A0F10204714676464FF0AE
:10472000000308BF0121002211A8C9B2112928BF26
:10473000112100F073FF05464FF0020EA446119BB5
:104740009DF84800A3F10A0111F1130F38BF4FF093
:10475000020EA3F16401089111F1C70F38BF4FF0A9
:10476000030E0F9CC1074FD15FEA8B716FD41FFA04
:104770008BF1202202EAC10211F0040F5FEA1F91BF
:1047800010F00C0F45D11BF4405F0493CDE90621D6
:1047900040F02B82012E4FF0010056EA80801FFA74
:1047A0008BF12A0600F06D810E9BEAB2134413F8D8
:1047B000013C302B40F006826B1E1A0621D02E469B
:1047C0000E9DDAB2154415F8015C302D40F0F981E8
:1047D000B31E1A0615D00E9DDAB2154415F8015C09
:1047E000302D40F0EE81F31E1A060AD00E9DDAB28B
:1047F000154415F8015C302D40F0E381351F2A0681
:10480000D2D100250022DDE12D22002110F00C0F75
:10481000B9D000294FF0030050EA1090844212DD15
:104820000A9E0D465FEA0B7117D4041B93462020A5
:104830004946C047002800F1378301370134F6D3D9
:1048400000245A460AE000240A9E49B10FE02B22B8
:10485000002110F00C0FDCD195E7241A294631B95C
:1048600010464946C047002800F11E8301379DF8D5
:10487000480046F29071C0F20021000746F28A50CB
:10488000C0F2002050EA51852878002800F0F98213
:10489000801B4946C0B2C047013701350028F3D517
:1048A00002E3782840F09880C5F188032E4653E053
:1048B0001798011D1791006846F2EC71C0F20021B3
:1048C000002851EA00855FEA4B6058BF4FF0FF3E79
:1048D0002846714600F06AFEDDF83CC0064617E047
:1048E0001798890500F18680011D17910068C1178E
:1048F00088E04FF6EF700BEA000B0A2375262BE0D9
:104900001798012611AD011D179100688DF844001C
:104910005FEA0B700ED4B4450CD92020494664469A
:10492000C047002800F1C082A4F1010C0137B44552
:10493000F3D8B4463744ACEB0604002E00F0A18255
:1049400015F8010B4946C047013E0028F5D5ABE2FA
:104950004BF0100B102378264FF6F9700BEA00028B
:104960005FEA0B600B960AD41798011D1791066831
:10497000D1050AD5900554BFB6B2F6B205E0179836
:1049800091050AD4011D17910668002156EA01001D
:1049900008BF2BF0160278D10FE00730154620F043
:1049A00007000246416852F8086B17922A4656EAF9
:1049B000010008BF2BF0160267D100265FEA4B60AA
:1049C00062D50021012C60DA4FF6E9700BEA000194
:1049D0000B9D480637D467E025204946C04700288C
:1049E00000F1628228464946C047023700287FF519
:1049F000BAAC59E2073020F007010A46496852F87C
:104A0000080B179200295A46CDF82CE048BF42F413
:104A1000806250EA010322D080EAE17081EAE1730A
:104A2000B0EBE17063EBE17111AC22F010060A23E8
:104A3000224600F06DFB3146061BDDF83CC0DDF878
:104A40002CE0480630D54FF6FE70764500EA0100AE
:104A50002BDA002D08BF21F01100714626E05FEA35
:104A60004B604FF0000040F19E810021012CDBDA09
:104A70004FF6EE70DDF83CC000EA0B00DDF82CE0EC
:104A800014E0002500229EE0002111AC30461646BD
:104A90007546224600F03CFB3146AE46DDF83CC090
:104AA000061B0B9D4806CED4084631461FFA80FBF4
:104AB000C0060AD440F206401BEA000F5FEA0F90DE
:104AC00044185FEA0B7009D526E0002D4FF0010075
:104AD00050EA009044185FEA0B701DD45FEACB7077
:104AE00008D0B646644505DA06EB0C00A0EB040ED0
:104AF000644611E064450FDACDF82CE020204946E9
:104B0000C047002800F1D0810F9801340137A0423E
:104B1000F4D1DDF82CE004465FEACB601BD440F210
:104B200006401BEA000F26D05FEA8B7075464FF0F7
:104B30002B0058BF20205FEA4B51494648BF2D202B
:104B4000C047002800F1B0810137AE46F3467546F4
:104B5000B64514DC1CE030204946F346C047002827
:104B600000F1A28135B328464946C047002800F12C
:104B70009B810237DE46F3467546B64508DD302098
:104B80004946C047002800F18F81013DB542F6DC5F
:104B90000F985E45A0EB040456EACB800744002E34
:104BA00000F06F8110984946805DC047013E0028A3
:104BB000F5D579E10137DE46F3467546B645DEDCCC
:104BC000E6E71D46049BC90652EA508113F1040F23
:104BD00008DB834206DA4BF4005B8B4204DAD843ED
:104BE0000E1802E04E1E00E00026A3F57A711FFAAF
:104BF0008BF4099424055FEA8B400395CDE9011CF1
:104C000005940CD411F5FA6F70464FF0050198BF6A
:104C10000420002C58BF032101EB000C03E023EA21
:104C2000E37000F1010CDDF824B0002E079A4FF07C
:104C300000050B96CBF3001182F0010251EA0690B9
:104C40000F9983186344CB1A53EAC5841BF0090FEC
:104C500011D10A9E84B1604475461044441A202044
:104C60004946C047002800F11F8101370134F6D3BF
:104C70000024AE4600E00A9E0798CDF800E0002828
:104C8000069805D14946C047002800F10D8101373B
:104C9000059800280ED530204946C047002800F16D
:104CA0000381C6F178004946C0B2C047002800F130
:104CB000FB800237099800070AD44CB12744302002
:104CC0004946C047002800F1EF80013CF7D100249D
:104CD0000998800427D49DF849004946C047002818
:104CE00000F1E2800B98012857DB2E204946C0478F
:104CF000002800F1D9800B98384400F1020B03988A
:104D0000C5B20020471CAF4202D20C99085C00E0FB
:104D100030204946C047002800F1C6800B98B842B1
:104D20003846EFD148E0049820EAE076851B0B98DE
:104D3000C0F1000B0398C0B20F90701C06D12E205A
:104D40004946C047002800F1AF8001373020002DD0
:104D500004D40F998D42BCBF0E98405D49465E4514
:104D600006DDC04701350137013E0028E5D59BE04F
:104D7000C047002800F198800999781CC90640F1C5
:104D80009180002E40F08C802E204946C047B0F123
:104D9000FF3F40F38980023773E00998C00604D4CE
:104DA00007F1010B08E000213EE62E204946C047EE
:104DB000002879D407F1020B02984946801BC0B243
:104DC000C047002870D4049E2B204946002E48BFBF
:104DD0002D20C047002E48BF7642002864D4019899
:104DE00010F5FA6F15D844F6D3504946C1F2620067
:104DF000A6FB0005302000EB9510C0B2C04700288C
:104E000052D4A8094FF47A7100FB11620BF103052B
:104E100006E008980BF10205324610F1C80F3BD8A6
:104E200048F21F504946C5F2EB101746A2FB000698
:104E3000302000EB5610C0B2C047002834D47009AF
:104E4000642100FB117201354CF6CD404946CCF689
:104E5000CC401746A2FB0006302000EBD600C0B2C3
:104E6000C047002820D4F008013500EB8000A7EBF4
:104E7000400202F130004946C0B2C047002813D4B6
:104E80006F1C012CFFF66FAA20204946C04701374E
:104E9000013C0028F5D507E000980228D4D2E8E7C5
:104EA0000746EEE70746ECE799F8020040F00400F9
:104EB00089F802004FF0FF37384619B0BDE8F08F8F
:104EC000022AB8BF70472DE9F04F42F689084FF02B
:104ED000010CC0F2010804464FF0010E03E05F78B8
:104EE0009C1C252F29D1234613F8015B252D01D0C9
:104EF00025B90AE16778A31C252F1DD11C4614F89B
:104F0000015B252D01D025B9FFE05F789C1C252F82
:104F100013D1234613F8015B252D01D025B9F4E008
:104F20006778A31C252F07D11C4614F8015B252D9B
:104F3000D5D0002DD7D1E8E01C464FF0000A4FF045
:104F40000009002604E014F8017B002F00F0A9807E
:104F5000B346BAF11F0F0AD8A7F12005102D09D8C2
:104F60000CFA05F515EA080F40F07C8002E0BAF172
:104F70007F0F0AD8A7F13005092D3ED80BEB8B0324
:104F80004AF0200A05EB4306DDE7A7F14C052E2D7C
:104F900000F288805E46DFE815F067008500850036
:104FA00085008500850085008500850085008500D9
:104FB00085008500850085008500850085008500C9
:104FC00085008500850085008500850085008500B9
:104FD00085007700850067008500700085008500EA
:104FE000850085008500850085002F0085008500EF
:104FF0008500850085002F00A5E7A7F12405562D23
:1050000000F250800026DFE805F0334D4D4D4D4D48
:10501000324D4D4D324D4D4D4D4D4D4D4D4D4D4DF6
:105020004D4D4D4D4D4D4D4D4D4D4D4D4D4D4D4DB0
:105030004D4D2F4D4D4D4D4D4D4D4D4D4D4D4D4DBE
:105040004D4D4D4D4D4D4D4D4D4D4D4D4D4D3F4D9E
:105050002F4D384D4D4D4D4D4D4D2C4D4D4D4D4DD4
:105060002C00FFE75E466EE74AF4207AFAE76AE72B
:10507000B9F1000F0FD1D94665E70AF080034AEA7B
:10508000830343F0800AEDE70AF480734AEA43039E
:1050900043F4807AE6E7F3457FF455AF6327F146A2
:1050A00000E00027B9F1000F2FD0F14524D147F0DF
:1050B0002003612B1CBF653B022B05D80B6807330F
:1050C00023F00703083313E0A7F16303102B0AD87A
:1050D000DFE803F00C0909090909090909090909A7
:1050E000090909090C005FEA0A6309D40B68043353
:1050F0000EF1010E04460B609645FFF6F4AE04E097
:105100000B685FEA8A54DAD4F1E7BDE8F04F7047E4
:105110002DE9F04703F01F06984691468A4605465A
:10512000284651463246002300F06EFA044600FB42
:1051300016500F46A0EB0801092888BF01F137007F
:10514000303089F80000A81B7AF1000049D32046CE
:1051500039463246002300F057FA054600FB164058
:105160008A46A0EB0801092888BF01F137003030DA
:1051700089F80100A01B77F1000036D3284651467C
:105180003246002300F040FA044600FB16500F465A
:10519000A0EB0801092888BF01F13700303089F8F9
:1051A0000200A81B7AF1000023D32046394632467C
:1051B000002300F029FA054600FB16408A46A0EBC2
:1051C0000801092888BF01F13700303089F8030051
:1051D00009F10409A01B77F10000A1D24846BDE8FF
:1051E000F08709F10100BDE8F08709F10200BDE890
:1051F000F08709F103094846BDE8F0872DE9F04F33
:1052000085B05AEC103B4FEADA77CAF30A566FF3CF
:105210001F5A077153EA0A0408BF002E0ED040F24D
:10522000FF75AE423CD10421002C18BF082139443F
:1052300001710021084605B0BDE8F08F002700236A
:105240004FF0000A0029076037D40D2937D3190F12
:1052500000F1050B41EA0A110491190E4FEA1A54A4
:1052600041EA0A210391190D4FEA1A4641EA0A312F
:105270000291190C4FEA1A3841EA0A410191190BBF
:1052800041EA0A5C190A41EA0A6E190941EA0A79F7
:105290004FEA1A1103F00F034FEA1A27009180E03A
:1052A0004FF60247002ECFF6FF771CBFA6F2FF375E
:1052B0000AF5801A00290760C7D5002146E0332689
:1052C000A6EB8105C5F1200613274FF0020CA7EBD2
:1052D00081072CFA06F401264FF0000E002F58BF6C
:1052E0000CFA07F458BF06FA07FE06FA05F60CFAA0
:1052F00005F558BF002658BF0025D5F100094FF02D
:10530000000868EB040C013D64F100041D4004EA50
:105310000A04751B7EEB040411D38C00C4F1340520
:10532000D4F1140423FA05F7C5F120050AFA05F5AE
:1053300045EA070558BF2AFA04F5EC0702D09B1985
:105340004AEB0E0A03EA09030AEA0C0A1F0947EAB4
:105350000A791F0F1D0B47EA0A1704971F0E45EA2B
:105360000A5C47EA0A2703971F0D1D0A47EA0A3716
:1053700002971F0C45EA0A6E47EA0A4700F1050B3F
:1053800013F00F0301974FEA1A174FEA1A544FEA26
:105390001A464FEA1A384FEA1A25009700F0B480EF
:1053A0002F46991A092B88BF01F1270303F1300119
:1053B000817409F00F030D219D1A092B88BF05F197
:1053C00027030C2903F13003437498BF0C210EF01E
:1053D0000F039D1A092B88BF05F127030B2903F141
:1053E0003003037498BF0B210CF00F039D1A092B97
:1053F00088BF05F127030A2903F13003C37398BF5F
:105400000A21019B3D4603F00F039F1A092B88BF19
:1054100007F12703092903F13003837398BF09219A
:10542000029B03F00F039F1A092B88BF07F1270384
:10543000082903F13003437398BF0821039B03F04D
:105440000F039F1A092B88BF07F12703072903F1D0
:105450003003037398BF0721049B03F00F039F1AC7
:10546000092B88BF07F12703062903F13003C37214
:1054700098BF06210AF00F039F1A092B88BF07F176
:105480002703052903F13003837298BF0521009B90
:1054900003F00F039F1A092B88BF07F12703042984
:1054A00003F13003437298BF042105F00F039F1AE4
:1054B000092B88BF07F12703032903F13003037287
:1054C00098BF032108F00F039F1A092B88BF07F12B
:1054D0002703022903F13003C37106F00F0398BFBD
:1054E00002219A1A092B88BF02F1270303F1300227
:1054F0008271012998BF012104F130008BF800006E
:10550000084605B0BDE8F08F19F00F0348D10C290B
:1055100046D21EF00F0345D10B2943D21CF00F03D6
:1055200042D10A2940D2019B13F00F037FF46DAFE3
:105530000929BFF46AAF029B13F00F037FF473AF26
:105540000829BFF470AF039B13F00F037FF479AF0A
:105550000729BFF476AF049B13F00F037FF47FAFEE
:105560000629BFF47CAF1AF00F037FF485AF05293D
:10557000BFF482AF17F00F038CD104298AD215F043
:105580000F0394D1032992D218F00F039CD1022962
:105590009AD206F00F0353EA0107A2D10021ABE72C
:1055A0002F4609E72F4614E72F461FE7844639B3F5
:1055B00070B500EB010C4B1EA1F1020ECC1E0022B7
:1055C000855C85B1934219D085186E7876B1964581
:1055D00014D0AE786EB1944210D0EE7866B1043239
:1055E0009142EDD10AE000EB020C07E005F1010C5D
:1055F00004E005F1020C01E005F1030CBDE8704088
:10560000ACEB00007047D4D440B584B002AE009635
:10561000FEF723FC029A039B04B040BD2DE9F04F36
:10562000A1B056EC108BB246C6F30A546FF31F5A62
:10563000F50F58EA0A0708BF002C0ED040F2FF769B
:10564000B44215D10821002F08BF042100242944A9
:105650000171204621B0BDE8F08FA91C01713021F5
:105660000124417100210160204621B0BDE8F08F86
:10567000A4F23549002CCDE9062308F00106049573
:10568000CDE9081006BF4FF6CC39CFF6FF790AF501
:10569000801A4FEA8A0242EA9870002F15905FEA5A
:1056A0000F90022C5FEA2F91B9F1000F40EA010739
:1056B0004FEA880014900596139749D4484600F0A5
:1056C00021FD0546B9F1030F88BF013D284600F0D2
:1056D00027FD0DF1580B04462846594600F00BFEF5
:1056E0001AA81CA95A460297CDE90010A5EB09009B
:1056F0002044514600F17C034046AB4600F031FCAB
:105700008246152D5FD8149F4CF6CD46159D1EA8D8
:10571000CCF6CC460C4600903846294632464FF02F
:10572000CC3300F072FEDDE91E01820842EA81718D
:1057300020F0030008444042F8426AD13846294626
:1057400000F0F7FC58455FEA3F901290002087E098
:10575000C9F1000B584600F0DCFC044619F10100C9
:1057600018BF013CABEB040B584600F0D9FC16A95E
:10577000054658468B4600F03BFD1AA81CA95A4620
:105780000297CDE90010601B00F17D0340465146B1
:1057900000F0E7FB04EB090B8246012C1BD8089BA9
:1057A000002E069D4CF6CD46CCF6CC4608D0DDE961
:1057B0001C0201381C9062F100001D900020139023
:1057C0000120129050E04CF6CD460020CDE91200A9
:1057D000CCF6CC4646E0089B4CF6CD46069DCCF672
:1057E000CC463E2C25D84FF0FF30B4F1200200FA11
:1057F00004F758BF0027149C58BF9040159A24EA1C
:10580000070722EA000038435FEA1F901290002049
:1058100011E0059888B91398C043C01965F10001DB
:1058200000F087FC58455FEA3F90139000201290EB
:1058300017E000201290139016E047F0020029466E
:1058400000F077FCDDE91C124B1E62F100055845A3
:1058500053EA21801C9055EA22801D90002012906E
:1058600013902146089B069D002D0C934AD0BAF157
:105870000A0071F1000001D2012037E000274FF04B
:105880000A0C02204FF064094FF47A7842F2107E3D
:105890000A22A2FB0C4507EB870305EB4303BAEB97
:1058A000040471EB030320D3A2FB093407FB094472
:1058B000BAEB030371EB040314D3A2FB083407FB18
:1058C0000844BAEB030371EB04030DD3A2FB0E23D0
:1058D000043007FB0E37BAEB020371EB0703D8D293
:1058E000013802E0013000E00230089B079A0BEB20
:1058F00002073844B0EBD27FB8BFD00F834253EADF
:10590000B0800C90CDF80CB00DF1680B1D9C16AD5D
:105910009BE8000B00201591149011900B902FE044
:105920001599504632464FF0CC3316AD4FEADB04A2
:10593000009500F06AFD1498BB46129910F0FF0F15
:10594000DDE916235FEA1F90014008EB8800129101
:10595000404210994942B1EB400F13995FEA1F9002
:1059600001401391D00840EA437101EB8000AAEB9B
:105970004000149011988A4601301190D808159073
:105980005846214632464FF0CC330095CDF834B01E
:105990000E9400F03AFD4046494632464FF0CC3373
:1059A000DDE9164B0095CDE90F9800F02EFDDDE9FD
:1059B0001601E20842EA4B774FEAD109C00840EAF3
:1059C0004178B8EB070079EBDB00A9D31599BAF160
:1059D0000A0071F1000001D201203BE00A97002586
:1059E0000A2202204FF00A0C64274FF47A7EA2FBB1
:1059F0000C3605EB850406EB4406BAEB030371EBAA
:105A0000060322D3A2FB073605FB0766BAEB0303A6
:105A100071EB060316D3A2FB0E3605FB0E66BAEB3E
:105A2000030371EB06030FD342F210740430A2FBA0
:105A3000042305FB0435BAEB020371EB0503D6D250
:105A4000013802E0013000E002300A9F4CF6CD46FA
:105A5000CCF6CC460C9A4AEA010313435FEA1F9343
:105A6000904203DD13B901200B905AE71398C00749
:105A700071D0DDF8408032460F994FF0CC3316AD2F
:105A80000095404600F0C1FCDDE91610C8F10003A6
:105A9000DDF848B0CA0842EA407404EB8202524280
:105AA000B3EB420F5FD1C208DDF84490DDF850C07F
:105AB000DDE90D01904632464FF0CC33CDF850C0B1
:105AC000009500F0A2FC1599324616984FF0CC33A1
:105AD00012905046179F009500F097FC4CF6CD426F
