S0210000646D615F626C6F636B5F63706B6E65745F72613874325F65702E737265633F
S3150200000000400020493B0002293B0002B92B0002B6
S31502000010513B0002513B0002513B0002513B0002A0
S31502000020000000000000000000000000513B00023A
S315020000306128000200000000513B0002513B000211
S31502000040D13A000289380002A93700027939000242
S30902000050093A00025F
S3150200005810B544F20004C2F2000460780130607000
S3150200006844F64670C0F2002000F004F80120207021
S3130200007810BDD4D440F2AF2CC0F2002C60476B
S3150200008800000300E92A0002092B00020000000012
S315020000984009000000000888000000000000000077
S309020000A80300040045
S315020000B0844641EA000313F0030349D1403A23D3AD
S315020000C00B6803604B6843608B688360CB68C360D0
S315020000D00B6903614B6943618B698361CB69C361B8
S315020000E00B6A03624B6A43628B6A8362CB6AC362A0
S315020000F00B6B03634B6B43638B6B8363CB6BC36388
S3150200010040304031403ADBD230320BD30B680360C9
S315020001104B6843608B688360CB68C36010301031D4
S31502000120103AF3D20C3205D351F8043B40F8043BA3
S31502000130043AF9D2043208D0D2071CBF11F8013BA7
S3150200014000F8013B01D30B8803806046704700BF6D
S31502000150082A13D38B07B1D010F00303AED0C3F134
S315020001600403D21ADB071CBF11F8013B00F8013B5E
S31502000170A4D331F8023B20F8023B9FE7043AD9D3D5
S31502000180013A11F8013B00F8013BF9D20B780370F2
S315020001904B7843708B7883706046704770B48407DF
S315020001A046D0541E002A41D0CDB2034602E0621E5A
S315020001B0E4B3144603F8015B9A07F8D1032C2ED94F
S315020001C0CDB245EA05250F2C45EA054519D926463D
S315020001D003F11002103E0F2E42F8105C42F80C5C3E
S315020001E042F8085C42F8045C02F11002F2D8A4F16B
S315020001F0100222F00F0204F00F041032032C1344F3
S315020002000DD91E462246121F032A46F8045BFAD867
S31502000210221F22F00302121D134404F003042CB120
S31502000220C9B21C4403F8011BA342FBD170BC704740
S3150200023014460346C2E710B540F2AC0140F2000292
S31502000240C0F20021C0F200020446FFF731FF40F27D
S31502000250000040F20001C0F20000C0F2000120449A
S3150200026000F001F810BD0A460021FFF797BF40F2E1
S315020002700801C0F20001401A40F29001C2F20021C8
S315020002800860704783B080B581B0844603A80EC06B
S3150200029045F25830C0F20020006803AA6146009277
S315020002A000F028F801B0BDE8804003B0704770B591
S315020002B0054645F25830C0F200200468A07880074F
S315020002C014D56668287828B12146B047013500283A
S315020002D0F8D507E00A202146B047B0F1FF3FC4BF78
S315020002E0002070BDA07840F00400A0704FF0FF30EF
S315020002F070BDD4D42DE9F04F99B08146807818921A
S31502000300800740F1B58518980027D9F804808A46F7
S31502000310179011A8821D0C92421E053010920E9063
S315020003200D91514611F8010B252803D08A4638B99A
S3150200033000F0A0BD9AF801500AF1020A252D06D155
S315020003404946C04701370028EBD500F08BBD002295
S3150200035000244FF0000C4FF0000B04E01AF8015B8A
S31502000360002D00F02D811FFA8BF61F2E20D8A5F145
S31502000370200010281ED8DFE810F015001D001D0011
S3150200038018001D001D001D0014001D001D001D008B
S3150200039011001D00CC001D001D00C9004BF0020B10
S315020003A000E0DBE74BF0040BD8E74BF0100BD5E788
S315020003B07F2E0DD8A5F13000092840D8402E80F0B6
S315020003C0A0800CEB8C014BF0200B00EB410CC5E737
S315020003D0A5F14C002E2800F2F480DFE810F08F0021
S315020003E0F200F200F200F200F200F200F200F20075
S315020003F0F200F200F200F200F200F200F200F20065
S31502000400F200F200F200F200F200F200F200F20054
S31502000410F200F200F200A400F2008F00F2009D004A
S31502000420F200F200F200F200F200F200F2002F00F7
S31502000430F200F200F200F200F2002F008EE7A5F1C0
S315020004402400562800F2BD80DFE810F08600BB00CB
S31502000450BB00BB00BB00BB007400BB00BB00BB0003
S31502000460A400BB00BB00BB00BB00BB00BB00BB00C3
S31502000470BB00BB00BB00BB00BB00BB00BB00BB009C
S31502000480BB00BB00BB00BB00BB00BB00BB00BB008C
S31502000490BB00BB00BB00BB00BB00BB005800BB00DF
S315020004A0BB00BB00BB00BB00BB00BB00BB00BB006C
S315020004B0BB00BB00BB00BB00BB00BB00BB00BB005C
S315020004C0BB00BB00BB00BB00BB00BB00BB00BB004C
S315020004D0BB00BB006D00BB005800BB006600BB0042
S315020004E0BB00BB00BB00BB00BB00BB005700BB0090
S315020004F0BB00BB00BB00BB0057002FE74BF4207BC1
S315020005002CE704EB840100EB410427E74BF0010BD7
S3150200051024E74BF0080B21E70BF080004BEA800042
S3150200052040F0800B1AE70BF480704BEA400040F46F
S31502000530807B13E7002A7FF411AF17983F2E00F154
S3150200054004011791006832D8B0F1FF3F32DD4BF05B
S31502000550200B0022844601E712B31898402E17900A
S3150200056017A90D986546CDF83C90C14690465CEABF
S31502000570348200F083FC1798402E4246C84600F1AA
S31502000580040117910068DDF83C9050EA358C54EA74
S315020005903084E3E63F2E00F26D844BF0400BDDE63D
S315020005A0624600244FF0000C4FF0000BD6E6002204
S315020005B00446D3E64BF0280BC0F1000C0022CDE630
S315020005C00025CDF83CC03AB1189817A917900D9896
S315020005D000F054FCDDF83CC0002C24EAE47E45F031
S315020005E0200048BF2BF0400B61281CBFA0F165011B
S315020005F0022925D81799612801F1070121F007017F
S3150200060001F108021792A0EB050291ED000B0A9286
S3150200061044D15FEA4B6058BF4FF0FF3E11A8D2B2F9
S315020006207146764600F0C8FD451C4BF4C05B4FF0A0
S31502000630700C4FF0010EE8B28642D8BF461E5CE04F
S31502000640A5F16301122900F20A8108230026DFE8D8
S3150200065011F0350113000601060106010601130019
S315020006600601060106010601060161015D01060198
S3150200067006010D0106012E011FFA8BF15FEA0B60DE
S3150200068000F10C811798021D17920068CA0540F105
S315020006900C81890554BF00B240B206E15FEA4B61A4
S315020006A058BF4FF0060E662809D065280FD14BF4C5
S315020006B0805B76460EF101010023652411E04BF4BE
S315020006C0005B012266241121764673460AE05FEA40
S315020006D00E61A0F10204714676464FF0000308BF90
S315020006E00121002211A8C9B2112928BF112101F046
S315020006F0B6F805464FF0020EA446119B9DF8480037
S31502000700A3F10A0111F1130F38BF4FF0020EA3F144
S315020007106401089111F1C70F38BF4FF0030E0F9C09
S31502000720C1074FD15FEA8B716FD41FFA8BF120227A
S3150200073002EAC10211F0040F5FEA1F9110F00C0FDA
S3150200074045D11BF4405F0493CDE9062140F02B828C
S31502000750012E4FF0010056EA80801FFA8BF12A061D
S3150200076000F06D810E9BEAB2134413F8013C302B64
S3150200077040F006826B1E1A0621D02E460E9DDAB274
S31502000780154415F8015C302D40F0F981B31E1A06A6
S3150200079015D00E9DDAB2154415F8015C302D40F0E5
S315020007A0EE81F31E1A060AD00E9DDAB2154415F82A
S315020007B0015C302D40F0E381351F2A06D2D1002597
S315020007C00022DDE12D22002110F00C0FB9D0002904
S315020007D04FF0030050EA1090844212DD0A9E0D4645
S315020007E05FEA0B7117D4041B934620204946C04783
S315020007F0002800F1378301370134F6D300245A4624
S315020008000AE000240A9E49B10FE02B22002110F0D3
S315020008100C0FDCD195E7241A294631B91046494610
S31502000820C047002800F11E8301379DF8480044F6B0
S315020008304271C0F20021000744F61340C0F20020C4
S3150200084050EA51852878002800F0F982801B494633
S31502000850C0B2C047013701350028F3D502E3782834
S3150200086040F09880C5F188032E4653E01798011D83
S315020008701791006844F6DB71C0F20021002851EAA4
S3150200088000855FEA4B6058BF4FF0FF3E284671462F
S3150200089000F06AFEDDF83CC0064617E017988905A7
S315020008A000F18680011D17910068C11788E04FF696
S315020008B0EF700BEA000B0A2375262BE01798012628
S315020008C011AD011D179100688DF844005FEA0B70A7
S315020008D00ED4B4450CD9202049466446C0470028A8
S315020008E000F1C082A4F1010C0137B445F3D8B44635
S315020008F03744ACEB0604002E00F0A18215F8010B7A
S315020009004946C047013E0028F5D5ABE24BF0100B35
S31502000910102378264FF6F9700BEA00025FEA0B60A5
S315020009200B960AD41798011D17910668D1050AD5A8
S31502000930900554BFB6B2F6B205E0179891050AD4EF
S31502000940011D17910668002156EA010008BF2BF027
S31502000950160278D10FE00730154620F0070002464E
S31502000960416852F8086B17922A4656EA010008BFF8
S315020009702BF0160267D100265FEA4B6062D5002192
S31502000980012C60DA4FF6E9700BEA00010B9D48066E
S3150200099037D467E025204946C047002800F1628225
S315020009A028464946C047023700287FF5BAAC59E2C5
S315020009B0073020F007010A46496852F8080B1792D9
S315020009C000295A46CDF82CE048BF42F4806250EA2C
S315020009D0010322D080EAE17081EAE173B0EBE170B3
S315020009E063EBE17111AC22F010060A23224600F0F5
S315020009F06DFB3146061BDDF83CC0DDF82CE04806EF
S31502000A0030D54FF6FE70764500EA01002BDA002D4E
S31502000A1008BF21F01100714626E05FEA4B604FF0F5
S31502000A20000040F19E810021012CDBDA4FF6EE70C8
S31502000A30DDF83CC000EA0B00DDF82CE014E00025EE
S31502000A4000229EE0002111AC30461646754622462B
S31502000A5000F03CFB3146AE46DDF83CC0061B0B9D62
S31502000A604806CED4084631461FFA80FBC0060AD491
S31502000A7040F206401BEA000F5FEA0F9044185FEA55
S31502000A800B7009D526E0002D4FF0010050EA0090C8
S31502000A9044185FEA0B701DD45FEACB7008D0B646E5
S31502000AA0644505DA06EB0C00A0EB040E644611E081
S31502000AB064450FDACDF82CE020204946C0470028CD
S31502000AC000F1D0810F9801340137A042F4D1DDF84C
S31502000AD02CE004465FEACB601BD440F206401BEAD8
S31502000AE0000F26D05FEA8B7075464FF02B0058BF79
S31502000AF020205FEA4B51494648BF2D20C0470028B7
S31502000B0000F1B0810137AE46F3467546B64514DCB0
S31502000B101CE030204946F346C047002800F1A28176
S31502000B2035B328464946C047002800F19B81023763
S31502000B30DE46F3467546B64508DD30204946C047CF
S31502000B40002800F18F81013DB542F6DC0F985E4523
S31502000B50A0EB040456EACB800744002E00F06F8116
S31502000B6010984946805DC047013E0028F5D579E1D7
S31502000B700137DE46F3467546B645DEDCE6E71D4638
S31502000B80049BC90652EA508113F1040F08DB834223
S31502000B9006DA4BF4005B8B4204DAD8430E1802E005
S31502000BA04E1E00E00026A3F57A711FFA8BF4099413
S31502000BB024055FEA8B400395CDE9011C05940CD40C
S31502000BC011F5FA6F70464FF0050198BF0420002C0C
S31502000BD058BF032101EB000C03E023EAE37000F1A6
S31502000BE0010CDDF824B0002E079A4FF000050B9693
S31502000BF0CBF3001182F0010251EA06900F99831895
S31502000C006344CB1A53EAC5841BF0090F11D10A9E1D
S31502000C1084B1604475461044441A20204946C047B0
S31502000C20002800F11F8101370134F6D30024AE46B5
S31502000C3000E00A9E0798CDF800E00028069805D144
S31502000C404946C047002800F10D8101370598002862
S31502000C500ED530204946C047002800F10381C6F16F
S31502000C6078004946C0B2C047002800F1FB8002372F
S31502000C70099800070AD44CB1274430204946C04798
S31502000C80002800F1EF80013CF7D100240998800486
S31502000C9027D49DF849004946C047002800F1E28062
S31502000CA00B98012857DB2E204946C047002800F141
S31502000CB0D9800B98384400F1020B0398C5B2002084
S31502000CC0471CAF4202D20C99085C00E0302049462C
S31502000CD0C047002800F1C6800B98B8423846EFD1CB
S31502000CE048E0049820EAE076851B0B98C0F1000BD9
S31502000CF00398C0B20F90701C06D12E204946C047F9
S31502000D00002800F1AF8001373020002D04D40F995E
S31502000D108D42BCBF0E98405D49465E4506DDC04722
S31502000D2001350137013E0028E5D59BE0C047002882
S31502000D3000F198800999781CC90640F19180002E2D
S31502000D4040F08C802E204946C047B0F1FF3F40F369
S31502000D508980023773E00998C00604D407F1010BB3
S31502000D6008E000213EE62E204946C047002879D4F5
S31502000D7007F1020B02984946801BC0B2C047002801
S31502000D8070D4049E2B204946002E48BF2D20C04712
S31502000D90002E48BF7642002864D4019810F5FA6FF7
S31502000DA015D844F6D3504946C1F26200A6FB0005A7
S31502000DB0302000EB9510C0B2C047002852D4A809D3
S31502000DC04FF47A7100FB11620BF1030506E00898F5
S31502000DD00BF10205324610F1C80F3BD848F21F50FC
S31502000DE04946C5F2EB101746A2FB0006302000EB7F
S31502000DF05610C0B2C047002834D47009642100FBE3
S31502000E00117201354CF6CD404946CCF6CC40174618
S31502000E10A2FB0006302000EBD600C0B2C047002875
S31502000E2020D4F008013500EB8000A7EB400202F166
S31502000E3030004946C0B2C047002813D46F1C012CAB
S31502000E40FFF66FAA20204946C0470137013C002819
S31502000E50F5D507E000980228D4D2E8E70746EEE780
S31502000E600746ECE799F8020040F0040089F8020010
S31502000E704FF0FF37384619B0BDE8F08F022AB8BFE7
S31502000E8070472DE9F04F42F689084FF0010CC0F287
S31502000E90010804464FF0010E03E05F789C1C252FE3
S31502000EA029D1234613F8015B252D01D025B90AE184
S31502000EB06778A31C252F1DD11C4614F8015B252D2E
S31502000EC001D025B9FFE05F789C1C252F13D123465C
S31502000ED013F8015B252D01D025B9F4E06778A31C30
S31502000EE0252F07D11C4614F8015B252DD5D0002DE0
S31502000EF0D7D1E8E01C464FF0000A4FF00009002661
S31502000F0004E014F8017B002F00F0A980B346BAF181
S31502000F101F0F0AD8A7F12005102D09D80CFA05F5DE
S31502000F2015EA080F40F07C8002E0BAF17F0F0AD87A
S31502000F30A7F13005092D3ED80BEB8B034AF0200AA8
S31502000F4005EB4306DDE7A7F14C052E2D00F288805E
S31502000F505E46DFE815F0670085008500850085009E
S31502000F608500850085008500850085008500850051
S31502000F708500850085008500850085008500850041
S31502000F80850085008500850085008500850077003F
S31502000F908500670085007000850085008500850054
S31502000FA08500850085002F00850085008500850067
S31502000FB085002F00A5E7A7F12405562D00F25080E3
S31502000FC00026DFE805F0334D4D4D4D4D324D4D4D6A
S31502000FD0324D4D4D4D4D4D4D4D4D4D4D4D4D4D4D54
S31502000FE04D4D4D4D4D4D4D4D4D4D4D4D4D4D2F4D47
S31502000FF04D4D4D4D4D4D4D4D4D4D4D4D4D4D4D4D19
S315020010004D4D4D4D4D4D4D4D4D4D3F4D2F4D384D49
S315020010104D4D4D4D4D4D2C4D4D4D4D4D2C00FFE73B
S315020010205E466EE74AF4207AFAE76AE7B9F1000FFC
S315020010300FD1D94665E70AF080034AEA830343F0F3
S31502001040800AEDE70AF480734AEA430343F4807A9E
S31502001050E6E7F3457FF455AF6327F14600E0002744
S31502001060B9F1000F2FD0F14524D147F02003612BAF
S315020010701CBF653B022B05D80B68073323F0070319
S31502001080083313E0A7F16303102B0AD8DFE803F055
S315020010900C090909090909090909090909090909B5
S315020010A00C005FEA0A6309D40B6804330EF1010EE1
S315020010B004460B609645FFF6F4AE04E00B685FEA61
S315020010C08A54DAD4F1E7BDE8F04F70472DE9F047CC
S315020010D003F01F06984691468A460546284651461B
S315020010E03246002300F06EFA044600FB16500F4605
S315020010F0A0EB0801092888BF01F13700303089F8D2
S315020011000000A81B7AF1000049D320463946324630
S31502001110002300F057FA054600FB16408A46A0EB6C
S315020011200801092888BF01F13700303089F801002B
S31502001130A01B77F1000036D32846514632460023DB
S3150200114000F040FA044600FB16500F46A0EB0801D9
S31502001150092888BF01F13700303089F80200A81B40
S315020011607AF1000023D3204639463246002300F0A6
S3150200117029FA054600FB16408A46A0EB0801092813
S3150200118088BF01F13700303089F8030009F10409FC
S31502001190A01B77F10000A1D24846BDE8F08709F10D
S315020011A00100BDE8F08709F10200BDE8F08709F108
S315020011B003094846BDE8F0872DE9F04F85B05AECA1
S315020011C0103B4FEADA77CAF30A566FF31F5A0771D2
S315020011D053EA0A0408BF002E0ED040F2FF75AE4253
S315020011E03CD10421002C18BF082139440171002189
S315020011F0084605B0BDE8F08F002700234FF0000A2D
S315020012000029076037D40D2937D3190F00F1050BD2
S3150200121041EA0A110491190E4FEA1A5441EA0A21C7
S315020012200391190D4FEA1A4641EA0A310291190C45
S315020012304FEA1A3841EA0A410191190B41EA0A5C5E
S31502001240190A41EA0A6E190941EA0A794FEA1A119C
S3150200125003F00F034FEA1A27009180E04FF6024788
S31502001260002ECFF6FF771CBFA6F2FF370AF5801ACB
S3150200127000290760C7D5002146E03326A6EB810583
S31502001280C5F1200613274FF0020CA7EB81072CFAB3
S3150200129006F401264FF0000E002F58BF0CFA07F491
S315020012A058BF06FA07FE06FA05F60CFA05F558BF08
S315020012B0002658BF0025D5F100094FF0000868EB5B
S315020012C0040C013D64F100041D4004EA0A04751B86
S315020012D07EEB040411D38C00C4F13405D4F114045A
S315020012E023FA05F7C5F120050AFA05F545EA0705C9
S315020012F058BF2AFA04F5EC0702D09B194AEB0E0AEC
S3150200130003EA09030AEA0C0A1F0947EA0A791F0FC8
S315020013101D0B47EA0A1704971F0E45EA0A5C47EABD
S315020013200A2703971F0D1D0A47EA0A3702971F0C61
S3150200133045EA0A6E47EA0A4700F1050B13F00F0366
S3150200134001974FEA1A174FEA1A544FEA1A464FEA1A
S315020013501A384FEA1A25009700F0B4802F46991AD8
S31502001360092B88BF01F1270303F13001817409F0CB
S315020013700F030D219D1A092B88BF05F127030C299E
S3150200138003F13003437498BF0C210EF00F039D1A2C
S31502001390092B88BF05F127030B2903F130030374D8
S315020013A098BF0B210CF00F039D1A092B88BF05F17C
S315020013B027030A2903F13003C37398BF0A21019B4D
S315020013C03D4603F00F039F1A092B88BF07F1270337
S315020013D0092903F13003837398BF0921029B03F0A5
S315020013E00F039F1A092B88BF07F12703082903F168
S315020013F03003437398BF0821039B03F00F039F1A20
S31502001400092B88BF07F12703072903F1300303736A
S3150200141098BF0721049B03F00F039F1A092B88BF6D
S3150200142007F12703062903F13003C37298BF062189
S315020014300AF00F039F1A092B88BF07F12703052914
S3150200144003F13003837298BF0521009B03F00F035B
S315020014509F1A092B88BF07F12703042903F13003DA
S31502001460437298BF042105F00F039F1A092B88BF08
S3150200147007F12703032903F13003037298BF0321FF
S3150200148008F00F039F1A092B88BF07F127030229C9
S3150200149003F13003C37106F00F0398BF02219A1AB3
S315020014A0092B88BF02F1270303F130028271012959
S315020014B098BF012104F130008BF80000084605B000
S315020014C0BDE8F08F19F00F0348D10C2946D21EF061
S315020014D00F0345D10B2943D21CF00F0342D10A292F
S315020014E040D2019B13F00F037FF46DAF0929BFF4BD
S315020014F06AAF029B13F00F037FF473AF0829BFF4A0
S3150200150070AF039B13F00F037FF479AF0729BFF483
S3150200151076AF049B13F00F037FF47FAF0629BFF467
S315020015207CAF1AF00F037FF485AF0529BFF482AFB3
S3150200153017F00F038CD104298AD215F00F0394D128
S31502001540032992D218F00F039CD102299AD206F0EF
S315020015500F0353EA0107A2D10021ABE72F4609E7A1
S315020015602F4614E72F461FE7844639B370B500EBC2
S31502001570010C4B1EA1F1020ECC1E0022855C85B128
S31502001580934219D085186E7876B1964514D0AE7806
S315020015906EB1944210D0EE7866B104329142EDD12A
S315020015A00AE000EB020C07E005F1010C04E005F18C
S315020015B0020C01E005F1030CBDE87040ACEB000043
S315020015C07047D4D440B584B002AE009600F004F859
S315020015D0029A039B04B040BD2DE9F04F099D844653
S315020015E081B1C2B14BB3B1FA81F7B3FA83F6F71BF5
S315020015F0202F4FD3002D18BFC5E900C100200021BE
S31502001600BDE8F08FCBB30021002D64D00020C5E9E0
S3150200161000C1BDE8F08F002B60D0002861D05F1EAC
S315020016203B4200F08580B1FA81F7B3FA83F6F71BE5
S315020016301F2FDFD207F1010C3CE0571E3A425DD064
S31502001640B1FA81F7B2FA82F6F71B07F1210CBCF167
S31502001650200F24D0BCF11F0F79D8CCF1200620FA36
S315020016600CF721FA0CF901FA06F5B0403D434FF0AA
S31502001670000ABCF1010F2CD07CE0B0FBF2FC002D7D
S315020016801EBF0CFB12000021C5E9000100216046C5
S31502001690BDE8F08F07F1010CBCF1200F0AD14FF023
S315020016A000094FF0200C0D464FF0000ABCF1010F65
S315020016B00FD05FE0C7F11F0720FA0CF621FA0CF9EA
S315020016C001FA07F5B84035434FF0000ABCF1010FA5
S315020016D050D100248FE00020BDE8F08F6046BDE8BF
S315020016E0F08FB1FBF3FC002D1EBF0CFB1310002183
S315020016F0C5E9001000216046BDE8F08F002D1EBF2F
S3150200170000230740C5E90073012A0ED092FAA2F21D
S315020017104F00B2FA82F202F01F03D140D8401F23D3
S31502001720934307FA03F343EA000C6046BDE8F08FE1
S31502001730002D1CBF07EA0100C5E900C093FAA3F019
S31502001740B0FA80F021FA00F00021BDE8F08FACF18A
S315020017502007CCF140044FF0000920FA07F601FAFF
S3150200176004F52E4300FA04FA21FA07F53046BCF1D5
S31502001770010FAED02CF001070126023F4FF0000BFD
S3150200178006EB570E4FEA490444EAD5746D0045EA62
S31502001790D0754000E743E943891843EB0708AF1ABF
S315020017A064EB0306B8F1000F56EA448457EA45850E
S315020017B0640044EAD5746D0045EAD07540EADA70F1
S315020017C0AE1A6FEA050164EB030789184FEA400077
S315020017D06FEA0401594157EA448956EA4585CC0F16
S315020017E04BEA4A010027A34640EAD170490041EA82
S315020017F0D87A0FF039C85FEACC711ED06F004FEA73
S31502001800490147EAD07741EAD571B7EB020C4FEAB4
S31502001810400061EB030EFD4352196FEA010653EBDA
S31502001820060240EADA705EEA41895CEA4785D10F30
S3150200183044EA4A0200270C4692464FEADA7141EA26
S31502001840400009994FEA4A02002918BFC1E9005926
S3150200185040EA070122F001002043BDE8F08F2DE99E
S31502001860F04FA1B056EC108BB246C6F30A546FF392
S315020018701F5AF50F58EA0A0708BF002C0ED040F28D
S31502001880FF76B44215D10821002F08BF0421002497
S3150200189029440171204621B0BDE8F08FA91C0171CF
S315020018A030210124417100210160204621B0BDE8AA
S315020018B0F08FA4F23549002CCDE9062308F0010683
S315020018C00495CDE9081006BF4FF6CC39CFF6FF795D
S315020018D00AF5801A4FEA8A0242EA9870002F15909A
S315020018E05FEA0F90022C5FEA2F91B9F1000F40EAEE
S315020018F001074FEA880014900596139749D4484683
S3150200190000F021FD0546B9F1030F88BF013D2846C7
S3150200191000F027FD0DF1580B04462846594600F003
S315020019200BFE1AA81CA95A460297CDE90010A5EB90
S3150200193009002044514600F17C034046AB4600F0C4
S3150200194031FC8246152D5FD8149F4CF6CD46159D67
S315020019501EA8CCF6CC460C4600903846294632469E
S315020019604FF0CC3300F072FEDDE91E01820842EA36
S31502001970817120F0030008444042F8426AD1384699
S31502001980294600F0F7FC58455FEA3F901290002086
S3150200199087E0C9F1000B584600F0DCFC044619F159
S315020019A0010018BF013CABEB040B584600F0D9FC12
S315020019B016A9054658468B4600F03BFD1AA81CA9F7
S315020019C05A460297CDE90010601B00F17D0340469E
S315020019D0514600F0E7FB04EB090B8246012C1BD8AB
S315020019E0089B002E069D4CF6CD46CCF6CC4608D07A
S315020019F0DDE91C0201381C9062F100001D900020F6
S31502001A0013900120129050E04CF6CD460020CDE90D
S31502001A101200CCF6CC4646E0089B4CF6CD46069D17
S31502001A20CCF6CC463E2C25D84FF0FF30B4F120023E
S31502001A3000FA04F758BF0027149C58BF9040159A25
S31502001A4024EA070722EA000038435FEA1F90129051
S31502001A50002011E0059888B91398C043C01965F1B2
S31502001A60000100F087FC58455FEA3F901390002082
S31502001A70129017E000201290139016E047F0020031
S31502001A80294600F077FCDDE91C124B1E62F10005C7
S31502001A90584553EA21801C9055EA22801D90002069
S31502001AA0129013902146089B069D002D0C934AD056
S31502001AB0BAF10A0071F1000001D2012037E00027D5
S31502001AC04FF00A0C02204FF064094FF47A7842F282
S31502001AD0107E0A22A2FB0C4507EB870305EB4303A4
S31502001AE0BAEB040471EB030320D3A2FB093407FB10
S31502001AF00944BAEB030371EB040314D3A2FB0834C3
S31502001B0007FB0844BAEB030371EB04030DD3A2FBF4
S31502001B100E23043007FB0E37BAEB020371EB070301
S31502001B20D8D2013802E0013000E00230089B079A61
S31502001B300BEB02073844B0EBD27FB8BFD00F83421B
S31502001B4053EAB0800C90CDF80CB00DF1680B1D9CD9
S31502001B5016AD9BE8000B00201591149011900B9086
S31502001B602FE01599504632464FF0CC3316AD4FEA68
S31502001B70DB04009500F06AFD1498BB46129910F03A
S31502001B80FF0FDDE916235FEA1F90014008EB88008C
S31502001B901291404210994942B1EB400F13995FEA04
S31502001BA01F9001401391D00840EA437101EB800077
S31502001BB0AAEB4000149011988A4601301190D80879
S31502001BC015905846214632464FF0CC330095CDF853
S31502001BD034B00E9400F03AFD4046494632464FF084
S31502001BE0CC33DDE9164B0095CDE90F9800F02EFDBA
S31502001BF0DDE91601E20842EA4B774FEAD109C0084D
S31502001C0040EA4178B8EB070079EBDB00A9D31599D6
S31502001C10BAF10A0071F1000001D201203BE00A97F5
S31502001C2000250A2202204FF00A0C64274FF47A7E1E
S31502001C30A2FB0C3605EB850406EB4406BAEB03035E
S31502001C4071EB060322D3A2FB073605FB0766BAEB46
S31502001C50030371EB060316D3A2FB0E3605FB0E66D3
S31502001C60BAEB030371EB06030FD342F2107404308E
S31502001C70A2FB042305FB0435BAEB020371EB050351
S31502001C80D6D2013802E0013000E002300A9F4CF65B
S31502001C90CD46CCF6CC460C9A4AEA010313435FEAD8
S31502001CA01F93904203DD13B901200B905AE7139854
S31502001CB0C00771D0DDF8408032460F994FF0CC3321
S31502001CC016AD0095404600F0C1FCDDE91610C8F1DC
S31502001CD00003DDF848B0CA0842EA407404EB820207
S31502001CE05242B3EB420F5FD1C208DDF84490DDF8F1
S31502001CF050C0DDE90D01904632464FF0CC33CDF8A7
S31502001D0050C0009500F0A2FC1599324616984FF085
S31502001D10CC3312905046179F009500F097FC4CF674
S31502001D20CD4216A8009020464146CCF6CC424FF052
S31502001D30CC33DDE91665CDF83C8000F087FCF1086E
S31502001D4041EA457E14980EEB8101A046ED0810F09B
S31502001D50FF0FAAEB410C5FEA1F90DDE916120BEAB0
S31502001D60000B12984CF6CD461595CB0843EA427401
S31502001D70C00804EB830340EA47705B4209F101099C
S31502001D8016ADF908C8F10007CCF6CC46D208F246E1
S31502001D90B7EB430FAFD00CE00DF1400BD646DDF8A2
S31502001DA050C09BE8000B04E0D646DDF84490DDF80F
S31502001DB050C0159A8EEA08010F9813464240114305
S31502001DC00B9A5FEA0F911143CA07059900295FEA48
S31502001DD01F91002A04BF139A11EA02010ED05FFA7C
S31502001DE08CF105295FEA0F92042962EA0B025FEA87
S31502001DF09F9142EA0E0202EA010C01E04FF0010C49
S31502001E00039809EB00051EEB0C0043F10001B0F14B
S31502001E100A0271F1000201D2012338E0AE46002621
S31502001E204FF00A0802234FF0640B4FF47A7A42F21B
S31502001E3010790A25A5FB087206EB860402EB44021A
S31502001E40C41B71EB02021DD3A5FB0B2406FB0B443C
S31502001E50821A71EB040212D3A5FB0A2406FB0A447A
S31502001E60821A71EB04020CD3A5FB0952043306FB5A
S31502001E700926421B71EB0602DCD2013B02E001336A
S31502001E8000E002334CF6CD467546CCF6CC460C9AAB
S31502001E9093425FEADC82012A079A3AD1069F4FB142
S31502001EA02A441A44012AD8BF0122089F974257EAB8
S31502001EB0B2820C920C9A93422BDD05304CF6CD473A
S31502001EC041F10001CCF6CC474008013B40EAC17023
S31502001ED0013510EB51024FEA510142F10002A2FB19
S31502001EE0077626F0030707EB96074FF0CC36D21B90
S31502001EF0821A4CF6CD40CCF6CC4061F10001A2FB31
S31502001F00000702FB06724CF6CD46CCF6CC4601FB28
S31502001F1006210C9A934253EAB2822BB214B223449C
S31502001F20A3F10108012CC0F2348102F00303099ADD
S31502001F30CDF84880042C02F105091193149402D2BB
S31502001F404FF0000AA9E0E31A2244149C02F10408A5
S31502001F504FF0000A13936422002383460F46FFF7CD
S31502001F6031FB420800F0010042EAC17212EB510154
S31502001F7041F10001A1FB062323F0030202EB9302C7
S31502001F800023891A4FF47A7240EA4100394640F03A
S31502001F90300015905846FFF715FB42084CF6CD4621
S31502001FA042EAC172CCF6CC4612EB510100F00100B6
S31502001FB041F100024FEA5B0141EAC77111EB570397
S31502001FC043F10003A3FB066525F0030606EB95061F
S31502001FD09B1B6FF00206CB1A4CF6CD41CCF6CC41D8
S31502001FE0A3FB011C01EB8105ABEB450545F0300572
S31502001FF008F804598AEA0605159E254409F805607B
S315020020004CF6CD46CCF6CC46A2FB065626F0030588
S3150200201005EB9606A2EB06024CF6CD46CCF6CC466E
S3150200202040EA42006FF0030282EA0A0240F0300000
S31502002030224409F802004FF0CC304FEA570203FB64
S3150200204000C062F1000202FB06004A0801F001012B
S3150200205042EAC07212EB500040F10000A0FB0623D8
S3150200206023F0030202EB93020023801A42F210725B
S3150200207041EA40006FF0010181EA0A0140F03000B6
S31502002080214409F8010058463946FFF79BFA0AF13E
S31502002090040A139A52457FF45EAFDDF844E0DDF898
S315020020A04880149CBEF1000F73D042084CF6CD470F
S315020020B042EAC172CCF6CC4712EB51036FEA0A052B
S315020020C043F100032544A3FB077626F0030707EB3B
S315020020D096074E08DB1BD31A4CF6CD42CCF6CC4201
S315020020E066F1000CA3FB0227BEF1010F02EB82068A
S315020020F0A0EB460646F0300609F8056049D04FF0D7
S31502002100CC364CF6CD4503FB06734CF6CD47CCF6E2
S31502002110CC47CCF6CC450CFB0733570802F001023C
S3150200212047EAC37717EB53034CF6CD4743F1000357
S31502002130CCF6CC47BEF1020FA3FB077626F00307C7
S3150200214007EB9607A3EB070342EA4302A4EB0A0353
S3150200215003EB090642F0300206F8022C19D064227B
S315020021600023FFF72FFA420800F0010042EAC1728B
S3150200217012EB510141F10001A1FB052323F00302F9
S3150200218002EB9302891A40EA410040F0300006F859
S31502002190030C099804990171C0F80080204621B009
S315020021A0BDE8F08F2DE9F04F8BB0490041EAD074BB
S315020021B005931646D2E9002345002846214608AF74
S315020021C0009700F043FAD6E90223834606A8894619
S315020021D0009028462146DDE9087A00F037FA10EB2E
S315020021E00708DDE906234AEB010ADDE90801571C67
S315020021F0059C43F10005B8EB00007AEB0100A4F15F
S31502002200410455EA338357EA328296E8830017EB94
S315020022100807F568049445EB0A0510EB0B0059EB29
S315020022200100009457F10000CDE9062345F10001B3
S31502002230571C43F10005B0EB080471EB0A04CDF814
S315020022400CB055EA338357EA3282CDF8089000F093
S315020022501BFADDE91429169BC2E9000143B3D6E94C
S3150200226000C1D6E902560398B8EB0505DDE9062357
S315020022706AEB06066C1E66F10007B0EB0C000298CC
S31502002280DDF810B08841CDF800B054EA358057EA3F
S315020022903681571E63F10006B8EB00057AEB01059D
S315020022A057EA328256EA338300F0EEF95F463EE0A1
S315020022B0DDE906204FEA4804D6E900EC01900598CC
S315020022C0D6E90276A0F14005029800954FEA4A0542
S315020022D0039945EAD87544EAD0744300E71B65EBD7
S315020022E00606B7F1010B43EAD17366F10000DEEB95
S315020022F0410173EB0C0150EA36815BEA3780B4EB9D
S315020023000803019F75EB0A035FEA2F937F0043EAF6
S31502002310420347EAD2775A1E67F10006241A8D4114
S3150200232052EA338256EA378300F0AEF9049FDDE9BA
S315020023300623C9E9000140465146009700F0A4F978
S315020023400BB0BDE8F08F43F24141C0F201014843B0
S31502002350800C704742F6FB61C0F20B014843000D48
S31502002360704749F24F31C0F212014843012101EB95
S31502002370D04070472DE9F04F4CF6CD4E45F6294434
S3150200238042F6F50A47F6D50847F6916943F2343B19
S3150200239002460020CCF6CC4E4FF03333CCF28F24DB
S315020023A0C8F65C7AC2F2E968C3F6FB29C3F2333B8C
S315020023B0A2FB0E5C4FF0CC3702FB07C7D5F13335D3
S315020023C001FB0E7773EB07072ED3A2FB047502FB04
S315020023D00A55D7F1333701FB045573EB050722D3B0
S315020023E0A2FB087540F63106C1F6AC4602FB06555D
S315020023F0D7F1333701FB085573EB050716D3A2FB5A
S3150200240009754CF67066CDF28826043002FB065238
S3150200241001FB0921B7EB0B0271F133323A46C7D3FE
S315020024200138BDE8F08F0130BDE8F08F0230BDE81B
S31502002430F08F2DE9F04F87B005464EF64F40C4F6B1
S31502002440C4608B46A5FB0001C8081A2100FB01F6F1
S3150200245045F21801C0F2002101EB0010B54209D184
S3150200246090E80E00C0688BE80E00CBF80C0007B0AF
S31502002470BDE8F08FD0E9009245F2E801C0F20021F2
S315020024800192D0E90223A81B51F8307001EBC0007B
S31502002490446804A800903846214600F0D7F8019B0C
S315020024A0824602A888460090384621464A4600F0EF
S315020024B0CDF881460191DDE90201002210EB0A07FF
S315020024C058EB010842F10000012806D1DDE90401BA
S315020024D00130049041F1000005902846FFF741FFC4
S315020024E004463046FFF73DFF0199241A48463A460C
S315020024F04346009400F0C8F86FF0030245F2B813A1
S3150200250002EA9502C0F200239A581E2303EA450303
S31502002510DA4002F003068019DDE9042341F10001E5
S31502002520CBE9000138464146009400F0ADF8CBE90C
S31502002530020107B0BDE8F08F2DE9F04F87B08B4658
S315020025404EF64F4105461930C4F6C461A0FB01019F
S31502002550C8081A2100FB01F645F21021C0F200213B
S3150200256001EB0010AE4209D190E80E00C0688BE87C
S315020025700E00CBF80C0007B0BDE8F08FD0E900A240
S3150200258045F2E801C0F200210192D0E90223701B54
S3150200259051F8307001EBC000446804A80090384638
S315020025A0214600F053F8804602A80090BAF10102D3
S315020025B001988946214660F10003384600F046F844
S315020025C004468A46DDE90201002210EB080751EBB8
S315020025D0090842F10000012806D1DDE904010130B3
S315020025E0049041F1000005903046FFF7BAFE064618
S315020025F02846FFF7B6FE361A204651463A46434665
S31502002600009600F041F86FF0030245F2003302EA49
S315020026109502C0F200239A581E2303EA4503DA40C4
S3150200262002F003054019DDE9042341F100010130FE
S3150200263041F10001CBE9000138464146009600F01F
S3150200264023F8CBE9020107B0BDE8F08FF0B5A2FB93
S3150200265001CEA2FB0075A3FB011415EB0C05DDF8F8
S3150200266014C051EB0E06294644F100043246E3FB40
S315020026700012A3FB0003401956EB030044F10000CD
S31502002680CCE900203846F0BD10B5DDF808C0CCF123
S31502002690400ECEF1200420FA0CF003FA0EF322FAD1
S315020026A004F42343DCF1200458BF02FA04F302FACD
S315020026B00EF201FA04F440EA040058BF0022BCF10B
S315020026C0200458BF21FA04F021FA0CF158BF002168
S315020026D01043194310BDD4D4F0B581B040F2181698
S315020026E0EFF31184C2F20026002585F31288012039
S315020026F086F8680000F040F943F680404FF000414A
S31502002700CEF200009FED261A016044F2402184F3C6
S315020027101188C0F20F01306900EE100A88425FEAA2
S315020027202F9186F86910B8EE400A96F8691080EE85
S31502002730012A81EE000A00299FED1A1A44F6D351A6
S3150200274002FE000AC1F26201B6EE002AA0FB0101F6
S31502002750A0EE012A8809BDEEC20A86ED180A706645
S31502002760EFF3118785F31288356000F01DF8BFF389
S315020027704F8FBFF36F8F00BFBFF34F8FBFF36F8FC4
S31502002780044600F011F831682144401A306087F39C
S315020027901188C6E91455C6E9165501B0F0BD00BF49
S315020027A00024744900008047B0B543F27C0240F22F
S315020027B01813CEF20002C2F20023EFF3118C0020AE
S315020027C080F31288106893F86810012943F6C04115
S315020027D0CEF2000108D10968B1F1FF3F10DD0021F8
S315020027E025E000BF00BF00BFEFF3108E72B60C6883
S315020027F0B4F1FF3F08DD002117E000BF00BF00BFB4
S315020028001068012113E000BF4FF0004041F8400C70
S315020028100021EFF3118081F31288D3E914450135C3
S31502002820C3E9144580F3118810688EF31088D3E942
S3150200283014258018D3E916246941821A71EB040221
S3150200284006DAD3E916018CF31188B0BD00BF00BFCA
S31502002850C3E916018CF31188B0BDD4D4D4D4D4D430
S3150200286010B54EF63050CEF200000068800647D50D
S3150200287043F68040CEF20000016CB1F1FF3F07DD66
S31502002880D0F88011C9B202291AD239E000BF00BFBE
S3150200289040F2181C4FF00041C2F2002C0160EFF327
S315020028A01181002282F31288DCE914320132CCE96A
S315020028B0143281F31188D0F88011C9B202291FD3CC
S315020028C0026892070AD540F2881C0222C2F2002C44
S315020028D00260DCE900320132CCE9003204290FD36E
S315020028E0026812070AD540F2881C0822C2F2002C9E
S315020028F00260DCE902320132CCE90232062903D255
S3150200290010BD00BF00BF00BF026892060AD540F2A2
S31502002910881C2022C2F2002C0260DCE90432013259
S31502002920CCE90432062908BF10BD08294FF0010C74
S315020029305CEA3C9E40F28811C2F200210623F6466A
S3150200294001F1180208E000BF01330832BEF1010EA0
S3150200295002D1D5E700BF00BF0CFA03F1046C0C42AA
S31502002960F2D00160D2E9001411F5803144F100047D
S31502002970C2E90014E8E7D4D443F60040CEF20000E0
S31502002980D0F80012490458BF704770B543F6046286
S31502002990EFF3108CCEF2000272B64FF000431168CC
S315020029A021F00101116003620366116841F004011E
S315020029B01160C0F88030116841F002011160D0F850
S315020029C00012C9B2022954D34FF600044FF6040589
S315020029D0CFF6FF74CFF6FF754FF0080E042940F8C4
S315020029E004E04FF01E0444514FF00305C0F8805036
S315020029F04FF00206066405603BD34FF60805132620
S31502002A00CFF6FF75062946514FF60C05CFF6FF7530
S31502002A1044514FF00C04C0F88040C0F840E0046016
S31502002A2027D34FF610060325CFF6FF7606298551E2
S31502002A304FF61406CFF6FF764FF01E0585514FF07E
S31502002A403006C0F880604FF020050564066010D09D
S31502002A5008294FF0010151EA319E062400BF00BF4A
S31502002A6001FA04F50134C0F88050056405600FF0E0
S31502002A7009C84EF6FC51CEF200010E6846F0807689
S31502002A8046F444160E60036403601068002140F0A9
S31502002A900100106041F20000CEF2000001608CF3EA
S31502002AA0108870BDD4D4D4D4017904291AD140F245
S31502002AB0181C8068C2F2002CDCE901314A1C803AFB
S31502002AC052EA0192CCF808209A4240F29403C2F2EA
S31502002AD00023585418BF7047501C803850EA0290A1
S31502002AE0CCF804007047D4D440F28811C2F2002117
S31502002AF0CA6C1071C86C00BF816C8900FCD50020BD
S31502002B007047D4D4D4D4D4D42DE9F04182B040F263
S31502002B101817C2F20027D7E90150854205D100BF36
S31502002B2000BFD7E901508542FAD0A84210D940F237
S31502002B3094010138C2F20021B860495D8DF8071090
S31502002B409DF8070002B0BDE8F08100BF00BF00BFDC
S31502002B50401BC5F18004803040F29400C2F200208E
S31502002B600DF1070800EB0501404622465FEA0F9683
S31502002B70FDF79EFAA6420BD2A819B0F1800150EADF
S31502002B80118078609DF8070002B0BDE8F08100BFB1
S31502002B90361B40F2940108EB0400C2F200213246D1
S31502002BA0FDF786FA701978609DF8070002B0BDE855
S31502002BB0F081D4D4D4D4D4D4B0B544F6695072B624
S31502002BC04EF62855C0F20020CEF20005FDF76FFB47
S31502002BD06868002808D4686840000BD544F65B7024
S31502002BE0C0F2002004E000BF44F64840C0F20020D4
S31502002BF0FDF75DFB44F6E270EFF30884C0F20020B5
S31502002C00FDF755FB44F635602168C0F20020FDF75A
S31502002C1039FB44F698506168C0F20020FDF732FB9A
S31502002C2044F61740A168C0F20020FDF72BFB44F6DC
S31502002C30B170E168C0F20020FDF724FB44F6C8300B
S31502002C402169C0F20020FDF71DFB44F6347061696C
S31502002C50C0F20020FDF716FB44F65010A169C0F23F
S31502002C600020FDF70FFB44F65E10E169C0F200207A
S31502002C70FDF708FB44F62540C0F20020FDF717FBDE
S31502002C8044F6D6302968C0F20020FDF7FBFA44F676
S31502002C90F26055F8241CC0F20020FDF7F3FA44F660
S31502002CA069606968C0F20020FDF7ECFA44F66C1020
S31502002CB0C0F20020FDF7FBFA44F61B30EFF3058164
S31502002CC0C0F20020FDF7DEFA2868800118D42868D1
S31502002CD0C0011ED42868C00224D42868000349D43F
S31502002CE0286840034FD42868800355D42868C00357
S31502002CF05BD42868C00561D400BEB0BD00BF00BF6A
S31502002D0044F6A650C0F20020FDF7D1FA2868C001A9
S31502002D10E0D544F61360C0F20020FDF7C8FA286831
S31502002D20C002DAD544F6C940C0F20020FDF7BFFA68
S31502002D3044F644202146C0F20020FDF7A3FA44F6E9
S31502002D400670EFF30A81C0F20020FDF79BFA45F206
S31502002D500500EFF30981C0F20020FDF793FA44F66D
S31502002D60EA30EFF30B81C0F20020FDF78BFA2868F8
S31502002D700003B5D544F66640C0F20020FDF797FA87
S31502002D8028684003AFD544F65520C0F20020FDF76F
S31502002D908EFA28688003A9D544F68640C0F2002040
S31502002DA0FDF785FA2868C003A3D544F68A70C0F2F7
S31502002DB00020FDF77CFA2868C0059DD544F6B620AA
S31502002DC0C0F20020FDF773FA00BEB0BDD4D4D4D44D
S31502002DD088B040F294004EF2001643F2000B4CF615
S31502002DE0002841F2FF1A44F23F29C2F20020802154
S31502002DF0CEF20006C4F2200BC3F69A38C0F27A0A63
S31502002E00C0F20F09FDF72FFA40F2881540F2181C9E
S31502002E10C2F200250021284648F6001245F2703318
S31502002E20C2F2002C00F8281FC4F23502C0F20023B9
S31502002E30C0E90832827842F6A927CCF80410CCF809
S31502002E400810C0F20027C0E90A71016302F0FC0112
S31502002E50013181701021C6F880104CF20431C02372
S31502002E60BFF34F8FC4F200010227BFF36F8FCA6808
S31502002E70344622F48032CA60CA684EF20142CEF269
S31502002E800002D370CCF83000C6F88070BFF34F8FC3
S31502002E90BFF36F8F0F6827F480370F600F681370C8
S31502002EA0CCF824000427C6F88070BFF34F8FBFF317
S31502002EB06F8F4F6827F480374F604F685370CCF896
S31502002EC028000827C6F88070BFF34F8FBFF36F8FB5
S31502002ED08F6827F480378F6089689370CCF82C004E
S31502002EE00120EFF3108680F31088DBF8040020F44B
S31502002EF08000CBF80400DBF80400DCF810004DF685
S31502002F00836B5045C4F21B3B0AD94844A0FB0B0114
S31502002F10880C0001A0EB9140400040B90DE000BFD3
S31502002F20B8FBF0F047F23051B1FBF0F028B100F0F7
S31502002F30F7FD40F2181CC2F2002C86F310884FF4FB
S31502002F408061E86C002281604FF41241E86C4161B5
S31502002F5040F21001E86CC2F2002109680161E86CD6
S31502002F603021C1600021E86CC1F61F718261E86CF4
S31502002F70416240F20011E86CC0F201010163A96CE2
S31502002F80C5E90E22C5E91022CB692A635A7C6AB3C7
S31502002F904EF25403C4F201031F7807F00F07022F03
S31502002FA002D801260EE000BFFE1E052E08D245F20B
S31502002FB07867C0F2002757F8267005E000BF00BF09
S31502002FC0083F102606FA07F75B7840F26006C2F25F
S31502002FD0002603F00F0356F82330B3FBF7F3DCF8B1
S31502002FE010707A43B2FBF3F201322A6310234FF6D2
S31502002FF0FF72C9F60753AA8683664CF2003791F927
S315020030000510C4F200074A0901F01F0357F8210010
S3150200301020F4803047F8210057F8210004F5C070EB
S315020030200121BFF35F8F01FA03F340F8223044F81F
S315020030302230AA6C92F90B2057F8223023F48033FF
S3150200304047F8223057F82230530902F01F02BFF325
S315020030505F8F01FA02F240F8232044F82320AA6C7B
S3150200306092F9072057F8223023F4803347F82230AA
S3150200307057F82230530902F01F02BFF35F8F01FA9D
S3150200308002F240F8232044F82320AA6C92F9092080
S3150200309057F8223023F4803347F8223057F822308B
S315020030A0530902F01F02BFF35F8F914040F82310CD
S315020030B044F8231040F21141E86CC0F2010181602C
S315020030C0E86C00BF00BF00BF017FC907FCD044F611
S315020030D042104FF0000AC5F24330E862EFF311875F
S315020030E08AF3128828258CF868A0C4F24005664641
S315020030F0FFF742FC43F680404FF00041CEF200005B
S315020031009FEDDA1A016009F1010187F3118807912F
S31502003110306900EE100A88425FEA2F9186F869103C
S31502003120B8EE400A96F8691080EE012A81EE000A8E
S3150200313000299FEDCF1A44F6D35102FE000AC1F2CE
S315020031406201B6EE002AA0FB0101A0EE012A88095F
S31502003150BDEEC20A86ED180A7066EFF311888AF38D
S315020031601288C6F800A0FFF71FFBBFF34F8FBFF30D
S315020031706F8F00BFBFF34F8FBFF36F8F0746FFF707
S3150200318013FB31683944401A306088F31188C6E966
S3150200319014AA4FF48060C6E916AA286044F68F1076
S315020031A0C0F20020FDF783F844F6B960C0F20020B1
S315020031B0FDF77DF844F6F140C0F20020FDF777F8FE
S315020031C044F62A300321C0F2002004220426FDF729
S315020031D059F844F65830C0F20020FDF768F844F674
S315020031E0FB30C0F20020FDF762F80FF2A4500C216A
S315020031F0012390ED001F40F24000C2F20020021DA2
S3150200320021F001E000BF00BF21EE432FA2EC042F04
S3150200321021EE460F1FF009C040F2100A40F21816BE
S315020032200246C2F2002AC2F20026002142F8041B1C
S31502003230CAF80820CAF80C0045F2A8304CF200324F
S3150200324006F1380CC6E9111143F20001C0F2002062
S31502003250C4F2000240F20103C4F22001A2F50C52AC
S31502003260C0F200038CE80D000120EFF3108780F313
S3150200327010884CF600280868C3F69A3820F48000B5
S315020032800860086841F2FF11C0F27A01306988428B
S315020032900AD94844A0FB0B01880C0001A0EB91401F
S315020032A0400040B90DE000BFB8FBF0F047F23051E4
S315020032B0B1FBF0F028B100F033FC40F21816C2F26E
S315020032C000264EF200504CF20033CFF6FF70C4F2E5
S315020032D0000387F31088012119544EF21050CFF6DD
S315020032E0FF7000211954803BB06BD0F804B09BF8F4
S315020032F0002043F82210F26B11779BF80020BBF8EE
S315020033000A7043F822704FF0FF33F26B51774FF495
S315020033104071DAF804C04FF4404201EA1C51BAF88F
S31502003320120002EA1C4203EB9C7301EB020E022B13
S315020033304CF2C00110D840EA0047BAF810000590D6
S31502003340022B27F0FC200BD04FF4805303EA1C23F8
S315020033504EEA030E04E000BF4EF4005E0022059220
S3150200336040F2181201EA1C31C2F2002204910690C0
S31502003370136CBBF80A200292D3B15FEA8C214FF09C
S315020033801C0A4FEA9C7158BF4FF0100A9BF9017054
S3150200339002299BF8021088BF4FF0100A002F4FEA4D
S315020033A0011109D4E61986F800130DE000BF00BF2B
S315020033B04FF0000A30E000BF4EF6145607F00F0C2D
S315020033C0CEF200060CF8061040F218124CF200304B
S315020033D0C2F20022C4F2000002EB870102F13406B7
S315020033E001220E6250F8271021F4803140F827108E
S315020033F050F82710790907F01F07BFF35F8F04EB18
S315020034008106BA4040F21000C6F88021C2F20020BE
S3150200341044F82120D0F804C04FEA9C714DF683642B
S315020034200229C4F21B34CDF80CE011D940F2100087
S315020034300CF04061C2F20020B1F1806F078A468A21
S315020034401AD1DDF810E001974EF4005E19E000BFD4
S3150200345040F2181340F21000C2F2002300260021A7
S31502003460C2F20020DF6BDDF810E027E00024744989
S315020034700000804700BF00BFBBF80800DDF810E07F
S3150200348001900CF4402140F2100040F21813B1F5FD
S31502003490802F08BF0126C2F20020C2F2002306FBDB
S315020034A007F18268DF6B08BF4EF0200E019EC1EA6B
S315020034B001413A6246EA0646C2687A62029A002ADE
S315020034C0039A18BF42F00102BE62F962A7F814E03D
S315020034D03A8281683960C168DA6B44F6A13649F2EC
S315020034E000475160C0F20026D96B0698C7F23577BD
S315020034F08860D96B0598C860DBF80400886181F89A
S3150200350013A048F2804A44F24310C0F21E0A9B46B8
S31502003510C4F24D40586311E04CF60021C3F69A31CD
S31502003520B1FBF0F0B7FBF0F000F0FAFA40F2181B2C
S31502003530C2F2002BDBE90101884219D13046FCF7C1
S31502003540B6FE41F2FF11DBF81000C0F27A018842A2
S31502003550E2D94844A0FB0401880CA0FB0A0119B178
S315020035604FF0FF30E0E700BF0028DDD1E2E700BF01
S3150200357044F67120C0F20020FCF799FE44F20006E0
S315020035800020C2F200063070707044F68E20C0F23F
S315020035900020FCF78CFEBFF34F8FDBF83C000121C5
S315020035A05A4601771121BFF34F8FDBF83C00417772
S315020035B03078B8BBA34640F2E9374FF47A7A12E084
S315020035C04CF60021C3F69A31B1FBF0F00799B1FB34
S315020035D0F0F028B100F0A4FA40F21812C2F200226A
S315020035E0307801281ED0013F12D041F2FF11106936
S315020035F0C0F27A018842E3D94844A0FB0B01880C49
S3150200360000FB0AF00028E5D1EAE700BF00BF00BFD1
S3150200361044F6A540C0F20020FCF749FE40F218121B
S31502003620C2F20022D06B018AC768806886B244F66D
S315020036301770C0F20020FCF73AFE44F643603146AA
S31502003640C0F20020FCF71EFE44F6FD103946C0F219
S315020036500020FCF717FE44F6DD10C0F20020FCF74E
S3150200366026FE44F63650C0F20020FCF720FE44F651
S315020036701920C0F20020FCF705FE40F2400644F68F
S31502003680E94A0427C2F20026C0F2002A00BF00BFA0
S3150200369016F8011B5046FCF7F5FD013FF8D144F63A
S315020036A04220C0F20020FCF702FE40F24000002158
S315020036B0C2F2002000BF00BF0378027B9A420FD1FC
S315020036C0013101300429F7D144F6DD20C0F2002091
S315020036D0FCF7EDFD44F6C650C0F200200AE000BF3A
S315020036E044F67D60C0F20020FCF7CCFD44F6BF70C4
S315020036F0C0F2002046F200564AF22017C1F6CD5615
S31502003700C0F20707FCF7D3FD4FF4806A4FF0806BD7
S3150200371037E000BF00BF00BF41F2FF11C5F800A0AD
S31502003720C0F27A011069884206D94844A0FB040116
S31502003730880C784328B90AE0B8FBF0F0B6FBF0F043
S3150200374028B100F0EDF940F21812C2F2002241F25D
S31502003750FF11C5F800B0C0F27A011069884207D994
S315020037604844A0FB0401880C784340B9D4E700BF63
S31502003770B8FBF0F0B6FBF0F008B92FF033C800F052
S31502003780CFF940F21812C2F20022C5E700BF00BF0D
S31502003790000000000100000002000000030000001B
S315020037A0FFF716FBD4D4D4D4B0B584B04FF0704131
S315020037B0EFF3038001EB00604CF200328115C4F294
S315020037C0000240F21815C2F200258B5805EBA050F4
S315020037D023F480338B508958046A206A00690028D2
S315020037E0606905D010B304B0B0BD00BF00BF00BF12
S315020037F0E0B1A07800F003000228206908D1008811
S31502003800616A20F4DC40486005E000BF00BF00BFEB
S31502003810616A00780871A078226900F00301606984
S31502003820401A6061114421610028DCD1616A0222DA
S315020038308D68A06862F3155510B100F071F9616ADE
S315020038408D60A06A00284FF000002061CBD0E06AAC
S3150200385030B190E82E008DE82E0002E000BF00BFD6
S315020038606846216A09780160002181608021017120
S31502003870216BC160A16A8847E06A00281CBF9DE8E7
S315020038802E002EC004B0B0BD10B586B04FF0704108
S31502003890EFF3038001EB00604CF200328115C4F2B3
S315020038A0000240F21814C2F200248B5804EBA05016
S315020038B023F480338B508958046AA07800F00302FF
S315020038C0606A022A24D101686FF35F21E0690191DF
S315020038D018B3A06901A9FCF7EBFBA078D4E906129C
S315020038E000F003000144101AC4E9061040D1A06A90
S315020038F000283DD0E06A38B3D0E900C2D0E90231EF
S31502003900CDE90431CDE902C21FE000BF00BF00BF0E
S315020039100178E06901910028DBD1A06A40B3E06A30
S3150200392050B1D0E900CED0E90223CDE90423CDE996
S3150200393002CE02E000BF00BF02A8226A12788160AE
S315020039400260042107E000BF02A8216A097801602B
S315020039500021816001210171216BC160A16A884742
S31502003960E06A28B102AC1ECC016042608360C4608A
S3150200397006B010BDD4D4D4D4B0B584B04FF07041E3
S31502003980EFF3038001EB006040F21811C2F200214E
S315020039904FF6EF7301EBA051CFF6CF7304160D6A03
S315020039A0696A8A681A408A60A96AF9B1E86A58B1EE
S315020039B0D0E900C2D0E90231CDE90231CDE900C237
S315020039C003E000BF00BF00BF6846296A09780160AC
S315020039D00021816002210171296BC160A96A8847B1
S315020039E0E86A00281CBF9DE82E002EC04CF200306B
S315020039F0C4F2000050F8241021F4803140F824105B
S31502003A0050F8240004B0B0BD70B584B04FF07041D8
S31502003A10EFF3038001EB006040F21811C2F20021BD
S31502003A2001EBA0510C6AA178636A01F00301022935
S31502003A3006D1D3F800C06FF35F2C03E000BF00BFCE
S31502003A4093F800C09A6C2025082105EAD2454FF06A
S31502003A50100E01EA12611EEA126229440A4403D0D8
S31502003A60996C090458BF4032996E051641F0C85147
S31502003A709966A16AE9B1E06A50B1D0E900E3D0E9FA
S31502003A800216CDE90216CDE900E302E000BF00BF4F
S31502003A906846216A0978C0F808C001600271216B84
S31502003AA0C160A16A8847E06A00281CBF9DE84E00F3
S31502003AB04EC04CF20030C4F2000050F8251021F43A
S31502003AC0803140F8251050F8250004B070BDD4D4DA
S31502003AD010B582B04FF07041EFF3038001EB006046
S31502003AE04CF200328115C4F2000240F21814C2F2FE
S31502003AF000248B5804EBA05023F480338B50895852
S31502003B00046AE1686069019001A88847A068C068F4
S31502003B1020B1BFF34F8FA0680121017702B010BD1B
S31502003B2001380028FCD170474CF22010C4F2000084
S31502003B3050F8201C0268114040F8101C00BF00BF5C
S31502003B4002680A42FCD1704700F00AF8FFF728FE25
S31502003B5000BE7047D4D4D4D4D4D4D4D4D4D4D4D4F8
S31502003B602DE9F04F83B04EF6145840F20120CEF202
S31502003B700008C0F20E004EF2000BC8F80000CEF2AA
S31502003B80010BBFF34F8FBFF36F8F58F8141CC1F3AD
S31502003B90035001285FEA1F9211F00F0F5FEA0F919F
S31502003BA01142DBF8001013D1022811D241F00400B1
S31502003BB0CBF800004EF20800BFF34F8FCEF20000A2
S31502003BC0BFF36F8F016841F48031016004E000BFEA
S31502003BD021F00400CBF80000BFF34F8F4EF2FA3209
S31502003BE04FF47000BFF36F8FC8F8740040F2000004
S31502003BF0C4F20102C0F2002048F80C0C4AF202504C
S31502003C00CFF6FF7040F260090FF6245101301080A2
S31502003C10C2F200290FF6285091ED001F4EF2550A06
S31502003C2009F1200389ED001FC4F2010A48F200419E
S31502003C3090ED001F43F6000044F25532C1F69C4057
S31502003C4089ED041FC1F2D771C1F2DE3207C31AF839
S31502003C502F0C3AF8311C01F00F02A2F108010329D8
S31502003C6036D8DFE801F00529111D00BF00BF00BFED
S31502003C704AF6AB2159F82000CAF6AA21A0FB010197
S31502003C80480828E000BF00BF4AF6AB2159F82000D9
S31502003C90CAF6AA21A0FB0101C8081CE000BF00BFAA
S31502003CA04AF6AB2159F82000CAF6AA21A0FB010167
S31502003CB0080910E000BF00BF4AF6AB2159F8200000
S31502003CC0CAF6AA21A0FB0101880804E000BF00BFD2
S31502003CD059F82000D04040F218164EF60045C2F2BE
S31502003CE00026C4F201050A214EF64C4730614FF612
S31502003CF05060CFF6FF70C4F20107295409208AF8F2
S31502003D004D00287818B917F84B0C800737D0287859
S31502003D1088BB41F2FF1101202870C0F27A01306996
S31502003D20884211D944F23F21C0F20F0108444DF6F0
S31502003D308361C4F21B31A0FB0101880CC8214843F0
S31502003D4078B915E000BF00BF4CF60021C3F69A31E0
S31502003D50B1FBF0F040F64051C0F20301B1FBF0F0C6
S31502003D6030B1FFF7DDFE40F21816C2F2002600BFA0
S31502003D7028780128FCD1002007F84B0C2870002077
S31502003D800AF8230C00BF00BF1AF8190C0007FBD56E
S31502003D9042F602314FF60210CAF8730040F2415061
S31502003DA02AF8070C0020C0F201010AF80B0CCAF827
S31502003DB0571040F283412AF8091CBFF34F8FBFF315
S31502003DC06F8FD8F8001021F40031C8F80010C8F837
S31502003DD03C02BFF34F8FBFF36F8FDBF8000020F476
S31502003DE04050CBF80000BFF34F8FBFF36F8F1AF826
S31502003DF0410C00F0F80001300AF8410C00BF00BF88
S31502003E001AF8410CC006FBD4DBF8000040F440501F
S31502003E10CBF80000BFF34F8FBFF36F8FD8F80000C7
S31502003E20800314D4BFF34F8FBFF36F8F0020C8F8FF
S31502003E303C02BFF34F8FBFF36F8FD8F8000040F4F8
S31502003E400030C8F80000BFF34F8FBFF36F8F00201A
S31502003E500AF82B0C00BF00BF1AF8190C8006FBD516
S31502003E604CF200040020C4F213042070207820785B
S31502003E7020786068C82807D0C820C1F6006000BF55
S31502003E8060606168C829FBD1A068642808D06420F4
S31502003E90CEF2001000BF00BFA060A1686429FBD16A
S31502003EA049F69820C9F689004AF8350C48F680008A
S31502003EB02AF8310C05200AF82F0C1AF82F0C3AF8BA
S31502003EC0311C01F00F02A2F10801032934D8DFE800
S31502003ED001F003270F1B00BF4AF6AB2159F8200059
S31502003EE0CAF6AA21A0FB0101480828E000BF00BFCC
S31502003EF04AF6AB2159F82000CAF6AA21A0FB010115
S31502003F00C8081CE000BF00BF4AF6AB2159F82000E2
S31502003F10CAF6AA21A0FB0101080910E000BF00BFF2
S31502003F204AF6AB2159F82000CAF6AA21A0FB0101E4
S31502003F30880804E000BF00BF59F82000D04041F2D3
S31502003F40FF113061C0F27A01884211D944F23F2151
S31502003F50C0F20F0108444DF68361C4F21B31A0FB87
S31502003F600101880C0001A0EB9140400058B910E015
S31502003F704CF60021C3F69A31B1FBF0F047F230510C
S31502003F80B1FBF0F028B1FFF7CBFD40F21816C2F2F2
S31502003F90002660686FF39F20652801D301202070F8
S31502003FA01AF82F0C3AF8311C01F00F02A2F108019F
S31502003FB0032935D8DFE801F00428101C00BF00BF32
S31502003FC04AF6AB2159F82000CAF6AA21A0FB010144
S31502003FD0480828E000BF00BF4AF6AB2159F8200086
S31502003FE0CAF6AA21A0FB0101C8081CE000BF00BF57
S31502003FF04AF6AB2159F82000CAF6AA21A0FB010114
S31502004000080910E000BF00BF4AF6AB2159F82000AC
S31502004010CAF6AA21A0FB0101880804E000BF00BF7E
S3150200402059F82000D04042F200013061C4F200018A
S315020040304AF20250013808800120BFF35F8F0872EE
S315020040404FF42540BFF35F8F08809AF8850040F051
S3150200405040008AF8850000BF9AF98500B0F1FF3F5B
S31502004060FADC01208AF87F00C7208AF885009AF8D0
S31502004070850000F0BF008AF8850000BF00BF00BFC0
S315020040809AF985000028FBD401200AF8020C9AF856
S315020040901F0040F040008AF81F0000BF00BF00BFAB
S315020040A09AF91F00B0F1FF3FFADC07208AF81700E1
S315020040B048208AF81F0008208AF81F0000BF00BFA8
S315020040C09AF91F000028FBD49AF8000040F040003D
S315020040D08AF8000000BF00BF9AF90000B0F1FF3F66
S315020040E0FADC02200AF8010CC8208AF800009AF8C5
S315020040F0000000F0BF008AF8000000BF00BF00BF4A
S315020041009AF900000028FBD44EF2FA334FF4254008
S31502004110C4F201034AF202510022188019804FF6B6
S31502004120B061CFF6FF716A54188040F20000C2F205
S31502004130000080F30A88DBF80000800728D558F8CB
S315020041400C0CB0F1007F23D1DBF810004FF40071A4
S31502004150C0F3C300DBF8142001FA00F3C2F3C30074
S3150200416081400020DA08CB080146074642F005C026
S31502004170E7E802010FF005C04EF64C47C4F201070C
S315020041804FF0005243F005C0E2E802010FF005C00D
S3150200419045F2B4600B24C0F2002000F1040B5D4628
S315020041A006E000BF00BF00BF013C05F10C050FD0C1
S315020041B068790028F8D155E90101091AFCF753F884
S315020041C040F21816C2F20026EEE700BF00BF00BF9B
S315020041D045F23870C846C0F20020192400F10809D9
S315020041E04D4605E000BF00BF013C05F110050FD0AA
S315020041F068790028F8D155E902022968121AFBF7F4
S3150200420057FF40F21816C2F20026EDE700BF00BFC4
S315020042101AF82F0C3AF8311C01F00F02A2F108012C
S31502004220032939D841F2FF13C0F27A03DFE801F01D
S315020042300428101C00BF00BF4AF6AB2158F8200024
S31502004240CAF6AA21A0FB010148082CE000BF00BF64
S315020042504AF6AB2158F82000CAF6AA21A0FB0101B2
S31502004260C80820E000BF00BF4AF6AB2158F820007C
S31502004270CAF6AA21A0FB0101080914E000BF00BF8B
S315020042804AF6AB2158F82000CAF6AA21A0FB010182
S31502004290880808E000BF00BF58F8200041F2FF136B
S315020042A0D040C0F27A0342F224043061C4F2200400
S315020042B000204EF614582071CEF20008306998425A
S315020042C012D944F23F21C0F20F0108444DF6836130
S315020042D0C4F21B31A0FB0101880CC821484380B9F6
S315020042E015E000BF00BF00BF4CF60021C3F69A31AD
S315020042F0B1FBF0F040F64051C0F20301B1FBF0F021
S3150200430028B1FFF70DFC40F21816C2F20026002073
S31502004310207000BF00BF00BF207808B12FF005C093
S31502004320207840F00200207020788007FCD400201C
S3150200433004F8020C00BF00BF14F8020C08B12FF0FB
S3150200434005C84FF0030E002004F11C0500BF00BF94
S3150200435015F8101001F07F0105F8101000BF00BF1C
S3150200436015F910100029FBD401300FF00FC80121F6
S31502004370EFF3108081F31088F18A41B94EF2FA32D6
S315020043804AF20253C4F20102118819431180F18ADA
S315020043900131F18280F31088002038700121EFF399
S315020043A0108081F31088F18A11B1F18A0139F18204
S315020043B0F18A49B94EF2FA32C4F20102118841F485
S315020043C0254121F00201118080F310880121EFF3CB
S315020043D0108081F31088718B49B94EF2FA334AF292
S315020043E00252C4F201030E32198811431980718BED
S315020043F04FF00E0E0131718380F3108840F614508F
S31502004400C4F240001C30002120F8041B0FF005C046
S315020044100121EFF3108081F31088718B11B1718B3A
S3150200442001397183718B49B94EF2FA32C4F2010233
S31502004430118841F4254121F01001118080F3108882
S315020044400121EFF3108081F31088718B49B94EF286
S31502004450FA334AF20252C4F201030E3219881143A8
S315020044601980718B0131718380F3108844F2040044
S31502004470C4F220000021016041608160C160012117
S31502004480EFF3108081F31088718B11B1718B0139B2
S3150200449071830195718B49B94EF2FA32C4F2010267
S315020044A0118841F4254121F01001118080F3108812
S315020044B00B244FF4807503E0013C0BF10C0B0BD07F
S315020044C09BF80500B5EB002FF6D15BE90101091A4D
S315020044D0FBF7C9FEF0E700BF19244FF4807503E02D
S315020044E0013C09F110090FD099F80500B5EB002F30
S315020044F0F6D159E90202D9F80010121AFBF7D8FDD3
S31502004500EEE700BF00BF00BF40F2E414C2F200248F
S315020045102046FBF790FE2046FBF7A9FEBFF34F8F1E
S31502004520BFF36F8F0020C8F83C0245F6241045F60B
S315020045302811C0F20020C0F20021BFF34F8F081AE3
S31502004540BFF36F8F8410012C0BDB45F62415C0F2E6
S31502004550002500BF00BF00BF55F8040B8047013C91
S31502004560FAD140F2181341F2FF1500214FF0010A69
S31502004570C2F20023C0F27A0507E000BF00BF00BF07
S3150200458002990131592900F0E38045F2B03045F233
S315020045908C64C0F200204FF0000900EBC10BC0F2A0
S315020045A00024019E0291BBF8048007E000BF00BF11
S315020045B009F101090236B9F1030FE1D034F8020B11
S315020045C08045F5D1DBF800003A7800F0B8510AFAD6
S315020045D009F0B1F1807F00EA020109D100295BD01E
S315020045E096F90000002840F19280E1E700BF00BF83
S315020045F0B1B3EFF310818AF31088DA8A82B94EF2E8
S31502004600FA354AF20257C4F201052A883A434EF6AF
S315020046104C472A8041F2FF15C4F20107C0F27A051F
S31502004620DA8A0132DA8281F31088397821EA0000C7
S315020046303870EFF310808AF31088D98A11B1D98ABB
S315020046400139D982D98A49B94EF2FA32C4F2010243
S31502004650118841F4254121F00201118080F310886E
S3150200466096F90000B0F1FF3FA2DC307800F07F003F
S3150200467030701869A84251D84CF60021C3F69A3117
S31502004680B1FBF0F040F64051C0F20301B1FBF0F08D
S31502004690002854D18CE700BFEFF310818AF310880B
S315020046A0DA8A82B94EF2FA354AF20257C4F20105A3
S315020046B02A883A434EF64C472A8041F2FF15C4F245
S315020046C00107C0F27A05DA8A0132DA8281F31088AA
S315020046D0397808433870EFF310808AF31088D98A44
S315020046E011B1D98A0139D982D98A49B94EF2FA3237
S315020046F0C4F20102118841F4254121F00201118020
S3150200470080F3108896F9000000283FF551AF307803
S3150200471040F0800030701869A842ADD944F23F21BA
S31502004720C0F20F0108444DF68361C4F21B31A0FBAF
S315020047300101880CC821484300283FF439AFFFF72E
S31502004740EFF940F21813C2F2002331E700BF00BFAF
S315020047500121EFF3108081F31088D96839B940F648
S3150200476014520021C4F24002117040211170D9681E
S315020047704FF0590E0131D96080F3108845F2B031FD
S31502004780F64640F60000C0F20021C4F240000431B1
S315020047900EE000BF00BF00BF00EB8717083147F8E5
S315020047A02420BEF1010E03D11AE000BF00BF00BFF4
S315020047B00E8851F8042CD7034FEA1627F4B2EBD52C
S315020047C000EB871656F8245025F4803546F8245017
S315020047D022F4803546F82450DEE700BF00BF00BF52
S315020047E00121EFF3108081F310884EF61454D96834
S315020047F0CEF2000411B1D9680139D960D96839B944
S3150200480040F614520021C4F2400211708021117048
S3150200481080F310884FF0050E42F20000C4F2000049
S3150200482045F6C80100F52340C0F2002100BF00BFD3
S3150200483031F8022B40F8042B0FF007C0D4F8AC0075
S31502004840442161F30700C4F8AC00E06FC0F307200F
S3150200485040B345F294610022C0F2002100270431E0
S31502004860002300BF00BF00BF0D68202D13D351F8EF
S31502004870046C25F01F0526F01F06203DB5420AD31B
S31502004880013345F0010546F00106C4F88470C4F808
S315020048908860C4F88C50022A04D8DFB2013208318B
S315020048A0B842E1D8BFF35F8F0520C4F880002069C3
S315020048B040F480302061BFF34F8FBFF36F8F2068C3
S315020048C0C0032FD400202067BFF34F8FE16E43F65B
S315020048D0E073C1F34E30CA08C1F3C9014F1C9107F8
S315020048E0420100BF00BF00BF02EA030647F001E033
S315020048F00E4400BF00BF00BFC4F84C6206F140463A
S315020049000FF007C00028A0F10100A2F12002EBD1AE
S31502004910BFF34F8F206840F480302060BFF34F8F83
S31502004920BFF36F8F03B0BDE8F08F00BF00BF00BFBB
S31502004930006CDC0200127A000080000000366E0174
S31502004940008000000046C32300CA9A3BAA02E50F74
S3150200495050433A20203078253038580D0A005053FB
S31502004960523A203078253038580D0A003D3D3D3DFB
S315020049703D3D3D3D204F74686572205265676973FF
S31502004980746572203D3D3D3D3D3D3D3D0D0A000DA8
S315020049900A444D4120424C4F434B206D6F646520C3
S315020049A06578616D706C653A203320736F7572633A
S315020049B06520626C6F636B73202D3E203120646527
S315020049C07374696E6174696F6E2061726561202805
S315020049D04F7665727772697465292E0D000D0A5637
S315020049E06572696679696E67207472616E7366654F
S315020049F07220726573756C742E2E2E0D00626C6FAA
S31502004A00636B5F636F756E745F72656D61696E6904
S31502004A106E673A2025750D0A0044657374696E61E6
S31502004A2074696F6E20286166746572203320626C29
S31502004A306F636B73206F7665727772697465293A54
S31502004A4020000D004D53503A20202020307825308A
S31502004A5038580D0A00436865636B656420457272B7
S31502004A606F723A20496E76616C69642050430D0A72
S31502004A7000444D412072756E6E696E672C20706C13
S31502004A806561736520776169742E2E2E0D000D0AFD
S31502004A902D2D2D205374617274696E6720444D4129
S31502004AA020426C6F636B205472616E73666572206E
S31502004AB0202D2D2D0D00436865636B6564204572BC
S31502004AC0726F723A20496E737472756374696F6E8F
S31502004AD020427573204572726F720D0A0053554358
S31502004AE0434553533A20444D4120426C6F636B2039
S31502004AF05472616E7366657220284F76657277729C
S31502004B006974652920636F6D706C657465642063D2
S31502004B106F72726563746C792E0D00495053523A66
S31502004B20203078253038580D0A005472616E73664B
S31502004B30657220256420626C6F636B732C2065613D
S31502004B40636820626C6F636B206973202564206240
S31502004B50797465732E0D0A00536F75726365206151
S31502004B6064647265737320696E6372656D656E74D3
S31502004B70732E2044657374696E6174696F6E206169
S31502004B8064647265737320726573657473206166FB
S31502004B90746572206561636820626C6F636B2E0DAB
S31502004BA000496E70757420616E7920636861726166
S31502004BB06374657220746F20737461727420444D3D
S31502004BC04120746573740D005231323A20307825D3
S31502004BD03038580D0A005343422D3E435346523A4B
S31502004BE0203078253038580D0A005053504C494D24
S31502004BF03A203078253038580D0A00444D41206954
S31502004C006E697469616C697A696E672E2E2E2E2E14
S31502004C102E0D00696E660052323A20203078253019
S31502004C2038580D0A003D3D3D3D3D3D3D3D3D20533D
S31502004C304342205265676973746572203D3D3D3D6E
S31502004C403D3D3D3D3D0D0A00486172644661756C0D
S31502004C5074206F63637572726564206279204445BD
S31502004C604255470D0A00436865636B6564204572C9
S31502004C70726F723A204E6F20436F70726F63657364
S31502004C80736F720D0A00436865636B656420457233
S31502004C90726F723A20496E76616C69642053746150
S31502004CA074650D0A004572726F723A20444D4120B6
S31502004CB05472616E736665722054696D656F7574A0
S31502004CC020313030306D730D00436865636B656467
S31502004CD0204572726F723A20537461636B204F766D
S31502004CE06572666C6F770D0A00307825303258206F
S31502004CF00053657420444D413020746F20424C4F5E
S31502004D00434B206D6F64652E2044657374696E6132
S31502004D1074696F6E2069732073706563696669656D
S31502004D20642061732074686520426C6F636B204156
S31502004D307265612E0D00536F7572636520626C6F2A
S31502004D40636B733A205B312C322C332C345D2C206E
S31502004D505B352C362C372C385D2C205B392C3130C8
S31502004D602C31312C31325D0D003D3D3D3D3D3D3D09
S31502004D703D3D3D3D3D3D3D3D20496E2048617264CD
S31502004D804661756C74203D3D3D3D3D3D3D3D3D3D9D
S31502004D903D3D3D3D3D0D0A0052313A2020307825F9
S31502004DA03038580D0A00436865636B6564204572A6
S31502004DB0726F723A20446976696465204279205A94
S31502004DC065726F0D0A00202020202020202020441A
S31502004DD0657374696E6174696F6E20636F6E746158
S31502004DE0696E7320646174612066726F6D207468E7
S31502004DF065204C41535420736F7572636520626C53
S31502004E006F636B2028392C31302C31312C31322909
S31502004E102E0D00436865636B6564204572726F727E
S31502004E203A20556E616C69676E65642041636365FD
S31502004E3073730D0A0052303A2020307825303858E4
S31502004E400D0A007472616E736665725F6C656E67D9
S31502004E5074685F72656D61696E696E673A20257561
S31502004E602062797465730D0A005343422D3E48460B
S31502004E7053523A203078253038580D0A004461746E
S31502004E8061206D69736D6174636820617420646565
S31502004E9073745B25645D3A20657870656374656436
S31502004EA03D3078253032582C2061637475616C3D33
S31502004EB03078253032580D0A00436F6E6669677581
S31502004EC0726174696F6E206163636F7264696E6783
S31502004ED020746F204669677572652031372E34203B
S31502004EE0696E205241385432204D616E75616C2EC6
S31502004EF00D005343422D3E494353523A2030782502
S31502004F003038580D0A004D53504C494D3A203078EE
S31502004F10253038580D0A005B444D412053746174A4
S31502004F207573204166746572205472616E7366658C
S31502004F30725D0D004C523A20203078253038580DDB
S31502004F400A006E616E00444D412043616C6C6261E1
S31502004F50636B206F636375722E0D0048617264463F
S31502004F6061756C74206F6363757272656420627911
S31502004F70206F7468657220657863657074696F6EF8
S31502004F8020666F726365640D0A00436865636B652C
S31502004F9064204572726F723A20556E646566696E58
S31502004FA0656420496E737472756374696F6E0D0A57
S31502004FB00052333A20203078253038580D0A004501
S31502004FC072726F723A20444D41205472616E73665A
S31502004FD06572206661696C65640D00286E756C6C7D
S31502004FE029003D3D3D3D3D3D3D3D3D3D204D53501E
S31502004FF020537461636B20203D3D3D3D3D3D3D3D6B
S315020050003D3D0D0A005053503A202020203078258D
S315020050103038580D0A00D4D4000000000000000009
S315020050200000000000000010000000000000000068
S31502005030B9340332B7F4AD1410DB1AB30892540E26
S315020050400D307D951447BA1A66088F4D26ADC66D8A
S31502005050F598BF85E2B74511CA96853D92BD1DEB0F
S31502005060FCA11860DCEF52163C92AE220BB8C1B41A
S31502005070839D2D5B0562DA1C304C7E8F4E8BB25BB4
S3150200508016F4529F8B56A512FBD4827643ED8AF014
S315020050908FE7F9311565191850F19BD94A13EEB409
S315020050A0284CF0A686C1251F035FC270CB9E491607
S315020050B0E642889C44EB2014B0650836AD6EA585A1
S315020050C085F0CA14E2FD031A0B899979D5B13D0917
S315020050D0D8DA973A35EBCF10AC363F5E73BB38CF92
S315020050E03E6752FA44AFBA15010000000000000004
S315020050F0050000000000000019000000000000008A
S315020051007D000000000000007102000000000000A7
S31502005110350C000000000000093D00000000000000
S315020051202D31010000000000E1F50500000000003D
S3150200513065CD1D0000000000F90295000000000088
S31502005140DD0EE90200000000514A8D0E000000004B
S315020051509573C24800000000E941CC6B01000000D3
S315020051608D49FD1A07000000C16FF2862300000078
S31502005170C52EBCA2B1000000D9E9AC2D780300000F
S315020051803D9160E45811000031D6E275BC5600002C
S31502005190F52E6E4DAEB10100C9EA26836778080086
S315020051A0ED95C28F055A2A00A1EDCCCE1BC2D300C3
S315020051B025A4000A8BCA2204000000000000000099
S315020051C000000000000000000000004095596959E7
S315020051D05555545515555556040515411054554007
S315020051E045515544404550445055554500400040B0
S315020051F0400444966555565545404554514115401F
S31502005200559155555555405105010000D4D4D4D475
S315020052100100000000000000000000000000002065
S31502005220345065C05FC9A652BB13CBAEC440C21888
S3150200523006C8DF7100D5A87CF56F0FDA58FC271374
S315020052406E4756357D24206502C7E768E48CA41DA7
S31502005250E9E60268D7CD39617977FCC2405BEF1681
S31502005260798CDE43FFA751F991F3B278F5BDBE11F1
S31502005270E857E9D6E8BEE87BB054AC8F848D751B3F
S31502005280EA23A499E9F9D38BB7A3714061DA3E15F3
S31502005290CEE33ECB73F948088C97B427D51B701022
S315020052A0A2BFEFB9EB8532154DB44DB49BBB6F1956
S315020052B096B6076CF8E7EEAD36D9B4F59135AE136E
S315020052C0222218AF4E6A684D91DAAA3D4F40741EEB
S315020052D09FBD9EE006A1C09857C2A7FDA40E9017D7
S315020052E00E7D497173E3208FB220D87605143B12E6
S315020052F0853D7434811343B0AD297A5F27F4351C9A
S315020053005445545445550504001004101404400035
S3150200531000000140555515415404000044000100A7
S315020053200000004041000044504445505400555589
S31502005330545565510040004001000001000501007E
S315020053401154515154555505001541500000044061
S315020053501001040500000000000000220001000008
S31502005360100000220F00FFFF0000000101000000F4
S31502005370090200000C010C020C030C0400000000E0
S3150200538000000000A92A0002000000005C5300028F
S3150200539000000000010000000C00000001000000F7
S315020053A000000000000000001400002290530002DA
S315020053B00008011C000100000008011C0101000098
S315020053C00008011C030100000004011C0701000083
S315020053D01040000008010000040C00000A01000051
S315020053E0000C01150B010000000C010B0C01000062
S315020053F0000C010B0D010000000C010B0E01000058
S31502005400000C010B0F01000000400000000200002A
S315020054101040000001020000000001050802000021
S315020054200004010509020000000801000A0200004A
S31502005430000001000B020000000001000C02000047
S31502005440000001000D020000000001000E02000033
S31502005450000001000F020000000C010B0003000017
S31502005460000C010B01030000000C010B02030000FB
S3150200547010400000030300000000011307040000AF
S315020054800004011308040000400401070904000097
S31502005490400401070A040000000C010B030500008A
S315020054A0000C010B04050000000C010B05050000B1
S315020054B0000C010B06050000000C010B070500009D
S315020054C0000C010B08050000000C010B0905000089
S315020054D0000C010B0A050000040400000606000089
S315020054E0000C010B07060000000C010B0806000069
S315020054F0000C010B09060000000C010B0A06000055
