:020000040200F8
:1000000020040122D1AA000261A80002518F00023F
:10001000E1AA0002E1AA0002E1AA0002E1AA0002AC
:10002000000000000000000000000000E1AA000243
:100030005187000200000000E1AA0002E1AA0002CC
:10004000899B0002B99A0002619C0002E99C0002AF
:100050000000030001930002219300020000000051
:040060004009000053
:0800680001000000000000008F
:100070000146002008F0E4BC83B010B581B084468E
:1000800003A840F25044C2F202240EC003AB4FF466
:1000900080712046624600930CF0F5FB002021465B
:1000A00008F0CEFC4EF2BF110020C0F2002108F093
:1000B000C7FC01B0BDE8104003B07047D4D4D4D41D
:1000C00010B54EF62B010020C0F2002108F0B8FC5C
:1000D0004EF2BF140020C0F20024214608F0B0FC0C
:1000E0004EF6E2210020C0F2002108F0A9FC002019
:1000F0002146BDE8104008F0A3BCD4D4D4D4D4D455
:100100002DE9F04F81B02DED088B82B04FF6FE71D6
:1001100083466FF0E040CFF2FF715844884204D824
:100120004EF23E70C0F20020F1E04EF61450CEF2D6
:1001300000000168C90304D44DF65010C0F200203D
:1001400032E000210167BFF34F8F016843F6E0778B
:1001500021F480310160BFF34F8FC26EC2F34E3184
:10016000D308C2F3C902561C9A074B0100BF00BF57
:1001700003EA070546F001E0154400BF00BF00BFD9
:10018000C0F8605205F140450FF007C00029A1F109
:100190000101A3F12003EBD1BFF34F8FBFF36F8FAA
:1001A0004EF65F20C0F2002009F026F801200090F2
:1001B000202000BF00BF00BF0099CBF80010BFF3A4
:1001C0004F8FBFF36F8FDBF8001001910199009AF8
:1001D0009142009A40F08C8001384FEA4201009130
:1001E000EAD14EF2C210C0F2002009F005F84FF03B
:1001F000D0410FF2EC404FF05A320A6040F2000159
:1002000090ED001F1620C2F2000180EF5120042261
:1002100020F001E000BF00BF20FF4244A1EC045FDA
:1002200021EE420F1FF009C04FF0160E40F20008F9
:10023000C2F200084FF0D0404FF05A31424600BFA2
:1002400052F8043B19500FF005C8BFF34F8FBFF3AE
:100250006F8F00214FF0D0434FF0A53E4FF05A3C36
:10026000002607E000BF00BF01360139162EC2F894
:1002700000C079D058F8260000F1D04240F803E0E1
:10028000BFF34F8FBFF36F8FC558B5F1A53F47D16F
:100290001D68B5F15A3F55D10027404605E000BF23
:1002A000013F043017F11604DED0B942F8D00468DB
:1002B000E558B5F15A3FF3D004F1D0434EF2D36480
:1002C0004DF25470C0F20024C0F2002021460BF021
:1002D0005DF94EF26D70C0F200204FF05A322146A7
:1002E0002B460BF053F94DF63E00C0F200200EE015
:1002F0004EF28E304EF66F21019BC0F20020C0F20C
:1003000000210BF043F94DF6CC30C0F2002008F08C
:1003100073FF012002B0BDEC088B01B0BDE8F08F87
:100320004EF2D3644DF65F50C0F20024C0F20020BC
:1003300021460BF02BF94EF21D604FF0A532C0F2B2
:100340000020CCE74EF2D3644EF29640C0F2002477
:10035000C0F200204FF0D04321460BF017F94EF2C7
:100360009220C0F20020B8E745F200094DF6765021
:10037000C6F655094AF20008C0F200204946C6F602
:10038000AA080BF003F94EF6E7204146C0F2002020
:100390000BF0FCF8D6A080EF53204FF0000C4FF488
:1003A000807A90ED001F042185EF5A4E82FF556E32
:1003B0004AF001E04846424620EF508100BF00BFAE
:1003C00008EF52A12BFE4F0F37FE05AFA0EC10BE79
:1003D00035FE07AFA2EC10BE29EE418F0FF011C021
:1003E000BFF34F8FBFF36F8F00254E4640464A46FE
:1003F000434608E001350433B5F5806F02F104028D
:1004000000F1040013D0AF0756F8047B07D0B7F112
:100410005A3F33D10768B7F1A53FEBD037E0B7F1CA
:10042000A53F2BD10768B7F15A3FE3D044E0BFF3B3
:100430004F8FBFF36F8F0CF1010CBCF57A7FB7D1F2
:100440004EF25670C0F2002008F0D6FE0020CBF825
:100450000000CBF80400CBF80800CBF80C004FF0FC
:10046000A531BFF34F8FBFF36F8FCBF800105A2128
:10047000BFF34F8FBFF36F8FA52232E04DF65F5071
:100480004EF2D361C0F20020C0F2002108E04DF628
:100490005F504EF2D361C0F20020C0F200211A4634
:1004A0000BF074F84EF200104FF0A531C0F20020AE
:1004B0003A460BF06BF816E74DF65F504EF2D361FB
:1004C000C0F20020C0F200211A460BF05FF84EF295
:1004D00000104FF05A31E9E70BF8002001300428F2
:1004E00038D01BF80050A52D32D1BFF34F8FBFF38A
:1004F0006F8F0BF800100023BFF34F8FBFF36F8F88
:100500005F4603E001330137042BE5D09842F9D070
:100510003D78A52DF6D05A2618464EF2D61400EB9B
:100520000B024DF65F50C0F20024C0F200202146BD
:100530000BF02CF84EF21B102146C0F20020324680
:100540002B460BF023F84EF63000C0F20020DEE61A
:10055000A526E2E74EF6D7304AF2A456C0F20020B4
:10056000CAF2A55608F048FE4FF0D0404FF0807117
:10057000FF224FF0D0440AF0ABFEBFF34F8FBFF322
:100580006F8F0020002109B1802910D2082242F08B
:1005900001E04FF0FF3252000FF003C832400A432F
:1005A00044F821200131B1F5800FECD110E0B0EB1F
:1005B000D13FB1FA81F203D1182A01D01022E6E727
:1005C000A2F10903C2F12002072B38BF1822DEE78F
:1005D00000214FF0D042002008B1802813D2082318
:1005E00043F001E04FF0FF335B000FF003C83340EE
:1005F00052F8204043EA0005AC4215D10130B0F575
:10060000800FE9D12BE0B1EBD03FB0FA80F303D1FA
:10061000182B01D01023E3E7A3F10907C3F120034E
:10062000072F38BF1823DBE74FF0D04101EB8002E2
:100630004DF65F504EF69D51C0F20020C0F20021F1
:100640000AF0A4FF4EF200102946C0F20020224614
:100650000AF09CFF4DF6DA70C0F2002057E64DF626
:100660008040C0F2002008F0C7FD00F049F820B13A
:100670004EF2B730C0F2002049E64EF26330C0F2CD
:10068000002008F0B9FD00F0DBF820B14EF6EA30AA
:10069000C0F200203BE64DF60C60C0F2002008F0EE
:1006A000ABFD00F015F920B14EF64500C0F2002078
:1006B0002DE64EF2BB60C0F2002008F09DFD00F078
:1006C0005BF94FF496704FF47A710AF085F804F0F4
:1006D00047F800201EE600BF00BF00BF00BF00BFFC
:1006E00002000000030000000400000005000000FC
:1006F00000000000010000000200000003000000F4
:100700002DE9F04F81B02DED048B82B048A040F26E
:10071000000A4FF0000B4FF0D04990ED009F4FF4CE
:100720008050C2F2000A04244FF0D04640F001E0AD
:100730004FEA8B30514628EF580100BF00BF00BF81
:1007400021EE402FA1EC103E21EE440F0FF009C026
:100750004FF48032304651460AF0C4FD06F5803031
:100760004FF48041D0464D46D8F800203768974274
:1007700012D10436013905F1040508F10408F3D15A
:100780000BF1010B09F58039BBF5807F06464FF46C
:100790008050CBD1002044E04DF695444DF63660B4
:1007A000C0F20024C0F2002021462A460AF0EEFEE4
:1007B0004EF21B10D8F80020C0F2002021463B4624
:1007C0000AF0E4FE01200090202000BF00BF00BF1F
:1007D00000992960BFF34F8FBFF36F8F2968019194
:1007E0000199009A9142009A0FD101384FEA4201D3
:1007F0000091EDD14EF6FF204DF69541C0F200205C
:10080000C0F200210AF0C2FE0AE04EF28E304EF62F
:100810006F21019BC0F20020C0F200210AF0B6FE59
:10082000012002B0BDEC048B01B0BDE8F08F00BF29
:1008300000000000010000000200000003000000B2
:100840002DE9F0472A200AF065FE40F200084FF03B
:1008500000094FF0D04AC2F200084FF0D0464FF0E6
:10086000D0474FF4804445460AF02DFE013C45F840
:10087000040B47F8040BF7D106F580304FF48041A4
:100880004346524600BF00BF53F8045B3468AC4295
:1008900010D1013906F1040602F10402F4D109F184
:1008A00001090AF5803AB9F5807F0646D9D10020C2
:1008B000BDE8F0874EF283504EF67C21C0F2002056
:1008C000C0F200210AF062FE0120BDE8F087D4D416
:1008D00070B540F2E5700AF01DFE40F2000540F2EE
:1008E00000064FF48044C6F60105C2F2000600BFC0
:1008F0000AF0E9FD013C46F8040B45F8040BF7D17A
:10090000BFF34F8FBFF36F8F0AF0AEF844F2402170
:100910000220C0F20F0109F05FFF0AF0B9F840F2BF
:10092000000540F200044FF48040C2F20005C6F614
:10093000010400BF00BF00BF296822688A4207D1B6
:10094000013805F1040504F10404F5D1002070BD5F
:100950004DF656202146C0F200200AF017FE4DF653
:10096000672029682268C0F200200AF00FFE0120EB
:1009700070BDD4D4D4D4D4D42DE9F04F81B02DEDB2
:10098000028B8AB040F200016FF0E040C6F6010130
:100990000A184FF6FE71CFF2FF718A4208D84DF661
:1009A000E23040F20001C0F20020C6F601010EE084
:1009B00040F20002C6F60002104488420FD84DF201
:1009C000767040F20001C0F20020C6F600010AB0C5
:1009D000BDEC028B01B0BDE8F04F0AF0D7BD472057
:1009E0000AF098FD40F200054FF48044C2F2000581
:1009F0000AF069FD013C45F8040BF9D140F22045AD
:100A00004FF48044C2F201250AF05DFD013C45F837
:100A1000040BF9D140F220054FF48044C2F20025C6
:100A20000AF051FD013C45F8040BF9D14EF20009E2
:100A3000CEF20109D9F8000020F00400C9F8000046
:100A4000BFF34F8FBFF36F8FD9F80000019001986B
:100A5000400700F1A3804EF68054CEF2000454F813
:100A60006C0CC00330D400206060BFF34F8F21684E
:100A700043F6E073C1F34E30CA08C1F3C9014F1CFD
:100A80009107420100BF00BF02EA030647F001E000
:100A90000E4400BF00BF00BFC4F8E06106F140464D
:100AA0000FF007C00028A0F10100A2F12002EBD155
:100AB000BFF34F8F54F86C0C40F4803044F86C0C4A
:100AC000BFF34F8FBFF36F8F4DF6FA40C0F2002097
:100AD00008F092FB00206060BFF34F8F216843F65F
:100AE000E073C1F34E30CA08C1F3C9014F1C91072E
:100AF000420100BF00BF00BF02EA030647F001E069
:100B00000E4400BF00BF00BFC4F8E06106F14046DC
:100B10000FF007C00028A0F10100A2F12002EBD1E4
:100B2000BFF34F8FBFF36F8F07F02AFD0DF1100851
:100B3000C8E9000107F024FD07F0EEFD0DF1200BE0
:100B40004FF4803ECBE9000140F2000040F200018A
:100B5000C6F60100C2F2000111F8012B00F8012BCA
:100B60000FF007C007F00CFD0DF1080ACAE90001FB
:100B700007F006FD07F0D0FD06ADC5E90001DBE991
:100B80000001D5E900235940504008430CD14EF6EE
:100B90005F00C0F2002008F02FFB47E04DF6084050
:100BA000C0F2002003F084BDD5E90001DBE9002399
:100BB000801A99410AF08AF900EE100A9FED981AFE
:100BC00081EE000A9FED971A4EF2422020EE010AB4
:100BD0009FED951AC0F2002020EE010A20EE018A56
:100BE0000AF0D4FCDAE90001D8E90023821A4EF2B7
:100BF000DF1061EB0303C0F200200AF0C7FCD5E967
:100C00000001DBE90023821A4DF61A5061EB030361
:100C1000C0F200200AF0BAFCB7EEC80A4EF29B50B0
:100C2000C0F2002053EC102B0AF0B0FC00206060F2
:100C3000BFF34F8F216843F6E073C1F34E30CA080B
:100C4000C1F3C9014F1C9107420100BF00BF00BFA3
:100C500002EA030647F001E00E4400BF00BF00BFF8
:100C6000C4F8E06106F140460FF007C00028A0F18B
:100C70000100A2F12002EBD1BFF34F8FBFF36F8FC2
:100C800007F07EFC07F048FDCBE9000107F078FC97
:100C9000C8E900014FF4004E40F2000040F20001AC
:100CA000C6F60100C2F2000131F8022B20F8022B37
:100CB0000FF007C007F064FCCAE9000107F060FC10
:100CC00007F02AFDC5E90001DBE90001D5E90023B1
:100CD00059405040084306D14EF65F00C0F2002054
:100CE00008F08AFA41E0D5E90001DBE90023801A27
:100CF00099410AF0EBF800EE100A9FED491A81EED7
:100D0000000A9FED481A4DF6073020EE010A9FEDCC
:100D1000461AC0F2002020EE010A20EE018A0AF0F5
:100D200035FCDAE90001D8E90023821A4EF2DF101F
:100D300061EB0303C0F200200AF028FCD5E90001B2
:100D4000DBE90023821A4DF61A5061EB0303C0F26F
:100D500000200AF01BFCB7EEC80A4EF29B50C0F20E
:100D6000002053EC102B0AF011FC00206060BFF350
:100D70004F8F216843F6E073C1F34E30CA08C1F3C8
:100D8000C9014F1C9107420102EA030647F001E046
:100D90000E4400BF00BF00BFC4F8E06106F140464A
:100DA0000FF007C00028A0F10100A2F12002EBD152
:100DB000BFF34F8FBFF36F8F07F0E2FB07F0ACFC80
:100DC000CBE9000107F0DCFBC8E900014FF4804EDD
:100DD00040F2000040F20001C6F60100C2F200013C
:100DE00051F8042B40F8042B0FF007C007F0C8FBA4
:100DF000CAE9000107F0C4FB07F08EFCC5E9000159
:100E0000DBE90001D5E900235940504008430DD1EA
:100E10004EF65F00C0F2002008F0EEF948E000BF97
:100E200000008047002474490000803AD5E90001A1
:100E3000DBE90023801A99410AF048F800EE100A15
:100E40001FED091A81EE000A1FED0A1A4EF67830DE
:100E500020EE010A1FED0C1AC0F2002020EE010A5C
:100E600020EE018A0AF092FBDAE90001D8E90023BA
:100E7000821A4EF2DF1061EB0303C0F200200AF089
:100E800085FBD5E90001DBE90023821A4DF61A50F3
:100E900061EB0303C0F200200AF078FBB7EEC80A4A
:100EA0004EF29B50C0F2002053EC102B0AF06EFB68
:100EB00000206060BFF34F8F216843F6E073C1F3F9
:100EC0004E30CA08C1F3C9014F1C9107420100BF4F
:100ED00002EA030647F001E00E4400BF00BF00BF76
:100EE000C4F8E06106F140460FF007C00028A0F109
:100EF0000100A2F12002EBD1BFF34F8FBFF36F8F40
:100F000007F03EFB07F008FCCBE9000107F038FBD7
:100F1000C8E900014FF4005E40F2000040F2000119
:100F2000C6F60100C2F20001F1E80223E0E8022364
:100F30000FF007C007F024FBCAE9000107F020FB0F
:100F400007F0EAFBC5E90001DBE90001D5E9002370
:100F500059405040084306D14EF65F00C0F20020D1
:100F600008F04AF941E0D5E90001DBE90023801AE5
:100F7000994109F0ABFF00EE100A1FED571A81EE00
:100F8000000A1FED581A4EF2BB2020EE010A1FED99
:100F90005A1AC0F2002020EE010A20EE018A0AF05F
:100FA000F5FADAE90001D8E90023821A4EF2DF10DF
:100FB00061EB0303C0F200200AF0E8FAD5E9000172
:100FC000DBE90023821A4DF61A5061EB0303C0F2ED
:100FD00000200AF0DBFAB7EEC80A4EF29B50C0F2CE
:100FE000002053EC102B0AF0D1FA00206060BFF310
:100FF0004F8F216843F6E073C1F34E30CA08C1F346
:10100000C9014F1C9107420102EA030647F001E0C3
:101010000E4400BF00BF00BFC4F8E06106F14046C7
:101020000FF007C00028A0F10100A2F12002EBD1CF
:10103000BFF34F8FBFF36F8F07F0A2FA07F06CFB7F
:10104000CBE9000107F09CFAC8E900014FF4803EAB
:1010500040F2000040F20001C6F60000C2F20001BA
:1010600011F8012B00F8012B0FF007C007F088FAE8
:10107000CAE9000107F084FA07F04EFBC5E9000158
:10108000DBE90001D5E9002359405040084306D16F
:101090004EF65F00C0F2002008F0AEF841E0D5E95E
:1010A0000001DBE90023801A994109F00FFF00EEEF
:1010B000100A1FEDA51A81EE000A1FEDA61A4EF2C6
:1010C0008E7020EE010A1FEDA81AC0F2002020EE5B
:1010D000010A20EE018A0AF059FADAE90001D8E99A
:1010E0000023821A4EF2DF1061EB0303C0F20020EE
:1010F0000AF04CFAD5E90001DBE90023821A4DF62B
:101100001A5061EB0303C0F200200AF03FFAB7EE79
:10111000C80A4EF29B50C0F2002053EC102B0AF08C
:1011200035FA00206060BFF34F8F216843F6E0730B
:10113000C1F34E30CA08C1F3C9014F1C91074201E7
:1011400002EA030647F001E00E4400BF00BF00BF03
:10115000C4F8E06106F140460FF007C00028A0F196
:101160000100A2F12002EBD1BFF34F8FBFF36F8FCD
:1011700007F006FA07F0D0FACBE9000107F000FA11
:10118000C8E900014FF4004E40F2000040F20001B7
:10119000C6F60000C2F2000131F8022B20F8022B43
:1011A0000FF007C007F0ECF9CAE9000107F0E8F911
:1011B00007F0B2FAC5E90001DBE90001D5E9002337
:1011C00059405040084306D14EF65F00C0F200205F
:1011D00008F012F841E0D5E90001DBE90023801AAC
:1011E000994109F073FE00EE100A9FED971A81EE07
:1011F000000A9FED961A4EF6D40020EE010A9FEDEC
:10120000941AC0F2002020EE010A20EE018A0AF0B2
:10121000BDF9DAE90001D8E90023821A4EF2DF10A5
:1012200061EB0303C0F200200AF0B0F9D5E9000138
:10123000DBE90023821A4DF61A5061EB0303C0F27A
:1012400000200AF0A3F9B7EEC80A4EF29B50C0F294
:10125000002053EC102B0AF099F900206060BFF3D6
:101260004F8F216843F6E073C1F34E30CA08C1F3D3
:10127000C9014F1C9107420102EA030647F001E051
:101280000E4400BF00BF00BFC4F8E06106F1404655
:101290000FF007C00028A0F10100A2F12002EBD15D
:1012A000BFF34F8FBFF36F8F07F06AF907F034FA7F
:1012B000CBE9000107F064F9C8E900014FF4804E62
:1012C00040F2000040F20001C6F60000C2F2000148
:1012D00051F8042B40F8042B0FF007C007F050F929
:1012E000CAE9000107F04CF907F016FAC5E9000158
:1012F000DBE90001D5E9002359405040084306D1FD
:101300004EF65F00C0F2002007F076FF41E0D5E91D
:101310000001DBE90023801A994109F0D7FD00EEB6
:10132000100A9FED491A81EE000A9FED481A4DF60A
:10133000AA4020EE010A9FED461AC0F2002020EEDE
:10134000010A20EE018A0AF021F9DAE90001D8E960
:101350000023821A4EF2DF1061EB0303C0F200207B
:101360000AF014F9D5E90001DBE90023821A4DF6F1
:101370001A5061EB0303C0F200200AF007F9B7EE40
:10138000C80A4EF29B50C0F2002053EC102B0AF01A
:10139000FDF800206060BFF34F8F216843F6E073D3
:1013A000C1F34E30CA08C1F3C9014F1C9107420175
:1013B00002EA030647F001E00E4400BF00BF00BF91
:1013C000C4F8E06106F140460FF007C00028A0F124
:1013D0000100A2F12002EBD1BFF34F8FBFF36F8F5B
:1013E00007F0CEF807F098F9CBE9000107F0C8F84C
:1013F000C8E900014FF4005E40F2000040F2000135
:10140000C6F60000C2F20001F1E80223E0E8022380
:101410000FF007C007F0B4F8CAE9000107F0B0F810
:1014200007F07AF9C5E90001DBE90001D5E90023FD
:101430005940504008430DD14EF65F00C0F20020E5
:1014400007F0DAFE48E000BF00008047002474493E
:101450000000803AD5E90001DBE90023801A9941B8
:1014600009F034FD00EE100A1FED091A81EE000AA2
:101470001FED0A1A4EF69E1020EE010A1FED0C1AFF
:10148000C0F2002020EE010A20EE018A0AF07EF868
:10149000DAE90001D8E90023821A4EF2DF1061EB8D
:1014A0000303C0F200200AF071F8D5E90001DBE97E
:1014B0000023821A4DF61A5061EB0303C0F200209C
:1014C0000AF064F8B7EEC80A4EF29B50C0F2002052
:1014D00053EC102B0AF05AF800206060BFF34F8FD6
:1014E000216843F6E073C1F34E30CA08C1F3C90165
:1014F0004F1C9107420100BF02EA030647F001E0DA
:101500000E4400BF00BF00BFC4F8E06106F14046D2
:101510000FF007C00028A0F10100A2F12002EBD1DA
:10152000BFF34F8FBFF36F8F07F02AF807F0F4F87F
:10153000CBE9000107F024F8C8E900014FF4803E30
:1015400040F2000040F22041C6F60100C2F2012143
:1015500011F8012B00F8012B0FF007C007F010F86D
:10156000CAE9000107F00CF807F0D6F8C5E9000158
:10157000DBE90001D5E9002359405040084306D17A
:101580004EF65F00C0F2002007F036FE41E0D5E9DC
:101590000001DBE90023801A994109F097FC00EE75
:1015A000100A1FED571A81EE000A1FED581A4EF669
:1015B000B44020EE010A1FED5A1AC0F2002020EEBE
:1015C000010A20EE018A09F0E1FFDAE90001D8E919
:1015D0000023821A4EF2DF1061EB0303C0F20020F9
:1015E00009F0D4FFD5E90001DBE90023821A4DF6AA
:1015F0001A5061EB0303C0F2002009F0C7FFB7EEF9
:10160000C80A4EF29B50C0F2002053EC102B09F098
:10161000BDFF00206060BFF34F8F216843F6E07389
:10162000C1F34E30CA08C1F3C9014F1C91074201F2
:1016300002EA030647F001E00E4400BF00BF00BF0E
:10164000C4F8E06106F140460FF007C00028A0F1A1
:101650000100A2F12002EBD1BFF34F8FBFF36F8FD8
:1016600006F08EFF07F058F8CBE9000106F088FF7E
:10167000C8E900014FF4004E40F2000040F2204162
:10168000C6F60100C2F2012131F8022B20F8022B2C
:101690000FF007C006F074FFCAE9000106F070FF02
:1016A00007F03AF8C5E90001DBE90001D5E90023BC
:1016B00059405040084306D14EF65F00C0F200206A
:1016C00007F09AFD41E0D5E90001DBE90023801A2B
:1016D000994109F0FBFB00EE100A1FEDA51A81EEFF
:1016E000000A1FEDA61A4DF63A7020EE010A1FED12
:1016F000A81AC0F2002020EE010A20EE018A09F0AB
:1017000045FFDAE90001D8E90023821A4EF2DF1022
:1017100061EB0303C0F2002009F038FFD5E90001B6
:10172000DBE90023821A4DF61A5061EB0303C0F285
:10173000002009F02BFFB7EEC80A4EF29B50C0F212
:10174000002053EC102B09F021FF00206060BFF354
:101750004F8F216843F6E073C1F34E30CA08C1F3DE
:10176000C9014F1C9107420102EA030647F001E05C
:101770000E4400BF00BF00BFC4F8E06106F1404660
:101780000FF007C00028A0F10100A2F12002EBD168
:10179000BFF34F8FBFF36F8F06F0F2FE06F0BCFF72
:1017A000CBE9000106F0ECFEC8E900014FF4804EE1
:1017B00040F2000040F22041C6F60100C2F20121D1
:1017C00051F8042B40F8042B0FF007C006F0D8FEA8
:1017D000CAE9000106F0D4FE06F09EFFC5E900014B
:1017E000DBE90001D5E9002359405040084306D108
:1017F0004EF65F00C0F2002007F0FEFC41E0D5E9A4
:101800000001DBE90023801A994109F05FFB00EE3B
:10181000100A9FED971A81EE000A9FED961A4EF678
:10182000045020EE010A9FED941AC0F2002020EE31
:10183000010A20EE018A09F0A9FEDAE90001D8E9DF
:101840000023821A4EF2DF1061EB0303C0F2002086
:1018500009F09CFED5E90001DBE90023821A4DF670
:101860001A5061EB0303C0F2002009F08FFEB7EEBF
:10187000C80A4EF29B50C0F2002053EC102B09F026
:1018800085FE00206060BFF34F8F216843F6E07350
:10189000C1F34E30CA08C1F3C9014F1C9107420180
:1018A00002EA030647F001E00E4400BF00BF00BF9C
:1018B000C4F8E06106F140460FF007C00028A0F12F
:1018C0000100A2F12002EBD1BFF34F8FBFF36F8F66
:1018D00006F056FE06F020FFCBE9000106F050FEB0
:1018E000C8E900014FF4005E40F2000040F22041E0
:1018F000C6F60100C2F20121F1E80223E0E802236A
:101900000FF007C006F03CFECAE9000106F038FE01
:1019100006F002FFC5E90001DBE90001D5E900237B
:1019200059405040084306D14EF65F00C0F20020F7
:1019300007F062FC41E0D5E90001DBE90023801AF1
:10194000994109F0C3FA00EE100A9FED491A81EEA1
:10195000000A9FED481A4DF69B6020EE010A9FEDAC
:10196000461AC0F2002020EE010A20EE018A09F09A
:101970000DFEDAE90001D8E90023821A4EF2DF10E9
:1019800061EB0303C0F2002009F000FED5E900017D
:10199000DBE90023821A4DF61A5061EB0303C0F213
:1019A000002009F0F3FDB7EEC80A4EF29B50C0F2DA
:1019B000002053EC102B09F0E9FD00206060BFF31C
:1019C0004F8F216843F6E073C1F34E30CA08C1F36C
:1019D000C9014F1C9107420102EA030647F001E0EA
:1019E0000E4400BF00BF00BFC4F8E06106F14046EE
:1019F0000FF007C00028A0F10100A2F12002EBD1F6
:101A0000BFF34F8FBFF36F8F06F0BAFD06F084FE71
:101A1000CBE9000106F0B4FDC8E900014FF4803EB7
:101A200040F2000040F22041C6F60000C2F201215F
:101A300011F8012B00F8012B0FF007C006F0A0FDF4
:101A4000CAE9000106F09CFD06F066FEC5E900014A
:101A5000DBE90001D5E900235940504008430DD18E
:101A60004EF65F00C0F2002007F0C6FB48E000BF62
:101A700000008047002474490000803AD5E9000145
:101A8000DBE90023801A994109F020FA00EE100AE0
:101A90001FED091A81EE000A1FED0A1A4EF20B30F3
:101AA00020EE010A1FED0C1AC0F2002020EE010A00
:101AB00020EE018A09F06AFDDAE90001D8E9002385
:101AC000821A4EF2DF1061EB0303C0F2002009F02E
:101AD0005DFDD5E90001DBE90023821A4DF61A50BD
:101AE00061EB0303C0F2002009F050FDB7EEC80A15
:101AF0004EF29B50C0F2002053EC102B09F046FD33
:101B000000206060BFF34F8F216843F6E073C1F39C
:101B10004E30CA08C1F3C9014F1C9107420100BFF2
:101B200002EA030647F001E00E4400BF00BF00BF19
:101B3000C4F8E06106F140460FF007C00028A0F1AC
:101B40000100A2F12002EBD1BFF34F8FBFF36F8FE3
:101B500006F016FD06F0E0FDCBE9000106F010FDF1
:101B6000C8E900014FF4004E40F2000040F220416D
:101B7000C6F60000C2F2012131F8022B20F8022B38
:101B80000FF007C006F0FCFCCAE9000106F0F8FC03
:101B900006F0C2FDC5E90001DBE90001D5E900233B
:101BA00059405040084306D14EF65F00C0F2002075
:101BB00007F022FB41E0D5E90001DBE90023801AB0
:101BC000994109F083F900EE100A1FED571A81EED2
:101BD000000A1FED581A4EF2C54020EE010A1FED13
:101BE0005A1AC0F2002020EE010A20EE018A09F004
:101BF000CDFCDAE90001D8E90023821A4EF2DF10A9
:101C000061EB0303C0F2002009F0C0FCD5E900013C
:101C1000DBE90023821A4DF61A5061EB0303C0F290
:101C2000002009F0B3FCB7EEC80A4EF29B50C0F298
:101C3000002053EC102B09F0A9FC00206060BFF3DA
:101C40004F8F216843F6E073C1F34E30CA08C1F3E9
:101C5000C9014F1C9107420102EA030647F001E067
:101C60000E4400BF00BF00BFC4F8E06106F140466B
:101C70000FF007C00028A0F10100A2F12002EBD173
:101C8000BFF34F8FBFF36F8F06F07AFC06F044FD71
:101C9000CBE9000106F074FCC8E900014FF4804E66
:101CA00040F2000040F22041C6F60000C2F20121DD
:101CB00051F8042B40F8042B0FF007C006F060FC2D
:101CC000CAE9000106F05CFC06F026FDC5E900014A
:101CD000DBE90001D5E9002359405040084306D113
:101CE0004EF65F00C0F2002007F086FA41E0D5E929
:101CF0000001DBE90023801A994109F0E7F800EEC2
:101D0000100A1FEDA51A81EE000A1FEDA61A4DF666
:101D1000B61020EE010A1FEDA81AC0F2002020EE36
:101D2000010A20EE018A09F031FCDAE90001D8E964
:101D30000023821A4EF2DF1061EB0303C0F2002091
:101D400009F024FCD5E90001DBE90023821A4DF6F5
:101D50001A5061EB0303C0F2002009F017FCB7EE44
:101D6000C80A4EF29B50C0F2002053EC102B09F031
:101D70000DFC00206060BFF34F8F216843F6E073D5
:101D8000C1F34E30CA08C1F3C9014F1C910742018B
:101D900002EA030647F001E00E4400BF00BF00BFA7
:101DA000C4F8E06106F140460FF007C00028A0F13A
:101DB0000100A2F12002EBD1BFF34F8FBFF36F8F71
:101DC00006F0DEFB06F0A8FCCBE9000106F0D8FB2C
:101DD000C8E900014FF4005E40F2000040F22041EB
:101DE000C6F60000C2F20121F1E80223E0E8022376
:101DF0000FF007C006F0C4FBCAE9000106F0C0FB03
:101E000006F08AFCC5E90001DBE90001D5E9002301
:101E100059405040084306D14EF65F00C0F2002002
:101E200007F0EAF941E0D5E90001DBE90023801A77
:101E3000994109F04BF800EE100A9FED971A81EED8
:101E4000000A9FED961A4EF2155020EE010A9FED02
:101E5000941AC0F2002020EE010A20EE018A09F057
:101E600095FBDAE90001D8E90023821A4EF2DF106F
:101E700061EB0303C0F2002009F088FBD5E9000103
:101E8000DBE90023821A4DF61A5061EB0303C0F21E
:101E9000002009F07BFBB7EEC80A4EF29B50C0F25F
:101EA000002053EC102B09F071FB00206060BFF3A1
:101EB0004F8F216843F6E073C1F34E30CA08C1F377
:101EC000C9014F1C9107420102EA030647F001E0F5
:101ED0000E4400BF00BF00BFC4F8E06106F14046F9
:101EE0000FF007C00028A0F10100A2F12002EBD101
:101EF000BFF34F8FBFF36F8F06F042FB06F00CFC71
:101F0000CBE9000106F03CFBC8E900014FF4803E3C
:101F100040F2000040F22001C6F60100C2F20021AA
:101F200011F8012B00F8012B0FF007C006F028FB79
:101F3000CAE9000106F024FB06F0EEFBC5E900014A
:101F4000DBE90001D5E9002359405040084306D1A0
:101F50004EF65F00C0F2002007F04EF941E0D5E9EF
:101F60000001DBE90023801A994108F0AFFF00EE81
:101F7000100A9FED491A81EE000A9FED481A4DF2B2
:101F8000EE7020EE010A9FED461AC0F2002020EE0E
:101F9000010A20EE018A09F0F9FADAE90001D8E92C
:101FA0000023821A4EF2DF1061EB0303C0F200201F
:101FB00009F0ECFAD5E90001DBE90023821A4DF6BD
:101FC0001A5061EB0303C0F2002009F0DFFAB7EE0C
:101FD000C80A4EF29B50C0F2002053EC102B09F0BF
:101FE000D5FA00206060BFF34F8F216843F6E0739D
:101FF000C1F34E30CA08C1F3C9014F1C9107420119
:1020000002EA030647F001E00E4400BF00BF00BF34
:10201000C4F8E06106F140460FF007C00028A0F1C7
:102020000100A2F12002EBD1BFF34F8FBFF36F8FFE
:1020300006F0A6FA06F070FBCBE9000106F0A0FA64
:10204000C8E900014FF4004E40F2000040F22001C8
:10205000C6F60100C2F2002131F8022B20F8022B53
:102060000FF007C006F08CFACAE9000106F088FA02
:1020700006F052FBC5E90001DBE90001D5E90023C8
:102080005940504008430DD14EF65F00C0F2002089
:1020900007F0B2F848E000BF000080470024744910
:1020A0000000803AD5E90001DBE90023801A99415C
:1020B00008F00CFF00EE100A1FED091A81EE000A6D
:1020C0001FED0A1A4DF6573020EE010A1FED0C1ACB
:1020D000C0F2002020EE010A20EE018A09F056FA33
:1020E000DAE90001D8E90023821A4EF2DF1061EB31
:1020F0000303C0F2002009F049FAD5E90001DBE949
:102100000023821A4DF61A5061EB0303C0F200203F
:1021100009F03CFAB7EEC80A4EF29B50C0F200201C
:1021200053EC102B09F032FA00206060BFF34F8FA0
:10213000216843F6E073C1F34E30CA08C1F3C90108
:102140004F1C9107420100BF02EA030647F001E07D
:102150000E4400BF00BF00BFC4F8E06106F1404676
:102160000FF007C00028A0F10100A2F12002EBD17E
:10217000BFF34F8FBFF36F8F06F002FA06F0CCFA71
:10218000CBE9000106F0FCF9C8E900014FF4804EEC
:1021900040F2000040F22001C6F60100C2F2002128
:1021A00051F8042B40F8042B0FF007C006F0E8F9B3
:1021B000CAE9000106F0E4F906F0AEFAC5E900014B
:1021C000DBE90001D5E9002359405040084306D11E
:1021D0004EF65F00C0F2002007F00EF841E0D5E9AE
:1021E0000001DBE90023801A994108F06FFE00EE40
:1021F000100A1FED571A81EE000A1FED581A4EF211
:102200003B1020EE010A1FED5A1AC0F2002020EE0A
:10221000010A20EE018A09F0B9F9DAE90001D8E9EA
:102220000023821A4EF2DF1061EB0303C0F200209C
:1022300009F0ACF9D5E90001DBE90023821A4DF67B
:102240001A5061EB0303C0F2002009F09FF9B7EECA
:10225000C80A4EF29B50C0F2002053EC102B09F03C
:1022600095F900206060BFF34F8F216843F6E0735B
:10227000C1F34E30CA08C1F3C9014F1C9107420196
:1022800002EA030647F001E00E4400BF00BF00BFB2
:10229000C4F8E06106F140460FF007C00028A0F145
:1022A0000100A2F12002EBD1BFF34F8FBFF36F8F7C
:1022B00006F066F906F030FACBE9000106F060F9A5
:1022C000C8E900014FF4005E40F2000040F2200136
:1022D000C6F60100C2F20021F1E80223E0E8022381
:1022E0000FF007C006F04CF9CAE9000106F048F902
:1022F00006F012FAC5E90001DBE90001D5E9002387
:1023000059405040084306D14EF65F00C0F200200D
:1023100006F072FF41E0D5E90001DBE90023801AF5
:10232000994108F0D3FD00EE100A1FEDA51A81EEC9
:10233000000A1FEDA61A4EF28F0020EE010A1FEDD3
:10234000A81AC0F2002020EE010A20EE018A09F04E
:102350001DF9DAE90001D8E90023821A4EF2DF10F4
:1023600061EB0303C0F2002009F010F9D5E9000188
:10237000DBE90023821A4DF61A5061EB0303C0F229
:10238000002009F003F9B7EEC80A4EF29B50C0F2E4
:10239000002053EC102B09F0F9F800206060BFF327
:1023A0004F8F216843F6E073C1F34E30CA08C1F382
:1023B000C9014F1C9107420102EA030647F001E000
:1023C0000E4400BF00BF00BFC4F8E06106F1404604
:1023D0000FF007C00028A0F10100A2F12002EBD10C
:1023E000BFF34F8FBFF36F8F06F0CAF806F094F972
:1023F000CBE9000106F0C4F8C8E900014FF4803EC3
:1024000040F2000040F22001C6F60000C2F20021B6
:1024100011F8012B00F8012B0FF007C006F0B0F8FF
:10242000CAE9000106F0ACF806F076F9C5E900014A
:10243000DBE90001D5E9002359405040084306D1AB
:102440004EF65F00C0F2002006F0D6FE41E0D5E96E
:102450000001DBE90023801A994108F037FD00EE06
:10246000100A9FED971A81EE000A9FED961A4EF61C
:10247000922020EE010A9FED941AC0F2002020EE77
:10248000010A20EE018A09F081F8DAE90001D8E9B1
:102490000023821A4EF2DF1061EB0303C0F200202A
:1024A00009F074F8D5E90001DBE90023821A4DF642
:1024B0001A5061EB0303C0F2002009F067F8B7EE91
:1024C000C80A4EF29B50C0F2002053EC102B09F0CA
:1024D0005DF800206060BFF34F8F216843F6E07322
:1024E000C1F34E30CA08C1F3C9014F1C9107420124
:1024F00002EA030647F001E00E4400BF00BF00BF40
:10250000C4F8E06106F140460FF007C00028A0F1D2
:102510000100A2F12002EBD1BFF34F8FBFF36F8F09
:1025200006F02EF806F0F8F8CBE9000106F028F8DE
:10253000C8E900014FF4004E40F2000040F22001D3
:10254000C6F60000C2F2002131F8022B20F8022B5F
:102550000FF007C006F014F8CAE9000106F010F801
:1025600006F0DAF8C5E90001DBE90001D5E900234E
:1025700059405040084306D14EF65F00C0F200209B
:1025800006F03AFE41E0D5E90001DBE90023801ABC
:10259000994108F09BFC00EE100A9FED491A81EE6C
:1025A000000A9FED481A4DF6062020EE010A9FED25
:1025B000461AC0F2002020EE010A20EE018A08F03F
:1025C000E5FFDAE90001D8E90023821A4EF2DF10B4
:1025D00061EB0303C0F2002008F0D8FFD5E9000149
:1025E000DBE90023821A4DF61A5061EB0303C0F2B7
:1025F000002008F0CBFFB7EEC80A4EF29B50C0F2A5
:10260000002053EC102B08F0C1FF00206060BFF3E6
:102610004F8F216843F6E073C1F34E30CA08C1F30F
:10262000C9014F1C9107420102EA030647F001E08D
:102630000E4400BF00BF00BFC4F8E06106F1404691
:102640000FF007C00028A0F10100A2F12002EBD199
:10265000BFF34F8FBFF36F8F05F092FF06F05CF86A
:10266000CBE9000105F08CFFC8E900014FF4804E72
:1026700040F2000040F22001C6F60000C2F2002144
:1026800051F8042B40F8042B0FF007C005F078FF39
:10269000CAE9000105F074FF06F03EF8C5E9000143
:1026A000DBE90001D5E900235940504008430DD132
:1026B0004EF65F00C0F2002006F09EFD48E000BF2D
:1026C00000008047002474490000803AD5E90001E9
:1026D000DBE90023801A994108F0F8FB00EE100AAC
:1026E0001FED091A81EE000A1FED0A1A4DF68A70D5
:1026F00020EE010A1FED0C1AC0F2002020EE010AA4
:1027000020EE018A08F042FFDAE90001D8E900234F
:10271000821A4EF2DF1061EB0303C0F2002008F0D2
:1027200035FFD5E90001DBE90023821A4DF61A5086
:1027300061EB0303C0F2002008F028FFB7EEC80ADF
:102740004EF29B50C0F2002053EC102B08F01EFFFD
:1027500000206060BFF34F8F216843F6E073C1F340
:102760004E30CA08C1F3C9014F1C9107420100BF96
:1027700002EA030647F001E00E4400BF00BF00BFBD
:10278000C4F8E06106F140460FF007C00028A0F150
:102790000100A2F12002EBD1BFF34F8FBFF36F8F87
:1027A00005F0EEFE05F0B8FFCBE9000105F0E8FE0C
:1027B000C8E900014FF4005E40F2000040F2200141
:1027C000C6F60000C2F20021F1E80223E0E802238D
:1027D0000FF007C005F0D4FECAE9000105F0D0FEF5
:1027E00005F09AFFC5E90001DBE90001D5E9002306
:1027F00059405040084306D14EF65F00C0F2002019
:1028000006F0FAFC41E0D5E90001DBE90023801A7B
:10281000994108F05BFB00EE100A1FED571A81EE9C
:10282000000A1FED581A4DF61E4020EE010A1FED5A
:102830005A1AC0F2002020EE010A20EE018A08F0A8
:10284000A5FEDAE90001D8E90023821A4EF2DF1072
:1028500061EB0303C0F2002008F098FED5E9000107
:10286000DBE90023821A4DF61A5061EB0303C0F234
:10287000002008F08BFEB7EEC80A4EF29B50C0F263
:10288000002053EC102B08F081FE96204FF47A7153
:1028900007F0A2FF4FF0D0404FF0807108F01DFD0F
:1028A00096204FF47A7107F097FF00206060BFF325
:1028B0004F8F54F86C0C43F6E07320F4803044F8EA
:1028C0006C0CBFF34F8F2168C1F34E30CA08C1F3BF
:1028D000C9014F1C9107420102EA030647F001E0DB
:1028E0000E4400BF00BF00BFC4F8F46106F14046CB
:1028F0000FF007C00028A0F10100A2F12002EBD1E7
:10290000BFF34F8FBFF36F8FD9F8000040F0040082
:10291000C9F80000BFF34F8FBFF36F8FD9F80000E5
:10292000019054F86C0CC0032ED400206060BFF3FB
:102930004F8F216843F6E073C1F34E30CA08C1F3EC
:10294000C9014F1C9107420102EA030647F001E06A
:102950000E4400BF00BF00BFC4F8E06106F140466E
:102960000FF007C00028A0F10100A2F12002EBD176
:10297000BFF34F8F54F86C0C40F4803044F86C0C6B
:10298000BFF34F8FBFF36F8F0198400705D44EF60A
:102990008510C0F2002001F08BBE4DF6E420C0F29D
:1029A000002006F029FC00206060BFF34F8F2168F3
:1029B00043F6E073C1F34E30CA08C1F3C9014F1C9E
:1029C0009107420100BF00BF02EA030647F001E0A1
:1029D0000E4400BF00BF00BFC4F8E06106F14046EE
:1029E0000FF007C00028A0F10100A2F12002EBD1F6
:1029F000BFF34F8FBFF36F8F05F0C2FDC8E9000131
:102A000005F0BEFD05F088FECBE900014FF4803EE5
:102A100040F2000040F20001C6F60100C2F20001DF
:102A200011F8012B00F8012B0FF007C005F0A8FDED
:102A3000CAE9000105F0A4FD05F06EFEC5E900013C
:102A4000DBE90001D5E9002359405040084306D195
:102A50004EF65F00C0F2002006F0CEFB41E0D5E963
:102A60000001DBE90023801A994108F02FFA00EEFB
:102A7000100A9FED971A81EE000A9FED961A4EF20A
:102A8000422020EE010A9FED941AC0F2002020EEB1
:102A9000010A20EE018A08F079FDDAE90001D8E99F
:102AA0000023821A4EF2DF1061EB0303C0F2002014
:102AB00008F06CFDD5E90001DBE90023821A4DF630
:102AC0001A5061EB0303C0F2002008F05FFDB7EE7F
:102AD000C80A4EF29B50C0F2002053EC102B08F0B5
:102AE00055FD00206060BFF34F8F216843F6E0730F
:102AF000C1F34E30CA08C1F3C9014F1C910742010E
:102B000002EA030647F001E00E4400BF00BF00BF29
:102B1000C4F8E06106F140460FF007C00028A0F1BC
:102B20000100A2F12002EBD1BFF34F8FBFF36F8FF3
:102B300005F026FD05F0F0FDCBE9000105F020FDD4
:102B4000C8E900014FF4004E40F2000040F20001DD
:102B5000C6F60100C2F2000131F8022B20F8022B68
:102B60000FF007C005F00CFDCAE9000105F008FDF3
:102B700005F0D2FDC5E90001DBE90001D5E900233C
:102B800059405040084306D14EF65F00C0F2002085
:102B900006F032FB41E0D5E90001DBE90023801AB1
:102BA000994108F093F900EE100A9FED491A81EE61
:102BB000000A9FED481A4DF6073020EE010A9FEDFE
:102BC000461AC0F2002020EE010A20EE018A08F029
:102BD000DDFCDAE90001D8E90023821A4EF2DF10A9
:102BE00061EB0303C0F2002008F0D0FCD5E900013E
:102BF000DBE90023821A4DF61A5061EB0303C0F2A1
:102C0000002008F0C3FCB7EEC80A4EF29B50C0F299
:102C1000002053EC102B08F0B9FC00206060BFF3DB
:102C20004F8F216843F6E073C1F34E30CA08C1F3F9
:102C3000C9014F1C9107420102EA030647F001E077
:102C40000E4400BF00BF00BFC4F8E06106F140467B
:102C50000FF007C00028A0F10100A2F12002EBD183
:102C6000BFF34F8FBFF36F8F05F08AFC05F054FD63
:102C7000CBE9000105F084FCC8E900014FF4804E67
:102C800040F2000040F20001C6F60100C2F200016D
:102C900051F8042B40F8042B0FF007C005F070FC2E
:102CA000CAE9000105F06CFC05F036FDC5E900013C
:102CB000DBE90001D5E900235940504008430DD11C
:102CC0004EF65F00C0F2002006F096FA48E000BF22
:102CD00000008047002474490000803AD5E90001D3
:102CE000DBE90023801A994108F0F0F800EE100AA1
:102CF0001FED091A81EE000A1FED0A1A4EF6783010
:102D000020EE010A1FED0C1AC0F2002020EE010A8D
:102D100020EE018A08F03AFCDAE90001D8E9002344
:102D2000821A4EF2DF1061EB0303C0F2002008F0BC
:102D30002DFCD5E90001DBE90023821A4DF61A507B
:102D400061EB0303C0F2002008F020FCB7EEC80AD4
:102D50004EF29B50C0F2002053EC102B08F016FCF2
:102D600000206060BFF34F8F216843F6E073C1F32A
:102D70004E30CA08C1F3C9014F1C9107420100BF80
:102D800002EA030647F001E00E4400BF00BF00BFA7
:102D9000C4F8E06106F140460FF007C00028A0F13A
:102DA0000100A2F12002EBD1BFF34F8FBFF36F8F71
:102DB00005F0E6FB05F0B0FCCBE9000105F0E0FB17
:102DC000C8E900014FF4005E40F2000040F200014B
:102DD000C6F60100C2F20001F1E80223E0E8022396
:102DE0000FF007C005F0CCFBCAE9000105F0C8FBF5
:102DF00005F092FCC5E90001DBE90001D5E90023FB
:102E000059405040084306D14EF65F00C0F2002002
:102E100006F0F2F941E0D5E90001DBE90023801A70
:102E2000994108F053F800EE100A1FED571A81EE91
:102E3000000A1FED581A4EF2BB2020EE010A1FEDCA
:102E40005A1AC0F2002020EE010A20EE018A08F092
:102E50009DFBDAE90001D8E90023821A4EF2DF1067
:102E600061EB0303C0F2002008F090FBD5E90001FC
:102E7000DBE90023821A4DF61A5061EB0303C0F21E
:102E8000002008F083FBB7EEC80A4EF29B50C0F258
:102E9000002053EC102B08F079FB00206060BFF39A
:102EA0004F8F216843F6E073C1F34E30CA08C1F377
:102EB000C9014F1C9107420102EA030647F001E0F5
:102EC0000E4400BF00BF00BFC4F8E06106F14046F9
:102ED0000FF007C00028A0F10100A2F12002EBD101
:102EE000BFF34F8FBFF36F8F05F04AFB05F014FC63
:102EF000CBE9000105F044FBC8E900014FF4803E36
:102F000040F2000040F20001C6F60000C2F20001EB
:102F100011F8012B00F8012B0FF007C005F030FB72
:102F2000CAE9000105F02CFB05F0F6FBC5E900013C
:102F3000DBE90001D5E9002359405040084306D1A0
:102F40004EF65F00C0F2002006F056F941E0D5E9E8
:102F50000001DBE90023801A994107F0B7FF00EE7A
:102F6000100A1FEDA51A81EE000A1FEDA61A4EF2F7
:102F70008E7020EE010A1FEDA81AC0F2002020EE8C
:102F8000010A20EE018A08F001FBDAE90001D8E924
:102F90000023821A4EF2DF1061EB0303C0F200201F
:102FA00008F0F4FAD5E90001DBE90023821A4DF6B6
:102FB0001A5061EB0303C0F2002008F0E7FAB7EE05
:102FC000C80A4EF29B50C0F2002053EC102B08F0C0
:102FD000DDFA00206060BFF34F8F216843F6E07395
:102FE000C1F34E30CA08C1F3C9014F1C9107420119
:102FF00002EA030647F001E00E4400BF00BF00BF35
:10300000C4F8E06106F140460FF007C00028A0F1C7
:103010000100A2F12002EBD1BFF34F8FBFF36F8FFE
:1030200005F0AEFA05F078FBCBE9000105F0A8FA4F
:10303000C8E900014FF4004E40F2000040F20001E8
:10304000C6F60000C2F2000131F8022B20F8022B74
:103050000FF007C005F094FACAE9000105F090FAF4
:1030600005F05AFBC5E90001DBE90001D5E90023C1
:1030700059405040084306D14EF65F00C0F2002090
:1030800006F0BAF841E0D5E90001DBE90023801A37
:10309000994107F01BFF00EE100A9FED971A81EE91
:1030A000000A9FED961A4EF6D40020EE010A9FED1D
:1030B000941AC0F2002020EE010A20EE018A08F0E6
:1030C00065FADAE90001D8E90023821A4EF2DF102E
:1030D00061EB0303C0F2002008F058FAD5E90001C3
:1030E000DBE90023821A4DF61A5061EB0303C0F2AC
:1030F000002008F04BFAB7EEC80A4EF29B50C0F21F
:10310000002053EC102B08F041FA00206060BFF360
:103110004F8F216843F6E073C1F34E30CA08C1F304
:10312000C9014F1C9107420102EA030647F001E082
:103130000E4400BF00BF00BFC4F8E06106F1404686
:103140000FF007C00028A0F10100A2F12002EBD18E
:10315000BFF34F8FBFF36F8F05F012FA05F0DCFA63
:10316000CBE9000105F00CFAC8E900014FF4804EEC
:1031700040F2000040F20001C6F60000C2F2000179
:1031800051F8042B40F8042B0FF007C005F0F8F9B4
:10319000CAE9000105F0F4F905F0BEFAC5E900013D
:1031A000DBE90001D5E9002359405040084306D12E
:1031B0004EF65F00C0F2002006F01EF841E0D5E9AF
:1031C0000001DBE90023801A994107F07FFE00EE41
:1031D000100A9FED491A81EE000A9FED481A4DF63C
:1031E000AA4020EE010A9FED461AC0F2002020EE10
:1031F000010A20EE018A08F0C9F9DAE90001D8E9EC
:103200000023821A4EF2DF1061EB0303C0F20020AC
:1032100008F0BCF9D5E90001DBE90023821A4DF67C
:103220001A5061EB0303C0F2002008F0AFF9B7EECB
:10323000C80A4EF29B50C0F2002053EC102B08F04D
:10324000A5F900206060BFF34F8F216843F6E0735B
:10325000C1F34E30CA08C1F3C9014F1C91074201A6
:1032600002EA030647F001E00E4400BF00BF00BFC2
:10327000C4F8E06106F140460FF007C00028A0F155
:103280000100A2F12002EBD1BFF34F8FBFF36F8F8C
:1032900005F076F905F040FACBE9000105F070F988
:1032A000C8E900014FF4005E40F2000040F2000166
:1032B000C6F60000C2F20001F1E80223E0E80223B2
:1032C0000FF007C005F05CF9CAE9000105F058F9F4
:1032D00005F022FAC5E90001DBE90001D5E9002388
:1032E0005940504008430DD14EF65F00C0F2002017
:1032F00005F082FF48E000BF0000804700247449C9
:103300000000803AD5E90001DBE90023801A9941E9
:1033100007F0DCFD00EE100A1FED091A81EE000A2D
:103320001FED0A1A4EF69E1020EE010A1FED0C1A30
:10333000C0F2002020EE010A20EE018A08F026F9F2
:10334000DAE90001D8E90023821A4EF2DF1061EBBE
:103350000303C0F2002008F019F9D5E90001DBE908
:103360000023821A4DF61A5061EB0303C0F20020CD
:1033700008F00CF9B7EEC80A4EF29B50C0F20020DC
:1033800053EC102B08F002F900206060BFF34F8F60
:10339000216843F6E073C1F34E30CA08C1F3C90196
:1033A0004F1C9107420100BF02EA030647F001E00B
:1033B0000E4400BF00BF00BFC4F8E06106F1404604
:1033C0000FF007C00028A0F10100A2F12002EBD10C
:1033D000BFF34F8FBFF36F8F05F0D2F805F09CF964
:1033E000CBE9000105F0CCF8C8E900014FF4803EBC
:1033F00040F2000040F22041C6F60100C2F2012175
:1034000011F8012B00F8012B0FF007C005F0B8F8F8
:10341000CAE9000105F0B4F805F07EF9C5E900013C
:10342000DBE90001D5E9002359405040084306D1AB
:103430004EF65F00C0F2002005F0DEFE41E0D5E967
:103440000001DBE90023801A994107F03FFD00EEFF
:10345000100A1FED571A81EE000A1FED581A4EF69A
:10346000B44020EE010A1FED5A1AC0F2002020EEEF
:10347000010A20EE018A08F089F8DAE90001D8E9AA
:103480000023821A4EF2DF1061EB0303C0F200202A
:1034900008F07CF8D5E90001DBE90023821A4DF63B
:1034A0001A5061EB0303C0F2002008F06FF8B7EE8A
:1034B000C80A4EF29B50C0F2002053EC102B08F0CB
:1034C00065F800206060BFF34F8F216843F6E0731A
:1034D000C1F34E30CA08C1F3C9014F1C9107420124
:1034E00002EA030647F001E00E4400BF00BF00BF40
:1034F000C4F8E06106F140460FF007C00028A0F1D3
:103500000100A2F12002EBD1BFF34F8FBFF36F8F09
:1035100005F036F805F000F9CBE9000105F030F8C8
:10352000C8E900014FF4004E40F2000040F2204193
:10353000C6F60100C2F2012131F8022B20F8022B5D
:103540000FF007C005F01CF8CAE9000105F018F8F3
:1035500005F0E2F8C5E90001DBE90001D5E9002347
:1035600059405040084306D14EF65F00C0F200209B
:1035700005F042FE41E0D5E90001DBE90023801AB5
:10358000994107F0A3FC00EE100A1FEDA51A81EE89
:10359000000A1FEDA61A4DF63A7020EE010A1FED43
:1035A000A81AC0F2002020EE010A20EE018A07F0DE
:1035B000EDFFDAE90001D8E90023821A4EF2DF10AC
:1035C00061EB0303C0F2002007F0E0FFD5E9000142
:1035D000DBE90023821A4DF61A5061EB0303C0F2B7
:1035E000002007F0D3FFB7EEC80A4EF29B50C0F29E
:1035F000002053EC102B07F0C9FF00206060BFF3E0
:103600004F8F216843F6E073C1F34E30CA08C1F30F
:10361000C9014F1C9107420102EA030647F001E08D
:103620000E4400BF00BF00BFC4F8E06106F1404691
:103630000FF007C00028A0F10100A2F12002EBD199
:10364000BFF34F8FBFF36F8F04F09AFF05F064F85C
:10365000CBE9000104F094FFC8E900014FF4804E6B
:1036600040F2000040F22041C6F60100C2F2012102
:1036700051F8042B40F8042B0FF007C004F080FF32
:10368000CAE9000104F07CFF05F046F8C5E9000135
:10369000DBE90001D5E9002359405040084306D139
:1036A0004EF65F00C0F2002005F0A6FD41E0D5E92E
:1036B0000001DBE90023801A994107F007FC00EEC6
:1036C000100A9FED971A81EE000A9FED961A4EF6AA
:1036D000045020EE010A9FED941AC0F2002020EE63
:1036E000010A20EE018A07F051FFDAE90001D8E96A
:1036F0000023821A4EF2DF1061EB0303C0F20020B8
:1037000007F044FFD5E90001DBE90023821A4DF6FA
:103710001A5061EB0303C0F2002007F037FFB7EE49
:10372000C80A4EF29B50C0F2002053EC102B07F059
:103730002DFF00206060BFF34F8F216843F6E073D8
:10374000C1F34E30CA08C1F3C9014F1C91074201B1
:1037500002EA030647F001E00E4400BF00BF00BFCD
:10376000C4F8E06106F140460FF007C00028A0F160
:103770000100A2F12002EBD1BFF34F8FBFF36F8F97
:1037800004F0FEFE04F0C8FFCBE9000104F0F8FEEF
:10379000C8E900014FF4005E40F2000040F2204111
:1037A000C6F60100C2F20121F1E80223E0E802239B
:1037B0000FF007C004F0E4FECAE9000104F0E0FEE7
:1037C00004F0AAFFC5E90001DBE90001D5E9002307
:1037D00059405040084306D14EF65F00C0F2002029
:1037E00005F00AFD41E0D5E90001DBE90023801A7C
:1037F000994107F06BFB00EE100A9FED491A81EE2C
:10380000000A9FED481A4DF69B6020EE010A9FEDDD
:10381000461AC0F2002020EE010A20EE018A07F0CD
:10382000B5FEDAE90001D8E90023821A4EF2DF1072
:1038300061EB0303C0F2002007F0A8FED5E9000108
:10384000DBE90023821A4DF61A5061EB0303C0F244
:10385000002007F09BFEB7EEC80A4EF29B50C0F264
:10386000002053EC102B07F091FE00206060BFF3A6
:103870004F8F216843F6E073C1F34E30CA08C1F39D
:10388000C9014F1C9107420102EA030647F001E01B
:103890000E4400BF00BF00BFC4F8E06106F140461F
:1038A0000FF007C00028A0F10100A2F12002EBD127
:1038B000BFF34F8FBFF36F8F04F062FE04F02CFF55
:1038C000CBE9000104F05CFEC8E900014FF4803E42
:1038D00040F2000040F22041C6F60000C2F2012191
:1038E00011F8012B00F8012B0FF007C004F048FE7F
:1038F000CAE9000104F044FE04F00EFFC5E900012E
:10390000DBE90001D5E900235940504008430DD1BF
:103910004EF65F00C0F2002005F06EFC48E000BFEC
:1039200000008047002474490000803AD5E9000176
:10393000DBE90023801A994107F0C8FA00EE100A6B
:103940001FED091A81EE000A1FED0A1A4EF20B3024
:1039500020EE010A1FED0C1AC0F2002020EE010A31
:1039600020EE018A07F012FEDAE90001D8E900230F
:10397000821A4EF2DF1061EB0303C0F2002007F061
:1039800005FED5E90001DBE90023821A4DF61A5045
:1039900061EB0303C0F2002007F0F8FDB7EEC80AA0
:1039A0004EF29B50C0F2002053EC102B07F0EEFDBE
:1039B00000206060BFF34F8F216843F6E073C1F3CE
:1039C0004E30CA08C1F3C9014F1C9107420100BF24
:1039D00002EA030647F001E00E4400BF00BF00BF4B
:1039E000C4F8E06106F140460FF007C00028A0F1DE
:1039F0000100A2F12002EBD1BFF34F8FBFF36F8F15
:103A000004F0BEFD04F088FECBE9000104F0B8FD2F
:103A1000C8E900014FF4004E40F2000040F220419E
:103A2000C6F60000C2F2012131F8022B20F8022B69
:103A30000FF007C004F0A4FDCAE9000104F0A0FDE6
:103A400004F06AFEC5E90001DBE90001D5E90023C5
:103A500059405040084306D14EF65F00C0F20020A6
:103A600005F0CAFB41E0D5E90001DBE90023801A3B
:103A7000994107F02BFA00EE100A1FED571A81EE5C
:103A8000000A1FED581A4EF2C54020EE010A1FED44
:103A90005A1AC0F2002020EE010A20EE018A07F037
:103AA00075FDDAE90001D8E90023821A4EF2DF1031
:103AB00061EB0303C0F2002007F068FDD5E90001C7
:103AC000DBE90023821A4DF61A5061EB0303C0F2C2
:103AD000002007F05BFDB7EEC80A4EF29B50C0F223
:103AE000002053EC102B07F051FD00206060BFF365
:103AF0004F8F216843F6E073C1F34E30CA08C1F31B
:103B0000C9014F1C9107420102EA030647F001E098
:103B10000E4400BF00BF00BFC4F8E06106F140469C
:103B20000FF007C00028A0F10100A2F12002EBD1A4
:103B3000BFF34F8FBFF36F8F04F022FD04F0ECFD55
:103B4000CBE9000104F01CFDC8E900014FF4804EF0
:103B500040F2000040F22041C6F60000C2F201210E
:103B600051F8042B40F8042B0FF007C004F008FDB7
:103B7000CAE9000104F004FD04F0CEFDC5E900012E
:103B8000DBE90001D5E9002359405040084306D144
:103B90004EF65F00C0F2002005F02EFB41E0D5E9B3
:103BA0000001DBE90023801A994107F08FF900EE4C
:103BB000100A1FEDA51A81EE000A1FEDA61A4DF698
:103BC000B61020EE010A1FEDA81AC0F2002020EE68
:103BD000010A20EE018A07F0D9FCDAE90001D8E9F0
:103BE0000023821A4EF2DF1061EB0303C0F20020C3
:103BF00007F0CCFCD5E90001DBE90023821A4DF681
:103C00001A5061EB0303C0F2002007F0BFFCB7EECF
:103C1000C80A4EF29B50C0F2002053EC102B07F064
:103C2000B5FC00206060BFF34F8F216843F6E0735E
:103C3000C1F34E30CA08C1F3C9014F1C91074201BC
:103C400002EA030647F001E00E4400BF00BF00BFD8
:103C5000C4F8E06106F140460FF007C00028A0F16B
:103C60000100A2F12002EBD1BFF34F8FBFF36F8FA2
:103C700004F086FC04F050FDCBE9000104F080FC68
:103C8000C8E900014FF4005E40F2000040F220411C
:103C9000C6F60000C2F20121F1E80223E0E80223A7
:103CA0000FF007C004F06CFCCAE9000104F068FCE6
:103CB00004F032FDC5E90001DBE90001D5E900238C
:103CC00059405040084306D14EF65F00C0F2002034
:103CD00005F092FA41E0D5E90001DBE90023801A02
:103CE000994107F0F3F800EE100A9FED971A81EE64
:103CF000000A9FED961A4EF2155020EE010A9FED34
:103D0000941AC0F2002020EE010A20EE018A07F08A
:103D10003DFCDAE90001D8E90023821A4EF2DF10F7
:103D200061EB0303C0F2002007F030FCD5E900018D
:103D3000DBE90023821A4DF61A5061EB0303C0F24F
:103D4000002007F023FCB7EEC80A4EF29B50C0F2E9
:103D5000002053EC102B07F019FC00206060BFF32B
:103D60004F8F216843F6E073C1F34E30CA08C1F3A8
:103D7000C9014F1C9107420102EA030647F001E026
:103D80000E4400BF00BF00BFC4F8E06106F140462A
:103D90000FF007C00028A0F10100A2F12002EBD132
:103DA000BFF34F8FBFF36F8F04F0EAFB04F0B4FC56
:103DB000CBE9000104F0E4FBC8E900014FF4803EC8
:103DC00040F2000040F22001C6F60100C2F20021DC
:103DD00011F8012B00F8012B0FF007C004F0D0FB05
:103DE000CAE9000104F0CCFB04F096FCC5E900012F
:103DF000DBE90001D5E9002359405040084306D1D2
:103E00004EF65F00C0F2002005F0F6F941E0D5E97A
:103E10000001DBE90023801A994107F057F800EE12
:103E2000100A9FED491A81EE000A9FED481A4DF2E3
:103E3000EE7020EE010A9FED461AC0F2002020EE3F
:103E4000010A20EE018A07F0A1FBDAE90001D8E9B6
:103E50000023821A4EF2DF1061EB0303C0F2002050
:103E600007F094FBD5E90001DBE90023821A4DF647
:103E70001A5061EB0303C0F2002007F087FBB7EE96
:103E8000C80A4EF29B50C0F2002053EC102B07F0F2
:103E90007DFB00206060BFF34F8F216843F6E07325
:103EA000C1F34E30CA08C1F3C9014F1C910742014A
:103EB00002EA030647F001E00E4400BF00BF00BF66
:103EC000C4F8E06106F140460FF007C00028A0F1F9
:103ED0000100A2F12002EBD1BFF34F8FBFF36F8F30
:103EE00004F04EFB04F018FCCBE9000104F048FBA1
:103EF000C8E900014FF4004E40F2000040F22001FA
:103F0000C6F60100C2F2002131F8022B20F8022B84
:103F10000FF007C004F034FBCAE9000104F030FBE5
:103F200004F0FAFBC5E90001DBE90001D5E9002353
:103F30005940504008430DD14EF65F00C0F20020BA
:103F400005F05AF948E000BF00008047002474499A
:103F50000000803AD5E90001DBE90023801A99418D
:103F600006F0B4FF00EE100A1FED091A81EE000AF8
:103F70001FED0A1A4DF6573020EE010A1FED0C1AFC
:103F8000C0F2002020EE010A20EE018A07F0FEFABE
:103F9000DAE90001D8E90023821A4EF2DF1061EB62
:103FA0000303C0F2002007F0F1FAD5E90001DBE9D4
:103FB0000023821A4DF61A5061EB0303C0F2002071
:103FC00007F0E4FAB7EEC80A4EF29B50C0F20020A8
:103FD00053EC102B07F0DAFA00206060BFF34F8F2C
:103FE000216843F6E073C1F34E30CA08C1F3C9013A
:103FF0004F1C9107420100BF02EA030647F001E0AF
:104000000E4400BF00BF00BFC4F8E06106F14046A7
:104010000FF007C00028A0F10100A2F12002EBD1AF
:10402000BFF34F8FBFF36F8F04F0AAFA04F074FB55
:10403000CBE9000104F0A4FAC8E900014FF4804E76
:1040400040F2000040F22001C6F60100C2F2002159
:1040500051F8042B40F8042B0FF007C004F090FA3D
:10406000CAE9000104F08CFA04F056FBC5E900012E
:10407000DBE90001D5E9002359405040084306D14F
:104080004EF65F00C0F2002005F0B6F841E0D5E939
:104090000001DBE90023801A994106F017FF00EECA
:1040A000100A1FED571A81EE000A1FED581A4EF242
:1040B0003B1020EE010A1FED5A1AC0F2002020EE3C
:1040C000010A20EE018A07F061FADAE90001D8E975
:1040D0000023821A4EF2DF1061EB0303C0F20020CE
:1040E00007F054FAD5E90001DBE90023821A4DF606
:1040F0001A5061EB0303C0F2002007F047FAB7EE55
:10410000C80A4EF29B50C0F2002053EC102B07F06F
:104110003DFA00206060BFF34F8F216843F6E073E3
:10412000C1F34E30CA08C1F3C9014F1C91074201C7
:1041300002EA030647F001E00E4400BF00BF00BFE3
:10414000C4F8E06106F140460FF007C00028A0F176
:104150000100A2F12002EBD1BFF34F8FBFF36F8FAD
:1041600004F00EFA04F0D8FACBE9000104F008FAE2
:10417000C8E900014FF4005E40F2000040F2200167
:10418000C6F60100C2F20021F1E80223E0E80223B2
:104190000FF007C004F0F4F9CAE9000104F0F0F9E7
:1041A00004F0BAFAC5E90001DBE90001D5E9002312
:1041B00059405040084306D14EF65F00C0F200203F
:1041C00005F01AF841E0D5E90001DBE90023801A87
:1041D000994106F07BFE00EE100A1FEDA51A81EE54
:1041E000000A1FEDA61A4EF28F0020EE010A1FED05
:1041F000A81AC0F2002020EE010A20EE018A07F082
:10420000C5F9DAE90001D8E90023821A4EF2DF107D
:1042100061EB0303C0F2002007F0B8F9D5E9000113
:10422000DBE90023821A4DF61A5061EB0303C0F25A
:10423000002007F0ABF9B7EEC80A4EF29B50C0F26F
:10424000002053EC102B07F0A1F900206060BFF3B1
:104250004F8F216843F6E073C1F34E30CA08C1F3B3
:10426000C9014F1C9107420102EA030647F001E031
:104270000E4400BF00BF00BFC4F8E06106F1404635
:104280000FF007C00028A0F10100A2F12002EBD13D
:10429000BFF34F8FBFF36F8F04F072F904F03CFA55
:1042A000CBE9000104F06CF9C8E900014FF4803E4D
:1042B00040F2000040F22001C6F60000C2F20021E8
:1042C00011F8012B00F8012B0FF007C004F058F98A
:1042D000CAE9000104F054F904F01EFAC5E900012E
:1042E000DBE90001D5E9002359405040084306D1DD
:1042F0004EF65F00C0F2002004F07EFF41E0D5E9F9
:104300000001DBE90023801A994106F0DFFD00EE91
:10431000100A9FED971A81EE000A9FED961A4EF64D
:10432000922020EE010A9FED941AC0F2002020EEA8
:10433000010A20EE018A07F029F9DAE90001D8E93B
:104340000023821A4EF2DF1061EB0303C0F200205B
:1043500007F01CF9D5E90001DBE90023821A4DF6CC
:104360001A5061EB0303C0F2002007F00FF9B7EE1B
:10437000C80A4EF29B50C0F2002053EC102B07F0FD
:1043800005F900206060BFF34F8F216843F6E073AA
:10439000C1F34E30CA08C1F3C9014F1C9107420155
:1043A00002EA030647F001E00E4400BF00BF00BF71
:1043B000C4F8E06106F140460FF007C00028A0F104
:1043C0000100A2F12002EBD1BFF34F8FBFF36F8F3B
:1043D00004F0D6F804F0A0F9CBE9000104F0D0F81D
:1043E000C8E900014FF4004E40F2000040F2200105
:1043F000C6F60000C2F2002131F8022B20F8022B91
:104400000FF007C004F0BCF8CAE9000104F0B8F8E6
:1044100004F082F9C5E90001DBE90001D5E90023D8
:1044200059405040084306D14EF65F00C0F20020CC
:1044300004F0E2FE41E0D5E90001DBE90023801A47
:10444000994106F043FD00EE100A9FEDC11A81EE7E
:10445000000A9FEDC01A4DF6062020EE010A9FEDDE
:10446000BE1AC0F2002020EE010A20EE018A07F0F9
:104470008DF8DAE90001D8E90023821A4EF2DF1044
:1044800061EB0303C0F2002007F080F8D5E90001DA
:10449000DBE90023821A4DF61A5061EB0303C0F2E8
:1044A000002007F073F8B7EEC80A4EF29B50C0F236
:1044B000002053EC102B07F069F800206060BFF378
:1044C0004F8F216843F6E073C1F34E30CA08C1F341
:1044D000C9014F1C9107420102EA030647F001E0BF
:1044E0000E4400BF00BF00BFC4F8E06106F14046C3
:1044F0000FF007C00028A0F10100A2F12002EBD1CB
:10450000BFF34F8FBFF36F8F04F03AF804F004F954
:10451000CBE9000104F034F8C8E900014FF4804E03
:1045200040F2000040F22001C6F60000C2F2002175
:1045300051F8042B40F8042B0FF007C004F020F8CA
:10454000CAE9000104F01CF804F0E6F8C5E900012E
:10455000DBE90001D5E900235940504008430DD163
:104560004EF65F00C0F2002004F046FE48E000BFB7
:1045700000008047002474490000803AD5E900011A
:10458000DBE90023801A994106F0A0FC00EE100A36
:104590009FED6F1A81EE000A9FED6E1A4DF68A703C
:1045A00020EE010A9FED6C1AC0F2002020EE010AF5
:1045B00020EE018A06F0EAFFDAE90001D8E90023DB
:1045C000821A4EF2DF1061EB0303C0F2002006F006
:1045D000DDFFD5E90001DBE90023821A4DF61A5010
:1045E00061EB0303C0F2002006F0D0FFB7EEC80A6B
:1045F0004EF29B50C0F2002053EC102B06F0C6FF89
:1046000000206060BFF34F8F216843F6E073C1F371
:104610004E30CA08C1F3C9014F1C9107420100BFC7
:1046200002EA030647F001E00E4400BF00BF00BFEE
:10463000C4F8E06106F140460FF007C00028A0F181
:104640000100A2F12002EBD1BFF34F8FBFF36F8FB8
:1046500003F096FF04F060F8CBE9000103F090FF4F
:10466000C8E900014FF4005E40F2000040F2200172
:10467000C6F60000C2F20021F1E80223E0E80223BE
:104680000FF007C003F07CFFCAE9000103F078FFD8
:1046900004F042F8C5E90001DBE90001D5E9002397
:1046A0005940504008430BD14EF65F00C0F2002045
:1046B0000AB0BDEC028B01B0BDE8F04F04F09CBD28
:1046C000D5E90001DBE90023801A994106F0FEFBE1
:1046D00000EE100A9FED1E1A81EE000A9FED1D1AD2
:1046E0004DF61E4020EE010A9FED1B1AC0F200207D
:1046F00020EE010A20EE018A06F048FFDAE9000107
:10470000D8E90023821A4EF2DF1061EB0303C0F2F6
:10471000002006F03BFFD5E90001DBE90023821A07
:104720004DF61A5061EB0303C0F2002006F02EFF95
:10473000B7EEC80A4EF29B50C0F2002053EC102B8B
:104740000AB0BDEC028B01B0BDE8F04F06F01EBF11
:1047500000008047002474490000803AD4D4D4D4A7
:104760002DE9F04F81B02DED028B8AB040F20001AF
:104770006FF0E040C6F601010A184FF6FE71CFF265
:10478000FF718A4208D84DF6E23040F20001C0F2D3
:104790000020C6F601010EE040F20002C6F600025B
:1047A000104488420FD84DF2767040F20001C0F2FA
:1047B0000020C6F600010AB0BDEC028B01B0BDE8D6
:1047C000F04F06F0E3BE4EF680540020CEF2000417
:1047D00043F6E0736060BFF34F8F54F86C0C20F425
:1047E000803044F86C0CBFF34F8F2168C1F34E301A
:1047F000CA08C1F3C9014F1C9107420100BF00BFA5
:1048000002EA030647F001E00E4400BF00BF00BF0C
:10481000C4F8F46106F140460FF007C00028A0F18B
:104820000100A2F12002EBD14EF20009CEF2010903
:10483000BFF34F8FBFF36F8FD9F8000020F0040053
:10484000C9F80000BFF34F8FBFF36F8FD9F8000096
:1048500001900198400700F19D8054F86C0CC00352
:104860002ED400206060BFF34F8F216843F6E073C1
:10487000C1F34E30CA08C1F3C9014F1C9107420170
:1048800002EA030647F001E00E4400BF00BF00BF8C
:10489000C4F8E06106F140460FF007C00028A0F11F
:1048A0000100A2F12002EBD1BFF34F8F54F86C0C42
:1048B00040F4803044F86C0CBFF34F8FBFF36F8F20
:1048C0004DF6FA40C0F2002004F096FC0020606033
:1048D000BFF34F8F216843F6E073C1F34E30CA082F
:1048E000C1F3C9014F1C9107420100BF00BF00BFC7
:1048F00002EA030647F001E00E4400BF00BF00BF1C
:10490000C4F8E06106F140460FF007C00028A0F1AE
:104910000100A2F12002EBD1BFF34F8FBFF36F8FE5
:1049200003F02EFE0DF11008C8E9000103F028FE87
:1049300003F0F2FE0DF1200B4FF4803ECBE90001B5
:1049400040F2000040F20001C2F20000C6F6010190
:1049500011F8012B00F8012B0FF007C003F010FE37
:104960000DF1080ACAE9000103F00AFE03F0D4FEC3
:1049700006ADC5E90001DBE90001D5E90023594096
:10498000504008430CD14EF65F00C0F2002004F006
:1049900033FC47E04DF60840C0F2002003F07CBD38
:1049A000D5E90001DBE90023801A994106F08EFA6F
:1049B00000EE100A9FED981A81EE000A9FED971AFB
:1049C0004EF6293020EE010A9FED951AC0F2002024
:1049D00020EE010A20EE018A06F0D8FDDAE9000196
:1049E000D8E90023821A4EF2DF1061EB0303C0F214
:1049F000002006F0CBFDD5E90001DBE90023821A97
:104A00004DF61A5061EB0303C0F2002006F0BEFD24
:104A1000B7EEC80A4EF29B50C0F2002053EC102BA8
:104A200006F0B4FD00206060BFF34F8F216843F6AD
:104A3000E073C1F34E30CA08C1F3C9014F1C91079E
:104A4000420100BF00BF00BF02EA030647F001E0D9
:104A50000E4400BF00BF00BFC4F8E06106F140464D
:104A60000FF007C00028A0F10100A2F12002EBD155
:104A7000BFF34F8FBFF36F8F03F082FD03F04CFE47
:104A8000CBE9000103F07CFDC8E900014FF4004EC2
:104A900040F2000040F20001C2F20000C6F601013F
:104AA00031F8022B20F8022B0FF007C003F068FD4D
:104AB000CAE9000103F064FD03F02EFEC5E9000120
:104AC000DBE90001D5E9002359405040084306D1F5
:104AD0004EF65F00C0F2002004F08EFB41E0D5E905
:104AE0000001DBE90023801A994106F0EFF900EE9E
:104AF000100A9FED491A81EE000A9FED481A4DF603
:104B0000671020EE010A9FED461AC0F2002020EE49
:104B1000010A20EE018A06F039FDDAE90001D8E940
:104B20000023821A4EF2DF1061EB0303C0F2002073
:104B300006F02CFDD5E90001DBE90023821A4DF6D1
:104B40001A5061EB0303C0F2002006F01FFDB7EE20
:104B5000C80A4EF29B50C0F2002053EC102B06F016
:104B600015FD00206060BFF34F8F216843F6E073AE
:104B7000C1F34E30CA08C1F3C9014F1C910742016D
:104B800002EA030647F001E00E4400BF00BF00BF89
:104B9000C4F8E06106F140460FF007C00028A0F11C
:104BA0000100A2F12002EBD1BFF34F8FBFF36F8F53
:104BB00003F0E6FC03F0B0FDCBE9000103F0E0FCFC
:104BC000C8E900014FF4804E40F2000040F20001BD
:104BD000C2F20000C6F6010151F8042B40F8042B84
:104BE0000FF007C003F0CCFCCAE9000103F0C8FCD9
:104BF00003F092FDC5E90001DBE90001D5E90023DE
:104C00005940504008430DD14EF65F00C0F20020DD
:104C100004F0F2FA48E000BF000080470024744925
:104C20000000803AD5E90001DBE90023801A9941B0
:104C300006F04CF900EE100A1FED091A81EE000A89
:104C40001FED0A1A4EF6B25020EE010A1FED0C1AA3
:104C5000C0F2002020EE010A20EE018A06F096FC48
:104C6000DAE90001D8E90023821A4EF2DF1061EB85
:104C70000303C0F2002006F089FCD5E90001DBE95E
:104C80000023821A4DF61A5061EB0303C0F2002094
:104C900006F07CFCB7EEC80A4EF29B50C0F2002032
:104CA00053EC102B06F072FC00206060BFF34F8FB6
:104CB000216843F6E073C1F34E30CA08C1F3C9015D
:104CC0004F1C9107420100BF02EA030647F001E0D2
:104CD0000E4400BF00BF00BFC4F8E06106F14046CB
:104CE0000FF007C00028A0F10100A2F12002EBD1D3
:104CF000BFF34F8FBFF36F8F03F042FC03F00CFD47
:104D0000CBE9000103F03CFCC8E900014FF4005E70
:104D100040F2000040F20001C2F20000C6F60101BC
:104D2000F1E80223E0E802230FF007C003F028FCBB
:104D3000CAE9000103F024FC03F0EEFCC5E9000120
:104D4000DBE90001D5E9002359405040084306D172
:104D50004EF65F00C0F2002004F04EFA41E0D5E9C3
:104D60000001DBE90023801A994106F0AFF800EE5C
:104D7000100A1FED571A81EE000A1FED581A4DF662
:104D8000952020EE010A1FED5A1AC0F2002020EEF5
:104D9000010A20EE018A06F0F9FBDAE90001D8E900
:104DA0000023821A4EF2DF1061EB0303C0F20020F1
:104DB00006F0ECFBD5E90001DBE90023821A4DF691
:104DC0001A5061EB0303C0F2002006F0DFFBB7EEE0
:104DD000C80A4EF29B50C0F2002053EC102B06F094
:104DE000D5FB00206060BFF34F8F216843F6E0736E
:104DF000C1F34E30CA08C1F3C9014F1C91074201EB
:104E000002EA030647F001E00E4400BF00BF00BF06
:104E1000C4F8E06106F140460FF007C00028A0F199
:104E20000100A2F12002EBD1BFF34F8FBFF36F8FD0
:104E300003F0A6FB03F070FCCBE9000103F0A0FB3C
:104E4000C8E900014FF4803E40F2000040F200014A
:104E5000C2F20000C6F6000111F8012B00F8012B88
:104E60000FF007C003F08CFBCAE9000103F088FBD8
:104E700003F052FCC5E90001DBE90001D5E900239C
:104E800059405040084306D14EF65F00C0F2002062
:104E900004F0B2F941E0D5E90001DBE90023801A12
:104EA000994106F013F800EE100A1FEDA51A81EEE5
:104EB000000A1FEDA61A4DF6570020EE010A1FED5D
:104EC000A81AC0F2002020EE010A20EE018A06F0A6
:104ED0005DFBDAE90001D8E90023821A4EF2DF1007
:104EE00061EB0303C0F2002006F050FBD5E900019E
:104EF000DBE90023821A4DF61A5061EB0303C0F27E
:104F0000002006F043FBB7EEC80A4EF29B50C0F2F9
:104F1000002053EC102B06F039FB00206060BFF33B
:104F20004F8F216843F6E073C1F34E30CA08C1F3D6
:104F3000C9014F1C9107420102EA030647F001E054
:104F40000E4400BF00BF00BFC4F8E06106F1404658
:104F50000FF007C00028A0F10100A2F12002EBD160
:104F6000BFF34F8FBFF36F8F03F00AFB03F0D4FB47
:104F7000CBE9000103F004FBC8E900014FF4004E47
:104F800040F2000040F20001C2F20000C6F600014B
:104F900031F8022B20F8022B0FF007C003F0F0FAD3
:104FA000CAE9000103F0ECFA03F0B6FBC5E9000121
:104FB000DBE90001D5E9002359405040084306D100
:104FC0004EF65F00C0F2002004F016F941E0D5E98A
:104FD0000001DBE90023801A994105F077FF00EE1C
:104FE000100A9FED971A81EE000A9FED961A4EF275
:104FF000F31020EE010A9FED941AC0F2002020EE7B
:10500000010A20EE018A06F0C1FADAE90001D8E9C6
:105010000023821A4EF2DF1061EB0303C0F200207E
:1050200006F0B4FAD5E90001DBE90023821A4DF657
:105030001A5061EB0303C0F2002006F0A7FAB7EEA6
:10504000C80A4EF29B50C0F2002053EC102B06F021
:105050009DFA00206060BFF34F8F216843F6E07334
:10506000C1F34E30CA08C1F3C9014F1C9107420178
:1050700002EA030647F001E00E4400BF00BF00BF94
:10508000C4F8E06106F140460FF007C00028A0F127
:105090000100A2F12002EBD1BFF34F8FBFF36F8F5E
:1050A00003F06EFA03F038FBCBE9000103F068FA75
:1050B000C8E900014FF4804E40F2000040F20001C8
:1050C000C2F20000C6F6000151F8042B40F8042B90
:1050D0000FF007C003F054FACAE9000103F050FAD8
:1050E00003F01AFBC5E90001DBE90001D5E9002363
:1050F00059405040084306D14EF65F00C0F20020F0
:1051000004F07AF841E0D5E90001DBE90023801AD8
:10511000994105F0DBFE00EE100A9FED491A81EE81
:10512000000A9FED481A4DF6F17020EE010A9FED3E
:10513000461AC0F2002020EE010A20EE018A06F095
:1051400025FADAE90001D8E90023821A4EF2DF10CD
:1051500061EB0303C0F2002006F018FAD5E9000164
:10516000DBE90023821A4DF61A5061EB0303C0F20B
:10517000002006F00BFAB7EEC80A4EF29B50C0F2C0
:10518000002053EC102B06F001FA00206060BFF302
:105190004F8F216843F6E073C1F34E30CA08C1F364
:1051A000C9014F1C9107420102EA030647F001E0E2
:1051B0000E4400BF00BF00BFC4F8E06106F14046E6
:1051C0000FF007C00028A0F10100A2F12002EBD1EE
:1051D000BFF34F8FBFF36F8F03F0D2F903F09CFA48
:1051E000CBE9000103F0CCF9C8E900014FF4005EFF
:1051F00040F2000040F20001C2F20000C6F60001D9
:10520000F1E80223E0E802230FF007C003F0B8F949
:10521000CAE9000103F0B4F903F07EFAC5E9000120
:10522000DBE90001D5E900235940504008430DD186
:105230004EF65F00C0F2002003F0DEFF48E000BF42
:1052400000008047002474490000803AD5E900013D
:10525000DBE90023801A994105F038FE00EE100AC0
:105260001FED091A81EE000A1FED0A1A4DF6EB60D8
:1052700020EE010A1FED0C1AC0F2002020EE010AF8
:1052800020EE018A06F082F9DAE90001D8E900236C
:10529000821A4EF2DF1061EB0303C0F2002006F029
:1052A00075F9D5E90001DBE90023821A4DF61A50A1
:1052B00061EB0303C0F2002006F068F9B7EEC80AFC
:1052C0004EF29B50C0F2002053EC102B06F05EF91A
:1052D00000206060BFF34F8F216843F6E073C1F395
:1052E0004E30CA08C1F3C9014F1C9107420100BFEB
:1052F00002EA030647F001E00E4400BF00BF00BF12
:10530000C4F8E06106F140460FF007C00028A0F1A4
:105310000100A2F12002EBD1BFF34F8FBFF36F8FDB
:1053200003F02EF903F0F8F9CBE9000103F028F9B6
:10533000C8E900014FF4803E40F2204040F20001F5
:10534000C2F20120C6F6010111F8012B00F8012B71
:105350000FF007C003F014F9CAE9000103F010F9D7
:1053600003F0DAF9C5E90001DBE90001D5E9002322
:1053700059405040084306D14EF65F00C0F200206D
:1053800003F03AFF41E0D5E90001DBE90023801A90
:10539000994105F09BFD00EE100A1FED571A81EEB2
:1053A000000A1FED581A4EF6016020EE010A1FEDAB
:1053B0005A1AC0F2002020EE010A20EE018A06F0FF
:1053C000E5F8DAE90001D8E90023821A4EF2DF108D
:1053D00061EB0303C0F2002006F0D8F8D5E9000124
:1053E000DBE90023821A4DF61A5061EB0303C0F289
:1053F000002006F0CBF8B7EEC80A4EF29B50C0F280
:10540000002053EC102B06F0C1F800206060BFF3C1
:105410004F8F216843F6E073C1F34E30CA08C1F3E1
:10542000C9014F1C9107420102EA030647F001E05F
:105430000E4400BF00BF00BFC4F8E06106F1404663
:105440000FF007C00028A0F10100A2F12002EBD16B
:10545000BFF34F8FBFF36F8F03F092F803F05CF947
:10546000CBE9000103F08CF8C8E900014FF4004ECD
:1054700040F2204040F20001C2F20120C6F60101D4
:1054800031F8022B20F8022B0FF007C003F078F858
:10549000CAE9000103F074F803F03EF9C5E9000120
:1054A000DBE90001D5E9002359405040084306D10B
:1054B0004EF65F00C0F2002003F09EFE41E0D5E909
:1054C0000001DBE90023801A994105F0FFFC00EEA2
:1054D000100A1FEDA51A81EE000A1FEDA61A4DF65F
:1054E000A60020EE010A1FEDA81AC0F2002020EE4F
:1054F000010A20EE018A06F049F8DAE90001D8E94C
:105500000023821A4EF2DF1061EB0303C0F2002089
:1055100006F03CF8D5E90001DBE90023821A4DF6DC
:105520001A5061EB0303C0F2002006F02FF8B7EE2B
:10553000C80A4EF29B50C0F2002053EC102B06F02C
:1055400025F800206060BFF34F8F216843F6E073B9
:10555000C1F34E30CA08C1F3C9014F1C9107420183
:1055600002EA030647F001E00E4400BF00BF00BF9F
:10557000C4F8E06106F140460FF007C00028A0F132
:105580000100A2F12002EBD1BFF34F8FBFF36F8F69
:1055900002F0F6FF03F0C0F8CBE9000102F0F0FFE3
:1055A000C8E900014FF4804E40F2204040F2000173
:1055B000C2F20120C6F6010151F8042B40F8042B79
:1055C0000FF007C002F0DCFFCAE9000102F0D8FFCB
:1055D00003F0A2F8C5E90001DBE90001D5E90023E9
:1055E00059405040084306D14EF65F00C0F20020FB
:1055F00003F002FE41E0D5E90001DBE90023801A57
:10560000994105F063FC00EE100A9FED971A81EEB8
:10561000000A9FED961A4EF2400020EE010A9FED1F
:10562000941AC0F2002020EE010A20EE018A05F053
:10563000ADFFDAE90001D8E90023821A4EF2DF104B
:1056400061EB0303C0F2002005F0A0FFD5E90001E3
:10565000DBE90023821A4DF61A5061EB0303C0F216
:10566000002005F093FFB7EEC80A4EF29B50C0F23F
:10567000002053EC102B05F089FF00206060BFF381
:105680004F8F216843F6E073C1F34E30CA08C1F36F
:10569000C9014F1C9107420102EA030647F001E0ED
:1056A0000E4400BF00BF00BFC4F8E06106F14046F1
:1056B0000FF007C00028A0F10100A2F12002EBD1F9
:1056C000BFF34F8FBFF36F8F02F05AFF03F024F840
:1056D000CBE9000102F054FFC8E900014FF4005E7D
:1056E00040F2204040F20001C2F20120C6F6010162
:1056F000F1E80223E0E802230FF007C002F040FFC8
:10570000CAE9000102F03CFF03F006F8C5E9000118
:10571000DBE90001D5E9002359405040084306D198
:105720004EF65F00C0F2002003F066FD41E0D5E9CF
:105730000001DBE90023801A994105F0C7FB00EE68
:10574000100A9FED491A81EE000A9FED481A4DF6A6
:10575000F50020EE010A9FED461AC0F2002020EE6F
:10576000010A20EE018A05F011FFDAE90001D8E90B
:105770000023821A4EF2DF1061EB0303C0F2002017
:1057800005F004FFD5E90001DBE90023821A4DF69C
:105790001A5061EB0303C0F2002005F0F7FEB7EEEC
:1057A000C80A4EF29B50C0F2002053EC102B05F0BB
:1057B000EDFE00206060BFF34F8F216843F6E07379
:1057C000C1F34E30CA08C1F3C9014F1C9107420111
:1057D00002EA030647F001E00E4400BF00BF00BF2D
:1057E000C4F8E06106F140460FF007C00028A0F1C0
:1057F0000100A2F12002EBD1BFF34F8FBFF36F8FF7
:1058000002F0BEFE02F088FFCBE9000102F0B8FE14
:10581000C8E900014FF4803E40F2200040F2000150
:10582000C2F20020C6F6010111F8012B00F8012B8D
:105830000FF007C002F0A4FECAE9000102F0A0FECA
:1058400002F06AFFC5E90001DBE90001D5E90023A8
:105850005940504008430DD14EF65F00C0F2002081
:1058600003F0CAFC48E000BF0000804700247449F0
:105870000000803AD5E90001DBE90023801A994154
:1058800005F024FB00EE100A1FED091A81EE000A54
:105890001FED0A1A4EF60C2020EE010A1FED0C1A1D
:1058A000C0F2002020EE010A20EE018A05F06EFE13
:1058B000DAE90001D8E90023821A4EF2DF1061EB29
:1058C0000303C0F2002005F061FED5E90001DBE929
:1058D0000023821A4DF61A5061EB0303C0F2002038
:1058E00005F054FEB7EEC80A4EF29B50C0F20020FD
:1058F00053EC102B05F04AFE00206060BFF34F8F81
:10590000216843F6E073C1F34E30CA08C1F3C90100
:105910004F1C9107420100BF02EA030647F001E075
:105920000E4400BF00BF00BFC4F8E06106F140466E
:105930000FF007C00028A0F10100A2F12002EBD176
:10594000BFF34F8FBFF36F8F02F01AFE02F0E4FE39
:10595000CBE9000102F014FEC8E900014FF4004E4B
:1059600040F2200040F20001C2F20020C6F6010120
:1059700031F8022B20F8022B0FF007C002F000FED6
:10598000CAE9000102F0FCFD02F0C6FEC5E9000113
:10599000DBE90001D5E9002359405040084306D116
:1059A0004EF65F00C0F2002003F026FC41E0D5E98E
:1059B0000001DBE90023801A994105F087FA00EE27
:1059C000100A1FED571A81EE000A1FED581A4EF209
:1059D000AE5020EE010A1FED5A1AC0F2002020EE50
:1059E000010A20EE018A05F0D1FDDAE90001D8E9CB
:1059F0000023821A4EF2DF1061EB0303C0F2002095
:105A000005F0C4FDD5E90001DBE90023821A4DF65B
:105A10001A5061EB0303C0F2002005F0B7FDB7EEAA
:105A2000C80A4EF29B50C0F2002053EC102B05F038
:105A3000ADFD00206060BFF34F8F216843F6E07337
:105A4000C1F34E30CA08C1F3C9014F1C910742018E
:105A500002EA030647F001E00E4400BF00BF00BFAA
:105A6000C4F8E06106F140460FF007C00028A0F13D
:105A70000100A2F12002EBD1BFF34F8FBFF36F8F74
:105A800002F07EFD02F048FECBE9000102F078FD55
:105A9000C8E900014FF4804E40F2200040F20001BE
:105AA000C2F20020C6F6010151F8042B40F8042B85
:105AB0000FF007C002F064FDCAE9000102F060FDCA
:105AC00002F02AFEC5E90001DBE90001D5E9002367
:105AD00059405040084306D14EF65F00C0F2002006
