:020000040200F8
:100000004004012231B60002C1B30002F1960002A1
:1000100041B6000241B6000241B6000241B60002FC
:1000200000000000000000000000000041B60002D7
:10003000F18E00020000000041B6000241B600024D
:1000400029A3000259A2000201A4000289A400020F
:0400500031AD0002CC
:1000540000000300A19A0002C19A000200000000FF
:10006400000018D80000000000000000000001009B
:04007400400900003F
:0800780001000000000000007F
:100080000146002009F0ACB883B010B581B08446B9
:1000900003A840F27044C2F202240EC003AB4FF436
:1000A00080712046624600930DF05DF900202146E4
:1000B00009F096F84EF6DD410020C0F2002109F06B
:1000C0008FF801B0BDE8104003B07047D4D4D4D449
:1000D00010B54FF212410020C0F2002109F080F863
:1000E0004EF6DD440020C0F20024214609F078F8E5
:1000F0004FF2C9610020C0F2002109F071F8002020
:100100002146BDE8104009F06BB8D4D4D4D4D4D47F
:100110002DE9F04F81B02DED088B82B04FF6FE71C6
:1001200083466FF0E040CFF2FF715844884204D814
:100130004FF22530C0F20020F1E04EF61450CEF21E
:1001400000000168C90304D44EF23040C0F2002020
:1001500032E000210167BFF34F8F016843F6E0777B
:1001600021F480310160BFF34F8FC26EC2F34E3174
:10017000D308C2F3C902561C9A074B0100BF00BF47
:1001800003EA070546F001E0154400BF00BF00BFC9
:10019000C0F8605205F140450FF007C00029A1F1F9
:1001A0000101A3F12003EBD1BFF34F8FBFF36F8F9A
:1001B0004FF24660C0F2002009F0EEFB01200090F3
:1001C000202000BF00BF00BF0099CBF80010BFF394
:1001D0004F8FBFF36F8FDBF8001001910199009AE8
:1001E0009142009A40F08C8001384FEA4201009120
:1001F000EAD14EF6E040C0F2002009F0CDFB4FF00E
:10020000D0410FF2FC404FF05A320A6040F2000138
:1002100090ED001F1620C2F2000180EF5120042251
:1002200020F001E000BF00BF20FF4244A1EC045FCA
:1002300021EE420F1FF009C04FF0160E40F20008E9
:10024000C2F200084FF0D0404FF05A31424600BF92
:1002500052F8043B19500FF005C8BFF34F8FBFF39E
:100260006F8F00214FF0D0434FF0A53E4FF05A3C26
:10027000002607E000BF00BF01360139162EC2F884
:1002800000C079D058F8260000F1D04240F803E0D1
:10029000BFF34F8FBFF36F8FC558B5F1A53F47D15F
:1002A0001D68B5F15A3F55D10027404605E000BF13
:1002B000013F043017F11604DED0B942F8D00468CB
:1002C000E558B5F15A3FF3D004F1D0434FF2BA24C8
:1002D0004EF23420C0F20024C0F2002021460BF080
:1002E000C5FE4FF25430C0F200204FF05A32214682
:1002F0002B460BF0BBFE4EF21E30C0F200200EE08B
:100300004EF6F9604FF25661019BC0F20020C0F238
:1003100000210BF0ABFE4EF2AC60C0F2002009F001
:100320003BFB012002B0BDEC088B01B0BDE8F08FB3
:100330004FF2BA244EF67D00C0F20024C0F2002035
:1003400021460BF093FE4FF2C6104FF0A532C0F2DB
:100350000020CCE74FF2BA244FF23F00C0F2002455
:10036000C0F200204FF0D04321460BF07FFE4EF646
:10037000FD50C0F20020B8E745F200094EF69400A7
:10038000C6F655094AF20008C0F200204946C6F6F2
:10039000AA080BF06BFE4FF2CE604146C0F200207F
:1003A0000BF064FEDAA080EF53204FF0000C4FF406
:1003B000807A90ED001F042185EF5A4E82FF556E22
:1003C0004AF001E04846424620EF508100BF00BF9E
:1003D00008EF52A12BFE4F0F37FE05AFA0EC10BE69
:1003E00035FE07AFA2EC10BE29EE418F0FF011C011
:1003F000BFF34F8FBFF36F8F00254E4640464A46EE
:10040000434608E001350433B5F5806F02F104027C
:1004100000F1040013D0AF0756F8047B07D0B7F102
:100420005A3F33D10768B7F1A53FEBD037E0B7F1BA
:10043000A53F2BD10768B7F15A3FE3D044E0BFF3A3
:100440004F8FBFF36F8F0CF1010CBCF57A7FB7D1E2
:100450004FF23D30C0F2002009F09EFA0020CBF8A8
:100460000000CBF80400CBF80800CBF80C004FF0EC
:10047000A531BFF34F8FBFF36F8FCBF800105A2118
:10048000BFF34F8FBFF36F8FA52232E04EF67D0092
:100490004FF2BA21C0F20020C0F2002108E04EF66F
:1004A0007D004FF2BA21C0F20020C0F200211A46AE
:1004B0000BF0DCFD4EF61E404FF0A531C0F20020DF
:1004C0003A460BF0D3FD16E74EF67D004FF2BA2107
:1004D000C0F20020C0F200211A460BF0C7FD4EF614
:1004E0001E404FF05A31E9E70BF800200130042894
:1004F00038D01BF80050A52D32D1BFF34F8FBFF37A
:100500006F8F0BF800100023BFF34F8FBFF36F8F77
:100510005F4603E001330137042BE5D09842F9D060
:100520003D78A52DF6D05A2618464EF6F44400EB39
:100530000B024EF67D00C0F20024C0F200202146DE
:100540000BF094FD4EF639402146C0F200203246B1
:100550002B460BF08BFD4FF21740C0F20020DEE679
:10056000A526E2E74FF2BE704AF2A456C0F2002080
:10057000CAF2A55609F010FA4FF0D0404FF0807142
:10058000FF224FF0D0440BF017FCBFF34F8FBFF3A7
:100590006F8F0020002109B1802910D2082242F07B
:1005A00001E04FF0FF3252000FF003C832400A431F
:1005B00044F821200131B1F5800FECD110E0B0EB0F
:1005C000D13FB1FA81F203D1182A01D01022E6E717
:1005D000A2F10903C2F12002072B38BF1822DEE77F
:1005E00000214FF0D042002008B1802813D2082308
:1005F00043F001E04FF0FF335B000FF003C83340DE
:1006000052F8204043EA0005AC4215D10130B0F564
:10061000800FE9D12BE0B1EBD03FB0FA80F303D1EA
:10062000182B01D01023E3E7A3F10907C3F120033E
:10063000072F38BF1823DBE74FF0D04101EB8002D2
:100640004EF67D004FF68411C0F20020C0F200216A
:100650000BF00CFD4EF61E402946C0F2002022464B
:100660000BF004FD4EF6F820C0F2002057E64EF2E3
:100670006070C0F2002009F08FF900F051F820B14D
:100680004EF62270C0F2002049E64EF6CE60C0F26F
:10069000002009F081F900F0E3F820B14FF2D170A9
:1006A000C0F200203BE64EF62A10C0F2002009F00E
:1006B00073F900F01DF920B14FF22C40C0F2002078
:1006C0002DE64FF2A220C0F2002009F065F940F2B9
:1006D00070500024C2F20220047000F05DF94FF463
:1006E00096704FF47A710AF027FE04F001FA204662
:1006F00018E600BF00BF00BF00BF00BF00BF00BFC3
:1007000002000000030000000400000005000000DB
:1007100000000000010000000200000003000000D3
:100720002DE9F04F81B02DED048B82B048A040F24E
:10073000000A4FF0000B4FF0D04990ED009F4FF4AE
:100740008050C2F2000A04244FF0D04640F001E08D
:100750004FEA8B30514628EF580100BF00BF00BF61
:1007600021EE402FA1EC103E21EE440F0FF009C006
:100770004FF48032304651460BF028FB06F58030AE
:100780004FF48041D0464D46D8F800203768974254
:1007900012D10436013905F1040508F10408F3D13A
:1007A0000BF1010B09F58039BBF5807F06464FF44C
:1007B0008050CBD1002044E04EF275744EF65410B8
:1007C000C0F20024C0F2002021462A460BF04EFC65
:1007D0004EF63940D8F80020C0F2002021463B46B2
:1007E0000BF044FC01200090202000BF00BF00BFA0
:1007F00000992960BFF34F8FBFF36F8F2968019174
:100800000199009A9142009A0FD101384FEA4201B2
:100810000091EDD14FF2E6604EF27571C0F200200A
:10082000C0F200210BF022FC0AE04EF6F9604FF214
:100830005661019BC0F20020C0F200210BF016FCB3
:10084000012002B0BDEC048B01B0BDE8F08F00BF09
:100850000000000001000000020000000300000092
:100860002DE9F0472A200BF0C9FB40F200084FF0B9
:1008700000094FF0D04AC2F200084FF0D0464FF0C6
:10088000D0474FF4804445460BF091FB013C45F8BE
:10089000040B47F8040BF7D106F580304FF4804184
:1008A0004346524600BF00BF53F8045B3468AC4275
:1008B00010D1013906F1040602F10402F4D109F164
:1008C00001090AF5803AB9F5807F0646D9D10020A2
:1008D000BDE8F0874FF22C104FF26361C0F20020A8
:1008E000C0F200210BF0C2FB0120BDE8F087D4D498
:1008F00070B540F2E5700BF081FB40F2000540F26C
:1009000000064FF48044C6F60105C2F2000600BF9F
:100910000BF04DFB013C46F8040B45F8040BF7D1F6
:10092000BFF34F8FBFF36F8F0AF04EFE44F24021AA
:100930000220C0F20F010AF0FFFC0AF059FE40F25B
:10094000000540F200044FF48040C2F20005C6F6F4
:10095000010400BF00BF00BF296822688A4207D196
:10096000013805F1040504F10404F5D1002070BD3F
:100970004EF236502146C0F200200BF077FB4EF2CB
:10098000475029682268C0F200200BF06FFB01205D
:1009900070BDD4D4D4D4D4D42DE9F04F81B02DED92
:1009A000028B8AB040F200016FF0E040C6F6010110
:1009B0000A184FF6FE71CFF2FF718A4208D84EF244
:1009C000C26040F20001C0F20020C6F601010EE054
:1009D00040F20002C6F60002104488420FD84EF2E0
:1009E000562040F20001C0F20020C6F600010AB015
:1009F000BDEC028B01B0BDE8F04F0BF037BB4720D8
:100A00000BF0FCFA40F200054FF48044C2F20005FE
:100A10000BF0CDFA013C45F8040BF9D140F240450A
:100A20004FF48044C2F201250BF0C1FA013C45F8B5
:100A3000040BF9D140F240054FF48044C2F2002586
:100A40000BF0B5FA013C45F8040BF9D14EF2000168
:100A5000CEF20101086820F004000860BFF34F8F58
:100A6000BFF36F8F086801900198400700F1A280E2
:100A70004EF68057CEF2000757F86C0CC0032FD407
:100A800000207860BFF34F8F396843F6E073C1F3FD
:100A90004E30CA08C1F3C9014E1C9107420100BF84
:100AA00002EA030546F001E00D4400BF00BF00BFAD
:100AB000C7F8E05105F140450FF007C00028A0F14C
:100AC0000100A2F12002EBD1BFF34F8F57F86C0C5D
:100AD00040F4803047F86C0CBFF34F8FBFF36F8F3B
:100AE0004EF2DA70C0F2002008F056FF0020786065
:100AF000BFF34F8F396843F6E073C1F34E30CA0835
:100B0000C1F3C9014E1C9107420100BF00BF00BFE5
:100B100002EA030546F001E00D4400BF00BF00BF3C
:100B2000C7F8E05105F140450FF007C00028A0F1DB
:100B30000100A2F12002EBD1BFF34F8FBFF36F8F03
:100B400008F09AF80DF1100ACAE9000108F094F8CB
:100B500008F0B2F90DF120094FF4803EC9E9000117
:100B600040F2000040F20001C6F60100C2F20001AE
:100B700011F8012B00F8012B0FF007C008F07CF8EA
:100B80000DF10808C8E9000108F076F808F094F9BA
:100B900006ACC4E90001D9E90001D4E900235940B9
:100BA000504008430CD14FF24640C0F2002008F0FC
:100BB000F3FE47E04EF2E860C0F2002003F040BFD1
:100BC000D4E90001D9E90023801A99410AF0F2FE24
:100BD00000EE100A9FED981A81EE000A9FED971A19
:100BE0004EF6605020EE010A9FED951AC0F20020EB
:100BF00020EE010A20EE018A0BF038FAD8E9000154
:100C0000DAE90023821A4EF6FD4061EB0303C0F2DD
:100C100000200BF02BFAD4E90001D9E90023821A55
:100C20004EF2FA7061EB0303C0F200200BF01EFAE3
:100C3000B7EEC80A4FF24410C0F2002053EC102B5C
:100C40000BF014FA00207860BFF34F8F396843F639
:100C5000E073C1F34E30CA08C1F3C9014E1C9107BD
:100C6000420100BF00BF00BF02EA030546F001E0F9
:100C70000D4400BF00BF00BFC7F8E05105F140457B
:100C80000FF007C00028A0F10100A2F12002EBD173
:100C9000BFF34F8FBFF36F8F07F0EEFF08F00CF933
:100CA000C9E9000107F0E8FFCAE900014FF4004E6E
:100CB00040F2000040F20001C6F60100C2F200015D
:100CC00031F8022B20F8022B0FF007C007F0D4FFF9
:100CD000C8E9000107F0D0FF08F0EEF8C4E9000110
:100CE000D9E90001D4E9002359405040084306D116
:100CF0004FF24640C0F2002008F04EFE41E0D4E939
:100D00000001D9E90023801A99410AF053FE00EE50
:100D1000100A9FED491A81EE000A9FED481A4EF223
:100D2000E75020EE010A9FED461AC0F2002020EEA7
:100D3000010A20EE018A0BF099F9D8E90001DAE9FD
:100D40000023821A4EF6FD4061EB0303C0F200203F
:100D50000BF08CF9D4E90001D9E90023821A4EF294
:100D6000FA7061EB0303C0F200200BF07FF9B7EEDD
:100D7000C80A4FF24410C0F2002053EC102B0BF0C5
:100D800075F900207860BFF34F8F396843F6E07340
:100D9000C1F34E30CA08C1F3C9014E1C910742018C
:100DA00002EA030546F001E00D4400BF00BF00BFAA
:100DB000C7F8E05105F140450FF007C00028A0F149
:100DC0000100A2F12002EBD1BFF34F8FBFF36F8F71
:100DD00007F052FF08F070F8C9E9000107F04CFF76
:100DE000CAE900014FF4804E40F2000040F20001D9
:100DF000C6F60100C2F2000151F8042B40F8042BA2
:100E00000FF007C007F038FFC8E9000107F034FF12
:100E100008F052F8C4E90001D9E90001D4E900233F
:100E20005940504008430DD14FF24640C0F20020D7
:100E300008F0B2FD48E000BF00008047002474497C
:100E40000000803AD4E90001D9E90023801A9941D1
:100E50000AF0B0FD00EE100A1FED091A81EE000A3B
:100E60001FED0A1A4FF25F7020EE010A1FED0C1AF7
:100E7000C0F2002020EE010A20EE018A0BF0F6F805
:100E8000D8E90001DAE90023821A4EF6FD4061EB51
:100E90000303C0F200200BF0E9F8D4E90001D9E91E
:100EA0000023821A4EF2FA7061EB0303C0F20020B5
:100EB0000BF0DCF8B7EEC80A4FF24410C0F2002085
:100EC00053EC102B0BF0D2F800207860BFF34F8F5B
:100ED000396843F6E073C1F34E30CA08C1F3C90163
:100EE0004E1C9107420100BF02EA030546F001E0F3
:100EF0000D4400BF00BF00BFC7F8E05105F14045F9
:100F00000FF007C00028A0F10100A2F12002EBD1F0
:100F1000BFF34F8FBFF36F8F07F0AEFE07F0CCFF2C
:100F2000C9E9000107F0A8FECAE900014FF4005E1C
:100F300040F2000040F20001C6F60100C2F20001DA
:100F4000F1E80223E0E802230FF007C007F094FE67
:100F5000C8E9000107F090FE07F0AEFFC4E9000108
:100F6000D9E90001D4E9002359405040084306D193
:100F70004FF24640C0F2002008F00EFD41E0D4E9F7
:100F80000001D9E90023801A99410AF013FD00EE0F
:100F9000100A1FED571A81EE000A1FED581A4EF67F
:100FA000266020EE010A1FED5A1AC0F2002020EE42
:100FB000010A20EE018A0BF059F8D8E90001DAE9BC
:100FC0000023821A4EF6FD4061EB0303C0F20020BD
:100FD0000BF04CF8D4E90001D9E90023821A4EF253
:100FE000FA7061EB0303C0F200200BF03FF8B7EE9C
:100FF000C80A4FF24410C0F2002053EC102B0BF043
:1010000035F800207860BFF34F8F396843F6E073FE
:10101000C1F34E30CA08C1F3C9014E1C9107420109
:1010200002EA030546F001E00D4400BF00BF00BF27
:10103000C7F8E05105F140450FF007C00028A0F1C6
:101040000100A2F12002EBD1BFF34F8FBFF36F8FEE
:1010500007F012FE07F030FFC9E9000107F00CFEAF
:10106000CAE900014FF4803E40F2000040F2000166
:10107000C6F60000C2F2000111F8012B00F8012BA6
:101080000FF007C007F0F8FDC8E9000107F0F4FD14
:1010900007F012FFC4E90001D9E90001D4E90023F7
:1010A00059405040084306D14FF24640C0F200205C
:1010B00008F072FC41E0D4E90001D9E90023801A6C
:1010C00099410AF077FC00EE100A1FEDA51A81EE97
:1010D000000A1FEDA61A4FF2753020EE010A1FED2F
:1010E000A81AC0F2002020EE010A20EE018A0AF0C0
:1010F000BDFFD8E90001DAE90023821A4EF6FD406F
:1011000061EB0303C0F200200AF0B0FFD4E9000154
:10111000D9E90023821A4EF2FA7061EB0303C0F2A0
:1011200000200AF0A3FFB7EEC80A4FF24410C0F245
:10113000002053EC102B0AF099FF00207860BFF3D9
:101140004F8F396843F6E073C1F34E30CA08C1F3DC
:10115000C9014E1C9107420102EA030546F001E075
:101160000D4400BF00BF00BFC7F8E05105F1404586
:101170000FF007C00028A0F10100A2F12002EBD17E
:10118000BFF34F8FBFF36F8F07F076FD07F094FE2C
:10119000C9E9000107F070FDCAE900014FF4004EF3
:1011A00040F2000040F20001C6F60000C2F2000169
:1011B00031F8022B20F8022B0FF007C007F05CFD7E
:1011C000C8E9000107F058FD07F076FEC4E9000108
:1011D000D9E90001D4E9002359405040084306D121
:1011E0004FF24640C0F2002008F0D6FB41E0D4E9BF
:1011F0000001D9E90023801A99410AF0DBFB00EED7
:10120000100A9FED991A81EE000A9FED981A4FF28D
:10121000BB4020EE010A9FED961AC0F2002020EE9E
:10122000010A20EE018A0AF021FFD8E90001DAE97B
:101230000023821A4EF6FD4061EB0303C0F200204A
:101240000AF014FFD4E90001D9E90023821A4EF212
:10125000FA7061EB0303C0F200200AF007FFB7EE5B
:10126000C80A4FF24410C0F2002053EC102B0AF0D1
:10127000FDFE00207860BFF34F8F396843F6E073BE
:10128000C1F34E30CA08C1F3C9014E1C9107420197
:1012900002EA030546F001E00D4400BF00BF00BFB5
:1012A000C7F8E05105F140450FF007C00028A0F154
:1012B0000100A2F12002EBD1BFF34F8FBFF36F8F7C
:1012C00007F0DAFC07F0F8FDC9E9000107F0D4FCEB
:1012D000CAE900014FF4804E40F2000040F20001E4
:1012E000C6F60000C2F2000151F8042B40F8042BAE
:1012F0000FF007C007F0C0FCC8E9000107F0BCFC14
:1013000007F0DAFDC4E90001D9E90001D4E90023BE
:1013100059405040084306D14FF24640C0F20020E9
:1013200008F03AFB41E0D4E90001D9E90023801A32
:1013300099410AF03FFB00EE100A9FED4B1A81EE37
:10134000000A9FED4A1A4EF28A7020EE010A9FEDC4
:10135000481AC0F2002020EE010A20EE018A0AF0AD
:1013600085FED8E90001DAE90023821A4EF6FD4035
:1013700061EB0303C0F200200AF078FED4E900011B
:10138000D9E90023821A4EF2FA7061EB0303C0F22E
:1013900000200AF06BFEB7EEC80A4FF24410C0F20C
:1013A000002053EC102B0AF061FE00207860BFF3A0
:1013B0004F8F396843F6E073C1F34E30CA08C1F36A
:1013C000C9014E1C9107420102EA030546F001E003
:1013D0000D4400BF00BF00BFC7F8E05105F1404514
:1013E0000FF007C00028A0F10100A2F12002EBD10C
:1013F000BFF34F8FBFF36F8F07F03EFC07F05CFD2C
:10140000C9E9000107F038FCCAE900014FF4005EA9
:1014100040F2000BC2F2000B40F20000C6F60000E2
:10142000594600BF00BF00BFF1E80223E0E80223F5
:101430000FF007C007F020FCC8E9000107F01CFC12
:1014400007F03AFDC4E90001D9E90001D4E900231D
:101450005940504008430DD14FF24640C0F20020A1
:1014600008F09AFA48E000BF000080470024744961
:101470000000803AD4E90001D9E90023801A99419B
:101480000AF098FA00EE100A1FED091A81EE000A20
:101490001FED0A1A4FF2855020EE010A1FED0C1ABB
:1014A000C0F2002020EE010A20EE018A0AF0DEFDE3
:1014B000D8E90001DAE90023821A4EF6FD4061EB1B
:1014C0000303C0F200200AF0D1FDD4E90001D9E9FC
:1014D0000023821A4EF2FA7061EB0303C0F200207F
:1014E0000AF0C4FDB7EEC80A4FF24410C0F2002063
:1014F00053EC102B0AF0BAFD00207860BFF34F8F39
:10150000396843F6E073C1F34E30CA08C1F3C9012C
:101510004E1C9107420100BF02EA030546F001E0BC
:101520000D4400BF00BF00BFC7F8E05105F14045C2
:101530000FF007C00028A0F10100A2F12002EBD1BA
:10154000BFF34F8FBFF36F8F07F096FB07F0B4FC2C
:10155000C9E9000107F090FBCAE900014FF4803EA1
:1015600040F2000040F24041C6F60100C2F2012103
:1015700011F8012B00F8012B0FF007C007F07CFBDE
:10158000C8E9000107F078FB07F096FCC4E9000108
:10159000D9E90001D4E9002359405040084306D15D
:1015A0004FF24640C0F2002008F0F6F941E0D4E9DD
:1015B0000001D9E90023801A99410AF0FBF900EEF5
:1015C000100A1FED571A81EE000A1FED581A4FF648
:1015D0009B0020EE010A1FED5A1AC0F2002020EEF7
:1015E000010A20EE018A0AF041FDD8E90001DAE99A
:1015F0000023821A4EF6FD4061EB0303C0F2002087
:101600000AF034FDD4E90001D9E90023821A4EF230
:10161000FA7061EB0303C0F200200AF027FDB7EE79
:10162000C80A4FF24410C0F2002053EC102B0AF00D
:101630001DFD00207860BFF34F8F396843F6E073DB
:10164000C1F34E30CA08C1F3C9014E1C91074201D3
:1016500002EA030546F001E00D4400BF00BF00BFF1
:10166000C7F8E05105F140450FF007C00028A0F190
:101670000100A2F12002EBD1BFF34F8FBFF36F8FB8
:1016800007F0FAFA07F018FCC9E9000107F0F4FACC
:10169000CAE900014FF4004E40F2000040F2404120
:1016A000C6F60100C2F2012131F8022B20F8022B0C
:1016B0000FF007C007F0E0FAC8E9000107F0DCFA14
:1016C00007F0FAFBC4E90001D9E90001D4E90023DD
:1016D00059405040084306D14FF24640C0F2002026
:1016E00008F05AF941E0D4E90001D9E90023801A51
:1016F00099410AF05FF900EE100A1FEDA51A81EE7C
:10170000000A1FEDA61A4EF6582020EE010A1FED22
:10171000A81AC0F2002020EE010A20EE018A0AF089
:10172000A5FCD8E90001DAE90023821A4EF6FD4053
:1017300061EB0303C0F200200AF098FCD4E9000139
:10174000D9E90023821A4EF2FA7061EB0303C0F26A
:1017500000200AF08BFCB7EEC80A4FF24410C0F22A
:10176000002053EC102B0AF081FC00207860BFF3BE
:101770004F8F396843F6E073C1F34E30CA08C1F3A6
:10178000C9014E1C9107420102EA030546F001E03F
:101790000D4400BF00BF00BFC7F8E05105F1404550
:1017A0000FF007C00028A0F10100A2F12002EBD148
:1017B000BFF34F8FBFF36F8F07F05EFA07F07CFB2C
:1017C000C9E9000107F058FACAE900014FF4804E58
:1017D00040F2000040F24041C6F60100C2F2012191
:1017E00051F8042B40F8042B0FF007C007F044FA1F
:1017F000C8E9000107F040FA07F05EFBC4E9000108
:10180000D9E90001D4E9002359405040084306D1EA
:101810004FF24640C0F2002008F0BEF841E0D4E9A3
:101820000001D9E90023801A99410AF0C3F800EEBB
:10183000100A9FED971A81EE000A9FED961A4FF657
:10184000EB0020EE010A9FED941AC0F2002020EE7A
:10185000010A20EE018A0AF009FCD8E90001DAE960
:101860000023821A4EF6FD4061EB0303C0F2002014
:101870000AF0FCFBD4E90001D9E90023821A4EF2F8
:10188000FA7061EB0303C0F200200AF0EFFBB7EE41
:10189000C80A4FF24410C0F2002053EC102B0AF09B
:1018A000E5FB00207860BFF34F8F396843F6E073A3
:1018B000C1F34E30CA08C1F3C9014E1C9107420161
:1018C00002EA030546F001E00D4400BF00BF00BF7F
:1018D000C7F8E05105F140450FF007C00028A0F11E
:1018E0000100A2F12002EBD1BFF34F8FBFF36F8F46
:1018F00007F0C2F907F0E0FAC9E9000107F0BCF906
:10190000CAE900014FF4005E40F2000040F240419D
:10191000C6F60100C2F20121F1E80223E0E8022349
:101920000FF007C007F0A8F9C8E9000107F0A4F913
:1019300007F0C2FAC4E90001D9E90001D4E90023A3
:1019400059405040084306D14FF24640C0F20020B3
:1019500008F022F841E0D4E90001D9E90023801A17
:1019600099410AF027F800EE100A9FED491A81EE1E
:10197000000A9FED481A4EF6B91020EE010A9FEDBD
:10198000461AC0F2002020EE010A20EE018A0AF079
:101990006DFBD8E90001DAE90023821A4EF6FD401A
:1019A00061EB0303C0F200200AF060FBD4E9000100
:1019B000D9E90023821A4EF2FA7061EB0303C0F2F8
:1019C00000200AF053FBB7EEC80A4FF24410C0F2F1
:1019D000002053EC102B0AF049FB00207860BFF385
:1019E0004F8F396843F6E073C1F34E30CA08C1F334
:1019F000C9014E1C9107420102EA030546F001E0CD
:101A00000D4400BF00BF00BFC7F8E05105F14045DD
:101A10000FF007C00028A0F10100A2F12002EBD1D5
:101A2000BFF34F8FBFF36F8F07F026F907F044FA2B
:101A3000C9E9000107F020F9CAE900014FF4803E2E
:101A400040F2000040F24041C6F60000C2F201211F
:101A500011F8012B00F8012B0FF007C007F00CF96B
:101A6000C8E9000107F008F907F026FAC4E9000107
:101A7000D9E90001D4E900235940504008430DD171
:101A80004FF24640C0F2002007F086FF48E000BF5A
:101A900000008047002474490000803AD4E9000126
:101AA000D9E90023801A994109F084FF00EE100A59
:101AB0001FED091A81EE000A1FED0A1A4EF6766034
:101AC00020EE010A1FED0C1AC0F2002020EE010AE0
:101AD00020EE018A0AF0CAFAD8E90001DAE9002307
:101AE000821A4EF6FD4061EB0303C0F200200AF0BB
:101AF000BDFAD4E90001D9E90023821A4EF2FA7046
:101B000061EB0303C0F200200AF0B0FAB7EEC80A96
:101B10004FF24410C0F2002053EC102B0AF0A6FA4A
:101B200000207860BFF34F8F396843F6E073C1F34C
:101B30004E30CA08C1F3C9014E1C9107420100BFD3
:101B400002EA030546F001E00D4400BF00BF00BFFC
:101B5000C7F8E05105F140450FF007C00028A0F19B
:101B60000100A2F12002EBD1BFF34F8FBFF36F8FC3
:101B700007F082F807F0A0F9C9E9000107F07CF846
:101B8000CAE900014FF4004E40F2000040F240412B
:101B9000C6F60000C2F2012131F8022B20F8022B18
:101BA0000FF007C007F068F8C8E9000107F064F813
:101BB00007F082F9C4E90001D9E90001D4E9002362
:101BC00059405040084306D14FF24640C0F2002031
:101BD00007F0E2FE41E0D4E90001D9E90023801AD0
:101BE000994109F0E7FE00EE100A1FED571A81EE49
:101BF000000A1FED581A4FF26E0020EE010A1FED89
:101C00005A1AC0F2002020EE010A20EE018A0AF0E2
:101C10002DFAD8E90001DAE90023821A4EF6FD40D8
:101C200061EB0303C0F200200AF020FAD4E90001BE
:101C3000D9E90023821A4EF2FA7061EB0303C0F275
:101C400000200AF013FAB7EEC80A4FF24410C0F2AF
:101C5000002053EC102B0AF009FA00207860BFF343
:101C60004F8F396843F6E073C1F34E30CA08C1F3B1
:101C7000C9014E1C9107420102EA030546F001E04A
:101C80000D4400BF00BF00BFC7F8E05105F140455B
:101C90000FF007C00028A0F10100A2F12002EBD153
:101CA000BFF34F8FBFF36F8F06F0E6FF07F004F925
:101CB000C9E9000106F0E0FFCAE900014FF4804ED7
:101CC00040F2000040F24041C6F60000C2F201219D
:101CD00051F8042B40F8042B0FF007C006F0CCFF9E
:101CE000C8E9000106F0C8FF07F0E6F8C4E9000102
:101CF000D9E90001D4E9002359405040084306D1F6
:101D00004FF24640C0F2002007F046FE41E0D4E921
:101D10000001D9E90023801A994109F04BFE00EE39
:101D2000100A1FEDA51A81EE000A1FEDA61A4EF249
:101D3000964020EE010A1FEDA81AC0F2002020EE06
:101D4000010A20EE018A0AF091F9D8E90001DAE9E6
:101D50000023821A4EF6FD4061EB0303C0F200201F
:101D60000AF084F9D4E90001D9E90023821A4EF27D
:101D7000FA7061EB0303C0F200200AF077F9B7EEC6
:101D8000C80A4FF24410C0F2002053EC102B0AF0A6
:101D90006DF900207860BFF34F8F396843F6E07328
:101DA000C1F34E30CA08C1F3C9014E1C910742016C
:101DB00002EA030546F001E00D4400BF00BF00BF8A
:101DC000C7F8E05105F140450FF007C00028A0F129
:101DD0000100A2F12002EBD1BFF34F8FBFF36F8F51
:101DE00006F04AFF07F068F8C9E9000106F044FF71
:101DF000CAE900014FF4005E40F2404140F20000A9
:101E0000C2F20121C6F60000F1E80223E0E8022355
:101E10000FF007C006F030FFC8E9000106F02CFF04
:101E200007F04AF8C4E90001D9E90001D4E9002328
:101E300059405040084306D14FF24640C0F20020BE
:101E400007F0AAFD41E0D4E90001D9E90023801A96
:101E5000994109F0AFFD00EE100A9FED971A81EE4F
:101E6000000A9FED961A4FF2BE0020EE010A9FED88
:101E7000941AC0F2002020EE010A20EE018A0AF036
:101E8000F5F8D8E90001DAE90023821A4EF6FD40A0
:101E900061EB0303C0F200200AF0E8F8D4E9000186
:101EA000D9E90023821A4EF2FA7061EB0303C0F203
:101EB00000200AF0DBF8B7EEC80A4FF24410C0F277
:101EC000002053EC102B0AF0D1F800207860BFF30B
:101ED0004F8F396843F6E073C1F34E30CA08C1F33F
:101EE000C9014E1C9107420102EA030546F001E0D8
:101EF0000D4400BF00BF00BFC7F8E05105F14045E9
:101F00000FF007C00028A0F10100A2F12002EBD1E0
:101F1000BFF34F8FBFF36F8F06F0AEFE06F0CCFF1E
:101F2000C9E9000106F0A8FECAE900014FF4803EAD
:101F300040F2000040F24001C6F60100C2F200216A
:101F400011F8012B00F8012B0FF007C006F094FEEA
:101F5000C8E9000106F090FE06F0AEFFC4E90001FA
:101F6000D9E90001D4E9002359405040084306D183
:101F70004FF24640C0F2002007F00EFD41E0D4E9E8
:101F80000001D9E90023801A994109F013FD00EE00
:101F9000100A9FED491A81EE000A9FED481A4EF291
:101FA000CE2020EE010A9FED461AC0F2002020EE5E
:101FB000010A20EE018A0AF059F8D8E90001DAE9AD
:101FC0000023821A4EF6FD4061EB0303C0F20020AD
:101FD0000AF04CF8D4E90001D9E90023821A4EF244
:101FE000FA7061EB0303C0F200200AF03FF8B7EE8D
:101FF000C80A4FF24410C0F2002053EC102B0AF034
:1020000035F800207860BFF34F8F396843F6E073EE
:10201000C1F34E30CA08C1F3C9014E1C91074201F9
:1020200002EA030546F001E00D4400BF00BF00BF17
:10203000C7F8E05105F140450FF007C00028A0F1B6
:102040000100A2F12002EBD1BFF34F8FBFF36F8FDE
:1020500006F012FE06F030FFC9E9000106F00CFEA2
:10206000CAE900014FF4004E40F2000040F2400186
:10207000C6F60100C2F2002131F8022B20F8022B33
:102080000FF007C006F0F8FDC8E9000106F0F4FD06
:1020900006F012FFC4E90001D9E90001D4E90023E8
:1020A0005940504008430DD14FF24640C0F2002045
:1020B00007F072FC48E000BF00008047002474492C
:1020C0000000803AD4E90001D9E90023801A99413F
:1020D00009F070FC00EE100A1FED091A81EE000AEB
:1020E0001FED0A1A4EF2376020EE010A1FED0C1A9E
:1020F000C0F2002020EE010A20EE018A09F0B6FFAE
:10210000D8E90001DAE90023821A4EF6FD4061EBBE
:102110000303C0F2002009F0A9FFD4E90001D9E9C6
:102120000023821A4EF2FA7061EB0303C0F2002022
:1021300009F09CFFB7EEC80A4FF24410C0F200202D
:1021400053EC102B09F092FF00207860BFF34F8F03
:10215000396843F6E073C1F34E30CA08C1F3C901D0
:102160004E1C9107420100BF02EA030546F001E060
:102170000D4400BF00BF00BFC7F8E05105F1404566
:102180000FF007C00028A0F10100A2F12002EBD15E
:10219000BFF34F8FBFF36F8F06F06EFD06F08CFE1E
:1021A000C9E9000106F068FDCAE900014FF4804E5C
:1021B00040F2000040F24001C6F60100C2F20021E8
:1021C00051F8042B40F8042B0FF007C006F054FD23
:1021D000C8E9000106F050FD06F06EFEC4E90001FA
:1021E000D9E90001D4E9002359405040084306D101
:1021F0004FF24640C0F2002007F0CEFB41E0D4E9A8
:102200000001D9E90023801A994109F0D3FB00EEBF
:10221000100A1FED571A81EE000A1FED581A4EF6EC
:10222000594020EE010A1FED5A1AC0F2002020EE9C
:10223000010A20EE018A09F019FFD8E90001DAE964
:102240000023821A4EF6FD4061EB0303C0F200202A
:1022500009F00CFFD4E90001D9E90023821A4EF2FB
:10226000FA7061EB0303C0F2002009F0FFFEB7EE45
:10227000C80A4FF24410C0F2002053EC102B09F0B2
:10228000F5FE00207860BFF34F8F396843F6E073A6
:10229000C1F34E30CA08C1F3C9014E1C9107420177
:1022A00002EA030546F001E00D4400BF00BF00BF95
:1022B000C7F8E05105F140450FF007C00028A0F134
:1022C0000100A2F12002EBD1BFF34F8FBFF36F8F5C
:1022D00006F0D2FC06F0F0FDC9E9000106F0CCFCE6
:1022E000CAE900014FF4005E40F2000140F24000F4
:1022F000C6F60101C2F20020F0E80223E1E8022361
:102300000FF007C006F0B8FCC8E9000106F0B4FC05
:1023100006F0D2FDC4E90001D9E90001D4E90023A7
:1023200059405040084306D14FF24640C0F20020C9
:1023300007F032FB41E0D4E90001D9E90023801A1B
:10234000994109F037FB00EE100A1FEDA51A81EE46
:10235000000A1FEDA61A4EF6AD3020EE010A1FED61
:10236000A81AC0F2002020EE010A20EE018A09F02E
:102370007DFED8E90001DAE90023821A4EF6FD401D
:1023800061EB0303C0F2002009F070FED4E9000104
:10239000D9E90023821A4EF2FA7061EB0303C0F20E
:1023A000002009F063FEB7EEC80A4FF24410C0F2F5
:1023B000002053EC102B09F059FE00207860BFF389
:1023C0004F8F396843F6E073C1F34E30CA08C1F34A
:1023D000C9014E1C9107420102EA030546F001E0E3
:1023E0000D4400BF00BF00BFC7F8E05105F14045F4
:1023F0000FF007C00028A0F10100A2F12002EBD1EC
:10240000BFF34F8FBFF36F8F06F036FC06F054FD1D
:10241000C9E9000106F030FCCAE900014FF4803E32
:1024200040F2000040F24001C6F60000C2F2002176
:1024300011F8012B00F8012B0FF007C006F01CFC6F
:10244000C8E9000106F018FC06F036FDC4E90001F9
:10245000D9E90001D4E9002359405040084306D18E
:102460004FF24640C0F2002007F096FA41E0D4E96E
:102470000001D9E90023801A994109F09BFA00EE86
:10248000100A9FED971A81EE000A9FED961A4FF2FF
:10249000796020EE010A9FED941AC0F2002020EE30
:1024A000010A20EE018A09F0E1FDD8E90001DAE92C
:1024B0000023821A4EF6FD4061EB0303C0F20020B8
:1024C00009F0D4FDD4E90001D9E90023821A4EF2C3
:1024D000FA7061EB0303C0F2002009F0C7FDB7EE0C
:1024E000C80A4FF24410C0F2002053EC102B09F040
:1024F000BDFD00207860BFF34F8F396843F6E0736D
:10250000C1F34E30CA08C1F3C9014E1C9107420104
:1025100002EA030546F001E00D4400BF00BF00BF22
:10252000C7F8E05105F140450FF007C00028A0F1C1
:102530000100A2F12002EBD1BFF34F8FBFF36F8FE9
:1025400006F09AFB06F0B8FCC9E9000106F094FB1E
:10255000CAE900014FF4004E40F2000040F2400191
:10256000C6F60000C2F2002131F8022B20F8022B3F
:102570000FF007C006F080FBC8E9000106F07CFB05
:1025800006F09AFCC4E90001D9E90001D4E900236E
:1025900059405040084306D14FF24640C0F2002057
:1025A00007F0FAF941E0D4E90001D9E90023801AE3
:1025B000994109F0FFF900EE100A9FED491A81EEEA
:1025C000000A9FED481A4EF2E64020EE010A9FED08
:1025D000461AC0F2002020EE010A20EE018A09F01E
:1025E00045FDD8E90001DAE90023821A4EF6FD40E4
:1025F00061EB0303C0F2002009F038FDD4E90001CB
:10260000D9E90023821A4EF2FA7061EB0303C0F29B
:10261000002009F02BFDB7EEC80A4FF24410C0F2BB
:10262000002053EC102B09F021FD00207860BFF34F
:102630004F8F396843F6E073C1F34E30CA08C1F3D7
:10264000C9014E1C9107420102EA030546F001E070
:102650000D4400BF00BF00BFC7F8E05105F1404581
:102660000FF007C00028A0F10100A2F12002EBD179
:10267000BFF34F8FBFF36F8F06F0FEFA06F01CFC1E
:10268000C9E9000106F0F8FACAE900014FF4804EEA
:1026900040F2000040F24001C6F60000C2F2002104
:1026A00051F8042B40F8042B0FF007C006F0E4FAB1
:1026B000C8E9000106F0E0FA06F0FEFBC4E90001FB
:1026C000D9E90001D4E900235940504008430DD115
:1026D0004FF24640C0F2002007F05EF948E000BF2C
:1026E00000008047002474490000803AD4E90001CA
:1026F000D9E90023801A994109F05CF900EE100A2B
:102700001FED091A81EE000A1FED0A1A4EF6A820E5
:1027100020EE010A1FED0C1AC0F2002020EE010A83
:1027200020EE018A09F0A2FCD8E90001DAE90023D1
:10273000821A4EF6FD4061EB0303C0F2002009F05F
:1027400095FCD4E90001D9E90023821A4EF2FA700F
:1027500061EB0303C0F2002009F088FCB7EEC80A61
:102760004FF24410C0F2002053EC102B09F07EFC15
:1027700000207860BFF34F8F396843F6E073C1F3F0
:102780004E30CA08C1F3C9014E1C9107420100BF77
:1027900002EA030546F001E00D4400BF00BF00BFA0
:1027A000C7F8E05105F140450FF007C00028A0F13F
:1027B0000100A2F12002EBD1BFF34F8FBFF36F8F67
:1027C00006F05AFA06F078FBC9E9000106F054FA5F
:1027D000CAE900014FF4005E40F2000040F24001FF
:1027E000C6F60000C2F20021F1E80223E0E802236D
:1027F0000FF007C006F040FAC8E9000106F03CFA05
:1028000006F05AFBC4E90001D9E90001D4E900232C
:1028100059405040084306D14FF24640C0F20020D4
:1028200007F0BAF841E0D4E90001D9E90023801AA1
:10283000994109F0BFF800EE100A1FED571A81EE1A
:10284000000A1FED581A4EF2FE6020EE010A1FED3D
:102850005A1AC0F2002020EE010A20EE018A09F087
:1028600005FCD8E90001DAE90023821A4EF6FD40A2
:1028700061EB0303C0F2002009F0F8FBD4E900018A
:10288000D9E90023821A4EF2FA7061EB0303C0F219
:10289000002009F0EBFBB7EEC80A4FF24410C0F27B
:1028A000002053EC102B09F0E1FB4FF0D0404FF02B
:1028B000807109F086FAC8204FF47A7108F03CFD67
:1028C0004EF6B050C0F2002007F066F800207860A5
:1028D000BFF34F8F396843F6E073C1F34E30CA0837
:1028E000C1F3C9014E1C9107420100BF00BF00BFE8
:1028F00002EA030546F001E00D4400BF00BF00BF3F
:10290000C7F8E05105F140450FF007C00028A0F1DD
:102910000100A2F12002EBD140F2705840F2100900
:10292000C2F20228C2F20029BFF34F8FBFF36F8FAC
:10293000002088F800000820A9F80C004FF48060FF
:10294000A9F80E0040F20000C6F60100C9F8080020
:102950000BF1006000F50030C9F80400D9F8000060
:1029600040F04050C9F8000006F086F906F0A4FADD
:1029700008AAC2E9000106F07FF94FF6E022CAE991
:102980000001C0F20022D2E9004B2046594607F070
:10299000F7FF2046494608F033F8204608F070F863
:1029A0000121204608F088F898F8000008B900BF17
:1029B000FAE706F061F902AEC6E9000106F05CF93B
:1029C00006F07AFA0DF1180ACAE90001204608F06B
:1029D0009BF808ADD5E90001DAE9002359405040E1
:1029E000084306D14FF24640C0F2002006F0D4FF63
:1029F00042E0DAE90001D5E90023801A994108F0A4
:102A0000D9FF00EE100A1FEDCA1A81EE000A1FED71
:102A1000CB1A4EF64F7020EE010A1FEDCD1AC0F210
:102A2000002020EE010A20EE018A09F01FFB04AA13
:102A3000D6E90001D2E90023821A4EF6FD4061EB8F
:102A40000303C0F2002009F011FBDAE90001D5E927
:102A50000023821A4EF2FA7061EB0303C0F20020E9
:102A600009F004FBB7EEC80A4FF24410C0F2002090
:102A700053EC102B09F0FAFA00207860BFF34F8F67
:102A8000396843F6E073C1F34E30CA08C1F3C90197
:102A90004E1C9107420100BF02EA030546F001E027
:102AA0000D4400BF00BF00BFC7F8E05105F140452D
:102AB0000FF007C00028A0F10100A2F12002EBD125
:102AC000BFF34F8FBFF36F8F002088F800000820FE
:102AD000A9F80C004FF48060A9F80E0040F2000045
:102AE000C6F60100C9F8080040F24040C2F20120D9
:102AF000C9F80400D9F8000040F04050C9F80000BF
:102B000006F0BAF806F0D8F908AAC2E9000106F002
:102B1000B3F804AAC2E900012046594607F030FF85
:102B20002046494607F06CFF204607F0A9FF012127
:102B3000204607F0C1FF00BF98F8000008B900BFA9
:102B4000FAE706F099F80DF10809C9E9000106F065
:102B500093F806F0B1F90DF1180ACAE90001204610
:102B600007F0D2FF0DF12008D8E90001DAE90023CF
:102B700059405040084307D14FF24640C0F2002070
:102B800006F00AFF04AC42E0DAE90001D8E90023CC
:102B9000801A994108F00EFF00EE100A9FEDE21A2C
:102BA00081EE000A9FEDE11A4EF6BF5020EE010AB9
:102BB0009FEDDF1AC0F2002020EE010A20EE018A0C
:102BC00009F054FA04ACD9E90001D4E90023821ACF
:102BD0004EF6FD4061EB0303C0F2002009F046FA17
:102BE000DAE90001D8E90023821A4EF2FA7061EBAB
:102BF0000303C0F2002009F039FAB7EEC80A4FF219
:102C00004410C0F2002053EC102B09F02FFA96204C
:102C10004FF47A7108F090FB4FF0D0404FF0807184
:102C200009F0CFF896204FF47A7108F085FB002068
:102C30007860BFF34F8F57F86C0C43F6E07320F4C5
:102C4000803047F86C0CBFF34F8F3968C1F34E30BA
:102C5000CA08C1F3C9014E1C9107420100BF00BF61
:102C600002EA030546F001E00D4400BF00BF00BFCB
:102C7000C7F8F45105F140450FF007C00028A0F156
:102C80000100A2F12002EBD14EF20001BFF34F8F01
:102C9000CEF20101BFF36F8F086840F004000860B6
:102CA000BFF34F8FBFF36F8F0868019057F86C0C1C
:102CB000C00331D400207860BFF34F8F396843F6EA
:102CC000E073C1F34E30CA08C1F3C9014E1C91072D
:102CD000420100BF00BF00BF02EA030546F001E069
:102CE0000D4400BF00BF00BFC7F8E05105F14045EB
:102CF0000FF007C00028A0F10100A2F12002EBD1E3
:102D0000BFF34F8F57F86C0C40F4803047F86C0CD1
:102D1000BFF34F8FBFF36F8F0198400705D44FF279
:102D20006C50C0F2002001F08BBE4EF2C450C0F2D5
:102D3000002006F031FE00207860BFF34F8F396825
:102D400043F6E073C1F34E30CA08C1F3C9014E1C0B
:102D50009107420100BF00BF02EA030546F001E00F
:102D60000D4400BF00BF00BFC7F8E05105F140456A
:102D70000FF007C00028A0F10100A2F12002EBD162
:102D8000BFF34F8FBFF36F8F05F076FFC4E90001EB
:102D900005F072FF06F090F8C8E900014FF4803E9C
:102DA00040F2000040F20001C6F60100C2F200014C
:102DB00011F8012B00F8012B0FF007C005F05CFFA4
:102DC000C9E9000105F058FF06F076F8CAE90001EC
:102DD000D8E90001DAE9002359405040084306D100
:102DE0004FF24640C0F2002006F0D6FD41E0DAE99D
:102DF0000001D8E90023801A994108F0DBFD00EEBC
:102E0000100A9FED491A81EE000A9FED481A4EF60E
:102E1000605020EE010A9FED461AC0F2002020EE1D
:102E2000010A20EE018A09F021F9D9E90001D4E96B
:102E30000023821A4EF6FD4061EB0303C0F200202E
:102E400009F014F9DAE90001D8E90023821A4EF2F8
:102E5000FA7061EB0303C0F2002009F007F9B7EE46
:102E6000C80A4FF24410C0F2002053EC102B09F0B6
:102E7000FDF800207860BFF34F8F396843F6E073A8
:102E8000C1F34E30CA08C1F3C9014E1C910742017B
:102E900002EA030546F001E00D4400BF00BF00BF99
:102EA000C7F8E05105F140450FF007C00028A0F138
:102EB0000100A2F12002EBD1BFF34F8FBFF36F8F60
:102EC00005F0DAFE05F0F8FFC8E9000105F0D4FED0
:102ED000C4E900014FF4004E40F2000040F200014E
:102EE000C6F60100C2F2000131F8022B20F8022BD5
:102EF0000FF007C005F0C0FEC9E9000105F0BCFEF7
:102F000005F0DAFFCAE90001D8E90001DAE9002397
:102F10005940504008430DD14FF24640C0F20020C6
:102F200006F03AFD48E000BF0000804700247449E5
:102F30000000803ADAE90001D8E90023801A9941BB
:102F400008F038FD00EE100A1FED091A81EE000AA4
:102F50001FED0A1A4EF2E75020EE010A1FED0C1A7F
:102F6000C0F2002020EE010A20EE018A09F07EF86E
:102F7000D9E90001D4E90023821A4EF6FD4061EB45
:102F80000303C0F2002009F071F8DAE90001D8E982
:102F90000023821A4EF2FA7061EB0303C0F20020A4
:102FA00009F064F8B7EEC80A4FF24410C0F20020EE
:102FB00053EC102B09F05AF800207860BFF34F8FC4
:102FC000396843F6E073C1F34E30CA08C1F3C90152
:102FD0004E1C9107420100BF02EA030546F001E0E2
:102FE0000D4400BF00BF00BFC7F8E05105F14045E8
:102FF0000FF007C00028A0F10100A2F12002EBD1E0
:10300000BFF34F8FBFF36F8F05F036FE05F054FF0F
:10301000C8E9000105F030FEC4E900014FF4804E1C
:1030200040F2000040F20001C6F60100C2F20001C9
:1030300051F8042B40F8042B0FF007C005F01CFEDC
:10304000C9E9000105F018FE05F036FFCAE90001E4
:10305000D8E90001DAE9002359405040084306D17D
:103060004FF24640C0F2002006F096FC41E0DAE95B
:103070000001D8E90023801A994108F09BFC00EE7A
:10308000100A1FED571A81EE000A1FED581A4FF271
:103090005F7020EE010A1FED5A1AC0F2002020EEE8
:1030A000010A20EE018A08F0E1FFD9E90001D4E924
:1030B0000023821A4EF6FD4061EB0303C0F20020AC
:1030C00008F0D4FFDAE90001D8E90023821A4EF2B1
:1030D000FA7061EB0303C0F2002008F0C7FFB7EEFF
:1030E000C80A4FF24410C0F2002053EC102B08F035
:1030F000BDFF00207860BFF34F8F396843F6E0735F
:10310000C1F34E30CA08C1F3C9014E1C91074201F8
:1031100002EA030546F001E00D4400BF00BF00BF16
:10312000C7F8E05105F140450FF007C00028A0F1B5
:103130000100A2F12002EBD1BFF34F8FBFF36F8FDD
:1031400005F09AFD05F0B8FEC8E9000105F094FD10
:10315000C4E900014FF4005E40F2000040F20001BB
:10316000C6F60100C2F20001F1E80223E0E8022302
:103170000FF007C005F080FDC9E9000105F07CFDF6
:1031800005F09AFECAE90001D8E90001DAE9002356
:1031900059405040084306D14FF24640C0F200204B
:1031A00006F0FAFB41E0DAE90001D8E90023801AD1
:1031B000994108F0FFFB00EE100A1FEDA51A81EE01
:1031C000000A1FEDA61A4EF6266020EE010A1FED3A
:1031D000A81AC0F2002020EE010A20EE018A08F0B1
:1031E00045FFD9E90001D4E90023821A4EF6FD40DB
:1031F00061EB0303C0F2002008F038FFDAE90001B8
:10320000D8E90023821A4EF2FA7061EB0303C0F290
:10321000002008F02BFFB7EEC80A4FF24410C0F2AE
:10322000002053EC102B08F021FF00207860BFF342
:103230004F8F396843F6E073C1F34E30CA08C1F3CB
:10324000C9014E1C9107420102EA030546F001E064
:103250000D4400BF00BF00BFC7F8E05105F1404575
:103260000FF007C00028A0F10100A2F12002EBD16D
:10327000BFF34F8FBFF36F8F05F0FEFC05F01CFE10
:10328000C8E9000105F0F8FCC4E900014FF4803EF4
:1032900040F2000040F20001C6F60000C2F2000158
:1032A00011F8012B00F8012B0FF007C005F0E4FC2A
:1032B000C9E9000105F0E0FC05F0FEFDCAE90001E6
:1032C000D8E90001DAE9002359405040084306D10B
:1032D0004FF24640C0F2002006F05EFB41E0DAE922
:1032E0000001D8E90023801A994108F063FB00EE41
:1032F000100A9FED971A81EE000A9FED961A4FF281
:10330000753020EE010A9FED941AC0F2002020EEE5
:10331000010A20EE018A08F0A9FED9E90001D4E9EA
:103320000023821A4EF6FD4061EB0303C0F2002039
:1033300008F09CFEDAE90001D8E90023821A4EF277
:10334000FA7061EB0303C0F2002008F08FFEB7EEC5
:10335000C80A4FF24410C0F2002053EC102B08F0C2
:1033600085FE00207860BFF34F8F396843F6E07325
:10337000C1F34E30CA08C1F3C9014E1C9107420186
:1033800002EA030546F001E00D4400BF00BF00BFA4
:10339000C7F8E05105F140450FF007C00028A0F143
:1033A0000100A2F12002EBD1BFF34F8FBFF36F8F6B
:1033B00005F062FC05F080FDC8E9000105F05CFC49
:1033C000C4E900014FF4004E40F2000040F2000159
:1033D000C6F60000C2F2000131F8022B20F8022BE1
:1033E0000FF007C005F048FCC9E9000105F044FCF6
:1033F00005F062FDCAE90001D8E90001DAE900231D
:1034000059405040084306D14FF24640C0F20020D8
:1034100006F0C2FA41E0DAE90001D8E90023801A97
:10342000994108F0C7FA00EE100A9FED491A81EEA3
:10343000000A9FED481A4FF2BB4020EE010A9FEDB3
:10344000461AC0F2002020EE010A20EE018A08F0A0
:103450000DFED9E90001D4E90023821A4EF6FD40A1
:1034600061EB0303C0F2002008F000FEDAE900017E
:10347000D8E90023821A4EF2FA7061EB0303C0F21E
:10348000002008F0F3FDB7EEC80A4FF24410C0F276
:10349000002053EC102B08F0E9FD00207860BFF30A
:1034A0004F8F396843F6E073C1F34E30CA08C1F359
:1034B000C9014E1C9107420102EA030546F001E0F2
:1034C0000D4400BF00BF00BFC7F8E05105F1404503
:1034D0000FF007C00028A0F10100A2F12002EBD1FB
:1034E000BFF34F8FBFF36F8F05F0C6FB05F0E4FC11
:1034F000C8E9000105F0C0FBC4E900014FF4804EAB
:1035000040F2000040F20001C6F60000C2F20001E5
:1035100051F8042B40F8042B0FF007C005F0ACFB6A
:10352000C9E9000105F0A8FB05F0C6FCCAE90001E5
:10353000D8E90001DAE900235940504008430DD191
:103540004FF24640C0F2002006F026FA48E000BFE5
:1035500000008047002474490000803ADAE9000145
:10356000D8E90023801A994108F024FA00EE100AE5
:103570001FED091A81EE000A1FED0A1A4EF28A7039
:1035800020EE010A1FED0C1AC0F2002020EE010A05
:1035900020EE018A08F06AFDD9E90001D4E9002390
:1035A000821A4EF6FD4061EB0303C0F2002008F0E2
:1035B0005DFDDAE90001D8E90023821A4EF2FA70C3
:1035C00061EB0303C0F2002008F050FDB7EEC80A1B
:1035D0004FF24410C0F2002053EC102B08F046FDCF
:1035E00000207860BFF34F8F396843F6E073C1F372
:1035F0004E30CA08C1F3C9014E1C9107420100BFF9
:1036000002EA030546F001E00D4400BF00BF00BF21
:10361000C7F8E05105F140450FF007C00028A0F1C0
:103620000100A2F12002EBD1BFF34F8FBFF36F8FE8
:1036300005F022FB05F040FCC8E9000105F01CFB89
:10364000C4E900014FF4005E40F2000040F20001C6
:10365000C6F60000C2F20001F1E80223E0E802230E
:103660000FF007C005F008FBC9E9000105F004FBF5
:1036700005F022FCCAE90001D8E90001DAE90023DB
:1036800059405040084306D14FF24640C0F2002056
:1036900006F082F941E0DAE90001D8E90023801A56
:1036A000994108F087F900EE100A1FED571A81EED4
:1036B000000A1FED581A4FF2855020EE010A1FED47
:1036C0005A1AC0F2002020EE010A20EE018A08F00A
:1036D000CDFCD9E90001D4E90023821A4EF6FD4061
:1036E00061EB0303C0F2002008F0C0FCDAE900013E
:1036F000D8E90023821A4EF2FA7061EB0303C0F29C
:10370000002008F0B3FCB7EEC80A4FF24410C0F234
:10371000002053EC102B08F0A9FC00207860BFF3C8
:103720004F8F396843F6E073C1F34E30CA08C1F3D6
:10373000C9014E1C9107420102EA030546F001E06F
:103740000D4400BF00BF00BFC7F8E05105F1404580
:103750000FF007C00028A0F10100A2F12002EBD178
:10376000BFF34F8FBFF36F8F05F086FA05F0A4FB10
:10377000C8E9000105F080FAC4E900014FF4803E79
:1037800040F2000040F24041C6F60100C2F20121C1
:1037900011F8012B00F8012B0FF007C005F06CFAAF
:1037A000C9E9000105F068FA05F086FBCAE90001E5
:1037B000D8E90001DAE9002359405040084306D116
:1037C0004FF24640C0F2002006F0E6F841E0DAE9A8
:1037D0000001D8E90023801A994108F0EBF800EEC7
:1037E000100A1FEDA51A81EE000A1FEDA61A4FF66A
:1037F0009B0020EE010A1FEDA81AC0F2002020EE67
:10380000010A20EE018A08F031FCD9E90001D4E96F
:103810000023821A4EF6FD4061EB0303C0F2002044
:1038200008F024FCDAE90001D8E90023821A4EF2FC
:10383000FA7061EB0303C0F2002008F017FCB7EE4A
:10384000C80A4FF24410C0F2002053EC102B08F0CD
:103850000DFC00207860BFF34F8F396843F6E073AA
:10386000C1F34E30CA08C1F3C9014E1C9107420191
:1038700002EA030546F001E00D4400BF00BF00BFAF
:10388000C7F8E05105F140450FF007C00028A0F14E
:103890000100A2F12002EBD1BFF34F8FBFF36F8F76
:1038A00005F0EAF905F008FBC8E9000105F0E4F9C4
:1038B000C4E900014FF4004E40F2000040F24041E4
:1038C000C6F60100C2F2012131F8022B20F8022BCA
:1038D0000FF007C005F0D0F9C9E9000105F0CCF9F7
:1038E00005F0EAFACAE90001D8E90001DAE90023A3
:1038F00059405040084306D14FF24640C0F20020E4
:1039000006F04AF841E0DAE90001D8E90023801A1C
:10391000994108F04FF800EE100A9FED971A81EEDA
:10392000000A9FED961A4EF6582020EE010A9FEDF0
:10393000941AC0F2002020EE010A20EE018A08F05D
:1039400095FBD9E90001D4E90023821A4EF6FD4027
:1039500061EB0303C0F2002008F088FBDAE9000104
:10396000D8E90023821A4EF2FA7061EB0303C0F229
:10397000002008F07BFBB7EEC80A4FF24410C0F2FB
:10398000002053EC102B08F071FB00207860BFF38F
:103990004F8F396843F6E073C1F34E30CA08C1F364
:1039A000C9014E1C9107420102EA030546F001E0FD
:1039B0000D4400BF00BF00BFC7F8E05105F140450E
:1039C0000FF007C00028A0F10100A2F12002EBD106
:1039D000BFF34F8FBFF36F8F05F04EF905F06CFA10
:1039E000C8E9000105F048F9C4E900014FF4804E30
:1039F00040F2000040F24041C6F60100C2F201214F
:103A000051F8042B40F8042B0FF007C005F034F9EF
:103A1000C9E9000105F030F905F04EFACAE90001E4
:103A2000D8E90001DAE9002359405040084306D1A3
:103A30004FF24640C0F2002005F0AEFF41E0DAE967
:103A40000001D8E90023801A994107F0B3FF00EE86
:103A5000100A9FED491A81EE000A9FED481A4FF6B1
:103A6000EB0020EE010A9FED461AC0F2002020EE86
:103A7000010A20EE018A08F0F9FAD9E90001D4E937
:103A80000023821A4EF6FD4061EB0303C0F20020D2
:103A900008F0ECFADAE90001D8E90023821A4EF2C4
:103AA000FA7061EB0303C0F2002008F0DFFAB7EE12
:103AB000C80A4FF24410C0F2002053EC102B08F05B
:103AC000D5FA00207860BFF34F8F396843F6E07372
:103AD000C1F34E30CA08C1F3C9014E1C910742011F
:103AE00002EA030546F001E00D4400BF00BF00BF3D
:103AF000C7F8E05105F140450FF007C00028A0F1DC
:103B00000100A2F12002EBD1BFF34F8FBFF36F8F03
:103B100005F0B2F805F0D0F9C8E9000105F0ACF8FD
:103B2000C4E900014FF4005E40F2000040F2404161
:103B3000C6F60100C2F20121F1E80223E0E8022307
:103B40000FF007C005F098F8C9E9000105F094F8F6
:103B500005F0B2F9CAE90001D8E90001DAE9002369
:103B60005940504008430DD14FF24640C0F200206A
:103B700005F012FF48E000BF0000804700247449B0
:103B80000000803ADAE90001D8E90023801A99415F
:103B900007F010FF00EE100A1FED091A81EE000A6F
:103BA0001FED0A1A4EF6B91020EE010A1FED0C1A8D
:103BB000C0F2002020EE010A20EE018A08F056FA39
:103BC000D9E90001D4E90023821A4EF6FD4061EBE9
:103BD0000303C0F2002008F049FADAE90001D8E94D
:103BE0000023821A4EF2FA7061EB0303C0F2002048
:103BF00008F03CFAB7EEC80A4FF24410C0F20020B9
:103C000053EC102B08F032FA00207860BFF34F8F8E
:103C1000396843F6E073C1F34E30CA08C1F3C901F5
:103C20004E1C9107420100BF02EA030546F001E085
:103C30000D4400BF00BF00BFC7F8E05105F140458B
:103C40000FF007C00028A0F10100A2F12002EBD183
:103C5000BFF34F8FBFF36F8F05F00EF805F02CF90F
:103C6000C8E9000105F008F8C4E900014FF4803EFE
:103C700040F2000040F24041C6F60000C2F20121CD
:103C800011F8012B00F8012B0FF007C004F0F4FF2E
:103C9000C9E9000104F0F0FF05F00EF9CAE90001DE
:103CA000D8E90001DAE9002359405040084306D121
:103CB0004FF24640C0F2002005F06EFE41E0DAE926
:103CC0000001D8E90023801A994107F073FE00EE45
:103CD000100A1FED571A81EE000A1FED581A4EF612
:103CE000766020EE010A1FED5A1AC0F2002020EE85
:103CF000010A20EE018A08F0B9F9D9E90001D4E9F6
:103D00000023821A4EF6FD4061EB0303C0F200204F
:103D100008F0ACF9DAE90001D8E90023821A4EF282
:103D2000FA7061EB0303C0F2002008F09FF9B7EED0
:103D3000C80A4FF24410C0F2002053EC102B08F0D8
:103D400095F900207860BFF34F8F396843F6E07330
:103D5000C1F34E30CA08C1F3C9014E1C910742019C
:103D600002EA030546F001E00D4400BF00BF00BFBA
:103D7000C7F8E05105F140450FF007C00028A0F159
:103D80000100A2F12002EBD1BFF34F8FBFF36F8F81
:103D900004F072FF05F090F8C8E9000104F06CFF30
:103DA000C4E900014FF4004E40F2000040F24041EF
:103DB000C6F60000C2F2012131F8022B20F8022BD6
:103DC0000FF007C004F058FFC9E9000104F054FFE8
:103DD00005F072F8CAE90001D8E90001DAE9002328
:103DE00059405040084306D14FF24640C0F20020EF
:103DF00005F0D2FD41E0DAE90001D8E90023801A9C
:103E0000994107F0D7FD00EE100A1FEDA51A81EECB
:103E1000000A1FEDA61A4FF26E0020EE010A1FEDF8
:103E2000A81AC0F2002020EE010A20EE018A08F054
:103E30001DF9D9E90001D4E90023821A4EF6FD40AC
:103E400061EB0303C0F2002008F010F9DAE9000189
:103E5000D8E90023821A4EF2FA7061EB0303C0F234
:103E6000002008F003F9B7EEC80A4FF24410C0F280
:103E7000002053EC102B08F0F9F800207860BFF315
:103E80004F8F396843F6E073C1F34E30CA08C1F36F
:103E9000C9014E1C9107420102EA030546F001E008
:103EA0000D4400BF00BF00BFC7F8E05105F1404519
:103EB0000FF007C00028A0F10100A2F12002EBD111
:103EC000BFF34F8FBFF36F8F04F0D6FE04F0F4FF03
:103ED000C8E9000104F0D0FEC4E900014FF4804EAF
:103EE00040F2000040F24041C6F60000C2F201215B
:103EF00051F8042B40F8042B0FF007C004F0BCFE6F
:103F0000C9E9000104F0B8FE04F0D6FFCAE90001D7
:103F1000D8E90001DAE9002359405040084306D1AE
:103F20004FF24640C0F2002005F036FD41E0DAE9EC
:103F30000001D8E90023801A994107F03BFD00EE0B
:103F4000100A9FED971A81EE000A9FED961A4EF225
:103F5000964020EE010A9FED941AC0F2002020EE58
:103F6000010A20EE018A08F081F8D9E90001D4E9BC
:103F70000023821A4EF6FD4061EB0303C0F20020DD
:103F800008F074F8DAE90001D8E90023821A4EF249
:103F9000FA7061EB0303C0F2002008F067F8B7EE97
:103FA000C80A4FF24410C0F2002053EC102B08F066
:103FB0005DF800207860BFF34F8F396843F6E073F7
:103FC000C1F34E30CA08C1F3C9014E1C910742012A
:103FD00002EA030546F001E00D4400BF00BF00BF48
:103FE000C7F8E05105F140450FF007C00028A0F1E7
:103FF0000100A2F12002EBD1BFF34F8FBFF36F8F0F
:1040000004F03AFE04F058FFC8E9000104F034FE61
:10401000C4E900014FF4005E40F2000040F240416C
:10402000C6F60000C2F20121F1E80223E0E8022313
:104030000FF007C004F020FEC9E9000104F01CFEE7
:1040400004F03AFFCAE90001D8E90001DAE90023E7
:1040500059405040084306D14FF24640C0F200207C
:1040600005F09AFC41E0DAE90001D8E90023801A62
:10407000994107F09FFC00EE100A9FED491A81EE6E
:10408000000A9FED481A4FF2BE0020EE010A9FED94
:10409000461AC0F2002020EE010A20EE018A07F045
:1040A000E5FFD9E90001D4E90023821A4EF6FD406C
:1040B00061EB0303C0F2002007F0D8FFDAE900014A
:1040C000D8E90023821A4EF2FA7061EB0303C0F2C2
:1040D000002007F0CBFFB7EEC80A4FF24410C0F241
:1040E000002053EC102B07F0C1FF00207860BFF3D5
:1040F0004F8F396843F6E073C1F34E30CA08C1F3FD
:10410000C9014E1C9107420102EA030546F001E095
:104110000D4400BF00BF00BFC7F8E05105F14045A6
:104120000FF007C00028A0F10100A2F12002EBD19E
:10413000BFF34F8FBFF36F8F04F09EFD04F0BCFE02
:10414000C8E9000104F098FDC4E900014FF4803E85
:1041500040F2000040F24001C6F60100C2F2002128
:1041600011F8012B00F8012B0FF007C004F084FDBB
:10417000C9E9000104F080FD04F09EFECAE90001D7
:10418000D8E90001DAE900235940504008430DD135
:104190004FF24640C0F2002005F0FEFB48E000BFB1
:1041A00000008047002474490000803ADAE90001E9
:1041B000D8E90023801A994107F0FCFB00EE100AB1
:1041C0001FED091A81EE000A1FED0A1A4EF2CE20E9
:1041D00020EE010A1FED0C1AC0F2002020EE010AA9
:1041E00020EE018A07F042FFD9E90001D4E900235B
:1041F000821A4EF6FD4061EB0303C0F2002007F087
:1042000035FFDAE90001D8E90023821A4EF2FA708C
:1042100061EB0303C0F2002007F028FFB7EEC80AE5
:104220004FF24410C0F2002053EC102B07F01EFF99
:1042300000207860BFF34F8F396843F6E073C1F315
:104240004E30CA08C1F3C9014E1C9107420100BF9C
:1042500002EA030546F001E00D4400BF00BF00BFC5
:10426000C7F8E05105F140450FF007C00028A0F164
:104270000100A2F12002EBD1BFF34F8FBFF36F8F8C
:1042800004F0FAFC04F018FEC8E9000104F0F4FCA4
:10429000C4E900014FF4004E40F2000040F240013A
:1042A000C6F60100C2F2002131F8022B20F8022BE1
:1042B0000FF007C004F0E0FCC9E9000104F0DCFCE9
:1042C00004F0FAFDCAE90001D8E90001DAE90023A7
:1042D00059405040084306D14FF24640C0F20020FA
:1042E00005F05AFB41E0DAE90001D8E90023801A21
:1042F000994107F05FFB00EE100A1FED571A81EE9F
:10430000000A1FED581A4EF2376020EE010A1FED29
:104310005A1AC0F2002020EE010A20EE018A07F0AE
:10432000A5FED9E90001D4E90023821A4EF6FD402A
:1043300061EB0303C0F2002007F098FEDAE9000108
:10434000D8E90023821A4EF2FA7061EB0303C0F23F
:10435000002007F08BFEB7EEC80A4FF24410C0F2FF
:10436000002053EC102B07F081FE00207860BFF393
:104370004F8F396843F6E073C1F34E30CA08C1F37A
:10438000C9014E1C9107420102EA030546F001E013
:104390000D4400BF00BF00BFC7F8E05105F1404524
:1043A0000FF007C00028A0F10100A2F12002EBD11C
:1043B000BFF34F8FBFF36F8F04F05EFC04F07CFD02
:1043C000C8E9000104F058FCC4E900014FF4804E34
:1043D00040F2000040F24001C6F60100C2F20021A6
:1043E00051F8042B40F8042B0FF007C004F044FCF4
:1043F000C9E9000104F040FC04F05EFDCAE90001D7
:10440000D8E90001DAE9002359405040084306D1B9
:104410004FF24640C0F2002005F0BEFA41E0DAE972
:104420000001D8E90023801A994107F0C3FA00EE91
:10443000100A1FEDA51A81EE000A1FEDA61A4EF60E
:10444000594020EE010A1FEDA81AC0F2002020EE0C
:10445000010A20EE018A07F009FED9E90001D4E93A
:104460000023821A4EF6FD4061EB0303C0F20020E8
:1044700007F0FCFDDAE90001D8E90023821A4EF2C8
:10448000FA7061EB0303C0F2002007F0EFFDB7EE16
:10449000C80A4FF24410C0F2002053EC102B07F072
:1044A000E5FD00207860BFF34F8F396843F6E07375
:1044B000C1F34E30CA08C1F3C9014E1C9107420135
:1044C00002EA030546F001E00D4400BF00BF00BF53
:1044D000C7F8E05105F140450FF007C00028A0F1F2
:1044E0000100A2F12002EBD1BFF34F8FBFF36F8F1A
:1044F00004F0C2FB04F0E0FCC8E9000104F0BCFBDE
:10450000C4E900014FF4005E40F2000040F24001B7
:10451000C6F60100C2F20021F1E80223E0E802231E
:104520000FF007C004F0A8FBC9E9000104F0A4FBE8
:1045300004F0C2FCCAE90001D8E90001DAE900236D
:1045400059405040084306D14FF24640C0F2002087
:1045500005F022FA41E0DAE90001D8E90023801AE7
:10456000994107F027FA00EE100A9FED971A81EEA5
:10457000000A9FED961A4EF6AD3020EE010A9FED2F
:10458000941AC0F2002020EE010A20EE018A07F002
:104590006DFDD9E90001D4E90023821A4EF6FD40F1
:1045A00061EB0303C0F2002007F060FDDAE90001CF
:1045B000D8E90023821A4EF2FA7061EB0303C0F2CD
:1045C000002007F053FDB7EEC80A4FF24410C0F2C6
:1045D000002053EC102B07F049FD00207860BFF35A
:1045E0004F8F396843F6E073C1F34E30CA08C1F308
:1045F000C9014E1C9107420102EA030546F001E0A1
:104600000D4400BF00BF00BFC7F8E05105F14045B1
:104610000FF007C00028A0F10100A2F12002EBD1A9
:10462000BFF34F8FBFF36F8F04F026FB04F044FC01
:10463000C8E9000104F020FBC4E900014FF4803E0A
:1046400040F2000040F24001C6F60000C2F2002134
:1046500011F8012B00F8012B0FF007C004F00CFB40
:10466000C9E9000104F008FB04F026FCCAE90001D6
:10467000D8E90001DAE9002359405040084306D147
:104680004FF24640C0F2002005F086F941E0DAE939
:104690000001D8E90023801A994107F08BF900EE58
:1046A000100A9FED491A81EE000A9FED481A4FF259
:1046B000796020EE010A9FED461AC0F2002020EE3C
:1046C000010A20EE018A07F0D1FCD9E90001D4E902
:1046D0000023821A4EF6FD4061EB0303C0F2002076
:1046E00007F0C4FCDAE90001D8E90023821A4EF28F
:1046F000FA7061EB0303C0F2002007F0B7FCB7EEDD
:10470000C80A4FF24410C0F2002053EC102B07F0FF
:10471000ADFC00207860BFF34F8F396843F6E0733B
:10472000C1F34E30CA08C1F3C9014E1C91074201C2
:1047300002EA030546F001E00D4400BF00BF00BFE0
:10474000C7F8E05105F140450FF007C00028A0F17F
:104750000100A2F12002EBD1BFF34F8FBFF36F8FA7
:1047600004F08AFA04F0A8FBC8E9000104F084FA16
:10477000C4E900014FF4004E40F2000040F2400155
:10478000C6F60000C2F2002131F8022B20F8022BFD
:104790000FF007C004F070FAC9E9000104F06CFAE8
:1047A00004F08AFBCAE90001D8E90001DAE9002334
:1047B0005940504008430DD14FF24640C0F200200E
:1047C00005F0EAF848E000BF000080470024744983
:1047D0000000803ADAE90001D8E90023801A994103
:1047E00007F0E8F800EE100A9FEDBD1A81EE000A0E
:1047F0009FEDBC1A4EF2E64020EE010A9FEDBA1A78
:10480000C0F2002020EE010A20EE018A07F02EFC03
:10481000D9E90001D4E90023821A4EF6FD4061EB8C
:104820000303C0F2002007F021FCDAE90001D8E917
:104830000023821A4EF2FA7061EB0303C0F20020EB
:1048400007F014FCB7EEC80A4FF24410C0F2002083
:1048500053EC102B07F00AFC00207860BFF34F8F59
:10486000396843F6E073C1F34E30CA08C1F3C90199
:104870004E1C9107420100BF02EA030546F001E029
:104880000D4400BF00BF00BFC7F8E05105F140452F
:104890000FF007C00028A0F10100A2F12002EBD127
:1048A000BFF34F8FBFF36F8F04F0E6F904F004FB02
:1048B000C8E9000104F0E0F9C4E900014FF4804EBA
:1048C00040F2000040F24001C6F60000C2F20021B2
:1048D00051F8042B40F8042B0FF007C004F0CCF97A
:1048E000C9E9000104F0C8F904F0E6FACAE90001D8
:1048F000D8E90001DAE9002359405040084306D1C5
:104900004FF24640C0F2002005F046F841E0DAE9F7
:104910000001D8E90023801A994107F04BF800EE16
:10492000100A9FED6F1A81EE000A9FED6E1A4EF687
:10493000A82020EE010A9FED6C1AC0F2002020EEA4
:10494000010A20EE018A07F091FBD9E90001D4E9C0
:104950000023821A4EF6FD4061EB0303C0F20020F3
:1049600007F084FBDAE90001D8E90023821A4EF24D
:10497000FA7061EB0303C0F2002007F077FBB7EE9B
:10498000C80A4FF24410C0F2002053EC102B07F07D
:104990006DFB00207860BFF34F8F396843F6E073FA
:1049A000C1F34E30CA08C1F3C9014E1C9107420140
:1049B00002EA030546F001E00D4400BF00BF00BF5E
:1049C000C7F8E05105F140450FF007C00028A0F1FD
:1049D0000100A2F12002EBD1BFF34F8FBFF36F8F25
:1049E00004F04AF904F068FAC8E9000104F044F957
:1049F000C4E900014FF4005E40F2000040F24001C3
:104A0000C6F60000C2F20021F1E80223E0E802232A
:104A10000FF007C004F030F9C9E9000104F02CF9E7
:104A200004F04AFACAE90001D8E90001DAE90023F2
:104A30005940504008430BD14FF24640C0F200208D
:104A40000AB0BDEC028B01B0BDE8F04F04F0A4BF8A
:104A5000DAE90001D8E90023801A994106F0AAFF9B
:104A600000EE100A9FED1E1A81EE000A9FED1D1A3E
:104A70004EF2FE6020EE010A9FED1B1AC0F20020EC
:104A800020EE010A20EE018A07F0F0FAD9E90001D0
:104A9000D4E90023821A4EF6FD4061EB0303C0F215
:104AA000002007F0E3FADAE90001D8E90023821ACE
:104AB0004EF2FA7061EB0303C0F2002007F0D6FA61
:104AC000B7EEC80A4FF24410C0F2002053EC102B8E
:104AD0000AB0BDEC028B01B0BDE8F04F07F0C6BADA
:104AE00000008047002474490000803AD4D4D4D414
:104AF0002DE9F04F81B02DED028B8AB040F200011C
:104B00006FF0E040C6F601010A184FF6FE71CFF2D1
:104B1000FF718A4208D84EF2C26040F20001C0F232
:104B20000020C6F601010EE040F20002C6F60002C7
:104B3000104488420FD84EF2562040F20001C0F2D5
:104B40000020C6F600010AB0BDEC028B01B0BDE842
:104B5000F04F07F08BBA4EF680570020CEF20007D8
:104B600043F6E0737860BFF34F8F57F86C0C20F476
:104B7000803047F86C0CBFF34F8F3968C1F34E306B
:104B8000CA08C1F3C9014E1C9107420100BF00BF12
:104B900002EA030546F001E00D4400BF00BF00BF7C
:104BA000C7F8F45105F140450FF007C00028A0F107
:104BB0000100A2F12002EBD14EF20001CEF2010180
:104BC000BFF34F8FBFF36F8F086820F004000860B9
:104BD000BFF34F8FBFF36F8F0868019001984007B4
:104BE00000F1A08057F86C0CC00331D4002078602D
:104BF000BFF34F8F396843F6E073C1F34E30CA08F4
:104C0000C1F3C9014E1C9107420100BF00BF00BFA4
:104C100002EA030546F001E00D4400BF00BF00BFFB
:104C2000C7F8E05105F140450FF007C00028A0F19A
:104C30000100A2F12002EBD1BFF34F8F57F86C0CAB
:104C400040F4803047F86C0CBFF34F8FBFF36F8F89
:104C50004EF2DA70C0F2002004F09EFE0020786070
:104C6000BFF34F8F396843F6E073C1F34E30CA0883
:104C7000C1F3C9014E1C9107420100BF00BF00BF34
:104C800002EA030546F001E00D4400BF00BF00BF8B
:104C9000C7F8E05105F140450FF007C00028A0F12A
:104CA0000100A2F12002EBD1BFF34F8FBFF36F8F52
:104CB00003F0E2FF0DF1100ACAE9000103F0DCFF86
:104CC00004F0FAF80DF120094FF4803EC9E9000123
:104CD00040F2000040F20001C2F20000C6F60101FD
:104CE00011F8012B00F8012B0FF007C003F0C4FFEF
:104CF0000DF10808C8E9000103F0BEFF04F0DCF87C
:104D000006ACC4E90001D9E90001D4E90023594007
:104D1000504008430CD14FF24640C0F2002004F04E
:104D20003BFE47E04EF2E860C0F2002003F028BFEF
:104D3000D4E90001D9E90023801A994106F03AFE2E
:104D400000EE100A9FED981A81EE000A9FED971A67
:104D50004FF2107020EE010A9FED951AC0F200206C
:104D600020EE010A20EE018A07F080F9D8E900015F
:104D7000DAE90023821A4EF6FD4061EB0303C0F22C
:104D8000002007F073F9D4E90001D9E90023821A61
:104D90004EF2FA7061EB0303C0F2002007F066F9EF
:104DA000B7EEC80A4FF24410C0F2002053EC102BAB
:104DB00007F05CF900207860BFF34F8F396843F645
:104DC000E073C1F34E30CA08C1F3C9014E1C91070C
:104DD000420100BF00BF00BF02EA030546F001E048
:104DE0000D4400BF00BF00BFC7F8E05105F14045CA
:104DF0000FF007C00028A0F10100A2F12002EBD1C2
:104E0000BFF34F8FBFF36F8F03F036FF04F054F8FA
:104E1000C9E9000103F030FFCAE900014FF4004E78
:104E200040F2000040F20001C2F20000C6F60101AB
:104E300031F8022B20F8022B0FF007C003F01CFF03
:104E4000C8E9000103F018FF04F036F8C4E90001D6
:104E5000D9E90001D4E9002359405040084306D164
:104E60004FF24640C0F2002004F096FD41E0D4E944
:104E70000001D9E90023801A994106F09BFD00EE5C
:104E8000100A9FED491A81EE000A9FED481A4EF272
:104E9000474020EE010A9FED461AC0F2002020EEA6
:104EA000010A20EE018A07F0E1F8D8E90001DAE909
:104EB0000023821A4EF6FD4061EB0303C0F200208E
:104EC00007F0D4F8D4E90001D9E90023821A4EF2A0
:104ED000FA7061EB0303C0F2002007F0C7F8B7EEE9
:104EE000C80A4FF24410C0F2002053EC102B07F018
:104EF000BDF800207860BFF34F8F396843F6E07348
:104F0000C1F34E30CA08C1F3C9014E1C91074201DA
:104F100002EA030546F001E00D4400BF00BF00BFF8
:104F2000C7F8E05105F140450FF007C00028A0F197
:104F30000100A2F12002EBD1BFF34F8FBFF36F8FBF
:104F400003F09AFE03F0B8FFC9E9000103F094FEF4
:104F5000CAE900014FF4804E40F2000040F2000127
:104F6000C2F20000C6F6010151F8042B40F8042BF0
:104F70000FF007C003F080FEC8E9000103F07CFEDB
:104F800003F09AFFC4E90001D9E90001D4E9002344
:104F90005940504008430DD14FF24640C0F2002026
:104FA00004F0FAFC48E000BF000080470024744988
:104FB0000000803AD4E90001D9E90023801A994120
:104FC00006F0F8FC00EE100A1FED091A81EE000A47
:104FD0001FED0A1A4FF6991020EE010A1FED0C1A68
:104FE000C0F2002020EE010A20EE018A07F03EF810
:104FF000D8E90001DAE90023821A4EF6FD4061EBA0
:105000000303C0F2002007F031F8D4E90001D9E928
:105010000023821A4EF2FA7061EB0303C0F2002003
:1050200007F024F8B7EEC80A4FF24410C0F200208F
:1050300053EC102B07F01AF800207860BFF34F8F65
:10504000396843F6E073C1F34E30CA08C1F3C901B1
:105050004E1C9107420100BF02EA030546F001E041
:105060000D4400BF00BF00BFC7F8E05105F1404547
:105070000FF007C00028A0F10100A2F12002EBD13F
:10508000BFF34F8FBFF36F8F03F0F6FD03F014FFF4
:10509000C9E9000103F0F0FDCAE900014FF4005E28
:1050A00040F2000040F20001C2F20000C6F6010129
:1050B000F1E80223E0E802230FF007C003F0DCFD73
:1050C000C8E9000103F0D8FD03F0F6FEC4E90001D1
:1050D000D9E90001D4E9002359405040084306D1E2
:1050E0004FF24640C0F2002004F056FC41E0D4E903
:1050F0000001D9E90023801A994106F05BFC00EE1B
:10510000100A1FED571A81EE000A1FED581A4EF2D1
:10511000755020EE010A1FED5A1AC0F2002020EE51
:10512000010A20EE018A06F0A1FFD8E90001DAE9C0
:105130000023821A4EF6FD4061EB0303C0F200200B
:1051400006F094FFD4E90001D9E90023821A4EF257
:10515000FA7061EB0303C0F2002006F087FFB7EEA0
:10516000C80A4FF24410C0F2002053EC102B06F096
:105170007DFF00207860BFF34F8F396843F6E073FE
:10518000C1F34E30CA08C1F3C9014E1C9107420158
:1051900002EA030546F001E00D4400BF00BF00BF76
:1051A000C7F8E05105F140450FF007C00028A0F115
:1051B0000100A2F12002EBD1BFF34F8FBFF36F8F3D
:1051C00003F05AFD03F078FEC9E9000103F054FD35
:1051D000CAE900014FF4803E40F2000040F20001B5
:1051E000C2F20000C6F6000111F8012B00F8012BF5
:1051F0000FF007C003F040FDC8E9000103F03CFDDB
:1052000003F05AFEC4E90001D9E90001D4E9002302
:1052100059405040084306D14FF24640C0F20020AA
:1052200004F0BAFB41E0D4E90001D9E90023801A77
:10523000994106F0BFFB00EE100A1FEDA51A81EEA2
:10524000000A1FEDA61A4EF2373020EE010A1FEDBC
:10525000A81AC0F2002020EE010A20EE018A06F012
:1052600005FFD8E90001DAE90023821A4EF6FD4075
:1052700061EB0303C0F2002006F0F8FED4E9000160
:10528000D9E90023821A4EF2FA7061EB0303C0F2EF
:10529000002006F0EBFEB7EEC80A4FF24410C0F251
:1052A000002053EC102B06F0E1FE00207860BFF3E5
:1052B0004F8F396843F6E073C1F34E30CA08C1F32B
:1052C000C9014E1C9107420102EA030546F001E0C4
:1052D0000D4400BF00BF00BFC7F8E05105F14045D5
:1052E0000FF007C00028A0F10100A2F12002EBD1CD
:1052F000BFF34F8FBFF36F8F03F0BEFC03F0DCFDF5
:10530000C9E9000103F0B8FCCAE900014FF4004EFE
:1053100040F2000040F20001C2F20000C6F60001B7
:1053200031F8022B20F8022B0FF007C003F0A4FC89
:10533000C8E9000103F0A0FC03F0BEFDC4E90001D0
:10534000D9E90001D4E9002359405040084306D16F
:105350004FF24640C0F2002004F01EFB41E0D4E9C9
:105360000001D9E90023801A994106F023FB00EEE1
:10537000100A9FED991A81EE000A9FED981A4EF6D9
:10538000115020EE010A9FED961AC0F2002020EE87
:10539000010A20EE018A06F069FED8E90001DAE987
:1053A0000023821A4EF6FD4061EB0303C0F2002099
:1053B00006F05CFED4E90001D9E90023821A4EF21E
:1053C000FA7061EB0303C0F2002006F04FFEB7EE67
:1053D000C80A4FF24410C0F2002053EC102B06F024
:1053E00045FE00207860BFF34F8F396843F6E073C5
:1053F000C1F34E30CA08C1F3C9014E1C91074201E6
:1054000002EA030546F001E00D4400BF00BF00BF03
:10541000C7F8E05105F140450FF007C00028A0F1A2
:105420000100A2F12002EBD1BFF34F8FBFF36F8FCA
:1054300003F022FC03F040FDC9E9000103F01CFC6D
:10544000CAE900014FF4804E40F2000040F2000132
:10545000C2F20000C6F6000151F8042B40F8042BFC
:105460000FF007C003F008FCC8E9000103F004FCDA
:1054700003F022FDC4E90001D9E90001D4E90023C9
:1054800059405040084306D14FF24640C0F2002038
:1054900004F082FA41E0D4E90001D9E90023801A3E
:1054A000994106F087FA00EE100A9FED4B1A81EE43
:1054B000000A9FED4A1A4EF60F3020EE010A9FEDCA
:1054C000481AC0F2002020EE010A20EE018A06F000
:1054D000CDFDD8E90001DAE90023821A4EF6FD403D
:1054E00061EB0303C0F2002006F0C0FDD4E9000127
:1054F000D9E90023821A4EF2FA7061EB0303C0F27D
:10550000002006F0B3FDB7EEC80A4FF24410C0F217
:10551000002053EC102B06F0A9FD00207860BFF3AB
:105520004F8F396843F6E073C1F34E30CA08C1F3B8
:10553000C9014E1C9107420102EA030546F001E051
:105540000D4400BF00BF00BFC7F8E05105F1404562
:105550000FF007C00028A0F10100A2F12002EBD15A
:10556000BFF34F8FBFF36F8F03F086FB03F0A4FCF4
:10557000C9E9000103F080FBCAE900014FF4005EB5
:1055800040F2000BC2F2000B40F20000C6F6000031
:10559000594600BF00BF00BFF0E80223E1E8022344
:1055A0000FF007C003F068FBC8E9000103F064FBDB
:1055B00003F082FCC4E90001D9E90001D4E9002329
:1055C0005940504008430DD14FF24640C0F20020F0
:1055D00004F0E2F948E000BF00008047002474496D
:1055E0000000803AD4E90001D9E90023801A9941EA
:1055F00006F0E0F900EE100A1FED091A81EE000A2C
:105600001FED0A1A4EF6092020EE010A1FED0C1AB2
:10561000C0F2002020EE010A20EE018A06F026FDED
:10562000D8E90001DAE90023821A4EF6FD4061EB69
:105630000303C0F2002006F019FDD4E90001D9E906
:105640000023821A4EF2FA7061EB0303C0F20020CD
:1056500006F00CFDB7EEC80A4FF24410C0F200206D
:1056600053EC102B06F002FD00207860BFF34F8F43
:10567000396843F6E073C1F34E30CA08C1F3C9017B
:105680004E1C9107420100BF02EA030546F001E00B
:105690000D4400BF00BF00BFC7F8E05105F1404511
:1056A0000FF007C00028A0F10100A2F12002EBD109
:1056B000BFF34F8FBFF36F8F03F0DEFA03F0FCFBF5
:1056C000C9E9000103F0D8FACAE900014FF4803EAD
:1056D00040F2404040F20001C2F20120C6F6010152
:1056E00011F8012B00F8012B0FF007C003F0C4FAEA
:1056F000C8E9000103F0C0FA03F0DEFBC4E90001D1
:10570000D9E90001D4E9002359405040084306D1AB
:105710004FF24640C0F2002004F03EF941E0D4E9E7
:105720000001D9E90023801A994106F043F900EEFF
:10573000100A1FED571A81EE000A1FED581A4FF696
:10574000E81020EE010A1FED5A1AC0F2002020EEE8
:10575000010A20EE018A06F089FCD8E90001DAE9A5
:105760000023821A4EF6FD4061EB0303C0F20020D5
:1057700006F07CFCD4E90001D9E90023821A4EF23C
:10578000FA7061EB0303C0F2002006F06FFCB7EE85
:10579000C80A4FF24410C0F2002053EC102B06F060
:1057A00065FC00207860BFF34F8F396843F6E073E3
:1057B000C1F34E30CA08C1F3C9014E1C9107420122
:1057C00002EA030546F001E00D4400BF00BF00BF40
:1057D000C7F8E05105F140450FF007C00028A0F1DF
:1057E0000100A2F12002EBD1BFF34F8FBFF36F8F07
:1057F00003F042FA03F060FBC9E9000103F03CFA50
:10580000CAE900014FF4004E40F2404040F200016E
:10581000C2F20120C6F6010131F8022B20F8022B5A
:105820000FF007C003F028FAC8E9000103F024FADA
:1058300003F042FBC4E90001D9E90001D4E90023E7
:1058400059405040084306D14FF24640C0F2002074
:1058500004F0A2F841E0D4E90001D9E90023801A5C
:10586000994106F0A7F800EE100A1FEDA51A81EE87
:10587000000A1FEDA61A4EF2863020EE010A1FED37
:10588000A81AC0F2002020EE010A20EE018A06F0DC
:10589000EDFBD8E90001DAE90023821A4EF6FD405B
:1058A00061EB0303C0F2002006F0E0FBD4E9000145
:1058B000D9E90023821A4EF2FA7061EB0303C0F2B9
:1058C000002006F0D3FBB7EEC80A4FF24410C0F236
:1058D000002053EC102B06F0C9FB00207860BFF3CA
:1058E0004F8F396843F6E073C1F34E30CA08C1F3F5
:1058F000C9014E1C9107420102EA030546F001E08E
:105900000D4400BF00BF00BFC7F8E05105F140459E
:105910000FF007C00028A0F10100A2F12002EBD196
:10592000BFF34F8FBFF36F8F03F0A6F903F0C4FAF4
:10593000C9E9000103F0A0F9CAE900014FF4804E63
:1059400040F2404040F20001C2F20120C6F60101DF
:1059500051F8042B40F8042B0FF007C003F08CF92A
:10596000C8E9000103F088F903F0A6FAC4E90001D0
:10597000D9E90001D4E9002359405040084306D139
:105980004FF24640C0F2002004F006F841E0D4E9AE
:105990000001D9E90023801A994106F00BF800EEC6
:1059A000100A9FED971A81EE000A9FED961A4EF6A7
:1059B0005E3020EE010A9FED941AC0F2002020EE26
:1059C000010A20EE018A06F051FBD8E90001DAE96C
:1059D0000023821A4EF6FD4061EB0303C0F2002063
:1059E00006F044FBD4E90001D9E90023821A4EF203
:1059F000FA7061EB0303C0F2002006F037FBB7EE4C
:105A0000C80A4FF24410C0F2002053EC102B06F0ED
:105A10002DFB00207860BFF34F8F396843F6E073A9
:105A2000C1F34E30CA08C1F3C9014E1C91074201AF
:105A300002EA030546F001E00D4400BF00BF00BFCD
:105A4000C7F8E05105F140450FF007C00028A0F16C
:105A50000100A2F12002EBD1BFF34F8FBFF36F8F94
:105A600003F00AF903F028FAC9E9000103F004F988
:105A7000CAE900014FF4005E40F2404040F20001EC
:105A8000C2F20120C6F60101F1E80223E0E8022398
:105A90000FF007C003F0F0F8C8E9000103F0ECF8DC
:105AA00003F00AFAC4E90001D9E90001D4E90023AE
:105AB00059405040084306D14FF24640C0F2002002
:105AC00003F06AFF41E0D4E90001D9E90023801A1C
