S01E000061636D7068735F63706B6E65745F72613874325F65702E7372656362
S3150200000000400020C92D0002A92D00024927000246
S31502000010D12D0002D12D0002D12D0002D12D0002D8
S31502000020000000000000000000000000D12D0002C8
S315020000301121000200000000D12D0002D12D000284
S31502000040412A000271290002192B0002A12B00028B
S30902000050592D00021C
S315020000584068002818BF704740F228100121C2F2F2
S3150200006800200170704700BF82B040F2301A44F295
S315020000789442C2F2002A4EF2001446F2100643F2E5
S315020000880C054CF6002841F2FF1944F23F2BC0F248
S31502000098002200215046CEF20004C4F22306C4F21E
S315020000A82005C3F69A38C0F27A09C0F20F0B00F09F
S315020000B8C5FA40F23C1044F29742C2F20020C0F25E
S315020000C800220121012700F0B9FA40F2481244F24F
S315020000D89C40C2F20022C0F20020A6F11001C2E939
S315020000E8010140F29011C2F20021C02084F80403F3
S315020000F80A61EFF3108487F3108840F2B01128687A
S31502000108C2F2002120F080502860286808684DF65F
S3150200011883614D464845C4F21B3108D95844A0FBB1
S315020001280101880C0001A0EB9140400005E0B8FBF4
S31502000138F0F047F23051B1FBF0F040F24816C2F245
S31502000148002608B100F07FFA84F310884FF0000CFD
S31502000158B16881F800C0B1680A7C02F0FE020A742E
S3150200016881F804C0D6E9017181F808C07A69BB78BA
S31502000178F97838795478042C1DD143F20C0546F2E5
S31502000188100EC4F22005C4F2230E2F6827F08057FA
S315020001982F602F680127EFF3108487F3108841F246
S315020001A8FF159EF80070C0F27A0547F080078EF8B0
S315020001B8007084F31088B76814784FF001083C7110
S315020001C8B76852783A7240EAC302B36842EA411102
S315020001D841F08001197040F23C13DAF8082045F222
S315020001E84801C2F20023C4F24D3131604FF4006176
S315020001F811809968A1F800C0EFF3108088F310887F
S31502000208DAF808104A6842F001024A6080F3108858
S31502000218EFF3108088F3108899684A6842F0010261
S315020002284A6080F31088B0680078C0F3411000284D
S3150200023841D04EF22002C4F201021168938843EAC1
S31502000248112203F00F031207C1F3032207D440F267
S31502000258B011C2F2002109689940D14020E003F0AA
S31502000268070703240D0A04FA07F74FF0010C082BB7
S3150200027838BF0CFA03F705F00703090504FA03F376
S3150200028840F2B014C2F2002441F2FF15C0F27A0518
S31502000298246804FB07F158BF0CFA02F3B1FBF3F129
S315020002A840F600120230C0F23D0202FA00F0B0FB3C
S315020002B8F1F000F102080120EFF3108180F31088B3
S315020002C8B268137843F002031370D6E90123527910
S315020002D81F7C02F0010207F0FE073A441A7481F302
S315020002E81088716891F9081000291BD44CF2003263
S315020002F84EF20017C4F20002CEF2000752F821307D
S3150200030823F4803342F8213052F821204A0901F0B9
S315020003181F01BFF35F8F07EB82038840C3F8800192
S3150200032847F8220040F2B010C2F200200068A84244
S3150200033813D94DF683615844C4F21B314CF6002793
S31502000348A0FB0101D946C3F69A37880C44F240212C
S31502000358C0F20F01484348B90AE04CF60027D946CD
S31502000368C3F69A37B7FBF0F0B7FBF0F000F06BF97B
S3150200037840F22A164FF47A70C2F2002640F2281A80
S31502000388002408FB00F0C2F2002A3480019009E03A
S31502000398B7FBF0F045F60061CBF2D021B1FBF0F0E5
S315020003A800F051F9308800F5967030803088B4EB49
S315020003B8103F4FF0000003D030800DE000BF00BFB1
S315020003C83088B0F5FA6F07D9308840F6330188428B
S315020003D802D830886430EFE7318844F28000C0F2F0
S315020003E800204FF0010B00F033F940F23C1130883F
S315020003F8C2F200218968088040F2B010C2F20020D9
S315020004080068A8420CD94DF683614844C4F21B31F0
S31502000418A0FB0101880CA8FB000161B11CE000BF2A
S3150200042848F63811C0F24101B7FBF0F0884507D209
S315020004380199B1FBF0F088B912E000BF00BF00BF16
S31502000448B8FBF0F0884207D24FF47A71484328B9CC
S3150200045806E000BF00BF00BF4FF0FF3000F0F3F820
S315020004689AF80000012840F0918040F24810C2F242
S31502000478002080680178890702D402207FE000BF45
S31502000488027B017811F0600F01D0134674E040F246
S315020004984811C2F2002149684B695B685D4200BF98
S315020004A81346027B6F1C9A4202D0002D3D46F7D1B5
S315020004B8012F4CF6002741F2FF15C3F69A37C0F210
S315020004C87A0559D191F9080040F24813C2F200237D
S315020004D800281C6019D441094EF20012CEF200021D
S315020004E800F01F0002EB81010BFA00F0C1F8800050
S315020004F840F29011BFF34F8FBFF36F8F5868C2F265
S31502000508002190F9080041F82040EFF310808BF3A0
S31502000518108899680C7099680A7C02F0FE020A74BF
S3150200052880F31088EFF3108C8BF3108843F20C02D9
S315020005385868C4F2200200781168C0F11C000BFA50
S3150200054800F008431060106840F2B010C2F20020B2
S315020005580068A8425ED94DF683614844C4F21B314D
S31502000568A0FB0101880C0001A0EB91404000002885
S3150200057857D15AE000BF00BF012B5FEA1F9040F235
S315020005882C11C2F2002108708AF8004040F22C10A1
S31502000598C2F20020007801280AD0C8B943F69A6048
S315020005A84FF08065C0F2002008E000BF00BF00BF20
S315020005B844F2FB004FF48065C0F2002000F04DF8CB
S315020005C82820C4F24000056041F2FF15C0F27A0500
S315020005D840F2B010C2F200200068A8427FF6D8AEF8
S315020005E84DF683614844C4F21B31A0FB0101880C15
S315020005F84CF2C061C0F22D01A0FB010121B14FF0FE
S31502000608FF3000F020F8CDE608B92FF035C900F022
S315020006181AF8C7E6B7FBF0F047F23051B1FBF0F033
S3150200062818B1E34600F00FF8DC4643F691508CF316
S315020006381088C0F2002000F010F8A5E742F6614CD7
S31502000648C0F2002C604742F6A15CC0F2002C60475B
S3150200065840F2F56CC0F2002C604740F2197CC0F2F9
S30902000668002C6047B3
S3150200066C0000030091260002B126000200000000E1
S3110200067C02080000000400004009000013
S3150200069010B5002322B1CC5C013AC4540133F9E708
S315020006A010BD03461AB103F8011B013AFAE7704777
S315020006B010B505490446054AFFF7EAFF044805490D
S315020006C0204400F009F810BD880600020000000070
S315020006D000000000000000000A460021FFF7E1BF0B
S315020006E00249401A02490860704700BF080000002C
S315020006F05000002283B018B5044603A80EC003AA10
S31502000700214604480092006800F028F8BDE8184027
S3150200071003B070479044000270B505460E4804685F
S31502000720A078800714D56668287828B12146B04794
S3150200073001350028F8D507E00A202146B047B0F176
S31502000740FF3FC4BF002070BDA07840F00400A07037
S315020007504FF0FF3070BD00BF904400022DE9F04F0C
S3150200076095B0824680781492800740F19184DAF837
S31502000770040000270C90149813900DA8821D06926F
S31502000780421E05300992079008910B910B9A114669
S3150200079011F8010B252803D0002800F07B8404E021
S315020007A05578961C252D09D131460C9A0B91514646
S315020007B0904701370028E9D500F064BC00224FF0CB
S315020007C0000800244FF0000B1FFA8BF9B9F11F0F36
S315020007D00DD8A5F1270009282DD8DFE800F09F0BD8
S315020007E00B0B050B650B0B624BF0020B53E0B9F1D9
S315020007F07F0F12D8A5F13000092823D8B9F1400F8E
S3150200080027BF08EB880100EB410804EB840100EBEB
S31502000810410438BF4BF0200B80E04C2D3ED0682DB2
S3150200082045D06A2D3AD07A2D18BF742D76D06C2D0C
S3150200083040F0578242E0202D2DD0232DDAD14BF005
S31502000840100B6BE0242D47D07A2D67D02E2D3CD08D
S315020008504C2D23D0682D2AD06A2D1FD06C2D2DD079
S31502000860742D5BD02A2D40F03C82002A56D1139873
S31502000870011D13910068B9F13F0F4DD8B0F1FF3F4A
S31502000880DDBF4BF0280B444200224BF0200BC4BFC5
S315020008900022044642E04BF0040B3FE04BF4207B7F
S315020008A03CE04BF0010B39E04BF0080B36E00BF461
S315020008B080704BEA400040F4807B2FE00BF0800012
S315020008C04BEA800040F0800B28E0B9F13F0F00F2BE
S315020008D0E1834BF0400B21E0BAB11498B9F1400F15
S315020008E013901546089813A954EA388200F0DCFBE7
S315020008F013982A46B9F1400F00F1040113910068DA
S3150200090050EA348458EA308808E022464FF000085C
S3150200091000244FF0000B01E00022804616F8015B2E
S31502000920002D7FF451AF0A94002534462AB114985B
S315020009301390089813A900F0B7FB45F0200028EAA7
S31502000940E879B8F1000FA0F1650148BF2BF0400B22
S3150200095003290B9401D3612833D11399461B07311E
S3150200096021F00701612801F10802139291ED000BB3
S3150200097016D15FEA4B6058BF4FF0FF39F2B20DA8AD
S31502000980494600F077FC00F101084BF4C05B5FFAC0
S3150200099088F08145D8BFA0F10109702401233EE009
S315020009A05FEA4B6158BF4FF00609C1B266291ED0F5
S315020009B0652823D14BF4805B09F1010100236524EC
S315020009C023E0A5F16F01062955D808234FF0000E42
S315020009D0DFE811F0E5010700DF01DF01A501DF0114
S315020009E09D014BF0100B10234FF0780ED7E14BF41C
S315020009F0005B0122662411214B4607E05FEA09618A
S31502000A00494608BF0121841E00230022C9B21129CA
S31502000A1028BF11210DA800F0CEFD80460223DDF885
S31502000A2034E01EF1090F07DA1EF1630F0FD21EF52D
S31502000A307A7F0AD804230BE0BEF1090F08DDBEF166
S31502000A40630F04D9BEF57A7FF4D2032300E00223B2
S31502000A509DF838100493C8071FFA8BF007D15FEA96
S31502000A608B7206D442071DD4002301251CE02D23D8
S31502000A7019E02B2317E0692D18BF642D40F033814E
S31502000A801FFA8BF05FEA0B6100F1388113990A1D98
S31502000A9013920A68C10540F13881800554BF12B22B
S31502000AA052B232E12023002511F00C0F18D00A9A17
S31502000AB00320002D50EA1090824227DD5FEA0B7177
S31502000AC026D4841AA8461D4600F0C3FB002800F16E
S31502000AD0D98201370134F7D32B460024454618E064
S31502000AE01BF4405F019349D1A446079C0121B9F149
S31502000AF0010F59EA81815FFA88F242B3131913F89A
S31502000B00013C302B23D1A8F10108F4E7002400E0D0
S31502000B10141A3DB90C9A184651469047002800F11E
S31502000B20B18201379DF83800DFF878150007DFF843
S31502000B30700550EA51852878002800F09682801BBD
S31502000B4000F093FB013701350028F4D59AE2C0067E
S31502000B5052EA51801EF1040F0DDB8E450BDA8645F3
S31502000B604BF4005B6446AEBF4FF000096FEA0E011C
S31502000B7000EB010902E0A0F1010964461FFA8BF1BC
S31502000B805FEA8B404FEA015BB446039505910094F8
S31502000B9007D40520BBF1000F58BF0320049D28444B
S31502000BA002E02EEAEE700130059EB9F1000F039ABB
S31502000BB00A9CC6F3001182F0010251EA0991CDF8AE
S31502000BC008E08B180344E31A4FF0000453EAC48486
S31502000BD016F0090F0FD1664674B108440A991044FB
S31502000BE0441A00F036FB002800F14C82013701342A
S31502000BF0F7D3002400E0664603980028019806D140
S31502000C000C9A51469047002800F13C820137BBF10D
S31502000C10000F0CD500F025FB002800F13382C6F147
S31502000C20780000F022FB002800F12C82023705989A
S31502000C30000709D444B1274400F013FB002800F151
S31502000C402182013CF8D100240598800427D49DF81E
S31502000C50390051460C9A9047002800F11382B9F1E7
S31502000C60010FC0F2DA8000F0F8FA002800F10A82D9
S31502000C7009EB07005FFA88F500F1020B00208145B7
S31502000C8000F0A681471CAF423ABF0699085C3020A5
S31502000C900C9A5146904700283846F0D5F2E1029860
S31502000CA0C9F100095FFA88F820EAE076851B701C14
S31502000CB005D100F0D2FA002800F1E4810137302094
S31502000CC0002D03D44545BCBF0798405D51464E45AD
S31502000CD04BDD0C9A904701350137013E0028E6D5D7
S31502000CE0D0E10A9421E6632D53D113980126011D02
S31502000CF0139100688DF834000DAD22E0800513983B
S31502000D0000F1A380011D13910268D317A5E04FF6E7
S31502000D10EF700BEA000B0A234FF0750E3FE01398B3
S31502000D20011D13910068DD49002851EA00855FEA3A
S31502000D304B6058BF4FF0FF392846494600F040FB4A
S31502000D4006465FEA0B706FD40A98B04250EA3688BC
S31502000D50B0426BD90C9A044620205146904700288F
S31502000D6000F19081601E0137F2E70C9A9047002845
S31502000D7000F18881781C0599C90640F11481002E7C
S31502000D8040F0118100F069FA002800F17B810237F8
S31502000D906BE1782840F00981C5F18803AE464FF62B
S31502000DA0F9700BEA00055FEA0B600AD41398011D7D
S31502000DB013910068E9050AD5A90554BF80B2C0B2ED
S31502000DC005E0A805139804D4011D139100680021BB
S31502000DD007E0073020F007010A46496852F8080B77
S31502000DE0139250EA010208BF2BF0160508D00DAE89
S31502000DF07446324600F002FA861BAC46254646E0A9
S31502000E005FEA4B62F3D5B8F1010FF0DA4FF6E970FB
S31502000E100BEA000C0026754639E00598C00600F17B
S31502000E20D18007F1010BD3E0DDF828803744A8EB27
S31502000E300604002E00F0198115F8010B51460C9A92
S31502000E409047013E0028F4D51CE1073020F0070048
S31502000E500146436851F8082B13915846002B48BFA8
S31502000E6040F4806020F0100C82EAE37083EAE371BA
S31502000E70B0EBE37061EBE3711A4300F08A800DACCC
S31502000E800A236646224600F0B9F9B446061B5FEA13
S31502000E904C6002D4614630460BE04FF6FE700CEA17
S31502000EA0000130464E4504DA4846002D08BF2CF0B4
S31502000EB011011FFA81FBC90606D440F206411BEA5C
S31502000EC0010F5FEA0F9103E00121002D51EA019122
S31502000ED00C185FEA0B701BD45FEACB7001D10A993A
S31502000EE007E00A99B1468C42BEBF7018A0EB04090E
S31502000EF00C46A14251EAC4880A98844207DA00F0F5
S31502000F00A8F9002800F1BE8001340137F4E744460F
S31502000F105FEACB6015D440F206401BEA000F20D0F0
S31502000F205FEA8B704FF02B0058BF20205FEA4B51CF
S31502000F3048BF2D200C9A51469047002800F1A28006
S31502000F400EE000F08EF9002800F19C8045B10C9A63
S31502000F50284651469047002800F19480023700E067
S31502000F6001370A983744041BB1450FDD00F079F9C1
S31502000F700137A9F101090028F6D583E009985146FF
S31502000F800C9A805D9047013E00287BD4002E6CD0DF
S31502000F90F4E75FEA4B627FF572AFB8F1010FBFF675
S31502000FA06EAF002673E707465FE00C9A252051468E
S31502000FB09047002866D40C9A284651469047023735
S31502000FC0FFF7F8BB00F049F900285BD407F1020BE2
S31502000FD0009851460C9A801BC0B29047002851D403
S31502000FE0029D2B205146002D48BF2D200C9A90477A
S31502000FF0002D01D569420291002843D404980428A1
S3150200100014D302994FF47A700C9AB1FBF0F551465B
S3150200101005F13000C0B29047002833D44FF47A70FD
S31502001020029905FB10110BF1030504E002990BF17D
S315020010300205032823D1642000F002F9002821D4F6
S315020010406420013506FB10710A2000F0F9F8002829
S3150200105018D406EB86000135A7EB400101F13000FA
S3150200106000F003F900280DD46F1C012CFFF68EAB9D
S3150200107000F0EFF80137013C0028F6D502E002281D
S31502001080E2D2EBE79AF8020040F004008AF8020086
S315020010904FF0FF37384615B0BDE8F08F1341000216
S315020010A0E83D00027C4000022DE9F04389465249A0
S315020010B04FF001084FF0010C0546944580F29980E5
S315020010C02B4613F8014B252C03D01D46002CF7D1D5
S315020010D08FE0AF1C6B783D46252BF1D000264FF0F2
S315020010E0000E00251F2E08D8A3F12004102C06D8C6
S315020010F008FA04F40C4202D042E07F2E0AD8A3F189
S315020011003004092C13D805EB850346F0200604EBC0
S31502001110430535E04C2B23D0682B24D06A2B1FD0F5
S315020011207A2B18BF742B2BD06C2B34D122E07A2B5E
S3150200113026D02A2B18BF2E2B01D1002520E04C2BBE
S315020011400ED0682B0FD06A2B0AD06C2B12D0742BC0
S3150200115016D0242B1FD1BEF1000F16D1AE46ECE7F6
S3150200116046F420760CE006F4807346EA430343F421
S31502001170807605E006F0800346EA830343F08006A4
S3150200118017F8013B002BADD104E06545D5D16323A9
S31502001190E64600E000233D46BEF1000F29D0E645B3
S315020011A07FF48BAF43F02004A4F16505032D01D330
S315020011B0612C06D1D9F80030073323F00703083330
S315020011C012E0DCB2732C0CD0642B18BF692B06D14B
S315020011D0330606D5D9F80030B405EDD403E0632B07
S315020011E0F6D1D9F800300433C9F800300CF1010CFD
S315020011F062E7BDE8F08300BF892801002DE9F041CE
S3150200120003F01F06984614460F46054628463946F9
S315020012103246002300F0E0F800FB1652A2EB080368
S31502001220092A88BF03F13702303204F8012BAA1BC0
S31502001230054677F100020F46E8D22046BDE8F08166
S315020012400C9AB1FBF0F60F4606F130005146C0B2D9
S3150200125010470C9A2020514610470C9A2E205146D0
S3150200126010470C9A3020514610470C9AC0B251468C
S315020012701047D4D42DE9FE4F56EC107B0C4605469A
S31502001280F00F90462871C6F30A516FF31F5657EABC
S31502001290060208BF00290ED089B140F2FF739942B7
S315020012A00FD10821002A08BF04210024084428710E
S315020012B02046BDE8FE8F00200027002605E02E48C6
S315020012C003E0A1F2FF3006F58016002C286003D455
S315020012D00C2C03D90D2436E0002434E03320A0EB95
S315020012E08409022000214A464FF0000A00F046F81F
S315020012F0424202926AEB0102B0F1010B61F1000077
S31502001300019230400090012000214A4600F036F852
S31502001310814607EA0B00B9EB00008A46009871EB9A
S31502001320000008D3A000C0F134023846314600F06E
S3150200133036F8C00703D017EB090746EB0A060298F0
S315020013400740019806401220411FB1D417F00F0240
S3150200135001D1A1420ADCA2EB0803092A88BF03F1E4
S31502001360270230322A54A14251EAC484390941EA99
S31502001370067736090138E7E702FCFFFF930641BF0D
S31502001380A2F1200100FA01F10020704732B1C2F148
S315020013902003914020FA03F31943904070479306C5
S315020013A041BFA2F1200021FA00F00021704732B1BC
S315020013B0C2F12003D04001FA03F31843D14070472B
S315020013C010B54218034629B11C7814B1013901330C
S315020013D0F9E71A46101A10BD40B584B002AE00965F
S315020013E000F004F8029A039B04B040BD2DE9F04FC9
S315020013F0DDF82490844681B1CAB153B3B1FA81F6BD
S31502001400B3FA83F5AE1B202E46D3B9F1000F18BFEF
S31502001410C9E900C14FF0000CB7E093B30021B9F15E
S31502001420000F18BFC9E900C14FF0000CAEE0DBB3F4
S31502001430002879D05E1E334200F09A80B1FA81F616
S31502001440B3FA83F5AE1B1F2EDFD2751CC6F11F063B
S3150200145010E0561E324272D0B1FA81F6B2FA82F525
S31502001460AE1B06F12105202D19D01F2D00F2918009
S31502001470C5F1200620FA05FC01FA06F444EA0C043A
S315020014801AE0B0FBF2FCB9F1000F1EBF0CFB120012
S315020014900021C9E9000178E0751C202D05D14FF025
S315020014A0000C20250C460AE070E0C6F11F0620FA61
S315020014B005F401FA06F73C4321FA05FCB0404FF069
S315020014C0000A45F001E04FF0000B4FEA4C076500B9
S315020014D047EAD47745EAD074B4EB020867EB030611
S315020014E0E143FD4389184FEA400053EB050140EA08
S315020014F0DA704BEA4A0A56EA478C4FEAD17558EA3D
S315020015004484AB460FF01FC84FEADA71B9F1000FF7
S3150200151041EA40014FEA4A0020F0010018BFC9E93A
S31502001520004C05EB000C31E0B1FBF3FCB9F1000F06
S315020015301EBF0CFB13100021C9E9001025E0B9F10A
S31502001540000F1EBF00230640C9E90063012A1DD011
S3150200155092FAA2F24F00B2FA82F202F01F03D140CF
S31502001560D8401F23934307FA03F343EA000C0DE026
S31502001570B9F1000F1CBF06EA0100C9E900C093FADF
S31502001580A3F0B0FA80F021FA00FC00216046BDE823
S31502001590F08FC5F14006A5F1200E20FA0EFC01FAE5
S315020015A006F444EA0C0800FA06FA21FA0EF44FF0A1
S315020015B0000C404685E72DE9F04F9DB0934652EC6C
S315020015C0106B88461546C2F30A546FF31F55D70FA0
S315020015D056EA050108BF002C0BD040F2FF72944276
S315020015E00FD10822002908BF0422D1190171002453
S315020015F0FAE130210124417100210160B91C017117
S31502001600F2E100295FEA0F91022C5FEA2F92CDE9FF
S315020016100970002C069318BF05F580154FEA85035D
S3150200162043EA967041EA02091390A4F235474FEA5B
S31502001630860004BF4FF6CC37CFF6FF77129006F03E
S315020016400100002F0490CDF81480CDF82CB03FD4C1
S31502001650384600F0D9FA8246032F88BFAAF1010A5A
S31502001660504600F0DDFA14A90446504600F060FB2D
S3150200167018A81AA9CDF83C90CDE90010AAEB0700EC
S315020016802044CDF8089000F17C0314AA304629467E
S31502001690564600F0C5F90546BAF1150F109100F24B
S315020016A08E80129F139C3846214600F0ABF98208C1
S315020016B042EA817120F0030008444042F84254D1C4
S315020016C03846214600F0B4FAB0425FEA3F9049E05C
S315020016D0C7F1000A504600F09DFA0446781C18BF6E
S315020016E0013CAAEB040A504600F09AFA0DF15008A2
S315020016F083465046414600F0B5FA18A81AA9424652
S31502001700CA46CDE90010A4EB0B0000F17D0330467A
S315020017102946CDF8089000F083F9E6190546012C12
S31502001720109109D8DDF81480DDF82CB0049850BB6E
S3150200173001201190504644E0DDF814803E2CDDF87D
S315020017402CB03CD84FF0FF304FF0FF312246FFF766
S3150200175015FE139A22EA0101129A22EA00000843B0
S315020017605FEA1F90119000202BE00498B0B90F9801
S31502001770C043C01964F1000100F05AFAB0425FEAB0
S315020017803F90002108E0DDE91A0101381A9061F163
S31502001790000001211B900020119112E047F0020087
S315020017A0214600F045FADDE91A124B1E62F10004E9
S315020017B0B04253EA21801A9054EA22801B900020FC
S315020017C011900F904046BBF1000F0DD0109928469C
S315020017D000F0FDF9069AB1180844B0EBD27FB8BF03
S315020017E0D00F804558EAB0800DF160091B9C08961F
S315020017F0AB4699E8400300250C900020CDE9120083
S3150200180048462146CDF8389000F0F4F881468A46DB
S3150200181030464146CDF8348000F0ECF80746B0EB8E
S315020018200900884671EB0A000ED31099584600F05B
S31502001830CEF90C99884225DD08462946012518B9B4
S31502001840109850EA0B0021D01099584600F0D2F8B1
S31502001850109154461399119A00F0CCF907EB8702BE
S31502001860ABEB4101524213917142B1EB420F0F9A17
S315020018705FEA1F913E460A4012990F928346013152
S315020018801291BDE7DDF840805F4603E000274FF086
S3150200189000080D46DDF83C90DDF828A007955FEAC2
S315020018A0C97027D00D9DBB463046294600F0A2F8E6
S315020018B0074600EB800040422A460D467142B1EBD4
S315020018C0400F19D10E98214600F094F80E900C465E
S315020018D05846414600F08EF888461399119A3E46BC
S315020018E000F088F9ABEB410113911299834601315D
S315020018F01291D9E7454602E045465F460D920898A1
S315020019001299DDF82CB001EB00081398079AC0B2C1
S3150200191005285FEA0F91D2070DD10D9B87EA0602D1
S315020019206B401A4307D1049A002A5FEA1F9202EA21
S315020019300902012A5CD1119A82F00102114339434C
S3150200194004285FEA9F9001EA00043F1945F1000965
S315020019503846494600F03BF9064604B30C988642DF
S315020019601EDDBBF1000F09D0069840443044012821
S31502001970D8BF01200599814251EAB08086420FDD27
S315020019800446781D49F100010A220023FFF724FDCF
S31502001990013E08F1010807462046894600E00C98F8
S315020019A0864256EAB08004B20025261DA54212DA06
S315020019B0384649460A220023FFF70EFD894600EB08
S315020019C080010135A7EB4101074641F030010AF8D3
S315020019D00610013EEAE709988AF804000FFA88F031
S315020019E020440138CAF8000020461DB0BDE8F08F39
S315020019F00124AAE780B500F005F8C00840EA417064
S31502001A00C90880BDF8B502AA0092044A4FF0CC3349
S31502001A1000F019FADDE9020104B080BDCDCCCCCCD0
S31502001A202DE9F04F8DB007931646D2E900230AAC92
S31502001A300094490041EAD07445002846214600F048
S31502001A4002FAD6E90223834605912146DDE90A7A9E
S31502001A5008A80090284600F0F6F910EB070941EBBA
S31502001A600A08DDE90801DDE90A75421C41F10003B5
S31502001A70B9EB0707079C78EB050552EA308253EA71
S31502001A80318396E8A30012F1010CA4F1410A43F155
S31502001A90000415EB090547EB0807CDF818B010EB63
S31502001AA00B00DDF814B009935BEB0100089255F1C7
S31502001AB0000047F10001B0EB0905CDF800A071EB7B
S31502001AC0080554EA33835CEA328200F0D8F9169AA2
S31502001AD0C2E90001189818B3D6E90223D6E900C173
S31502001AE0B9EB0202069868EB0303561E63F1000780
S31502001AF0B0EB0C00DDE908457BEB010056EA3280CB
S31502001B0057EA3381621E65F10003B9EB0006CDF890
S31502001B1000A078EB010652EA348253EA358346E0A6
S31502001B2030684FEA4907049047EADB77706803900A
S31502001B30D6E9021C07AD069B31CDA0F14006009600
S31502001B404FEA4806B7EB090046EAD976CDF81CA05B
S31502001B5076EB0800049A5FEA2F9040EA440A68008E
S31502001B6040EAD474BAF10100029064F100000190D7
S31502001B70781A4FEA4B0566EB0C01B0F1010E61F1E2
S31502001B80000C45EAD375D2EB4303039A75EB0203C5
S31502001B905EEA30805CEA31813B1A029A76EB0103F7
S31502001BA0019B52EA3A82DDF81CA053EA348300F024
S31502001BB066F9179AC2E900014846DDE9082341465B
S31502001BC0CDF800A000F05BF90DB0BDE8F08F70B55E
S31502001BD000230A2401220A25461B71EB030607D3BA
S31502001BE0A5FB045603EB8303013206EB4303F3E73B
S31502001BF0104670BD11F0FF0F5FEA1F910A4000EB1D
S31502001C00800111927047D4D401494843800C704731
S31502001C104134010001494843000D7047FB2E0B0079
S31502001C2002494843012101EBD04070474F9312000D
S31502001C30F0B50A4B02460A4D4FF0FF304FF0CC3456
S31502001C40A2FB0367013002FB047201FB0321721B34
S31502001C5071F133323246F3D3F0BD00BFCDCCCCCCDA
S31502001C60343333332DE9F04F87B08B461A21B0FB5C
S31502001C70F1F2054602FB01F62A4800EB0210B542D4
S31502001C8002D100F0C9F849E004A9274A0091A91B2C
S31502001C90C36852F8317002EBC101D0E901924C6877
S31502001CA00168019100F0ACF8824602A8019A8846C2
S31502001CB00090384621464B4600F0C5F80191814610
S31502001CC0DDE90212002011EB0A0758EB020840F187
S31502001CD00000012801D100F097F82846FFF7A0FF7F
S31502001CE004463046FFF79CFF0199241A48463A46B5
S31502001CF04346009400F0C3F81E226FF0030302EA83
S31502001D00450203EA9503094DEB5800F08DF800F001
S31502001D1093F8009400F0B3F8CBE9020107B0BDE8EE
S31502001D20F08F00BF5041000220420002F042000242
S31502001D302DE9F04F87B08B46054619301A21B0FBC4
S31502001D40F1F22C4802FB01F600EB0210AE4202D180
S31502001D5000F062F84BE004A9274A0091711BD0E912
S31502001D6000A852F8317002EBC101D0E902234C6897
S31502001D7000F046F8019002A8BAF1010268F10003E8
S31502001D808946009000F03CF88A46DDE901310446B6
S31502001D900020039ACF1852EB090840F100000128EF
S31502001DA001D100F031F83046FFF73AFF06462846E1
S31502001DB0FFF736FF361A204651463A464346009604
S31502001DC000F05DF86FF003030C4C03EA95031E2244
S31502001DD002EA4502E35800F027F8013041F100011A
S31502001DE000F02AF8009600F04AF8CBE9020107B0A3
S31502001DF0BDE8F08F48430002204200023844000248
S31502001E003846214600F01FB8DDE90401013004908E
S31502001E1041F100000590704790E80E00C0688BE81B
S31502001E200E00CBF80C00704723FA02F202F003020E
S31502001E30801841F100017047DDE90423CBE9000176
S31502001E40384641467047F0B5A3FB0145DDF814C09C
S31502001E50A2FB0116A2FB00277F18744145F100057B
S31502001E6039462646E3FB0016A3FB0003C01954EBD2
S31502001E70030045F10000CCE900601046F0BD2DE9F3
S31502001E80F041DDF8188017460C460546C8F14002B7
S31502001E9038461946FFF772FA07460E462846214685
S31502001EA04246FFF77CFA38433143BDE8F081D4D489
S31502001EB02DE9F04140F25806EFF31184C2F20026F2
S31502001EC04FF0000888F312880120307600F0A0F95E
S31502001ED043F680404FF00041CEF200009FED291AF2
S31502001EE040F25405016040F2B010C2F2002044F202
S31502001EF0402184F31188C0F20F01006800EE100A37
S31502001F0088425FEA2F917176B8EE400A717EC2F27C
S31502001F10002580EE012A81EE000A00299FED1A1A99
S31502001F2044F6D35102FE000AC1F26201B6EE002A5D
S31502001F30A0FB0101A0EE012A8809BDEEC20A86EDC8
S31502001F40040A7061EFF3118788F31288C5F80080DE
S31502001F5000F01EF8BFF34F8FBFF36F8F00BFBFF3C2
S31502001F604F8FBFF36F8F044600F012F829682144A1
S31502001F70401A286087F31188C6E90088C6E90288F4
S31502001F80BDE8F0810024744900008047D4D4D4D43B
S31502001F90B0B543F27C0240F25803CEF20002C2F21E
S31502001FA00023EFF3118C002080F312881068197E4B
S31502001FB0012943F6C041CEF2000105D10968B1F10B
S31502001FC0FF3F0ADD00211EE0EFF3108E72B60C68A9
S31502001FD0B4F1FF3F04DD002113E01068012112E095
S31502001FE04FF0004041F8400C0021EFF3118081F3DD
S31502001FF01288D3E900450135C3E9004580F311880B
S3150200200010688EF31088D3E900258018D3E90224DC
S315020020106941821A71EB040204DAD3E902018CF3F4
S315020020201188B0BDC3E902018CF31188B0BDD4D4C6
S315020020302DE9F04140F25806EFF31184C2F2002670
S315020020404FF0000888F3128886F8188000F0E0F84E
S3150200205043F680404FF00041CEF200009FED291A70
S3150200206040F25405016040F2B010C2F2002044F280
S31502002070402184F31188C0F20F01006800EE100AB5
S3150200208088425FEA2F917176B8EE400A717EC2F2FB
S31502002090002580EE012A81EE000A00299FED1A1A18
S315020020A044F6D35102FE000AC1F26201B6EE002ADC
S315020020B0A0FB0101A0EE012A8809BDEEC20A86ED47
S315020020C0040A7061EFF3118788F31288C5F800805D
S315020020D0FFF75EFFBFF34F8FBFF36F8F00BFBFF3F4
S315020020E04F8FBFF36F8F0446FFF752FF29682144D3
S315020020F0401A286087F31188C6E90088C6E9028873
S31502002100BDE8F0810024744900008047D4D4D4D4B9
S3150200211010B54EF63050CEF20000006880063FD56C
S3150200212043F68040CEF20000016CB1F1FF3F12DCB3
S3150200213040F2580C4FF00041C2F2002C0160EFF35E
S315020021401181002282F31288DCE900320132CCE9E5
S31502002150003281F31188D0F88011C9B202291FD347
S31502002160026892070AD540F2780C0222C2F2002CCB
S315020021700260DCE900320132CCE9003204290FD3D5
S31502002180026812070AD540F2780C0822C2F2002C25
S315020021900260DCE902320132CCE90232062900D2BF
S315020021A010BD026892060AD540F2780C2022C2F2CD
S315020021B0002C0260DCE904320132CCE90432062941
S315020021C008BF10BD08294FF0010C5CEA3C9E40F2A4
S315020021D07801C2F200210623F64601F1180205E053
S315020021E001330832BEF1010E00D1D9E70CFA03F130
S315020021F0046C0C42F4D00160D2E9001411F580316E
S3150200220044F10004C2E90014EAE7D4D4D4D4D4D405
S3150200221043F60040CEF20000D0F80012490458BF3F
S31502002220704770B543F60462EFF3108CCEF20002EB
S3150200223072B64FF00043116821F00101116003628A
S315020022400366116841F004011160C0F8803011681C
S3150200225041F002011160D0F80012C9B2022954D32A
S315020022604FF600044FF60405CFF6FF74CFF6FF755E
S315020022704FF0080E042940F804E04FF01E044451C2
S315020022804FF00305C0F880504FF002060664056061
S315020022903BD34FF608051326CFF6FF75062946519E
S315020022A04FF60C05CFF6FF7544514FF00C04C0F8FB
S315020022B08040C0F840E0046027D34FF6100603259D
S315020022C0CFF6FF76062985514FF61406CFF6FF762E
S315020022D04FF01E0585514FF03006C0F880604FF072
S315020022E020050564066010D008294FF0010151EA65
S315020022F0319E062400BF00BF01FA04F50134C0F87E
S315020023008050056405600FF009C84EF6FC51CEF206
S3150200231000010E6846F0807646F444160E600364A9
S3150200232003601068002140F00100106041F20000D5
S31502002330CEF2000001608CF3108870BDD4D4D4D4E0
S315020023402DE9F04381B040F2A8004EF200194CF29A
S315020023500036C2F200208021CEF20009C4F2000645
S31502002360FEF7BAF940F2A00040F2A402C2F200203F
S31502002370C2F2002240F258150021C2F20025016085
S31502002380116048F6001044F2C842C4F23500C0F2A9
S315020023900022C5E90820A87842F241632970C0F2FA
S315020023A0002300F0FC00C5E90A3129630130A87058
S315020023B00820C9F8800040F29013BFF34F8FBFF395
S315020023C06F8FF068C2F2002320F48030F060F0686C
S315020023D04EF20140C021CEF20000012240F2B018B6
S315020023E08170DD60C9F88020C2F20028BFF34F8FEA
S315020023F0BFF36F8F376827F480373760376889F8FD
S3150200240000131D600227C9F88070BFF34F8FBFF318
S315020024106F8F776827F480377760776801705D6021
S315020024200427C9F88070BFF34F8FBFF36F8FB76869
S3150200243027F48037B760B768417043F20400C4F2EC
S3150200244020009D60EFF3108782F31088016821F463
S315020024508001016041F200210068C0F27A01D8F8D9
S315020024600000884211D344F23F21C0F20F01084412
S315020024704DF68361C4F21B31A0FB0101880C0001F9
S31502002480A0EB9140400058B90CE04CF60021C3F68F
S315020024909A31B1FBF0F047F23051B1FBF0F008B1DE
S315020024A000F07EFC87F310884FF48061686A00238F
S315020024B0002281604FF41241686AC1F61F724161BF
S315020024C040F21801686AC2F2002109680161686A6D
S315020024D03021C160686A8361696A286A4A6240F289
S315020024E00012696AC0F201020A63EB61C2692B61DA
S315020024F0C5E90533527CAB6072B34EF2540CC4F29A
S31502002500010C9CF8003003F00F07022F03D80123B9
S3150200251003FA07F70DE0FB1E052B06D244F2D87725
S31502002520C0F2002757F8237003E0A7F1080310272B
S315020025309F409CF8013040F22004C2F2002403F0CE
S315020025400F0354F82330B3FBF7F3D8F800707A433D
S31502002550B2FBF3F20132AA6010234FF6FF72C9F6FC
S315020025600753AA818B6690F905104A0901F01F03E9
S3150200257056F8210020F4803046F8210056F8210052
S3150200258009F5C0700121BFF35F8F01FA03F340F82A
S31502002590223049F822302A6A92F90B2056F8223064
S315020025A023F4803346F8223056F82230530902F0DB
S315020025B01F02BFF35F8F01FA02F240F8232049F8A7
S315020025C023202A6A92F9072056F8223023F4803310
S315020025D046F8223056F82230530902F01F02BFF3A2
S315020025E05F8F01FA02F240F8232049F823202A6A73
S315020025F092F9092056F8223023F4803346F8223025
S3150200260056F82230530902F01F02BFF35F8F914042
S3150200261040F8231049F8231040F21141686AC0F2CB
S3150200262001018160686A00BF017FC907FCD044F6D8
S315020026304210C5F24330686001B0BDE8F083D4D4DD
S315020026400179042923D180B540F2A40E40F2A00CF0
S31502002650C2F2002EC2F2002C8068DEF80010DCF80E
S3150200266000304A1C803A52EA0192CEF800209A4281
S3150200267040F2A803C2F200235854BDE8804018BFB6
S315020026807047501C803850EA0290CCF80000704720
S3150200269040F25811C2F200214A6A1071486A00BF1C
S315020026A0816C8900FCD500207047D4D4D4D4D4D40C
S315020026B02DE9F04182B040F2A40040F2A007C2F236
S315020026C00020C2F2002700BF01683D688D4201D199
S315020026D000BFF9E7A94209D940F2A8020139C2F2BC
S315020026E000220160525D8DF8072025E0481BC5F1E6
S315020026F08004803040F2A800C2F200200DF10708E3
S3150200270000EB0501404622465FEA0F96FDF7C0FF41
S31502002710A64205D2A819B0F1800150EA11800AE05A
S31502002720361B40F2A80108EB0400C2F20021324631
S31502002730FDF7AEFF701938609DF8070002B0BDE8DC
S31502002740F081D4D4D4D4D4D4B0B543F6B16072B641
S315020027504EF62855C0F20020CEF20005FDF7DCFF4A
S315020027606868002807D4686840000AD544F29700D2
S31502002770C0F2002003E043F61D60C0F20020FDF720
S31502002780CBFF44F21A10EFF30884C0F20020FDF7E3
S31502002790C3FF43F630702168C0F20020FDF7AAFF9E
S315020027A043F6E0606168C0F20020FDF7A3FF43F63E
S315020027B0EC50A168C0F20020FDF79CFF44F2ED0048
S315020027C0E168C0F20020FDF795FF43F6B550216996
S315020027D0C0F20020FDF78EFF44F26E006169C0F27E
S315020027E00020FDF787FF43F61A30A169C0F20020E8
S315020027F0FDF780FF43F62830E169C0F20020FDF7BD
S3150200280079FF43F6FA50C0F20020FDF785FF43F642
S31502002810C3502968C0F20020FDF76CFF44F249005C
S3150200282055F8241CC0F20020FDF764FF44F235007F
S315020028306968C0F20020FDF75DFF43F63630C0F24C
S315020028400020FDF769FF43F6C030EFF30581C0F2C1
S315020028500020FDF74FFF2868800105D543F6EE609C
S31502002860C0F20020FDF758FF2868C00105D543F6DF
S315020028700E70C0F20020FDF74FFF2868C00224D573
S3150200288043F67A60C0F20020FDF746FF43F66C304D
S315020028902146C0F20020FDF72DFF44F25D00EFF362
S315020028A00A81C0F20020FDF725FF44F23D10EFF346
S315020028B00981C0F20020FDF71DFF43F6D750EFF362
S315020028C00B81C0F20020FDF715FF2868000305D52D
S315020028D043F63B60C0F20020FDF71EFF2868400366
S315020028E005D543F67D30C0F20020FDF715FF2868B6
S315020028F0800305D543F65B60C0F20020FDF70CFFAE
S315020029002868C00305D544F2C600C0F20020FDF7D0
S3150200291003FF2868C00505D543F69930C0F20020AA
S31502002920FDF7FAFE00BEB0BDFFF70AFDFFF780FB1A
S3150200293028204FF48061C4F24000016043F63E70E5
S31502002940C0F20020FDF7E8FE43F6CF30C0F20020C9
S31502002950FDF7E2FE43F65930C0F20020FDF7DCFE39
S3150200296001F0D6F8D4D4D4D4FFF7DEFFD4D4D4D42D
S31502002970B0B584B04FF07041EFF3038001EB006015
S315020029804CF200318015C4F20001425822F4803222
S31502002990425040F290124158C2F200221458206A64
S315020029A000690028606902D0E0B104B0B0BDC8B1C8
S315020029B0A07800F003000228206905D10088616A28
S315020029C020F4DC40486002E0616A00780871A07871
S315020029D0226900F003016069401A606111442161B5
S315020029E00028E2D1616A02228D68A06862F3155559
S315020029F010B100F0D5F9616A8D60A06A00284FF027
S31502002A0000002061D1D0E06A20B190E82E008DE866
S31502002A102E0000E06846216A097801600021816083
S31502002A2080210171216BC160A16A8847E06A002892
S31502002A301CBF9DE82E002EC004B0B0BDD4D4D4D4A1
S31502002A4010B586B04FF07041EFF3038001EB0060E2
S31502002A504CF200318015C4F20001425822F4803251
S31502002A60425040F290124158C2F200221458A07805
S31502002A7000F00302606A022A03D101686FF35F2144
S31502002A8000E00178E0690191D0B1A06901A9FDF7E2
S31502002A90FFFDA078D4E9061200F003000144101AE3
S31502002AA0C4E9061034D1A06A90B3E06AE0B1D0E975
S31502002AB000C2D0E90231CDE90431CDE902C214E007
S31502002AC0A06A28B3E06A40B1D0E900CED0E9022379
S31502002AD0CDE90423CDE902CE00E002A8226A1278EB
S31502002AE081600260042106E002A8216A0978016079
S31502002AF00021816001210171216BC160A16A8847B1
S31502002B00E06A28B102AC1ECC016042608360C460F8
S31502002B1006B010BDD4D4D4D4B0B584B04FF0704151
S31502002B20EFF3038001EB006040F290128115C2F2CE
S31502002B3000224FF6EF7304165558CFF6CF73696A23
S31502002B408A681A408A60A96AE1B1E86A40B1D0E9A6
S31502002B5000C2D0E90231CDE90231CDE900C200E07E
S31502002B606846296A097801600021816002210171A3
S31502002B70296BC160A96A8847E86A00281CBF9DE8DC
S31502002B802E002EC04CF20030C4F2000050F8241081
S31502002B9021F4803140F8241050F8240004B0B0BD6E
S31502002BA070B584B04FF07041EFF3038001EB006023
S31502002BB040F290128115C2F200225458A178636A3B
S31502002BC001F00301022904D1D3F800C06FF35F2C90
S31502002BD001E093F800C09A6C2025082105EAD24547
S31502002BE04FF0100E01EA12611EEA126229440A44EB
S31502002BF003D0996C090458BF4032996E051641F00C
S31502002C00C8519966A16AD9B1E06A40B1D0E900E338
S31502002C10D0E90216CDE90216CDE900E300E06846E6
S31502002C20216A0978C0F808C001600271216BC1608F
S31502002C30A16A8847E06A00281CBF9DE84E004EC084
S31502002C404CF20030C4F2000050F8251021F4803115
S31502002C5040F8251050F8250004B070BDD4D4D4D461
S31502002C60F0B581B00C46C9B2054643F20000C4F283
S31502002C702300164640EA0120A8600120C1F1140192
S31502002C80EFF3108780F31088884043F20C01C4F2F8
S31502002C9020010B6823EA00000860086840F2B010C1
S31502002CA041F20021C2F20020C0F27A010068884295
S31502002CB011D344F23F21C0F20F0108444DF683615D
S31502002CC0C4F21B31A0FB0101880C0001A0EB91406C
S31502002CD0400058B90CE04CF60021C3F69A31B1FB1C
S31502002CE0F0F047F23051B1FBF0F008B100F058F8BD
S31502002CF087F3108847F6FE72A868C7F6FF72416826
S31502002D00114041607078A9688A6800F0010022F4D7
S31502002D10803242EA00408860B078A968CA6800F04A
S31502002D20010022F4807242EA0020C860A8680021ED
S31502002D300180A8683178426822F0004242EAC171F5
S31502002D40416044F242302C70C4F24140686001B0E6
S31502002D50F0BDD4D4D4D4D4D480B582B04FF070416F
S31502002D60EFF3038001EB006040F290114CF2003267
S31502002D708015C2F20021C4F200020958835823F4D6
S31502002D80803383508058486801780191D0E9031056
S31502002D9000906846884702B080BDD4D4D4D4D4D437
S31502002DA001380028FCD170474CF22010C4F2000012
S31502002DB050F8201C0268114040F8101C00BF00BFEA
S31502002DC002680A42FCD1704700F00AF8FFF7CCFD10
S31502002DD000BE7047D4D4D4D4D4D4D4D4D4D4D4D486
S31502002DE02DE9F04F83B04EF6145840F20120CEF290
S31502002DF00008C0F20E004EF20005C8F80000CEF23E
S31502002E000105BFF34F8FBFF36F8F58F8141CC1F340
S31502002E10035001285FEA1F9211F00F0F5FEA0F912C
S31502002E201142296811D102280FD241F0040028600C
S31502002E304EF20800BFF34F8FCEF20000BFF36F8F42
S31502002E40016841F48031016002E021F0040028604B
S31502002E50BFF34F8F4EF2FA324FF47000BFF36F8F0B
S31502002E60C8F8740040F20000C4F20102C0F2002069
S31502002E7048F80C0C4AF20250CFF6FF7040F22009D5
S31502002E800FF66C4101301080C2F200290FF6704035
S31502002E9091ED001F4EF2550A09F1200389ED001F3C
S31502002EA0C4F2010A48F2004190ED001F43F6000009
S31502002EB044F25532C1F69C4089ED041FC1F2D77126
S31502002EC0C1F2DE3207C31AF82F0C3AF8311C01F0B0
S31502002ED00F02A2F1080103292BD8DFE801F0022034
S31502002EE00C164AF6AB2159F82000CAF6AA21A0FB15
S31502002EF00101480820E04AF6AB2159F82000CAF63B
S31502002F00AA21A0FB0101C80816E04AF6AB2159F82E
S31502002F102000CAF6AA21A0FB010108090CE04AF624
S31502002F20AB2159F82000CAF6AA21A0FB01018808A4
S31502002F3002E059F82000D04040F2B0164EF60047A3
S31502002F40C2F20026C4F201070A2130604FF6506031
S31502002F50CFF6FF70395409208AF84D004EF64C41DF
S31502002F603878C4F2010118B911F84B0C800736D033
S31502002F70387880BB41F2FF1101203870C0F27A0125
S31502002F80306888420FD944F23F21C0F20F0108444B
S31502002F904DF68361C4F21B31A0FB0101880CC821E6
S31502002FA0484368B90EE04CF60021C3F69A31B1FBEC
S31502002FB0F0F040F64051C0F20301B1FBF0F008B167
S31502002FC0FFF7EEFE4EF64C41C4F2010100BF00BF10
S31502002FD038780128FCD1002001F84B0C387000200B
S31502002FE00AF8230C00BF00BF1AF8190C0007FBD51C
S31502002FF042F602314FF60210CAF8730040F241500F
S315020030002AF8070C0020C0F201010AF80B0CCAF8D4
S31502003010571040F283412AF8091CBFF34F8FBFF3C2
S315020030206F8FD8F8001021F40031C8F80010C8F8E4
S315020030303C02BFF34F8FBFF36F8F286820F44050D6
S315020030402860BFF34F8FBFF36F8F1AF8410C00F061
S31502003050F80001300AF8410C1AF8410CC006FBD4FC
S31502003060286840F440502860BFF34F8FBFF36F8F3C
S31502003070D8F80000800314D4BFF34F8FBFF36F8FCD
S315020030800020C8F83C02BFF34F8FBFF36F8FD8F80A
S31502003090000040F40030C8F80000BFF34F8FBFF3C2
S315020030A06F8F00200AF82B0C1AF8190C8006FBD534
S315020030B04CF200040020C4F2130420702078207819
S315020030C020786068C82807D0C820C1F6006000BF13
S315020030D060606168C829FBD1A068642808D06420B2
S315020030E0CEF2001000BF00BFA060A1686429FBD128
S315020030F049F69820C9F689004AF8350C48F6800048
S315020031002AF8310C05200AF82F0C1AF82F0C3AF877
S31502003110311C01F00F02A2F1080103292BD8DFE8C6
S3150200312001F002200C164AF6AB2159F82000CAF625
S31502003130AA21A0FB0101480820E04AF6AB2159F872
S315020031402000CAF6AA21A0FB0101C80816E04AF629
S31502003150AB2159F82000CAF6AA21A0FB01010809F1
S315020031600CE04AF6AB2159F82000CAF6AA21A0FBC8
S315020031700101880802E059F82000D04041F2FF110F
S315020031803060C0F27A01884211D944F23F21C0F27E
S315020031900F0108444DF68361C4F21B31A0FB010105
S315020031A0880C0001A0EB9140400058B90CE04CF6A7
S315020031B00021C3F69A31B1FBF0F047F23051B1FB70
S315020031C0F0F008B1FFF7ECFD60686FF39F20652809
S315020031D001D3012020701AF82F0C3AF8311C01F0A5
S315020031E00F02A2F1080103292BD8DFE801F0022021
S315020031F00C164AF6AB2159F82000CAF6AA21A0FB02
S315020032000101480820E04AF6AB2159F82000CAF627
S31502003210AA21A0FB0101C80816E04AF6AB2159F81B
S315020032202000CAF6AA21A0FB010108090CE04AF611
S31502003230AB2159F82000CAF6AA21A0FB0101880891
S3150200324002E059F82000D04042F200013060C4F298
S3150200325000014AF20250013808800120BFF35F8F55
S3150200326008724FF42540BFF35F8F08809AF88500F5
S3150200327040F040008AF885009AF98500B0F1FF3FD8
S31502003280FADC01208AF87F00C7208AF885009AF8BE
S31502003290850000F0BF008AF8850000BF00BF00BFAE
S315020032A09AF985000028FBD401200AF8250C0AF8B1
S315020032B0030C0AF8020C9AF81F0040F040008AF844
S315020032C01F0000BF00BF00BF9AF91F00B0F1FF3F09
S315020032D0FADC07208AF8170048208AF81F0008201F
S315020032E08AF81F0000BF00BF9AF91F000028FBD40E
S315020032F09AF8000040F040008AF8000000BF00BFC4
S315020033009AF90000B0F1FF3FFADC02200AF8010C3C
S31502003310C8208AF800009AF8000000F0BF008AF878
S31502003320000000BF00BF00BF9AF900000028FBD4CE
S315020033304EF2FA334FF42540C4F201034AF2025127
S315020033400022188019804FF6B061CFF6FF717A54C9
S31502003350188040F20000C2F2000080F30A88286852
S31502003360800725D558F80C0CB0F1007F20D12869CA
S315020033704FF40071C0F3C3006A6901FA00F3C2F3A5
S31502003380C30081400020DA08CB080146074642F016
S3150200339007C800BF00BF00BFE7E802010FF005C083
S315020033A04FF0005243F005C0E2E802010FF005C0FB
S315020033B044F614000B24C0F2002000F1040B5D4613
S315020033C006E000BF00BF00BF013C05F10C0508D0B6
S315020033D068790028F8D155E90101091AFDF77CF947
S315020033E0F2E744F698004F46C0F20020192400F195
S315020033F008094D4604E000BF013C05F1100509D05D
S3150200340068790028F8D155E902022968121AFDF7EF
S315020034103FF9F1E71AF82F0C3AF8311C01F00F02C6
S31502003420A2F1080103292BD8DFE801F002200C16CD
S315020034304AF6AB2157F82000CAF6AA21A0FB0101E1
S31502003440480820E04AF6AB2157F82000CAF6AA211E
S31502003450A0FB0101C80816E04AF6AB2157F8200086
S31502003460CAF6AA21A0FB010108090CE04AF6AB2123
S3150200347057F82000CAF6AA21A0FB0101880802E03B
S3150200348057F82000D04042F2240441F2FF11C4F260
S31502003490200430600020C0F27A0120713068884230
S315020034A00FD944F23F21C0F20F0108444DF6836161
S315020034B0C4F21B31A0FB0101880CC821484368B93C
S315020034C00EE04CF60021C3F69A31B1FBF0F040F65D
S315020034D04051C0F20301B1FBF0F008B1FFF760FC06
S315020034E00020207000BF00BF207808B12FF005C071
S315020034F0207840F00200207020788007FCD400205B
S3150200350004F8020C00BF00BF14F8020C08B12FF039
S3150200351005C84FF0030E002004F11C0500BF00BFD2
S3150200352015F8101001F07F0105F8101000BF00BF5A
S3150200353015F910100029FBD401300FF00FC840F224
S31502003540A417EFF31080C2F20027012181F310883D
S31502003550798841B94EF2FA324AF20253C4F20102B2
S315020035601188194311807988013179804EF64C41D0
S3150200357080F31088C4F20101002008700121EFF3E4
S31502003580108081F31088798811B1798801397980A0
S31502003590798849B94EF2FA32C4F20102118841F42D
S315020035A0254121F00201118080F310880121EFF3F9
S315020035B0108081F31088F98849B94EF2FA334AF23B
S315020035C00252C4F201030E32198811431980F98896
S315020035D04FF00E0E0131F98080F3108840F6145038
S315020035E0C4F240001C30002120F8041B0FF005C075
S315020035F040F2A4170121C2F20027EFF3108081F3F3
S315020036001088F98811B1F9880139F980F98849B920
S315020036104EF2FA32C4F20102118841F4254121F038
S315020036201001118080F310880121EFF3108081F3DD
S315020036301088F98849B94EF2FA334AF20252C4F2B4
S3150200364001030E32198811431980F9880131F98074
S3150200365080F3108844F20400C4F2200000210160C5
S3150200366041608160C1600121EFF3108081F310880F
S31502003670F98811B1F9880139F9800195F98849B9B2
S315020036804EF2FA32C4F20102118841F4254121F0C8
S315020036901001118080F310880B244FF4807503E02B
S315020036A0013C0BF10C0B0AD09BF80500B5EB002F81
S315020036B0F6D15BE90101091AFDF70EF8F0E71924C4
S315020036C04FF4807504E000BF013C09F110090CD0EB
S315020036D099F80500B5EB002FF6D159E90202D9F89F
S315020036E00010121AFCF7D4FFEEE740F2B414C2F24D
S315020036F000242046FCF7DCFF2046FCF7F1FFBFF36F
S315020037004F8FBFF36F8F0020C8F83C0244F6842027
S3150200371044F68821C0F20020C0F20021BFF34F8F89
S31502003720081ABFF36F8F8410012C0ADB44F6842536
S31502003730C0F2002500BF00BF55F8040B8047013CCC
S31502003740FAD14EF64C4340F2A41500214FF001097E
S31502003750C4F20103C2F2002507E000BF00BF00BFAA
S31502003760029901315E2900F0D88044F2E84044F221
S31502003770EC74C0F200204FF0000B00EBC108C0F25F
S315020037800024019F0291B8F804A007E000BF00BF21
S315020037900BF1010B0237BBF1030FE1D034F8020B38
S315020037A08245F5D1D8F800001A7800F0B85109FA26
S315020037B00BF0B1F1807F00EA02013DD199BBEFF334
S315020037C0108189F310886A8872B94EF2FA3C4AF27D
S315020037D00256C4F2010CBCF80020324340F2B01685
S315020037E0C2F20026ACF800206A8801326A8081F3B0
S315020037F01088197808431870EFF3108089F310883F
S31502003800698811B1698801396980698849B94EF2B6
S31502003810FA32C4F20102118841F4254121F0020173
S31502003820118080F3108897F900000028B0D4387808
S3150200383040F080003FE000BFA1B3EFF3108189F3AF
S3150200384010886A8872B94EF2FA3C4AF20256C4F2FB
S31502003850010CBCF80020324340F2B016C2F2002638
S31502003860ACF800206A8801326A8081F310881978E0
S3150200387021EA00001870EFF3108089F31088698836
S3150200388011B1698801396980698849B94EF2FA32FB
S31502003890C4F20102118841F4254121F0020111808E
S315020038A080F3108897F90000B0F1FF3F3FF770AF41
S315020038B0387800F07F0041F2FF113870C0F27A01C9
S315020038C0306888420FD944F23F21C0F20F01084402
S315020038D04DF68361C4F21B31A0FB0101880CC8219D
S315020038E0484378B954E74CF60021C3F69A31B1FB46
S315020038F0F0F040F64051C0F20301B1FBF0F00028AF
S315020039003FF446AFFFF74CFA40F2A4154EF64C438D
S31502003910C2F20025C4F201033AE7EFF31081012057
S3150200392080F3108840F28C10C2F2002002683AB985
S3150200393040F614530022C4F240031A7040221A7051
S3150200394002684FF05E0E0132026081F3108844F283
S31502003950E842F64640F60001C0F20022C4F24001F7
S3150200396004320AE000BF00BF01EB8616083246F8B1
S315020039702730BEF1010E00D114E0178852F8043C3C
S31502003980DE034FEA1726FFB2EED501EB861555F890
S31502003990274024F4803445F8274023F4803445F840
S315020039A02740E1E70122EFF3108182F310884EF6F9
S315020039B014540268CEF2000412B10268013A02609F
S315020039C0006838B940F614520020C4F24002107062
S315020039D08020107081F310884FF0050E42F200002D
S315020039E0C4F2000044F6282100F52340C0F200216B
S315020039F031F8022B40F8042B0FF007C0D4F8AC00C4
S31502003A00442161F30700C4F8AC00E06FC0F307205D
S31502003A1040B344F2F4710022C0F2002100270431BF
S31502003A20002300BF00BF00BF0D68202D13D351F83D
S31502003A30046C25F01F0526F01F06203DB5420AD369
S31502003A40013345F0010546F00106C4F88470C4F856
S31502003A508860C4F88C50022A04D8DFB201320831D9
S31502003A60B842E1D8BFF35F8F0520C4F88000206911
S31502003A7040F480302061BFF34F8FBFF36F8F206811
S31502003A80C0032FD400202067BFF34F8FE16E43F6A9
S31502003A90E073C1F34E30CA08C1F3C9014F1C910746
S31502003AA0420100BF00BF00BF02EA030647F001E081
S31502003AB00E4400BF00BF00BFC4F84C6206F1404688
S31502003AC00FF007C00028A0F10100A2F12002EBD1FD
S31502003AD0BFF34F8F206840F480302060BFF34F8FD2
S31502003AE0BFF36F8F03B0BDE8F08F00BF00BF00BF0A
S31502003AF0006CDC0200127A000080000000366E01C3
S31502003B00008000000046C32300CA9A3BAA02E50FC2
S31502003B1040F2190CC0F2000C604750433A202030A4
S31502003B2078253038580D0A005053523A20307825FD
S31502003B303038580D0A003D3D3D3D3D3D3D3D204F4F
S31502003B4074686572205265676973746572203D3DBB
S31502003B503D3D3D3D3D3D0D0A000D0A5374617274B3
S31502003B6020746573742E2E2E2E2E0D004D53503A50
S31502003B70202020203078253038580D0A0043686509
S31502003B80636B6564204572726F723A20496E766184
S31502003B906C69642050430D0A00436865636B656473
S31502003BA0204572726F723A20496E7374727563742D
S31502003BB0696F6E20427573204572726F720D0A002C
S31502003BC0495053523A203078253038580D0A000DA4
S31502003BD00A496E20746869732070726F6A6563742D
S31502003BE020444143302069732075736564206173F4
S31502003BF0207265666572656E636520766F6C7461A8
S31502003C00676520736F7572636520616E6420444137
S31502003C104331206973207573656420617320696E70
S31502003C207075740D0A766F6C7461676520736F75B3
S31502003C3072636520666F722041434D504853206D72
S31502003C406F64756C652E20444143302076616C7535
S31502003C50652069732073657420746F20323034389E
S31502003C602028692E652E2C20312E363556292E0D0A
S31502003C700A54686520757365722063616E20656EED
S31502003C8074657220444143312076616C75652077F4
S31502003C90697468696E207065726D697474656420F2
S31502003CA072616E67652E205768656E204441433106
S31502003CB020696E7075742076616C75652069732053
S31502003CC0677265617465720D0A7468616E20736548
S31502003CD0742044414330207265666572656E636581
S31502003CE020766F6C746167652C2074686520636F3B
S31502003CF06D70617261746F72206F75747075742065
S31502003D00737461747573206973204849474820614A
S31502003D106E64206F6E2D626F617264204C45440D95
S31502003D200A6973207475726E6564204F4E2E205791
S31502003D3068656E204441433120696E70757420694E
S31502003D4073206C657373207468616E207265666594
S31502003D5072656E636520766F6C746167652C206F81
S31502003D607574707574207374617475732069732029
S31502003D704C4F570D0A616E6420746865204C4544A9
S31502003D80206973207475726E6564204F46462E0D47
S31502003D90000D0A2A2A20525F41434D5048535F5371
S31502003DA0746174757347657420204641494C4544D5
S31502003DB0202A2A0D005231323A20307825303858DE
S31502003DC00D0A005343422D3E435346523A20307861
S31502003DD0253038580D0A005053504C494D3A203080
S31502003DE078253038580D0A00696E660052323A203C
S31502003DF0203078253038580D0A003D3D3D3D3D3D89
S31502003E003D3D3D2053434220526567697374657296
S31502003E10203D3D3D3D3D3D3D3D3D0D0A0048617223
S31502003E20644661756C74206F636375727265642093
S31502003E3062792044454255470D0A00436865636B23
S31502003E406564204572726F723A204E6F20436F701E
S31502003E50726F636573736F720D0A00436865636BF5
S31502003E606564204572726F723A20496E76616C699A
S31502003E70642053746174650D0A00436865636B655B
S31502003E8064204572726F723A20537461636B204FDD
S31502003E90766572666C6F770D0A00436F6D7061729C
S31502003EA061746F72206F7574707574206C6F770D04
S31502003EB0003D3D3D3D3D3D3D3D3D3D3D3D3D3D3D67
S31502003EC020496E20486172644661756C74203D3DDE
S31502003ED03D3D3D3D3D3D3D3D3D3D3D3D3D0D0A00AA
S31502003EE052313A20203078253038580D0A0043687E
S31502003EF065636B6564204572726F723A2044697617
S31502003F00696465204279205A65726F0D0A0043681A
S31502003F1065636B6564204572726F723A20556E61F5
S31502003F206C69676E6564204163636573730D0A008D
S31502003F3052303A20203078253038580D0A000D0AC2
S31502003F402A2A2A2A2A2A2A2A2A2A2A2A2A2A2A2AC9
S31502003F502A2A2A2A2A2A2A2A2A2A2A2A2A2A2A2AB9
S31502003F602A2A2A2A2A2A2A2A2A2A2A2A2A2A2A2AA9
S31502003F702A2A2A2A2A2A2A2A2A2A2A0D0A2A2020EA
S31502003F802052656E657361732046535020457861F1
S31502003F906D706C652050726F6A65637420666F720D
S31502003FA02041434D504853204D6F64756C65202067
S31502003FB020202020202020202A0D0A2A20202046E8
S31502003FC06C657820536F6674776172652050616301
S31502003FD06B2056657273696F6E20204653502036E9
S31502003FE02E352E3020202020202020202020202088
S31502003FF020202020202A0D0A2A2A2A2A2A2A2A2A88
S315020040002A2A2A2A2A2A2A2A2A2A2A2A2A2A2A2A08
S315020040102A2A2A2A2A2A2A2A2A2A2A2A2A2A2A2AF8
S315020040202A2A2A2A2A2A2A2A2A2A2A2A2A2A2A2AE8
S315020040302A2A2A0D005343422D3E484653523A201D
S315020040403078253038580D0A005343422D3E4943F5
S3150200405053523A203078253038580D0A004D5350C5
S315020040604C494D3A203078253038580D0A004C52CA
S315020040703A20203078253038580D0A006E616E00DD
S315020040804441432077726974652076616C75653A9E
S315020040902025642E0D0A00486172644661756C74AF
S315020040A0206F63637572726564206279206F74682B
S315020040B0657220657863657074696F6E20666F72CB
S315020040C06365640D0A00436865636B656420457227
S315020040D0726F723A20556E646566696E6564204930
S315020040E06E737472756374696F6E0D0A0052333A99
S315020040F020203078253038580D0A00436F6D7061E4
S315020041007261746F72206F75747075742068696756
S31502004110680D00286E756C6C29003D3D3D3D3D3DA8
S315020041203D3D3D3D204D535020537461636B20202D
S315020041303D3D3D3D3D3D3D3D3D3D0D0A005053500B
S315020041403A202020203078253038580D0A00D4D461
S315020041500000000000000000000000000000001047
S315020041600000000000000000B9340332B7F4AD14B9
S3150200417010DB1AB30892540E0D307D951447BA1A05
S3150200418066088F4D26ADC66DF598BF85E2B7451117
S31502004190CA96853D92BD1DEBFCA11860DCEF521656
S315020041A03C92AE220BB8C1B4839D2D5B0562DA1C2C
S315020041B0304C7E8F4E8BB25B16F4529F8B56A512F5
S315020041C0FBD4827643ED8AF08FE7F931156519182B
S315020041D050F19BD94A13EEB4284CF0A686C1251F8E
S315020041E0035FC270CB9E4916E642889C44EB2014BC
S315020041F0B0650836AD6EA58585F0CA14E2FD031AD0
S315020042000B899979D5B13D09D8DA973A35EBCF10B2
S31502004210AC363F5E73BB38CF3E6752FA44AFBA152F
S315020042200100000000000000050000000000000080
S3150200423019000000000000007D00000000000000E0
S315020042407102000000000000350C000000000000B2
S31502004250093D0000000000002D31010000000000B1
S31502004260E1F505000000000065CD1D00000000001C
S31502004270F902950000000000DD0EE90200000000D0
S31502004280514A8D0E000000009573C24800000000DE
S31502004290E941CC6B010000008D49FD1A07000000C0
S315020042A0C16FF28623000000C52EBCA2B100000039
S315020042B0D9E9AC2D780300003D9160E45811000065
S315020042C031D6E275BC560000F52E6E4DAEB1010038
S315020042D0C9EA268367780800ED95C28F055A2A0037
S315020042E0A1EDCCCE1BC2D30025A4000A8BCA2204A0
S315020042F000000000000000000000000000000000B6
S31502004300000000409559695955555455155555564D
S3150200431004051541105455404551554440455044F5
S315020043205055554500400040400444966555565543
S3150200433045404554514115405591555555554051A5
S3150200434005010000D4D4D4D401000000000000000E
S315020043500000000000000020345065C05FC9A6526C
S31502004360BB13CBAEC440C21806C8DF7100D5A87C09
S31502004370F56F0FDA58FC27136E4756357D242065F4
S3150200438002C7E768E48CA41DE9E60268D7CD396165
S315020043907977FCC2405BEF16798CDE43FFA751F9B1
S315020043A091F3B278F5BDBE11E857E9D6E8BEE87BCF
S315020043B0B054AC8F848D751BEA23A499E9F9D38B8B
S315020043C0B7A3714061DA3E15CEE33ECB73F94808D6
S315020043D08C97B427D51B7010A2BFEFB9EB853215A7
S315020043E04DB44DB49BBB6F1996B6076CF8E7EEADAC
S315020043F036D9B4F59135AE13222218AF4E6A684DFE
S3150200440091DAAA3D4F40741E9FBD9EE006A1C09858
S3150200441057C2A7FDA40E90170E7D497173E3208F34
S31502004420B220D87605143B12853D7434811343B00D
S31502004430AD297A5F27F4351C544554544555050475
S3150200444000100410140440000000014055551541A7
S3150200445054040000440001000000004041000044F2
S31502004460504445505400555554556551004000403E
S315020044700100000100050100115451515455550522
S315020044800015415000000440100104050000000020
S3150200449000000022010000010000D4D40000030342
S315020044A00001000C040000000100000000000000F2
S315020044B01000002200010000180000220F00FFFF7A
S315020044C00000000101000000090200000C000C01BE
S315020044D00C020C030000000000000000412600024E
S315020044E000000000B4440002008000000E0000003C
S315020044F0008000000F0000000008011C00010000FF
S315020045000008011C010100000008011C0301000053
S3150200451000000103050100000004011C0701000060
S315020045201040000008010000040C00000A0100000F
S31502004530000C01150B010000000C010B0C01000020
S31502004540000C010B0D010000000C010B0E01000016
S31502004550000C010B0F0100000040000000020000E9
S3150200456010400000010200000000010305020000E5
S31502004570000001050802000000040105090200000E
S31502004580000801000A020000000001000B02000000
S31502004590000001000C020000000001000D020000F4
S315020045A0000001000E020000000001000F020000E0
S315020045B0000C010B00030000000C010B01030000BC
S315020045C0000C010B02030000104000000303000070
S315020045D00000011307040000000401130804000090
S315020045E04004010709040000400401070A04000010
S315020045F0000C010B03050000000C010B0405000072
S31502004600000C010B05050000000C010B060500005D
S31502004610000C010B07050000000C010B0805000049
S31502004620000C010B09050000000C010B0A05000035
S315020046300404000006060000000C010B0706000039
S31502004640000C010B08060000000C010B0906000015
S31502004650000C010B0A060000000C010B0B06000001
S31502004660000C010B0C060000000C010B0D060000ED
S31502004670000C010B0E060000000C010B0F060000D9
S315020046800008011C030800000008011C08080000BD
S31502004690000C010B0D080000000C01130E080000AF
S315020046A0000C01130F080000000C010B000A0000A9
S315020046B0000C010B010A0000000C010B020A0000AB
S315020046C0000C010B030A0000000C010B040A000097
S315020046D0000C010B050A0000000C010B060A000083
S315020046E000000109070A0000000C010B080A00007D
S315020046F0000C010B090A0000000C010B0A0A00005B
S31502004700000C010B0B0A0000000C010B0C0A000046
S31502004710000C010B0D0A0000000C010B0E0A000032
S315020047200008010B0F0A0000000C010B000C000030
S31502004730000C010B010C0000000C010B020C000026
S31502004740000C010B030C0000000C010B040C000012
S31502004750000C010B050C0000000C010B060C0000FE
S31502004760000C010B070C0000000C010B080C0000EA
S31502004770000C010B090C0000000C010B0A0C0000D6
S31502004780000C010B0B0C0000000C010B0C0C0000C2
S31502004790000C010B0D0C0000000C010B0E0C0000AE
S315020047A0000C010B000D0000000C0115010D0000AC
S315020047B0000C0115020D0000000C0115030D00008E
S315020047C0000C0115040D000000080115050D00007E
S315020047D010000115070D0000060000000800000089
S315020047E003000000050000000A00000002040304A2
S315020047F00404D4D4000000680000006800000080B1
S3150200480000000080000000700000007020000022FE
S315020048102000002200000068000000680001000D70
S3150200482000000068000000680001000D0000008022
S3150200483000000080000100080000008000000080E7
S315020048400001000800000070000000700001000A6C
S3150200485000000070000000700001000A140600004B
S315020048601406000001000005004000200040002060
S3150200487001000004200000222000002200000003A4
S3150200488050000022B401002200000003B4010022FD
S31502004890B401002200000003000000680000006866
S315020048A0000000900001090D000000680000006889
S315020048B00000007800010B0D00000068000000688F
S315020048C0000000270001020D0000006800000068D9
S315020048D0540000020001010D00000080000000806B
S315020048E0000000900001090800000080000000801E
S315020048F00000007800010B08000000800000008024
S31502004900000000270001020800000080000000806D
S31502004910540000020001010800000070000000704F
S31502004920000000900001090A0000007000000070FB
S315020049300000007800010B0A000000700000007001
S31502004940000000270001020A00000070000000704B
S31502004950540000020001010A0000000000000000ED
S31502004960000000900101090500000000000000009F
S315020049700000007801010B050000000000000000A5
S3150200498000000027010002050000000014060000D6
S31502004990580000020100010500000020000000206E
S315020049A00000009001010904000000200000002020
S315020049B00000007801010B04000000200000002026
S315020049C00000002701000204000000200000002071
S315020049D06C06000201000104000000220000002211
S315020049E000000090000109030000002200000022DE
S315020049F00000007800010B030000002200000022E4
S31502004A000000002700000203000000221C00002212
S31502004A106C06000200000103B4010022B401002268
S31502004A2088060002000001030303040305030603CC
S31502004A30C600D4D400000506362E352E3000427547
S31502004A40696C7420776974682052656E6573617348
S31502004A5020416476616E63656420466C657869629E
S31502004A606C6520536F667477617265205061636B63
S31502004A706167652076657273696F6E20362E352EF4
S30702004A803000FC
S30902004A84B11E000255
S30902C9F040FFFFFFFFFF
S30902C9F044EFFFFFFF0B
S30902C9F0C0FFFFFFFD81
S30902C9F0C4FFFFFFFF7B
S30902C9F120000000001A
S30902C9F1240000000016
S70502002DC902
