:020000040208F0
:1000000020A40E2221280802D1260802B1150802D8
:100010002D2808022D2808022D2808022D28080264
:100020000000000000000000000000002D28080271
:100030002D280802000000002D2808022D280802A3
:10004000351F0802C51E0802B51F0802312008022C
:100050000000030059180802691808020000000097
:1000600001460078002808BF7047B0B54CF6A402DE
:10007000C0F20E2214684D1E214602F0C3FCA8787F
:1000800001350028F8D1BDE8B040704783B070B5A5
:1000900081B04AF24C45044605A8C2F20E250EC0B6
:1000A00005AB28464FF480712246009302F0C0FC55
:1000B0004CF6A4012878C0F20E210C6838B1013D3D
:1000C000214602F09FFCA87801350028F8D144F2BF
:1000D000D52500260D20C0F2082500BF214602F0DC
:1000E00091FCA81901364078022EF7D101B0BDE885
:1000F000704003B07047D4D42DE9F04F81B08346EF
:10010000002B4FF0000000F0CA8092460A9A002AA5
:1001100000F0C580BBF800608E423BD9BBF80400FC
:10012000504537D902EB0A0787424AF24C5988BF3B
:10013000A0EB0A021004C2F20E2932D00B9C581810
:10014000B04288BF731A06FB0A101FFA83FC1FFA1D
:1001500082FEA21E4FEA4C0800251B0406E000BFE9
:10016000013510FA86F07545424417D0002BF7D0C0
:1001700009EB40018E1E6146174600BF37F8024F5B
:10018000013924BA4FEA144426F8024FF6D1BBF8DD
:100190000060E5E7012001B0BDE8F08F4FEA4E08AE
:1001A00001E04FF0000858460021524600F07AF86E
:1001B00044F2E240C0F208200021002200F0EEF8F4
:1001C00040F64050C0F20300009000984CF6E00466
:1001D000C0F20E24A8B14EF2D355C2F211252878F0
:1001E00004E000BF00200090009951B1C007F9D091
:1001F0000120012102F024FA0098013800902878AB
:10020000F2E70098266807E00120012102F018FAC1
:10021000009801380090009830B1B068806810F004
:10022000110FF1D10020F5E74EF2CC50C2F21120AF
:1002300001220270EFF3108182F310884EF624320F
:10024000C2F211221068002840F67C10C4F240006F
:1002500005D1002380F89833402380F89833136841
:100260000133136081F31088D0F8801043F6FA72DE
:10027000CFF6FE7211400531C0F8801001680723E7
:10028000114004310160BBF8000000FB0AF109EBEA
:10029000410108FB00F2304601F0DEFC002001B015
:1002A000BDE8F08FF0B583B0407A144602282CBF29
:1002B0003131313408BA000CADF8020044F2E340A9
:1002C00040F64057C0F208200DF102010222C0F2B0
:1002D000030700F063F8019701984CF6E0064EF230
:1002E000D355C0F20E26C2F2112580B1287803E062
:1002F00000200190019951B1C007F9D001200121DE
:1003000002F09EF90198013801902878F2E70198EF
:10031000366807E00120012102F092F901980138C6
:100320000190019830B1B068806810F0110FF1D1E0
:100330000020F5E720BA000CADF8020044F2E440DA
:10034000C0F208200DF10201022200F027F8029706
:100350000298C0B1287803E000200290029991B180
:10036000C007F9D00120012102F06AF90298013892
:1003700002902878F2E700BF0120012102F060F925
:10038000029801380290029830B1B068806810F08D
:10039000110FF1D10020F5E703B0F0BD2DE9F04FCA
:1003A00083B0074640F64050C0F203000190019828
:1003B0004CF6E0054EF2D35492468B46C0F20E2521
:1003C000C2F2112488B1207804E000BF002001901F
:1003D000019951B1C007F9D00120012102F030F993
:1003E0000198013801902078F2E701982E6807E023
:1003F0000120012102F024F90198013801900198AF
:1004000030B1B068806810F0110FF1D10020F5E72D
:100410004EF2CC50C2F2112000224EF6243102706E
:10042000EFF310804FF0010989F31088C2F2112117
:100430000B6840F67C15C4F2400523B985F8982373
:10044000402285F898230A6843F6FA7801320A6058
:1004500080F31088D5F88000CFF6FE7800EA080017
:100460000430C5F88000286800EA080004302860DD
:10047000012000F0A1FE304639460122072384F80E
:10048000009001F0E9FB10B103B0BDE8F08F40F639
:100490004050C0F2030002900298C0B1207803E0FF
:1004A00000200290029991B1C007F9D001200121EA
:1004B00002F0C6F80298013802902078F2E700BFF7
:1004C0000120012102F0BCF8029801380290029844
:1004D00030B1B068806810F0110FF1D10020F5E75D
:1004E0004EF2CC510120BBF1000FC2F21121087075
:1004F00018BFBAF1000F08D1286800EA080040F0E0
:100500000500286003B0BDE8F08FD5F8800000EA50
:10051000080040F00500C5F880000120012500F02A
:100520004BFE3046594652460723257003B0BDE8BE
:10053000F04F01F091BBD4D42DE9F04F83B00646C3
:10054000407AB6F804B00128009106D837880BF13C
:10055000310B4FF0310A002405E030884FF0000ADB
:1005600000F13107312440F64059C0F20309CDF8BB
:10057000089002984CF6E005C0F20E25B0B14EF29C
:10058000D358C2F2112898F8000003E0002002902E
:10059000029959B1C007F9D00120012102F050F8A9
:1005A00002980138029098F80000F1E702982D684F
:1005B00008E000BF0120012102F042F80298013852
:1005C0000290029830B1A868806810F0110FF1D144
:1005D0000020F5E7307A032840F0FC8000208DF8F9
:1005E00004004FF0FF3010FA87F0010A8DF8070081
:1005F00044F2E3408DF80610C0F2082001A904225D
:100600008DF80540FFF7CAFECDF808900298E0B1DA
:100610004EF2D354C2F21124207803E0002002905D
:10062000029991B1C007F9D00120012102F008F828
:100630000298013802902078F2E700BF01200121E2
:1006400001F0FEFF029801380290029830B1A868CC
:10065000806810F0110FF1D10020F5E700208DF82F
:1006600004004FF0FF3010FA8BF0010A8DF80700FC
:1006700044F2E4408DF80610C0F2082001A90422DB
:100680008DF805A0FFF78AFECDF808900298E0B13A
:100690004EF2D354C2F21124207803E000200290DD
:1006A000029991B1C007F9D00120012101F0C8FFE2
:1006B0000298013802902078F2E700BF0120012162
:1006C00001F0BEFF029801380290029830B1A8688C
:1006D000806810F0110FF1D10020F5E744F2E240FC
:1006E000C0F2082000210022FFF758FECDF8089044
:1006F0000298E0B14EF2D354C2F21124207803E004
:1007000000200290029991B1C007F9D00120012187
:1007100001F096FF0298013802902078F2E700BFBE
:100720000120012101F08CFF02980138029002980B
:1007300030B1A868806810F0110FF1D10020F5E702
:1007400000984AF24C5100BAC2F20E214AF240021D
:10075000000C0239C0F20102ADF80400013A21F8A0
:10076000020FFBD14EF2CC50C2F2112001220270D6
:10077000EFF3108182F310884EF62432C2F2112278
:100780001068002840F67C10C4F2400005D1002318
:1007900080F89833402380F898331368013313604E
:1007A00081F31088D0F8801043F6FA72CFF6FE720B
:1007B00011400531C0F88010016807231140043151
:1007C00001604AF24C5109F54D52C2F20E21284601
:1007D00001F042FA002003B0BDE8F08F2DE9F041AE
:1007E00094B040F6054104460D200791099140F26E
:1007F0000E51ADF818000520ADF8301040F600415C
:100800000026059040F20F72C0F20141ADF80800D9
:1008100005A8ADF828200B9140F20E720D91CDE99C
:10082000030611A802A9CDE90066ADF8382001F051
:100830003DFC4CF6E000C0F20E20D0E900582846FE
:10084000414601F0A7F80121EFF3108081F31088F1
:100850004EF62431C2F211210A6832B940F6145220
:10086000C4F240024023167013700A684EF69827AF
:1008700001320A60C2F2112780F3108838460D2138
:10088000012201F0D5FC64204FF47A7101F0D8FE0A
:1008900038460D210022002601F0CAFC012001216A
:1008A00001F0CEFE38460D21012201F0C1FC0420EA
:1008B0004FF47A7101F0C4FE38460D21002201F098
:1008C000B7FC05204FF47A7101F0BAFE38460D21CD
:1008D000012201F0ADFC44F2FC47C0F2082707E01A
:1008E0000A790531FFF75AFD1836B6F5167F09D09B
:1008F000B859B9190028F3D108794FF47A7101F089
:100900009FFEF1E70A204FF47A7101F099FE44F25C
:10091000E540C0F208206946042200F093F840F652
:100920004050C0F20300139013984EF2D357C2F216
:100930001127C0B1387803E000201390139991B1CA
:10094000C007F9D00120012101F07AFE1398013887
:1009500013903878F2E700BF0120012101F070FE0A
:10096000139801381390139830B1A868806810F07C
:10097000110FF1D10020F5E744F2E640C0F2082063
:100980006946052200F05EF8D8F820004EF2CE52FB
:1009900001888078C2F21122118090704AF24C5086
:1009A00044F28001C2F20E20C0F20301FF2201F0E6
:1009B000F2FFDE2020800320617A20720020E08098
:1009C0004FF0F0700229C4F8020002D0204600F077
:1009D000F1F820464FF6FF71FFF7AEFD41F680209B
:1009E000C0F2060013901398C8B1387804E000BF35
:1009F00000201390139991B1C007F9D00120012173
:100A000001F01EFE1398013813903878F2E700BF0A
:100A10000120012101F014FE13980138139013985E
:100A200030B1A868806810F0110FF1D10020F5E70F
:100A300020464FF6FF71FFF77FFD002014B0BDE8A0
:100A4000F081D4D42DE9F04F85B040F6405AC0F281
:100A5000030ACDE90112CDF80CA0074603984CF625
:100A6000E0054EF2D354C0F20E25C2F2112480B13B
:100A7000207803E000200390039951B1C007F9D01A
:100A80000120012101F0DCFD03980138039020785A
:100A9000F2E703982E6807E00120012101F0D0FD64
:100AA000039801380390039830B1B068806810F063
:100AB000110FF1D10020F5E74EF2CC5BC2F2112B01
:100AC00000224EF624318BF80020EFF310804FF017
:100AD000010989F31088C2F211210B6840F6FC1558
:100AE000C4F2400523B985F81823402285F818235D
:100AF0000A6843F6FA7801320A6080F310882868A1
:100B0000CFF6FE7800EA08000430286055F8800C23
:100B100000EA0800043045F8800C012000F04CFB8E
:100B2000304639460122072384F8009001F094F8FA
:100B300000281CBF05B0BDE8F08FCDF810A00498C8
:100B4000C8B1207804E000BF00200490049991B15E
:100B5000C007F9D00120012101F072FD049801388D
:100B600004902078F2E700BF0120012101F068FD28
:100B7000049801380490049830B1B068806810F08F
:100B8000110FF1D10020F5E7286800EA080040F0D5
:100B900005002860012500208BF8005000F00CFBB8
:100BA000DDE9011230460723257005B0BDE8F04F9E
:100BB00001F04CB82DE9F04182B040F64058C0F247
:100BC0000308CDF804800C4601994CF6E006054672
:100BD000C0F20E26A9B14EF2D357C2F211273878CF
:100BE00004E000BF00200190019951B1C007F9D085
:100BF0000120012101F024FD01980138019038788D
:100C0000F2E70198366807E00120012101F018FDA4
:100C1000019801380190019830B1B068806810F0F7
:100C2000110FF1D10020F5E7022C00F0E180012C3A
:100C30003AD0002C40F0808128208DF8000044F24A
:100C4000E740C0F2082069460122FFF7A7FBCDF874
:100C500004800198E8B14EF2D357C2F211273878D8
:100C600004E000BF00200190019991B1C007F9D0C4
:100C70000120012101F0E4FC01980138019038784D
:100C8000F2E700BF0120012101F0DAFC01980138F0
:100C900001900198002800F08681B068806810F00B
:100CA000110FEFD10020F3E7E8208DF8000044F2A7
:100CB000E740C0F2082069460122FFF76FFBCDF83C
:100CC00004800198E8B14EF2D357C2F21127387868
:100CD00004E000BF00200190019991B1C007F9D054
:100CE0000120012101F0ACFC019801380190387815
:100CF000F2E700BF0120012101F0A2FC01980138B8
:100D00000190019830B1B068806810F0110FF1D1F6
:100D10000020F5E70020CDF60170009044F2E3409A
:100D2000C0F2082069460422FFF738FBCDF80480A2
:100D30000198E0B14EF2D357C2F21127387803E0A0
:100D400000200190019991B1C007F9D00120012143
:100D500001F076FC0198013801903878F2E700BF85
:100D60000120012101F06CFC0198013801900198EB
:100D700030B1B068806810F0110FF1D10020F5E7B4
:100D800040F60160ADF8020044F2E440C0F20820F1
:100D900069460422FFF702FBCDF804800198E0B118
:100DA0004EF2D357C2F21127387803E000200190A9
:100DB000019991B1C007F9D00120012101F040FC57
:100DC0000198013801903878F2E700BF0120012135
:100DD00001F036FC0198013801900198002800F0DC
:100DE0008981B068806810F0110FEFD10020F3E71F
:100DF00048208DF8000044F2E740C0F20820694620
:100E00000122FFF7CBFACDF804800198E8B14EF249
:100E1000D357C2F21127387804E000BF00200190B8
:100E2000019991B1C007F9D00120012101F008FC1E
:100E30000198013801903878F2E700BF01200121C4
:100E400001F0FEFB019801380190019830B1B068C3
:100E5000806810F0110FF1D10020F5E70020C0F6F6
:100E60000160009044F2E340C0F208206946042289
:100E7000FFF794FACDF804800198E0B14EF2D35711
:100E8000C2F21127387803E000200190019991B156
:100E9000C007F9D00120012101F0D2FB01980138EF
:100EA00001903878F2E700BF0120012101F0C8FB72
:100EB000019801380190019830B1B068806810F055
:100EC000110FF1D10020F5E74DF60170ADF80200E9
:100ED00044F2E340C0F2082069460422FFF75EFABC
:100EE000CDF804800198E0B14EF2D357C2F2112739
:100EF000387803E000200190019991B1C007F9D042
:100F00000120012101F09CFB019801380190387803
:100F1000F2E700BF0120012101F092FB01980138A6
:100F200001900198002800F01F81B068806810F0DF
:100F3000110FEFD10020F3E788208DF8000044F274
:100F4000E740C0F2082069460122FFF727FACDF8F2
:100F500004800198E8B14EF2D357C2F211273878D5
:100F600004E000BF00200190019991B1C007F9D0C1
:100F70000120012101F064FB0198013801903878CB
:100F8000F2E700BF0120012101F05AFB019801386E
:100F90000190019800283ED0B068806810F0110FD1
:100FA000F0D10020F4E70020CDF60170009044F26B
:100FB000E340C0F2082069460422FFF7EFF9CDF8BC
:100FC00004800198E8B14EF2D357C2F21127387865
:100FD00004E000BF00200190019991B1C007F9D051
:100FE0000120012101F02CFB019801380190387893
:100FF000F2E700BF0120012101F022FB0198013836
:101000000190019800283ED0B068806810F0110F60
:10101000F0D10020F4E70020C0F60160009044F217
:10102000E340C0F2082069460422FFF7B7F9CDF883
:1010300004800198E8B14EF2D357C2F211273878F4
:1010400004E000BF00200190019991B1C007F9D0E0
:101050000120012101F0F4FA01980138019038785B
:10106000F2E700BF0120012101F0EAFA01980138FE
:1010700001900198002841D0B068806810F0110FED
:10108000F0D10020F4E740F60160ADF8020044F230
:10109000E440C0F2082069460422FFF77FF9CDF84A
:1010A00004800198E8B14EF2D357C2F21127387884
:1010B00004E000BF00200190019991B1C007F9D070
:1010C0000120012101F0BCFA019801380190387823
:1010D000F2E700BF0120012101F0B2FA01980138C6
:1010E0000190019830B1B068806810F0110FF1D113
:1010F0000020F5E74FF4F070DE2138E04DF6017086
:10110000ADF8020044F2E340C0F208206946042230
:10111000FFF744F9CDF804800198E0B14EF2D357BF
:10112000C2F21127387803E000200190019991B1B3
:10113000C007F9D00120012101F082FA019801389D
:1011400001903878F2E700BF0120012101F078FA20
:10115000019801380190019830B1B068806810F0B2
:10116000110FF1D10020F5E7DE204FF4F071A980D6
:10117000288000206C7202B0BDE8F081007901285F
:1011800019D14EF2CC51C2F2112109784EF2D3504E
:10119000C2F2112000220129027018BF704740F6E8
:1011A0007C10C4F24000016843F6FA72CFF6FE727A
:1011B00011400531016070472DE9F04381B04CF6D4
:1011C000E001C0F20E210E6844F25477B568C0F217
:1011D00008274EF2CE588146C2F21128002818BFC7
:1011E000474629697878C1F3015100F00302914222
:1011F0001BD129693A78C1F307218A4215D129699F
:10120000C0F38000C1F3001181420ED1686998F8E3
:101210000210B9F1000F08BF4946C0F3C010C9B2AF
:10122000884204BF01B0BDE8F08340F64050C0F2F0
:10123000030000900098E0B14EF2D354C2F21124A2
:10124000207803E000200090009991B1C007F9D008
:101250000120012101F0F4F9009801380090207874
:10126000F2E700BF0120012101F0EAF900980138FE
:101270000090009830B1B068806810F0110FF1D183
:101280000020F5E71420012101F0DAF978782969C6
:1012900000F0030221F4401141EA0251296139783A
:1012A0002A6900F0040022F47F4242EA0121296108
:1012B0002969B9F1000F21F0100141EA800028618D
:1012C00098F802006A6918BF4FEAC0194FEAD910AE
:1012D00060F3C712142001216A6101B0BDE8F04338
:1012E00001F0AEB92DE9F04381B04EF2D456C2F20E
:1012F0001126144632788846532A074632D03046A3
:10130000A82101F04DFB03203061706144F2C83028
:101310004EF27C61C0F20820C2F21121B061F1618D
:101320004FF4806131620021B1627162F162306616
:101330004EF67C20C2F21120706610204CF690020E
:10134000B0663167F1667167701E0F21C0F20E2220
:10135000BFF35F8F535C01394D1C00F8013FF9D199
:10136000BFF35F8F07EB470006EBC000C56E076F4A
:1013700000F16009AF4213D9D9E90101CE1BA642A1
:1013800028BF2646C1194046324601F00DFBD9F868
:101390000800F119B044A41B0F1A18BF0F4600E053
:1013A0000026E81BA04238BF044644B1D9F8040027
:1013B0002246C119404601F0F7FA26442744002E80
:1013C00018BFC9F81070304601B0BDE8F083D4D41E
:1013D00010B50B46EFF311844FF0200181F3118813
:1013E0001946FFF77FFF84F3118810BDF0B581B077
:1013F0004EF2D455C2F211252A780F46532A0646DA
:1014000032D02846A82101F0CBFA03202861686178
:1014100044F2C8304EF27C61C0F20820C2F21121C1
:10142000A861E9614FF4806129620021A9626962C3
:10143000E96228664EF67C20C2F211206866102010
:101440004CF69002A8662967E9666967681E0F2155
:10145000C0F20E22BFF35F8F535C01394C1C00F8C1
:10146000013FF9D1BFF35F8F06EB4600EFF3118226
:101470004FF0200181F3118805EBC003D3E9081078
:10148000DE6A451C691A18BF2946022E03F11803AB
:1014900003D100BF1E69B142FCD01E69B14201D127
:1014A000002005E05E6837540120BFF35F8FD960EC
:1014B00082F3118801B0F0BDB0B54EF2D455C2F23E
:1014C00011252878532833D02846A82101F068FA3E
:1014D00003202861686144F2C8304EF27C61C0F29A
:1014E0000820C2F21121A861E9614FF480612962EC
:1014F0000021A9626962E96228664EF67C20C2F288
:101500001120686610204CF69002A8662967E966EB
:101510006967681E0F21C0F20E22BFF35F8F00BF04
:10152000535C01394C1C00F8013FF9D1BFF35F8FC8
:10153000E86E296F081A18BF0120B0BD10B54EF231
:10154000D454C2F211242046A82101F029FA032024
:101550002061606144F2C8304EF27C61C0F2082024
:10156000C2F21121A061E1614FF48061216200218A
:10157000A1626162E16220664EF67C20C2F2112017
:10158000606610204CF69002A0662167E1666167F4
:10159000601E0F21C0F20E22BFF35F8F535C013932
:1015A0004C1C00F8013FF9D1BFF35F8F10BDD4D4BC
:1015B00070B544F2924072B64EF62856C0F208203A
:1015C000CEF20006FEF74CFD44F2D520C0F2082012
:1015D000FEF746FD7068002807D47068400010D5FB
:1015E00044F2F420C0F2082003E044F2D820C0F214
:1015F0000820FEF735FD44F2D520C0F20820FEF7A2
:101600002FFD44F22130C0F20820EFF30884FEF7EA
:1016100027FD44F2D525C0F208252846FEF720FD17
:10162000216844F2A520C0F20820FEF72FFD616872
:1016300044F2F630C0F20820FEF728FDA16844F21B
:10164000D010C0F20820FEF721FDE16844F25120DD
:10165000C0F20820FEF71AFD216944F2B120C0F261
:101660000820FEF713FD616944F2BD20C0F2082096
:10167000FEF70CFDA16944F2C920C0F20820FEF774
:1016800005FDE16944F22220C0F20820FEF7FEFCCD
:1016900044F25D20C0F20820FEF7E2FC2846FEF787
:1016A000DFFC316844F28020C0F20820FEF7EEFC37
:1016B00056F8241C44F24F40C0F20820FEF7E6FC26
:1016C000716844F21020C0F20820FEF7DFFC44F2FB
:1016D0002E20C0F20820FEF7C3FC2846FEF7C0FC0F
:1016E00044F24230C0F20820EFF30581FEF7CEFC51
:1016F000306880010BD544F24F30C0F20820FEF76D
:10170000AFFC44F2D520C0F20820FEF7A9FC3068F7
:10171000C0010BD544F2A830C0F20820FEF7A0FCAF
:1017200044F2D520C0F20820FEF79AFC3068C002CF
:101730002AD544F26140C0F20820FEF791FC44F241
:10174000D520C0F20820FEF78BFC44F20240C0F224
:1017500008202146FEF79AFC44F28340C0F208209C
:10176000EFF30A81FEF792FC44F2DC10C0F208208D
:10177000EFF30981FEF78AFC44F29220C0F20820C0
:10178000EFF30B81FEF782FC306800030BD544F2C7
:101790008A30C0F20820FEF763FC44F2D520C0F284
:1017A0000820FEF75DFC306840030BD544F2C140D1
:1017B000C0F20820FEF754FC44F2D520C0F2082005
:1017C000FEF74EFC306880030BD544F26D30C0F25A
:1017D0000820FEF745FC44F2D520C0F20820FEF7B1
:1017E0003FFC3068C0030BD544F2D130C0F2082072
:1017F000FEF736FC44F2D520C0F20820FEF730FC9C
:101800003068800515D544F21140C0F20820FEF77B
:1018100027FC44F2D520C0F20820FEF721FC3068F6
:10182000000406D5316944F23740C0F20820FEF7C3
:101830002DFC3068C0050BD544F2EB10C0F2082037
:10184000FEF70EFC44F2D520C0F20820FEF708FC9B
:1018500000BE70BDFFF772BE80B501460020FFF7E5
:10186000C5FD002080BDD4D480B582B0FFF724FE32
:1018700008B900BFFAE70DF1070100200122FFF7C8
:10188000A7FD9DF8070002B080BDD4D482B0FFF759
:10189000E1FF4EF68C28C2F21128022088F80900D8
:1018A0004046FEF79BFF48F2E470C0F20B20D0F8F0
:1018B00010904FF4F077404600210022DE23CDE95E
:1018C00000790026FEF718FC4CF6A800C0F20E20A6
:1018D00005684CF67C00C0F20E20046928464FF4DF
:1018E0008571012200F0A4FC4FF4FA704FF47A7174
:1018F00000F0A6FE28464FF48571002200F098FC07
:101900004FF4FA704FF47A7100F09AFE0136052E0A
:10191000E4D1404600210022DE23CDE90074FEF729
:10192000EBFB052628464FF48571012200F080FC70
:101930004FF4FA704FF47A7100F082FE28464FF4AB
:101940008571002200F074FC4FF4FA704FF47A7144
:1019500000F076FE013EE5D1404600210022DE2364
:10196000CDE900790026FEF7C7FBB7E7022818BFCC
:1019700070474EF698204CF6EC01C2F21120C0F2EE
:101980000E2100F093BBD4D480B5FFF77FFF002079
:1019900080BDD4D42DE9F04F83B00D4604460878BD
:1019A00048F20001C4F2350101EB0020C4E9015006
:1019B000A8692062E869A06200206062686988B155
:1019C00041684FF4002209680A604168A26809680A
:1019D0004A60D0E9011200681268904710B103B064
:1019E000BDE8F08F2869E0B141684FF000620968F6
:1019F0000A604168A268096804328A60D0E901126D
:101A000000681268904760B169690029E7D08A6868
:101A10000968126A044608469047204603B0BDE8AC
:101A2000F08F6068016AC27A467A90F80AA0019243
:101A300090F80D808A7802921EB14FF4002B002797
:101A400014E04B780A7803F003073F05C97847EAAA
:101A5000022203F0040342EA830700290FBF4FF478
:101A6000002B0022CFF6097202EB016BEFF3108915
:101A7000012181F3108843F204020078C4F22002AD
:101A80004FF00041136821FA00F023EA00001060D3
:101A900010681E20012100F0D3FD89F31088A06892
:101AA00000218160A06800BF017F0029FCD141F2C4
:101AB000032241F20121B8F1000F08BF40F20322D6
:101AC000C0F20021012E08BF02F1007201F10103F2
:101AD0004FF0000108BF4FF08071BAF1000F08BF4E
:101AE0001A40019B4EF6283C002B48F20003C1F639
:101AF0009F7308BF22F002024362029BA06842EA81
:101B0000C3124261A06842F440324261A0681022D0
:101B10000761A0680123C260A0681022C0F818B055
:101B2000A068C9F607528266A068C2F2112C03674A
:101B3000A2684EF20010916095F901704CF20031EC
:101B4000CEF20000C4F20001002F1BD46E79C2193E
:101B5000360182F800634CF8274051F8272022F420
:101B6000803241F8272051F8272007F01F0203FA9E
:101B700002F27B0900EB8307BFF35F8FC7F8802178
:101B800040F8232095F90230002B1CD4AA79C718FD
:101B9000120187F800234CF8234051F82320012735
:101BA00022F4803241F8232051F8232003F01F0251
:101BB0005B0907FA02F200EB8307BFF35F8FC7F8F8
:101BC000802140F82320EA7995F90330120100F5CD
:101BD0004077FA544CF8234051F823204FF0010E7F
:101BE00022F4803241F8232051F8232003F01F0211
:101BF0000EFA02F200F5C0765B09BFF35F8F46F87C
:101C0000232040F823202A7A95F904301201FA544F
:101C10004CF8234051F8232022F4803241F823204D
:101C200051F8231003F01F010EFA01F15A09BFF316
:101C30005F8F46F8221040F8221044F65310C5F288
:101C400043302060002003B0BDE8F08F13460A4601
:101C5000002100F081B8D4D41346002200F07CB8F3
:101C600000F07AB88446C0E908130020CCF8282098
:101C70007047D4D4B0B504468068002181606168A3
:101C80004EF2801091F90220CEF20000002A0CD40E
:101C900002F01F01012303FA01F1520940F822105A
:101CA000BFF34F8FBFF36F8F616891F90120002A56
:101CB0000CD402F01F01012303FA01F1520940F88C
:101CC0002210BFF34F8FBFF36F8F616891F904103B
:101CD000012301F01F0203FA02F2490940F8212012
:101CE000BFF34F8FBFF36F8F616891F9031001F05D
:101CF0001F0203FA02F2490940F82120BFF34F8F77
:101D0000BFF36F8FEFF3108583F31088606843F2A1
:101D100004020078C4F220024FF00041136821FA57
:101D200000F01843106010681E20012100F088FCAC
:101D300085F310886068416921B18A680868116A72
:101D400088476068006918B181680068096A884737
:101D5000002100202160B0BDF0B581B08768BF6868
:101D600017F0110F02D0082001B0F0BD002700F1DC
:101D70000C0C44688CE886008761C36127693FB317
:101D8000436105462069174642681E4612680029CD
:101D9000D38142681268136823F0406318BF03F1CF
:101DA0000063136042684EF6CC231268C2F211231E
:101DB00018BF0B465360D0E90112006852680968E9
:101DC000904708B101B0F0BD6C6828463A463346EA
:101DD0008AB1616979B1836161699BB28F68096871
:101DE000BF68044608460021B8470146204611B1A5
:101DF000084601B0F0BD016929B14268136913B901
:101E00005269002A5CD04FF010128368002999684B
:101E100018BF42F001121143996041680A69002A13
:101E20004BD14A69002A48D10269002A45D091F96C
:101E300001204EF20011CEF2000102F01F03012733
:101E4000520907FA03F301EB8202C2F88030BFF3B4
:101E50004F8FBFF36F8F4269C3699A420CD2C36838
:101E6000002B1ABF9A5C62F0FF026FF0FF028368DA
:101E70005A6042690132426143685F7A012F12D190
:101E8000C769022F0FD3BA420DD2C368002B1ABF05
:101E90009A5C62F0FF026FF0FF0283685A60426949
:101EA00043680132426193F90100012300F01F02EF
:101EB00003FA02F2400941F82020002001B0F0BDF1
:101EC0001022A2E7EFF303804FF0704101EB0060B6
:101ED0004CF200318015C4F20001425822F48032E5
:101EE000425041584EF62831C2F21121085841693A
:101EF000C269914202D3914210D07047C268002A51
:101F00001ABF515C61F0FF016FF0FF018268516000
:101F10004169C269013141619142EED101690029F3
:101F200018BF704780680222816862F31551816092
:101F30007047D4D4EFF303804FF0704101EB0060A1
:101F40004CF200318015C4F20001425822F4803274
:101F5000425041584EF62831C2F2112108584269C8
:101F6000C1698A420DD2C16800291ABF895C61F03B
:101F7000FF016FF0FF01826851604269C16901325F
:101F8000426182698A4209D28168D1F800C003693E
:101F9000511C816103F802C0D0E906218A4218BFB2
:101FA00070478068816821F4441101F50011816057
:101FB0007047D4D4B0B584B04FF07041EFF30380D4
:101FC00001EB00614EF628328815C2F21122145836
:101FD0004FF6EE73A068CFF6CF7382681A40826026
:101FE000606A30B18368D0E900250393CDE901250B
:101FF00000E001A862680D161278026001220271E9
:10200000A26A8260226A9047606A10B101AB0ECB6F
:102010000EC04CF20030C4F2000050F8251021F43C
:10202000803140F8251050F8250004B0B0BDD4D45C
:10203000B0B584B04FF07041EFF3038001EB006165
:102040004EF628328815C2F211221458A068826810
:1020500022F444128260A0684FF080728266606A47
:1020600030B18368D0E900250393CDE9012500E074
:1020700001A862680D161278026004220271A26A39
:102080008260226A9047606A10B101AB0ECB0EC02D
:102090004CF20030C4F2000050F8251021F48031D9
:1020A00040F8251050F8250004B0B0BD80B545F2C9
:1020B0005422C5F24F020260084600F025F90020C4
:1020C00080BDD4D40146002200200A607047D4D4D9
:1020D00080B5084600F018F9002080BD70B586B0C4
:1020E00001A80126049003A814460D46ADF8081077
:1020F0000192ADF80C6000F06DF94EF62430EFF36C
:10210000108286F31088C2F21120016839B940F6B6
:102110001451C4F2400100230B7040230B7003687C
:1021200040F600010133036082F31088E203C4F239
:1021300040014FEA152201D4EBB20CE001EB82160C
:10214000EBB256F8235025F4803546F8235024F49A
:10215000803546F8235001EB821141F82340EFF31C
:102160001081012282F31088026812B10268013ADC
:102170000260006838B940F61450C4F240000022F2
:1021800002708022027081F31088002006B070BDBA
:102190000420C4F2400040EAD10020F01B00006897
:1021A0000023CFF6FF73C9B243EA1040C84000F0E5
:1021B000010100201170704780B56FF0010000EA46
:1021C000D113C8B2012140F20C0C01FA00FEC4F296
:1021D000400C19015CF80110012A4CEA031C08D1DB
:1021E0004FF4803202FA00F021EA000040EA0E02C9
:1021F00007E04FF4803221EA0E0102FA00F041EAD2
:1022000000020020CCF8002080BDD4D46FF03F0045
:1022100000EA9100C9B200EB810040F60001C4F26F
:1022200040014058C0F34001002011707047D4D4E1
:10223000C8B2012383409BB24FF4803C002A08BF00
:102240000CFA00F36FF0010000EAD110082201013E
:10225000C4F24002002053507047D4D480B56FF0D0
:10226000010000EAD11040F2000C0101C4F2400C60
:102270005CF801E003EA020040EA0E0062EA0302B1
:10228000024000204CF8012080BDD4D46FF0010042
:1022900000EAD11004210001C4F240010858010CE9
:1022A000002011807047D4D403EA020023EA02021E
:1022B0006FF0010303EAD1110C2340EA0242090145
:1022C000C4F2400300205A507047D4D46FF001008C
:1022D00000EAD11004210001C4F240010958002095
:1022E0001180704703EA020023EA02026FF0010343
:1022F00003EAD111082340EA02420901C4F2400373
:1023000000205A507047D4D470B5044600F062F8EB
:102310004EF6243CEFF31080012181F31088C2F2C5
:10232000112CDCF8001039B940F61451C4F2400108
:1023300000220A7040220A70DCF800100131CCF84B
:10234000001080F31088208828B340F6000E00218A
:10235000C4F2400E08E000BF0EEB801040F82230BF
:1023600020880131814216D2606800EBC102928858
:1023700050F83130100ADD03D2B2EDD50EEB8015E6
:1023800055F8226026F4803645F8226023F4803622
:1023900045F82260E0E7EFF31081012080F3108818
:1023A000DCF8000020B1DCF800000138CCF80000B7
:1023B000DCF8000010B181F3108870BD40F61450B5
:1023C000C4F24000002202708022027081F3108863
:1023D00070BDD4D42DE9F04F81B0044600880028A8
:1023E0005ED042F240084EF64C4A4CF64C1BC4F20A
:1023F00020080026C4F2010AC0F20E2B4FF001099A
:1024000004E000BF20880136864249D2002708E058
:1024100008F81700C820012100F012F90137032F36
:10242000F0D060683BF8172000EBC600818891422D
:10243000F4D100689AF8001000F0B85009FA07F5D6
:10244000B0F1807F05EA010014D150B9012000F0FD
:10245000BFF99AF8000028438AF80000012000F034
:102460008BF918F917000028D8D418F8170040F095
:102470008000CDE750B1012000F0AAF99AF80000E1
:10248000A8438AF80000012000F076F918F9170037
:10249000B0F1FF3FC2DC18F8170000F07F00B7E78B
:1024A00001B0BDE8F08FD4D44EF22401C4F2010192
:1024B00088780988C1F30312A2F1080103293BD8E7
:1024C000DFE801F0022C101E4AF22041C2F20E2178
:1024D00051F820004AF6AB21CAF6AA21A0FB01015F
:1024E000480830E04AF22041C2F20E2151F82000A3
:1024F0004AF6AB21CAF6AA21A0FB0101C80822E0D6
:102500004AF22041C2F20E2151F820004AF6AB21D6
:10251000CAF6AA21A0FB0101080914E04AF22041F1
:10252000C2F20E2151F820004AF6AB21CAF6AA21C8
:10253000A0FB0101880806E04AF22041C2F20E2108
:1025400051F82000D0404EF64431C2F2112108600B
:102550007047D4D470B54AF2204046F6004141F2AB
:102560000022C2F20E20C0F2DC21C0F27A0243F255
:10257000006C4FF40043C0F26E1C80E80E1041F670
:1025800000424CF6002E48F2004444F2553544F225
:1025900000664CF20021C0F64E62C3F69A3EC1F2CC
:1025A000D774C1F2DE35C2F2C336C0F6EB318262B7
:1025B0004EF22402C0E9043EC0E90664C0E90851B5
:1025C000C4F2010291781288C2F30313A3F1080246
:1025D000032A2BD8DFE802F002200C1650F8210065
:1025E0004AF6AB21CAF6AA21A0FB0101480820E067
:1025F00050F821004AF6AB21CAF6AA21A0FB01013E
:10260000C80816E050F821004AF6AB21CAF6AA2104
:10261000A0FB010108090CE050F821004AF6AB21AB
:10262000CAF6AA21A0FB0101880802E050F82100A7
:10263000D8404EF64431C2F21121086070BDD4D4A6
:102640004EF64432C2F21122126841F20023C0F267
:102650007A039A4201FB00F00FD340F6FF01C0F26B
:102660003D0111444DF68362C4F21B32A1FB0212FC
:10267000110DA0FB0101E9B121E04CF6002348F661
:102680003811C3F69A33C0F24101B3FBF2F288422B
:1026900007D24FF47A7100FB01F0B0FBF2F0800832
:1026A00008E09200B0FBF2F0884208D24FF47A7151
:1026B00000FB01F0002808BF704700F005B84FF09C
:1026C000FF3000F001B8D4D401380028FCD17047A5
:1026D000F0B581B04CF22015C4F2000555F8200C7D
:1026E00029684EF6D02701EA00060024C2F211271D
:1026F00003E000BF0134152C0AD026FA04F0C0070D
:10270000F8D057F824100029F4D020468847F1E784
:1027100045F8106C28683042FCD101B0F0BDD4D42B
:1027200070B54CF6F8014CF2003246F240034FF01F
:10273000000EC0F20E21C4F20002C4F200034FF0FA
:10274000010C002004E000BF0130042808BF70BD68
:1027500031F81040002CF7D0BEEB942F42F8204007
:10276000F2D1650953F8256004F01F040CFA04F453
:10277000344343F82540E7E70122EFF3108182F369
:1027800010884EF63832C2F2112232F8103023B1DE
:1027900032F81030013B22F8103032F8102012B11C
:1027A00081F3108870474EF2FA3CC4F2010C4CF6EB
:1027B000A032BCF80030C0F20E2232F8100043F410
:1027C000254222EA0000ACF8000081F3108870472F
:1027D00080B50122EFF3108182F310884EF6383273
:1027E000C2F2112232F810308BB94EF2FA3C4CF69C
:1027F000A033C4F2010CC0F20E23BCF800E033F8A1
:10280000103043EA0E0343F42543ACF8003032F8AD
:102810001030013322F8103081F3108880BDD4D4F9
:1028200000F006F8FFF7B0F8FEE7D4D400BE70471A
:102830002DE9F0414EF60850CEF200004FF4700141
:10284000C0F8801040F20001C0F208214CF20404EC
:1028500001600020C4F20104FFF788F8FFF77AFE58
:10286000206840F00100206020680028FCD1012091
:1028700044F8040CFFF77AF84CF67414C0F20E24F6
:1028800026684AF22000C2F20E2080F30A8886B140
:1028900060683746051D03E0013F05F10C0508D0CF
:1028A00068790028F8D155E90101091A00F078F893
:1028B000F2E7D4F80880B8F1000F13D0E06845467D
:1028C00000F1080704E000BF013D07F1100709D03F
:1028D00078790028F8D157E902023968121A00F015
:1028E00063F8F1E7FFF7E0FD0220FFF73FF89EB144
:1028F00060684FF48075071D04E000BF013E07F1DA
:102900000C0709D07879B5EB002FF7D157E9010111
:10291000091A00F045F8F1E7B8F1000F16D0E068A9
:102920004FF4807600F1080405E000BFB8F101081B
:1029300004F110040AD06079B6EB002FF6D154E907
:1029400002022168121A00F02FF8EFE74EF64C341D
:10295000C2F21124204600F037F8204600F048F873
:102960004CF63E704CF63E71C0F20E20C0F20E21C5
:10297000091A8C10012C06DB051F00BF55F8040F47
:102980008047013CFAD1FFF7CBFE0020BDE8F041C3
:1029900000F000B870470B4611461A4600F00DB81B
:1029A0000A46002100F009B810B500239A4203D06E
:1029B000CC5CC4540133F9E710BD00239A4208BF30
:1029C0007047C1540133F9E710B505490446054A7B
:1029D000FFF7EAFF044805492044FFF7E1FF10BD77
:1029E000600008020000000000000000000000007D
:1029F0000249401A02490860704700BF0800000001
:102A000048EB1122B0B50D46897889070BD5C4B2C1
:102A10006A68294620469047B0F1FF3F05DCA87858
:102A200040F00400A8704FF0FF342046B0BDD4D46D
:102A3000B0B588B00C460E4901914FF40031002525
:102A400000910119CDE90655CDE90255002C0490FD
:102A500018BF481E48BF00200590114668461A4618
:102A600000F008F80CB104990D7008B0B0BD00BFBB
:102A7000C33808022DE9F04F95B082468078149251
:102A8000800740F18B84DAF8040000270C9014983A
:102A900013900DA8821D0692421E053008920990DF
:102AA00007910B910B9A114611F8010B252803D0C1
:102AB000002800F0758404E05578961C252D09D176
:102AC00031460C9A0B915146904701370028E9D5C1
:102AD00000F05EBC00224FF0000800244FF0000B15
:102AE0001FFA8BF9B9F11F0F0DD8A5F1270009289E
:102AF0002DD8DFE800F09F0B0B0B050B650B0B626D
:102B00004BF0020B53E0B9F17F0F12D8A5F1300062
:102B1000092823D8B9F1400F27BF08EB880100EB43
:102B2000410804EB840100EB410438BF4BF0200B5B
:102B300080E04C2D3ED0682D45D06A2D3AD07A2DBC
:102B400018BF742D76D06C2D40F0538242E0202DBA
:102B50002DD0232DDAD14BF0100B6BE0242D47D074
:102B60007A2D67D02E2D3CD04C2D23D0682D2AD025
:102B70006A2D1FD06C2D2DD0742D5BD02A2D40F0E6
:102B80003882002A56D11398011D13910068B9F1BB
:102B90003F0F4DD8B0F1FF3FDDBF4BF0280B444253
:102BA00000224BF0200BC4BF0022044642E04BF051
:102BB000040B3FE04BF4207B3CE04BF0010B39E091
:102BC0004BF0080B36E00BF480704BEA400040F409
:102BD000807B2FE00BF080004BEA800040F0800B00
:102BE00028E0B9F13F0F00F2DB834BF0400B21E00E
:102BF000BAB11498154642461390B9F1400F38BF48
:102C00002246079813A900F0D5FB13982A46B9F17C
:102C1000400F00F104011391006834BF0446804660
:102C200008E022464FF0000800244FF0000B01E0BE
:102C30000022804616F8015B002D7FF451AF0A9404
:102C4000002534462AB114981390079813A900F070
:102C5000B1FB45F0200028EAE879B8F1000FA0F1B7
:102C6000650148BF2BF0400B03290B9401D3612869
:102C700035D11399461B073121F00701612801F175
:102C80000802139291ED000B18D15FEA4B6058BF18
:102C90004FF0FF39F2B20DA8494600F073FC00F185
:102CA00001084BF4C05B4FF0010C5FFA88F08145DE
:102CB000D8BFA0F101097020049041E05FEA4B61A8
:102CC00058BF4FF00609C1B266291ED0652824D12D
:102CD00065204BF4805B09F10101002324E0A5F19C
:102CE0006F01062957D808234FF0000EDFE811F0D6
:102CF000E0010700DA01DA019F01DA0197014BF0E8
:102D0000100B10234FF0780ED2E166204BF4005BDD
:102D10000122049011214B4608E05FEA096149460F
:102D200008BF01210023023804900022C9B21129F2
:102D300028BF11210DA800F0CCFD80464FF0020CF9
:102D40000D9B13F1090F08DA13F1630F0FD213F57E
:102D50007A7F09D84FF0040C0BE0092B09DD632BB7
:102D600005D9B3F57A7FF5D24FF0030C01E04FF0AF
:102D7000020C9DF838101FFA8BF4C80707D15FEAE0
:102D80008B7206D462071DD4002001251CE02D2083
:102D900019E02B2017E0692D18BF642D40F02B811E
:102DA0001FFA8BF05FEA0B6100F1308113990A1D65
:102DB00013920A68C10540F13081800554BF12B2F8
:102DC00052B22AE12020002511F00C0F18D0042364
:102DD000002D18BF03230A9A9A4226DD5FEA0B7181
:102DE00025D49C1AA846054600F0B9FB002800F13E
:102DF000CF8201370134F7D328460024454617E037
:102E00001BF4405F039543D1B9F1010F98BF4FF018
:102E100001095FFA88F139B3099A0A4412F8012CC2
:102E2000302A21D1A8F10108F3E7002400E0D41AE8
:102E30002DB900F0A4FB002800F1AA8201379DF80B
:102E40003800DFF86C550007DFF8600558BF05460D
:102E50002878002800F08F82801B00F08CFB01375F
:102E600001350028F4D593E2E20648BF494613F144
:102E7000040F0BDB4B4509DA8B424BF4005BAEBF12
:102E80004FF00009DA4301EB020901E0A1F1010969
:102E90001FFA8BF15FEA8B42B6464FEA015B059160
:102EA000029307D40521BBF1000F58BF032101EBAA
:102EB0000C0602E023EAE3714E1C09F10101B9F1AD
:102EC000000F059D08BFC5F30011039A0A9C82F00C
:102ED00001028B183344E41A4FF00003D8BF1C469C
:102EE00015F0090FCDF804C011D184B10546881939
:102EF0000A9910447646441A00F031FB002800F18C
:102F0000478201370134F7D30024284600E0764693
:102F1000039929B900F033FB002800F13982013709
:102F2000BBF1000F0CD500F022FB002800F130822D
:102F3000C6F1780000F01FFB002800F1298202375B
:102F40000598000709D444B1274400F010FB00287D
:102F500000F11E82013CF8D100240598800426D49B
:102F60009DF8390051460C9A9047002800F11082D4
:102F7000B9F1010FC0F2DA8000F0F5FA002800F193
:102F8000078209EB07005FFA88F500F1020B0020C9
:102F9000814500F0A681471CAF423ABF0699085C04
:102FA000302000F0ECFA00283846F1D5F0E1029824
:102FB000C9F100095FFA88F820EAE076851B701CE9
:102FC00005D100F0D0FA002800F1E281013730206D
:102FD000002D03D44545BCBF0998405D51464E4580
:102FE0004CDD0C9A904701350137013E0028E6D5AB
:102FF000CEE10A9425E6632D54D113980126011DD4
:10300000139100688DF834000DAD22E0800513980F
:1030100000F1A480011D13910268D317A6E04FF6BA
:10302000EF700BEA000B0A234FF0750E40E0139887
:10303000011D13910568DC48002D08BF05465FEAB5
:103040004B6058BF4FF0FF392846494600F040FB1F
:1030500006465FEA0B7070D40A98B046B04238BF9B
:103060008046B0426BD90C9A0446202051469047C6
:10307000002800F18D81601E0137F2E70C9A90471D
:10308000002800F18581781C0599C90640F114815A
:10309000002E40F0118100F066FA002800F17881DE
:1030A000023768E1782840F00981C5F18803AE460F
:1030B0004FF6F9700BEA00055FEA0B600AD413982B
:1030C000011D13910068E9050AD5A90554BF80B216
:1030D000C0B205E0A805139804D4011D139100683F
:1030E000002107E0073020F007010A46496852F83E
:1030F000080B139250EA010208BF2BF0160508D006
:103100000DAE7446324600F0FFF9861BAC462546EC
:1031100046E05FEA4B62F3D5B8F1010FF0DA4FF603
:10312000E9700BEA000C0026754639E00598C006E8
:1031300000F1D18007F1010BD3E0DDF8288037449E
:10314000A8EB0604002E00F0168115F8010B51467D
:103150000C9A9047013E0028F4D519E1073020F081
:1031600007000146436851F8082B13915846002B7D
:1031700048BF40F4806020F0100C82EAE37083EADC
:10318000E371B0EBE37061EBE3711A4300F08A8006
:103190000DAC0A236646224600F0B6F9B446061B7B
:1031A0005FEA4C6002D4614630460BE04FF6FE7099
:1031B0000CEA000130464E4504DA4846002D08BFAF
:1031C0002CF011011FFA81FBC90606D440F206411A
:1031D00011EA0B0118BF012103E00221002D08BFF5
:1031E00001210C185FEA0B701CD45FEACB7001D18F
:1031F0000A9907E00A99B1468C42BEBF7018A0EB4D
:1032000004090C46A046A142C8BF88460A988442D9
:1032100007DA00F0A4F9002800F1BA800134013780
:10322000F4E744465FEACB6014D440F206401BEA60
:10323000000F1FD05FEA8B704FF02B0058BF20208B
:103240005FEA4B5148BF2D2000F099F9002800F1AA
:103250009F800EE000F08BF9002800F1998045B1C5
:103260000C9A284651469047002800F19180023779
:1032700000E001370A983744041BB1450FDD00F028
:1032800076F90137A9F101090028F6D580E0089800
:1032900051460C9A805D9047013E002878D4002E5C
:1032A00069D0F4E75FEA4B627FF572AFB8F1010FC6
:1032B000BFF66EAF002673E707465CE00C9A252048
:1032C00051469047002863D40C9A284651469047AF
:1032D0000237FFF7FBBB00F046F9002858D407F18E
:1032E000020B049851460C9A801BC0B290470028EC
:1032F0004ED4029E2B205146002E48BF2D200C9A02
:103300009047002E00D57642002841D40198042829
:1033100012D34FF47A700C9AB6FBF0F5514605F1D2
:103320003000C0B29047002832D44FF47A7005FBC9
:1033300010610BF1030504E00BF10205314603288F
:1033400023D1642000F002F9002821D46420013543
:1033500006FB10710A2000F0F9F8002818D406EBDB
:1033600086000135A7EB400101F1300000F003F9C0
:1033700000280DD46F1C012CFFF694AB00F0EFF881
:103380000137013C0028F6D502E00228E2D2EBE743
:103390009AF8020040F004008AF802004FF0FF376C
:1033A000384615B0BDE8F08FDB440802A1420802A0
:1033B0007F4408022DE9F043894652494FF0010845
:1033C0004FF0010C0546944580F299802B4613F886
:1033D000014B252C03D01D46002CF7D18FE0AF1CEC
:1033E0006B783D46252BF1D000264FF0000E0025CE
:1033F0001F2E08D8A3F12004102C06D808FA04F4D4
:103400000C4202D042E07F2E0AD8A3F13004092CEE
:1034100013D805EB850346F0200604EB430535E0A1
:103420004C2B23D0682B24D06A2B1FD07A2B18BFAB
:10343000742B2BD06C2B34D122E07A2B26D02A2B64
:1034400018BF2E2B01D1002520E04C2B0ED0682B6D
:103450000FD06A2B0AD06C2B12D0742B16D0242BD1
:103460001FD1BEF1000F16D1AE46ECE746F4207630
:103470000CE006F4807346EA430343F4807605E0EB
:1034800006F0800346EA830343F0800617F8013B09
:10349000002BADD104E06545D5D16323E64600E0BD
:1034A00000233D46BEF1000F29D0E6457FF48BAFE7
:1034B00043F02004A4F16505032D01D3612C06D14E
:1034C000D9F80030073323F00703083312E0DCB2E9
:1034D000732C0CD0642B18BF692B06D1330606D58C
:1034E000D9F80030B405EDD403E0632BF6D1D9F858
:1034F00000300433C9F800300CF1010C62E7BDE87C
:10350000F08300BF892801002DE9F04103F01F0678
:10351000984614460F46054628463946324600234B
:1035200000F0E2F800FB1652A2EB0803092A88BF5C
:1035300003F13702303204F8012BAA1B054677F15C
:1035400000020F46E8D22046BDE8F0810C9AB1FB9C
:10355000F0F60F4606F130005146C0B210470C9A03
:103560002020514610470C9A2E20514610470C9AA5
:103570003020514610470C9AC0B2514610470C9A61
:10358000514610472DE9FE4F56EC107B0C46054680
:10359000F00F90462871C6F30A516FF31F5657EA91
:1035A000060208BF00290ED089B140F2FF7399428C
:1035B0000FD10821002A08BF0421002408442871E3
:1035C0002046BDE8FE8F00200027002605E02E489B
:1035D00003E0A1F2FF3006F58016002C286003D42A
:1035E0000C2C03D90D2436E0002434E03320A0EB6A
:1035F0008409022000214A464FF0000A00F046F8F4
:10360000424202926AEB0102B0F1010B61F100004B
:10361000019230400090012000214A4600F036F827
:10362000814607EA0B00B9EB00008A46009871EB6F
:10363000000008D3A000C0F134023846314600F043
:1036400036F8C00703D017EB090746EB0A060298C5
:103650000740019806401220411FB1D417F00F0215
:1036600001D1A1420ADCA2EB0803092A88BF03F1B9
:10367000270230322A54A142C8BF0C46390941EA18
:10368000067736090138E7E702FCFFFF930641BFE2
:10369000A2F1200100FA01F10020704732B1C2F11D
:1036A0002003914020FA03F319439040704793069A
:1036B00041BFA2F1200021FA00F00021704732B191
:1036C000C2F12003D04001FA03F31843D140704700
:1036D00010B54218034629B11C7814B101390133E1
:1036E000F9E71A46101A10BD40B584B002AE009634
:1036F00000F004F8029A039B04B040BD2DE9F047A6
:10370000DDF820E0844681B1CAB153B3B1FA81F447
:10371000B3FA83F52C1B202C47D3BEF1000F18BF42
:10372000CEE900C14FF0000CB6E09BB30021BEF122
:10373000000F18BFCEE900C14FF0000CADE0002B28
:1037400078D0002877D05C1E234200F09880B1FA30
:1037500081F4B3FA83F52C1B1F2CDED204F1010C8B
:103760002EE0541E224271D0B1FA81F7B2FA82F6ED
:10377000F71B07F1210CBCF1200F1BD0BCF11F0F70
:1037800000F28E80CCF1200620FA0CF401FA06F546
:1037900025431CE0B0FBF2FCBEF1000F1EBF0CFB8A
:1037A00012000021CEE9000176E004F1010CBCF129
:1037B000200F05D14FF0000A4FF0200C0D4609E014
:1037C000C4F11F0620FA0CF501FA06F4254321FA8C
:1037D0000CFAB0404FF000084FF000094FEA4A04DD
:1037E00044EAD5776C0044EAD076B51A67EB030A51
:1037F000F443F943A4184FEA400059415CBFBA466C
:10380000354640EAD87049EA4808CF0FBCF1010CB0
:10381000B946E3D14FEAD871BEF1000F41EA400149
:103820004FEA480020F0010018BFCEE9005A07EB2C
:10383000000C32E031E0B1FBF3FCBEF1000F1EBF23
:103840000CFB13100021CEE9001025E0BEF1000FA3
:103850001EBF00230440CEE90043012A1DD092FA86
:10386000A2F24F00B2FA82F202F01F03D140D84018
:103870001F23934307FA03F343EA000C0DE0BEF164
:10388000000F1CBF04EA0100CEE900C093FAA3F0C8
:10389000B0FA80F021FA00FC00216046BDE8F08714
:1038A000CCF14006ACF120044FF0000A01FA06F713
:1038B00020FA04F52F4300FA06F821FA04F53846F9
:1038C0008AE7D1E904239A421EBF531C0B61107092
:1038D00070472DE9F04F9DB0884651EC106B934630
:1038E0000D46CF0F6FF31F55C1F30A5156EA050479
:1038F00008BF00290BD040F2FF7291420FD108217E
:10390000002C08BF0421394401710024FCE130215E
:103910000124417100210160B91C0171F4E1002C06
:10392000CDE90970069318BF01240022A1F23547A2
:10393000022938BF0122002918BF05F580154FEA7A
:10394000850343EA967044EA020913904FEA860021
:1039500004BF4FF6CC37CFF6FF77129006F0010088
:10396000002F0490CDF81480CDF82CB0CDF83C9009
:1039700041D4384600F0D0FACA468146032F88BFAA
:10398000A9F10109484600F0D3FA14A904464846B3
:1039900000F056FB18A81AA9CDF808A0CDE9001030
:1039A000A9EB0700204414AA00F17C033046294605
:1039B00000F0C6F90546B9F1150F109100F2938099
:1039C000129E139C3046214600F0ACF9820842EA70
:1039D000817120F0030008444042F04261D130463A
:1039E000214600F0ADFA00210F9148454FF000004C
:1039F00028BF012039E0C7F1000A504600F092FAD2
:103A00000446781C18BF013CAAEB040A504600F09B
:103A10008FFA0DF1500883465046414600F0AAFA4D
:103A200018A81AA94246CDF80890CDE90010A4EBD9
:103A30000B0000F17D033046294600F081F904EBCC
:103A400007090546012C109111D8DDF81480DDF826
:103A50002CB0049840B1DDE91A0101381A9061F1E7
:103A600000001B9000200F90012011903EE0DDF837
:103A700014803E2CDDF82CB035D84FF0FF304FF0DD
:103A8000FF312246FFF702FE139A22EA0101129A41
:103A900022EA00000843B0FA80F0400911900020AB
:103AA00023E0049870B90F98C043801964F10001B5
:103AB00000F046FA0021119148454FF0000028BF60
:103AC000012012E046F00200214600F039FADDE95B
:103AD0001A124B1E62F10004484538BF0B461A9378
:103AE00038BF14461B94002011900F904046BBF144
:103AF000000F0ED01099284600F0EEF9069A09EB57
:103B000002010844B0EBD27FB8BFD00F8045B8BFE8
:103B10004046CDF820900DF160091B9CAB4699E81A
:103B2000400300250C900020CDE9120048462146B4
:103B3000CDF8389000F0EEF881468A46304641468E
:103B4000CDF8348000F0E6F80746B0EB090088466F
:103B500071EB0A000ED31099584600F0BDF90C998C
:103B6000884221DD08462946012518B9109850EAF7
:103B70000B001DD01099584600F0CCF81091544617
:103B80001299119A00F0BBF907EB87010F9AC6EB67
:103B900041013E46B1FA81F1834649090A40139931
:103BA0000F9201311391C1E7DDF840805F4603E0D9
:103BB00000274FF000080D46DDF83C90DDF828A006
:103BC00007955FEAC97024D00D9DBB463046294653
:103BD00000F0A0F8074600EB800040422A460D4660
:103BE0007142B1EB400F16D10E98214600F092F8C9
:103BF0000E900C465846414600F08CF888461299C3
:103C0000119A3E4600F07BF91399834601311391D6
:103C1000DCE7454602E045465F460D920898139959
:103C200001EB00081298C0B2411F18BF0121DDF856
:103C30002CB0079AD2070CD10D9B87EA06026B4085
:103C40001A4306D1049A82F0010202EA0902012A0B
:103C50005ED1119A82F001021143002239430428F7
:103C600088BF012201EA02043F1945F100093846E4
:103C7000494600F031F906460CB30C9886421FDD28
:103C8000BBF1000F0AD00698404481190129D8BF22
:103C9000012105988842B8BF0146084686420FDDDB
:103CA0000446781D49F100010A220023FFF71CFD9C
:103CB000013E08F1010807462046894600E00C98BD
:103CC0008642B8BF304604B20025261DA54212DA4E
:103CD000384649460A220023FFF706FD894600EBD5
:103CE00080010135A7EB4101074641F030010AF898
:103CF0000610013EEAE709988AF804000FFA88F0F6
:103D000020440138CAF8000020461DB0BDE8F08FFD
:103D10000124A9E780B500F005F8C00840EA417029
:103D2000C90880BDF8B502AA0092044A4FF0CC330E
:103D300000F011FADDE9020104B080BDCDCCCCCC9D
:103D40002DE9F04F8BB004931646D2E9002308AC5E
:103D50000094490041EAD07445002846214600F00D
:103D6000FAF9D6E902238146DDE9087806A88B46F0
:103D700000902846214600F0EEF910EB070A48EBC8
:103D80000108DDE90601DDE90823471C41F10005D2
:103D9000BAEB020278EB030228BF0D46079528BF55
:103DA00007460499D6E902404139D6E900CE7A1C8B
:103DB00045F1000314EB0A040591009140EB080162
:103DC00019EB0C00CDF80C905BEB0E00069754F14C
:103DD000000041F10001B0EB0A04D94671EB080480
:103DE00024BF2B463A4600F0D2F9149AC2E90001EA
:103DF000DDE915B008B3D6E90201D6E900C3DDE973
:103E000005640096BAEB0006039A68EB0107701E82
:103E100067F10001B2EB0C02079D79EB030224BFAE
:103E200030463946621E65F10003BAEB000678EBB6
:103E3000010624BF22462B4640E0049C0025D6E91B
:103E400000E0CC46403CDDE9062302904FEA4C0CF2
:103E5000D6E902014FEA4A0600944FEA480446EACE
:103E6000D97644EADA74B6EB0A0774EB080738BF70
:103E7000012545EA42055B0043EAD2776A1E0495B4
:103E800067F10003039DB6EB000964EB010BB9F188
:103E900001006BF10001DEEB450E4CEAD57C029D82
:103EA0007CEB050528BF5946DDF854B028BF4846CD
:103EB000351A8C41049C24BF22463B4600F067F92A
:103EC000CBE9000105AB41460DCB0090504600F018
:103ED0005EF90BB0BDE8F08F70B500230A24012213
:103EE0000A25461B71EB030607D3A5FB045603EB1B
:103EF0008303013206EB4303F3E7104670BDC9B2FA
:103F0000B1FA81F149090A4000EB80011192ABEB53
:103F1000410112917047D4D401494843800C704745
:103F20004134010001494843000D7047FB2E0B004E
:103F300002494843012101EBD04070474F931200E2
:103F4000F0B50A4B02460A4D4FF0FF304FF0CC342B
:103F5000A2FB0367013002FB047201FB0321721B09
:103F600071F133323246F3D3F0BD00BFCDCCCCCCAF
:103F7000343333332DE9F04F87B08B461A21B0FB31
:103F8000F1F2054602FB01F62A4800EB0210B542A9
:103F900002D100F0C9F849E004A9274A0091A91B01
:103FA000C36852F8317002EBC101D0E901924C684C
:103FB0000168019100F0ACF8824602A8019A884697
:103FC0000090384621464B4600F0C5F801918146E5
:103FD000DDE90212002011EB0A0758EB020840F15C
:103FE0000000012801D100F097F82846FFF7A0FF54
:103FF00004463046FFF79CFF0199241A48463A468A
:104000004346009400F0C3F81E226FF0030302EA57
:10401000450203EA9503094DEB5800F08DF800F0D6
:1040200093F8009400F0B3F8CBE9020107B0BDE8C3
:10403000F08F00BFB0CB0E0280CC0E0250CD0E022E
:104040002DE9F04F87B08B46054619301A21B0FB99
:10405000F1F22C4802FB01F600EB0210AE4202D155
:1040600000F062F84BE004A9274A0091711BD0E9E7
:1040700000A852F8317002EBC101D0E902234C686C
:1040800000F046F8019002A8BAF1010268F10003BD
:104090008946009000F03CF88A46DDE9013104468B
:1040A0000020039ACF1852EB090840F100000128C4
:1040B00001D100F031F83046FFF73AFF06462846B6
:1040C000FFF736FF361A204651463A4643460096D9
:1040D00000F05DF86FF003030C4C03EA95031E2219
:1040E00002EA4502E35800F027F8013041F10001EF
:1040F00000F02AF8009600F04AF8CBE9020107B078
:10410000BDE8F08FA8CD0E0280CC0E0298CE0E0234
:104110003846214600F01FB8DDE904010130049063
:1041200041F100000590704790E80E00C0688BE8F0
:104130000E00CBF80C00704723FA02F202F00302E3
:10414000801841F100017047DDE90423CBE900014B
:10415000384641467047F0B5A3FB0145DDF814C071
:10416000A2FB0116A2FB00277F18744145F1000550
:1041700039462646E3FB0016A3FB0003C01954EBA7
:10418000030045F10000CCE900601046F0BD2DE9C8
:10419000F041DDF8188017460C460546C8F140028C
:1041A00038461946FFF772FA07460E46284621465A
:1041B0004246FFF77CFA38433143BDE8F081437251
:1041C000656174656420776974682047494D5000C3
:1041D00052323A2020307825303858005053503A27
:1041E0002020202030782530385800436865636BE4
:1041F0006564204572726F723A20496E73747275ED
:104200006374696F6E20427573204572726F72001D
:104210005343422D3E484653523A20307825303899
:1042200058005053523A20307825303858000D0A43
:104230003D3D3D3D3D3D3D3D204F74686572205202
:1042400065676973746572203D3D3D3D3D3D3D3D73
:104250000052333A2020307825303858000D0A3D7E
:104260003D3D3D3D3D3D3D3D205343422052656730
:104270006973746572203D3D3D3D3D3D3D3D3D00D2
:104280005343422D3E435346523A2030782530382E
:1042900058005053504C494D3A203078253038580A
:1042A00000696E660052303A202030782530385848
:1042B000005231323A20307825303858004C523A8A
:1042C00020203078253038580050433A202030786C
:1042D00025303858000D0A00486172644661756CDB
:1042E00074206F636375727265642062792044453F
:1042F00042554700486172644661756C74206F6373
:10430000637572726564206279206F7468657220CB
:10431000657863657074696F6E20666F726365643B
:10432000003D3D3D3D3D3D3D3D3D3D204D535020FB
:10433000537461636B20203D3D3D3D3D3D3D3D3D22
:104340003D00495053523A203078253038580043C8
:104350006865636B6564204572726F723A204469C8
:1043600076696465204279205A65726F00436865FA
:10437000636B6564204572726F723A20496E766194
:104380006C696420537461746500436865636B6590
:1043900064204572726F723A204E6F20436F7072C4
:1043A0006F636573736F7200436865636B65642048
:1043B0004572726F723A20556E616C69676E656402
:1043C00020416363657373005465726D696E616C3F
:1043D00000436865636B6564204572726F723A20B2
:1043E000556E646566696E656420496E7374727596
:1043F0006374696F6E0052313A202030782530386E
:1044000058004D53503A202020203078253038581D
:1044100000436865636B6564204572726F723A2071
:10442000507265636973652064617461206275739D
:10443000206572726F720042464152206973207685
:10444000616C69643A203078253038580D0A005381
:1044500043422D3E494353523A2030782530385854
:1044600000436865636B6564204572726F723A2021
:10447000537461636B204F766572666C6F77006E64
:10448000616E004D53504C494D3A203078253038FC
:1044900058000D0A3D3D3D3D3D3D3D3D3D3D3D3DD1
:1044A0003D3D3D20496E20486172644661756C74E3
:1044B000203D3D3D3D3D3D3D3D3D3D3D3D3D3D3D49
:1044C00000436865636B6564204572726F723A20C1
:1044D000496E76616C696420504300286E756C6C7F
:1044E00029002C2A2B04093611F03AB4B6B7B9C00A
:1044F000C1C2C5E8E0E1352129D4D4D400000000D0
:104500007800000000000000000000000000000033
:1045100000000000E8440802000000000000000065
:10452000000000000000000000000000000000008B
:104530007800000000000000000000000000000003
:1045400000000000E944080201C300000000000070
:10455000000000000000000000000000E944080224
:1045600001960000000000000000000000000000B4
:1045700000000000E74408020148000000000000BD
:10458000000000000000000000000000EA440802F3
:1045900001550000000000000000000000000000C5
:1045A00000000000EB4408020101000000000000D0
:1045B000000000000000000000000000EC440802C1
:1045C000038A073B0000000000000000000000001C
:1045D00000000000ED44080201C6000000000000D9
:1045E000000000000000000000000000EE4408028F
:1045F0000202E000000000000000000000000000D7
:1046000000000000EF44080202C064000000000047
:10461000000000000000000000000000F04408025C
:10462000011D00000000000000000000000000006C
:1046300000000000F144080201A700000000000093
:10464000000000000000000000000000F24408022A
:104650000118000000000000000000000000000041
:1046600000000000F344080208408A00002919A550
:10467000330000000000000000000000F4440802C5
:104680000EF00B12090A2639544E3813132E34003B
:1046900000000000F54408020EF010150D0C07385C
:1046A000434D3A161530350000000000F64408026C
:1046B00001000000000000000000000000000000F9
:1046C00000000000F74408020000000000000000A5
:1046D000000000000000000000000000E3440802A9
:1046E000040000010E0000000000000000000000B7
:1046F00000000000E444080204000001DF000000A4
:10470000000000000000000000000000E944080272
:10471000013C00000000000000000000000000005C
:1047200000000000E94408020169000000000000E8
:10473000000000000000000000000000F844080233
:104740000000000000000000000000000000000069
:10475000000000000904000000D4D4D4D4D4D4D480
:10476000E3924282A392C492E49AE49A03A303A33D
:10477000C3922272C49244B345B3A492C49AE5A2F0
:10478000C492C492C49A04A3C49A24AB45B3838A46
:10479000E49A04A324AB24AB25AB65B365B3059BB6
:1047A000E59A25ABC59A05A346B304A38382848208
:1047B000247AE59A04A3214140188020A128E23000
:1047C0000239A128E130A128C22881188218E328E3
:1047D00003310331834984498449E659A551E6618F
:1047E0008449E559E561E5618682A6822472E58AFD
:1047F0008582069B26A306A326A326A347AB87B3E1
:10480000A7C387BB46AB269B47A3E692867A256261
:10481000E561A78288B307A347AB06A387B3A6BB0E
:1048200026A347ABC7BB46AB26A326A3E6A287B306
:1048300047AB47AB67B346AB66B3C7BB87B345ABC4
:10484000C7BBA7B387AB06A366ABE49A87B3C8C35D
:10485000299B2A9B4AAB6BA309932A93299327721E
:1048600083496772A98AC98A0A8B2A934A9B08934B
:10487000299329938BA34A9B877AC882E98AE98A7C
:10488000C88A299B0893E792C68A8582246A247283
:10489000046A4472236AE2612472657A4472A359FD
:1048A00081518582E561C228E33003394449644976
:1048B000C55904628251C3612472A3594BD4EAC31F
:1048C000CAC3A9BBA9BB89B388B368B368B347B3EC
:1048D00047B347B346B346B346B345BB65BB64BBBA
:1048E00064C383C383CB83CB82CBA2CBA1CBA0D326
:1048F000C0D3C0D3C1D3E0D3E0D3C1D3E1D3E1D39C
:10490000E1D301D402D402D402DC02DC22DC22DCBA
:1049100042DC42DC42E442DC43DC23DCA392227230
:10492000A292C39A24AB638AE3A224AB838222724D
:10493000C49A64B324ABE4A2A392C49AC492A3928F
:1049400004A304A3C39245AB45B3A492E49AE4A2A2
:1049500044B304A325AB45B366B3C492E5A225AB2B
:10496000C59AC49A66B305A3437A437A037205A332
:1049700024A3A0286020A128E13802390241424145
:10498000E230C128C228A2208220E328233923391B
:10499000634964498449A549C651E6618551066267
:1049A000256AE561457285822372C58AE692069B77
:1049B00026A346AB06A346AB46AB67B3C7C386B3D5
:1049C00046AB66AB66ABE792867A066A056AE79203
:1049D00067B327A367B306A366ABA6BB26A3A7BB93
:1049E000C7BB46AB67ABC59226AB87B367B346A3DD
:1049F00067ABE59A87B3A8BB87B3A6BB66B3A7BB73
:104A0000A7B326A366AB26AB87BBC8C309934AA34B
:104A10004AAB2A9B2A9B09930993C98A6349677AFF
:104A2000C98AE98A2A8B4B9B499BE892299B299B3F
:104A30002993098B887AC9820A8B0993E98A299379
:104A4000089BE792C68A858244724472036A247284
:104A50002472E261036A8582447A21416149A68A0F
:104A60000562C228E230033964494441A4512572E9
:104A7000825182590472046A2BCCEAC3CAC3A9BB0F
:104A8000A9BB89B388B388B368B347B347B347B307
:104A900046B346B346B345BB45BB64BB64C383C39F
:104AA00083CB83CB82CBA2CBA1CBC0D3C0D3C1D38A
:104AB000C1D3E0D3E0D3E1D3E1D3E1DBE1DB01D447
:104AC00001DC02DC02DC02DC22DC22DC42DC42DC37
:104AD00042DC42DC43DC23DC838A838A838AC49AF7
:104AE00004AB839204A345B30272237AC49A44AB05
:104AF00024AB44ABE49AE5A2C492A38A44ABE49A03
:104B000005A325AB45B3C492E49A25AB24AB05A31A
:104B100046B365B386B3848A25ABE59AA592E59A38
:104B200045B304A3026A2372848A24AB838260188B
:104B30002018C12802394249424122412139E1303D
:104B4000A120E230C228C22023396449644164496B
:104B50008551A551E659066AE6610662466A4672C3
:104B60004572A68A447AA48AC68A47A3C69266B3C7
:104B700046A366AB26A387B3E7C387B326A346AB9A
:104B800027A3079B86824672667247AB66B346A32D
:104B900087B387B386B387BB46ABC6BBC6BB66AB22
:104BA00067AB27AB67B387BB87B3069B67ABC59281
:104BB00066ABC7BBA7BB65B366B3A7B387B367AB29
:104BC00045AB87BBC8C3C8C309934AA36AA32A9B42
:104BD00009930993299B09936349677AE88A2A9381
:104BE0002A934A93299B0893299BE88A088B099367
:104BF000A882C88A098B0993E88A0893289B08939E
:104C0000C68AA582857A447223722372236AE2617E
:104C1000E369858245722141A25986820562C228D4
:104C20000231033964498549E461046AA359624940
:104C3000A259A6820ACCEAC3CAC3A9C3A9BB89BB2D
:104C400068BB68B368B347B347B347B346B346B32B
:104C500045B365BB64BB64C363C383CB83CB82CBE7
:104C6000A2CBA2D3A1D3C0D3C0D3C0D3E0D3E0D3CF
:104C7000E0D3E1D3E1D3E1DBE1DB01DC01DC02DC09
:104C800002DC02DC22DC22E422E422E442E442DC14
:104C900043DC43DCA392C39AA392A39225A363822D
:104CA00003A344B3237A237AE4A245B324AB44ABF1
:104CB000E49AC4A2E4A2E49A24ABC49225ABE5A290
:104CC00065B304A304A325AB05A325AB25AB45B36E
:104CD00065B3C59225AB848A06A3C59A45B304A3E0
:104CE000026A437AA49225AB026A601820188120D8
:104CF00042494249634902394241E2308118023156
:104D0000E330E2280331A45164498449A551845118
:104D1000C5510662066A26626672A6828582A58AE7
:104D2000A58AA58AC58A0593E59267B326A367ABD2
:104D300006A347ABC7C366B367B326A367ABE792C7
:104D400087826672667A67AB67B306A367B386B37A
:104D500067B387BB05A366ABC8BB47AB06A347AB2E
:104D600087B367B368B3069BA7BBE49266ABC7BBC8
:104D700086B345A366B3A7B367B387B366B3A7C3C8
:104D8000C8BBA9BB2A9B4AA3499B2A9B09930A9BA0
:104D9000299B09936349877A09932A932A932A9333
:104DA000299B299B4A9BE98AE9920993A882099346
:104DB0000993088BE88A0893289B089BC68AA582DA
:104DC000857A657A24722472E269E261E269657A21
:104DD000447A2149A361457AE461C22843392341D9
:104DE000644984510562A359E461C461C261289B8E
:104DF0000ACCE9C3CAC3A9BB89BB88BB68BB68B37B
:104E000047B347B347B347B346B346B345B365BBB0
:104E100064BB64C363C383CB83CB82CBA2CBA2CB63
:104E2000A1D3C0D3C1D3C0D3E0D3E0D3E0D3E1D387
:104E3000E0D3E0DBE1DB01DC01DC02DC02DC22DCD4
:104E400022DC22E422E422E462E443E443DC43E49F
:104E50008392E49A848A839204A3628204A324AB9B
:104E600063820272E5A245B3E4A224B3C49AE5A228
:104E7000C49A04A324B3848A25AB05A344B325AB09
:104E800004A345B3C59A45B324AB45B345B305A3C5
:104E900026ABA48A25A3C49A45AB05A3E269638225
:104EA000A48A04A3027280204018C1284241A36151
:104EB000845922392241C1288120E228E330C228C6
:104EC0002339A451A451C559056AA551C551266A73
:104ED000E66106624672E792E692A58A06936582CB
:104EE000A58A6482C59247AB47AB47A306A387B3A5
:104EF000C8C387BB67B347AB47AB279B6672256ABE
:104F0000667A67B346A3E59267B367B387BBA7BB6F
:104F100045A325A3C8BB47AB26A347AB87B387B33D
:104F200067B326AB46ABE49287B3A7BB059BC6BB72
:104F300086B3A6BB67B387BB45ABC7C3C7C388B33C
:104F40000993499B299B299309936AA34A9BE98A60
:104F50006349877A29934A936B9B4A9B499B299380
:104F60002993098B09930993C88A0993E98AE98AE5
:104F70000993E88A489B2893C68AA6828582857A07
:104F800044722472036AE261036A447A657A414991
:104F9000C3616582E461A128233944416449A55174
:104FA000266AA351E359246A036AA9BB0ACCEAC35F
:104FB000CAC3A9C3A9BB88BB68BB68B367B347B3FF
:104FC00047B347B346B346B345BB65BB64BB64C395
:104FD00083CB83CB83CBA2CBA2CBA1D3A1D3A1D3B1
:104FE000C1D3C0D3E0D3E0D3E0D3E1D3E0D3E1DB5E
:104FF00001DC01DC01DC21DC02DC22DC22DC22E43D
:1050000042E442E462E442E443E443E4848AA49256
:10501000A38A428204A3839224A324ABC492427A3B
:10502000C49245B304AB44B325ABE49AA49204A361
:1050300025ABA392E4A224AB45B305A325A345ABBE
:1050400045AB45AB45B325A304A304A325ABC5924B
:1050500005A3C49A45B3049B237A848AA492C3927D
:10506000037280284018C1284249C369C36142497C
:105070000139E230A120E22803310331E330A451A9
:10508000E561256A06628449C5594772E661467240
:105090008682269BE592A58AA58A657AC592A58A0D
:1050A000079B47A367B326A387B387B3C8CB46B391
:1050B00087B367AB47A3079B46720562868287B3B7
:1050C00046AB059B87B387BB87BB87B3059B26A3EE
:1050D000A7BB47AB26A346ABA7BB87B3A7B367ABBA
:1050E000C592237A86B3C7BB25A3C6C3C7BBC8BBBB
:1050F00068B3A8BB25ABA7C3A7C368B3E8924AA30C
:10510000499B299B499B6AA36A9BE98A6349677A01
:1051100009930A8B6B9B6A9B499B29932993E98A84
:10512000098B098BA882E98AC88A0993E98A29939D
:10513000289B0893C68AA6828582857A4472047267
:10514000036AE261036A447A657A4251E369868AB6
:10515000056AA128644964496449A551466A6149C0
:10516000C261046A289B4BD40ACCEAC3CAC3A9BB58
:1051700089BB88BB68BB68B367B347B347B347B362
:1051800046B346B345BB45BB64BB64C383CB83CB4B
:1051900083CBA2CBA2CBA1D3C1D3C1D3C0D3C0D325
:1051A000E0D3E0D3E0D3E1D3E0DBE1DB01DC01DC01
:1051B00001DC21DC22DC22DC22DC42E442E442E4A9
:1051C00062E442E443E443E4447AC49AA392427A18
:1051D00004A3A39204A345B3E49AA38AA38A24ABAD
:1051E00024AB24AB44B3A492A39225AB24AB04A379
:1051F000E39A04AB65B3C49205A325A345B304A306
:1052000065B3C49A04A3E59AE59A05A305A3E59AB4
:1052100065B36282838AC492A492E1614372802062
:105220006018C2304249C361E36942494249E230F1
:10523000E228E22803314441E3300562E459C559CC
:10524000C559A451E5610562266AA782867AE5926E
:10525000C692858AA58A457AA58AE592E59226A313
:1052600066AB46A367B386B3C6C305A326AB67ABDD
:1052700067ABC692667A056AA68A67AB46AB66AB31
:10528000A7BBA7BB86BB45AB059B46AB67B367AB6C
:1052900046A367ABA8BB66AB87B367B3E69A6382E6
:1052A00086B3C7C326ABA7BBA7BB87B387B3C8BBAF
:1052B000C59AC7C3C7C368A3E98A4A9B299B0993B8
:1052C0006AA34AA3299BC88A6349677A2A932A8BCF
:1052D00009934A9B69A3499B2A9BE98AE98A098B1E
:1052E000A882E98AC882E88AE98A0993289B0893F8
:1052F000C68AA58A8582657A4472246A036AC26175
:10530000E2612472868282510472858A056AA12034
:1053100064496449434185494672C359046A056A30
:10532000489B2AD40ACCEAC3CAC3A9C3A9BB88BB79
:1053300068BB68B367B347B347B346B346B346B336
:1053400045BB45BB44C364C383CB83CBA3CBA2CBB8
:10535000A2CBA1D3C1D3C1D3C0D3E0D3E0D3E0D398
:10536000E0D3E1D3E0DB01DC01DC01DC01DC21DCAA
:1053700022DC22DC22DC42E442E442E462E442E455
:1053800043E463E4237A04A3C392427A04A3A38A86
:10539000C49A64B3C492E49AA38A25AB04A3E59AA1
:1053A00044B3C49AE49AE4A224A3E4A204A325ABE0
:1053B00065B3E59AE4A224AB45AB04A364B3C49AF5
:1053C00025ABC592C59245AB05A3E49A45ABA16157
:1053D000E49A848AA251A261637A40186018C130AD
:1053E0002249A2614372424982510231E230C2280D
:1053F0000339C551E330A451C45984498449E5595E
:105400000562256A4672A782657A069B079BA5827C
:10541000E69A6582C692E69AA58A26A367B326A372
:1054200066ABA7BBC7C305A367B347AB26A3E79A81
:10543000677A256A069B87B366AB46AB47B387BBE3
:10544000C7C325A3069B87B346AB67AB26A367B349
:1054500087B386B367B347ABE59AA49266B3A7BB9D
:1054600067B3A7BBA7BBC7BBA7B387B325A3C7BBFE
:10547000A7C3489BE9926AA3299B299B69A34A9BDE
:105480000993A782634967720A93E98AE98A4A9B6A
:1054900069A3289B2993098B2A930A93A882E98AF6
:1054A000E98A2993C98AE88A299BE792C78AA58A4B
:1054B0008582657A4472236AE261C161C2610372C6
:1054C000A68A82512472457A056A81206449434143
:1054D000444184514672246A036A056A279B2AD490
:1054E0000ACCEAC3CAC3A9C3A9BB88BB68BB68B35B
:1054F00068B347B347B346B346B346B345BB45BBB2
:1055000065C364C383CB83CBA3CBA2CBA2CBA1D3F4
:10551000C0D3C0D3C0D3E0D3E0D3E0DBE0D3E1DB42
:1055200001DC01DC01DC01DC01DC22DC22DC22DC30
:1055300022E442E442E442E462E442E443E463E419
:105540006382C39AC49A638A23A3A38AA39224ABD7
:10555000A392E4A2A48A24AB04A304A345B324A386
:10556000049B05A305A3A49205A345AB45B305ABD6
:1055700025AB45B324AB65B324A304A305A3848A58
:10558000C49A45ABE59AE49A049B017AC3926251AE
:1055900062512372236A6018A128A1288251C36135
:1055A000447AA35983518349E330E3280339C55929
:1055B000033123398449A451A451E561256A466A1F
:1055C000A682C78A858247A3E6920693069BC58A70
:1055D000E692069BA58A269B86B3259B67B3A7BB4D
:1055E000A7BBC59A87B387B326A3E792867A657A65
:1055F000069B88B306A347AB67B367B3C7C366B35D
:1056000006A3A7BB87B388B326A367AB87B325A33D
:1056100046AB46ABE592E59A65B366B387BBA8BBDC
:10562000A7B3A8BB87B3C8BB24A386BBA7BB289BD3
:1056300009938AAB299B099349A34A9B29936772D3
:10564000434966722A932A93E98A4A9B289B499B7D
:105650000993299B2A9B2A93A9820A932993299B20
:10566000E992E88A299BE892C68AA68A8582657AA9
:105670004472236AE269C159C261036AC6928251C7
:10568000447A4572466AA120444164494341A45189
:1056900046724472E4690562289B2AD40ACCCAC3C4
:1056A000CAC3A9BB89BB88BB68BB68B367B347B330
:1056B00047B347B346B346B345BB45BB64C364C3B6
:1056C00083CBA3CBA2CBA2CBA1D3A1D3C0D3C0D336
:1056D000E0D3E0D3E0D3E0DBE0DB01DC01DC01DCA4
:1056E00001DC01DC21DC21DC21DC22E442E442E4B7
:1056F00042E442E462E442E443E443E46382E4A239
:10570000C49A848A04A3648AA38AE49AC492C4A231
:10571000C49A24ABE4A225AB25AB05A3E49A05A368
:1057200005A3C49A05A325AB45B304A304A305AB05
:10573000E49A65B304AB44AB25AB6482E4A205A351
:10574000E59AC49AC39AA48241494249C35962491D
:1057500001398120A128C1282249C3612472C36173
:10576000A35983512341E230844984492339443980
:1057700044410562C459256A4672256AC682E79289
:10578000E69247A3069B259B0593C58AE692E69A77
:10579000E69AE59AA7B3059B67AB87BB67BBA49264
:1057A00087B367ABE692C78A667AE79247A3C7B327
:1057B000E59A67B387BBC7BBC8C387B3E59A87BB06
:1057C000A7B387B326A367B3A8C325A387BB25A325
:1057D000C58A45AB46ABA7B3A8B3A8BBA8B3A8B3CB
:1057E000A7B3C8C345AB86BBA8BB099329938BABB2
:1057F000299B088B4A9B499B2993A4518349657235
:105800002A930A8B2A936A9B289B49A30893499B56
:105810006AA32A93E98A0993E88AE88A098BC982EC
:10582000299BE892E7928582657A657A4472236AB9
:10583000036A8159C2614372C68A8251457A4572B0
:105840004672E2386449A4514449A4514672046A3C
:10585000E569046A69A32ACCEACBCAC3CAC3A9C34F
:10586000A9BB88BB68BB68B367B347B347B347B34B
:1058700046B346B345BB45BB64C384C383CB83CB2C
:10588000A2CBA2CBA1D3A1D3C0D3E0D3E0D3E0D3AA
:10589000E0DBE0DBE0DB01DC01DC01DC01DC21DC66
:1058A00021DC22DC41E441E442E442E442E462E4FB
:1058B00062E463E443E463E4438203A3C49A838A17
:1058C000E49A4382A392C492E4A2C49AE4A245B3A8
:1058D00004A304A345AB05ABE4A205ABE4A204A377
:1058E000A49225AB45AB05A3A49225B3C49A65B396
:1058F00045B344B344ABC49205A304A3C392E3A24B
:10590000A5920462C2302239000060202472C128AE
:10591000C128E130C259E36124722472A359635152
:105920006351233983498449233124396449E5612A
:10593000256A6572667A256AA682069B269B46A31F
:1059400025A3259BA48AC59226ABC59246A306A390
:1059500087B326A367B387B386B3E49A46AB47AB56
:105960004572A68A667A479B47AB87BBE59A67B3C1
:10597000A7BBA7C3E8C3A7BB05A366ABA7BB87BBF1
:1059800047AB87BBA7BB64AB85B3059BC59286BB02
:10599000A6BBC8BBA7B3A8BBA9BB8AB3A8B3C6BBE9
:1059A00045AB66B3A8ABE88A4A9B8BAB2993E98ADF
:1059B0002993299B67728551A35146722A93299393
:1059C0002A9B4A9B499B289B299B299B4AA36BA303
:1059D0004A9B098BE98AE98AE98A098B299B089BFA
:1059E000E7928582647A647A4372236A0362A259D9
:1059F000C261447AC68A8259657A4572466A6449A8
:105A00006449A5514341A551456AC459056AC46119
:105A100089AB0AD4EACBEAC3C9C3A9BB89BB88BB9B
:105A200068BB68B367B347B347B347B346B346B33E
:105A300045BB45BB64C364C383CB83CB82D3A2D3B2
:105A4000A1D3A1D3C0D3C0D3E0D3E0DBE0DB00DC43
:105A5000E0DB00DC01DC00DC01DC20DC20DC21DC24
:105A600041E441E441E441E442E461E462E462E4AB
:105A700063E463E46382E49AC392C392E49A638228
:105A8000A38AC39204A3E49AE3A224B325ABC49AE5
:105A900004A344B3C49A04A304AB25B3E49AE5A2D7
:105AA00025AB05A3E59A25ABE49A45B365B304A3FA
:105AB00024ABA49205ABE49A6482C592C692E2300C
:105AC000000000080008E138A48AE138C130C13084
:105AD000A359036A0372447284518351644944494F
