S0220000646D615F6E6F726D616C5F63706B6E65745F72613874325F65702E73726563C0
S3150200000000400020593B0002393B0002B92B000296
S31502000010613B0002613B0002613B0002613B000260
S31502000020000000000000000000000000613B00022A
S315020000306128000200000000613B0002613B0002F1
S31502000040E13A000299380002B93700028939000202
S30902000050193A00024F
S3150200005880B544F61E60C0F2002000F007F840F2B0
S3150200006818100121C2F20020017080BD40F2AF2CA7
S30B02000078C0F2002C6047F5
S3150200008000000300E92A0002092B0002000000001A
S3150200009040090000000018080000000000000000EF
S309020000A00000100044
S315020000B0844641EA000313F0030349D1403A23D3AD
S315020000C00B6803604B6843608B688360CB68C360D0
S315020000D00B6903614B6943618B698361CB69C361B8
S315020000E00B6A03624B6A43628B6A8362CB6AC362A0
S315020000F00B6B03634B6B43638B6B8363CB6BC36388
S3150200010040304031403ADBD230320BD30B680360C9
S315020001104B6843608B688360CB68C36010301031D4
S31502000120103AF3D20C3205D351F8043B40F8043BA3
S31502000130043AF9D2043208D0D2071CBF11F8013BA7
S3150200014000F8013B01D30B8803806046704700BF6D
S31502000150082A13D38B07B1D010F00303AED0C3F134
S315020001600403D21ADB071CBF11F8013B00F8013B5E
S31502000170A4D331F8023B20F8023B9FE7043AD9D3D5
S31502000180013A11F8013B00F8013BF9D20B780370F2
S315020001904B7843708B7883706046704770B48407DF
S315020001A046D0541E002A41D0CDB2034602E0621E5A
S315020001B0E4B3144603F8015B9A07F8D1032C2ED94F
S315020001C0CDB245EA05250F2C45EA054519D926463D
S315020001D003F11002103E0F2E42F8105C42F80C5C3E
S315020001E042F8085C42F8045C02F11002F2D8A4F16B
S315020001F0100222F00F0204F00F041032032C1344F3
S315020002000DD91E462246121F032A46F8045BFAD867
S31502000210221F22F00302121D134404F003042CB120
S31502000220C9B21C4403F8011BA342FBD170BC704740
S3150200023014460346C2E710B540F2A40140F200029A
S31502000240C0F20021C0F200020446FFF731FF40F27D
S31502000250000040F20001C0F20000C0F2000120449A
S3150200026000F001F810BD0A460021FFF797BF40F2E1
S315020002700801C0F20001401A40F29001C2F20021C8
S315020002800860704783B080B581B0844603A80EC06B
S3150200029045F27850C0F20020006803AA6146009237
S315020002A000F028F801B0BDE8804003B0704770B591
S315020002B0054645F27850C0F200200468A07880070F
S315020002C014D56668287828B12146B047013500283A
S315020002D0F8D507E00A202146B047B0F1FF3FC4BF78
S315020002E0002070BDA07840F00400A0704FF0FF30EF
S315020002F070BDD4D42DE9F04F99B08146807818921A
S31502000300800740F1B58518980027D9F804808A46F7
S31502000310179011A8821D0C92421E053010920E9063
S315020003200D91514611F8010B252803D08A4638B99A
S3150200033000F0A0BD9AF801500AF1020A252D06D155
S315020003404946C04701370028EBD500F08BBD002295
S3150200035000244FF0000C4FF0000B04E01AF8015B8A
S31502000360002D00F02D811FFA8BF61F2E20D8A5F145
S31502000370200010281ED8DFE810F015001D001D0011
S3150200038018001D001D001D0014001D001D001D008B
S3150200039011001D00CC001D001D00C9004BF0020B10
S315020003A000E0DBE74BF0040BD8E74BF0100BD5E788
S315020003B07F2E0DD8A5F13000092840D8402E80F0B6
S315020003C0A0800CEB8C014BF0200B00EB410CC5E737
S315020003D0A5F14C002E2800F2F480DFE810F08F0021
S315020003E0F200F200F200F200F200F200F200F20075
S315020003F0F200F200F200F200F200F200F200F20065
S31502000400F200F200F200F200F200F200F200F20054
S31502000410F200F200F200A400F2008F00F2009D004A
S31502000420F200F200F200F200F200F200F2002F00F7
S31502000430F200F200F200F200F2002F008EE7A5F1C0
S315020004402400562800F2BD80DFE810F08600BB00CB
S31502000450BB00BB00BB00BB007400BB00BB00BB0003
S31502000460A400BB00BB00BB00BB00BB00BB00BB00C3
S31502000470BB00BB00BB00BB00BB00BB00BB00BB009C
S31502000480BB00BB00BB00BB00BB00BB00BB00BB008C
S31502000490BB00BB00BB00BB00BB00BB005800BB00DF
S315020004A0BB00BB00BB00BB00BB00BB00BB00BB006C
S315020004B0BB00BB00BB00BB00BB00BB00BB00BB005C
S315020004C0BB00BB00BB00BB00BB00BB00BB00BB004C
S315020004D0BB00BB006D00BB005800BB006600BB0042
S315020004E0BB00BB00BB00BB00BB00BB005700BB0090
S315020004F0BB00BB00BB00BB0057002FE74BF4207BC1
S315020005002CE704EB840100EB410427E74BF0010BD7
S3150200051024E74BF0080B21E70BF080004BEA800042
S3150200052040F0800B1AE70BF480704BEA400040F46F
S31502000530807B13E7002A7FF411AF17983F2E00F154
S3150200054004011791006832D8B0F1FF3F32DD4BF05B
S31502000550200B0022844601E712B31898402E17900A
S3150200056017A90D986546CDF83C90C14690465CEABF
S31502000570348200F083FC1798402E4246C84600F1AA
S31502000580040117910068DDF83C9050EA358C54EA74
S315020005903084E3E63F2E00F26D844BF0400BDDE63D
S315020005A0624600244FF0000C4FF0000BD6E6002204
S315020005B00446D3E64BF0280BC0F1000C0022CDE630
S315020005C00025CDF83CC03AB1189817A917900D9896
S315020005D000F054FCDDF83CC0002C24EAE47E45F031
S315020005E0200048BF2BF0400B61281CBFA0F165011B
S315020005F0022925D81799612801F1070121F007017F
S3150200060001F108021792A0EB050291ED000B0A9286
S3150200061044D15FEA4B6058BF4FF0FF3E11A8D2B2F9
S315020006207146764600F0C8FD451C4BF4C05B4FF0A0
S31502000630700C4FF0010EE8B28642D8BF461E5CE04F
S31502000640A5F16301122900F20A8108230026DFE8D8
S3150200065011F0350113000601060106010601130019
S315020006600601060106010601060161015D01060198
S3150200067006010D0106012E011FFA8BF15FEA0B60DE
S3150200068000F10C811798021D17920068CA0540F105
S315020006900C81890554BF00B240B206E15FEA4B61A4
S315020006A058BF4FF0060E662809D065280FD14BF4C5
S315020006B0805B76460EF101010023652411E04BF4BE
S315020006C0005B012266241121764673460AE05FEA40
S315020006D00E61A0F10204714676464FF0000308BF90
S315020006E00121002211A8C9B2112928BF112101F046
S315020006F0B6F805464FF0020EA446119B9DF8480037
S31502000700A3F10A0111F1130F38BF4FF0020EA3F144
S315020007106401089111F1C70F38BF4FF0030E0F9C09
S31502000720C1074FD15FEA8B716FD41FFA8BF120227A
S3150200073002EAC10211F0040F5FEA1F9110F00C0FDA
S3150200074045D11BF4405F0493CDE9062140F02B828C
S31502000750012E4FF0010056EA80801FFA8BF12A061D
S3150200076000F06D810E9BEAB2134413F8013C302B64
S3150200077040F006826B1E1A0621D02E460E9DDAB274
S31502000780154415F8015C302D40F0F981B31E1A06A6
S3150200079015D00E9DDAB2154415F8015C302D40F0E5
S315020007A0EE81F31E1A060AD00E9DDAB2154415F82A
S315020007B0015C302D40F0E381351F2A06D2D1002597
S315020007C00022DDE12D22002110F00C0FB9D0002904
S315020007D04FF0030050EA1090844212DD0A9E0D4645
S315020007E05FEA0B7117D4041B934620204946C04783
S315020007F0002800F1378301370134F6D300245A4624
S315020008000AE000240A9E49B10FE02B22002110F0D3
S315020008100C0FDCD195E7241A294631B91046494610
S31502000820C047002800F11E8301379DF8480045F2B3
S315020008305511C0F20021000744F66A60C0F200209A
S3150200084050EA51852878002800F0F982801B494633
S31502000850C0B2C047013701350028F3D502E3782834
S3150200086040F09880C5F188032E4653E01798011D83
S315020008701791006845F2FC11C0F20021002851EAE6
S3150200088000855FEA4B6058BF4FF0FF3E284671462F
S3150200089000F06AFEDDF83CC0064617E017988905A7
S315020008A000F18680011D17910068C11788E04FF696
S315020008B0EF700BEA000B0A2375262BE01798012628
S315020008C011AD011D179100688DF844005FEA0B70A7
S315020008D00ED4B4450CD9202049466446C0470028A8
S315020008E000F1C082A4F1010C0137B445F3D8B44635
S315020008F03744ACEB0604002E00F0A18215F8010B7A
S315020009004946C047013E0028F5D5ABE24BF0100B35
S31502000910102378264FF6F9700BEA00025FEA0B60A5
S315020009200B960AD41798011D17910668D1050AD5A8
S31502000930900554BFB6B2F6B205E0179891050AD4EF
S31502000940011D17910668002156EA010008BF2BF027
S31502000950160278D10FE00730154620F0070002464E
S31502000960416852F8086B17922A4656EA010008BFF8
S315020009702BF0160267D100265FEA4B6062D5002192
S31502000980012C60DA4FF6E9700BEA00010B9D48066E
S3150200099037D467E025204946C047002800F1628225
S315020009A028464946C047023700287FF5BAAC59E2C5
S315020009B0073020F007010A46496852F8080B1792D9
S315020009C000295A46CDF82CE048BF42F4806250EA2C
S315020009D0010322D080EAE17081EAE173B0EBE170B3
S315020009E063EBE17111AC22F010060A23224600F0F5
S315020009F06DFB3146061BDDF83CC0DDF82CE04806EF
S31502000A0030D54FF6FE70764500EA01002BDA002D4E
S31502000A1008BF21F01100714626E05FEA4B604FF0F5
S31502000A20000040F19E810021012CDBDA4FF6EE70C8
S31502000A30DDF83CC000EA0B00DDF82CE014E00025EE
S31502000A4000229EE0002111AC30461646754622462B
S31502000A5000F03CFB3146AE46DDF83CC0061B0B9D62
S31502000A604806CED4084631461FFA80FBC0060AD491
S31502000A7040F206401BEA000F5FEA0F9044185FEA55
S31502000A800B7009D526E0002D4FF0010050EA0090C8
S31502000A9044185FEA0B701DD45FEACB7008D0B646E5
S31502000AA0644505DA06EB0C00A0EB040E644611E081
S31502000AB064450FDACDF82CE020204946C0470028CD
S31502000AC000F1D0810F9801340137A042F4D1DDF84C
S31502000AD02CE004465FEACB601BD440F206401BEAD8
S31502000AE0000F26D05FEA8B7075464FF02B0058BF79
S31502000AF020205FEA4B51494648BF2D20C0470028B7
S31502000B0000F1B0810137AE46F3467546B64514DCB0
S31502000B101CE030204946F346C047002800F1A28176
S31502000B2035B328464946C047002800F19B81023763
S31502000B30DE46F3467546B64508DD30204946C047CF
S31502000B40002800F18F81013DB542F6DC0F985E4523
S31502000B50A0EB040456EACB800744002E00F06F8116
S31502000B6010984946805DC047013E0028F5D579E1D7
S31502000B700137DE46F3467546B645DEDCE6E71D4638
S31502000B80049BC90652EA508113F1040F08DB834223
S31502000B9006DA4BF4005B8B4204DAD8430E1802E005
S31502000BA04E1E00E00026A3F57A711FFA8BF4099413
S31502000BB024055FEA8B400395CDE9011C05940CD40C
S31502000BC011F5FA6F70464FF0050198BF0420002C0C
S31502000BD058BF032101EB000C03E023EAE37000F1A6
S31502000BE0010CDDF824B0002E079A4FF000050B9693
S31502000BF0CBF3001182F0010251EA06900F99831895
S31502000C006344CB1A53EAC5841BF0090F11D10A9E1D
S31502000C1084B1604475461044441A20204946C047B0
S31502000C20002800F11F8101370134F6D30024AE46B5
S31502000C3000E00A9E0798CDF800E00028069805D144
S31502000C404946C047002800F10D8101370598002862
S31502000C500ED530204946C047002800F10381C6F16F
S31502000C6078004946C0B2C047002800F1FB8002372F
S31502000C70099800070AD44CB1274430204946C04798
S31502000C80002800F1EF80013CF7D100240998800486
S31502000C9027D49DF849004946C047002800F1E28062
S31502000CA00B98012857DB2E204946C047002800F141
S31502000CB0D9800B98384400F1020B0398C5B2002084
S31502000CC0471CAF4202D20C99085C00E0302049462C
S31502000CD0C047002800F1C6800B98B8423846EFD1CB
S31502000CE048E0049820EAE076851B0B98C0F1000BD9
S31502000CF00398C0B20F90701C06D12E204946C047F9
S31502000D00002800F1AF8001373020002D04D40F995E
S31502000D108D42BCBF0E98405D49465E4506DDC04722
S31502000D2001350137013E0028E5D59BE0C047002882
S31502000D3000F198800999781CC90640F19180002E2D
S31502000D4040F08C802E204946C047B0F1FF3F40F369
S31502000D508980023773E00998C00604D407F1010BB3
S31502000D6008E000213EE62E204946C047002879D4F5
S31502000D7007F1020B02984946801BC0B2C047002801
S31502000D8070D4049E2B204946002E48BF2D20C04712
S31502000D90002E48BF7642002864D4019810F5FA6FF7
S31502000DA015D844F6D3504946C1F26200A6FB0005A7
S31502000DB0302000EB9510C0B2C047002852D4A809D3
S31502000DC04FF47A7100FB11620BF1030506E00898F5
S31502000DD00BF10205324610F1C80F3BD848F21F50FC
S31502000DE04946C5F2EB101746A2FB0006302000EB7F
S31502000DF05610C0B2C047002834D47009642100FBE3
S31502000E00117201354CF6CD404946CCF6CC40174618
S31502000E10A2FB0006302000EBD600C0B2C047002875
S31502000E2020D4F008013500EB8000A7EB400202F166
S31502000E3030004946C0B2C047002813D46F1C012CAB
S31502000E40FFF66FAA20204946C0470137013C002819
S31502000E50F5D507E000980228D4D2E8E70746EEE780
S31502000E600746ECE799F8020040F0040089F8020010
S31502000E704FF0FF37384619B0BDE8F08F022AB8BFE7
S31502000E8070472DE9F04F42F689084FF0010CC0F287
S31502000E90010804464FF0010E03E05F789C1C252FE3
S31502000EA029D1234613F8015B252D01D025B90AE184
S31502000EB06778A31C252F1DD11C4614F8015B252D2E
S31502000EC001D025B9FFE05F789C1C252F13D123465C
S31502000ED013F8015B252D01D025B9F4E06778A31C30
S31502000EE0252F07D11C4614F8015B252DD5D0002DE0
S31502000EF0D7D1E8E01C464FF0000A4FF00009002661
S31502000F0004E014F8017B002F00F0A980B346BAF181
S31502000F101F0F0AD8A7F12005102D09D80CFA05F5DE
S31502000F2015EA080F40F07C8002E0BAF17F0F0AD87A
S31502000F30A7F13005092D3ED80BEB8B034AF0200AA8
S31502000F4005EB4306DDE7A7F14C052E2D00F288805E
S31502000F505E46DFE815F0670085008500850085009E
S31502000F608500850085008500850085008500850051
S31502000F708500850085008500850085008500850041
S31502000F80850085008500850085008500850077003F
S31502000F908500670085007000850085008500850054
S31502000FA08500850085002F00850085008500850067
S31502000FB085002F00A5E7A7F12405562D00F25080E3
S31502000FC00026DFE805F0334D4D4D4D4D324D4D4D6A
S31502000FD0324D4D4D4D4D4D4D4D4D4D4D4D4D4D4D54
S31502000FE04D4D4D4D4D4D4D4D4D4D4D4D4D4D2F4D47
S31502000FF04D4D4D4D4D4D4D4D4D4D4D4D4D4D4D4D19
S315020010004D4D4D4D4D4D4D4D4D4D3F4D2F4D384D49
S315020010104D4D4D4D4D4D2C4D4D4D4D4D2C00FFE73B
S315020010205E466EE74AF4207AFAE76AE7B9F1000FFC
S315020010300FD1D94665E70AF080034AEA830343F0F3
S31502001040800AEDE70AF480734AEA430343F4807A9E
S31502001050E6E7F3457FF455AF6327F14600E0002744
S31502001060B9F1000F2FD0F14524D147F02003612BAF
S315020010701CBF653B022B05D80B68073323F0070319
S31502001080083313E0A7F16303102B0AD8DFE803F055
S315020010900C090909090909090909090909090909B5
S315020010A00C005FEA0A6309D40B6804330EF1010EE1
S315020010B004460B609645FFF6F4AE04E00B685FEA61
S315020010C08A54DAD4F1E7BDE8F04F70472DE9F047CC
S315020010D003F01F06984691468A460546284651461B
S315020010E03246002300F06EFA044600FB16500F4605
S315020010F0A0EB0801092888BF01F13700303089F8D2
S315020011000000A81B7AF1000049D320463946324630
S31502001110002300F057FA054600FB16408A46A0EB6C
S315020011200801092888BF01F13700303089F801002B
S31502001130A01B77F1000036D32846514632460023DB
S3150200114000F040FA044600FB16500F46A0EB0801D9
S31502001150092888BF01F13700303089F80200A81B40
S315020011607AF1000023D3204639463246002300F0A6
S3150200117029FA054600FB16408A46A0EB0801092813
S3150200118088BF01F13700303089F8030009F10409FC
S31502001190A01B77F10000A1D24846BDE8F08709F10D
S315020011A00100BDE8F08709F10200BDE8F08709F108
S315020011B003094846BDE8F0872DE9F04F85B05AECA1
S315020011C0103B4FEADA77CAF30A566FF31F5A0771D2
S315020011D053EA0A0408BF002E0ED040F2FF75AE4253
S315020011E03CD10421002C18BF082139440171002189
S315020011F0084605B0BDE8F08F002700234FF0000A2D
S315020012000029076037D40D2937D3190F00F1050BD2
S3150200121041EA0A110491190E4FEA1A5441EA0A21C7
S315020012200391190D4FEA1A4641EA0A310291190C45
S315020012304FEA1A3841EA0A410191190B41EA0A5C5E
S31502001240190A41EA0A6E190941EA0A794FEA1A119C
S3150200125003F00F034FEA1A27009180E04FF6024788
S31502001260002ECFF6FF771CBFA6F2FF370AF5801ACB
S3150200127000290760C7D5002146E03326A6EB810583
S31502001280C5F1200613274FF0020CA7EB81072CFAB3
S3150200129006F401264FF0000E002F58BF0CFA07F491
S315020012A058BF06FA07FE06FA05F60CFA05F558BF08
S315020012B0002658BF0025D5F100094FF0000868EB5B
S315020012C0040C013D64F100041D4004EA0A04751B86
S315020012D07EEB040411D38C00C4F13405D4F114045A
S315020012E023FA05F7C5F120050AFA05F545EA0705C9
S315020012F058BF2AFA04F5EC0702D09B194AEB0E0AEC
S3150200130003EA09030AEA0C0A1F0947EA0A791F0FC8
S315020013101D0B47EA0A1704971F0E45EA0A5C47EABD
S315020013200A2703971F0D1D0A47EA0A3702971F0C61
S3150200133045EA0A6E47EA0A4700F1050B13F00F0366
S3150200134001974FEA1A174FEA1A544FEA1A464FEA1A
S315020013501A384FEA1A25009700F0B4802F46991AD8
S31502001360092B88BF01F1270303F13001817409F0CB
S315020013700F030D219D1A092B88BF05F127030C299E
S3150200138003F13003437498BF0C210EF00F039D1A2C
S31502001390092B88BF05F127030B2903F130030374D8
S315020013A098BF0B210CF00F039D1A092B88BF05F17C
S315020013B027030A2903F13003C37398BF0A21019B4D
S315020013C03D4603F00F039F1A092B88BF07F1270337
S315020013D0092903F13003837398BF0921029B03F0A5
S315020013E00F039F1A092B88BF07F12703082903F168
S315020013F03003437398BF0821039B03F00F039F1A20
S31502001400092B88BF07F12703072903F1300303736A
S3150200141098BF0721049B03F00F039F1A092B88BF6D
S3150200142007F12703062903F13003C37298BF062189
S315020014300AF00F039F1A092B88BF07F12703052914
S3150200144003F13003837298BF0521009B03F00F035B
S315020014509F1A092B88BF07F12703042903F13003DA
S31502001460437298BF042105F00F039F1A092B88BF08
S3150200147007F12703032903F13003037298BF0321FF
S3150200148008F00F039F1A092B88BF07F127030229C9
S3150200149003F13003C37106F00F0398BF02219A1AB3
S315020014A0092B88BF02F1270303F130028271012959
S315020014B098BF012104F130008BF80000084605B000
S315020014C0BDE8F08F19F00F0348D10C2946D21EF061
S315020014D00F0345D10B2943D21CF00F0342D10A292F
S315020014E040D2019B13F00F037FF46DAF0929BFF4BD
S315020014F06AAF029B13F00F037FF473AF0829BFF4A0
S3150200150070AF039B13F00F037FF479AF0729BFF483
S3150200151076AF049B13F00F037FF47FAF0629BFF467
S315020015207CAF1AF00F037FF485AF0529BFF482AFB3
S3150200153017F00F038CD104298AD215F00F0394D128
S31502001540032992D218F00F039CD102299AD206F0EF
S315020015500F0353EA0107A2D10021ABE72F4609E7A1
S315020015602F4614E72F461FE7844639B370B500EBC2
S31502001570010C4B1EA1F1020ECC1E0022855C85B128
S31502001580934219D085186E7876B1964514D0AE7806
S315020015906EB1944210D0EE7866B104329142EDD12A
S315020015A00AE000EB020C07E005F1010C04E005F18C
S315020015B0020C01E005F1030CBDE87040ACEB000043
S315020015C07047D4D440B584B002AE009600F004F859
S315020015D0029A039B04B040BD2DE9F04F099D844653
S315020015E081B1C2B14BB3B1FA81F7B3FA83F6F71BF5
S315020015F0202F4FD3002D18BFC5E900C100200021BE
S31502001600BDE8F08FCBB30021002D64D00020C5E9E0
S3150200161000C1BDE8F08F002B60D0002861D05F1EAC
S315020016203B4200F08580B1FA81F7B3FA83F6F71BE5
S315020016301F2FDFD207F1010C3CE0571E3A425DD064
S31502001640B1FA81F7B2FA82F6F71B07F1210CBCF167
S31502001650200F24D0BCF11F0F79D8CCF1200620FA36
S315020016600CF721FA0CF901FA06F5B0403D434FF0AA
S31502001670000ABCF1010F2CD07CE0B0FBF2FC002D7D
S315020016801EBF0CFB12000021C5E9000100216046C5
S31502001690BDE8F08F07F1010CBCF1200F0AD14FF023
S315020016A000094FF0200C0D464FF0000ABCF1010F65
S315020016B00FD05FE0C7F11F0720FA0CF621FA0CF9EA
S315020016C001FA07F5B84035434FF0000ABCF1010FA5
S315020016D050D100248FE00020BDE8F08F6046BDE8BF
S315020016E0F08FB1FBF3FC002D1EBF0CFB1310002183
S315020016F0C5E9001000216046BDE8F08F002D1EBF2F
S3150200170000230740C5E90073012A0ED092FAA2F21D
S315020017104F00B2FA82F202F01F03D140D8401F23D3
S31502001720934307FA03F343EA000C6046BDE8F08FE1
S31502001730002D1CBF07EA0100C5E900C093FAA3F019
S31502001740B0FA80F021FA00F00021BDE8F08FACF18A
S315020017502007CCF140044FF0000920FA07F601FAFF
S3150200176004F52E4300FA04FA21FA07F53046BCF1D5
S31502001770010FAED02CF001070126023F4FF0000BFD
S3150200178006EB570E4FEA490444EAD5746D0045EA62
S31502001790D0754000E743E943891843EB0708AF1ABF
S315020017A064EB0306B8F1000F56EA448457EA45850E
S315020017B0640044EAD5746D0045EAD07540EADA70F1
S315020017C0AE1A6FEA050164EB030789184FEA400077
S315020017D06FEA0401594157EA448956EA4585CC0F16
S315020017E04BEA4A010027A34640EAD170490041EA82
S315020017F0D87A0FF039C85FEACC711ED06F004FEA73
S31502001800490147EAD07741EAD571B7EB020C4FEAB4
S31502001810400061EB030EFD4352196FEA010653EBDA
S31502001820060240EADA705EEA41895CEA4785D10F30
S3150200183044EA4A0200270C4692464FEADA7141EA26
S31502001840400009994FEA4A02002918BFC1E9005926
S3150200185040EA070122F001002043BDE8F08F2DE99E
S31502001860F04FA1B056EC108BB246C6F30A546FF392
S315020018701F5AF50F58EA0A0708BF002C0ED040F28D
S31502001880FF76B44215D10821002F08BF0421002497
S3150200189029440171204621B0BDE8F08FA91C0171CF
S315020018A030210124417100210160204621B0BDE8AA
S315020018B0F08FA4F23549002CCDE9062308F0010683
S315020018C00495CDE9081006BF4FF6CC39CFF6FF795D
S315020018D00AF5801A4FEA8A0242EA9870002F15909A
S315020018E05FEA0F90022C5FEA2F91B9F1000F40EAEE
S315020018F001074FEA880014900596139749D4484683
S3150200190000F021FD0546B9F1030F88BF013D2846C7
S3150200191000F027FD0DF1580B04462846594600F003
S315020019200BFE1AA81CA95A460297CDE90010A5EB90
S3150200193009002044514600F17C034046AB4600F0C4
S3150200194031FC8246152D5FD8149F4CF6CD46159D67
S315020019501EA8CCF6CC460C4600903846294632469E
S315020019604FF0CC3300F072FEDDE91E01820842EA36
S31502001970817120F0030008444042F8426AD1384699
S31502001980294600F0F7FC58455FEA3F901290002086
S3150200199087E0C9F1000B584600F0DCFC044619F159
S315020019A0010018BF013CABEB040B584600F0D9FC12
S315020019B016A9054658468B4600F03BFD1AA81CA9F7
S315020019C05A460297CDE90010601B00F17D0340469E
S315020019D0514600F0E7FB04EB090B8246012C1BD8AB
S315020019E0089B002E069D4CF6CD46CCF6CC4608D07A
S315020019F0DDE91C0201381C9062F100001D900020F6
S31502001A0013900120129050E04CF6CD460020CDE90D
S31502001A101200CCF6CC4646E0089B4CF6CD46069D17
S31502001A20CCF6CC463E2C25D84FF0FF30B4F120023E
S31502001A3000FA04F758BF0027149C58BF9040159A25
S31502001A4024EA070722EA000038435FEA1F90129051
S31502001A50002011E0059888B91398C043C01965F1B2
S31502001A60000100F087FC58455FEA3F901390002082
S31502001A70129017E000201290139016E047F0020031
S31502001A80294600F077FCDDE91C124B1E62F10005C7
S31502001A90584553EA21801C9055EA22801D90002069
S31502001AA0129013902146089B069D002D0C934AD056
S31502001AB0BAF10A0071F1000001D2012037E00027D5
S31502001AC04FF00A0C02204FF064094FF47A7842F282
S31502001AD0107E0A22A2FB0C4507EB870305EB4303A4
S31502001AE0BAEB040471EB030320D3A2FB093407FB10
S31502001AF00944BAEB030371EB040314D3A2FB0834C3
S31502001B0007FB0844BAEB030371EB04030DD3A2FBF4
S31502001B100E23043007FB0E37BAEB020371EB070301
S31502001B20D8D2013802E0013000E00230089B079A61
S31502001B300BEB02073844B0EBD27FB8BFD00F83421B
S31502001B4053EAB0800C90CDF80CB00DF1680B1D9CD9
S31502001B5016AD9BE8000B00201591149011900B9086
S31502001B602FE01599504632464FF0CC3316AD4FEA68
S31502001B70DB04009500F06AFD1498BB46129910F03A
S31502001B80FF0FDDE916235FEA1F90014008EB88008C
S31502001B901291404210994942B1EB400F13995FEA04
S31502001BA01F9001401391D00840EA437101EB800077
S31502001BB0AAEB4000149011988A4601301190D80879
S31502001BC015905846214632464FF0CC330095CDF853
S31502001BD034B00E9400F03AFD4046494632464FF084
S31502001BE0CC33DDE9164B0095CDE90F9800F02EFDBA
S31502001BF0DDE91601E20842EA4B774FEAD109C0084D
S31502001C0040EA4178B8EB070079EBDB00A9D31599D6
S31502001C10BAF10A0071F1000001D201203BE00A97F5
S31502001C2000250A2202204FF00A0C64274FF47A7E1E
S31502001C30A2FB0C3605EB850406EB4406BAEB03035E
S31502001C4071EB060322D3A2FB073605FB0766BAEB46
S31502001C50030371EB060316D3A2FB0E3605FB0E66D3
S31502001C60BAEB030371EB06030FD342F2107404308E
S31502001C70A2FB042305FB0435BAEB020371EB050351
S31502001C80D6D2013802E0013000E002300A9F4CF65B
S31502001C90CD46CCF6CC460C9A4AEA010313435FEAD8
S31502001CA01F93904203DD13B901200B905AE7139854
S31502001CB0C00771D0DDF8408032460F994FF0CC3321
S31502001CC016AD0095404600F0C1FCDDE91610C8F1DC
S31502001CD00003DDF848B0CA0842EA407404EB820207
S31502001CE05242B3EB420F5FD1C208DDF84490DDF8F1
S31502001CF050C0DDE90D01904632464FF0CC33CDF8A7
S31502001D0050C0009500F0A2FC1599324616984FF085
S31502001D10CC3312905046179F009500F097FC4CF674
S31502001D20CD4216A8009020464146CCF6CC424FF052
S31502001D30CC33DDE91665CDF83C8000F087FCF1086E
S31502001D4041EA457E14980EEB8101A046ED0810F09B
S31502001D50FF0FAAEB410C5FEA1F90DDE916120BEAB0
S31502001D60000B12984CF6CD461595CB0843EA427401
S31502001D70C00804EB830340EA47705B4209F101099C
S31502001D8016ADF908C8F10007CCF6CC46D208F246E1
S31502001D90B7EB430FAFD00CE00DF1400BD646DDF8A2
S31502001DA050C09BE8000B04E0D646DDF84490DDF80F
S31502001DB050C0159A8EEA08010F9813464240114305
S31502001DC00B9A5FEA0F911143CA07059900295FEA48
S31502001DD01F91002A04BF139A11EA02010ED05FFA7C
S31502001DE08CF105295FEA0F92042962EA0B025FEA87
S31502001DF09F9142EA0E0202EA010C01E04FF0010C49
S31502001E00039809EB00051EEB0C0043F10001B0F14B
S31502001E100A0271F1000201D2012338E0AE46002621
S31502001E204FF00A0802234FF0640B4FF47A7A42F21B
S31502001E3010790A25A5FB087206EB860402EB44021A
S31502001E40C41B71EB02021DD3A5FB0B2406FB0B443C
S31502001E50821A71EB040212D3A5FB0A2406FB0A447A
S31502001E60821A71EB04020CD3A5FB0952043306FB5A
S31502001E700926421B71EB0602DCD2013B02E001336A
S31502001E8000E002334CF6CD467546CCF6CC460C9AAB
S31502001E9093425FEADC82012A079A3AD1069F4FB142
S31502001EA02A441A44012AD8BF0122089F974257EAB8
S31502001EB0B2820C920C9A93422BDD05304CF6CD473A
S31502001EC041F10001CCF6CC474008013B40EAC17023
S31502001ED0013510EB51024FEA510142F10002A2FB19
S31502001EE0077626F0030707EB96074FF0CC36D21B90
S31502001EF0821A4CF6CD40CCF6CC4061F10001A2FB31
S31502001F00000702FB06724CF6CD46CCF6CC4601FB28
S31502001F1006210C9A934253EAB2822BB214B223449C
S31502001F20A3F10108012CC0F2348102F00303099ADD
S31502001F30CDF84880042C02F105091193149402D2BB
S31502001F404FF0000AA9E0E31A2244149C02F10408A5
S31502001F504FF0000A13936422002383460F46FFF7CD
S31502001F6031FB420800F0010042EAC17212EB510154
S31502001F7041F10001A1FB062323F0030202EB9302C7
S31502001F800023891A4FF47A7240EA4100394640F03A
S31502001F90300015905846FFF715FB42084CF6CD4621
S31502001FA042EAC172CCF6CC4612EB510100F00100B6
S31502001FB041F100024FEA5B0141EAC77111EB570397
S31502001FC043F10003A3FB066525F0030606EB95061F
S31502001FD09B1B6FF00206CB1A4CF6CD41CCF6CC41D8
S31502001FE0A3FB011C01EB8105ABEB450545F0300572
S31502001FF008F804598AEA0605159E254409F805607B
S315020020004CF6CD46CCF6CC46A2FB065626F0030588
S3150200201005EB9606A2EB06024CF6CD46CCF6CC466E
S3150200202040EA42006FF0030282EA0A0240F0300000
S31502002030224409F802004FF0CC304FEA570203FB64
S3150200204000C062F1000202FB06004A0801F001012B
S3150200205042EAC07212EB500040F10000A0FB0623D8
S3150200206023F0030202EB93020023801A42F210725B
S3150200207041EA40006FF0010181EA0A0140F03000B6
S31502002080214409F8010058463946FFF79BFA0AF13E
S31502002090040A139A52457FF45EAFDDF844E0DDF898
S315020020A04880149CBEF1000F73D042084CF6CD470F
S315020020B042EAC172CCF6CC4712EB51036FEA0A052B
S315020020C043F100032544A3FB077626F0030707EB3B
S315020020D096074E08DB1BD31A4CF6CD42CCF6CC4201
S315020020E066F1000CA3FB0227BEF1010F02EB82068A
S315020020F0A0EB460646F0300609F8056049D04FF0D7
S31502002100CC364CF6CD4503FB06734CF6CD47CCF6E2
S31502002110CC47CCF6CC450CFB0733570802F001023C
S3150200212047EAC37717EB53034CF6CD4743F1000357
S31502002130CCF6CC47BEF1020FA3FB077626F00307C7
S3150200214007EB9607A3EB070342EA4302A4EB0A0353
S3150200215003EB090642F0300206F8022C19D064227B
S315020021600023FFF72FFA420800F0010042EAC1728B
S3150200217012EB510141F10001A1FB052323F00302F9
S3150200218002EB9302891A40EA410040F0300006F859
S31502002190030C099804990171C0F80080204621B009
S315020021A0BDE8F08F2DE9F04F8BB0490041EAD074BB
S315020021B005931646D2E9002345002846214608AF74
S315020021C0009700F043FAD6E90223834606A8894619
S315020021D0009028462146DDE9087A00F037FA10EB2E
S315020021E00708DDE906234AEB010ADDE90801571C67
S315020021F0059C43F10005B8EB00007AEB0100A4F15F
S31502002200410455EA338357EA328296E8830017EB94
S315020022100807F568049445EB0A0510EB0B0059EB29
S315020022200100009457F10000CDE9062345F10001B3
S31502002230571C43F10005B0EB080471EB0A04CDF814
S315020022400CB055EA338357EA3282CDF8089000F093
S315020022501BFADDE91429169BC2E9000143B3D6E94C
S3150200226000C1D6E902560398B8EB0505DDE9062357
S315020022706AEB06066C1E66F10007B0EB0C000298CC
S31502002280DDF810B08841CDF800B054EA358057EA3F
S315020022903681571E63F10006B8EB00057AEB01059D
S315020022A057EA328256EA338300F0EEF95F463EE0A1
S315020022B0DDE906204FEA4804D6E900EC01900598CC
S315020022C0D6E90276A0F14005029800954FEA4A0542
S315020022D0039945EAD87544EAD0744300E71B65EBD7
S315020022E00606B7F1010B43EAD17366F10000DEEB95
S315020022F0410173EB0C0150EA36815BEA3780B4EB9D
S315020023000803019F75EB0A035FEA2F937F0043EAF6
S31502002310420347EAD2775A1E67F10006241A8D4114
S3150200232052EA338256EA378300F0AEF9049FDDE9BA
S315020023300623C9E9000140465146009700F0A4F978
S315020023400BB0BDE8F08F43F24141C0F201014843B0
S31502002350800C704742F6FB61C0F20B014843000D48
S31502002360704749F24F31C0F212014843012101EB95
S31502002370D04070472DE9F04F4CF6CD4E45F6294434
S3150200238042F6F50A47F6D50847F6916943F2343B19
S3150200239002460020CCF6CC4E4FF03333CCF28F24DB
S315020023A0C8F65C7AC2F2E968C3F6FB29C3F2333B8C
S315020023B0A2FB0E5C4FF0CC3702FB07C7D5F13335D3
S315020023C001FB0E7773EB07072ED3A2FB047502FB04
S315020023D00A55D7F1333701FB045573EB050722D3B0
S315020023E0A2FB087540F63106C1F6AC4602FB06555D
S315020023F0D7F1333701FB085573EB050716D3A2FB5A
S3150200240009754CF67066CDF28826043002FB065238
S3150200241001FB0921B7EB0B0271F133323A46C7D3FE
S315020024200138BDE8F08F0130BDE8F08F0230BDE81B
S31502002430F08F2DE9F04F87B005464EF64F40C4F6B1
S31502002440C4608B46A5FB0001C8081A2100FB01F6F1
S3150200245045F23821C0F2002101EB0010B54209D144
S3150200246090E80E00C0688BE80E00CBF80C0007B0AF
S31502002470BDE8F08FD0E9009245F20831C0F20021A2
S315020024800192D0E90223A81B51F8307001EBC0007B
S31502002490446804A800903846214600F0D7F8019B0C
S315020024A0824602A888460090384621464A4600F0EF
S315020024B0CDF881460191DDE90201002210EB0A07FF
S315020024C058EB010842F10000012806D1DDE90401BA
S315020024D00130049041F1000005902846FFF741FFC4
S315020024E004463046FFF73DFF0199241A48463A460C
S315020024F04346009400F0C8F86FF0030245F2D83361
S3150200250002EA9502C0F200239A581E2303EA450303
S31502002510DA4002F003068019DDE9042341F10001E5
S31502002520CBE9000138464146009400F0ADF8CBE90C
S31502002530020107B0BDE8F08F2DE9F04F87B08B4658
S315020025404EF64F4105461930C4F6C461A0FB01019F
S31502002550C8081A2100FB01F645F23041C0F20021FB
S3150200256001EB0010AE4209D190E80E00C0688BE87C
S315020025700E00CBF80C0007B0BDE8F08FD0E900A240
S3150200258045F20831C0F200210192D0E90223701B04
S3150200259051F8307001EBC000446804A80090384638
S315020025A0214600F053F8804602A80090BAF10102D3
S315020025B001988946214660F10003384600F046F844
S315020025C004468A46DDE90201002210EB080751EBB8
S315020025D0090842F10000012806D1DDE904010130B3
S315020025E0049041F1000005903046FFF7BAFE064618
S315020025F02846FFF7B6FE361A204651463A46434665
S31502002600009600F041F86FF0030245F2205302EA09
S315020026109502C0F200239A581E2303EA4503DA40C4
S3150200262002F003054019DDE9042341F100010130FE
S3150200263041F10001CBE9000138464146009600F01F
S3150200264023F8CBE9020107B0BDE8F08FF0B5A2FB93
S3150200265001CEA2FB0075A3FB011415EB0C05DDF8F8
S3150200266014C051EB0E06294644F100043246E3FB40
S315020026700012A3FB0003401956EB030044F10000CD
S31502002680CCE900203846F0BD10B5DDF808C0CCF123
S31502002690400ECEF1200420FA0CF003FA0EF322FAD1
S315020026A004F42343DCF1200458BF02FA04F302FACD
S315020026B00EF201FA04F440EA040058BF0022BCF10B
S315020026C0200458BF21FA04F021FA0CF158BF002168
S315020026D01043194310BDD4D4F0B581B040F2181698
S315020026E0EFF31184C2F20026002585F31288012039
S315020026F086F8680000F040F943F680404FF000414A
S31502002700CEF200009FED261A016044F2402184F3C6
S315020027101188C0F20F01706900EE100A88425FEA62
S315020027202F9186F86910B8EE400A96F8691080EE85
S31502002730012A81EE000A00299FED1A1A44F6D351A6
S3150200274002FE000AC1F26201B6EE002AA0FB0101F6
S31502002750A0EE012A8809BDEEC20A86ED180A706645
S31502002760EFF3118785F31288756000F01DF8BFF349
S315020027704F8FBFF36F8F00BFBFF34F8FBFF36F8FC4
S31502002780044600F011F871682144401A706087F31C
S315020027901188C6E91455C6E9165501B0F0BD00BF49
S315020027A00024744900008047B0B543F27C0240F22F
S315020027B01813CEF20002C2F20023EFF3118C0020AE
S315020027C080F31288106893F86810012943F6C04115
S315020027D0CEF2000108D10968B1F1FF3F10DD0021F8
S315020027E025E000BF00BF00BFEFF3108E72B60C6883
S315020027F0B4F1FF3F08DD002117E000BF00BF00BFB4
S315020028001068012113E000BF4FF0004041F8400C70
S315020028100021EFF3118081F31288D3E914450135C3
S31502002820C3E9144580F3118810688EF31088D3E942
S3150200283014258018D3E916246941821A71EB040221
S3150200284006DAD3E916018CF31188B0BD00BF00BFCA
S31502002850C3E916018CF31188B0BDD4D4D4D4D4D430
S3150200286010B54EF63050CEF200000068800647D50D
S3150200287043F68040CEF20000016CB1F1FF3F07DD66
S31502002880D0F88011C9B202291AD239E000BF00BFBE
S3150200289040F2181C4FF00041C2F2002C0160EFF327
S315020028A01181002282F31288DCE914320132CCE96A
S315020028B0143281F31188D0F88011C9B202291FD3CC
S315020028C0026892070AD540F2881C0222C2F2002C44
S315020028D00260DCE900320132CCE9003204290FD36E
S315020028E0026812070AD540F2881C0822C2F2002C9E
S315020028F00260DCE902320132CCE90232062903D255
S3150200290010BD00BF00BF00BF026892060AD540F2A2
S31502002910881C2022C2F2002C0260DCE90432013259
S31502002920CCE90432062908BF10BD08294FF0010C74
S315020029305CEA3C9E40F28811C2F200210623F6466A
S3150200294001F1180208E000BF01330832BEF1010EA0
S3150200295002D1D5E700BF00BF0CFA03F1046C0C42AA
S31502002960F2D00160D2E9001411F5803144F100047D
S31502002970C2E90014E8E7D4D443F60040CEF20000E0
S31502002980D0F80012490458BF704770B543F6046286
S31502002990EFF3108CCEF2000272B64FF000431168CC
S315020029A021F00101116003620366116841F004011E
S315020029B01160C0F88030116841F002011160D0F850
S315020029C00012C9B2022954D34FF600044FF6040589
S315020029D0CFF6FF74CFF6FF754FF0080E042940F8C4
S315020029E004E04FF01E0444514FF00305C0F8805036
S315020029F04FF00206066405603BD34FF60805132620
S31502002A00CFF6FF75062946514FF60C05CFF6FF7530
S31502002A1044514FF00C04C0F88040C0F840E0046016
S31502002A2027D34FF610060325CFF6FF7606298551E2
S31502002A304FF61406CFF6FF764FF01E0585514FF07E
S31502002A403006C0F880604FF020050564066010D09D
S31502002A5008294FF0010151EA319E062400BF00BF4A
S31502002A6001FA04F50134C0F88050056405600FF0E0
S31502002A7009C84EF6FC51CEF200010E6846F0807689
S31502002A8046F444160E60036403601068002140F0A9
S31502002A900100106041F20000CEF2000001608CF3EA
S31502002AA0108870BDD4D4D4D4017904291AD140F245
S31502002AB0181C8068C2F2002CDCE902314A1C803AFA
S31502002AC052EA0192CCF80C209A4240F29403C2F2E6
S31502002AD00023585418BF7047501C803850EA0290A1
S31502002AE0CCF808007047D4D440F28811C2F2002113
S31502002AF0CA6C1071C86C00BF816C8900FCD50020BD
S31502002B007047D4D4D4D4D4D42DE9F04182B040F263
S31502002B101817C2F20027D7E90250854205D100BF35
S31502002B2000BFD7E902508542FAD0A84210D940F236
S31502002B3094010138C2F20021F860495D8DF8071050
S31502002B409DF8070002B0BDE8F08100BF00BF00BFDC
S31502002B50401BC5F18004803040F29400C2F200208E
S31502002B600DF1070800EB0501404622465FEA0F9683
S31502002B70FDF79EFAA6420BD2A819B0F1800150EADF
S31502002B801180B8609DF8070002B0BDE8F08100BF71
S31502002B90361B40F2940108EB0400C2F200213246D1
S31502002BA0FDF786FA7019B8609DF8070002B0BDE815
S31502002BB0F081D4D4D4D4D4D4B0B544F64C7072B621
S31502002BC04EF62855C0F20020CEF20005FDF76FFB47
S31502002BD06868002808D4686840000BD545F2591089
S31502002BE0C0F2002004E000BF44F6AB60C0F2002051
S31502002BF0FDF75DFB45F20320EFF30884C0F20020E7
S31502002C00FDF755FB45F241002168C0F20020FDF7B1
S31502002C1039FB44F67B706168C0F20020FDF732FB97
S31502002C2044F66E60A168C0F20020FDF72BFB45F268
S31502002C30AF10E168C0F20020FDF724FB44F63760CE
S31502002C402169C0F20020FDF71DFB45F2F70061691C
S31502002C50C0F20020FDF716FB44F62240A169C0F23D
S31502002C600020FDF70FFB44F63040E169C0F2002078
S31502002C70FDF708FB44F67C60C0F20020FDF717FB67
S31502002C8044F645602968C0F20020FDF7FBFA45F2DA
S31502002C90D20055F8241CC0F20020FDF7F3FA45F2E3
S31502002CA07C006968C0F20020FDF7ECFA44F63E406B
S31502002CB0C0F20020FDF7FBFA44F60F60EFF3058140
S31502002CC0C0F20020FDF7DEFA2868800118D42868D1
S31502002CD0C0011ED42868C00224D42868000349D43F
S31502002CE0286840034FD42868800355D42868C00357
S31502002CF05BD42868C00561D400BEB0BD00BF00BF6A
S31502002D0044F68970C0F20020FDF7D1FA2868C001A6
S31502002D10E0D544F6F670C0F20020FDF7C8FA28683E
S31502002D20C002DAD544F62C70C0F20020FDF7BFFAD5
S31502002D3044F69E502146C0F20020FDF7A3FA45F262
S31502002D40E600EFF30A81C0F20020FDF79BFA45F296
S31502002D502620EFF30981C0F20020FDF793FA44F62C
S31502002D605960EFF30B81C0F20020FDF78BFA286859
S31502002D700003B5D544F6C960C0F20020FDF797FA04
S31502002D8028684003AFD544F6AF50C0F20020FDF7E5
S31502002D908EFA28688003A9D544F6E960C0F20020BD
S31502002DA0FDF785FA2868C003A3D545F28810C0F25C
S31502002DB00020FDF77CFA2868C0059DD544F6E85048
S31502002DC0C0F20020FDF773FA00BEB0BDD4D4D4D44D
S31502002DD086B040F294004EF2001A43F200044CF61A
S31502002DE0002B41F2FF1944F23F28C2F20020802153
S31502002DF0CEF2000AC4F22004C3F69A3BC0F27A0964
S31502002E00C0F20F08FDF72FFA40F2881540F21817A4
S31502002E10C2F200250021284648F6001245F29053D8
S31502002E20C2F2002700F8281FC4F23502C0F20023BE
S31502002E30C0E90832827842F6A926B960F960C0F282
S31502002E400026C0E90A61016302F0FC0101318170CA
S31502002E501021CAF880104CF20431C023BFF34F8F01
S31502002E60C4F200010226BFF36F8FCA6822F48032D1
S31502002E70CA60CA684EF20142CEF20002D37078638B
S31502002E80CAF88060BFF34F8FBFF36F8F0E6826F4C8
S31502002E9080360E600E681370B8620426CAF8806027
S31502002EA0BFF34F8FBFF36F8F4E6826F480364E60A6
S31502002EB04E685370F8620826CAF88060BFF34F8FD7
S31502002EC0BFF36F8F8E6826F480368E6089689370A2
S31502002ED038630120EFF3108680F310884DF6836184
S31502002EE06068C4F21B3120F4800060606068786913
S31502002EF04C4648450CD94044A0FB0101880C000110
S31502002F00A0EB9140400050B90FE000BF00BF00BFE8
S31502002F10BBFBF0F047F23051B1FBF0F028B100F004
S31502002F2007FE40F21817C2F2002786F310884FF404
S31502002F308061E86C002281604FF41241E86C4161C5
S31502002F4040F21001E86CC2F2002109680161E86CE6
S31502002F503021C1600021E86CC1F61F718261E86C04
S31502002F60416240F20011E86CC0F201010163A96CF2
S31502002F70C5E90E22C5E91022CB692A635A7C92B3AF
S31502002F804EF2540CC4F2010C9CF8003003F00F060A
S31502002F90022E05D8012303FA06FE12E000BF00BF87
S31502002FA0F31E052B08D245F6D426C0F2002656F8A3
S31502002FB023E006E000BF00BFA6F10803102606FACA
S31502002FC003FE9CF8013040F26006C2F2002603F0CE
S31502002FD00F0356F823307E697243B3FBFEF3B2FB4E
S31502002FE0F3F201322A6310234FF6FF72C9F6075332
S31502002FF0AA8683664CF28020C4F2000091F905206D
S315020030008030530902F01F0650F8221021F4803155
S3150200301040F8221050F822100AF5C0710122BFF3BF
S315020030205F8F02FA06F641F823604AF82360AB6C1A
S3150200303093F90B3050F8236026F4803640F823606B
S3150200304050F823605E0903F01F03BFF35F8F02FA95
S3150200305003F341F826304AF82630AB6C93F9073071
S3150200306050F8236026F4803640F8236050F8236037
S315020030705E0903F01F03BFF35F8F02FA03F341F801
S3150200308026304AF82630AB6C93F9093050F82360A3
S3150200309026F4803640F8236050F82300580903F0DE
S315020030A01F03BFF35F8F9A4041F820204AF8202081
S315020030B040F21141E86CC0F201018160E86C00BF88
S315020030C0017FC907FCD044F642104FF00009C5F251
S315020030D04330E862EFF3118689F3128840F2280A38
S315020030E087F86890C4F2400AFFF746FC43F6804030
S315020030F04FF00041CEF2000040F21812C2F2002256
S315020031009FEDD61A016040F21810C2F2002086F333
S31502003110118808F101010591406900EE100A884202
S315020031205FEA2F9182F8691040F21811C2F200216B
S31502003130B8EE400A91F8691080EE012A81EE000A83
S315020031409FEDC71A002944F6D351C1F2620102FE6D
S31502003150000AA0FB0101B6EE002A40F21810A0EE0A
S31502003160012AC2F20020BDEEC20A80ED180A8809C1
S3150200317040F21811C2F20021486640F21810C2F25B
S315020031800020EFF3118589F31288C0F80490FFF747
S315020031900BFBBFF34F8FBFF36F8F00BFBFF34F8F92
S315020031A0BFF36F8F0646FFF7FFFA40F21811C2F21D
S315020031B0002149683144401A40F21811C2F2002136
S315020031C0486040F21810C2F2002085F31188C0E967
S315020031D01499C0E916994FF48060CAF8000044F6C3
S315020031E06140C0F20020FDF762F845F29000C0F29D
S315020031F00020FDF75CF845F20510C0F20020FDF74D
S3150200320056F844F68850C0F20020FDF750F80FF247
S31502003210905040F24002C2F2002240F2100140F207
S31502003220181790ED001F1046C2F20021C2F20027C5
S31502003230A0EC101E07F13C038A60C86045F2C85034
S315020032404CF28021C0F20020C4F2000140F20102D9
S31502003250A1F50A51C0F20002C7F84C9083E80702B2
S3150200326043F200010120C4F22001EFF3108580F33E
S315020032701088086820F48000086008687869A0420F
S315020032800ED94DF683614044C4F21B31A0FB010105
S31502003290880C0001A0EB9140400040B90DE000BF50
S315020032A0BBFBF0F047F23051B1FBF0F028B100F071
S315020032B03FFC40F21817C2F200274EF280504CF241
S315020032C08026CFF6FF70C4F2000685F3108801212E
S315020032D031544EF29050CFF6FF7000213154F86B04
S315020032E04068027846F822103A6C117702784389D0
S315020032F046F822304FF0FF333A6C40F21007C2F222
S31502003300002751774FF44071D7F804C04FF440427A
S3150200331001EA1C517D8A02EA1C4203EB9C7301EB13
S31502003320020E022B4CF2C0010ED845EA05463A8A35
S31502003330022B26F0FC2503920AD04FF4805303EAAF
S315020033401C234EEA030E03E04EF4005E00220392B3
S3150200335040F2181201EA1C31C2F2002202910495CF
S31502003360536C42890092DBB15FEA8C214FF01C0953
S315020033704FEA9C7158BF4FF0100990F9016002297B
S31502003380817888BF4FF01009002E4FEA01111BD435
S315020033904EF20017CEF20007BD1985F800131FE0A2
S315020033A04FF000094FEA9C71CDF804E0022947D894
S315020033B03B4640F21817C2F2002700250021DDF82D
S315020033C008E03E6C72E000BF4EF6145506F00F0C94
S315020033D0CEF200054EF20017CEF200070CF80510E9
S315020033E040F218124CF28025C2F20022C4F2000505
S315020033F002EB8601383205EB86054A62D5F8801063
S3150200340021F48031C5F88010D5F88010710906F0D4
S315020034101F06012507EB810205FA06F6BFF35F8F49
S31502003420C2F8806147F8216040F21007C2F2002715
S31502003430D7F804C04FEA9C71CDF804E00229B7D947
S315020034403E8A0CF040617D8AD846B1F1806F0BD17D
S31502003450DDF808E0B3464EF4005E09E00024744944
S315020034600000804700BF00BFB0F808B0DDF808E0F2
S315020034700CF440213B46B1F5802F08BF0125BA68FE
S3150200348040F21817C2F2002705FB06F14BEA0B457C
S31502003490C3463E6C44F23F2808BF4EF0200EC1EAF6
S315020034A001413262C0F20F08DA687262009A002A9B
S315020034B0019A18BF42F00102B562F162A6F814E061
S315020034C0328299683160D9683A6C44F6C27549F21B
S315020034D000465160C0F20025396C049AC7F235766F
S315020034E08A60396C039ACA604068886181F81390D1
S315020034F048F2804944F24310C0F21E09C4F24D401C
S31502003500B8630FE000BF00BFBBFBF0F0B6FBF0F004
S3150200351000F00EFB40F21817C2F20027D7E90201AB
S31502003520884219D12846FCF7C2FE7869A042EBD937
S315020035304DF683614044C4F21B31A0FB0101880CA5
S31502003540A0FB090121B14FF0FF30E1E700BF00BF48
S315020035500028DDD1E2E700BF44F6CB50C0F20020DE
S31502003560FCF7A5FE00263E70BFF34F8F386C012193
S315020035703A4601771121BFF34F8F386C417738787D
S315020035804DF68367C4F21B37C0072FD140F2E935E7
S315020035904FF47A7903E000BF1078C00726D1013DC7
S315020035A01AD05069A04207D94044A0FB0701880CF3
S315020035B000FB09F038B9EFE7BBFBF0F00599B1FB68
S315020035C0F0F00028E8D000F0B3FA40F21812C2F286
S315020035D00022E1E700BF00BF44F60870C0F20020F7
S315020035E0FCF765FE40F21812C2F20022106C018A44
S315020035F0C768806885B245F24F00B1F5804F4FF437
S315020036008061C0F2002038BF4FF6FF71FCF73AFE28
S3150200361044F655502946C0F20020FCF733FE45F227
S31502003620BD104FF48031C0F20020FCF72BFE45F2AC
S3150200363018003946C0F20020FCF724FE40F2400092
S315020036400F21C2F200201030027810F8103C013926
S3150200365046F10005934204D100F101000DB12FF0AD
S315020036600DC844F6A97045F2E011C0F20020C0F27E
S315020036700021934250EA0180FCF719FE40F2181726
S315020036804CF28023C2F20027C4F20003F86B4168B1
S3150200369000200A7843F822003A6C10770A784989A2
S315020036A043F82210396C4877F96B49680A7843F86F
S315020036B022003A6C1077CA68C2B191F901204EF223
S315020036C00016CEF20006530902F01F0206EB830330
S315020036D0012606FA02F2C3F88020BFF34F8FBFF32A
S315020036E06F8F91F9011007EB81014862B86344F6C6
S315020036F09F6046F200554AF22016C0F20020C1F63B
S31502003700CD55C0F20706FCF7D2FD40F218124FF46F
S315020037108067C2F200224FF0806900BF00BF00BF7F
S31502003720CAF800705069A0420AD94DF68361404436
S31502003730C4F21B31A0FB0101880C704328B90AE0D0
S31502003740BBFBF0F0B5FBF0F028B100F0F1F940F266
S315020037501812C2F20022CAF800905069A0420BD990
S315020037604DF683614044C4F21B31A0FB0101880C73
S31502003770704340B9D4E700BFBBFBF0F0B5FBF0F0F5
S3150200378008B92FF033C800F0D3F940F21812C2F28A
S315020037900022C5E700BF00BF00BF00BF00BF00BFD9
S315020037A00102030405060708090A0B0C0D0E0F1089
S315020037B0FFF70EFBD4D4D4D4B0B584B04FF0704129
S315020037C0EFF3038001EB00604CF200328115C4F284
S315020037D0000240F21815C2F200258B5805EBA050E4
S315020037E023F480338B508958446A206A0069002882
S315020037F0606905D010B304B0B0BD00BF00BF00BF02
S31502003800E0B1A07800F003000228206908D1008800
S31502003810616A20F4DC40486005E000BF00BF00BFDB
S31502003820616A00780871A078226900F00301606974
S31502003830401A6061114421610028DCD1616A0222CA
S315020038408D68A06862F3155510B100F071F9616ACE
S315020038508D60A06A00284FF000002061CBD0E06A9C
S3150200386030B190E82E008DE82E0002E000BF00BFC6
S315020038706846216A09780160002181608021017110
S31502003880216BC160A16A8847E06A00281CBF9DE8D7
S315020038902E002EC004B0B0BD10B586B04FF07041F8
S315020038A0EFF3038001EB00604CF200328115C4F2A3
S315020038B0000240F21814C2F200248B5804EBA05006
S315020038C023F480338B508958446AA07800F00302AF
S315020038D0606A022A24D101686FF35F21E0690191CF
S315020038E018B3A06901A9FCF7E3FBA078D4E9061294
S315020038F000F003000144101AC4E9061040D1A06A80
S3150200390000283DD0E06A38B3D0E900C2D0E90231DE
S31502003910CDE90431CDE902C21FE000BF00BF00BFFE
S315020039200178E06901910028DBD1A06A40B3E06A20
S3150200393050B1D0E900CED0E90223CDE90423CDE986
S3150200394002CE02E000BF00BF02A8226A127881609E
S315020039500260042107E000BF02A8216A097801601B
S315020039600021816001210171216BC160A16A884732
S31502003970E06A28B102AC1ECC016042608360C4607A
S3150200398006B010BDD4D4D4D4B0B584B04FF07041D3
S31502003990EFF3038001EB006040F21811C2F200213E
S315020039A04FF6EF7301EBA051CFF6CF7304164D6AB3
S315020039B0696A8A681A408A60A96AF9B1E86A58B1DE
S315020039C0D0E900C2D0E90231CDE90231CDE900C227
S315020039D003E000BF00BF00BF6846296A097801609C
S315020039E00021816002210171296BC160A96A8847A1
S315020039F0E86A00281CBF9DE82E002EC04CF200305B
S31502003A00C4F2000050F8241021F4803140F824104A
S31502003A1050F8240004B0B0BD70B584B04FF07041C8
S31502003A20EFF3038001EB006040F21811C2F20021AD
S31502003A3001EBA0514C6AA178636A01F003010229E5
S31502003A4006D1D3F800C06FF35F2C03E000BF00BFBE
S31502003A5093F800C09A6C2025082105EAD2454FF05A
S31502003A60100E01EA12611EEA126229440A4403D0C8
S31502003A70996C090458BF4032996E051641F0C85137
S31502003A809966A16AE9B1E06A50B1D0E900E3D0E9EA
S31502003A900216CDE90216CDE900E302E000BF00BF3F
S31502003AA06846216A0978C0F808C001600271216B74
S31502003AB0C160A16A8847E06A00281CBF9DE84E00E3
S31502003AC04EC04CF20030C4F2000050F8251021F42A
S31502003AD0803140F8251050F8250004B070BDD4D4CA
S31502003AE010B582B04FF07041EFF3038001EB006036
S31502003AF04CF200328115C4F2000240F21814C2F2EE
S31502003B0000248B5804EBA05023F480338B50895841
S31502003B10446AE1686069019001A88847A068C068A4
S31502003B2020B1BFF34F8FA0680121017702B010BD0B
S31502003B3001380028FCD170474CF22010C4F2000074
S31502003B4050F8201C0268114040F8101C00BF00BF4C
S31502003B5002680A42FCD1704700F00AF8FFF728FE15
S31502003B6000BE7047D4D4D4D4D4D4D4D4D4D4D4D4E8
S31502003B702DE9F04F83B04EF6145440F20120CEF2F6
S31502003B800004C0F20E004EF200062060CEF20106DC
S31502003B90BFF34F8FBFF36F8F54F8141CC1F303505A
S31502003BA001285FEA1F9211F00F0F5FEA0F9111428F
S31502003BB0316811D102280FD241F0040030604EF272
S31502003BC00800BFF34F8FCEF20000BFF36F8F01687C
S31502003BD041F48031016002E021F004003060BFF35D
S31502003BE04F8F4EF2FA324FF47000BFF36F8F606759
S31502003BF040F20000C4F20102C0F2002044F80C0CAC
S31502003C004AF20250CFF6FF7040F260070FF6A0317B
S31502003C1001301080C2F200270FF6A43091ED001F8A
S31502003C204EF2550A07F1200387ED001FC4F2010A7E
S31502003C3048F2004190ED001F43F6000044F255326F
S31502003C40C1F69C4087ED041FC1F2D771C1F2DE3284
S31502003C5007C31AF82F0C3AF8311C01F00F02A2F131
S31502003C600801032934D8DFE801F003270F1B00BF40
S31502003C704AF6AB2157F82000CAF6AA21A0FB010199
S31502003C80480828E000BF00BF4AF6AB2157F82000DB
S31502003C90CAF6AA21A0FB0101C8081CE000BF00BFAA
S31502003CA04AF6AB2157F82000CAF6AA21A0FB010169
S31502003CB0080910E000BF00BF4AF6AB2157F8200002
S31502003CC0CAF6AA21A0FB0101880804E000BF00BFD2
S31502003CD057F82000D04040F2181C4EF60045C2F2BA
S31502003CE0002CC4F201050A214EF64C49CCF8140008
S31502003CF04FF65060CFF6FF704DF68368C4F20109A5
S31502003D00C4F21B38295409208AF84D00287818B9BC
S31502003D1019F84B0C800732D0287860BB41F2FF11AC
S31502003D2001202870C0F27A01DCF8140088420BD90F
S31502003D3044F23F21C0F20F010844A0FB0801880C9F
S31502003D40C821484368B913E04CF60021C3F69A31FC
S31502003D50B1FBF0F040F64051C0F20301B1FBF0F0C6
S31502003D6030B1FFF7E5FE40F2181CC2F2002C00BF8C
S31502003D7028780128FCD1002009F84B0C2870002075
S31502003D800AF8230C00BF00BF1AF8190C0007FBD56E
S31502003D9042F602314FF60210CAF8730040F2415061
S31502003DA02AF8070C0020C0F201010AF80B0CCAF827
S31502003DB0571040F283412AF8091C41F2FF13BFF360
S31502003DC04F8FBFF36F8F2168C0F27A0321F400315F
S31502003DD02160C4F83C02BFF34F8FBFF36F8F306888
S31502003DE020F440503060BFF34F8FBFF36F8F1AF845
S31502003DF0410C00F0F80001300AF8410C00BF00BF88
S31502003E001AF8410CC006FBD4306840F440503060CA
S31502003E10BFF34F8FBFF36F8F2068800312D4BFF3B7
S31502003E204F8FBFF36F8F0020C4F83C02BFF34F8F52
S31502003E30BFF36F8F206840F400302060BFF34F8FCE
S31502003E40BFF36F8F00200AF82B0C00BF00BF00BF24
S31502003E501AF8190C8006FBD54CF200040020C4F2B5
S31502003E60130420702078207820786068C82807D04C
S31502003E70C820C1F6006000BF60606168C829FBD136
S31502003E80A068642808D06420CEF2001000BF00BFEC
S31502003E90A060A1686429FBD149F69820C9F6890079
S31502003EA04AF8350C48F680002AF8310C05200AF843
S31502003EB02F0C1AF82F0C3AF8311C01F00F02A2F15E
S31502003EC00801032950D8DFE801F00333132300BFAA
S31502003ED04AF6AB2157F82000CAF6AA21A0FB010137
S31502003EE048089842CCF814002FD844E000BF00BF1F
S31502003EF04AF6AB2157F82000CAF6AA21A0FB010117
S31502003F00C8089842CCF814001FD834E000BF00BF9E
S31502003F104AF6AB2157F82000CAF6AA21A0FB0101F6
S31502003F2008099842CCF814000FD824E000BF00BF5D
S31502003F304AF6AB2157F82000CAF6AA21A0FB0101D6
S31502003F4088089842CCF8140015D944F23F21C0F2F1
S31502003F500F010844A0FB0801880C0001A0EB914068
S31502003F60400098B918E000BF57F82000D0409842A8
S31502003F70CCF81400E9D84CF60021C3F69A31B1FB0D
S31502003F80F0F047F23051B1FBF0F028B1FFF7D0FD67
S31502003F9040F2181CC2F2002C60686FF39F2065285D
S31502003FA001D3012020701AF82F0C3AF8311C01F0C7
S31502003FB00F02A2F10801032936D8DFE801F005292C
S31502003FC0111D00BF00BF00BF4AF6AB2157F8200003
S31502003FD0CAF6AA21A0FB0101480828E000BF00BFDB
S31502003FE04AF6AB2157F82000CAF6AA21A0FB010126
S31502003FF0C8081CE000BF00BF4AF6AB2157F82000F4
S31502004000CAF6AA21A0FB0101080910E000BF00BF01
S315020040104AF6AB2157F82000CAF6AA21A0FB0101F5
S31502004020880804E000BF00BF57F82000D04042F2E3
S315020040300001CCF81400C4F200014AF20250013821
S3150200404008800120BFF35F8F08724FF42540BFF34B
S315020040505F8F08809AF8850040F040008AF8850054
S315020040609AF98500B0F1FF3FFADC01208AF87F0059
S31502004070C7208AF885009AF8850000F0BF008AF802
S31502004080850000BF00BF00BF9AF985000028FBD457
S3150200409001200AF8020C9AF81F0040F040008AF844
S315020040A01F0000BF00BF00BF9AF91F00B0F1FF3F1B
S315020040B0FADC07208AF8170048208AF81F00082031
S315020040C08AF81F0000BF00BF9AF91F000028FBD420
S315020040D04EF2FA3143F20406C4F20101C4F220069A
S315020040E04FF0010B002508884FF4803702904AF200
S315020040F0025001244FF00009013008800BE000BF96
S315020041000BFA09F088F310880543E0074FF001091E
S315020041104FF000043CD007FA09F031680142F4D1AD
S31502004120EFF310888BF310883168084341F2FF11D0
S315020041303060C0F27A013068DCF81400884213D984
S3150200414044F23F21C0F20F0108444DF68361C4F2E6
S315020041501B31A0FB0101880C0001A0EB914040003D
S3150200416070B9CDE700BF00BF4CF60021C3F69A3105
S31502004170B1FBF0F047F23051B1FBF0F00028BFD0AE
S31502004180FFF7D6FC40F2181CC2F2002CB8E700BFBB
S315020041909AF8200040F26001C2F2002100F00F00FE
S315020041A051F820009AF8181001F00F01022907D8D9
S315020041B001224DF6836302FA01F1C4F21B3313E0C6
S315020041C0CA1E4DF68363052AC4F21B3308D245F68E
S315020041D0D421C0F2002151F8221005E000BF00BF31
S315020041E00839102202FA01F1B0FBF1F0DCF81410E2
S315020041F0A0FB030241F2FF10C0F27A0081424FEAAD
S3150200420092400DD944F23F22C0F20F021144A1FBA3
S315020042100312910C4843400070B913E000BF00BF7F
S315020042204CF60022C3F69A32B2FBF1F14FF4FA626F
S315020042305043B0FBF1F028B1FFF77AFC40F2181CAC
S31502004240C2F2002C9AF8200040F040008AF82000C2
S315020042509AF92000B0F1FF3FFADC01208AF8180033
S315020042604A208AF820000A208AF8200000BF00BFF0
S315020042709AF920000028FBD400204FF0010B4FF4DE
S31502004280803947F2305801240AE000BF00BF00BF60
S3150200429087F31088E0074FF001004FF000043FD08B
S315020042A025FA00F1C907F5D0EFF310878BF31088D2
S315020042B009FA00F0316821EA000041F2FF1130608C
S315020042C0C0F27A013068DCF81400884214D944F24C
S315020042D03F21C0F20F0108444DF68361C4F21B313F
S315020042E0A0FB0101880C0001A0EB9140400068B9D7
S315020042F0CEE700BF00BF00BF4CF60021C3F69A31DD
S31502004300B1FBF0F0B8FBF0F00028C1D0FFF710FCCB
S3150200431040F2181CC2F2002CBAE700BF00BF00BF71
S315020043204EF2FA310298C4F2010140F425400880A7
S315020043309AF8000040F040008AF8000000BF00BF73
S315020043409AF90000B0F1FF3FFADC02200AF8010CEC
S31502004350C8208AF800009AF800004EF614534EF26E
S3150200436000064EF60045CEF20003CEF20106C4F276
S31502004370010500F0BF008AF8000000BF00BF00BFC1
S315020043809AF900000028FBD44EF2FA374FF4254082
S31502004390C4F201074AF202510022388039804FF6F0
S315020043A0B061CFF6FF716A54388040F20000C2F263
S315020043B0000080F30A883068800725D553F80C0C74
S315020043C0B0F1007F20D130694FF40071C0F3C30011
S315020043D0726901FA00F3C2F3C30081400020DA08D1
S315020043E0CB080146074642F007C800BF00BF00BF20
S315020043F0E7E802010FF005C04FF0005243F005C096
S31502004400E2E802010FF005C045F6C0004EF64C4741
S31502004410C0F200200B2400F1040BC4F201075D4632
S3150200442006E000BF00BF00BF013C05F10C050FD03E
S3150200443068790028F8D155E90101091AFBF713FF3B
S3150200444040F2181CC2F2002CEEE700BF00BF00BF0C
S3150200445045F644101924C0F2002000F108094D4621
S3150200446006E000BF00BF00BF013C05F110050FD0FA
S3150200447068790028F8D155E902022968121AFBF771
S3150200448017FE40F2181CC2F2002CEDE700BF00BF77
S315020044901AF82F0C3AF8311C01F00F02A2F10801AA
S315020044A0032949D841F2FF13C0F27A03DFE801F08B
S315020044B00434142400BF00BF40F26001C2F200219E
S315020044C051F820004AF6AB21CAF6AA21A0FB010147
S315020044D048083CE000BF00BF40F26001C2F2002182
S315020044E051F820004AF6AB21CAF6AA21A0FB010127
S315020044F0C8082CE000BF00BF40F26001C2F20021F2
S3150200450051F820004AF6AB21CAF6AA21A0FB010106
S3150200451008091CE000BF00BF40F26001C2F20021A0
S3150200452051F820004AF6AB21CAF6AA21A0FB0101E6
S3150200453088080CE000BF00BF40F2600141F2FF13A1
S31502004540C2F20021C0F27A0351F82000D04042F2B2
S315020045502404CCF81400C4F2200400202071DCF8F4
S315020045601400984210D944F23F21C0F20F010844C8
S315020045704DF68361C4F21B31A0FB0101880CC821F0
S31502004580484370B913E000BF4CF60021C3F69A31D6
S31502004590B1FBF0F040F64051C0F20301B1FBF0F07E
S315020045A028B1FFF7C5FA40F2181CC2F2002C00200F
S315020045B0207000BF00BF00BF207808B12FF005C0F1
S315020045C0207840F00200207020788007FCD400207A
S315020045D004F8020C00BF00BF14F8020C08B12FF059
S315020045E005C84FF0030E002004F11C0600BF00BFF1
S315020045F016F8101001F07F0106F8101000BF00BF78
S3150200460016F910100029FBD401300FF00FC8012152
S31502004610EFF3108081F31088BCF81A1041B94EF2FC
S31502004620FA324AF20253C4F2010211881943118086
S31502004630BCF81A100131ACF81A1080F31088002069
S3150200464038700121EFF3108081F31088BCF81A103C
S3150200465021B1BCF81A100139ACF81A10BCF81A10BC
S3150200466049B94EF2FA32C4F20102118841F42541E7
S3150200467021F00201118080F310880121EFF31080EE
S3150200468081F31088BCF81E1049B94EF2FA334AF289
S315020046900252C4F201030E32198811431980BCF882
S315020046A01E104FF00E0E0131ACF81E1080F310886A
S315020046B040F61450C4F240001C30002100BF00BF77
S315020046C020F8041B0FF005C00121EFF3108081F3DF
S315020046D01088BCF81E1021B1BCF81E100139ACF8C6
S315020046E01E10BCF81E1049B94EF2FA32C4F201028B
S315020046F0118841F4254121F01001118080F31088C0
S315020047000121EFF3108081F31088BCF81E1049B91D
S315020047104EF2FA334AF20252C4F201030E321988F9
S3150200472011431980BCF81E100131ACF81E1080F33B
S31502004730108844F20400C4F22000002101604160A6
S315020047408160C1600121EFF3108081F31088BCF80B
S315020047501E1021B1BCF81E100139ACF81E10BCF8AF
S315020047601E1049B94EF2FA32C4F20102118841F41E
S31502004770254121F01001118080F310880B244FF49B
S31502004780807505E000BF00BF013C0BF10C0B0BD09E
S315020047909BF80500B5EB002FF6D15BE90101091A7A
S315020047A0FBF761FDF0E700BF19244FF4807513E0B3
S315020047B0006CDC0200127A000080000000366E01F6
S315020047C0008000000046C32300CA9A3BAA02E50FF6
S315020047D0013C09F110090FD099F80500B5EB002F3D
S315020047E0F6D159E90202D9F80010121AFBF760FC59
S315020047F0EEE700BF00BF00BF40F2E414C2F200249D
S315020048002046FBF718FD2046FBF731FD4EF6145104
S315020048100020CEF20001BFF34F8FBFF36F8FC1F8B6
S315020048203C0245F6443045F64831C0F20020C0F25B
S315020048300021BFF34F8F081ABFF36F8F8410012C2C
S315020048400BDB45F64435C0F2002500BF00BF00BFB2
S3150200485055F8040B8047013CFAD140F2181341F295
S31502004860FF1500214FF0010AC2F20023C0F27A05B9
S31502004870019607E000BF00BF0299019E0131592946
S3150200488000F0E28045F2D05045F69804C0F20020CE
S315020048904FF0000900EBC10BC0F200240291BBF8F5
S315020048A0048007E000BF00BF09F101090236B9F131
S315020048B0030FE1D034F8020B8045F5D1DBF8000096
S315020048C03A7800F0B8510AFA09F0B1F1807F00EAAD
S315020048D0020109D100295BD096F90000002840F1B7
S315020048E09280E1E700BF00BFB1B3EFF310818AF314
S315020048F010885A8B82B94EF2FA354AF20257C4F23E
S3150200490001052A883A434EF64C472A8041F2FF15A2
S31502004910C4F20107C0F27A055A8B01325A8381F337
S315020049201088397821EA00003870EFF310808AF394
S315020049301088598B11B1598B01395983598B49B951
S315020049404EF2FA32C4F20102118841F4254121F0F5
S315020049500201118080F3108896F90000B0F1FF3F42
S31502004960A2DC307800F07F0030705869A84251D836
S315020049704CF60021C3F69A31B1FBF0F040F64051F5
S31502004980C0F20301B1FBF0F0002854D18CE700BF5E
S31502004990EFF310818AF310885A8B82B94EF2FA35F8
S315020049A04AF20257C4F201052A883A434EF64C47A8
S315020049B02A8041F2FF15C4F20107C0F27A055A8B2A
S315020049C001325A8381F31088397808433870EFF33D
S315020049D010808AF31088598B11B1598B013959838A
S315020049E0598B49B94EF2FA32C4F20102118841F4E6
S315020049F0254121F00201118080F3108896F900000A
S31502004A0000283FF551AF307840F080003070586989
S31502004A10A842ADD944F23F21C0F20F0108444DF637
S31502004A208361C4F21B31A0FB0101880CC8214843F3
S31502004A3000283FF439AFFFF77BF840F21813C2F2B1
S31502004A40002331E700BF00BF0121EFF3108081F39D
S31502004A501088196939B940F614520021C4F240028D
S31502004A6011704021117019694FF0590E0131196107
S31502004A7080F3108845F2D050F64640F6000CC0F29C
S31502004A8000204EF61454C4F2400C011DCEF200046E
S31502004A900EE000BF00BF00BF0CEB8717083147F8D6
S31502004AA02020BEF1010E03D11AE000BF00BF00BFF5
S31502004AB0088851F8042CD7034FEA1027C0B2EBD569
S31502004AC00CEB871656F8205025F4803546F8205010
S31502004AD022F4803546F82050DEE700BF00BF00BF53
S31502004AE00121EFF3108081F31088196911B1196958
S31502004AF001391961196939B940F614520021C4F213
S31502004B00400211708021117080F310884FF0050E5B
S31502004B1042F20000C4F2000045F6E82100F5234007
S31502004B20C0F2002100BF00BF31F8022B40F8042B6F
S31502004B300FF007C0D4F8AC00442161F30700C4F8B3
S31502004B40AC00E06FC0F3072040B345F6A001002297
S31502004B50C0F2002100270431002300BF00BF00BFBE
S31502004B600D68202D13D351F8046C25F01F0526F08D
S31502004B701F06203DB5420AD3013345F0010546F032
S31502004B800106C4F88470C4F88860C4F88C50022AFE
S31502004B9004D8DFB201320831B842E1D8BFF35F8FE1
S31502004BA00520C4F88000206940F480302061BFF3FC
S31502004BB04F8FBFF36F8F2068C0032FD4002020676A
S31502004BC0BFF34F8FE16E43F6E073C1F34E30CA086E
S31502004BD0C1F3C9014F1C9107420100BF00BF00BFCC
S31502004BE002EA030647F001E00E4400BF00BF00BF21
S31502004BF0C4F84C6206F140460FF007C00028A0F147
S31502004C000100A2F12002EBD1BFF34F8F206840F4DE
S31502004C1080302060BFF34F8FBFF36F8F03B0BDE8C4
S31502004C20F08F50433A20203078253038580D0A004C
S31502004C305053523A203078253038580D0A003D3DFF
S31502004C403D3D3D3D3D3D204F74686572205265678E
S31502004C506973746572203D3D3D3D3D3D3D3D0D0A06
S31502004C60000D0A2A2A2A2A2A2A2A2A2A2A2A2A2A03
S31502004C702A2A2A2A2A2A2A2A2A2A2A2A2A2A2A2A8C
S31502004C802A2A2A2A2A2A2A2A2A2A2A2A2A2A2A2A7C
S31502004C902A2A2A2A2A2A2A2A2A2A2A2A2A2A0D0AA9
S31502004CA02A20202052656E65736173204653502078
S31502004CB04578616D706C652050726F6A6563742009
S31502004CC0666F7220444D41204D6F64756C652020DD
S31502004CD020202020202020202A0D0A2A20202046BB
S31502004CE06C657820536F66747761726520506163D4
S31502004CF06B2056657273696F6E20204653502036BC
S31502004D002E352E302020202020202020202020205A
S31502004D1020202020202A0D0A2A2A2A2A2A2A2A2A5A
S31502004D202A2A2A2A2A2A2A2A2A2A2A2A2A2A2A2ADB
S31502004D302A2A2A2A2A2A2A2A2A2A2A2A2A2A2A2ACB
S31502004D402A2A2A2A2A2A2A2A2A2A2A2A2A2A2A2ABB
S31502004D502A2A2A0D005B444D4120737461747573CF
S31502004D605D207472616E736665725F6C656E6774E0
S31502004D70685F72656D61696E696E673A2025752096
S31502004D8062797465730D0A00444D4120696E697437
S31502004D9069616C697A652E2E2E2E2E2E0D004D53CC
S31502004DA0503A202020203078253038580D0A00430A
S31502004DB06865636B6564204572726F723A20496E4C
S31502004DC076616C69642050430D0A00444D4120729D
S31502004DD0756E6E696E672C20706C656173652077DF
S31502004DE06169742E2E2E0D00436865636B6564201F
S31502004DF04572726F723A20496E7374727563746982
S31502004E006F6E20427573204572726F720D0A0049E9
S31502004E105053523A203078253038580D0A00444D06
S31502004E20412043616C6C6261636B207472696767CF
S31502004E3065726564210D005231323A203078253090
S31502004E4038580D0A005343422D3E435346523A20E8
S31502004E503078253038580D0A005053504C494D3A97
S31502004E60203078253038580D0A00696E66005232B5
S31502004E703A20203078253038580D0A003D3D3D3D18
S31502004E803D3D3D3D3D205343422052656769737463
S31502004E906572203D3D3D3D3D3D3D3D3D0D0A004493
S31502004EA04D4120636C6F7365640D00486172644600
S31502004EB061756C74206F63637572726564206279C2
S31502004EC02044454255470D0A00436865636B656495
S31502004ED0204572726F723A204E6F20436F70726F66
S31502004EE0636573736F720D0A00436865636B65646D
S31502004EF0204572726F723A20496E76616C6964203F
S31502004F0053746174650D0A004572726F723A2044D9
S31502004F104D41205472616E736665722054696D65E7
S31502004F206F757420313030306D730D0043686563E0
S31502004F306B6564204572726F723A20537461636BBB
S31502004F40204F766572666C6F770D0A003D3D3D3DDA
S31502004F503D3D3D3D3D3D3D3D3D3D3D20496E20486B
S31502004F606172644661756C74203D3D3D3D3D3D3D3B
S31502004F703D3D3D3D3D3D3D3D0D0A0052313A20202D
S31502004F803078253038580D0A00436865636B6564CE
S31502004F90204572726F723A204469766964652042CE
S31502004FA079205A65726F0D0A00444D412054726190
S31502004FB06E73666572207375636365737366756C6B
S31502004FC00D00496E70757420616E79206368617296
S31502004FD0616374657220746F207374617274204405
S31502004FE04D4143206E6F726D616C206D6F6465205A
S31502004FF0746573740D00436865636B65642045725E
S31502005000726F723A20556E616C69676E65642041F3
S3150200501063636573730D0A005B444D4120737461CB
S315020050207475735D20626C6F636B5F636F756E740C
S315020050305F72656D61696E696E673A2025750D0A44
S315020050400052303A20203078253038580D0A005B5D
S31502005050444D41207374617475735D207472616E80
S31502005060736665725F6C656E6774685F6D61783AC8
S315020050702025752062797465730D0A005343422D0B
S315020050803E484653523A203078253038580D0A00A9
S315020050900D0A444D41206E6F726D616C206D6F6416
S315020050A065206578616D706C6520636F6465207438
S315020050B06F2064656D6F6E737472617465207468B7
S315020050C0652066756E6374696F6E616C6974792E9C
S315020050D00D005343422D3E494353523A2030782520
S315020050E03038580D0A004D53504C494D3A2030780D
S315020050F0253038580D0A004C523A20203078253097
S3150200510038580D0A000D0A73657420444D4130204B
S31502005110746F206E6F726D616C206D6F64652C20EA
S315020051207472616E736665722031362062797465B7
S3150200513073206461746120666F726D20675F73729B
S31502005140635F62756620746F20675F6473745F6263
S315020051507566200D006E616E004861726446617567
S315020051606C74206F63637572726564206279206F56
S315020051707468657220657863657074696F6E2066FF
S315020051806F726365640D0A00436865636B6564202C
S315020051904572726F723A20556E646566696E656411
S315020051A020496E737472756374696F6E0D0A0052CC
S315020051B0333A20203078253038580D0A005B444DAA
S315020051C041207374617475735D20626C6F636B5FEB
S315020051D0636F756E745F6D61783A2025750D0A00EE
S315020051E04572726F723A20444D41205472616E7359
S315020051F0666572206661696C65640D00286E756C61
S315020052006C29003D3D3D3D3D3D3D3D3D3D204D53DF
S315020052105020537461636B20203D3D3D3D3D3D3D35
S315020052203D3D3D0D0A005053503A20202020307853
S31502005230253038580D0A00D4000000000000000096
S315020052400000000000000010000000000000000046
S31502005250B9340332B7F4AD1410DB1AB30892540E04
S315020052600D307D951447BA1A66088F4D26ADC66D68
S31502005270F598BF85E2B74511CA96853D92BD1DEBED
S31502005280FCA11860DCEF52163C92AE220BB8C1B4F8
S31502005290839D2D5B0562DA1C304C7E8F4E8BB25B92
S315020052A016F4529F8B56A512FBD4827643ED8AF0F2
S315020052B08FE7F9311565191850F19BD94A13EEB4E7
S315020052C0284CF0A686C1251F035FC270CB9E4916E5
S315020052D0E642889C44EB2014B0650836AD6EA5857F
S315020052E085F0CA14E2FD031A0B899979D5B13D09F5
S315020052F0D8DA973A35EBCF10AC363F5E73BB38CF70
S315020053003E6752FA44AFBA150100000000000000E1
S315020053100500000000000000190000000000000067
S315020053207D00000000000000710200000000000085
S31502005330350C000000000000093D000000000000DE
S315020053402D31010000000000E1F50500000000001B
S3150200535065CD1D0000000000F90295000000000066
S31502005360DD0EE90200000000514A8D0E0000000029
S315020053709573C24800000000E941CC6B01000000B1
S315020053808D49FD1A07000000C16FF2862300000056
S31502005390C52EBCA2B1000000D9E9AC2D78030000ED
S315020053A03D9160E45811000031D6E275BC5600000A
S315020053B0F52E6E4DAEB10100C9EA26836778080064
S315020053C0ED95C28F055A2A00A1EDCCCE1BC2D300A1
S315020053D025A4000A8BCA2204000000000000000077
S315020053E000000000000000000000004095596959C5
S315020053F055555455155555560405154110545540E5
S31502005400455155444045504450555545004000408D
S3150200541040044496655556554540455451411540FC
S31502005420559155555555405105010000D4D4D4D453
S315020054300100000000000000000000000000002043
S31502005440345065C05FC9A652BB13CBAEC440C21866
S3150200545006C8DF7100D5A87CF56F0FDA58FC271352
S315020054606E4756357D24206502C7E768E48CA41D85
S31502005470E9E60268D7CD39617977FCC2405BEF165F
S31502005480798CDE43FFA751F991F3B278F5BDBE11CF
S31502005490E857E9D6E8BEE87BB054AC8F848D751B1D
S315020054A0EA23A499E9F9D38BB7A3714061DA3E15D1
S315020054B0CEE33ECB73F948088C97B427D51B701000
S315020054C0A2BFEFB9EB8532154DB44DB49BBB6F1934
S315020054D096B6076CF8E7EEAD36D9B4F59135AE134C
S315020054E0222218AF4E6A684D91DAAA3D4F40741EC9
S315020054F09FBD9EE006A1C09857C2A7FDA40E9017B5
