:020000040200F8
:10000000784000201D4B0002BD49000275320002FD
:10001000194B0002194B0002194B0002194B000248
:10002000000000000000000000000000194B00026A
:10003000952D000200000000194B0002194B000230
:10004000E53B0002153B0002CD3C0002493D0002A9
:10005000F0B5B0F9004083B0230603D504F07F006B
:1000600003B0F0BD0D46C4F3C30101EB011214F05F
:10007000070306461746298F1DD0012B18D10A46C3
:1000800005F12800394601F043FAAB8F298F07B2FA
:1000900003B9A88701F04CFF034624F0FF0407F0E2
:1000A0007F00044344F080042B87348003B0F0BD0C
:1000B0002746A0B2EEE7212A98BF2227B5F90230E1
:1000C0000191D5E90510B5F90020009701F020FE57
:1000D000EB8F298F07B2002BDCD1E887DAE700BF6E
:1000E0002DE9F041B0F9005014462A060E4682B0C0
:1000F00024D505F07F07B6F900502B0606D505F08C
:100100007F08A7EB080002B0BDE8F081C5F3C3018A
:1001100001EB011215F007039446218F35D0012B16
:100120005AD10A4604F12800614601F0F1F9A38F83
:100130000FFA80F803B9A087218F3CE0C5F3C30113
:1001400001EB011215F0070380461746218F46D0B8
:10015000012B17D10A4604F12800394601F0D8F9DD
:10016000A38F07B203B9A087218F01F0E1FE07F04A
:100170007F0725F0FF053D4345F080052087A8F85F
:100180000050B8E72F46A8B2EFE7212A98BF4FF0FA
:10019000220C0191B4F90230B4F90020D4E9051021
:1001A000CDF800C001F0B4FDE38F0FFA80F8002B0A
:1001B000C2D1218FE08701F0BBFE08F07F0825F057
:1001C000FF0548EA0505208745F08005A7EB0800F4
:1001D000358002B0BDE8F081A846A8B2EBE7212A3D
:1001E00098BF22270191B4F90230B4F90020D4E974
:1001F0000510009701F08CFDE38F07B2002BB3D1FF
:10020000218FE087B1E700BF2AB1B0F90200B1F950
:100210000230C01A7047B0F9003023F0FF02C3F378
:10022000072313430380B1F9003023F0FF02C3F327
:10023000072313430B80B0F90200B1F90230C01A52
:10024000704700BFB1F900300380B1F9023043803C
:10025000704700BF2DE9F04F8E46B0F90480054687
:10026000B8F1000F4FF000017646446A85B040F3C4
:1002700080818C4689460B468246002ECFB2C0F262
:10028000E280002C00F07981204601E0006820B176
:100290004268B2F90220B242F8D1002500E01446CB
:1002A000226825602546002AF9D1002800F0D9806F
:1002B0004268B2F90020D50703D5C2F340221344A7
:1002C0009BB2026822B11568056020681060226048
:1002D00009F101091FFA89F9002EA8BF013601F1C1
:1002E0000101A8BF36B28845C7D15546CCEB890C71
:1002F000634499B2BEF1000F00F3D080002223685E
:100300009642D3F800905D68D9F804005860C9F8A7
:1003100004501868254600681860C9F800205CDBA6
:100320006B68B3F90230B34208D02D68002D00F09D
:1003300016816B68B3F90230B342F6D16368B3F942
:10034000000001F0A1FF2D680146002DF6D12568BF
:100350006A68D9F80430C9F804206B602B684FF044
:10036000010CC9F800304FF00008C5F8009089462C
:10037000002C66D00020074686460125BCF1000F00
:100380000CEB050221464FF00003B8BF2A46AE44ED
:1003900002E00968013309B1013AFAD1002B254680
:1003A00066460C4608DDEEB92A462D68013B68B169
:1003B00002601046002BF6DC002E36DD002C36D015
:1003C00093B92246013E24680028F1D11746104611
:1003D000F0E72D68002D00F0C2806B681B78BB42EF
:1003E000F7D1ABE7002CDFD0D5F804A06168BAF9EB
:1003F000002022F0FF0BC2F307224BEA020BAAF8FF
:1004000000B0B1F9002022F0FF0BC2F307224BEA43
:10041000020BA1F800B0BAF902A0B1F9022092458E
:10042000C2DD2246013E2468C1E7002CA5D1BEF101
:10043000010FC0F8008021D03C464FEA4C0C002C44
:1004400098D12460FFDE002C00F09780204603E066
:10045000006800283FF421AF426812789742F7D134
:100460001BE722680CF1010C52681FFA8CFC92F910
:10047000012002F0010213449BB22DE73C6849467B
:1004800044B17B68B3F9000001F0FEFE2468014628
:10049000002CF6D1084605B0BDE8F08FCDE9017615
:1004A0004FF001092646AA460391002E63D000248E
:1004B0003546A04622460126B9F1000F09EB060396
:1004C00028464FF0000BB8BF3346324403E00068C3
:1004D0000BF1010B08B1013BF9D12E4637465E46C0
:1004E000002E05469346CDF800900ADDB9F1000FC5
:1004F00015D13A463F68013E74B122601446002E81
:10050000F4DCB9F1000F18DDF5B156B92A4609F14E
:10051000FF392D68002CF0D190461446EFE7002DEE
:10052000E7D0524669687868FFF7DAFD0028E0DD19
:100530002A4609F1FF392D68DEE75A46DDF80090BA
:10054000002DB8D1594602E05946DDF8009000234D
:100550000129236008D046464FEA4909A5E72568E6
:10056000002D7FF4EBAEF3E64446DDE90176039916
:10057000C4E60F46BEE63660FFDE00231B68FFDEE2
:1005800000232DE9F04748F28006734C9446A4FB03
:1005900000421209023A01EBC2050B604D606B800C
:1005A0004B6801F11004A5421E8005F1040001F121
:1005B000080305EB820E0DD905F10806B645D1F802
:1005C00000A009D90B6023466FF00044C1E902A0E6
:1005D00030466C60D1F800A062B303F10806B54262
:1005E0004FF0000447F6FF791FFA8CF822D9071D57
:1005F000BE4540F2A980C3F800A01FFA84FA0B6040
:1006000058608AEA0803DB000AF0070A03F078035F
:1006100043EA0A0303EB03230134A0F802900380AA
:100620009442D1F800A005D0334603F10806B54244
:100630003846DCD8DAF800005346D8B1464C4FF4BF
:100640000070A4FB02420126920807E06E801B683E
:1006500000F580701C68013680B25CB1B2425D6802
:10066000F4D800F4E0648CEA06073C43C4F30D04BC
:100670006C80ECE700240125A6462646A046012012
:10068000002D05EB000C0B464FF00002B8BF84466E
:10069000064402E01B68013213B1BCF1010CF9D130
:1006A000002A284608DD98B90F68013A74B1216024
:1006B000002A0C463946F6DC00282DDD7BB34AB90A
:1006C0000F46013819461B68002CF0D18E46EFE723
:1006D000002BE9D0D1F804905F68B9F900C02CF084
:1006E000FF0ACCF3072C4AEA0C0CA9F800C0B7F9B2
:1006F00000C02CF0FF0ACCF3072C4AEA0C0CA7F838
:1007000000C0B9F90290B7F902C0E145CCDD0F464F
:10071000013819461B68C9E70BB11946AFE7012E2E
:10072000C4F800800AD06D00BEF1000F09D07346F6
:100730004FF0000E194674467646A0E77046BDE8B5
:10074000F087CEF800E0FFDE0134A2423FF472AF42
:1007500007461E4668E700BFCDCCCCCC30B58446FA
:100760001068039D00F10804AC4217D21D6805F122
:10077000040E049D754511D91460DCF80020026058
:10078000CCF800001A68141D42601C60B1F900200A
:1007900043681A80B1F902205A8030BD002030BD74
:1007A0000346002210B4D0E9000144685C60416057
:1007B00019680968196002605DF8044B704700BF52
:1007C0004A6810B4446842600A684C6002605DF890
:1007D000044B0860704700BFB1F90220002A09DB12
:1007E00010B912E0006878B14368B3F9023093425F
:1007F000F8D1704740B1B1F9002001E0006818B1AC
:1008000043681B789A42F9D17047704738B100228B
:1008100000E01846036802600246002BF9D17047D9
:100820002DE9F04F07464FF0010C8A46914683B000
:10083000002F50D00022154690460120BCF1000F39
:100840000CEB000339464FF00004B8BF03460244E6
:1008500002E00968013409B1013BFAD1002C3E469F
:10086000E3460F46CDE900C20ADDBBF1000F15D10A
:1008700032463668013C75B12A601546002CF4DC1E
:10088000BBF1000F17DDDFB154B93A460BF1FF3B66
:100890003F68002DF0D190461546EFE7002FE7D0D6
:1008A0004A4679687068D0470028E1DD3A460BF186
:1008B000FF3B3F68DFE7DDE900C2002FBDD101E06B
:1008C000DDE900C20023012A2B6006D047464FEA2B
:1008D0004C0C002FAED13F60FFDE404603B0BDE8B8
:1008E000F08F00BF70B50025C6690446C0E90E55FB
:1008F000AEB101212046FFF7ADFC218F01F018FBBE
:1009000003464FF0FF3123872046FFF7A3FC218FDA
:1009100001F00EFB208725B10135AE42E9D1002060
:1009200070BD012E6087FAD00125E2E72DE9F04F76
:100930002DED028B0023ADF6340D04A905AA0DF1AF
:100940005A00049301F034F8012001F085FA0346BF
:100950000220ADF8183001F07FFA03460320ADF80D
:100960001A3001F079FA03460420ADF81C3001F08A
:1009700073FA034605200D9301F06EFA002808BFB4
:100980000720069B0E90002B40F0F880BDF91C302C
:10099000002B00F08181002200F0010318A910F063
:1009A00002050891194618BF591C10F00400ADF853
:1009B000582040F0CC804FF4FA62B2FBF1F20C9276
:1009C000002B40F09782002D40F06A810E9BDD07DE
:1009D00007D5BDF9182009990C98FFF7D1FD0E9B9A
:1009E0000F909C0762D4590705D50B9ABDF91810D2
:1009F0000C9801F01DF80D9B002B68D00DF120081C
:100A000000F0A8FF002200230D9D0024C8E90C235C
:100A1000D5B1012106A8FFF71DFCBDF8501001F06B
:100A200087FA03464FF0FF3106A8ADF85030FFF7C4
:100A300011FCBDF8501001F07BFAADF85000002C0D
:100A40007ED00134A542E4D100F08EFF00F096FF85
:100A500000218146BDF9180001F016FC0146BDF9E0
:100A60001A0001F011FC0146BDF91C0001F00CFC5C
:100A70000146BDF9300001F007FC47F60533984206
:100A8000824600F01D8240F2978048F60223984289
:100A900000F024824EF6F513984240F027814FF083
:100AA0000308884801F088FC454695E0BDF91A40E6
:100AB000BDF9182010AB0A990C9842EA044200F0E4
:100AC00037FD0E9B580790D40D9B002B96D1012328
:100AD000002400250DF1200803EB83035B000D9338
:100AE00000F038FF0D9F0026C8E90C45CFB1012169
:100AF00006A8FFF7AFFBBDF8501001F019FA034646
:100B00004FF0FF3106A8ADF85030FFF7A3FBBDF85A
:100B1000501001F00DFAADF850004EB30136B74257
:100B2000E5D100F021FF00F029FF00F031FFB7EE22
:100B3000007BB4EEC70BF1EE10FA2DD50D9BCBE781
:100B4000012DADF852003FF47FAF012461E74FF46F
:100B5000FA624E1CB2FBF6F20C92002B40F0A5801C
:100B6000002D40F0C28118AB02FB01310B912DE743
:100B7000012FADF85200D4D00126B8E7012B7FF445
:100B80000AAFBDF91C30002B7FF405AF66234E4A37
:100B9000ADF81C300692FEE6FCEEC07B17EE903AF4
:100BA000012B4FF00A0138BF0123B1FBF3F30D9A7B
:100BB00003FB02220D9223E741F6F203984200F074
:100BC000868144F6AF63984240F090804FF002086F
:100BD0003E4801F0F1FB45463D4F3E68002E00F0D7
:100BE0008A800024C3460395A046254619E0394B68
:100BF000F28F33F81B309A424BD02946364801F029
:100C0000D3FBB6F8403001339BB2A6F840304344E2
:100C1000691C9EB20FFA83F83B688DB29D4280F04A
:100C20002581002306AA05EB051402EB8404206A43
:100C30002E01C207A4F840300FD5284B628F33F83D
:100C40001B309A4209D02946254801F0ADFBB4F883
:100C50004030206A0133A4F84030830713D506AB37
:100C6000741903EB84041F4BA28F33F81B309A4294
:100C700009D029461C4801F097FBB4F84030206A9F
:100C80000133A4F840302E4406AB440703EB86063C
:100C9000ADD4B6F84030BAE76623ADF81C307AE63A
:100CA00018A902FB03130A9390E618AC0994002DCF
:100CB0003FF459AF18AC02FB03430A9300283FF4FA
:100CC00085AE50E7F8A4000215341534C4A4000220
:100CD000000000220C000020B8A500022400002023
:100CE00054A500021800002084A500024FF6FF76EC
:100CF0004FF0FF35824F01F055FB0C9906448148B7
:100D000001F052FB4946804801F04EFB484600F096
:100D10003FFE7E4853EC102B01F046FB484600F0A6
:100D200037FEB5EEC00BF1EE10FAB6B211DD3A683F
:100D30000D9B484602FB03F307EE903AB8EE678B33
:100D400000F026FE88EE007B714853EC172B01F073
:100D50002BFB484600F01CFEB2EE047BB4EEC70B42
:100D6000F1EE10FA00F184800D9B3968694803FBAD
:100D700001F101F019FB6849684801F015FB684969
:100D8000684801F011FB6849684801F00DFB5146C5
:100D9000674801F009FB0E9A3B68D00736B214D5BC
:100DA000002B51D00024DFF8B48104EB041306AA11
:100DB00002EB830321465A8F404601F0F5FA0134D5
:100DC0003B68A4B29C42F0D30E9A910714D500243C
:100DD000002B39D0DFF8888104EB041306AA02EB5C
:100DE000830321469A8F404601F0DEFA01343B68C6
:100DF000A4B29C42F0D30E9A520712D500241BB322
:100E0000DFF8608104EB041306AA02EB830321469A
:100E1000DA8F404601F0C8FA01343B68A4B29C4224
:100E2000F0D38BB10024DFF8408104EB041306AA51
:100E300002EB830321461A8F404601F0B5FA0134D4
:100E40003B68A4B29C42F0D3002E16D0D4BF3948E0
:100E5000394801F0B1FA0DF15A0000F0C9FD002047
:100E60000DF6340DBDEC028BBDE8F08F039D42E71B
:100E7000324801F0A1FA013676E7314801F09CFAD8
:100E8000032DE8D13A680D9B484602FB03F307EEB9
:100E9000903AB8EE678B00F07BFD88EE007B1E4930
:100EA0001F4B00910193274853EC172B01F07CFA5C
:100EB0001D49254801F078FA244801F07DFACAE777
:100EC0004FF00108224801F077FA454684E64FF0DA
:100ED0000408204801F070FA45467DE64FF000080E
:100EE0001D4801F069FA454676E618A802FB03039F
:100EF0000A9338E618AC0994002D3FF467ADD9E6A3
:100F000000000022ECA5000208A6000224A60002B0
:100F10003CA6000294A60002B0A60002C0A60002F1
:100F2000D8A60002E8A6000200A7000208A7000257
:100F300020A700022CA8000290A8000254A60002DC
:100F4000BCA7000208A8000224A8000290A6000284
:100F500098A4000228A5000268A400023CA7000291
:100F60005CA700027CA700029CA700022DE9F04FBD
:100F70008FB08046CDE90113BDF96070002800F004
:100F8000B48215460021C20808F1FF3C120128F086
:100F90000706BCF1060FA4EE307BBBB200972846D3
:100FA000B34692460F460B9208954FEA48040A96BC
:100FB00008F007095AD9AAF1100E4FEA1E1E0EF1C9
:100FC000010E4EF001E0024692ED807E16EF44687D
:100FD000A2EC887E0FF009C0B9F1000F3DD05A464F
:100FE00002EB010E35F81E601E4425F81E60561CEB
:100FF000B04532D90E4435F816E09E4425F816E087
:10100000961CB04529D90E4435F816E09E4425F8C3
:1010100016E0D61CB04520D90E4435F816E09E44A3
:1010200025F816E0161DB04517D90E4435F816E020
:101030009E4425F816E0561DB0450ED90E4435F8ED
:1010400016E006329E44904525F816E005D90A447C
:1010500035F812601E4425F812607E1CB0454144EC
:10106000204405D0BCF1060F3746A4D80022B7E7CC
:101070004FF000090198C6EB867291000438C8460B
:101080008B468446BA4605970391009F2A1904901F
:101090000093101BA2EB000EAEF1020E4FEA5E0EA3
:1010A0000EF1010E4EF001E001460CEB890231F920
:1010B000023B07FB03F342F8043F0FF009C0D045A1
:1010C000B144A0EB0B0208F1010301D09846E0E720
:1010D0004FF000096FEA07570399019A009B521AD3
:1010E000099206936FEA1757134648462246494627
:1010F000CA464C46DDF81480DDF804E0DDF80CB09B
:1011000000960EEB890CA3EB0C03043B9B08013308
:1011100005E0B44250EAD090013B00B20CD0264624
:101120005CF8044B80B22144B942F2DD0A30013B45
:101130004FF0000100B2F2D1009EC245ACEB0B03B0
:10114000B1440AF1010C01D0E246DAE7069B002126
:1011500014460D9301F098F8029A049BA2F1020A3A
:10116000039AA5F1020B9A1ADC46CDF800B0984616
:101170009346069007930AEB04090C960023A9EB0B
:101180000A0EAEF1020E4FEA5E0E0EF1010E4EF0A7
:1011900001E0504661461A4648F8043F31F8023FE4
:1011A00030F8026F13FB0622C8F800200FF00BC0C6
:1011B000C345A444E2D14FF00009DDE90C63484681
:1011C0004946CA464A46DDF800B0DDF804E0CDF8ED
:1011D00030B0DDF80CB0DDF824C0DDF814800096E6
:1011E000059309940EEB8904ACEB0403043B9B08C4
:1011F000013305E0B24250EAD090013B00B20CD07E
:10120000164654F8042B80B21144B942F2DD0A307C
:10121000013B4FF0000100B2F2D1009BC24599445E
:10122000ACEB0B0C0AF1010301D09A46DAE7059BFF
:101230000699DDF830B0009E099C009301F024F877
:101240000021D9468A46009BCDE90C75049A039D7E
:101250000590CDF818B0099390464FF0000BCDE9FA
:101260000012DDF808C0002E14BFB6464FF0010E84
:101270006246494600234EF001E048F804AF178863
:1012800031F8020F224410FB0733C8F800300FF08A
:101290000BC00BF1010B5E450CF1020CE3D8DDE94C
:1012A000001201318E42A144A2EB0502D4D80020E5
:1012B000DDE90C75014602468246DDF818B0099B4F
:1012C000CDF800B0DDF81090DDF80CB0002ECE4661
:1012D00014BFB4464FF0010C06E0414550EAD090EF
:1012E000BCF1010C00B20DD088465EF8041F80B23C
:1012F0000A44BA42F1DD0A30BCF1010C4FF00002A1
:1013000000B2F1D10AF1010A5645A9EB0B09DDD86B
:101310004FF0000A0599DDF800B0D146009300F0C7
:10132000B3FF009B0995CDE9053704990490DDE9E9
:101330000230CDF808A01F468C464FF000089A46B0
:10134000CDE900B1002E14BFB6464FF0010E39466C
:1013500000224EF001E0009D4CF8049FB1F800B06F
:1013600035F8023F214413FB0BF3C3F3830BC3F3A4
:10137000461303FB0B22CCF800200FF011C808F134
:101380000108464507F10207DCD85346DDE900B104
:10139000DDF808A0A3440AF1010A5645A1EB0001BB
:1013A000C7D80020DDE90537014602468146099D80
:1013B000DDF81CA0DDF80CB0002ED64614BFB446F4
:1013C0004FF0010C06E0414550EAD090BCF1010C11
:1013D00000B20DD088465EF8041F80B20A44BA42BB
:1013E000F1DD0A30BCF1010C4FF0000200B2F1D186
:1013F00009F101094E45AAEB0B0ADDD804990093C7
:1014000000F042FFDDE90A890021009B0F46A4EEAF
:10141000303BDDF820C0072E65D9A9F1100E4FEA48
:101420001E1E0EF1010E62464EF001E092ED807E2E
:1014300016FF4468A2EC887E0FF009C0464549D0EB
:10144000424601EB020A35F81AE0AEEB030E25F82E
:101450001AE002F1010EB6453CD28E4435F81EA0CA
:10146000AAEB030A25F81EA002F1020EB64531D2FE
:101470008E4435F81EA0AAEB030A25F81EA002F13F
:10148000030EB64526D28E4435F81EA0AAEB030AF9
:1014900025F81EA002F1040E76451BD98E4435F8BE
:1014A0001EA0AAEB030A25F81EA002F1050E764540
:1014B00010D98E4435F81EA00632AAEB030A9642D4
:1014C00025F81EA006D90A4435F812E0AEEB030E4B
:1014D00025F812E00137B7423144A4449BD300B24F
:1014E0000FB0BDE8F08F0022ABE7014600F0CCFE64
:1014F0000146404600F0C8FE0146404600F0C4FEEA
:101500000146404600F0C0FE00B20FB0BDE8F08FCB
:1015100010B5144682B00091C168D0E9012300687B
:10152000FFF724FD214602B0BDE8104000F0ACBE3C
:101530002DE9F04F002A08BF012287B0002860D0B3
:10154000002406462046013404FB04F5B6EBC50F23
:10155000F8D800FB00F6013921F00307391D4FEAE6
:10156000460B054601EB4606002848D0012400FA48
:1015700004FC05954FF0000A6546CDE9031B00EB1E
:101580000409A6F10208A9EB040E4EF001E0C446DE
:10159000CDE901A4E24604FB02F2D2F1000B1FFAEE
:1015A0008BFB92B2A1B252EA4BB201EB020B1FFAD3
:1015B0008BFB5944BA44C9B2AAEB060A2CF802BF05
:1015C0000134AAF806100FF01BC8DDE901AB0AF1DF
:1015D000010A504500EB0B048144A844D3D1059D7A
:1015E000DDE9031B06EB0B02013A22F00302043291
:1015F000C3E90116DA601D6007B0BDE8F08F8346CD
:10160000F0E74FF0FF35294421F003074FF0020BBC
:101610002846391DBE1DA9E72DE9F047074650B3FE
:10162000002488464FEA8009114608EB80052646CB
:1016300020462246A44608EB840EA5EB0E03043B8D
:101640009B08013305E0924550EAA090013B00B2AF
:101650000CD092465EF8042B80B294446145F2DAD5
:101660000A30013B4FF0000C00B2F2D10136B74214
:101670004D443C44DFD1BDE8F08700BF60B32DE9A5
:10168000F043002406462546C0EB80784FEA400927
:1016900002EB40020F1F4FEA8808A2EB0900A2EB01
:1016A000000EAEF1020E4FEA5E0E0EF1010E844600
:1016B0004EF001E007EB84013CF9022B03FB02F240
:1016C00041F8042F0FF009C00135AE423444A0EBBD
:1016D0000802E2D1BDE8F083704700BF002873D054
:1016E000A4EE302B1FFA82FC00222DE9F04F0C46AD
:1016F0001546C6084FEA40093601471E20F0070A82
:1017000000F00708062F5DD9A6F1100E4FEA1E1E45
:101710000EF1010E23464EF001E093ED807E16EFB0
:101720004468A3EC887E0FF009C0B8F1000F42D0E6
:10173000534603EB020B31F81BE0E64421F81BE0B3
:1017400003F1010E704536D9964431F81EB0E344DA
:1017500021F81EB003F1020E70452CD9964431F8E1
:101760001EB0E34421F81EB003F1030E704522D9E8
:10177000964431F81EB0E34421F81EB003F1040E84
:10178000704518D9964431F81EB0E34421F81EB0D4
:1017900003F1050E70450ED9964431F81EB006339C
:1017A000E344984221F81EB005D9134431F813E000
:1017B000E64421F813E00135A84202444C44A1D18B
:1017C000BDE8F08F0023B4E7704700BF48B32DE9B0
:1017D000F0474FF000080C1F9E1E4FEA400A951E6E
:1017E00004EB800906EB4007A7EB060EAEF1020EF4
:1017F0004FEA5E0E0EF1010E31462A4600234EF0EE
:1018000001E044F8048F32F802CF31F8020F1CFBDC
:10181000003323600FF009C84C455544E4D1BDE8BE
:10182000F0877047002840D02DE9F04F164600227F
:10183000A1F1040B9A46114690461546DC4685B048
:10184000440003EB400906EB40075246CDE9011581
:101850000CEB850B0390A7EB060EAEF1020E4FEAE0
:101860005E0E0EF1010E114630464EF001E00023EF
:101870004BF8048F00920D8830F9022B214412FBA3
:101880000533CBF800300FF00BC0009A02324A4506
:10189000E1D10398DDE90115013188422644054470
:1018A0002744D2D105B0BDE8F08F704700284AD058
:1018B0002DE9F04F8246A1F1040B002102EB400715
:1018C0001646450003EB40098846084654461A462A
:1018D00085B0CDE9021494461446CDE900700BEBB7
:1018E000810A009B6146A3EB060EAEF1020E4FEAA1
:1018F0005E0E0EF1010E30464EF001E000224AF875
:10190000048F0B8830F9027B294413FB07F3C3F3E0
:101910008307C3F3461303FB0722CAF800200FF026
:1019200011C00CF1020CE145DBD12246DDE900706B
:10193000039C0299013084422E4421442F44C8D193
:1019400005B0BDE8F08F704708B500F039FD00F034
:101950003BFD08BD08B500F033FD00F035FD014B3F
:10196000186008BD7C40002008B500F029FD00F09B
:101970002BFD014B186008BD78400020024A034B44
:1019800010681B68C01A7047784000207C40002017
:1019900007EE100A9FED040BB8EE477B27EE000B15
:1019A000704700BFAFF30080FCA9F1D24D62503FF9
:1019B00001220E4B02705A69920315D45A6912F42F
:1019C000003211D1BFF34F8FBFF36F8FC3F8502296
:1019D000BFF34F8FBFF36F8F5A6942F400325A61E1
:1019E000BFF34F8FBFF36F8F704700BF00ED00E074
:1019F00000220E4B02705A69920315D45A6912F4F0
:101A0000003211D1BFF34F8FBFF36F8FC3F8502255
:101A1000BFF34F8FBFF36F8F5A6942F400325A61A0
:101A2000BFF34F8FBFF36F8F704700BF00ED00E033
:101A30002DE9F04F06461046721E012A40F28380BF
:101A400001318BB203F0070107294FF0000C4FF072
:101A50002C08DFF800B1DFF800A1DFF80091C3F334
:101A6000C1043BD0042963D8033901294ED859F861
:101A700024100CF109040133A2429BB236D900EBC9
:101A80000C0E4D1CAEEB0505062D54D808250F781D
:101A900000F80C700CF1010791F801C0042D00F85A
:101AA00007C08F788EF80270CF788EF803700CD054
:101AB00008250F798EF804704F798EF805708F79AC
:101AC0008EF80670C9798EF8071003F00701072910
:101AD000A4460EF80580C3F3C104C3D15BF82410FB
:101AE0000CF109040133A2429BB2C8D8B4452DD2EF
:101AF0000CF101039E42A6EB0C024FF00001BDE881
:101B0000F04F38BF0122604400F052BC104901334D
:101B100051F824100CF10504A2429BB20CF101070C
:101B2000E4D90D7800EB0C0E00F80C500425B3E757
:101B30005AF824109DE70D68496840F80C500825B4
:101B4000CEF80410C1E74FF0000CD1E7BDE8F08FEC
:101B500068000020380000204800002058000020C5
:101B6000036884461878002800F0B5802C2800F01F
:101B7000B0802B3830B40E2828D8DFE800F0922748
:101B800092332708080808080808080808000868A9
:101B90005A1C013008605B78ABB12C2B00F09E80A2
:101BA0002E2B74D0303B092B09D901200B6903443B
:101BB0000B611318CCF8003030BC70478C6012F801
:101BC000013F002BE9D113460420F3E7D1E90020BF
:101BD000441C012001320344C1E90024CCF8003048
:101BE00030BC704708685A1C013008605B786BB1E4
:101BF0002C2B00F0838003F0DF00452809D0303B18
:101C0000092B48D812F8013F002BF1D113460520CB
:101C1000D0E74869531C013048615078002863D0F0
:101C20002C2863D02B280AD02D2808D00120CB687F
:101C30000344CB60931CCCF8003030BC7047C868BC
:101C4000931C0130C860907800284BD02C284FD0CE
:101C50008C693038092804F1010406D9D31C8C6141
:101C6000CCF80030012030BC70478C611C4613F862
:101C7000012FA2F13000002A3CD02C2A3CD00928A8
:101C8000F4D901204B6803444B60A31C92E70B6915
:101C900001330B61B6E701204B6903444B61131814
:101CA00088E708685A1C013008605D7865B32C2D00
:101CB00027D08C68A5F13000092804F101047FF6D3
:101CC0007DAF2E2D03D001208C60023372E78C6033
:101CD00098E700200133CCF8003070471346042009
:101CE000013367E7062065E7032063E70320F7E792
:101CF0000620F5E707205DE70720F1E713460520FA
:101D0000EEE713460220EBE71346022052E700BF3E
:101D10002DE9F0430C4693B00021804691460AA875
:101D200020221E46BDF96870BDF86C50019400F089
:101D30003FFB2022002102A800F03AFB2378002B71
:101D400000F086800AA901A8FFF70AFF12AA02EB99
:101D5000800C019B5CF8402C1B7801324CF8402C25
:101D6000002BEFD1A0444445019417D2012F214606
:101D70004DD1621C9045A8EB040363D3B8F1000F6A
:101D800060D00A7801312C2A1CBF82EA090201F8CE
:101D9000012C013BF5D12378002B55D00AA901A8CD
:101DA000FFF7DEFE12AA02EB8002019B52F8401CF4
:101DB0001B78013142F8401C002BEFD1A045019463
:101DC00012D9012F33D1621C9045A8EB040337D3FD
:101DD000B8F1000F34D0227801342C2A1CBF724095
:101DE00004F8012C013BF6D109AE374601AC294677
:101DF00054F8040F00F028F9014656F8040F00F0DB
:101E000023F9BC420546F2D113B0BDE8F083234666
:101E10001A782C2A1CBF82EA09021A703B444345F7
:101E2000F6D32378002BB9D144450194DCD2237832
:101E30002C2B1CBF734023703C444445F7D3D3E79D
:101E40000123C8E701239CE744450194BBD3CBE7BA
:101E5000A04444458AD3C7E70138042813D8DFE8F3
:101E600000F006090C0F0300084B18687047084B78
:101E700018687047074B18687047074B1868704719
:101E8000064B186870470020704700BF8040002054
:101E900088400020844000203400002030000020D2
:101EA00010B480EA0103214C43F30003234083EA8A
:101EB00051039BB283EA500242F30002224082EABD
:101EC000530292B282EA900343F30003234083EA71
:101ED00052039BB283EAD00242F30002224082EA1C
:101EE000530292B282EA101343F30003234083EAC1
:101EF00052039BB283EA501242F30002224082EA6C
:101F0000530292B282EA901343F30003234083EA20
:101F100052039BB283EAD01040F30000204080EAD5
:101F2000530080B25DF8044B704700BF01A0FFFF73
:101F3000C3B2444A83EA010C4CF3000C0CEA020CD5
:101F40008CEA510189B281EA530C4CF3000C0CEA83
:101F5000020C8CEA510C1FFA8CFC8CEA930141F3C1
:101F60000001114081EA5C0189B281EAD30C4CF393
:101F7000000C0CEA020C8CEA510C1FFA8CFC8CEA67
:101F8000131141F30001114081EA5C0189B281EA39
:101F9000531C4CF3000C0CEA020C8CEA510C1FFA97
:101FA0008CFC8CEA931141F30001114081EA5C0141
:101FB00089B281EAD31343F30003134083EA510348
:101FC0009BB283EA102141F30001114081EA5303DF
:101FD0009BB283EA502141F30001114081EA530191
:101FE00089B281EA902343F30003134083EA51034B
:101FF0009BB283EAD02141F30001114081EA5301F1
:1020000089B281EA103343F30003134083EA51039A
:102010009BB283EA503141F30001114081EA530140
:1020200089B281EA903343F30003134083EA5103FA
:102030009BB283EAD03040F30000104080EA5300A6
:1020400080B2704701A0FFFFC2B28E4B82EA010C42
:102050004CF3000C0CEA030C8CEA510C1FFA8CFCBC
:102060008CEA520141F30001194081EA5C0189B216
:1020700081EA920C4CF3000C0CEA030C8CEA510C34
:102080001FFA8CFC8CEAD20141F30001194081EA6D
:102090005C0189B281EA121C4CF3000C0CEA030CBF
:1020A0008CEA510C1FFA8CFC8CEA521141F30001AE
:1020B000194081EA5C0189B281EA921C4CF3000C60
:1020C0000CEA030C8CEA510C1FFA8CFC8CEAD2113E
:1020D00041F30001194081EA5C01C0F3072289B293
:1020E00082EA010C4CF3000C0CEA030C8CEA510C54
:1020F0001FFA8CFC8CEA520141F30001194081EA7D
:102100005C0189B281EA920C4CF3000C0CEA030CDE
:102110008CEA510C1FFA8CFC8CEAD20141F30001CD
:10212000194081EA5C0189B281EA121C4CF3000C6F
:102130000CEA030C8CEA510C1FFA8CFC8CEA52114D
:1021400041F30001194081EA5C0189B281EA921CE5
:102150004CF3000C0CEA030C8CEA510C1FFA8CFCBB
:102160008CEAD21141F30001194081EA5C01C0F30D
:10217000074289B282EA010C4CF3000C0CEA030C12
:102180008CEA510189B281EA520C4CF3000C0CEA42
:10219000030C8CEA510C1FFA8CFC8CEA920141F37F
:1021A0000001194081EA5C0189B281EAD20C4CF34A
:1021B000000C0CEA030C8CEA510C1FFA8CFC8CEA24
:1021C000121141F30001194081EA5C0189B281EAF0
:1021D000521C4CF3000C0CEA030C8CEA510C1FFA55
:1021E0008CFC8CEA921141F30001194081EA5C01F8
:1021F00089B281EAD21242F300021A4082EA510205
:1022000092B282EA106141F30001194081EA520260
:1022100092B282EA506141F30001194081EA520111
:1022200089B281EA906242F300021A4082EA5102C6
:1022300092B282EAD06141F30001194081EA520171
:1022400089B281EA107242F300021A4082EA510216
:1022500092B282EA507141F30001194081EA5201C1
:1022600089B281EA907242F300021A4082EA510276
:1022700092B282EAD07040F30000184080EA520027
:1022800080B2704701A0FFFFC3B2454A83EA010C48
:102290004CF3000C0CEA020C8CEA510189B281EA81
:1022A000530C4CF3000C0CEA020C8CEA510C1FFA94
:1022B0008CFC8CEA930141F30001114081EA5C013E
:1022C00089B281EAD30C4CF3000C0CEA020C8CEAC4
:1022D000510C1FFA8CFC8CEA131141F300011140E0
:1022E00081EA5C0189B281EA531C4CF3000C0CEAD0
:1022F000020C8CEA510C1FFA8CFC8CEA931141F30E
:102300000001114081EA5C0189B281EAD31343F3F1
:102310000003134083EA5103C0F307209BB280EA15
:10232000030141F30001114081EA53039BB283EAA8
:10233000500141F30001114081EA530189B281EA61
:10234000900343F30003134083EA51039BB283EAF3
:10235000D00141F30001114081EA530189B281EAC1
:10236000101343F30003134083EA51039BB283EA43
:10237000501141F30001114081EA530189B281EA11
:10238000901343F30003134083EA51039BB283EAA3
:10239000D01040F30000104080EA530080B2704734
:1023A00001A0FFFF002070475FF800F0D953000242
:1023B0005FF800F03D5500025FF800F0995400020C
:1023C0005FF800F0DD2B00025FF800F0812D0002C5
:1023D000A4A80002ACA80002B4A80002475EBF395E
:1023E000A4E53A8E848D000052BE99110856D71F7D
:1023F00047070000B0D44033796A14E7C1E3000016
:102400008038010066000000BCA80002C8A80002D5
:10241000D4A80002E0A80002ECA80002F8A800027C
:1024200004A9000210A900021CA9000228A90002A8
:1024300034A9000240A900024CA9000254A90002DC
:082440005CA9000264A900027E
:102448000100000040090000000000000300000037
:10245800941800221800002200000000941800229E
:10246800FC1800226419002200000000000000008F
:102478000000000000000000000000000000000054
:102488000000000000000000000000000000000044
:102498000000000000000000000000000000000034
:1024A8000000000000000000000000000000000024
:1024B8000000000000000000000000000000000014
:1024C8000000000000000000000000000000000004
:1024D80000000000000000000000000000000000F4
:1024E80000000000000000000000000000000000E4
:1024F80001000000000000000E33CDAB34126DE681
:10250800ECDE05000B0000000000000000000000E9
:1025180000000000000000000000000000000000B3
:1025280000000000000000000000000000000000A3
:102538000000000000000000000000000000000093
:102548000000000000000000000000000000000083
:102558000000000000000000000000000000000073
:102568000000000000000000000000000000000063
:102578000000000000000000D8190022FFFFFFFF44
:102588000000020000000000000000000000000041
:102598004801002248010022500100225001002277
:1025A8005801002258010022600100226001002227
:1025B80068010022680100227001002270010022D7
:1025C8007801002278010022800100228001002287
:1025D8008801002288010022900100229001002237
:1025E8009801002298010022A0010022A0010022E7
:1025F800A8010022A8010022B0010022B001002297
:10260800B8010022B8010022C0010022C001002246
:10261800C8010022C8010022D0010022D0010022F6
:10262800D8010022D8010022E0010022E0010022A6
:10263800E8010022E8010022F0010022F001002256
:10264800F8010022F8010022000200220002002204
:1026580008020022080200221002002210020022B2
:102668001802002218020022200200222002002262
:102678002802002228020022300200223002002212
:1026880038020022380200224002002240020022C2
:102698004802002248020022500200225002002272
:1026A8005802002258020022600200226002002222
:1026B80068020022680200227002002270020022D2
:1026C8007802002278020022800200228002002282
:1026D8008802002288020022900200229002002232
:1026E8009802002298020022A0020022A0020022E2
:1026F800A8020022A8020022B0020022B002002292
:10270800B8020022B8020022C0020022C002002241
:10271800C8020022C8020022D0020022D0020022F1
:10272800D8020022D8020022E0020022E0020022A1
:10273800E8020022E8020022F0020022F002002251
:10274800F8020022F80200220003002200030022FF
:1027580008030022080300221003002210030022AD
:10276800180300221803002220030022200300225D
:10277800280300222803002230030022300300220D
:1027880038030022380300224003002240030022BD
:10279800480300224803002250030022500300226D
:1027A800580300225803002260030022600300221D
:1027B80068030022680300227003002270030022CD
:1027C800780300227803002280030022800300227D
:1027D800880300228803002290030022900300222D
:1027E8009803002298030022A0030022A0030022DD
:1027F800A8030022A8030022B0030022B00300228D
:10280800B8030022B8030022C0030022C00300223C
:10281800C8030022C8030022D0030022D0030022EC
:10282800D8030022D8030022E0030022E00300229C
:10283800E8030022E8030022F0030022F00300224C
:10284800F8030022F80300220004002200040022FA
:1028580008040022080400221004002210040022A8
:102868001804002218040022200400222004002258
:102878002804002228040022300400223004002208
:1028880038040022380400224004002240040022B8
:102898004804002248040022500400225004002268
:1028A8005804002258040022600400226004002218
:1028B80068040022680400227004002270040022C8
:1028C8007804002278040022800400228004002278
:1028D8008804002288040022900400229004002228
:1028E8009804002298040022A0040022A0040022D8
:1028F800A8040022A8040022B0040022B004002288
:10290800B8040022B8040022C0040022C004002237
:10291800C8040022C8040022D0040022D0040022E7
:10292800D8040022D8040022E0040022E004002297
:10293800E8040022E8040022F0040022F004002247
:10294800F8040022F80400220005002200050022F5
:1029580008050022080500221005002210050022A3
:102968001805002218050022200500222005002253
:102978002805002228050022300500223005002203
:1029880038050022380500224005002240050022B3
:1029980043000000000000000000000000000000EC
:1029A800000000000000000000000000000000001F
:1029B80043000000000000000000000000000000CC
:1029C80000000000000000000000000000000000FF
:1029D80043000000000000000000000000000000AC
:1029E80000000000000000000000000000000000DF
:1029F800430000000000000000000000000000008C
:102A080000000000000000000000000000000000BE
:102A1800430000000000000000000000000000006B
:102A2800000000000000000000000000000000009E
:102A3800430000000000000000000000000000004B
:102A4800000000000000000000000000000000007E
:102A5800430000000000000000000000000000002B
:102A6800000000000000000000000000000000005E
:102A780075A000024D95000200000000E0B50002BC
:102A8800D8AD0002E8AB0002E8AB0002E8AB0002F8
:102A9800E8AB0002E8AB0002E8AB0002E8AB0002DA
:102AA800E8AB0002E8AB0002FFFFFFFFFFFFFFFFFC
:102AB800FFFFFFFFFFFF00000100415343494900AA
:102AC80000000000000000000000000000000000FE
:102AD8000000000000000000000041534349490085
:102AE80000000000000000000000000000000000DE
:0C2AF800000000000000000000000000D2
:102B0800F1EE103A43F08073E1EE103A704700BFDF
:102B18000348044B834202D0034B03B11847704764
:102B2800A81B0022A81B002200000000064B074932
:102B3800C91A891048BF0131491003D0044B0BB1A1
:102B480001481847704700BFA81B0022A81B002295
:102B58000000000010B5064C237843B9FFF7D8FFF2
:102B6800044B13B10448AFF300800123237010BD58
:102B7800F01600220000000028F1C90208B5054B34
:102B88001BB105490548AFF30080BDE80840FFF7D1
:102B9800CDBF00BF00000000F416002228F1C902D2
:102BA80070B500F013FAEFF3118C002383F3128849
:102BB800064E0130D6E9004541F10001021941EB0A
:102BC8000503C6E900238CF3118870BD1017002295
:102BD800704700BF2DE9F84FEFF31187002383F307
:102BE800128800F0F7F9274D04462B7E0E46ABB14C
:102BF80000F0E4F9E8B9D5E90023101946EB030120
:102C0800D5E90223904271EB0303ACBFC5E9020189
:102C1800D5E9020187F31188BDE8F88F03F0FF08B2
:102C2800EFF3108972B600F0C9F980B989F31088FA
:102C3800E1E700F0CFF980460E4600F0C7F9441CE2
:102C480041F1000314EB080446EB0306D3E700F058
:102C5800C7F900F0BBF9EFF3118488F31288D5E9BE
:102C680000AB013041F1000110EB0A0241EB0B030C
:102C7800C5E9002384F3118800F0ACF904460E4638
:102C8800D4E700BF1017002270B500F09FF900F0DC
:102C98008FF9224A07EE900A90428CBF0022012247
:102CA8001F4BF8EE676A5A765A7E62B39FED1D6A2B
:102CB800B6EE007AC6EE267A77EE877AFDEEE77AE8
:102CC800C3ED047A184AA2FB002080095861EFF38B
:102CD8001186002383F31288144C2360FFF77AFFD0
:102CE8000546BFF34F8FBFF36F8F00BFBFF34F8F02
:102CF800BFF36F8FFFF76EFF2368401BC01A206079
:102D080086F3118870BD9FED0A7AF6EE007AE6EE3A
:102D1800877AFDEEE77AC3ED047AD3E73F420F00E6
:102D28001017002200247451D34D62100C17002292
:102D3800BD37863D70B5EFF31186002282F3128805
:102D48000A4D287600F0A4F8044600F049F986F305
:102D58001188FFF799FF00220023C5E90023C5E980
:102D68000223FFF735FF204670BD00BF1017002271
:102D78000120FFF7DFBF00BF08B5034A00235269EF
:102D880002F064F808BD00BF101700223D4B1B6B12
:102D98009B065CD5D0B53C4BD3F8C02C002A57DB3A
:102DA800394AD2F8003E13F0FE0F00D1D0BDD2F858
:102DB800801C8E0709D50226344CC2F8806CD4E9F1
:102DC80000673046791CC4E9000113F0FC0FEDD010
:102DD8002D4AD2F8801C0C0709D508262B4CC2F8BE
:102DE800806CD4E902673046791CC4E90201DAB282
:102DF800052ADBD92449D1F8800C800635D4062A67
:102E0800D4D0214AD2F8C01C49060BD540211F4C0A
:102E1800C2F8801CD4E9060110F5803641F100079C
:102E2800C4E9066713F0F80FC0D0174BD3F8C02CCD
:102E38001206BBD58022154CC3F8802CD4E9082390
:102E480012F5803043F10001C4E90801D0BD704794
:102E58004FF00042C3F8802CFFF7A2FE0A4AD2F8CE
:102E6800003E13F0FE0FA1D0A1E72020074CC1F8C7
:102E7800800CD4E904673046791C062AC4E90401A9
:102E8800BFD1D0BD00ED00E0003000E030170022D7
:102E9800454BD3F8000E10F4804072D0F0B4EFF335
:102EA800108072B64FF00042D3F8041E21F00101E1
:102EB800C3F8041EC3F8202CC3F8602CD3F8041EF2
:102EC80041F00401C3F8041EC3F8802CD3F8042E83
:102ED80042F00202C3F8042ED3F8002E12F0FE0FBF
:102EE800D1B21CD0032408251E26022712F0FC0F9D
:102EF800C3F80054C3F80464C3F8804CC3F8407C9A
:102F0800C3F8004C0BD00C241327C3F80874C3F87B
:102F18000C64C3F8804CC3F8405CC3F8004C052926
:102F280010D91E250326204B3024C3F81064C3F89B
:102F3800145420250629C3F8804CC3F8405CC3F814
:102F4800004C1FD14FF000410025184C164AD4F808
:102F5800FC3043F0987343F48033C4F8FC30C2F873
:102F6800401CC2F8001CD2F8043EA4F55D4443F0AE
:102F78000103C2F8043E256080F310880120F0BCEC
:102F880070477047402112F0F80FC3F8801CC3F84F
:102F9800401CC3F8001CD5D08022C3F8802CC3F88D
:102FA800402CC3F8002CCDE7003000E000ED00E035
:102FB800014B1868704700BF90180022024BD3F8E5
:102FC800C00CC00F704700BF003000E04FF0FF306A
:102FD80000217047014B0021D86F7047003000E096
:102FE8004FF00042014BC3F8802C7047003000E0DE
:102FF800022801D80020704708B502F041FB0922D9
:1030080003461A604FF0FF3008BD00BF022808B51C
:103018009CBF4FF400534B6002F032FB0922034679
:103028001A60002008BD00BF022801D8012070479F
:1030380008B502F025FB092203461A60002008BDE6
:1030480008B502F01DFB092203461A604FF0FF3055
:1030580008BD00BF2DE9F04F83B0934600914AB3F5
:103068004FF00009234E244F35683C68DFF88CA0E8
:10307800A54204D100BF3C683568AC42FAD0AC42E6
:103088000AEB04011AD305F18008A8EB0408D84517
:1030980028BFD846C4F180020098019202F0FEFAD7
:1030A800019A904517D24444802C20D03C60C144FA
:1030B800CB45DDD8584603B0BDE8F08FA5EB040832
:1030C800D84528BFD84600984246A5EB080502F027
:1030D800E5FA3560EBE7009B08499818A4F18002EF
:1030E8004244019202F0DAFA019A1444DEE700241D
:1030F8003C60DCE7581700225C17002260170022AA
:103108000A4B101E10B41C680CDD0139226A01EB51
:10311800000C11F8013F1371226A936C9B00FCD5D7
:103128006145F6D15DF8044B704700BF08AF000257
:10313800034A044B10681B68C01A18BF0120704767
:103148005C1700225817002238B580220021074852
:1031580002F0F0F90023064D064C074A2B60236065
:10316800D2E90001BDE8384000F0E2BA6017002259
:103178005C1700225817002208AF00020379042BBD
:1031880000D0704710B4114A114C136880687F2B27
:1031980003F10101E05410D00E4B11601A689142FE
:1031A80002D05DF8044B70477F2901F1010200D17C
:1031B80000221A605DF8044B70470020054B106030
:1031C80019680029EDD10122F3E700BF5817002242
:1031D800601700225C17002280B50E460746154688
:1031E8001C4672B61A4802F053F91A4802F050F910
:1031F800384602F04DF93146174802F0E9F8174809
:1032080002F046F9284602F043F9154802F040F961
:10321800144802F03DF9204602F03AF9124B1C68B6
:1032280001224FF48571204600F018FE4FF47A71A0
:10323800C82001F07BFB00224FF48571204600F086
:103248000DFE4FF47A71C82001F070FBE8E700BF6B
:103258006CA900028CA9000294A90002A4A900028A
:1032680088A90002B0A90002FCAE000238B572B607
:10327800524802F00DF9524BDA6A002AC0F29980DE
:10328800DB6A59005DD4EFF308844E4802F000F978
:1032980021684D4802F09CF861684C4802F098F8A3
:1032A800A1684B4802F094F8E1684A4802F090F8A7
:1032B8002169494802F08CF86169484802F088F8A9
:1032C800A169474802F084F83D4DE169454802F09C
:1032D8007FF8454802F0DCF8A96A444802F078F81B
:1032E8006968434802F074F8E96A424802F070F8E5
:1032F800414802F0CDF8EFF30581404802F068F844
:10330800AB6A9A0151D42E4B9B6ADB0149D42C4BF2
:103318009B6ADD022ED42A4B9B6A1C0326D4284BB9
:103328009B6A58031ED4264B9B6A990316D4244BD8
:103338009B6ADA030ED4224B9B6ADB0505D400BED8
:1033480038BD2F4802F0A4F89DE72E4802F0A0F8F7
:1033580000BE38BD2C4802F09BF8ECE72B4802F081
:1033680097F8E4E72A4802F093F8DCE7294802F0E6
:103378008FF8D4E7284802F08BF82146274802F056
:1033880027F8EFF30A81264802F022F8EFF30981C3
:10339800244802F01DF8EFF30B81234802F018F8D7
:1033A800B9E7224802F074F8B1E7214802F070F852
:1033B800A9E7204802F06CF865E700BFBCA9000245
:1033C80000ED00E03CAA000260AA000270AA000218
:1033D80080AA000290AA0002A0AA0002B0AA0002D5
:1033E800C0AA0002D0AA0002E0AA000204AB0002B0
:1033F80018AB00022CAB000240AB000264AB000229
:103408000CAA0002ACAC000284AC000264AC00025E
:1034180048AC000228AC0002B8AB0002D8AB0002EE
:10342800ECAB000200AC000214AC000294AB00024A
:1034380074AB0002ECA9000230B583B0FFF784FE3C
:103448000020FFF777FC2C4802F022F82B4C2A4D7D
:1034580002E0284602F01CF82146022001F066FA34
:10346800FFF766FE0028F4D0254802F011F8FFF7B0
:10347800B1FB04460D46BFF34F8FBFF36F8F06F0C5
:10348800EBFFBFF34F8FBFF36F8FFFF7A3FB03462D
:103498001C4A1B1B126861EB05051B489C1A65EB4F
:1034A800E27501F0F5FF194801F092FF184801F0A4
:1034B800EFFF22462B46CDE900451649164801F094
:1034C80087FF164B1C6801224FF48571204600F0D7
:1034D800C5FC4FF47A714FF4FA7001F027FA002214
:1034E8004FF48571204600F0B9FC4FF47A714FF41F
:1034F800FA7001F01BFAE6E7D4AC000240420F0074
:10350800FCAC00020C17002290A6000220AD0002BD
:103518003CAD000264AD000270AD0002FCAE0002DA
:10352800022800D070470249024800F0A3BE00BF3D
:1035380048AF0002E017002208B5FFF77DFF002022
:1035480008BD00BF03460020C3E90512704700BF4D
:10355800844610B4006A836823F440138360DCF85F
:103568002040A36C5800FCD5A36823F01003A36087
:10357800DCF82040237FC3F30010DB06FAD4CCE943
:103588000312A36843F01013A3605DF8044B70475F
:1035980084460020CCE90A32CCF82410704700BFDA
:1035A800034670B400251E6A2846B26822F4441403
:1035B80024F01104B460DD601C6A096822F440122A
:1035C80021611B6A9A6070BC704700BF4FF0FF33DF
:1035D8000020C1E9003370478B0784461DD5026A75
:1035E800936823F440139360026A936C5800FCD5E7
:1035F800936823F010039360DCF82000037FC3F383
:103608000012DB06FAD41046CCF81020CB0703D5FD
:1036180000231846CCF8183070470620F6E700BF9C
:103628000346002210B49C6910460C609A615DF84C
:10363800044B704706207047F8B5394B42689A42E8
:103648006BD10446026A936823F440139360026ABC
:10365800936823F010039360026A137FC3F3001585
:10366800DB06FAD40121E3692E4A93F90730580999
:1036780003F01F03203001FA03F342F82030BFF3B0
:103688004F8FBFF36F8FE36993F90930580903F03F
:103698001F0301FA03F3203042F82030BFF34F8FA5
:1036A800BFF36F8F206A836823F480338360E369F4
:1036B80093F90530580903F01F0301FA03F320308A
:1036C80042F82030BFF34F8FBFF36F8FE36993F950
:1036D8000B30580903F01F0301FA03F3203042F8B6
:1036E8002030BFF34F8FBFF36F8FEFF3108681F356
:1036F80010884FF00043E7690B4A97F800C05068FC
:1037080023FA0CF30343536053681E2001F00EF9AB
:1037180086F3108865602846F8BD0720F8BD00BF0D
:103728004249435300E100E0003020400620704742
:10373800F8B500274FF0010E0B78C16103F580033F
:1037480003F556531B02077003624B690D4643622B
:103758008B690446C0E90A738378CE696EF3010366
:1037680083704B78DFF890C3BB4214BF72460222C5
:10377800837862F30103837091F90B308A7A5809D0
:1037880003F01F0120300EFA01F14CF82010BFF3AE
:103798004F8FBFF36F8FCD4903F5C65051F820E026
:1037A80067F3104E41F820E051F82010BB42C0F2F8
:1037B80073811201D2B29C448CF800230127C449BA
:1037C800DFF834E341F8234095F905302A795809A0
:1037D80003F01F0C203007FA0CF74EF82070BFF3E7
:1037E8004F8FBFF36F8FB94803F5C65750F827C0FE
:1037F8002CF4803C40F827C050F827001201002B19
:10380800D2B2C0F27B810EEB030080F800230127BF
:1038180041F8234095F90730DFF8DCE2580903F056
:103828001F0C203007FA0CF7AA794EF82070BFF366
:103838004F8FBFF36F8FA54803F5C65750F827C0C1
:103848002CF4803C40F827C050F827001201002BC8
:10385800D2B2C0F234810EEB030080F800230127B6
:1038680041F8234095F90930DFF88CE2580903F054
:103878001F0C203007FA0CF72A7A4EF82070BFF395
:103888004F8FBFF36F8F914803F5C65C50F82C70CB
:1038980027F4803740F82C7050F82C001201002BC8
:1038A800D2B2C0F206810EEB030080F8002341F883
:1038B8002340EFF31087012181F310884FF0004077
:1038C8002A78844BD0405A6822EA00025A605B6822
:1038D8001E2001F02BF887F310884FF48062236ACA
:1038E8009A606B78E978EA691B02890301F48041E0
:1038F80003F440730B4311785068090601F04071D6
:103908000B435178C90389B20B43517B490501F434
:1039180000110B43216A43F480534B611378991EBD
:10392800012940F2C0800368216A0B61117BAB78E2
:1039380001F0030141F0300133B1022B14BF4FF401
:1039480040734FF480731943937800201B0703F0EA
:1039580080530B43216ACB600123216A886129784F
:103968008B40C3F3090313B1236A5B4959620021F1
:10397800937BD07B127C00F01F0003F0010343EA25
:10398800002302F01F02206A43EA02430363C4E9EA
:103998000311C4E90511226A75895048258190668A
:1039A800E2694A4B92F9052002F5C65053F82050B7
:1039B80061F3104543F8205053F82000BFF35F8FA0
:1039C800012002F01F055209920002F1604202F53F
:1039D800614200FA05F5C2F880511560E26992F972
:1039E8000B2002F5C65553F8256061F3104643F8DD
:1039F800256053F82550BFF35F8F02F01F05520969
:103A0800920002F1604200FA05F502F56142C2F83F
:103A180080511560E26992F9072002F5C65553F8FE
:103A2800256061F3104643F8256053F82550BFF32D
:103A38005F8F02F01F055209920002F1604200FAFE
:103A480005F502F56142C2F880511560E26992F904
:103A5800092002F5C65553F8256061F3104643F86E
:103A6800256053F82530BFF35F8F53099B0002F0A0
:103A78001F0203F16043904003F56143C3F88001DE
:103A88001860174A236A9A60226A137FDB07FCD5FD
:103A9800144B00206360F8BD1349120103F00F00B6
:103AA800D2B20A548AE61149022B114B18BF0B46B1
:103AB8003AE7104803F00F0738440276F7E60D4856
:103AC80003F00F0738440276C9E600BF00600040E3
:103AD800701800220030204000001F1F1000079DB2
:103AE800110401004249435314ED00E004FF00FFB4
:103AF80024FF00FFFCEC00E000E100E0024803F0D6
:103B08000F073844027682E6FCEC00E070B584B01A
:103B1800EFF30383103B2F4A5BB203F5C65152F80B
:103B2800210020F4803042F8210052F821202A4A4E
:103B380052F82340E3691B69002B2CD023690BB191
:103B480004B070BD226A0021936823F4801343F403
:103B580000139360636AE160002BF1D0A56A6E469A
:103B6800002D2ED095E80F0086E80F000022802354
:103B7800E16928460978AA6029602B71E36AEB603D
:103B8800636A9847A46A002CDAD096E80F0084E8A4
:103B98000F0004B070BD2369226A002BD3D0A3782C
:103BA800E16803F00303022B0DD00B781371A278A0
:103BB800D4E9031302F003029B1A1144C4E9031366
:103BC800BDE73546D2E70B8823F4DC439BB253604C
:103BD800EDE700BF0060004070180022F0B587B024
:103BE800EFF30383103B354A5BB203F5C65152F835
:103BF800210020F4803042F8210052F82120304A78
:103C080052F82340A27802F00303022B236A0CBF68
:103C18001D681D78A3690CBFC5F30805EDB20195B1
:103C2800E3B9636AC3B1A66A02AF002E41D096E831
:103C38000F0087E80F000423E26930461278B56068
:103C480032603371E36AF360636A9847A46A1CB10F
:103C580097E80F0084E80F0007B0F0BD02F00302F8
:103C680001A9606901F01AFDD4E90513A27802F0F0
:103C7800030211449B1AC4E90513002BECD1636AB3
:103C8800002BE9D0A56A02AFADB195E80F0087E82F
:103C98000F0000220123E16928460978AA602960FB
:103CA8002B71E36AEB60636A9847A46A002CCFD152
:103CB800D2E73E46BFE73D46EBE700BF0060004065
:103CC80070180022F0B585B0EFF303831A4A103B51
:103CD8005CB252F824502A6A936823F4401323F004
:103CE800100393606B6AC3B1AE6A6F4616B396E869
:103CF8000F0087E80F0000220223E969304609789F
:103D0800B26031603371EB6AF3606B6A9847AD6AF1
:103D18001DB197E80F0085E80F00084A04F5C6535F
:103D280052F8231021F4803142F8231052F823303E
:103D380005B0F0BD3E46DEE7701800220060004086
:103D48002DE9F04184B0EFF303832A4A103B5CB2BB
:103D580052F82450AB78296A03F00303022B0CBFF6
:103D68000E680E788A6C08BFC6F30806C2F30073A3
:103D7800C2F300604FEA031343EA4013C2F3C06280
:103D880043EAC20018BFF6B2DA06844604D58B6C43
:103D98001B0458BF40F0400C8B6E43F0C8538B6631
:103DA8006B6ABBB1AF6AE84617B397E80F0088E8BB
:103DB8000F00EB6938461B78BE603B6087F804C08B
:103DC800EB6AFB606B6A9847AD6A1DB198E80F0013
:103DD80085E80F00084A04F5C65352F8231021F469
:103DE800803142F8231052F8233004B0BDE8F08146
:103DF8004746DEE7701800220060004000220346B4
:103E080010461A60704700BF10B40B0A064C1B011D
:103E180053FA81F154F821300020C3F340035DF8D0
:103E2800044B1370704700BF00084040090A49015D
:103E380001F1804101F580014B6800201380704733
:103E4800090A490123EA020C01F180411A4001F5EF
:103E5800800142EA0C4200208A607047002001235A
:103E68008242CAB203FA02F39AB24FEA034308BF86
:103E78001A460B0A5B0103F1804303F580039A603D
:103E8800704700BF10B4090A490101F1804101F5EA
:103E980080010C6802EA030C4CEA040C62EA030293
:103EA80002EA0C020A6000205DF8044B704700BF6C
:103EB800090A490101F1804101F580014B680020A0
:103EC800C3F30F4313807047012310B44FEA112C3A
:103ED8004FEA4C1C0CF1804C0CF5800CDCF80440CB
:103EE800C9B28B4099B203EA14435B1AB3FA83F35D
:103EF8005B0900205DF8044B13707047090A4901FB
:103F080023EA020C01F180411A4001F5800142EADE
:103F18000C420020CA60704701200B0A5B0103F1C4
:103F2800804303F58003C9B28840D968012A4FEA63
:103F3800004C13BF814321EA0C01014341EA0C0103
:103F48000020D960704700BF2DE9F84380460088FB
:103F5800002800F08E80002440F20246964D974FCC
:103F680005E0B8F800000134A04240F28280D8F899
:103F780004104FEAC40901EBC4039A88B24241D045
:103F880040F203418A421DD040F204418A42E8D1FE
:103F98001B6803F0B853B3F1807F95F84C3C52D0BE
:103FA8005B0700F1E58097F84430DB09D9D097F832
:103FB8004430012123F08003C82087F8443000F002
:103FC800B5FCCEE71B6803F0B853B3F1807F95F8D2
:103FD8004C3C67D0990700F1B480784B93F8423095
:103FE800DB09BED0754A012192F84230C82023F07F
:103FF800800382F8423000F099FCD8F804304B4432
:104008009A88C1E751F8343003F0B853B3F1807F90
:1040180095F84C3C2FD0DB0700F1B780674B93F83D
:104028004030DB099FD0654A012192F84030C82012
:1040380023F0800382F8403000F078FCD8F8043090
:104048004B449A889CE75A076ED597F84430DB09A9
:1040580087D197F84430C82043F08003012187F8BE
:10406800443000F063FCB8F800000134A0423FF689
:104078007EAFBDE8F883DA0741D597F84030DB0911
:104088007FF471AF4D4A012192F84030C82043F0C7
:10409800800382F8403000F049FCD8F804304B44E3
:1040A8009A886DE7980714D597F84230DB097FF4B2
:1040B80058AF424A012192F84230C82043F08003A9
:1040C80082F8423000F032FCD8F804304B449A8829
:1040D8005AE7012000F0DAFC95F84C3C012043F047
:1040E800020385F84C3C00F0A1FC344B93F84230B5
:1040F800DB09DED0D8F804304B449A8844E7012025
:1041080000F0C4FC012095F84C3C034385F84C3C76
:1041180000F08CFC294B93F84030DB09B2D0D8F87A
:1041280004304B449A882BE7012000F0AFFC95F847
:104138004C3C012043F0040385F84C3C00F076FC2D
:1041480083E7012000F0A2FC95F84C3C012003F025
:10415800FD0385F84C3C00F069FC184B93F842309D
:10416800DB097FF43FAFD8F804304B449A880BE75B
:10417800012000F08BFC95F84C3C012003F0FB0378
:1041880085F84C3C00F052FC0DE7012000F07EFC65
:1041980095F84C3C012003F0FE0385F84C3C00F0F8
:1041A80045FC064B93F84030DB097FF43CAFD8F868
:1041B80004304B449A88E3E600E0014000202040A8
:1041C80070B50546FFF7C0FEEFF31082012383F3B5
:1041D8001088254E33681BB9402024490B75087593
:1041E80033680133336082F310882B880022FBB1D7
:1041F8001F4C6B6803EBC20053F83210838811F42C
:10420800803F4FEA132EDBB221F4803003EB0E1C03
:1042180021D054F82C30013223F4803344F82C3068
:1042280044F82C0044F82C10298893B29942E0D81D
:10423800EFF31082012383F31088336813B13368D6
:10424800013B336033681BB9802008490B7508753A
:1042580082F3108870BD44F82C102988013293B27B
:104268009942C6D8E4E700BF6C180022000D404010
:104278000008404008B5034B03600846FFF7A0FF5D
:10428800002008BD54524F5008B50846FFF798FF64
:10429800002008BD70B5012686B001AB03A80C4606
:1042A80015460493ADF80C60ADF808100192FFF7BD
:1042B8004BFEEFF3108186F310881D4B1A681AB96C
:1042C8001C480275402202751A6801321A6081F38F
:1042D8001088E9034FEA1422E4B219D411011648F0
:1042E8000A1940F82250EFF31082012181F3108857
:1042F800196811B11968013919601B681BB9802048
:104308000C490B75087582F31088002006B070BD43
:104318000948110104EB021250F8226026F4803695
:1043280040F8226025F4803640F82260D7E700BFC5
:104338006C180022000D4040000840401D4A92F8C9
:104348002630928CDBB202F00F02A2F10801032999
:104358002BD8DFE801F020160C021749174A51F84C
:104368002330A2FB03231B09154A13607047124927
:10437800124A51F82330A2FB0323114ADB081360C9
:1043880070470D490D4A51F82330A2FB03230C4A0C
:104398009B08136070470849084A51F82330A2FB6C
:1043A8000323074A5B0813607047034951F8233019
:1043B800D340D9E700E00140C0160022ABAAAAAA60
:1043C80090180022704700BF4AF20351F8B5594BC4
:1043D800594AB3F8FA43A3F8FA1353680746D903BE
:1043E800A4B21AD5544B00255A68920329D5002641
:1043F800504A524992F8753092F86D2003F00F0335
:1044080002F00F0251F82330072A00F28E80DFE80D
:1044180002F0292929888A828486EFF310860125EB
:1044280085F31088536843F48033536053681E2023
:10443800294600F07BFA86F310883F4B5A689203AE
:10444800D5D4EFF31086012181F310885A6842F41D
:1044580000325A605B681E2000F068FA86F3108804
:104468000226C5E7012101FA02F2B3FBF2F30121AA
:10447800334AA2FB03239B0C03FA01F000F056FA1F
:104488002C4A92F8753043F0400382F8753092F860
:104498007530DB09FBD07B78264982F86D303B7894
:1044A80043F0400382F875303B7882F8753091F814
:1044B8007530DB09FBD135B9BEB91E4B44F4254430
:1044C800A3F8FA43F8BDEFF31085012181F31088B2
:1044D800194B5A6822F480325A605B681E2000F03B
:1044E80025FA85F31088002EE7D0EFF31085012117
:1044F80081F31088104B5A6822F400325A605B68C6
:104508001E2000F013FA85F310880A4B44F4254462
:10451800A3F8FA43F8BD0322A7E70522A5E70A2274
:10452800A3E70622A1E708229FE71021083A01FA2B
:1045380002F29AE700E0014000302040C016002255
:1045480083DE1B43000000004AF203529FEDB24B8A
:104558009FEDB35BB84BB948B94930B5C3E9080119
:10456800B84CB9499FEDB06B9FEDB17B9962A4F847
:10457800FA23A3EC045F83B083ED007FFFF7DEFE30
:1045880009230A2284F8502A84F8A23094F8003CBF
:1045980023B994F8013C980700F03981A94C94F8A4
:1045A800003C002B00F028810022A64B83F8012C48
:1045B80083F8002C0023A34A82F8323092F83C306A
:1045C8001907FBD549F2025540F2374400204FF64F
:1045D800021140F25133C2F8C850A2F84E4082F896
:1045E8004A00C2F8AC10A2F84C30BFF34F8FBFF3AB
:1045F8006F8F964B596921F400315961C3F8500205
:10460800BFF34F8FBFF36F8F91490B6823F440536B
:104618000B60BFF34F8FBFF36F8F0120137D01F144
:10462800C04160F3020313750B7DDA06FCD4884A97
:10463800136843F440531360BFF34F8FBFF36F8F7A
:10464800A2F57342536913F4003311D1BFF34F8FAE
:10465800BFF36F8FC2F85032BFF34F8FBFF36F8F26
:10466800536943F400335361BFF34F8FBFF36F8F28
:104678000023744A82F82A3092F83C309B06FBD516
:104688000022744B1A701A781A781A785A68FA2A1B
:1046980004D0714959605A68FA2AFBD16D4B9A685F
:1046A8007D2A04D06D4999609A687D2AFBD105223C
:1046B80042F22021634B6A481862998483F82620C5
:1046C800FFF73CFE01211E2000F030F9614A5368D3
:1046D800C3F30903642B84BF01231370FFF72EFE75
:1046E8004AF201535F490B80BFF35F8F01230B72BE
:1046F800BFF35F8F4FF42540524A088082F830306C
:1047080082F8523082F8533092F8743043F0400304
:1047180082F8743092F87430DB09FBD006204A2105
:104728000A23484C82F86C0082F8741082F87430BE
:1047380094F87430DB09FBD14B4B01A81B88ADF80A
:104748000430FFF741FE94F855303E4A43F04003E9
:1047580084F8553092F85530DB09FBD0CA2082F82E
:10476800543082F8550092F85530364903F0BF03AB
:1047780082F8553091F85530DB09FBD191F8573064
:10478800304A43F0400381F8573092F85730DB093C
:10479800FBD0C723002082F8560082F8573092F8E1
:1047A8005730284903F0BF0382F8573091F8573043
:1047B800DB09FBD191F85D30224A43F0400381F8D0
:1047C8005D3092F85D30DB09FBD0C923002082F808
:1047D8005C0082F85D3092F85D301A4903F0BF033F
:1047E80082F85D3091F85D30DB09FBD14FF4254349
:1047F800A1F8FA3303B030BD0121C82084F8001CA9
:1048080000F094F894F8003C012BFBD1CCE64FF46F
:104818007A70FFF7D7FDCDE6006CDC0200127A0053
:104828000080000000366E010080000000CA9A3B3C
:1048380080D1F0085543DE13C01600220065CD1D57
:1048480000A3E11100E00140001C4E0E00ED00E065
:1048580000E001E000C01340FA00001E7D0000E106
:104868003234233200200040B4B4000238B50025A9
:10487800284C0121C82084F8285000F057F884F803
:10488800245094F82430002BFBD194F8243021498B
:1048980043F0020384F8243091F82430C3F3400035
:1048A8009B07F9D41B4A81F8220092F8223003F0C2
:1048B800FF00002BF9D192F84030164960F3C71376
:1048C80082F8403091F84030DB09FBD191F8420082
:1048D800104A63F3C71081F8420092F84230DB09AE
:1048E800FBD192F844000B4963F3C71082F84400E7
:1048F80091F84430C3F3C014DB09F9D1012000F06A
:10490800C5F8054B012083F84C4CBDE8384000F051
:104918008DB800BF0020204000E0014000000000EA
:10492800A0F101000028FBD1704700BF1E4B1F4AB1
:104938001B6800FB01F1934213D302F1854202F593
:10494800071203F5742302F6834203F23F23A2FB06
:1049580003239B0CA3FB01314FF0FF30E1B1FFF7BC
:10496800DFBF4FF47A7210B4114C4FF0FF30B4FB34
:10497800F3F3A1FB02C434B9BCFBF3F080B15DF8DA
:10498800044BFFF7CDBFB1FBF3F1A1FB0212002AE4
:10499800F5D1084620B1F2E71846002BDFD1704761
:1049A8005DF8044B704700BF9018002200127A008F
:1049B80000CA9A3BF8B5002401260D4B0D4FD3F8D9
:1049C8000021D3F82051154006FA04F32B4204D0F5
:1049D80057F82430E0B203B198470134152CF3D1CD
:1049E800034AC2F81051D2F820312B42FBD1F8BD4E
:1049F80000C00040181800220A4B1A8812B10A4950
:104A0800C1F800235A8812B10749C1F804239A88CB
:104A180012B10549C1F80823DB8813B1024AC2F86C
:104A28000C3370471CB2000200C00040EFF3108145
:104A3800012383F31088124B33F8102092B22AB165
:104A480033F81020013A92B223F8102033F81030CE
:104A58009BB293B910B40B4A0B4CB2F8FA3334F842
:104A680010009BB243F4254323EA0003A2F8FA336B
:104A780081F310885DF8044B704781F31088704704
:104A88008018002200E00140B8B4000230B4EFF30F
:104A98001081012383F310880E4A32F810309BB23C
:104AA8006BB90D4C0D4DB4F8FA3335F810C09BB204
:104AB80043EA0C0343F425439BB2A4F8FA3332F8D3
:104AC800103001339BB222F8103081F3108830BCCB
:104AD800704700BF8018002200E00140B8B400020F
:104AE80008B509490A688318B3F5805F03D80748F1
:104AF8000B60104408BD00F0C3FD0C2203461A6089
:104B08004FF0FF3008BD00BF8C180022C0060022FD
:104B180000BE704708B500F037F8FEF70DFDFEE758
:104B2800F8B5174F05463E68A6B17C6806EB460601
:104B380004EB860602E00C34A6420BD0637AAB4243
:104B4800F9D1D4E900020021121A0C3400F0F2FC69
:104B5800A642F3D1BE6896B1FC6804EB061602E0E3
:104B68001034A6420BD0637BAB42F9D1D4E90002E2
:104B7800A168121A103400F091FDA642F3D1F8BDD5
:104B880084B2000200000000A44BA54A2DE9F041C0
:104B98005A61BFF34F8FBFF36F8F1B6803F4700226
:104BA800B2F5801F00F0138113F4600F00F0FB8052
:104BB8009C4A136823F004031360BFF34F8FBFF3BD
:104BC8006F8F4FF47002984B944C0020C4F88820E3
:104BD800A360FEF7A5FC0025FFF7B6FC4AF20251D8
:104BE8004FF42542914B0120A3F8FA1383F8B05AE9
:104BF800A3F8FA23FEF794FC8D4B83F30A88894BBC
:104C08001A68920704D5A268B2F1007F00F0E38029
:104C180000240020FFF784FFFFF790FBFFF726FE34
:104C28000320FFF733FF834B03201C869C861C87D9
:104C38009C87A3F84040A3F84440A3F84840A3F851
:104C48004C40A3F85040A3F85440A3F85840A3F8A8
:104C58005C40A3F86040A3F86440FFF7E7FE032038
:104C6800FFF714FF744B6D4D5C6003209C60DC60A3
:104C78001C61FFF7DBFE714FD5F8C0303E6923F0A9
:104C8800FF0343F04403C5F8C0301EB32346D7F8EA
:104C980014C00CEBC40252685CF83410203A22F0BD
:104CA8001F02500921F01F012030B0EB511F03F102
:104CB800010E41F0010842F001026DD93E695FFA28
:104CC8008EF3B342C5F89840C5F89C801C46C5F8D9
:104CD800A020DED3BFF35F8F05235049C1F894307D
:104CE8004B6A43F480334B62BFF34F8FBFF36F8F30
:104CF8004B6913F4803328D1C1F88430BFF34F8F48
:104D080043F6E076D1F88050C5F34E346401C5F31C
:104D1800C90505F1010E2B464EF001E004EA060034
:104D280040EA8372C1F86022013B0FF007C8203CBB
:104D380014F1200FEDD1BFF34F8F4B6943F480334B
:104D48004B61BFF34F8FBFF36F8F0220FEF7E8FB75
:104D58000120FFF7E5FEBFF34F8FBFF36F8F0024ED
:104D68002E4BC3F85042BFF34F8FBFF36F8F344AB7
:104D7800344B15469B1AA3424FEAA30605DD55F8A6
:104D8800043B01349847A642F9DCFFF735FEBDE83D
:104D9800F041002000F058B85FFA8EF3B3421C4689
:104DA800FFF477AF96E71F4A136843F004031360D4
:104DB800BFF34F8FBFF36F8F4FF0E022936843F438
:104DC80080339360BFF34F8FBFF36F8FF9E61907F6
:104DD8007FF4EEAEE8E601211A695869C2F3C3020E
:104DE800093201FA02F300260027DB0843F005C068
:104DF800E5E802670FF005C0C0F3C303093301FA01
:104E080003F34FF00052DB0843F007C0AFF3008014
:104E1800E2E802670FF005C0FAE600BF00ED00E027
:104E280001020E0000E001E00000000200E0014085
:104E380078000020000D40400040204084B200026D
:104E48003CB700024CB70002704700BF7BB972B98B
:104E58000029BEBF00204FF0004106E008BF00282F
:104E68001CBF6FF000414FF0FF3000F0BFB9ADF14B
:104E7800080C6DE904CE002909DB002B1ADB00F0D1
:104E880035F8DDF804E0DDE9022304B0704740425C
:104E980061EB4101002B1BDB00F028F8DDF804E092
:104EA800DDE9022304B0404261EB4101524263EB69
:104EB80043037047524263EB430300F017F8DDF8F1
:104EC80004E0DDE9022304B0404261EB4101704790
:104ED800524263EB430300F009F8DDF804E0DDE932
:104EE800022304B0524263EB430370472DE9F04FAD
:104EF800099D0E4604460F46002B47D18A42944628
:104F0800B2FA82F35AD943B102FA03FCC3F1200280
:104F18009F409C4020FA02F217434FEA1C461FFAB2
:104F28008CFE220CB7FBF6F106FB117701FB0EF0A5
:104F380042EA0742904208D91CEB020201F1FF370E
:104F480002D2904200F23C813946121AA4B2B2FB56
:104F5800F6F006FB102200FB0EFE44EA0244A645CA
:104F680008D91CEB040400F1FF3202D2A64500F276
:104F78002A81104640EA0140A4EB0E0400211DB12D
:104F8800DC400023C5E90043BDE8F08F8B4205D91A
:104F98000DB1C5E9000100210846F5E7B3FA83F130
:104FA80000294FD1B342C0F00281824240F2FF8013
:104FB8000846002DE8D0C5E90047E5E7002B40F09A
:104FC800AF808A1A4FEA1C4E1FFA8CF70121B2FBF8
:104FD800FEF60EFB1620220C42EA004207FB06F002
:104FE80090420FD91CEB020206F1FF382CBF4FF09C
:104FF80001094FF00009904203D9B9F1000F00F000
:10500800DC804646121AA4B2B2FBFEF00EFB102258
:1050180000FB07F744EA0244A7420FD91CEB04043B
:1050280000F1FF322CBF4FF0010E4FF0000EA742E7
:1050380003D9BEF1000F00F0C9801046E41B40EA16
:1050480006409CE7C1F120048B4006FA01FC00FAF7
:1050580001FE22FA04F7E6408A401F4320FA04F3CF
:105068004FEA174843EA0C031FFA87FC4FEA134933
:10507800B6FBF8F008FB106649EA064600FB0CF997
:10508800B1450ED9BE1900F1FF3A2CBF4FF0010B04
:105098004FF0000BB14503D9BBF1000F00F0A2801F
:1050A8005046A6EB09061FFA83F9B6FBF8F308FB8E
:1050B800136603FB0CFC49EA0646B4450ED9BE1933
:1050C80003F1FF382CBF4FF001094FF00009B44538
:1050D80003D9B9F1000F00F08280434643EA00404B
:1050E800A6EB0C06A0FB028C66454346E14602D3BC
:1050F80007D1C64505D2B8EB02036CEB070C0138A3
:10510800E1465DB1BEEB030266EB090606FA04F45C
:1051180022FA01F3CE401C43C5E90046002133E7DB
:1051280002FA03FCC3F1200299409C40D6404FEAA2
:105138001C4E20FA02F21FFA8CF7B6FBFEF00A4367
:105148000EFB1066110C41EA064100FB07F68E4281
:105158000ED91CEB010100F1FF382CBF4FF00109FB
:105168004FF000098E4202D9B9F1000F34D0404601
:10517800891B92B2B1FBFEF60EFB161142EA014200
:1051880006FB07F191420ED91CEB020206F1FF382B
:105198002CBF4FF001094FF00009914202D9B9F133
:1051A800000F16D04646521A46EA00410FE7841A05
:1051B80066EB030201201746FBE6023E624421E744
:1051C80002396244C1E664440238D3E664440238D2
:1051D80034E7023E6244E6E702386144C8E7023B2E
:1051E8003E447BE702383E445BE700BF704700BFA0
:1051F800024A0349034800F0C9B800BF080000226A
:10520800F57C0002180000220C4B4168994210B549
:10521800044601D002F06AFDA168094B994202D008
:10522800204602F063FDE168064B994204D020460F
:10523800BDE8104002F05ABD10BD00BF941800220E
:10524800FC180022641900222DE9F843314A002590
:10525800314C04233149DFF8D89004F15C00DFF8C1
:10526800D4802F4F2F4E116029460822256065668D
:10527800C4E90335C4E90155C4E9055500F05AF9F4
:1052880004F15800E662C4E90749C4E9098700F057
:10529800FDF9254B2946082204F1C40063672567F8
:1052A800C4F8CC50C4F88050C4E91A55C4E91E5556
:1052B80000F040F904F1680304F1C000C4F8843038
:1052C800C4E92298C4E9247600F0E0F9174B29468E
:1052D80004F596700822C4F8DC30C4F8D850C4F835
:1052E8003451C4F8E850C4E93455C4E9385500F0DD
:1052F80021F904F1D00304F59470C4F8F090C4F8CF
:10530800FC60C4F8EC30C4E93D87BDE8F84300F020
:10531800BDB900BFCC19002294180022F95100022F
:105328000D55000235550002090001001200020067
:10533800A9540002CD54000210B504460A4800F0F2
:10534800A9F9636B23B9094B094A1B68626323B146
:105358000548BDE8104000F09FB9FFF775FF024807
:10536800BDE8104000F098B9DC190022CC190022E1
:1053780011520002014800F08DB900BFDC1900226B
:10538800014800F089B900BFDC1900222DE9F84373
:105398004FF00009074688461646D6E90154013DF4
:1053A8000FD4A389012B08D9B4F90E302146384609
:1053B800013302D0C04749EA0009013D68346B1C3B
:1053C800EFD13668002EE8D14846BDE8F88300BF23
:1053D8000FB4084900B583B0086804AB816853F876
:1053E800042B019300F01CFE03B05DF804EB04B03D
:1053F800704700BF1400002230B5054689B0084642
:105408000C4600F0C1F9214B01220494069304AB29
:1054180081180792019302226B6BAC680590CDE965
:105428000221002B2ED0626EB4F90C30D20701D4C1
:10543800980521D5990406D4626E43F4005322F4EA
:105448000052A3816266284601AA214602F074FD33
:10545800636E00280CBF0A254FF0FF35DA0702D427
:10546800A3899B0502D5284609B030BDA06D00F080
:1054780013F9284609B030BDA06D00F00BF9B4F956
:105488000C30D7E72846FFF757FFCCE708AA0002F9
:10549800024B01461868FFF7AFBF00BF1400002297
:1054A80010B50C46B1F90E1000F0BEF8002803DB69
:1054B800236D0344236510BDA38923F48053A3817E
:1054C80010BD00BF2DE9F0410C46B1F90C101F4684
:1054D8000546CB0516460BD421F480513B4632468F
:1054E8002846A181B4F90E10BDE8F04100F0B2B829
:1054F800B4F90E100223002200F080F8B4F90C1061
:10550800EAE700BF10B50C46B1F90E1000F076F8C6
:10551800421CB4F90C3004D043F480532065A381B5
:1055280010BD23F48053A38110BD00BFB1F90E1044
:1055380000F052B870B5860747D0541E002A3ED0F6
:10554800CAB2034601E0013C39D303F8012B9D0799
:10555800F9D1032C2CD9CDB20F2C05EB052505EB81
:10556800054535D9A4F1100C03F1100E1A462CF09C
:105578000F064FEA1C1CB644C2E90055C2E90255A1
:1055880010327245F8D10CF1010214F00C0F04F03E
:105598000F0C03EB021213D0ACF1040323F0030346
:1055A8000433134442F8045B9342FBD10CF0030428
:1055B8002CB1C9B21C4403F8011BA342FBD170BD36
:1055C80064461346002CF4D1F9E703461446C0E7B5
:1055D8001A46A446E0E700BF38B50022064D044647
:1055E80008462A60FDF704FD431C00D038BD2B682F
:1055F800002BFBD0236038BDD019002238B50C46EB
:1056080084461146074D1A460023204664462B60FF
:10561800FDF716FD431C00D038BD2B68002BFBD0CE
:10562800236038BDD019002238B50C46844611468F
:10563800074D1A460023204664462B60FDF70AFDF5
:10564800431C00D038BD2B68002BFBD0236038BD2D
:10565800D019002238B50C4684461146074D1A4623
:105668000023204664462B60FDF74AFD431C00D00A
:1056780038BD2B68002BFBD0236038BDD019002221
:10568800014B1868704700BF14000022704700BF24
:10569800704700BF704700BF704700BF844641EAAB
:1056A800000313F0030349D1403A23D30B68036086
:1056B8004B6843608B688360CB68C3600B69036188
:1056C8004B6943618B698361CB69C3610B6A036270
:1056D8004B6A43628B6A8362CB6AC3620B6B036358
:1056E8004B6B43638B6B8363CB6BC363403040313D
:1056F800403ADBD230320BD30B6803604B6843600F
:105708008B688360CB68C36010301031103AF3D2D5
:105718000C3205D351F8043B40F8043B043AF9D263
:10572800043208D0D2071CBF11F8013B00F8013B36
:1057380001D30B8803806046704700BF082A13D343
:105748008B07B1D010F00303AED0C3F10403D21A13
:10575800DB071CBF11F8013B00F8013BA4D331F86B
:10576800023B20F8023B9FE7043AD9D3013A11F8EB
:10577800013B00F8013BF9D20B7803704B7843707A
:105788008B7883706046704720F0030110F00300A7
:10579800C0F1000051F8043B00F1040C4FEACC0CB6
:1057A8006FF000021CBF22FA0CF213434FF0010CF9
:1057B8004CEA0C2C4CEA0C4CA3EB0C0222EA030238
:1057C80012EACC1204BF51F8043B0430F4D0C2F101
:1057D800000102EA0102B2FA82F2C2F11F0200EBF2
:1057E800D2007047024B13B1024800F005B8704769
:1057F8000000000079850002002301461A46184679
:1058080002F062BF2DE9F8430646DFF8AC800820B5
:10581800894602F0C1FE0546304600F0F5FBD8F88F
:1058280008305F6827F00307A7F11104A4EB090407
:105838002C44B4FBF5F4013C05FB04F4A54208DC58
:105848000021304602F082FED8F808303B449842E6
:1058580005D0304600F0DEFB0020BDE8F883614249
:10586800304602F073FE01300FD03F1B104AD8F8C3
:105878000830304647F001075F6013681B1B136050
:1058880000F0C8FB0120BDE8F8830021304602F093
:105898005DFED8F80820831A0F2BDADD43F00103E8
:1058A80003495360034B1B68C01A0860D1E700BF67
:1058B800E41900223C0100224801002200297CD082
:1058C8002DE9F0410C46804600F09EFB764F54F8D7
:1058D800043CA4F10805BE6823F001016818426879
:1058E800864222F0030200F08380DE0700EB020C00
:1058F800426033D454F8084CDCF8043007F1080C43
:105908002D1B214403F00103AC68644564D0D5F82D
:105918000CE0C4F80CE0CEF80840002B00F08180C1
:1059280041F001036B600160B1F5007F22D2CB0822
:105938000122490901338A4079680A4357F833102C
:105948007A6007EBC302083AC5E9021247F83350F8
:10595800CD604046BDE8F04100F05CBBDCF80430A7
:10596800DB072BD541F00103B1F5007F44F8043C77
:105978000160DCD3B1F5206F4FEA512353D28B0974
:1059880003F1390003F13802C300F818FB5808384E
:10599800984203D161E09B68984204D05A6822F08B
:1059A80003028A42F7D8D868C5E9023085604046C4
:1059B800DD60BDE8F04100F02DBB7047114407F1F0
:1059C800080C836863453FD0C268DA60936041F091
:1059D80001036B606950A7E7002B5FD10A44D0E947
:1059E8000213CB60996042F001036B60AA50B0E7E4
:1059F800DB070A4407D454F8083CED1A1A44D5E9E1
:105A08000213CB60996042F001036B60274BBD60C5
:105A18001B6893429DD8264B40461968FFF7F2FE53
:105A280097E71144CDE7142B08D9542B1DD80B0B3D
:105A380003F16F0003F16E02C300A6E703F15C00F7
:105A480003F15B02C300A0E741F00103C7E9045575
:105A5800C5E902CC6B6069507BE70121921001FA1D
:105A680002F279680A437A609EE7B3F5AA7F06D8FE
:105A7800CB0B03F1780003F17702C30085E740F20E
:105A88005452934206D88B0C03F17D0003F17C023B
:105A9800C3007AE74FF47E737E2276E741F0010374
:105AA8006B60016055E700BF4801002240010022F9
:105AB800141A002201F10B03162B2DE9F04F0746AB
:105AC80083B023D8102900F2AF8000F09DFA10258A
