:020000040200F8
:10000000684000205153000231530002F13C0002CD
:100010005953000259530002595300025953000228
:100020000000000000000000000000005953000222
:100030009939000200000000595300025953000290
:10004000E150000201500002D15100026152000251
:100050002DE9F04F8DB00546B0F904000B9501284D
:10006000D5F824B074DB421E01200C92002310FA54
:1000700082FE0022F6464FF000094FF000080846C5
:1000800012E000BF00BF00BF706808F101080088DF
:10009000C0F30024BCF1FF3F5AEADA902244013356
:1000A000BEF1010E00D143E00FFA80FC8246BCF1A4
:1000B000FF3F5C4658460FDD2046554600BF00BF57
:1000C0004668AFB27688BE4210D0006868B12FF0A3
:1000D00009C800BF00BF00BF4668DFB236787E4067
:1000E00004D0006808B12FF009C800204FF0000BC1
:1000F0005E46A3462468CBF800600CB12FF009C01F
:100100000028C1D0D0E9006409F10109002E24883B
:1001100004EA542404F00104BCD037680760DBF81B
:1001200000003060CBF80060B4E700BF00BF00BF44
:100130000390C8EB89000C9B8418DBB20B9D01294E
:100140004AF2010902930CDA52E100BF00BF00BF7E
:1001500000230391002401294AF201090293C0F20D
:10016000478101224FF0080C05F128000990049402
:100170000CE000BF00BF00BF059852000028DDF86A
:1001800020B04FF00000386000F0328100210027DD
:1001900000200890069206E0BBF1000F049CDDE908
:1001A00006217546E8D0481C079000265846059160
:1001B0000068013620B1B242FAD1AE46164601E0DF
:1001C000AE4600205946154604E000BF00BF00BF00
:1001D000089217468A468346002E08DC00BF00BFFF
:1001E000012DD9DBBBF1000FD6D0002E4CD0002D55
:1001F00018BFBBF1000F0BD1DAF80010013E5846D2
:100200005246002F40F0EA80E2E700BF00BF00BF87
:10021000DAF80440DBF804100C95B4F800805FEACB
:10022000086025D40A91C8F3C30108F0070001282B
:1002300041EA011130D000284046754638D12229C4
:100240004FF0220051EA808C0B98B5F90020B5F9E7
:100250000230058F0B98D0E90510CDE900C50B9D44
:1002600000F046FDE98F09BBE8871FE000BF00BF33
:1002700008F07F020C88200647D504F07F018A42EF
:10028000BAD9A3E000BF00BFDBF80000013D0026A3
:100290009FE000BF00BF00BFBEF838200998754638
:1002A00000F09EF9A98F002908BFA8874FF0080C1D
:1002B000298F4CF001E0C2B282EA0103C1F34E0182
:1002C0005208DB0718BF81EA09010FF00BC84CF098
:1002D00001E0020A00BF00BF82EA0103C1F34E0140
:1002E0005208DB0718BF81EA09010FF00BC8AE46C0
:1002F000298700F07F0260F306080C9D0A9948F0F8
:10030000800020800C882006B7D48846C4F3C3013F
:1003100004F007000A92012841EA01111CD00028CC
:100320002046754624D122294FF0220051EA808CC4
:100330000B98B5F90020B5F90230058F0B98D0E97C
:100340000510CDE900C50B9D00F0D2FCE98F69B91D
:10035000E8870BE000BF00BFBEF83820099875465B
:1003600000F03EF9A98F002908BFA8874FF0080CBC
:10037000298F4CF001E0C2B282EA0103C1F34E01C1
:100380005208DB0718BF81EA09010FF00BC84CF0D7
:1003900001E0020A00BF00BF82EA0103C1F34E017F
:1003A0005208DB0718BF81EA09010FF00BC8AE46FF
:1003B000298700F07F0160F306040C9D0A9A44F03F
:1003C0008000A8F800008A427FF616AFDBF8000034
:1003D000013D51465A46002F3FF4FAAE3A608A4634
:1003E00083461746002E3FF702AFF9E600BF00BF75
:1003F000DBF80010039FD1E9000243684B604260C4
:100400003BB20A68B3F1FF3F12680A604FF0000187
:10041000016009DDBAB259464B685B88934211D03E
:10042000096869B12FF009C05946029B00BF00BF9F
:100430004A6812789A4205D0096809B12FF009C0BC
:10044000DBF80010DBF8042008271288D6B2130A64
:1004500047F001E0324600BF82EA0405C4F34E04CF
:100460005208ED0718BF84EA09040FF00BC847F0E3
:1004700001E01A4600BF00BF82EA0405C4F34E043F
:100480005208ED0718BF84EA09040FF00BC8096889
:1004900009B12FF023C8DBF8001042684FF0010AC1
:1004A0004FF0000C4B68436004944A600A68026095
:1004B000086008E000BF00BFB8F1000F4FEA4A0A29
:1004C000C7F800C054D04FF0000E00275E464FF032
:1004D000000B03E000BF00BF002EEDD0F0460EF190
:1004E000010E0020344600BF2468013024B182454B
:1004F000FAD1504601E000BF00243146554601E0E4
:100500009B461F460A462646002806DC00BF00BF61
:10051000012DE1DB002EDFD0D0B1002D18BF002E61
:1005200006D11168013834461346C7B9E8E700BF61
:10053000516873684C780C705C781C70B3F90230A9
:10054000B1F902109942ECDD3468013D03E000BFCF
:100550003468013D002011463346002FD0D03B6067
:100560000A4626461F460028D7DCD1E700BF00BF59
:10057000DBF80050049855B3DBF804100823098811
:10058000CFB20A0A00BF00BF43F001E0394600BF06
:1005900081EA0006C0F34E004908F60718BF80EA5A
:1005A00009000FF00BC843F001E0114600BF00BF87
:1005B00081EA0006C0F34E004908F60718BF80EA3A
:1005C00009000FF00BC82D680DB12FF023C80DB036
:1005D000BDE8F08F00BF00BF00BF00BF00BF00BF7D
:1005E0002DE9F04F81B02DED0C8B94B0D0F800A028
:1005F0000346BAF1000F10464AF2010B00F04483A3
:100600004FF200020290D8680A900AF10700CFF674
:10061000FF7220F00700D3E9014841EA0205A0F18A
:1006200008024FEA4A0C00232746039200BF00BF8E
:100630003A461AF001E000BF92ED801E11EE410F24
:10064000A2EC881E1FF009C0013367445345EFD167
:100650000AFB0AF00A9E0AF103071397CDF83480CB
:10066000A2EE10AB04EB4009059506EB800009945F
:100670004E455FEA2F9284425FEA22801AF0C04F13
:100680005FEA0F934FF6FC72CBF6FF723A400FF21F
:1006900050671843531E012297ED001F02EB930889
:1006A000002233464FEA8A070B9707E000BF00BFDE
:1006B00001320B9F52453B44644425D060B14AF05F
:1006C00001E025461E4600BF35F9027B4F4346F840
:1006D000047B0FF007C8EBE748F001E0002627464F
:1006E0001D4600BF00BF00BF20FE664F043663FEFC
:1006F000850FBFEC044F25EE615E71FE4D0FA5EC3A
:10070000045F0FF00FC8D3E74FF000080A9A0020EB
:100710000025002400BF00BF4AF001E01646059BFB
:100720002F4656F8045B2C44BD425FEADF979C429B
:10073000C4BF0A27002438440FF00FC008F1010895
:100740000B9BD0451A44E7D14FF0080EC3B20025E9
:1007500083EA0502C5F34E055B08D20718BF85EA98
:100760000B050FF00BC801914FF0080E80B2000A84
:10077000099E0D9C00BF00BF80EA0501C5F34E0530
:100780004008C90718BF85EA0B050FF00BC80A9B84
:1007900004EB4A0103EB8A0704954B455FEA2F906F
:1007A000BE425FEA2080BCF1000F5FEA5F928B429D
:1007B0005FEA2F91BC425FEA218100240A9B0897DF
:1007C000084340EA0208039806E000BF00BF00BFEC
:1007D0000134664454452BD00A98B8F1000F4FF00D
:1007E000000140F824100FD04AF001E032460D9D80
:1007F00032F9027B35F9020B10FB071143F8241084
:100800000FF00BC0E4E700BF002235460D9F1AF041
:1008100001E000BF00BF00BFB5EC883EB7EC885ECA
:10082000F4EE222E1FF009C00A9840F82420CFE7EA
:10083000DDF8288000214646002000250027059B82
:100840004AF001E0324600BF2C4652F8045B2F44C8
:10085000A5425FEADF949F42C4BF0A2400272044D8
:100860000FF00FC001310B9A51451644E8D14FF0FB
:10087000080EC1B2049B00BF81EA0302C3F34E031A
:100880004908D20718BF83EA0B030FF00BC84FF0DB
:10089000080E80B2000A099A80EA0301C3F34E03EE
:1008A0004008C90718BF83EA0B030FF00BC8BCF15F
:1008B000000F5CEA5CB0AAF101010493A0FB0130D7
:1008C000A2EE10AB0AFB01F1934600285FEA0F90FD
:1008D0001290139820F00300109102EB0C01079185
:1008E000011F21EE6A5E13935842A2EF5225119028
:1008F00001200023009100EB91000C9008E000BF64
:10090000069BE3440133DDF82880534500F07C80EA
:100910000B98089900FB0386069300FB03150798C4
:100920000CFB0300099903FB0AF70F960CFB03125B
:100930000E9586425FEA2F90AA425FEA208908EB73
:100940008707DDF834800020444605E000BF00BF83
:10095000013002345045D3D008EB400213995618A9
:10096000119902EB01065FEA3F9596425FEA9F9676
:10097000BCF1000F56EA458612990E430021012E64
:1009800047F8201014D010990E180F9908EB46065E
:10099000B24252EA868552EA36860235A9420E995B
:1009A0005FEA2F958E425FEA258656EA090613D044
:1009B0004AF001E000225D46264600BF00BF00BFAE
:1009C00035F9021BB6F90030664413FB012247F8E3
:1009D00020200FF00BC8BBE700265D4624EF5461D2
:1009E0000C992AF001E000BFBDEC048F92EC17AF28
:1009F000FBFE286E26EF42681FF00BC0DDF8348046
:100A000047F82060A4E700BF0021424600200025EF
:100A100000244AF20109059F4AF001E0164600BF92
:100A20002B4656F8045B2C449D425FEADF93BC42A0
:100A3000C4BF0A23002418440FF00FC001310B9BE0
:100A400051451A44E8D14FF0080EC1B2049B00BFD3
:100A500081EA0302C3F34E034908D20718BF83EAB1
:100A600009030FF00BC84FF0080E80B2000ADDF842
:100A7000248000BF00BF00BF80EA0301C3F34E0320
:100A80004008C90718BF83EA09030FF00BC8A2EE9C
:100A900010AB0099012021EE6A1EC1460022A2EF90
:100AA00052250D9C049380EF5F4000EB91000C9069
:100AB00087EF5F6008E000BF069AE1440132DDF88D
:100AC0002480524500F08480DDE90A30069200FB64
:100AD0000237089900FB021607980CFB02000F97DB
:100AE0000CFB02810E9602FB0AF287425FEA2F900E
:100AF000B1425FEA208803EB820B0021274603E026
:100B0000013102375145D7D004EB410213988018C8
:100B1000119810445FEA3F9390425FEA9F90BCF1C6
:100B2000000F50EA4380129B184301284FF0000049
:100B30004BF8210014D010980F9E084404EB40009D
:100B4000824252EA808352EA308002339E420E9EF5
:100B50005FEA2F93B0425FEA238050EA080017D083
:100B60004AF001E000204A463D4600BF00BF00BFFA
:100B700032F8023B2E8865447343C3F38306C3F304
:100B8000461316FB03004BF821000FF00FC8B7E720
:100B900000204D4620EF50810C9B2AF001E000BF61
:100BA000BDFC04AF92FC19CF2CEF5AA9BEFF5AC06E
:100BB0000CEF54C1BBFF5AA00AEF56A1FDFE2A0E4E
:100BC00028EF42881FF015C04BF8210098E700BFBE
:100BD0004FF000090020002700224AF2010B019C7F
:100BE0000A9D059900BF00BF4AF001E02E4600BFF4
:100BF0003B4656F8047B3A449F425FEADF938A42C1
:100C0000C4BF0A23002218440FF00FC009F10109E4
:100C10000B9BD1451D44E7D14FF0080EC1B2049B98
:100C200081EA0302C3F34E034908D20718BF83EADF
:100C30000B030FF00BC84FF0080E80B2000A00BF84
:100C400080EA0301C3F34E034008C90718BF83EAD3
:100C50000B030FF00BC80399002100BF00BF00BFBA
:100C600042461AF001E000BF92ED801E11EE441FD3
:100C7000A2EC881E1FF009C00131E0445145EFD1BC
:100C8000D9B21B0A029801E0002100234FF0080EA0
:100C900081EA0002C0F34E004908D20718BF80EA7B
:100CA0000B000FF00BC84FF0080E00BF00BF00BFD5
:100CB00083EA0001C0F34E005B08C90718BF80EA51
:100CC0000B000FF00BC814B0BDEC0C8B01B0BDE8ED
:100CD000F08F00BF00BF00BF00BF00BF00BF00BF5C
:100CE00000000000010000000200000003000000FE
:100CF0002DE9F04F95B091F800900C46DDF878A002
:100D0000CDE90123B9F1000F03904FF00000CDE9C8
:100D1000050011901490CDE907000491CDE9090078
:100D2000CDE90B00CDE90D00CDE90F00CDE91200B2
:100D300010D004AD05AF0DAE2846394600F00CF9D1
:100D4000049956F820200978002902F1010146F89B
:100D50002010F1D104EB0A0B039A02EB0408D845EA
:100D600058EA8B81A1EB0B00012828BF01200AB3B0
:100D7000091AA1EB0B01B1FBFAF10844214600F17D
:100D8000010EF6460198C0B20AE000BF00BF00BFE6
:100D90005144BEF1010E03D10AE000BF00BF00BF05
:100DA0000A782C2AF4D042400A70F1E700BF00BF55
:100DB00094F80090B9F1000F049413D004AD05AF7E
:100DC0000DAE00BF00BF00BF2846394600F0C4F892
:100DD000049956F820200978002902F1010146F80B
:100DE0002010F1D1D84558EA8B81A1EB0B000128E6
:100DF00028BF0120039ADAB1091AA1EB0B01B1FB5C
:100E0000FAF1084400F1010EF6460298C0B207E07C
:100E10005444BEF1010E03D10AE000BF00BF00BF81
:100E200021782C29F4D041402170F1E700BF00BFA8
:100E30001F9800214AF201020DF1340C082505AF7C
:100E40005CF8216045F001E0F4B200BF00BF00BFD4
:100E500084EA0003C0F34E006408DB0718BF50406B
:100E60000FF00BC045F001E0C6F3072400BF00BF40
:100E700084EA0003C0F34E006408DB0718BF50404B
:100E80000FF00BC045F001E0C6F3074400BF00BF00
:100E900084EA0003C0F34E006408DB0718BF50402B
:100EA0000FF00BC045F001E0360E00BF00BF00BFE1
:100EB00086EA0003C0F34E007608DB0718BF5040F7
:100EC0000FF00BC057F8216045F001E0F4B200BF0D
:100ED00084EA0003C0F34E006408DB0718BF5040EB
:100EE0000FF00BC045F001E0C6F3072400BF00BFC0
:100EF00084EA0003C0F34E006408DB0718BF5040CB
:100F00000FF00BC045F001E0C6F3074400BF00BF7F
:100F100084EA0003C0F34E006408DB0718BF5040AA
:100F20000FF00BC045F001E0360E00BF00BF00BF60
:100F300086EA0003C0F34E007608DB0718BF504076
:100F40000FF00BC0013108297FF47AAF15B0BDE86E
:100F5000F08F00BF00BF00BF80B5D0F800C09CF884
:100F60000020002A00F09C800CF1010C4FF0000ED4
:100F700012E000BF00BF00BFCA684FF0060E01328A
:100F8000CA6000BF00BF00BF1CF8012B002A18BFB9
:100F9000BEF1010F00F08C802C2A00F08380BEF19E
:100FA000070FF1D8DFE80EF0080424384048183065
:100FB000EAE700BF00BF00BFA2F13A0313F10B0F35
:100FC0004ED84FF0020E2B2A18BF2D2A4AD02E2AB7
:100FD0005ED14FF0050E45E03A3A8B6912F10A0FE7
:100FE00003F101028A6113D279E000BF00BF00BFA4
:100FF000A2F13A0313F10A0F2AD28B682E2A03F1C9
:1010000001028A6040D06AE03A3A12F10B0F57D9D8
:101010004FF0070EB8E700BF2D2AADD02B2AABD07A
:1010200052E000BF00BF00BF2E2A21D10A69013261
:101030000A6129E000BF00BF02F0DF03452B1FD18A
:101040004A694FF0030E01324A619DE700BF00BFBD
:101050008A684FF0040E01328A6095E700BF00BF36
:101060004FF0040E0A6801320A608DE700BF00BF2E
:101070003A3A12F10B0F2FD94FF0040E84E700BF5C
:101080003A3A12F10B0F23D94FF0050E7CE700BF5F
:101090004A684FF0010E01324A60E3E700BF00BF2B
:1010A0004FF0000E5FFA8EF1C0F800C0084680BD18
:1010B000ACF1010C5FFA8EF1C0F800C0084680BDAB
:1010C0004A6801324A600AE0CA680132CA6006E032
:1010D0004A6901324A6102E00A6901320A614FF04D
:0E10E000010E5FFA8EF1C0F800C0084680BD18
:1010F000B0D44033796A14E7C1E352BE991108565F
:10110000D71F4707475EBF39A4E53A8E848D00009C
:10111000A16600026A6800023F660002D56500020F
:101120004D66000288680002446600023E6A0002C2
:101130009C670002B3680002D3690002476A00029C
:101140005C6B0002DA650002BF640002B664000254
:08115000660000008038010078
:1011580000000300213C0002413C000200000000A6
:04116800400900003A
:10117000844641EA000313F0030349D1403A23D3E4
:101180000B6803604B6843608B688360CB68C36007
:101190000B6903614B6943618B698361CB69C361EF
:1011A0000B6A03624B6A43628B6A8362CB6AC362D7
:1011B0000B6B03634B6B43638B6B8363CB6BC363BF
:1011C00040304031403ADBD230320BD30B68036001
:1011D0004B6843608B688360CB68C360103010310C
:1011E000103AF3D20C3205D351F8043B40F8043BDB
:1011F000043AF9D2043208D0D2071CBF11F8013BDF
:1012000000F8013B01D30B8803806046704700BFA4
:10121000082A13D38B07B1D010F00303AED0C3F16B
:101220000403D21ADB071CBF11F8013B00F8013B95
:10123000A4D331F8023B20F8023B9FE7043AD9D30C
:10124000013A11F8013B00F8013BF9D20B78037029
:101250004B7843708B7883706046704770B4840716
:1012600046D0541E002A41D0CDB2034602E0621E91
:10127000E4B3144603F8015B9A07F8D1032C2ED986
:10128000CDB245EA05250F2C45EA054519D9264674
:1012900003F11002103E0F2E42F8105C42F80C5C75
:1012A00042F8085C42F8045C02F11002F2D8A4F1A2
:1012B000100222F00F0204F00F041032032C13442A
:1012C0000DD91E462246121F032A46F8045BFAD89F
:1012D000221F22F00302121D134404F003042CB158
:1012E000C9B21C4403F8011BA342FBD170BC704778
:1012F00014460346C2E710B541F26C1140F20002F9
:10130000C0F20021C0F200020446FFF731FF40F2B4
:10131000000040F20001C0F20000C0F200012044D1
:1013200000F001F810BD0A460021FFF797BF40F218
:101330000801C0F20001401A40F25001C2F200213F
:101340000860704783B080B581B0844603A80EC0A2
:1013500047F20000C0F20020006803AA6146009234
:1013600000F028F801B0BDE8804003B0704770B5C8
:10137000054647F20000C0F200200468A07880070C
:1013800014D56668287828B12146B0470135002871
:10139000F8D507E00A202146B047B0F1FF3FC4BFAF
:1013A000002070BDA07840F00400A0704FF0FF3026
:1013B00070BDD4D42DE9F04F99B081468078189251
:1013C000800740F1B58518980027D9F804808A462F
:1013D000179011A8821D0C92421E053010920E909B
:1013E0000D91514611F8010B252803D08A4638B9D2
:1013F00000F0A0BD9AF801500AF1020A252D06D18D
:101400004946C04701370028EBD500F08BBD0022CC
:1014100000244FF0000C4FF0000B04E01AF8015BC1
:10142000002D00F02D811FFA8BF61F2E20D8A5F17C
:10143000200010281ED8DFE810F015001D001D0048
:1014400018001D001D001D0014001D001D001D00C2
:1014500011001D00CC001D001D00C9004BF0020B47
:1014600000E0DBE74BF0040BD8E74BF0100BD5E7BF
:101470007F2E0DD8A5F13000092840D8402E80F0ED
:10148000A0800CEB8C014BF0200B00EB410CC5E76E
:10149000A5F14C002E2800F2F480DFE810F08F0058
:1014A000F200F200F200F200F200F200F200F200AC
:1014B000F200F200F200F200F200F200F200F2009C
:1014C000F200F200F200F200F200F200F200F2008C
:1014D000F200F200F200A400F2008F00F2009D0082
:1014E000F200F200F200F200F200F200F2002F002F
:1014F000F200F200F200F200F2002F008EE7A5F1F8
:101500002400562800F2BD80DFE810F08600BB0002
:10151000BB00BB00BB00BB007400BB00BB00BB003A
:10152000A400BB00BB00BB00BB00BB00BB00BB00FA
:10153000BB00BB00BB00BB00BB00BB00BB00BB00D3
:10154000BB00BB00BB00BB00BB00BB00BB00BB00C3
:10155000BB00BB00BB00BB00BB00BB005800BB0016
:10156000BB00BB00BB00BB00BB00BB00BB00BB00A3
:10157000BB00BB00BB00BB00BB00BB00BB00BB0093
:10158000BB00BB00BB00BB00BB00BB00BB00BB0083
:10159000BB00BB006D00BB005800BB006600BB0079
:1015A000BB00BB00BB00BB00BB00BB005700BB00C7
:1015B000BB00BB00BB00BB0057002FE74BF4207BF8
:1015C0002CE704EB840100EB410427E74BF0010B0F
:1015D00024E74BF0080B21E70BF080004BEA80007A
:1015E00040F0800B1AE70BF480704BEA400040F4A7
:1015F000807B13E7002A7FF411AF17983F2E00F18C
:1016000004011791006832D8B0F1FF3F32DD4BF092
:10161000200B0022844601E712B31898402E179041
:1016200017A90D986546CDF83C90C14690465CEAF6
:10163000348200F083FC1798402E4246C84600F1E1
:10164000040117910068DDF83C9050EA358C54EAAB
:101650003084E3E63F2E00F26D844BF0400BDDE674
:10166000624600244FF0000C4FF0000BD6E600223B
:101670000446D3E64BF0280BC0F1000C0022CDE667
:101680000025CDF83CC03AB1189817A917900D98CD
:1016900000F054FCDDF83CC0002C24EAE47E45F068
:1016A000200048BF2BF0400B61281CBFA0F1650152
:1016B000022925D81799612801F1070121F00701B6
:1016C00001F108021792A0EB050291ED000B0A92BE
:1016D00044D15FEA4B6058BF4FF0FF3E11A8D2B231
:1016E0007146764600F0C8FD451C4BF4C05B4FF0D8
:1016F000700C4FF0010EE8B28642D8BF461E5CE087
:10170000A5F16301122900F20A8108230026DFE80F
:1017100011F0350113000601060106010601130050
:101720000601060106010601060161015D010601CF
:1017300006010D0106012E011FFA8BF15FEA0B6015
:1017400000F10C811798021D17920068CA0540F13C
:101750000C81890554BF00B240B206E15FEA4B61DB
:1017600058BF4FF0060E662809D065280FD14BF4FC
:10177000805B76460EF101010023652411E04BF4F5
:10178000005B012266241121764673460AE05FEA77
:101790000E61A0F10204714676464FF0000308BFC7
:1017A0000121002211A8C9B2112928BF112101F07D
:1017B000B6F805464FF0020EA446119B9DF848006E
:1017C000A3F10A0111F1130F38BF4FF0020EA3F17C
:1017D0006401089111F1C70F38BF4FF0030E0F9C41
:1017E000C1074FD15FEA8B716FD41FFA8BF12022B2
:1017F00002EAC10211F0040F5FEA1F9110F00C0F12
:1018000045D11BF4405F0493CDE9062140F02B82C3
:10181000012E4FF0010056EA80801FFA8BF12A0654
:1018200000F06D810E9BEAB2134413F8013C302B9B
:1018300040F006826B1E1A0621D02E460E9DDAB2AB
:10184000154415F8015C302D40F0F981B31E1A06DD
:1018500015D00E9DDAB2154415F8015C302D40F01C
:10186000EE81F31E1A060AD00E9DDAB2154415F861
:10187000015C302D40F0E381351F2A06D2D10025CE
:101880000022DDE12D22002110F00C0FB9D000293B
:101890004FF0030050EA1090844212DD0A9E0D467C
:1018A0005FEA0B7117D4041B934620204946C047BA
:1018B000002800F1378301370134F6D300245A465B
:1018C0000AE000240A9E49B10FE02B22002110F00B
:1018D0000C0FDCD195E7241A294631B91046494648
:1018E000C047002800F11E8301379DF8480046F6E6
:1018F000CA21C0F20021000746F2AF60C0F200200A
:1019000050EA51852878002800F0F982801B49466A
:10191000C0B2C047013701350028F3D502E378286B
:1019200040F09880C5F188032E4653E01798011DBA
:101930001791006846F64241C0F20021002851EAA2
:1019400000855FEA4B6058BF4FF0FF3E2846714666
:1019500000F06AFEDDF83CC0064617E017988905DE
:1019600000F18680011D17910068C11788E04FF6CD
:10197000EF700BEA000B0A2375262BE0179801265F
:1019800011AD011D179100688DF844005FEA0B70DE
:101990000ED4B4450CD9202049466446C0470028DF
:1019A00000F1C082A4F1010C0137B445F3D8B4466C
:1019B0003744ACEB0604002E00F0A18215F8010BB1
:1019C0004946C047013E0028F5D5ABE24BF0100B6D
:1019D000102378264FF6F9700BEA00025FEA0B60DD
:1019E0000B960AD41798011D17910668D1050AD5E0
:1019F000900554BFB6B2F6B205E0179891050AD427
:101A0000011D17910668002156EA010008BF2BF05E
:101A1000160278D10FE00730154620F00700024685
:101A2000416852F8086B17922A4656EA010008BF2F
:101A30002BF0160267D100265FEA4B6062D50021C9
:101A4000012C60DA4FF6E9700BEA00010B9D4806A5
:101A500037D467E025204946C047002800F162825C
:101A600028464946C047023700287FF5BAAC59E2FC
:101A7000073020F007010A46496852F8080B179210
:101A800000295A46CDF82CE048BF42F4806250EA63
:101A9000010322D080EAE17081EAE173B0EBE170EA
:101AA00063EBE17111AC22F010060A23224600F02C
:101AB0006DFB3146061BDDF83CC0DDF82CE0480626
:101AC00030D54FF6FE70764500EA01002BDA002D86
:101AD00008BF21F01100714626E05FEA4B604FF02D
:101AE000000040F19E810021012CDBDA4FF6EE7000
:101AF000DDF83CC000EA0B00DDF82CE014E0002526
:101B000000229EE0002111AC304616467546224662
:101B100000F03CFB3146AE46DDF83CC0061B0B9D99
:101B20004806CED4084631461FFA80FBC0060AD4C8
:101B300040F206401BEA000F5FEA0F9044185FEA8C
:101B40000B7009D526E0002D4FF0010050EA0090FF
:101B500044185FEA0B701DD45FEACB7008D0B6461C
:101B6000644505DA06EB0C00A0EB040E644611E0B8
:101B700064450FDACDF82CE020204946C047002804
:101B800000F1D0810F9801340137A042F4D1DDF883
:101B90002CE004465FEACB601BD440F206401BEA0F
:101BA000000F26D05FEA8B7075464FF02B0058BFB0
:101BB00020205FEA4B51494648BF2D20C0470028EE
:101BC00000F1B0810137AE46F3467546B64514DCE8
:101BD0001CE030204946F346C047002800F1A281AE
:101BE00035B328464946C047002800F19B8102379B
:101BF000DE46F3467546B64508DD30204946C04707
:101C0000002800F18F81013DB542F6DC0F985E455A
:101C1000A0EB040456EACB800744002E00F06F814D
:101C200010984946805DC047013E0028F5D579E10E
:101C30000137DE46F3467546B645DEDCE6E71D466F
:101C4000049BC90652EA508113F1040F08DB83425A
:101C500006DA4BF4005B8B4204DAD8430E1802E03C
:101C60004E1E00E00026A3F57A711FFA8BF409944A
:101C700024055FEA8B400395CDE9011C05940CD443
:101C800011F5FA6F70464FF0050198BF0420002C43
:101C900058BF032101EB000C03E023EAE37000F1DD
:101CA000010CDDF824B0002E079A4FF000050B96CA
:101CB000CBF3001182F0010251EA06900F998318CC
:101CC0006344CB1A53EAC5841BF0090F11D10A9E55
:101CD00084B1604475461044441A20204946C047E8
:101CE000002800F11F8101370134F6D30024AE46ED
:101CF00000E00A9E0798CDF800E00028069805D17C
:101D00004946C047002800F10D8101370598002899
:101D10000ED530204946C047002800F10381C6F1A6
:101D200078004946C0B2C047002800F1FB80023766
:101D3000099800070AD44CB1274430204946C047CF
:101D4000002800F1EF80013CF7D1002409988004BD
:101D500027D49DF849004946C047002800F1E28099
:101D60000B98012857DB2E204946C047002800F178
:101D7000D9800B98384400F1020B0398C5B20020BB
:101D8000471CAF4202D20C99085C00E03020494663
:101D9000C047002800F1C6800B98B8423846EFD102
:101DA00048E0049820EAE076851B0B98C0F1000B10
:101DB0000398C0B20F90701C06D12E204946C04730
:101DC000002800F1AF8001373020002D04D40F9996
:101DD0008D42BCBF0E98405D49465E4506DDC0475A
:101DE00001350137013E0028E5D59BE0C0470028BA
:101DF00000F198800999781CC90640F19180002E65
:101E000040F08C802E204946C047B0F1FF3F40F3A0
:101E10008980023773E00998C00604D407F1010BEA
:101E200008E000213EE62E204946C047002879D42C
:101E300007F1020B02984946801BC0B2C047002838
:101E400070D4049E2B204946002E48BF2D20C04749
:101E5000002E48BF7642002864D4019810F5FA6F2E
:101E600015D844F6D3504946C1F26200A6FB0005DE
:101E7000302000EB9510C0B2C047002852D4A8090A
:101E80004FF47A7100FB11620BF1030506E008982C
:101E90000BF10205324610F1C80F3BD848F21F5033
:101EA0004946C5F2EB101746A2FB0006302000EBB6
:101EB0005610C0B2C047002834D47009642100FB1A
:101EC000117201354CF6CD404946CCF6CC40174650
:101ED000A2FB0006302000EBD600C0B2C0470028AD
:101EE00020D4F008013500EB8000A7EB400202F19E
:101EF00030004946C0B2C047002813D46F1C012CE3
:101F0000FFF66FAA20204946C0470137013C002850
:101F1000F5D507E000980228D4D2E8E70746EEE7B7
:101F20000746ECE799F8020040F0040089F8020047
:101F30004FF0FF37384619B0BDE8F08F022AB8BF1E
:101F400070472DE9F04F42F689084FF0010CC0F2BE
:101F5000010804464FF0010E03E05F789C1C252F1A
:101F600029D1234613F8015B252D01D025B90AE1BB
:101F70006778A31C252F1DD11C4614F8015B252D65
:101F800001D025B9FFE05F789C1C252F13D1234693
:101F900013F8015B252D01D025B9F4E06778A31C67
:101FA000252F07D11C4614F8015B252DD5D0002D17
:101FB000D7D1E8E01C464FF0000A4FF00009002698
:101FC00004E014F8017B002F00F0A980B346BAF1B9
:101FD0001F0F0AD8A7F12005102D09D80CFA05F516
:101FE00015EA080F40F07C8002E0BAF17F0F0AD8B2
:101FF000A7F13005092D3ED80BEB8B034AF0200AE0
:1020000005EB4306DDE7A7F14C052E2D00F2888095
:102010005E46DFE815F067008500850085008500D5
:102020008500850085008500850085008500850088
:102030008500850085008500850085008500850078
:102040008500850085008500850085008500770076
:10205000850067008500700085008500850085008B
:102060008500850085002F0085008500850085009E
:1020700085002F00A5E7A7F12405562D00F250801A
:102080000026DFE805F0334D4D4D4D4D324D4D4DA1
:10209000324D4D4D4D4D4D4D4D4D4D4D4D4D4D4D8B
:1020A0004D4D4D4D4D4D4D4D4D4D4D4D4D4D2F4D7E
:1020B0004D4D4D4D4D4D4D4D4D4D4D4D4D4D4D4D50
:1020C0004D4D4D4D4D4D4D4D4D4D3F4D2F4D384D81
:1020D0004D4D4D4D4D4D2C4D4D4D4D4D2C00FFE773
:1020E0005E466EE74AF4207AFAE76AE7B9F1000F34
:1020F0000FD1D94665E70AF080034AEA830343F02B
:10210000800AEDE70AF480734AEA430343F4807AD5
:10211000E6E7F3457FF455AF6327F14600E000277B
:10212000B9F1000F2FD0F14524D147F02003612BE6
:102130001CBF653B022B05D80B68073323F0070350
:10214000083313E0A7F16303102B0AD8DFE803F08C
:102150000C090909090909090909090909090909EC
:102160000C005FEA0A6309D40B6804330EF1010E18
:1021700004460B609645FFF6F4AE04E00B685FEA98
:102180008A54DAD4F1E7BDE8F04F70472DE9F04703
:1021900003F01F06984691468A4605462846514652
:1021A0003246002300F06EFA044600FB16500F463C
:1021B000A0EB0801092888BF01F13700303089F809
:1021C0000000A81B7AF1000049D320463946324668
:1021D000002300F057FA054600FB16408A46A0EBA4
:1021E0000801092888BF01F13700303089F8010063
:1021F000A01B77F1000036D3284651463246002313
:1022000000F040FA044600FB16500F46A0EB080110
:10221000092888BF01F13700303089F80200A81B77
:102220007AF1000023D3204639463246002300F0DD
:1022300029FA054600FB16408A46A0EB080109284A
:1022400088BF01F13700303089F8030009F1040933
:10225000A01B77F10000A1D24846BDE8F08709F144
:102260000100BDE8F08709F10200BDE8F08709F13F
:1022700003094846BDE8F0872DE9F04F85B05AECD8
:10228000103B4FEADA77CAF30A566FF31F5A077109
:1022900053EA0A0408BF002E0ED040F2FF75AE428A
:1022A0003CD10421002C18BF0821394401710021C0
:1022B000084605B0BDE8F08F002700234FF0000A64
:1022C0000029076037D40D2937D3190F00F1050B0A
:1022D00041EA0A110491190E4FEA1A5441EA0A21FF
:1022E0000391190D4FEA1A4641EA0A310291190C7D
:1022F0004FEA1A3841EA0A410191190B41EA0A5C96
:10230000190A41EA0A6E190941EA0A794FEA1A11D3
:1023100003F00F034FEA1A27009180E04FF60247BF
:10232000002ECFF6FF771CBFA6F2FF370AF5801A02
:1023300000290760C7D5002146E03326A6EB8105BA
:10234000C5F1200613274FF0020CA7EB81072CFAEA
:1023500006F401264FF0000E002F58BF0CFA07F4C8
:1023600058BF06FA07FE06FA05F60CFA05F558BF3F
:10237000002658BF0025D5F100094FF0000868EB92
:10238000040C013D64F100041D4004EA0A04751BBD
:102390007EEB040411D38C00C4F13405D4F1140491
:1023A00023FA05F7C5F120050AFA05F545EA070500
:1023B00058BF2AFA04F5EC0702D09B194AEB0E0A23
:1023C00003EA09030AEA0C0A1F0947EA0A791F0F00
:1023D0001D0B47EA0A1704971F0E45EA0A5C47EAF5
:1023E0000A2703971F0D1D0A47EA0A3702971F0C99
:1023F00045EA0A6E47EA0A4700F1050B13F00F039E
:1024000001974FEA1A174FEA1A544FEA1A464FEA51
:102410001A384FEA1A25009700F0B4802F46991A0F
:10242000092B88BF01F1270303F13001817409F002
:102430000F030D219D1A092B88BF05F127030C29D5
:1024400003F13003437498BF0C210EF00F039D1A63
:10245000092B88BF05F127030B2903F1300303740F
:1024600098BF0B210CF00F039D1A092B88BF05F1B3
:1024700027030A2903F13003C37398BF0A21019B84
:102480003D4603F00F039F1A092B88BF07F127036E
:10249000092903F13003837398BF0921029B03F0DC
:1024A0000F039F1A092B88BF07F12703082903F19F
:1024B0003003437398BF0821039B03F00F039F1A57
:1024C000092B88BF07F12703072903F130030373A2
:1024D00098BF0721049B03F00F039F1A092B88BFA5
:1024E00007F12703062903F13003C37298BF0621C1
:1024F0000AF00F039F1A092B88BF07F1270305294C
:1025000003F13003837298BF0521009B03F00F0392
:102510009F1A092B88BF07F12703042903F1300311
:10252000437298BF042105F00F039F1A092B88BF3F
:1025300007F12703032903F13003037298BF032136
:1025400008F00F039F1A092B88BF07F12703022900
:1025500003F13003C37106F00F0398BF02219A1AEA
:10256000092B88BF02F1270303F130028271012990
:1025700098BF012104F130008BF80000084605B037
:10258000BDE8F08F19F00F0348D10C2946D21EF098
:102590000F0345D10B2943D21CF00F0342D10A2966
:1025A00040D2019B13F00F037FF46DAF0929BFF4F4
:1025B0006AAF029B13F00F037FF473AF0829BFF4D7
:1025C00070AF039B13F00F037FF479AF0729BFF4BB
:1025D00076AF049B13F00F037FF47FAF0629BFF49F
:1025E0007CAF1AF00F037FF485AF0529BFF482AFEB
:1025F00017F00F038CD104298AD215F00F0394D160
:10260000032992D218F00F039CD102299AD206F026
:102610000F0353EA0107A2D10021ABE72F4609E7D8
:102620002F4614E72F461FE7844639B370B500EBF9
:10263000010C4B1EA1F1020ECC1E0022855C85B15F
:10264000934219D085186E7876B1964514D0AE783D
:102650006EB1944210D0EE7866B104329142EDD161
:102660000AE000EB020C07E005F1010C04E005F1C3
:10267000020C01E005F1030CBDE87040ACEB00007A
:102680007047D4D440B584B002AE009600F004F890
:10269000029A039B04B040BD2DE9F04F099D84468A
:1026A00081B1C2B14BB3B1FA81F7B3FA83F6F71B2C
:1026B000202F4FD3002D18BFC5E900C100200021F5
:1026C000BDE8F08FCBB30021002D64D00020C5E918
:1026D00000C1BDE8F08F002B60D0002861D05F1EE4
:1026E0003B4200F08580B1FA81F7B3FA83F6F71B1D
:1026F0001F2FDFD207F1010C3CE0571E3A425DD09C
:10270000B1FA81F7B2FA82F6F71B07F1210CBCF19E
:10271000200F24D0BCF11F0F79D8CCF1200620FA6D
:102720000CF721FA0CF901FA06F5B0403D434FF0E1
:10273000000ABCF1010F2CD07CE0B0FBF2FC002DB4
:102740001EBF0CFB12000021C5E9000100216046FC
:10275000BDE8F08F07F1010CBCF1200F0AD14FF05A
:1027600000094FF0200C0D464FF0000ABCF1010F9C
:102770000FD05FE0C7F11F0720FA0CF621FA0CF921
:1027800001FA07F5B84035434FF0000ABCF1010FDC
:1027900050D100248FE00020BDE8F08F6046BDE8F6
:1027A000F08FB1FBF3FC002D1EBF0CFB13100021BA
:1027B000C5E9001000216046BDE8F08F002D1EBF66
:1027C00000230740C5E90073012A0ED092FAA2F255
:1027D0004F00B2FA82F202F01F03D140D8401F230B
:1027E000934307FA03F343EA000C6046BDE8F08F19
:1027F000002D1CBF07EA0100C5E900C093FAA3F051
:10280000B0FA80F021FA00F00021BDE8F08FACF1C1
:102810002007CCF140044FF0000920FA07F601FA36
:1028200004F52E4300FA04FA21FA07F53046BCF10C
:10283000010FAED02CF001070126023F4FF0000B34
:1028400006EB570E4FEA490444EAD5746D0045EA99
:10285000D0754000E743E943891843EB0708AF1AF6
:1028600064EB0306B8F1000F56EA448457EA458545
:10287000640044EAD5746D0045EAD07540EADA7028
:10288000AE1A6FEA050164EB030789184FEA4000AE
:102890006FEA0401594157EA448956EA4585CC0F4D
:1028A0004BEA4A010027A34640EAD170490041EAB9
:1028B000D87A0FF039C85FEACC711ED06F004FEAAA
:1028C000490147EAD07741EAD571B7EB020C4FEAEC
:1028D000400061EB030EFD4352196FEA010653EB12
:1028E000060240EADA705EEA41895CEA4785D10F68
:1028F00044EA4A0200270C4692464FEADA7141EA5E
:10290000400009994FEA4A02002918BFC1E900595D
:1029100040EA070122F001002043BDE8F08F2DE9D5
:10292000F04FA1B056EC108BB246C6F30A546FF3C9
:102930001F5AF50F58EA0A0708BF002C0ED040F2C4
:10294000FF76B44215D10821002F08BF04210024CE
:1029500029440171204621B0BDE8F08FA91C017106
:1029600030210124417100210160204621B0BDE8E1
:10297000F08FA4F23549002CCDE9062308F00106BA
:102980000495CDE9081006BF4FF6CC39CFF6FF7994
:102990000AF5801A4FEA8A0242EA9870002F1590D1
:1029A0005FEA0F90022C5FEA2F91B9F1000F40EA25
:1029B00001074FEA880014900596139749D44846BA
:1029C00000F021FD0546B9F1030F88BF013D2846FF
:1029D00000F027FD0DF1580B04462846594600F03B
:1029E0000BFE1AA81CA95A460297CDE90010A5EBC8
:1029F00009002044514600F17C034046AB4600F0FC
:102A000031FC8246152D5FD8149F4CF6CD46159D9E
:102A10001EA8CCF6CC460C460090384629463246D5
:102A20004FF0CC3300F072FEDDE91E01820842EA6D
:102A3000817120F0030008444042F8426AD13846D0
:102A4000294600F0F7FC58455FEA3F9012900020BD
:102A500087E0C9F1000B584600F0DCFC044619F190
:102A6000010018BF013CABEB040B584600F0D9FC49
:102A700016A9054658468B4600F03BFD1AA81CA92E
:102A80005A460297CDE90010601B00F17D034046D5
:102A9000514600F0E7FB04EB090B8246012C1BD8E2
:102AA000089B002E069D4CF6CD46CCF6CC4608D0B1
:102AB000DDE91C0201381C9062F100001D9000202D
:102AC00013900120129050E04CF6CD460020CDE945
:102AD0001200CCF6CC4646E0089B4CF6CD46069D4F
:102AE000CCF6CC463E2C25D84FF0FF30B4F1200276
:102AF00000FA04F758BF0027149C58BF9040159A5D
:102B000024EA070722EA000038435FEA1F90129088
:102B1000002011E0059888B91398C043C01965F1E9
:102B2000000100F087FC58455FEA3F9013900020B9
:102B3000129017E000201290139016E047F0020068
:102B4000294600F077FCDDE91C124B1E62F10005FE
:102B5000584553EA21801C9055EA22801D900020A0
:102B6000129013902146089B069D002D0C934AD08D
:102B7000BAF10A0071F1000001D2012037E000270C
:102B80004FF00A0C02204FF064094FF47A7842F2B9
:102B9000107E0A22A2FB0C4507EB870305EB4303DB
:102BA000BAEB040471EB030320D3A2FB093407FB47
:102BB0000944BAEB030371EB040314D3A2FB0834FA
:102BC00007FB0844BAEB030371EB04030DD3A2FB2C
:102BD0000E23043007FB0E37BAEB020371EB070339
:102BE000D8D2013802E0013000E00230089B079A99
:102BF0000BEB02073844B0EBD27FB8BFD00F834253
:102C000053EAB0800C90CDF80CB00DF1680B1D9C10
:102C100016AD9BE8000B00201591149011900B90BD
:102C20002FE01599504632464FF0CC3316AD4FEA9F
:102C3000DB04009500F06AFD1498BB46129910F071
:102C4000FF0FDDE916235FEA1F90014008EB8800C3
:102C50001291404210994942B1EB400F13995FEA3B
:102C60001F9001401391D00840EA437101EB8000AE
:102C7000AAEB4000149011988A4601301190D808B0
:102C800015905846214632464FF0CC330095CDF88A
:102C900034B00E9400F03AFD4046494632464FF0BB
:102CA000CC33DDE9164B0095CDE90F9800F02EFDF1
:102CB000DDE91601E20842EA4B774FEAD109C00884
:102CC00040EA4178B8EB070079EBDB00A9D315990E
:102CD000BAF10A0071F1000001D201203BE00A972D
:102CE00000250A2202204FF00A0C64274FF47A7E56
:102CF000A2FB0C3605EB850406EB4406BAEB030396
:102D000071EB060322D3A2FB073605FB0766BAEB7D
:102D1000030371EB060316D3A2FB0E3605FB0E660A
:102D2000BAEB030371EB06030FD342F210740430C5
:102D3000A2FB042305FB0435BAEB020371EB050388
:102D4000D6D2013802E0013000E002300A9F4CF692
:102D5000CD46CCF6CC460C9A4AEA010313435FEA0F
:102D60001F93904203DD13B901200B905AE713988B
:102D7000C00771D0DDF8408032460F994FF0CC3358
:102D800016AD0095404600F0C1FCDDE91610C8F113
:102D90000003DDF848B0CA0842EA407404EB82023E
:102DA0005242B3EB420F5FD1C208DDF84490DDF828
:102DB00050C0DDE90D01904632464FF0CC33CDF8DE
:102DC00050C0009500F0A2FC1599324616984FF0BD
:102DD000CC3312905046179F009500F097FC4CF6AC
:102DE000CD4216A8009020464146CCF6CC424FF08A
:102DF000CC33DDE91665CDF83C8000F087FCF108A6
:102E000041EA457E14980EEB8101A046ED0810F0D2
:102E1000FF0FAAEB410C5FEA1F90DDE916120BEAE7
:102E2000000B12984CF6CD461595CB0843EA427438
:102E3000C00804EB830340EA47705B4209F10109D3
:102E400016ADF908C8F10007CCF6CC46D208F24618
:102E5000B7EB430FAFD00CE00DF1400BD646DDF8D9
:102E600050C09BE8000B04E0D646DDF84490DDF846
:102E700050C0159A8EEA08010F981346424011433C
:102E80000B9A5FEA0F911143CA07059900295FEA7F
:102E90001F91002A04BF139A11EA02010ED05FFAB3
:102EA0008CF105295FEA0F92042962EA0B025FEABE
:102EB0009F9142EA0E0202EA010C01E04FF0010C80
:102EC000039809EB00051EEB0C0043F10001B0F183
:102ED0000A0271F1000201D2012338E0AE46002659
:102EE0004FF00A0802234FF0640B4FF47A7A42F253
:102EF00010790A25A5FB087206EB860402EB440252
:102F0000C41B71EB02021DD3A5FB0B2406FB0B4473
:102F1000821A71EB040212D3A5FB0A2406FB0A44B1
:102F2000821A71EB04020CD3A5FB0952043306FB91
:102F30000926421B71EB0602DCD2013B02E00133A1
:102F400000E002334CF6CD467546CCF6CC460C9AE2
:102F500093425FEADC82012A079A3AD1069F4FB179
:102F60002A441A44012AD8BF0122089F974257EAEF
:102F7000B2820C920C9A93422BDD05304CF6CD4771
:102F800041F10001CCF6CC474008013B40EAC1705A
:102F9000013510EB51024FEA510142F10002A2FB50
:102FA000077626F0030707EB96074FF0CC36D21BC7
:102FB000821A4CF6CD40CCF6CC4061F10001A2FB68
:102FC000000702FB06724CF6CD46CCF6CC4601FB60
:102FD00006210C9A934253EAB2822BB214B22344D4
:102FE000A3F10108012CC0F2348102F00303099A15
:102FF000CDF84880042C02F105091193149402D2F3
:103000004FF0000AA9E0E31A2244149C02F10408DC
:103010004FF0000A13936422002383460F46FFF704
:1030200031FB420800F0010042EAC17212EB51018B
:1030300041F10001A1FB062323F0030202EB9302FE
:103040000023891A4FF47A7240EA4100394640F071
:10305000300015905846FFF715FB42084CF6CD4658
:1030600042EAC172CCF6CC4612EB510100F00100ED
:1030700041F100024FEA5B0141EAC77111EB5703CE
:1030800043F10003A3FB066525F0030606EB950656
:103090009B1B6FF00206CB1A4CF6CD41CCF6CC410F
:1030A000A3FB011C01EB8105ABEB450545F03005A9
:1030B00008F804598AEA0605159E254409F80560B2
:1030C0004CF6CD46CCF6CC46A2FB065626F00305C0
:1030D00005EB9606A2EB06024CF6CD46CCF6CC46A6
:1030E00040EA42006FF0030282EA0A0240F0300038
:1030F000224409F802004FF0CC304FEA570203FB9C
:1031000000C062F1000202FB06004A0801F0010162
:1031100042EAC07212EB500040F10000A0FB06230F
:1031200023F0030202EB93020023801A42F2107292
:1031300041EA40006FF0010181EA0A0140F03000ED
:10314000214409F8010058463946FFF79BFA0AF175
:10315000040A139A52457FF45EAFDDF844E0DDF8CF
:103160004880149CBEF1000F73D042084CF6CD4746
:1031700042EAC172CCF6CC4712EB51036FEA0A0562
:1031800043F100032544A3FB077626F0030707EB72
:1031900096074E08DB1BD31A4CF6CD42CCF6CC4238
:1031A00066F1000CA3FB0227BEF1010F02EB8206C1
:1031B000A0EB460646F0300609F8056049D04FF00E
:1031C000CC364CF6CD4503FB06734CF6CD47CCF61A
:1031D000CC47CCF6CC450CFB0733570802F0010274
:1031E00047EAC37717EB53034CF6CD4743F100038F
:1031F000CCF6CC47BEF1020FA3FB077626F00307FF
:1032000007EB9607A3EB070342EA4302A4EB0A038A
:1032100003EB090642F0300206F8022C19D06422B2
:103220000023FFF72FFA420800F0010042EAC172C2
:1032300012EB510141F10001A1FB052323F0030230
:1032400002EB9302891A40EA410040F0300006F890
:10325000030C099804990171C0F80080204621B040
:10326000BDE8F08F2DE9F04F8BB0490041EAD074F2
:1032700005931646D2E9002345002846214608AFAB
:10328000009700F043FAD6E90223834606A8894650
:10329000009028462146DDE9087A00F037FA10EB65
:1032A0000708DDE906234AEB010ADDE90801571C9E
:1032B000059C43F10005B8EB00007AEB0100A4F196
:1032C000410455EA338357EA328296E8830017EBCC
:1032D0000807F568049445EB0A0510EB0B0059EB61
:1032E0000100009457F10000CDE9062345F10001EB
:1032F000571C43F10005B0EB080471EB0A04CDF84C
:103300000CB055EA338357EA3282CDF8089000F0CA
:103310001BFADDE91429169BC2E9000143B3D6E983
:1033200000C1D6E902560398B8EB0505DDE906238E
:103330006AEB06066C1E66F10007B0EB0C00029803
:10334000DDF810B08841CDF800B054EA358057EA76
:103350003681571E63F10006B8EB00057AEB0105D4
:1033600057EA328256EA338300F0EEF95F463EE0D8
:10337000DDE906204FEA4804D6E900EC0190059803
:10338000D6E90276A0F14005029800954FEA4A0579
:10339000039945EAD87544EAD0744300E71B65EB0E
:1033A0000606B7F1010B43EAD17366F10000DEEBCC
:1033B000410173EB0C0150EA36815BEA3780B4EBD4
:1033C0000803019F75EB0A035FEA2F937F0043EA2E
:1033D000420347EAD2775A1E67F10006241A8D414C
:1033E00052EA338256EA378300F0AEF9049FDDE9F2
:1033F0000623C9E9000140465146009700F0A4F9B0
:103400000BB0BDE8F08F43F24141C0F201014843E7
:10341000800C704742F6FB61C0F20B014843000D7F
:10342000704749F24F31C0F212014843012101EBCC
:10343000D04070472DE9F04F4CF6CD4E45F629446B
:1034400042F6F50A47F6D50847F6916943F2343B50
:1034500002460020CCF6CC4E4FF03333CCF28F2412
:10346000C8F65C7AC2F2E968C3F6FB29C3F2333BC3
:10347000A2FB0E5C4FF0CC3702FB07C7D5F133350A
:1034800001FB0E7773EB07072ED3A2FB047502FB3B
:103490000A55D7F1333701FB045573EB050722D3E7
:1034A000A2FB087540F63106C1F6AC4602FB065594
:1034B000D7F1333701FB085573EB050716D3A2FB91
:1034C00009754CF67066CDF28826043002FB065270
:1034D00001FB0921B7EB0B0271F133323A46C7D336
:1034E0000138BDE8F08F0130BDE8F08F0230BDE853
:1034F000F08F2DE9F04F87B005464EF64F40C4F6E9
:10350000C4608B46A5FB0001C8081A2100FB01F628
:1035100046F68041C0F2002101EB0010B54209D10E
:1035200090E80E00C0688BE80E00CBF80C0007B0E6
:10353000BDE8F08FD0E9009246F65051C0F200216C
:103540000192D0E90223A81B51F8307001EBC000B2
:10355000446804A800903846214600F0D7F8019B43
:10356000824602A888460090384621464A4600F026
:10357000CDF881460191DDE90201002210EB0A0736
:1035800058EB010842F10000012806D1DDE90401F1
:103590000130049041F1000005902846FFF741FFFB
:1035A00004463046FFF73DFF0199241A48463A4643
:1035B0004346009400F0C8F86FF0030246F620631B
:1035C00002EA9502C0F200239A581E2303EA45033B
:1035D000DA4002F003068019DDE9042341F100011D
:1035E000CBE9000138464146009400F0ADF8CBE944
:1035F000020107B0BDE8F08F2DE9F04F87B08B4690
:103600004EF64F4105461930C4F6C461A0FB0101D6
:10361000C8081A2100FB01F646F67861C0F20021C5
:1036200001EB0010AE4209D190E80E00C0688BE8B3
:103630000E00CBF80C0007B0BDE8F08FD0E900A277
:1036400046F65051C0F200210192D0E90223701BCE
:1036500051F8307001EBC000446804A8009038466F
:10366000214600F053F8804602A80090BAF101020A
:1036700001988946214660F10003384600F046F87B
:1036800004468A46DDE90201002210EB080751EBEF
:10369000090842F10000012806D1DDE904010130EA
:1036A000049041F1000005903046FFF7BAFE06464F
:1036B0002846FFF7B6FE361A204651463A4643469C
:1036C000009600F041F86FF0030246F6687302EAD4
:1036D0009502C0F200239A581E2303EA4503DA40FC
:1036E00002F003054019DDE9042341F10001013036
:1036F00041F10001CBE9000138464146009600F057
:1037000023F8CBE9020107B0BDE8F08FF0B5A2FBCA
:1037100001CEA2FB0075A3FB011415EB0C05DDF82F
:1037200014C051EB0E06294644F100043246E3FB77
:103730000012A3FB0003401956EB030044F1000004
:10374000CCE900203846F0BD10B5DDF808C0CCF15A
:10375000400ECEF1200420FA0CF003FA0EF322FA08
:1037600004F42343DCF1200458BF02FA04F302FA04
:103770000EF201FA04F440EA040058BF0022BCF142
:10378000200458BF21FA04F021FA0CF158BF00219F
:103790001043194310BDD4D440B584B002AE009696
:1037A00000F004F8029A039B04B040BDB0B584B0A9
:1037B0000D4602A980EAE57000911C4682EAE37298
:1037C00085EAE571B0EBE57061EBE57183EAE373DF
:1037D000B2EBE47263EBE473FEF75EFFDDE9022314
:1037E000DDF820C083EAE57382EAE572B2EBE572A8
:1037F00063EBE573CCE90023E21782EAE5725040FF
:103800005140801A914104B0B0BDD4D4D4D4D4D4A2
:10381000F0B581B040F20816EFF31184C2F2002631
:10382000002585F31288012086F8480000F040F951
:1038300043F680404FF00041CEF200009FED261A83
:10384000016044F2402184F31188C0F20F01306915
:1038500000EE100A88425FEA2F9186F84910B8EE10
:10386000400A96F8491080EE012A81EE000A0029EC
:103870009FED1A1A44F6D35102FE000AC1F262010A
:10388000B6EE002AA0FB0101A0EE012A8809BDEED8
:10389000C20A86ED100A7064EFF3118785F312886F
:1038A000B56000F01DF8BFF34F8FBFF36F8F00BFFF
:1038B000BFF34F8FBFF36F8F044600F011F8B1686C
:1038C0002144401AB06087F31188C6E90C55C6E957
:1038D0000E5501B0F0BD00BF0024744900008047C0
:1038E000B0B543F27C0240F20813CEF20002C2F2FD
:1038F0000023EFF3118C002080F31288106893F8F6
:103900004810012943F6C041CEF2000108D10968F0
:10391000B1F1FF3F10DD002125E000BF00BF00BF77
:10392000EFF3108E72B60C68B4F1FF3F08DD002192
:1039300017E000BF00BF00BF1068012113E000BF07
:103940004FF0004041F8400C0021EFF3118081F36B
:103950001288D3E90C450135C3E90C4580F3118881
:1039600010688EF31088D3E90C258018D3E90E2453
:103970006941821A71EB040206DAD3E90E018CF375
:103980001188B0BD00BF00BFC3E90E018CF31188E0
:10399000B0BDD4D4D4D4D4D410B54EF63050CEF279
:1039A00000000068800647D543F68040CEF2000054
:1039B000016CB1F1FF3F07DDD0F88011C9B20229D7
:1039C0001AD239E000BF00BF40F2081C4FF000419E
:1039D000C2F2002C0160EFF31181002282F3128801
:1039E000DCE90C320132CCE90C3281F31188D0F8D9
:1039F0008011C9B202291FD3026892070AD540F28A
:103A0000081C0222C2F2002C0260DCE914320132EE
:103A1000CCE9143204290FD3026812070AD540F208
:103A2000081C0822C2F2002C0260DCE916320132C6
:103A3000CCE91632062903D210BD00BF00BF00BF7B
:103A4000026892060AD540F2081C2022C2F2002C1D
:103A50000260DCE918320132CCE91832062908BFCD
:103A600010BD08294FF0010C5CEA3C9E40F20811A1
:103A7000C2F200210623F64601F1680208E000BF09
:103A800001330832BEF1010E02D1D5E700BF00BFFD
:103A90000CFA03F1046C0C42F2D00160D2E900147C
:103AA00011F5803144F10004C2E90014E8E7D4D4F0
:103AB00043F60040CEF20000D0F80012490458BF8F
:103AC000704770B543F60462EFF3108CCEF200023B
:103AD00072B64FF00043116821F0010111600362DA
:103AE0000366116841F004011160C0F8803011686C
:103AF00041F002011160D0F80012C9B2022954D37A
:103B00004FF600044FF60405CFF6FF74CFF6FF75AD
:103B10004FF0080E042940F804E04FF01E04445111
:103B20004FF00305C0F880504FF0020606640560B0
:103B30003BD34FF608051326CFF6FF7506294651ED
:103B40004FF60C05CFF6FF7544514FF00C04C0F84A
:103B50008040C0F840E0046027D34FF610060325EC
:103B6000CFF6FF76062985514FF61406CFF6FF767D
:103B70004FF01E0585514FF03006C0F880604FF0C1
:103B800020050564066010D008294FF0010151EAB4
:103B9000319E062400BF00BF01FA04F50134C0F8CD
:103BA0008050056405600FF009C84EF6FC51CEF256
:103BB00000010E6846F0807646F444160E600364F9
:103BC00003601068002140F00100106041F2000025
:103BD000CEF2000001608CF3108870BDD4D4D4D430
:103BE000017904291AD140F2081C8068C2F2002C25
:103BF000DCE900314A1C803A52EA0192CCF80420F8
:103C00009A4240F25403C2F20023585418BF70473E
:103C1000501C803850EA0290CCF800007047D4D491
:103C200040F2D401C2F200214A6A1071486A00BF12
:103C3000816C8900FCD500207047D4D4D4D4D4D46E
:103C40002DE9F04182B040F20817C2F20027D7E90F
:103C50000050854205D100BF00BFD7E90050854222
:103C6000FAD0A84210D940F254010138C2F2002122
:103C70007860495D8DF807109DF8070002B0BDE837
:103C8000F08100BF00BF00BF401BC5F18004803041
:103C900040F25400C2F200200DF1070800EB0501CC
:103CA000404622465FEA0F96FDF762FAA6420BD223
:103CB000A819B0F1800150EA118038609DF8070022
:103CC00002B0BDE8F08100BF361B40F2540108EBA2
:103CD0000400C2F200213246FDF74AFA701938603A
:103CE0009DF8070002B0BDE8F081D4D4D4D4D4D478
:103CF000B0B546F2C57072B64EF62855C0F2002037
:103D0000CEF20005FDF733FB6868002808D4686828
:103D100040000BD546F69530C0F2002004E000BF0D
:103D200046F20E70C0F20020FDF721FB46F6494036
:103D3000EFF30884C0F20020FDF719FB46F6BC0043
:103D40002168C0F20020FDF7FDFA46F2F4706168C8
:103D5000C0F20020FDF7F6FA46F2B360A168C0F2A7
:103D60000020FDF7EFFA46F63440E168C0F200208B
:103D7000FDF7E8FA46F256602169C0F20020FDF72F
:103D8000E1FA46F675206169C0F20020FDF7DAFA23
:103D900046F24640A169C0F20020FDF7D3FA46F290
:103DA0005440E169C0F20020FDF7CCFA46F2C16050
:103DB000C0F20020FDF7DBFA46F264602968C0F229
:103DC0000020FDF7BFFA46F6502055F8241CC0F23B
:103DD0000020FDF7B7FA46F646106968C0F20020E9
:103DE000FDF7B0FA46F26240C0F20020FDF7BFFADC
:103DF00046F27C50EFF30581C0F20020FDF7A2FAF5
:103E00002868800118D42868C0011ED42868C00220
:103E100024D42868000349D4286840034FD4286874
:103E2000800355D42868C0035BD42868C00561D4DA
:103E300000BEB0BD00BF00BF46F60200C0F20020C9
:103E4000FDF795FA2868C001E0D546F69100C0F26A
:103E50000020FDF78CFA2868C002DAD546F2A5707A
:103E6000C0F20020FDF783FA46F2F1402146C0F28D
:103E70000020FDF767FA46F66420EFF30A81C0F2EE
:103E80000020FDF75FFA46F66C40EFF30981C0F2BF
:103E90000020FDF757FA46F27860EFF30B81C0F28D
:103EA0000020FDF74FFA28680003B5D546F22C70C4
:103EB000C0F20020FDF75BFA28684003AFD546F258
:103EC0000250C0F20020FDF752FA28688003A9D5FD
:103ED00046F24C70C0F20020FDF749FA2868C00392
:103EE000A3D546F6C430C0F20020FDF740FA28689A
:103EF000C0059DD546F21E50C0F20020FDF737FAEE
:103F000000BEB0BDD4D4D4D4D4D4D4D4D4D4D4D496
:103F1000ADF6380D40F254004EF200184CF2003667
:103F20004CF6002A41F2FF1544F23F2BC2F200206A
:103F30008021CEF20008C4F20006C3F69A3AC0F21D
:103F40007A05C0F20F0BFDF7EEF940F2D40740F20C
:103F5000081CC2F2002748F6001147F21802C2F20C
:103F6000002CC4F23501C0F20022C7E90821B9785B
:103F700043F6E1330020CCE90000C0F200233870A2
:103F80003863C7E90A3001F0FC000130B87008203E
:103F9000C8F88000BFF34F8FBFF36F8F4EF201411F
:103FA000F068CEF2000120F48030F060C022F068AA
:103FB0008A70CCF82C700120C8F88000BFF34F8FB6
:103FC000BFF36F8F33684DF6836923F4803333601A
:103FD000336888F80023CCF820700223C8F88030BA
:103FE000BFF34F8FBFF36F8F7368C4F21B3923F495
:103FF0008033736073680A70CCF824700423C8F8A7
:104000008030BFF34F8FBFF36F8FB36823F48033DB
:10401000B360B3684A70CCF82870EFF3108480F373
:10402000108843F20400C4F22000016821F48001EA
:1040300001600068DCF81000A84209D95844A0FBD0
:104040000901880C0001A0EB9140400038B90CE058
:10405000BAFBF0F047F23051B1FBF0F028B101F0BB
:1040600063F940F2081CC2F2002C84F310884FF46C
:104070008061786A0023002281604FF41241786ADF
:10408000C1F61F72416140F21001786AC2F200214C
:1040900009680161786A3021C160786A8361796A50
:1040A000386A4A6240F20012796AC0F201020A6379
:1040B000FB61C2693B61C7E90533527CBB606AB3EF
:1040C0004EF25403C4F201031D7805F00F05022DD2
:1040D00002D801240EE000BFEC1E052C08D247F2E6
:1040E0003C55C0F2002555F8245005E000BF00BF44
:1040F000083D102404FA05F55B7840F22004C2F272
:10410000002403F00F0354F82330B3FBF5F3DCF87D
:1041100010506A43B2FBF3F20132BA6010224FF042
:10412000FF35C9F607524FF0FF330793BD818A660A
:1041300090F905104A0901F01F0356F8210020F4F8
:10414000803046F8210056F8210008F5C0700121A2
:10415000BFF35F8F01FA03F340F8223048F82230B2
:104160003A6A92F90B2056F8223023F4803346F84D
:10417000223056F82230530902F01F02BFF35F8F3E
:1041800001FA02F240F8232048F823203A6A92F913
:10419000072056F8223023F4803346F8223056F8B0
:1041A0002230530902F01F02BFF35F8F01FA02F2BF
:1041B00040F8232048F823203A6A92F9092056F85B
:1041C000223023F4803346F8223056F82230530947
:1041D00002F01F02BFF35F8F914040F8231048F8B0
:1041E000231040F21141786AC0F201018160786ABF
:1041F000017FC907FCD044F642106446C5F2433043
:1042000078600027EFF3118587F312888CF84870E7
:10421000FFF74EFC43F680404FF00041CEF2000025
:104220009FEDD81A01600BF1010085F31188216917
:1042300000EE101A81425FEA2F9084F84900B8EE30
:10424000400A94F8490080EE012A81EE000A002815
:104250009FEDD71A44F6D35002FE000AC1F2620065
:10426000B6EE002AA1FB0001A0EE012A8809BDEEEE
:10427000C20A84ED100A6064EFF3118587F3128897
:10428000A760FFF72DFBBFF34F8FBFF36F8F00BF0A
:10429000BFF34F8FBFF36F8F0646FFF721FBA16877
:1042A00048F28048314446F2C846401AA06085F37F
:1042B0001188C4E90C7749F20045C0F20026C4E930
:1042C0000E774CF60027C0F21E08C7F23575C3F60C
:1042D0009A370FE000BF00BFB7FBF0F0B5FBF0F07E
:1042E00001F022F840F20814C2F20024D4E90001DF
:1042F000884219D13046FDF73AF841F2FF112069A2
:10430000C0F27A018842E7D95844A0FB0901880C21
:10431000A0FB080121B14FF0FF30E1E700BF00BF73
:104320000028DDD1E2E700BF46F673104EF61454C4
:10433000C0F20020CEF20004FDF719F8FFF7D0FA22
:10434000BFF34F8FBFF36F8F01228DF8362822689D
:10435000CDE9051092035CBF20685FEA803040F130
:10436000A38144F2700040F26007C2F20000C2F282
:1043700000070168ADF8F4174368ADF8F6373A68FE
:10438000ADF8F8277F68CDF810788068002808BF5E
:1043900007200F04CDF8140804D11F0408BF5FEAFA
:1043A00002470DD08FB2012F12D11B0408BF5FEA64
:1043B00002420DD143F2154103E000BF00BF00BF30
:1043C0000021ADF8F417ADF8F6176622ADF8F8271E
:1043D000A0EE100B0FF608404FF4FA6709AACDF8CB
:1043E000FC2790ED003F0020ADF83408B9FFC22350
:1043F0004FF0030E22FF400480EF512000EF5201E6
:1044000021EE100BF9FE006FB3B2B7FBF3F3CDF85A
:104410000C380DF2F473F6460C33002708E000BFA9
:1044200001300433BEF1010E02D111E000BF00BF24
:10443000DDF81468C640F607F2D0DDF80C68BDB2AE
:1044400006FB052601371E60EAE700BF00BF00BF7C
:10445000DDF81468F00707D1B00700F1FC807007A1
:1044600000F18881D4E100BF4CF6CD42DDF80C08A4
:10447000CCF6CC42DDF800C8A0FB02026FF00100D0
:1044800000EB12160020032E0CEBC608CCE9000846
:10449000474648F2800047F8040B0CF1080011D39E
:1044A000DCF80030CCF800000CF11000CCE9023749
:1044B00008F108074FF0FF32A8F8042047F6FF7311
:1044C000A8F80630B146B6F1000E29D0FFE708EB98
:1044D000890B002508E000BF0135BEF1010E03D1B4
:1044E0001EE000BF00BF00BF00F108064645F3D242
:1044F0003B1D5B45F0D281EA050A05F007026AF32D
:10450000C602DCF800400460CCF8000042EA022257
:1045100047603A8047F6FF7078801F463046DBE7F9
:10452000DCF800000368CBB14CF6CD42CCF6CC42AF
:10453000A9FB02239A08012381EA03075E1C6FF39B
:104540009F3706F007054468934228BF47EA0523D2
:10455000638000680368002B3346EDD1012508E035
:10456000BAF1000F4FEA45054FF00000CEF8000009
:1045700062D04FF000084FF0000E64464FF0000C80
:1045800004E000BF00247449002CE9D0C24608F1C1
:1045900001080021204600BF0068013120B18D4292
:1045A000FAD1294601E000BF002023462A4605E053
:1045B0000000804700BF00BFBC46BE461E46044602
:1045C000002911DC00BF00BF012ADDDB002CDBD09D
:1045D00051B92068013A002133462746BEF1000F49
:1045E0000DD1E9E700BF00BF002A18BF002C0FD192
:1045F0003368013920463746BEF1000FDCD0CEF8D3
:1046000000701E460446BE460029EDDCDCE700BF14
:1046100070686368477807705F781F70B3F902307D
:10462000B0F902009842E3DD2068013A334627469C
:10463000BEF1000FE3D1BFE744F23F2B4DF6836993
:10464000DDF81468C0F20F0BC4F21B39CDF818C89E
:10465000B0077FF504AFBDF8F607BDF9F417DDF834
:104660000C2841EA0041DDF804080129A0F101030A
:1046700098BF012182B34FF0FF30082700BF00BF71
:10468000851C01307D4308379542F9D300FB00F7C4
:1046900023F0030202F1040A00280AEB470857D06E
:1046A000029723E000BF00BFBFF34F8FBFF36F8FB0
:1046B0000020C4F83C02BFF34F8FBFF36F8F206818
:1046C00040F400302060BFF34F8FBFF36F8F48E698
:1046D0000000000000408F4023F00300012200F1A1
:1046E000040A00F106084FF0FF3002920125002471
:1046F0004FF6FF7742000892CDE9038A00BF00BF62
:1047000040F001E04FEA450C4346524600BF00BF6F
:104710006943CE1701EB1646BE43891B6E1823F87A
:10472000026B0CEB010601350CF1020CF6B222F81B
:10473000026B0FF013C80134089A844292449044EB
:10474000DED10DF1080ADDF814689AE8020501E0EF
:104750000021002008EB4101CDF820A80139CDF857
:10476000248821F00301CDF81C080431CDF8281865
:1047700070074DD5DDF80C080890421EDDF80808DA
:10478000022A3DD3BDF8F47746F6E07A0026C0F25F
:10479000002A4FF00C0C002100231FE000BF00BFD7
:1047A00011F001E831FE4D8F96FD800E84ED800EF4
:1047B0000B442C2601336654013746F6C07507F0CA
:1047C0000706C0F200250CEA57045AF8261055F8DF
:1047D00026605D1801353659954212D20029EBD07A
:1047E000C418A51B072DDBD841F001E0254600BF0A
:1047F00016F8018B05F8018B0FF007C0D8E700BF52
:1048000000230899994203D91844C91AFCF78BFD73
:10481000DDF8100844F2680500284AF20107C2F2E8
:10482000000540F0B18040F208141FED578B0DF2E7
:10483000F4764FF00808B7EE009BC2F20024012086
:10484000CDF8100819E000BFFFF74AF840F208144D
:104850000023C2F20024626CFEF79EFF29686860A4
:10486000411A00EE101AB8EE400B80EE080BB4EEC1
:10487000490BF1EE10FA40F17780DDF8100800EBFB
:1048800080004000CDF81008FFF72AF8626C002382
:10489000FEF782FFDDF810A82860BAF1000F4FF094
:1048A0000000CDF83008CDF82C08CDD0002400BF92
:1048B0000121304601F0C2FDBDF82C1848F001E09E
:1048C000C2B200BF00BF00BF82EA0103C1F34E01C4
:1048D0005208DB0718BF79400FF00BC048F001E029
:1048E000000A00BF00BF00BF80EA0102C1F34E0111
:1048F0004008D20718BF79400FF00BC0ADF82C1854
:104900004FF0FF31304601F099FDBDF82C1848F00A
:1049100001E0C2B200BF00BF82EA0103C1F34E0151
:104920005208DB0718BF79400FF00BC048F001E0D8
:10493000000A00BF00BF00BF80EA0102C1F34E01C0
:104940004008D20718BF79400FF00BC0002C04F1CB
:104950000104ADF82C1808BFADF82E185445A7D1A6
:1049600072E700BF00BF00BFBCEEC00B0A2110EE13
:10497000100A012898BF0120B1FBF0F0DDF81018F3
:1049800001304843CDF81008FEF7AAFF40F20812A4
:104990000023C2F200220024526CFEF7FDFEDDF877
:1049A00010882860B8F1000FCDF83048CDF82C48B9
:1049B0005ED000260DF2F47A082400BF00BF00BFCD
:1049C0000121504601F03AFDBDF82C1844F001E0F9
:1049D000C2B200BF00BF00BF82EA0103C1F34E01B3
:1049E0005208DB0718BF79400FF00BC044F001E01C
:1049F000000A00BF00BF00BF80EA0102C1F34E0100
:104A00004008D20718BF79400FF00BC0ADF82C1842
:104A10004FF0FF31504601F011FDBDF82C1844F065
:104A200001E0C2B200BF00BF82EA0103C1F34E0140
:104A30005208DB0718BF79400FF00BC044F001E0CB
:104A4000000A00BF00BF00BF80EA0102C1F34E01AF
:104A50004008D20718BF79400FF00BC0002E06F1B6
:104A60000106ADF82C1808BFADF82E184645A7D1A1
:104A7000FEF736FF40F208120023C2F200220026A1
:104A8000526CFEF789FE6860BDF8F4274FF0080EFF
:104A90002968D3B200BF00BF83EA0605C6F34E06FD
:104AA0005B08ED0718BF7E400FF00BC04FF0080EFB
:104AB000120A00BF00BF00BF82EA0603C6F34E061B
:104AC0005208DB0718BF7E400FF00BC0BDF8F62779
:104AD0004FF0080ED3B200BF83EA0605C6F34E06B8
:104AE0005B08ED0718BF7E400FF00BC04FF0080EBB
:104AF000120A00BF00BF00BF82EA0603C6F34E06DB
:104B00005208DB0718BF7E400FF00BC0BDF8F82736
:104B10004FF0080ED3B200BF83EA0605C6F34E0677
:104B20005B08ED0718BF7E400FF00BC04FF0080E7A
:104B3000120A00BF00BF00BF82EA0603C6F34E069A
:104B40005208DB0718BF7E400FF00BC04FF0080E75
:104B5000DDF80C28D3B200BF83EA0605C6F34E0683
:104B60005B08ED0718BF7E400FF00BC04FF0080E3A
:104B7000C2F3072200BF00BF82EA0603C6F34E0657
:104B80005208DB0718BF7E400FF00BC047F6043217
:104B9000A0EB01080025964212DD4EF6F510864284
:104BA0001ED048F60220864222D047F605308642C3
:104BB00040F0888046F608400127C0F2002024E03B
:104BC00041F6F20086421BD044F6AF60864240F0C8
:104BD000798046F24B500227C0F2002015E000BF5A
:104BE00046F6E62003270125C0F200200DE000BFB5
:104BF00046F2A8500027C0F2002006E000BF00BF28
:104C000046F2E3500427C0F20020FCF7B0FBDDF8C9
:104C10001408C1074FF00001ADF834180AD040F273
:104C20000001BDF82E28C2F2000131F817309A4277
:104C30001ED10021079181072BD540F20A01BDF852
:104C40003028C2F2000131F817309A4221D046F6DE
:104C50000C200021C0F20020FCF774FBBDF83408E2
:104C600001300790ADF83408DDF8140811E000BFFA
:104C700046F6DC100021C0F20020FCF763FBBDF813
:104C80003408411CDDF81408ADF834180791810789
:104C9000D3D4400716D540F21400BDF83228C2F232
:104CA000000030F817309A420CD046F285400021BF
:104CB000C0F20020FCF746FBBDF834080130079035
:104CC000ADF8340846F26B70DDF80C18C0F2002025
:104CD000FCF738FB46F66F004146C0F20020FCF7B7
:104CE00031FB00EE108A46F20F60B8EE400BC0F2C6
:104CF00000209FEDBF1B80EE018B53EC182BFCF7BF
:104D000021FBB5EE408BF1EE10FA0FDD0DF50160E1
:104D100090ED000A46F28470B8EE400BC0F200201D
:104D200080EE080B53EC102BFCF70CFBB2EE040BDF
:104D3000B4EE408BF1EE10FA08D546F69510C0F2AD
:104D40000020FCF714FB07980130079046F6CA00D4
:104D5000DDF81018C0F20020FCF7F4FA46F2E46720
:104D600046F28960C0F20027C0F200203946FCF705
:104D7000E9FA46F6653846F22760C0F20028C0F22C
:104D800000204146FCF7DEFA46F6CE2046F24551B9
:104D9000C0F20020C0F20021FCF7D4FA46F67930C8
:104DA0003146C0F20020FCF7CDFADDF81408C10747
:104DB0002AD14EF614548107CEF2000435D44007B0
:104DC00008D5BDF8322846F62200C0F200200021A6
:104DD000FCF7B8FABDF82C2846F6EB30C0F20020FC
:104DE0000021FCF7AFFA079908042DD008B246F667
:104DF000590146F6E302C0F20021C0F20022002869
:104E000051EAC28047E000BFBDF82E2846F28B5021
:104E1000C0F200200021FCF795FADDF814084EF6E8
:104E200014548107CEF20004C9D5BDF8302846F2EB
:104E3000F160C0F200200021FCF784FADDF81408CC
:104E40004007BED4C6E700BF46F61330C0F20020CC
:104E5000FCF78DFA0DB30DF50160CDE9007890ED0A
:104E6000000A46F63F00B8EE400BC0F2002080EE8C
:104E7000080B53EC102BFCF765FA46F6733046F23C
:104E80004551C0F20020C0F20021FCF75BFA46F267
:104E9000EF40C0F20020FCF76AFA00208DF83608D7
:104EA000206880035CBF20685FEA803040F180802A
:104EB000BFF34F8FBFF36F8F282446F2005A4AF298
:104EC0002018C4F24004C1F6CD5AC0F20708FEF71C
:104ED00007FD40F20817C2F20027BA68069B9B182C
:104EE000059E46EBE272C51A46F2EF40C0F2002082
:104EF00061EB0206FCF73BFA46F65A10C0F20020BE
:104F0000FCF720FA46F6A420C0F20020FCF72FFAA6
:104F100046F6832046F2A661C0F20020C0F20021CE
:104F20002A463346CDE90056FCF70CFA3A464CF6D1
:104F300000274FF480664FF08065C3F69A370AE089
:104F4000B7FBF0F0BAFBF0F028B100F0EDF940F259
:104F50000812C2F2002241F2FF112660C0F27A016B
:104F60001069884208D95844A0FB0901880C00FB4D
:104F700008F030B90BE000BFB7FBF0F0BAFBF0F07F
:104F800028B100F0D1F940F20812C2F2002241F239
:104F9000FF112560C0F27A0110698842D0D95844C7
:104FA000A0FB0901880C00FB08F00028CDD1D2E756
:104FB000BFF34F8FBFF36F8F0020C4F83C02BFF3E5
:104FC0004F8FBFF36F8F206840F400302060BFF335
:104FD0004F8FBFF36F8F6BE700BF00BF00BF00BFF5
:104FE00000000000010000000200000003000000BB
:104FF0000000000000408F40FEF78AFFD4D4D4D4D4
:10500000B0B584B04FF07041EFF3038001EB006066
:105010004CF200328115C4F2000240F20815C2F2CF
:1050200000258B5805EBA05023F480338B50895812
:10503000046A206A00690028606905D010B304B0D2
:10504000B0BD00BF00BF00BFE0B1A07800F003001A
:105050000228206908D10088616A20F4DC40486099
:1050600005E000BF00BF00BF616A00780871A0784A
:10507000226900F003016069401A606111442161F6
:105080000028DCD1616A02228D68A06862F31555A0
:1050900010B100F049F9616A8D60A06A00284FF0F4
:1050A00000002061CBD0E06A30B190E82E008DE89E
:1050B0002E0002E000BF00BF6846216A0978016047
:1050C0000021816080210171216BC160A16A884744
:1050D000E06A00281CBF9DE82E002EC004B0B0BDC1
:1050E00010B586B04FF07041EFF3038001EB006024
:1050F0004CF200328115C4F2000240F20814C2F2F0
:1051000000248B5804EBA05023F480338B50895833
:10511000046AA07800F00302606A022A24D10168C0
:105120006FF35F21E069019118B3A06901A9FCF751
:105130001FF8A078D4E9061200F003000144101A09
:10514000C4E9061040D1A06A00283DD0E06A38B317
:10515000D0E900C2D0E90231CDE90431CDE902C283
:105160001FE000BF00BF00BF0178E0690191002887
:10517000DBD1A06A40B3E06A50B1D0E900CED0E9FB
:105180000223CDE90423CDE902CE02E000BF00BF37
:1051900002A8226A127881600260042107E000BF41
:1051A00002A8216A09780160002181600121017152
:1051B000216BC160A16A8847E06A28B102AC1ECCAD
:1051C000016042608360C46006B010BDD4D4D4D402
:1051D000B0B584B04FF07041EFF3038001EB006095
:1051E00040F20811C2F200214FF6EF7301EBA0511B
:1051F000CFF6CF7304160D6A696A8A681A408A600E
:10520000A96AF9B1E86A58B1D0E900C2D0E902311F
:10521000CDE90231CDE900C203E000BF00BF00BF0D
:105220006846296A097801600021816002210171C4
:10523000296BC160A96A8847E86A00281CBF9DE8FD
:105240002E002EC04CF20030C4F2000050F82410A2
:1052500021F4803140F8241050F8240004B0B0BD8F
:1052600070B584B04FF07041EFF3038001EB006044
:1052700040F20811C2F2002101EBA0510C6AA178A2
:10528000636A01F00301022906D1D3F800C06FF36D
:105290005F2C03E000BF00BF93F800C09A6C20258C
:1052A000082105EAD2454FF0100E01EA12611EEA0C
:1052B000126229440A4403D0996C090458BF403251
:1052C000996E051641F0C8519966A16AE9B1E06A84
:1052D00050B1D0E900E3D0E90216CDE90216CDE9DC
:1052E00000E302E000BF00BF6846216A0978C0F809
:1052F00008C001600271216BC160A16A8847E06A41
:1053000000281CBF9DE84E004EC04CF20030C4F295
:10531000000050F8251021F4803140F8251050F895
:10532000250004B070BDD4D401380028FCD17047EA
:105330004CF22010C4F2000050F8201C026811400A
:1053400040F8101C00BF00BF02680A42FCD1704741
:1053500000F006F8FFF750FE00BE7047D4D4D4D456
:105360002DE9F04F83B04EF6145440F20120CEF2F6
:105370000004C0F20E004EF200062060CEF20106DC
:10538000BFF34F8FBFF36F8F54F8141CC1F303505A
:1053900001285FEA1F9211F00F0F5FEA0F9111428F
:1053A000316811D102280FD241F0040030604EF272
:1053B0000800BFF34F8FCEF20000BFF36F8F01687C
:1053C00041F48031016002E021F004003060BFF35D
:1053D0004F8F4EF2FA324FF47000BFF36F8F606759
:1053E00040F20000C4F20102C0F2002044F80C0CAC
:1053F0004AF20250CFF6FF7040F220070FF68041CC
:1054000001301080C2F200270FF6844091ED001F9A
:105410004EF2550907F1200387ED001FC4F2010980
:1054200048F2004190ED001F41F6004044F2553231
:10543000C0F64E6087ED041FC1F2D771C1F2DE32B3
:1054400007C319F82F0C39F8311C01F00F02A2F133
:105450000801032934D8DFE801F003270F1B00BF40
:105460004AF6AB2157F82000CAF6AA21A0FB010199
:10547000480828E000BF00BF4AF6AB2157F82000DB
:10548000CAF6AA21A0FB0101C8081CE000BF00BFAA
:105490004AF6AB2157F82000CAF6AA21A0FB010169
:1054A000080910E000BF00BF4AF6AB2157F8200002
:1054B000CAF6AA21A0FB0101880804E000BF00BFD2
:1054C00057F82000D04040F2081C4EF60045C2F2CA
:1054D000002CC4F201050A214EF64C4ACCF810000B
:1054E0004FF65060CFF6FF704DF68368C4F2010AA4
:1054F000C4F21B382954092089F84D00287818B9BE
:105500001AF84B0C800732D0287860BB41F2FF11AB
:1055100001202870C0F27A01DCF8100088420BD913
:1055200044F23F21C0F20F010844A0FB0801880C9F
:10553000C821484368B913E04CF60021C3F69A31FC
:10554000B1FBF0F040F64051C0F20301B1FBF0F0C6
:1055500030B1FFF7E9FE40F2081CC2F2002C00BF98
:1055600028780128FCD100200AF84B0C2870002074
:1055700009F8230C00BF00BF19F8190C0007FBD570
:105580004FF60210C9F8730040F2415029F8070C99
:10559000002009F80B0C49F20251C9F8571040F2EB
:1055A000514129F8091CBFF34F8FBFF36F8F21685A
:1055B00021F400312160C4F83C02BFF34F8FBFF3E8
:1055C0006F8F306820F440503060BFF34F8FBFF3CF
:1055D0006F8F19F8410C00F0F800013009F8410C08
:1055E00019F8410CC006FBD4306840F440503060DC
:1055F000BFF34F8FBFF36F8F2068800312D4BFF3C8
:105600004F8FBFF36F8F0020C4F83C02BFF34F8F62
:10561000BFF36F8F206840F400302060BFF34F8FDE
:10562000BFF36F8F002009F82B0C00BF00BF00BF35
:1056300019F8190C8006FBD54CF200040020C4F2C6
:10564000130420702078207820786068C82807D05C
:10565000C820C1F6006000BF60606168C829FBD146
:10566000A068642808D06420CEF2001000BF00BFFC
:10567000A060A1686429FBD149F69820C9F6890089
:1056800049F8350C48F6800029F8310C052009F856
:105690002F0C19F82F0C39F8311C01F00F02A2F170
:1056A0000801032934D8DFE801F003270F1B00BFEE
:1056B0004AF6AB2157F82000CAF6AA21A0FB010147
:1056C000480828E000BF00BF4AF6AB2157F8200089
:1056D000CAF6AA21A0FB0101C8081CE000BF00BF58
:1056E0004AF6AB2157F82000CAF6AA21A0FB010117
:1056F000080910E000BF00BF4AF6AB2157F82000B0
:10570000CAF6AA21A0FB0101880804E000BF00BF7F
:1057100057F82000D04041F2FF11CCF81000C0F241
:105720007A01884210D944F23F21C0F20F010844A7
:10573000A0FB0801880C0001A0EB9140400070B96B
:1057400013E000BF00BF00BF4CF60021C3F69A3142
:10575000B1FBF0F047F23051B1FBF0F028B1FFF7A8
:10576000E3FD40F2081CC2F2002C60686FF39F203A
:10577000652801D30120207019F82F0C39F8311C4D
:1057800001F00F02A2F10801032935D8DFE801F08A
:105790000428101C00BF00BF4AF6AB2157F82000B8
:1057A000CAF6AA21A0FB0101480828E000BF00BFFB
:1057B0004AF6AB2157F82000CAF6AA21A0FB010146
:1057C000C8081CE000BF00BF4AF6AB2157F8200014
:1057D000CAF6AA21A0FB0101080910E000BF00BF22
:1057E0004AF6AB2157F82000CAF6AA21A0FB010116
:1057F000880804E000BF00BF57F82000D04042F204
:105800000001CCF81000C4F200014AF20250013845
:1058100008800120BFF35F8F08724FF42540BFF36B
:105820005F8F088099F8850040F0400089F8850076
:1058300099F98500B0F1FF3FFADC052089F87F0077
:10584000C92089F8850099F8850000F0BF0089F823
:10585000850000BF00BF00BF99F985000028FBD478
:10586000012009F8020C99F81F0040F0400089F867
:105870001F0000BF00BF00BF99F91F00B0F1FF3F3C
:10588000FADC062089F81700482089F81F00082054
:1058900089F81F0000BF00BF99F91F000028FBD442
:1058A0004EF2FA3143F20404C4F20101C4F22004BE
:1058B00001254FF0000B08884FF4803602904AF221
:1058C000025001274FF00008013008800CE000BFB3
:1058D00005FA08F08AF310884BEA000BF8074FF03E
:1058E00001084FF000073BD006FA08F0216801429A
:1058F000F4D1EFF3108A85F310882168084341F250
:10590000FF112060C0F27A012068DCF810008842A4
:1059100012D944F23F21C0F20F0108444DF68361D1
:10592000C4F21B31A0FB0101880C0001A0EB9140E7
:10593000400068B9CCE700BF4CF60021C3F69A31AD
:10594000B1FBF0F047F23051B1FBF0F00028BFD0CE
:10595000FFF7EAFC40F2081CC2F2002CB8E700BFD7
:1059600099F8200040F22001C2F2002100F00F005F
:1059700051F8200099F8181001F00F01022907D8FA
:1059800001224DF6836302FA01F1C4F21B3313E0E6
:10599000CA1E4DF68363052AC4F21B3308D247F2B0
:1059A0003C51C0F2002151F8221005E000BF00BFB9
:1059B0000839102202FA01F1B0FBF1F0DCF8101006
:1059C000A0FB030241F2FF10C0F27A0081424FEACD
:1059D00092400DD944F23F22C0F20F021144A1FBC4
:1059E0000312910C4843400070B913E000BF00BFA0
:1059F0004CF60022C3F69A32B2FBF1F14FF4FA6290
:105A00005043B0FBF1F028B1FFF78EFC40F2081CC8
:105A1000C2F2002C99F8200040F0400089F82000E4
:105A200099F92000B0F1FF3FFADC012089F8180055
:105A30004A2089F820000A2089F8200000BF00BF12
:105A400099F920000028FBD400204FF001084FF402
:105A5000803647F2305A01270AE000BF00BF00BF7E
:105A600085F31088F8074FF001004FF000073FD092
:105A70002BFA00F1C907F5D0EFF3108588F31088F1
:105A800006FA00F0216821EA000041F2FF112060CF
:105A9000C0F27A012068DCF81000884214D944F280
:105AA0003F21C0F20F0108444DF68361C4F21B315F
:105AB000A0FB0101880C0001A0EB9140400068B9F7
:105AC000CEE700BF00BF00BF4CF60021C3F69A31FD
:105AD000B1FBF0F0BAFBF0F00028C1D0FFF724FCD6
