:020000040200F8
:1000000068400020C92D0002992D0002492B0002F2
:10001000412B0002412B0002412B0002412B000228
:10002000000000000000000000000000412B000262
:10003000292A000200000000412B0002412B00028F
:10004000A15B0002095D0002815C0002E95A000226
:100050002DE9F04F8FB08646B0F90400CDF838E0B6
:100060000128DEF82480C0F2A480A0F1010C012058
:100070000023002210FA8CFE4FF00009F6464FF0E4
:10008000000B0C4612E000BFD8F800000BF1010B8A
:1000900040680088C0F30025BAF1FF3F54EAD494C9
:1000A0002A440133BEF1010E00D179E00FFA84FA3F
:1000B0004646BAF1FF3F40461CDD304645686F8832
:1000C000A5B2AF4233D0006880B347687F88AF42A3
:1000D0002DD0006850B347687F88AF4227D00068B2
:1000E00020B347687F88AF4221D00068F0B12FF07D
:1000F0001BC800BF45682F78DDB26F4017D000687D
:10010000A0B147683F786F4011D0006870B1476870
:100110003F786F400BD0006840B147683F786F4030
:1001200005D0006810B12FF01BC800BF00204FF0B1
:10013000000800BF3568C6F800808DB12F682E60BA
:1001400097B1D7F800803D60B8F1000F10D0D8F813
:100150000060C8F800700EB12FF015C060B993E7C9
:10016000B04648B990E700BFA84628B98CE700BF61
:10017000B84600283FF488AFD0E9006509F10109CD
:10018000002E2D8805EA552505F001053FF484AFC2
:1001900037680760D8F800003060C8F800607BE777
:1001A000CBEB8900DDF838E010445FFA8CF3039361
:1001B00002E0002003900C460129CDE90440C0F282
:1001C000158101270EF128000B900AE006987F00A8
:1001D0000028DDF828804FF00000CBF8000000F088
:1001E00005817E4200224FF0000BC24600200A909B
:1001F000CDE9076706E000BFBAF1000FDDE9076748
:10020000099AE3D0504659460692541C022552469C
:1002100012688AB17319012B0CD012688AB14BB1E4
:1002200012685AB1013305D012684AB10435731906
:10023000022BEDD13D4605E0013D02E0013500E035
:1002400002350022B946099411E000BFB9F1000F50
:1002500018BFBAF1000F1DD1D8F80000013D524679
:100260004146BBF1000F00F0BF80CBF80010804684
:1002700092468B46002DE9DCB9F1010FBCDBBAF1E7
:10028000000FB9D0002DE1D1DAF80020A9F1010961
:100290000025A3E0D8F80460DAF80440378838066F
:1002A00025D4C7F3C30107F007000128CDE90C5995
:1002B00041EA01111ED0B94650BBBEF900202229E7
:1002C000BEF902304FF0220051EA808CBEF838505F
:1002D000DEE90510CDE900C501F0C6FBDDF838E028
:1002E0008146BEF83E1099B9AEF83E9010E007F096
:1002F0007F011FE0BEF838200B9800F05DF9DDF8B3
:1003000038E08146BEF83C10002908BFAEF83C90AA
:10031000BEF83810484601F067FEDDF838E009F015
:100320007F0169F30607DDE90C59AEF8380047F0A4
:10033000800030802688300624D40D91C6F3C30196
:1003400006F00700012841EA011121D0374668BBB9
:10035000BEF900202229BEF902304FF0220051EAF6
:10036000808CBEF83870DEE90510CDE900C701F0D9
:100370007BFBDDF838E00746BEF83E10B1B9AEF8B9
:100380003E7013E006F07F0081427FF665AF21E00A
:10039000BEF838200B9800F00FF9DDF838E007467A
:1003A000BEF83C10002908BFAEF83C70BEF838100B
:1003B000384601F019FEDDF838E067F3060646F02E
:1003C0008001AEF8380007F07F0021800D9981424E
:1003D0007FF642AFDAF80020A9F101094046514604
:1003E000BBF1000F7FF441AF0A9140E7D8F800005D
:1003F000049BD0E90046D4E9001242601AB266605C
:10040000B2F1FF3F01604FF0000020601BDD98B2A9
:10041000474679684988814233D03F687FB379681D
:10042000498881422DD03F684FB37968498881421D
:1004300027D03F681FB379684988814221D03F683F
:10044000EFB12FF01BC047460399786800788842C7
:1004500017D03F689FB178680078884211D03F6814
:100460006FB17868007888420BD03F683FB17868F8
:100470000078884205D03F680FB12FF01BC0D8F834
:100480000070D8F80400B0F90050059881B22846F1
:1004900001F016FF3F680FB12FF009C00590D8F8A2
:1004A00000004FF0010E4FF0000CD0E90012626026
:1004B00046602160046006E0B9F1000F4FEA4E0E7D
:1004C000C4F800C05ED0CEF1000A4FF0000B00244B
:1004D00045464FF0000801E0002DEDD02A462746A2
:1004E000D9460BF1010B02202946096899B10AEBA4
:1004F0000003012B0DD0096891B153B1096861B1B6
:10050000013306D0096851B104300AEB0003022B15
:10051000EBD1704605E0013802E0013000E0023026
:10052000002176460AE000BF002E18BF002D15D12D
:100530001A68013829461F4614B3276013460D4632
:100540003C460028F0DC012EC6DB002DC4D000287C
:10055000EAD12968013E00200EE000BF59686A68B0
:100560004F780F7057781770B2F90220B1F9021066
:100570009142DDDD2968013E1A462F46002CDCD170
:10058000B846DBE7D8F800407CB1D8F80400B0F9F1
:100590000050059881B2284601F092FE24680CB103
:1005A0002FF009C00FB0BDE8F08F05980FB0BDE87F
:1005B000F08F00BF00BF00BF2DE9F04FAFB0036860
:1005C000002B33D00392D0E901722892A3FB03528F
:1005D0004FF2000CC0681290CFF6FF7C002A5FEA51
:1005E0000F9003F10702089016934FEA43002990F9
:1005F00011972C921DD0169C002200BF3B4614F090
:1006000001E000BF93ED801E11EE410FA3EC881EA8
:100610001FF009C0169C0132299BA2421F44EDD154
:100620002E46012D98BF0126119F11E0002001F0F8
:1006300013BA0120012D55EA8086384616F001E0F4
:1006400090ED801E11EE410FA0EC881E1FF009C036
:1006500041EA0C083846129F26F001E0B8EC040F7E
:1006600021EE611EA7EC041F1FF009C00898169A1E
:100670000028A2F10100159002F003002B90CDF8A4
:100680007C8002910696049500F08C8022F003098C
:100690001299A9F1040001F1080A012192002E9299
:1006A00001EB90002D904FF0000B00210020002561
:1006B00013E0936883425FEADF901D44BD42C4BFEC
:1006C0000A200025014400BF169A0BF1010B2E9859
:1006D00093458244184600F0B980159A032A01D246
:1006E000002234E02D9A534642F001E01F9F00BFE4
:1006F00053F8082C53F804CC541982425FEADF9077
:100700006546BC42CCBF0A202544D3F800809445FE
:100710005FEADF9244460144BD42CCBF0A222C442A
:100720005868E0455FEADF9605461144BC42D4BFF5
:1007300025440A2640455FEADF923144BD42C4BFEA
:1007400000250A22114410334A460FF02FC82B9E71
:100750000346002EDDF844E0B6D0169B1F9F0BFB2E
:1007600003F3129C04EB830454F822301D448342AB
:100770005FEADF90BD42C4BF00250A20012E01447C
:10078000A2D004EB82025068054498425FEADF93EE
:10079000BD42C4BF00250A23022E19447FF489AF4D
:1007A000034691E7042D05D24FF0000C00210023F1
:1007B000002538E026F0030C0121ACF104000023F1
:1007C000002501EB900E12980830002150F8087CAB
:1007D00050F8044C7E199F425FEADF932546464558
:1007E000CCBF0A2335440268BC425FEADF97164655
:1007F00019444545CCBF0A272E444368A2425FEA0C
:10080000DF941D4639444645D4BF35440A249342FB
:100810005FEADF9221444545C4BF00250A22114406
:1008200010300FF02DC80698DDF844E0C007169A86
:100830000CD0129850F82C0098421F9B5FEADF9270
:1008400028449842C8BF0A221144169A2C98774629
:1008500020F00700A0F1080300931046002200BF1B
:1008600000263B46289D10F001E000BFB3EC881E37
:10087000B5EC883EF2EE206E1FF009C01298299B5D
:100880001F4440F82260169801328242E8D108B233
:10089000002101F015FD08990D90002900F08C80D1
:1008A000169A4FF0000B22F003091299A9F10400E7
:1008B00001F1080A01214FEA820801EB900C0027A0
:1008C0000026002009E000BF1D4616990BF1010B20
:1008D000C24416468B4500F0C8801599032901D201
:1008E000002132E04CF001E052461F9B52F8081CF8
:1008F00052F8045C0844B1425FEADF942E46984205
:10090000CCBF0A2406448D4204EB070117685FEA56
:10091000DF903C469E42CCBF0A2034445668AF422A
:100920005FEADF95014430469C42D4BF20440A254B
:10093000BE425FEADF9429449842C4BF00200A24E3
:100940006718103249460FF02FC82B9A1546002A17
:100950003246BAD0169A2B460BFB02F23D46129F46
:1009600007EB820454F82120B2421F9E10445FEA34
:10097000DF97B042C4BF00200A27012B2F44A3D029
:1009800004EB81041D466168084491425FEADF92EE
:10099000B042C4BF00200A22022B174401D10A46EC
:1009A00093E7A2688A425FEADF911044B042C4BF75
:1009B0000A2100200F4488E70498042805D24FF04C
:1009C000000C0027002200233FE00698012220F0BF
:1009D000030C1298ACF104010027002302EB910EE6
:1009E00000F108010022DDF87C8000BF384651F894
:1009F000087C51F8045C3B4497425FEADF922E4644
:100A00004345CCBF0A221E44BD4202EB00070868E2
:100A10005FEADF9304464645CCBF0A2334444A6864
:100A2000A8425FEADF95DE1913464445D4BF23444C
:100A30000A2582425FEADF90AC194345C4BF002318
:100A40000A20071910310FF02FC806982B9DC007F8
:100A50000BD0129850F82C0090421F9A5FEADF9159
:100A600018449042C8BF0A210F440B97A846169A13
:100A700022F0030A4FEAC20B0AFB02F01B900AF1B4
:100A800001001490504313900AF10200109050435B
:100A90000F9002EB42001199430009930F1D289B10
:100AA00003EB400003F108060C96831C0A93AAF19D
:100AB0000403043007900120059300EB930000230A
:100AC00018901A971C97CDF8A8A0CDF8B8B00DE0F3
:100AD000199840F824100E9B2998169A1C990133F6
:100AE00001441C919342119900F04A8203FB02F0E9
:100AF0000E93129A02EB80021992159A01EB4000B4
:100B0000032A179006D2B8F1000FE4D00024DDF8D4
:100B1000A0C028E10C9827900024289E17E000BF71
:100B2000269919982C9C40F821202499279A40F85E
:100B300021A02599DDF8A8A040F82150239954451B
:100B400040F82130C7D0229E08320836279244F060
:100B50000102289800EB4401219144F00201249203
:100B600000EB4202209244F00302259100EB410188
:100B70001D91239200EB42001E902694201D2C9084
:100B80001898002240F001E022961C9F4FF0000AC6
:100B900000250023DDF8A4802D95B6F900C0B6F934
:100BA000020037F9044CB6F904509946B6F90630FC
:100BB00037F902BC1CFB042206EB080110FB04AC55
:100BC0002D9815FB040536F9080013FB0493B1F9C1
:100BD000024010FB0B2AB1F90420B1F9060014FB06
:100BE0000BC912FB0B5C01EB080537F9082B31F937
:100BF000081010FB0B30B5F9023011FB02AAB5F951
:100C00000410B5F9064013FB029911FB02CC05EB69
:100C1000080137F9063C35F9085014FB0200B1F918
:100C2000024015FB03A2B1F90450B1F90610DDF83A
:100C3000B8B014FB039A5E4415FB03C511FB030314
:100C40000FF057C0DDF8AC80B8F1000F3FF468AF8B
:100C50002A98DDF85CE01B9E219C3EF91000DDF82F
:100C6000809034F916101F4639F91630B8F1010F8B
:100C700011FB00212D9113FB00AADDF874C01E9A10
:100C80003CF9161032F9163011FB005613FB0071B7
:100C900004D12A9F5546DDE92C4247E01498139B66
:100CA0003EF9107034F913803EF9105039F91340B1
:100CB00089462D9918FB07113EF9107014FB05AAFF
:100CC0003CF913803EF9105032F9134018FB0766C7
:100CD000DDF8AC8014FB0599B8F1020F554604D13C
:100CE0002A9F2C9C0A46494620E00F9B219C109885
:100CF0008A4634F91380209C3EF910103EF910709A
:100D000034F9134018FB01AA3CF9138014FB075572
:100D10003EF910703EF9100032F9134018FB0766D7
:100D2000DDE92A7814FB00912C9C5246269B1998E9
:100D3000BC4240F82320259A249B40F82260239A45
:100D400040F8235040F82210279A7FF4FCAEBA46B0
:100D5000B8F1000F3FF4BFAE15980328289800EBB8
:100D6000440C80F09B8000260021DDF8589006FBA3
:100D700009F3179ADDF8AC8032F91670B8F1010F5B
:100D80003CF9133013FB07113FF4A2AE46F0010308
:100D9000B8F1020F03FB09F732F913303CF9177071
:100DA00017FB03110AD046F00202169B5343179813
:100DB00030F912203CF9130010FB0211159804F1D0
:100DC000010C0328199840F82410289800EB4C08CF
:100DD0002C9404D200250022DDF8589027E01898C2
:100DE000002240F001E041460A981C9F00EB4403BA
:100DF000DDF85890B1F9005037F9044C37F9020C7E
:100E000031F9196015FB042231F9294016FB002045
:100E100037F9082B37F9065CB3F9006014FB0200C0
:100E20005B4416FB0502594455460FF01DC805FBEF
:100E300009F045F0010101FB09F3179E38F9100094
:100E400036F9157036F9111038F9133010FB0720F8
:100E500013FB01022B98022805D1014619988846F8
:100E600040F82C2037E645F002002C9C00FB09F1ED
:100E700036F9100038F9113015990329199904F140
:100E8000020813FB002041F82C00289800EB480CC6
:100E90002BD200250022DDF858904EE01898002152
:100EA00040F001E01C9BDDF85890DDF8248000BF85
:100EB000B2F9000033F9047C33F9026C32F91950AD
:100EC00010FB071133F9080B32F9297015FB0611D5
:100ED00033F9066C32F9085017FB00115A4415FB20
:100EE000061156460FF01DC041E71898002240F049
:100EF00001E007981C9F00EB44036046DDF8589022
:100F0000B0F9005037F9044C37F9021C30F9196078
:100F100015FB042230F9294016FB012137F9082B73
:100F200037F9065CB3F9006014FB02115B4416FB51
:100F30000512584455460FF01DC805FB09F045F051
:100F40000101179C01FB09F345F002063CF9100072
:100F500034F9157006FB09F534F9111010FB072060
:100F60003CF9132034F916303CF9157012FB0100DE
:100F7000199917FB030041F82800DDF8AC80AAE5B9
:100F80000B980D9900B201F09BF908990190002986
:100F900016984FEA80000B9000F08E801299012085
:100FA00001F1080805994FF00009002300EB910CAE
:100FB00000200D900022DDF87CB009E00D9116991B
:100FC00009F10109034689450B99884400F0D08056
:100FD0001598032802D200270D9932E04CF001E069
:100FE00040460D9950F8084C50F8045C22449C424D
:100FF0005FEADF932F465A45CCBF0A231744A54228
:1010000003EB010401685FEADF920E465F45CCBF47
:101010000A223E444368A9425FEADF9514441A4617
:101020005E45D4BF32440A258B425FEADF912C44EF
:101030005A45C4BF00220A212144103057460FF000
:101040002FC80D912B98119E864600281846B6D0C1
:10105000169809FB00F0129901EB800555F827005E
:10106000024498425FEADF915A45C4BF00220A2138
:101070000D9BBEF1010F1944A0D005EB87077B68DB
:101080001A4483425FEADF905A45C4BF00220A2017
:10109000BEF1020F00EB010402D10D9418468EE759
:1010A000B86898425FEADF9102445A45C4BF0A21FA
:1010B00000220C440D9482E70498DDF87CB00428EB
:1010C00005D24FF0000C0020002200233CE00698DF
:1010D000012220F0030C1298ACF10401002302EB72
:1010E000910E00F108010020002200BF51F8087C99
:1010F00051F8045C3B4497425FEADF922E465B4521
:10110000CCBF0A221E44BD4202EB000708685FEA1A
:10111000DF9304465E45CCBF0A2334444A68A842A4
:101120005FEADF95DE1913465C45D4BF23440A25E8
:1011300082425FEADF90AC195B45C4BF00230A20FE
:10114000204410310FF02FC00D900698119EC0075B
:10115000DDF8ACE00CD0129850F82C0090425FEA19
:10116000DF9118445845C8BF0A210D9808440D90D6
:101170004AF0010016991490484313904AF0020077
:10118000109048430F900120059A0023774600EB0A
:10119000920018900EE000BF199840F824100E9BA2
:1011A0002998169901331A9A02441A928B42119E79
:1011B00000F0478303FB01F00E93129901EB8001CD
:1011C0001991159906EB40000329179006D2002FBC
:1011D000E5D0002428982D90B9E100BF0C98269006
:1011E0000024289A17E000BF259ADDF8A8A01998D6
:1011F000279C5445269D40F822C0239A40F822801F
:10120000249A40F82210229940F82130C7D0219A20
:1012100008350832269544F00103289800EB440174
:101220001C9144F00201239300EB43031D9344F00F
:101230000303249100EB41012091229300EB430032
:101240001E902594201D279018984FF0000C40F018
:1012500001E021921A9E4FF0000800210023DDF8E2
:10126000A4B000BF36F8044C108857886043674329
:10127000C0F38305C0F3461015FB00C9958805FB34
:1012800004F0C7F38305C7F3461715FB0788D58815
:10129000C0F38307C0F3461017FB001C32F80B1095
:1012A00005FB04F036F8024C02EB0B07C0F3830594
:1012B000C0F34610614315FB003A7888C1F38305FB
:1012C000C1F346116043BB8815FB0199F988C0F34F
:1012D00083056343C0F34610614315FB008836F86D
:1012E000085B37F80B40C3F38300C3F3461310FBCE
:1012F00003CCC1F3830304FB05F007EB0B04C1F33C
:10130000461113FB01A7C0F38301C0F346106388A5
:1013100011FB009004EB0B0A2D90A0886B436843EF
:10132000C3F38301C3F3461311FB0388E388C0F3BF
:101330008301C0F3461011FB00C003FB05F136F832
:10134000065C34F80B302C90C1F38300C1F34611D6
:101350006B432D9C10FB0179BAF80200BAF80470B7
:10136000C3F38301C3F34613684311FB034C2C9C66
:1013700007FB05F3BAF80670C0F38301C0F346100B
:1013800011FB0088C3F38300C3F3461107FB05F389
:1013900010FB0141C3F38300C3F3461310FB039317
:1013A0002E9802440FF0A3C02B9F002FDDF87CB0D5
:1013B0003FF41AAF2A98DDF85CB0DDE91B49DDF88F
:1013C00074E0DDF880A03BF8100039F814203EF8F6
:1013D00014703AF8145042434743C2F38306C2F3F1
:1013E000461216FB02C2DDF878C0C7F38306C7F3C6
:1013F000461716FB07883CF8147045437843C5F33D
:101400008307C5F3461517FB0511C0F38307C0F327
:10141000461017FB00332B9F012F05D1DDF87CB060
:10142000269D164675E000BF2C914146DDF85080A0
:10143000139E3BF8180039F816703EF816507843A2
:101440003BF818706F43C0F38304C0F346103BF8B9
:10145000185014FB0022C7F38300C7F346173CF86B
:10146000164010FB07113BF818003AF816702D9241
:101470002C9A784304FB05F7C0F38305C0F34610AC
:1014800015FB0022C7F38300C7F3461710FB073391
:101490002B9F022F05D1DDF87CB0269D2D9E88461E
:1014A00036E0109C0F9EE0463BF8140039F81670A9
:1014B0003EF81650DDF8B49078433BF81470C0F352
:1014C000830CC0F3461E20986F433BF814503BF842
:1014D000144030F816001CFB0E99C7F3830CC7F3B9
:1014E0004617454338F816001CFB0718DDF87CB09A
:1014F0006043C5F38307C5F346154E4617FB052227
:10150000C0F38307C0F34610269D17FB00332B9FC3
:101510001146259ADDF8A8A01998279C544540F853
:101520002260239A40F82280249A40F822102299BF
:1015300040F821307FF46BAE002F3FF430AE1598A9
:101540000328289800EB44002D9080F0CD800023E4
:101550000022DDF8588003FB08F1179D2D9E35F819
:10156000137036F811107943C1F38307C1F34611A4
:1015700017FB01212B9F012F3FF40EAE43F0010218
:10158000384602FB08F7022835F8122036F81770A3
:1015900007FB02F2C2F38307C2F3461217FB0211E4
:1015A0000ED043F00202169B534335F8122036F852
:1015B00013005043C0F38302C0F3461012FB001126
:1015C0001598621C0328199840F82410289800EBFD
:1015D00042082D92279404D200200022DDF8589072
:1015E0003CE01898002240F001E041460A9800EBE8
:1015F00044031A9FDDF85890DDF8B8C037F8040CA2
:101600000C8831F81950604337F8024C6C43C0F332
:101610008306C0F3461016FB0020C4F38302C4F314
:1016200046141E8812FB040037F8082B31F82940B5
:1016300037F8065C63446144624306FB05F4C2F379
:101640008305C2F3461215FB0200C4F38302C4F300
:10165000461412FB040250460FF031C000FB09F1A2
:1016600040F0010303FB09F7179D38F8111035F816
:10167000106035F8133038F8177071437B43C1F3AD
:101680008307C1F3461117FB0121C3F38302C3F3A0
:1016900046132B9F12FB0312022F04D12D99199888
:1016A00040F821207BE540F00200279C00FB09F177
:1016B000A71C35F8100038F8111048431599032974
:1016C0001999C0F38303C0F3461013FB00202D9A31
:1016D00041F82200289800EB470C2D9740D20025B6
:1016E0000022DDF8589079E01898002240F001E0DF
:1016F0001A99DDF82490DDF8588000BF31F8043CD9
:101700002F8835F8186035F809007B4331F8027CE2
:101710007743C3F3830CC3F346131CFB0322C7F3C5
:101720008303C7F3461713FB072231F8083B35F84C
:10173000287031F8066C7B4300FB06F72E98C3F344
:101740008306C3F3461316FB0322C7F38303C7F3D1
:101750004617054413FB072253460FF031C8FAE63B
:101760001898002240F001E007981A9F00EB44030C
:101770006046DDF85890DDF8B88000BF37F8045CAB
:10178000048830F81910654337F8024C6143C5F3FB
:101790008306C5F3461516FB0522C1F38304C1F386
:1017A00046111E8814FB012137F8082B30F8294018
:1017B00037F8065C43444044624306FB05F4C2F339
:1017C0008305C2F3461215FB0211C4F38302C4F36E
:1017D0004614554612FB04120FF031C005FB09F107
:1017E000179C45F0010034F8157000FB09F33CF834
:1017F000111034F81000794345F0020707FB09F691
:101800003CF8133034F817705843C1F383033CF8A5
:101810001660C1F3461113FB0121C0F3830506FBDB
:1018200007F2C0F3461015FB00102B9FC2F3830193
:10183000C2F3461211FB02002D9A199941F82200B9
:10184000ADE40D9800B2019900F03AFD08992E9090
:10185000002900F080801299012001F10809059902
:101860004FF0000A002600EB910800200027DDF869
:10187000A8C012E0AA68B2425FEADF9117445F4550
:10188000C4BF0A210027084416990AF1010A164626
:101890008A450B99894400F0B0801599032901D23B
:1018A000002531E048F001E04A4600BF52F8084CFC
:1018B00052F8041CE519B4425FEADF960F465D4515
:1018C000CCBF0A262F441368A1425FEADF941D466D
:1018D00030445F45CCBF0A243D4456688B425FEAE2
:1018E000DF91374620445D45D4BF2F440A219E42F4
:1018F0005FEADF9308445F45C4BF00270A2318440A
:10190000103265460FF02FC02B9B3246002BBBD008
:1019100016990AFB01F1129A02EB810454F8252072
:101920001744B2425FEADF915F45C4BF00270A2136
:10193000012B0844A8D004EB85056E683744964215
:101940005FEADF915F45C4BF00270A21022B0844EC
:1019500090D1324698E70498042805D24FF0000849
:101960000020002100253AE00698012120F003081C
:101970000025A8F1040001EB900E129800F1080375
:101980000020002153F8084C53F8046C25448C4285
:101990005FEADF9137465D45CCBF0A212F440D1821
:1019A0001868A6425FEADF9402465F45CCBF0A246E
:1019B0003A445968B0425FEADF962C440D465A45D6
:1019C000D4BF15440A2681425FEADF9032195D4593
:1019D000C4BF00250A20104410330FF02DC8069A0A
:1019E000D2070AD0129A52F828208A425FEADF9181
:1019F0002A445A45C8BF0A21084400B22E9900F073
:101A00005FFC0899C9B1009A029E119B0022169CA6
:101A10001D4614F001E000BF93ED801E11EE461F3D
:101A2000A3EC881E1FF009C0169C0132299FA24218
:101A300005EB0703ECD1039A0EE0069E119FDDE94A
:101A4000023216F001E000BF97ED801E11EE431F39
:101A5000A7EC881E1FF009C000B211462FB0BDE8E8
:101A6000F04F00F02DBC00BF2DE9F04F91B08B4638
:101A700001931B9902919BF800701A9C4FF0000A89
:101A8000CDE907AA002FCDF82CA0CDE905AACDF805
:101A900038A0CDE903AACDE909AACDE90CAACDE980
:101AA0000FAA00F0018109AD0DF11C0E0DF1140912
:101AB0003946DC460EE000BF4FF000080CF1010C87
:101AC00055F82810013145F828109CF8001000291D
:101AD00000F0EA802C29EFD0A1F13A0313F10B0FAB
:101AE00010D82B2918BF2D2929D161460AF1010AE6
:101AF0004FF0020811F8013F43B32C2B28D101F11C
:101B0000010CDDE71CF8011F0AF1010A00294FF062
:101B10000408D5D02C29D1D00CF1010C2E2936D0B7
:101B20003A3911F10A0F51D31CF8011B002951D089
:101B30002C29F3D1ACF1010C4FF00408BEE72E299B
:101B400019D11CF8016F0AF1010A0DE08C46B7E7C4
:101B5000A3F13A0616F10B0F13D82E2B3FD107999C
:101B6000013107911CF8026F002E4FF00508A7D035
:101B70002C2EA3D013E008990AF1010A0131089133
:101B800046E00799013107911CF8021FBEE705994D
:101B9000013105919CF8006026B32C2E13D00CF176
:101BA000030100BF06F0DF03452B1ED0A6F13A0368
:101BB00013F10A0F26D311F8026C01316EB32C2EEB
:101BC000F0D1A1F1030C4FF0050877E7ACF1010C5F
:101BD00049461AE0ACF1010C4FF0040870E78C465E
:101BE000714612E04FF005086AE7049B8C4601330A
:101BF00004931CF8023D2B2B14DC1BB32B2B15D0AC
:101C000006A902E0A1F1030C04A90B6801330B60E3
:101C10000CF1010C4FF0010852E7A1F1030C4FF059
:101C200005084DE72C2B10D02D2BE9D1069B8C46B7
:101C3000013306931CF8013D2C2B09D05BB94FF002
:101C400006083DE74FF003083AE74FF0030835E791
:101C50004FF0060832E73A3B13F10A0F01D203A90D
:101C6000D3E7039B013303930B782C2B04D043B9A8
:101C70004FF007088C4623E74FF0070801F1010CED
:101C80001EE78C46A3F13A0111F10A0F07D31CF8A5
:101C9000013F33B12C2BF5D14FF007080EE708A90F
:101CA000B3E74FF007080BE701280BEB000E1FFA14
:101CB00084F900942EDBD1B24FEA490212FA84F77C
:101CC0005C4605E04B444B4403EB090474451FD2CA
:101CD00023782C2B01D04B40237004EB0903734570
:101CE00016D21D782C2D02D085EA01061E70A5188B
:101CF00075450DD22E782C2E01D04E402E70E51950
:101D0000754505D22E782C2EDCD04E402E70D9E7AA
:101D10009BF80070002F00F0EF8009AC07AD03AE18
:101D200059460AE00027013154F82720013244F8CF
:101D300027200F78002F00F0DF802C2FF2D0A7F1A2
:101D40003A0212F10B0F0FD82B2F18BF2D2F26D1CF
:101D50000A460AF1010A022712F8013F33B32C2B7D
:101D600026D1511CE0E700BF11F8012F0AF1010A4A
:101D7000002A4FF00407D7D02C2AD4D0013100BF5D
:101D80002E2A36D03A3A12F10A0F56D311F8012B07
:101D9000002A55D02C2AF3D101390427C3E72E2F6E
:101DA0001BD111F8018F0AF1010A0DE01146BBE7C2
:101DB000A3F13A0717F10B0F15D82E2B43D1079A31
:101DC0000132079211F8028FB8F1000F4FF00507AA
:101DD000AAD0B8F12C0FA6D016E0089A0AF1010A91
:101DE0000132089247E0079A0132079211F8022F58
:101DF000BEE7059A0132059291F80080B8F1000F14
:101E000024D0B8F12C0F16D001F1030C08F0DF013B
:101E100045291DD0A8F13A0111F10A0F25D31CF86C
:101E2000028C0CF1010CB8F1000F27D0B8F12C0F87
:101E3000ECD1ACF10301052775E7013905AA17E0DC
:101E40000139042770E711462A4611E005276BE7A0
:101E5000049901310491614611F8022D2B2A11DCFD
:101E6000FAB12B2A12D006AA02E0ACF1030104AAAF
:101E70001368013313600131012755E7ACF1030109
:101E8000052751E72C2A0ED02D2AECD106990131D5
:101E90000691614611F8012D2C2A06D03AB9062781
:101EA00042E7032740E703273DE706273BE73A3AA7
:101EB00012F10A0F01D23246DAE703990131039198
:101EC0009CF800202C2A03D032B9072761462BE763
:101ED00007270CF1010127E761463A3A12F10A0F90
:101EE00006D311F8012F2AB12C2AF6D107271AE7B9
:101EF00008AABDE7072717E7012830DB009A0198F9
:101F00004FEA4901C0B211FA82F205E04B444B445A
:101F100003EB090BF34522D29BF800302C2B02D0A7
:101F200043408BF800300BEB0903734517D21F7841
:101F30002C2F01D047401F700BEB010777450ED2C5
:101F40003E782C2E01D046403E700BEB02077745C1
:101F500005D23E782C2ED9D046403E70D6E709985F
:101F6000029900F0BDF80146504600F0B9F801466C
:101F70000A9800F0B5F80146089800F0B1F801465B
:101F80000B9800F0ADF80146079800F0A9F801465B
:101F90000C9800F0A5F80146069800F0A1F801465B
:101FA0000D9800F09DF80146059800F099F801465B
:101FB0000E9800F095F80146049800F091F801465B
:101FC0000F9800F08DF80146039800F089F801465B
:101FD000109800F085F80146002011B0BDE8F04FE0
:101FE0007EE000BF00BF00BF10B54AF2010481EAE5
:101FF000000ECFF6FF745FEACE7284EA51035FFAF7
:1020000080FC08BF4B0883EA5001C3F34E02C907A6
:1020100018BF624082EA9001C2F34E02C90718BF9E
:10202000624082EAD001C2F34E02C90718BF624083
:1020300082EA1011C2F34E02C90718BF624082EA59
:102040005011C2F34E02C90718BF624082EA9011D4
:10205000C2F34E02C90718BF624002F00101C2F389
:102060004E02B1EBDC1F18BF624082EA1021C2F3BE
:102070004E02C90718BF624082EA5021C2F34E02E5
:10208000C90718BF624082EA9021C2F34E02C90715
:1020900018BF624082EAD021C2F34E02C90718BFBE
:1020A000624082EA1031C2F34E02C90718BF624093
:1020B00082EA5031C2F34E02C90718BF624082EA79
:1020C0009031C2F34E02C90718BF624002F001010D
:1020D000C2F34E02B1EBD03F18BF624090B210BDC8
:1020E00010B54AF2010481EA000ECFF6FF745FEAF0
:1020F000CE7284EA51035FFA80FC08BF4B0883EA82
:102100005001C3F34E02C90718BF624082EA900132
:10211000C2F34E02C90718BF624082EAD001C2F37F
:102120004E02C90718BF624082EA1011C2F34E0284
:10213000C90718BF624082EA5011C2F34E02C907B4
:1021400018BF624082EA9011C2F34E02C90718BF5D
:10215000624002F00101C2F34E02B1EBDC1F81B21A
:1021600018BF624082EA1023C2F34E02DB0718BF99
:10217000624082EA5023C2F34E02DB0718BF62407E
:1021800082EA9023C2F34E02DB0718BF624082EA64
:10219000D023C2F34E02DB0718BF624082EA10333D
:1021A000C2F34E02DB0718BF624082EA5033C2F32B
:1021B0004E02DB0718BF624082EA9033C2F34E0240
:1021C000DB0718BF624002F00103C2F34E02B3EB1B
:1021D000D13FC0F3C05318BF624082EA1041C2F33E
:1021E0004E02C90718BF624082EA5041C2F34E0254
:1021F000C90718BF624082EA9041C2F34E02C90784
:1022000018BF624082EAD041C2F34E02C90718BF2C
:10221000624082EA1051C2F34E02C90718BF624001
:1022200082EA5051C2F34E02C90718BF624082EAE7
:102230009051C2F34E02C90718BF624002F001017B
:10224000C2F34E02994218BF624082EA1061C2F3A3
:102250004E02C90718BF624082EA5061C2F34E02C3
:10226000C90718BF624082EA9061C2F34E02C907F3
:1022700018BF624082EAD061C2F34E02C90718BF9C
:10228000624082EA1071C2F34E02C90718BF624071
:1022900082EA5071C2F34E02C90718BF624082EA57
:1022A0009071C2F34E02C90718BF624002F00101EB
:1022B000C2F34E02B1EBD07F18BF624090B210BDA6
:1022C00010B54AF2010481EA000ECFF6FF745FEA0E
:1022D000CE7284EA51035FFA80FC08BF4B0883EAA0
:1022E0005001C3F34E02C90718BF624082EA900151
:1022F000C2F34E02C90718BF624082EAD001C2F39E
:102300004E02C90718BF624082EA1011C2F34E02A2
:10231000C90718BF624082EA5011C2F34E02C907D2
:1023200018BF624082EA9011C2F34E02C90718BF7B
:10233000624002F00101C2F34E02B1EBDC1F81B238
:1023400018BF624082EA1023C2F34E02DB0718BFB7
:10235000624082EA5023C2F34E02DB0718BF62409C
:1023600082EA9023C2F34E02DB0718BF624082EA82
:10237000D023C2F34E02DB0718BF624082EA10335B
:10238000C2F34E02DB0718BF624082EA5033C2F349
:102390004E02DB0718BF624082EA9030C2F34E0261
:1023A000C00718BF624002F00100C2F34E02B0EB5A
:1023B000D13F18BF624090B210BD0000B0D440338E
:1023C000796A14E7C1E352BE99110856D71F47072F
:1023D000475EBF39A4E53A8E848D00006473000225
:1023E0008073000285730002697300022E7300027D
:1023F00040730002497300023773000277730002D2
:10240000527300026E7300025B7300028A73000253
:10241000D27300020B740002B27300026600000067
:1024200080380100000000004009000000000000AA
:082430000000000000000000A4
:020000040200F8
:1024380030B50B46014600202022012409E021FA8C
:1024480002F59D4205D303FA02F5491B04FA02F589
:102458002844151EA2F10102F1DC30BD2DE9F05F20
:102468000546002092469B468846064681464024FB
:102478001BE0284641464746224600F0E8F9534605
:102488005A46C01A914110D311461846224600F008
:10249800CFF92D1A67EB01084F462246012000218B
:1024A80000F0C6F917EB00094E41201EA4F1010403
:1024B800DFDC484631462A464346BDE8F09F2DE911
:1024C800FE4F804681EA0300C00F0C46009021F0C1
:1024D800004123F00045B8EB0200A94105D240466F
:1024E800214690461C460B46024623F00040104306
:1024F80047D0270DC7F30A00C3F30A510290401AC8
:10250800019040286BDAC3F3130040F4801B009855
:10251800924620B10023D2EB030A63EB0B0B019820
:102528005946C0F14002504600F082F906460D4671
:1025380050465946019A00F09AF910EB080061419B
:10254800002487EA115284EAE7731A4340D0009ABC
:1025580062B3019A012A4FEA075215DC001B61EBAE
:1025680002014FF0004202EA0752CDE90042001C86
:1025780041F5801132462B4600F09AF903B0BDE8C8
:10258800F08F40462146F9E7001B61EB0201001C71
:1025980041F5801300185B412018A2F5001747EB9E
:1025A800030140EAD570B6196D4111E06D084FEA94
:1025B800360645EAC0754FEA0752001B61EB020177
:1025C800001C41F5801149084FEA300000195141BB
:1025D80032462B4603B0BDE8F04F00F05AB90098D8
:1025E800012240000023D0EB020263EBE073009865
:1025F80021464FEAE074B8EB000061EB0401E9E71B
:1026080083F000435BE781F0004158E72DE9FE4F76
:1026180081EA030404F0004421F0004100944FF0E3
:10262800000B23F0004350EA01045ED052EA030491
:102638005BD0C3F30A54C1F30A552C44A4F2F33413
:102648000194A0FB0254C1F3130141F48011C3F3B8
:10265800130343F4801301FB024400FB034E840A76
:10266800970A44EA815447EA8357A4FB076802950E
:102678008D0A05FB07854FEA932C04FB0C542705AC
:10268800029D4FEA065847EA1637B5EB08056EEB88
:10269800070C870E920E47EA811742EA8312A7FBBE
:1026A8000201B6EB0B0164EB00042B0D43EA0C337B
:1026B8005E1844EB1C50DA465146E7FB0201C5F3AD
:1026C80013044FEA0B3343EA14534FEA0432019CD4
:1026D80043EA0603A4F10C040294009CCDE900B47B
:1026E80000F0E6F803B0BDE8F08F00200146F9E7F6
:1026F8002DE9F04D81EA030404F0004B21F0004578
:1027080014464FF0000A23F0004150EA050220D099
:1027180054EA01021DD0C5F30A570246C5F3130354
:10272800C1F31300C1F30A5640F4801543F4801333
:10273800A7EB0608101BD64608F2FD3873EB050018
:1027480002D308F1010801E092185B41B8F1000FCB
:1027580003DA00200146BDE8F08D00204FF4801117
:10276800064684460EE0171B73EB050705D3121BBC
:1027780063EB050306434CEA010C49084FEA3000B5
:1027880092185B4150EA0107EDD152EA030012D0DA
:1027980082EA040083EA0501084305D0101BAB4117
:1027A80006D20122002306E000224FF0004302E097
:1027B8006FF0010253101AEB06004CEB085110EBB6
:1027C8000A0041EB0B01BDE8F04D00F062B8C1F31F
:1027D8000A52C1F3130140F2FF3341F480119A42C7
:1027E80002DA00200146704740F233439A42A2F2CF
:1027F800334202DC524200F02AB800F019B8000057
:1028080030B5041E71F1000404DB4FF0004440426F
:1028180064EB0101141E73F1000405DB1C464FF044
:102828000043524263EB0403994208BF904230BD13
:10283800202A04DB203A00FA02F100207047914078
:10284800C2F1200320FA03F3194390407047202A6D
:1028580004DB203A21FA02F00021704721FA02F342
:10286800D040C2F120029140084319467047202AFF
:1028780006DBCB17203A41FA02F043EAE07306E0A0
:1028880041FA02F3D040C2F12002914008431946B0
:10289800704710B5141E73F1000408DA401C41F1AA
:1028A800000192185B411A4301D120F0010010BDCC
:1028B8002DE9F04D92469B4611B1B1FA81F202E042
:1028C800B0FA80F220329046FFF7B2FF04460F4676
:1028D80040EA0A0041EA0B0153465A46084313D01E
:1028E800114653EA010019D0C8F140025046FFF7DB
:1028F800AEFF05460E46504659464246FFF798FF3A
:10290800084305D0012004E020463946BDE8F08D93
:102918000020054346EAE0762C4337430A986305CE
:10292800E40AA0EB08000022FD0A44EA47540A30F2
:1029380002D500200146E9E7010510196941DDE9E2
:10294800084500196941BDE8F04DA2E72DE9F041BD
:102958000024061B254671F1000605DA012400272C
:10296800D0EB070067EB0101161E73F1000605DACC
:102978000027D2EB0702012567EB0303FFF76EFD83
:1029880086460E4617469C46AC4204D00025D0EB3E
:10299800050E65EB010624B10020D2EB000760EBC1
:1029A800030C704631463A466346BDE8F08140EA7A
:1029B80001039B0703D009E008C9121F08C0042AB5
:1029C800FAD203E011F8013B00F8013B521EF9D29C
:1029D8007047D2B201E000F8012B491EFBD27047C4
:1029E8000022F6E710B513460A4604461946FFF7D3
:1029F800F0FF204610BD00007CB50748009007484E
:102A080001900546009C04E0204601680844804780
:102A1800241DAC42F8D17CBD6474000268740002C5
:102A28004EF63050CEF200000068800640F18180FA
:102A380043F6804CCEF2000CDCF84010B1F1FF3FB9
:102A480013DC4FF00041CCF80010EFF311810022A5
:102A580082F3128840F25002C2F20022D2E900301A
:102A68000130C2E9003081F31188DCF88001C1B27D
:102A780002295ED3DCF8000080070BD50220CCF8D1
:102A8800000040F2C800C2F20020D0E90023013360
:102A9800C0E9002304294CD3DCF8000000070BD55B
:102AA8000820CCF8000040F2C800C2F20020D0E9AB
:102AB80002230133C0E9022306293AD3DCF80000D7
:102AC80080060BD52020CCF8000040F2C800C2F2E6
:102AD8000020D0E904230133C0E90423062928D0C3
:102AE800DCF8400040060ED54020CCF8000040F24B
:102AF800C800C2F20020D0E9062312F5803243F163
:102B08000003C0E90623082913D3DCF840000006B7
:102B180058BF70478020CCF8000040F2C800C2F2CD
:102B28000020D0E9081211F5803142F10002C0E915
:102B3800081270470000000000BE70470000000047
:102B4800B0B572B64EF6285571A0CEF2000503F066
:102B5800B7FD6868002804D46868400004D580A0E0
:102B680000E077A003F0ACFD46F60650EFF30884CA
:102B7800C0F2002003F0A4FD46F667502168C0F2B9
:102B8800002003F033F946F675506168C0F2002062
:102B980003F02CF946F68350A168C0F2002003F038
:102BA80025F946F69150E168C0F2002003F01EF9BD
:102BB80046F6BB502169C0F2002003F017F946F62B
:102BC800AD506169C0F2002003F010F946F69F503D
:102BD800A169C0F2002003F009F946F62860E1690E
:102BE800C0F2002003F002F946F6E340C0F20020EC
:102BF80003F066FD46F6EB502968C0F2002003F0AA
:102C0800F5F846F6FF5055F8241CC0F2002003F0F2
:102C1800EDF846F613606968C0F2002003F0E6F8A4
:102C280046F6C040C0F2002003F04AFD46F6276091
:102C3800EFF30581C0F2002003F0D8F8286880017E
:102C480005D546F6B560C0F2002003F039FD2868C6
:102C5800C00105D546F66470C0F2002003F030FDCF
:102C68002868C00224D546F6D170C0F2002003F0CF
:102C780027FD46F645502146C0F2002003F0B6F87D
:102C880046F6C950EFF30A81C0F2002003F0AEF80F
:102C980046F65650EFF30981C0F2002003F0A6F87B
:102CA80046F6DA50EFF30B81C0F2002003F09EF8ED
:102CB8002868000305D546F6FC60C0F2002003F042
:102CC800FFFC2868400305D546F62950C0F20020CD
:102CD80003F0F6FC2868800305D546F65760C0F275
:102CE800002003F0EDFC2868C00305D546F68E6089
:102CF800C0F2002003F0E4FC2868C00505D546F6BC
:102D0800D560C0F2002003F0DBFC00BEB0BD00BF00
:102D18003D3D3D3D3D3D3D3D3D3D3D3D3D3D3D20F8
:102D2800496E20486172644661756C74203D3D3D72
:102D38003D3D3D3D3D3D3D3D3D3D3D3D0D0A000098
:102D4800486172644661756C74206F636375727252
:102D580065642062792044454255470D0A00000009
:102D6800486172644661756C74206F636375727232
:102D78006564206279206F74686572206578636580
:102D88007074696F6E20666F726365640D0A000067
:102D98004CF22010C4F2000050F8201C02681140C8
:102DA80040F8101C02680A4208D002680A421CBF98
:102DB80002680A4202D002680A42F3D17047000052
:102DC80000F002F802F0F4FD2DE9F04F85B04EF660
:102DD800145440F20120CEF20004C0F20E004EF26C
:102DE80000052060CEF20105BFF34F8FBFF36F8F50
:102DF80054F8140CC0F3035110F00F0F5FEA0F9052
:102E080001295FEA1081286810D879B940F00400D8
:102E180028604EF20800BFF34F8FCEF20000BFF3D8
:102E28006F8F016841F48031016002E020F00400F6
:102E38002860BFF34F8F4EF2FA374FF47000BFF39C
:102E48006F8F606740F20000C4F20107C0F20020F3
:102E580044F80C0C4AF20250CFF6FF7040F22006FC
:102E68000FF6D41101303880C2F200260FF6D810C0
:102E780091ED001F4EF2550806F1200386ED001F64
:102E8800C4F201084AF2003190ED001F46F20050EA
:102E980041F60042C1F6CD5086ED041FC1F2E111A2
:102EA800C0F64E6207C318F82F0C38F8311C01F031
:102EB8000F02A2F1080103292BD8DFE801F0022054
:102EC8000C164AF6AB2156F82000CAF6AA21A0FB38
:102ED8000101480820E04AF6AB2156F82000CAF65E
:102EE800AA21A0FB0101C80816E04AF6AB2156F852
:102EF8002000CAF6AA21A0FB010108090CE04AF645
:102F0800AB2156F82000CAF6AA21A0FB01018808C7
:102F180002E056F82000D04040F270014EF6004A18
:102F2800C2F20021C4F2010A4DF6836908604FF627
:102F38005060CFF6FF700A21C4F21B390AF800105E
:102F4800092088F84D004EF64C419AF80000C4F26A
:102F5800010118B911F84B0C800709D09AF8000044
:102F6800002800F0EC80002001F84B0C8AF80000E3
:102F7800002008F8230C18F8190C00070CD418F8CE
:102F8800190C00075CBF18F8190C5FEA007003D42D
:102F980018F8190C0007EED549F20250C8F873006A
:102FA80040F2374028F8070C002008F80B0C4FF6C1
:102FB8000211C8F8571040F2513128F8091CBFF324
:102FC8004F8FBFF36F8F216821F400312160C4F85F
:102FD8003C02BFF34F8FBFF36F8F286820F4405037
:102FE8002860BFF34F8FBFF36F8F18F8410C00F0C4
:102FF800F800013008F8410C18F8410CC0060CD54F
:1030080018F8410CC00644BF18F8410C5FEAC060CC
:1030180003D518F8410CC006EED4286840F4405097
:103028002860BFF34F8FBFF36F8F2068800312D4DF
:10303800BFF34F8FBFF36F8F0020C4F83C02BFF37C
:103048004F8FBFF36F8F206840F400302060BFF3CC
:103058004F8FBFF36F8F002008F82B0C18F8190C4E
:1030680080060CD418F8190C80065CBF18F8190CE7
:103078005FEA806003D418F8190C8006EED54CF28C
:1030880004050020C4F2130505F8040C15F8040C17
:1030980015F8040C15F8040C2868FA2827D1686874
:1030A8007D2838D143F23240C3F2232048F8350C4A
:1030B80042F2202028F8310C052008F82F0C18F8C7
:1030C8002F0C38F8311C01F00F02A2F10801032976
:1030D80071D8DFE801F00266525C4AF6AB2156F877
:1030E8002000CAF6AA21A0FB0101480866E0FA20E0
:1030F800C1F6006028602968FA29D0D028602968BC
:10310800FA291EBF28602968FA29C8D028602968CA
:10311800FA29EFD1C3E77D20CEF200106860696814
:103128007D29BFD0686069687D291EBF68606968AD
:103138007D29B7D0686069687D29EFD1B2E70120A1
:103148008AF8000040F2700041F2FF11C2F200203C
:10315800C0F27A010068884241F28D8144F23F2131
:10316800C0F20F010844A0FB0901880CC82148439C
:10317800002841F08D8101F08DB94AF6AB2156F84F
:103188002000CAF6AA21A0FB0101C80816E04AF6E9
:10319800AB2156F82000CAF6AA21A0FB01010809B4
:1031A8000CE04AF6AB2156F82000CAF6AA21A0FB8B
:1031B8000101880802E056F82000D04041F2FF11D2
:1031C800C0F27A01884240F27001C2F20021086020
:1031D8000DD944F23F21C0F20F010844A0FB0901B8
:1031E800880C0001A0EB9140400058B90CE04CF667
:1031F8000021C3F69A31B1FBF0F047F23051B1FB30
:10320800F0F008B101F00CFA28686FF39F206528E8
:1032180002D3012005F8040C18F82F0C38F8311CDB
:1032280001F00F02A2F1080103292BD8DFE801F011
:1032380002200C164AF6AB2156F82000CAF6AA213D
:10324800A0FB0101480820E04AF6AB2156F820000F
:10325800CAF6AA21A0FB0101C80816E04AF6AB216C
:1032680056F82000CAF6AA21A0FB010108090CE0C3
:103278004AF6AB2156F82000CAF6AA21A0FB0101A4
:10328800880802E056F82000D04040F270014FF460
:103298002542C2F20021086042F20000C4F2000098
:1032A8004AF20251013901800121BFF35F8F017297
:1032B800BFF35F8F028008F8251C08F8031C08F884
:1032C800021C98F81F0040F0400088F81F0098F989
:1032D8001F0000280CD498F91F0000285CBF98F93B
:1032E8001F00002804D498F91F00B0F1FF3FEEDC5E
:1032F800062088F817004A2088F81F000A2088F856
:103308001F0098F91F00B0F1FF3F0DDC98F91F006E
:10331800B0F1FF3FDCBF98F91F00B0F1FF3F03DCBD
:1033280098F91F000028ECD443F204054AF2025031
:10333800C4F22005B7F800B0013038802868C0030F
:1033480022D40120EFF3108680F3108841F2FF1198
:103358002868C0F27A0140F480302860286840F27A
:103368007000C2F20020006888420FD944F23F2161
:10337800C0F20F010844A0FB0901880C0001A0EB72
:103388009140400068B90EE000260FE04CF600219D
:10339800C3F69A31B1FBF0F047F23051B1FBF0F0CF
:1033A80008B101F03DF986F31088012628688003EA
:1033B8003AD40120EFF3108980F3108841F2FF110D
:1033C8002868C0F27A0140F400302860286840F28A
:1033D8007000C2F200200068884210D944F23F21F0
:1033E800C0F20F0108444DF68361C4F21B31A0FB03
:1033F8000101880C0001A0EB9140400009E04CF667
:103408000021C3F69A31B1FBF0F047F23051B1FB1D
:10341800F0F006F1020608B101F002F989F310880C
:103428004DF68369C4F21B3998F8200040F2200158
:10343800C2F2002100F00F0051F8200098F818108F
:1034480001F00F01032901D2012209E0CA1E052A51
:1034580004D20FF6101151F8221003E00839102297
:1034680002FA01F1B0FBF1F0A0FB090240F2700092
:10347800C2F20020016841F2FF10C0F27A008142D6
:103488004FEA92400BD944F23F22C0F20F02114496
:10349800A1FB0912910C4843400060B90DE04CF6BD
:1034A8000022C3F69A32B2FBF1F14FF4FA625043AC
:1034B800B0FBF1F008B101F0B3F898F8200040F043
:1034C800400088F8200098F9200000280CD498F9CA
:1034D800200000285CBF98F92000002804D498F93F
:1034E8002000B0F1FF3FEEDC012088F818004A20E8
:1034F80088F820000A2088F8200098F92000B0F108
:10350800FF3F0DDC98F92000B0F1FF3FDCBF98F9D0
:103518002000B0F1FF3F03DC98F920000028ECD42C
:10352800F00735D00120EFF3108780F3108841F2BF
:10353800FF112868C0F27A0120F4803028602868DA
:1035480040F27000C2F20020006888420DD944F2AF
:103558003F21C0F20F010844A0FB0901880C0001BB
:10356800A0EB9140400058B90CE04CF60021C3F69E
:103578009A31B1FBF0F047F23051B1FBF0F008B1ED
:1035880001F04EF887F310884EF2FA37C4F20107BB
:10359800B00731D50120EFF3108680F3108841F28F
:1035A800FF112868C0F27A0120F4003028602868EA
:1035B80040F27000C2F20020006888420DD944F23F
:1035C8003F21C0F20F010844A0FB0901880C00014B
:1035D800A0EB9140400058B90CE04CF60021C3F62E
:1035E8009A31B1FBF0F047F23051B1FBF0F008B17D
:1035F80001F016F886F310884BF42540388098F8C7
:10360800000040F0400088F8000098F90000002809
:103618000CD498F9000000285CBF98F90000002835
:1036280004D498F90000B0F1FF3FEEDC012008F85F
:10363800010CCA2088F8000098F800004EF2000338
:10364800CEF2010300F0BF0088F8000098F90000EE
:10365800B0F1FF3F0DDC98F90000B0F1FF3FDCBF8F
:1036680098F90000B0F1FF3F03DC98F9000000284A
:10367800ECD498F8020040F0400088F8020098F96D
:10368800020000280CD498F9020000285CBF98F9C1
:103698000200002804D498F90200B0F1FF3FEEDCE4
:1036A800002088F80100C72088F8020098F8020076
:1036B80000F0BF0088F8020098F90200B0F1FF3F5F
:1036C8000DDC98F90200B0F1FF3FDCBF98F9020069
:1036D800B0F1FF3F03DC98F902000028ECD498F819
:1036E800080040F0400088F8080098F90800002811
:1036F8000CD498F9080000285CBF98F90800002845
:1037080004D498F90800B0F1FF3FEEDC002088F8F7
:103718000700C92088F8080098F8080000F0BF00E2
:1037280088F8080098F90800B0F1FF3F0DDC98F917
:103738000800B0F1FF3FDCBF98F90800B0F1FF3F87
:1037480003DC98F908000028ECD44FF425403880B1
:103758004AF2025139804FF6B0610022CFF6FF716C
:103768000AF80120388040F26800C2F2000080F3B5
:103778000A881868800727D554F80C0CB0F1007F28
:1037880022D118694FF40071C0F3C3005A6901FAD5
:1037980000F3C2F3C30081400020DA08CB080146D9
:1037A800074642F005C800BFE7E802010FF005C070
:1037B8004EF2FA37C4F201074FF0005243F005C049
:1037C800E2E802010FF005C042F26C3042F26C31BF
:1037D800C0F20000C0F20001091AFFF701F944F233
:1037E800680044F26801C2F20000C2F20001091A3E
:1037F800FFF7F6F840F2200040F2200AC2F200205B
:10380800C2F2002AAAEB0001FFF7EAF840F24C00E6
:1038180040F27811C2F20020C2F20021091AFFF723
:10382800DFF846F2EC601825C0F2002000F13D09EF
:103838004E4615E000BF00BF006CDC0200127A00A3
:103848000080000000366E010080000000CA9A3B2C
:1038580080D1F0085543DE13043D06F1400630D010
:1038680016F8300C40B956F83D0C56F8392C56F875
:10387800351C121AFFF79BF816F8200C40B956F8B9
:103888002D0C56F8292C56F8251C121AFFF78FF81C
:1038980016F8100C40B956F81D0C56F8192C56F8A5
:1038A800151C121AFFF783F830780028D4D156F87F
:1038B8000D0C56F8092C56F8051C121AFFF777F864
:1038C800CAE718F82F0C38F8311C01F00F02A2F1E2
:1038D800080103292FD840F22003C2F20023DFE8B1
:1038E80001F002200C164AF6AB2153F82000CAF664
:1038F800AA21A0FB0101480824E04AF6AB2153F8AD
:103908002000CAF6AA21A0FB0101C8081AE04AF65D
:10391800AB2153F82000CAF6AA21A0FB010108092F
:1039280010E04AF6AB2153F82000CAF6AA21A0FB02
:103938000101880806E040F22001C2F2002151F896
:103948002000D04042F2240640F27001C4F2200662
:10395800C2F200214EF64C42086000203071C4F2D9
:103968000102086841F2FF11C0F27A0188420FD9BA
:1039780044F23F21C0F20F0108444DF68361C4F2BE
:103988001B31A0FB0101880CC821484368B916E027
:103998004CF60021C3F69A31B1FBF0F040F64051E5
:1039A800C0F20301B1FBF0F048B100F039FE42F279
:1039B80024064EF64C42C4F22006C4F2010200204E
:1039C8003070307848B1307800281CBF3078002833
:1039D80003D0307808B12FF00DC0307840F00200E5
:1039E80030703078800709D53078800744BF307848
:1039F8005FEA807002D530788007F2D4002006F89C
:103A0800020C16F8020C60B116F8020C00281CBF54
:103A180016F8020C002804D016F8020C08B12FF092
:103A280011C0307F00F07F00307796F91C00B0F1AC
:103A3800FF3F0DDC96F91C00B0F1FF3FDCBF96F9A3
:103A48001C00B0F1FF3F03DC96F91C000028ECD401
:103A5800B07F00F07F00B07796F91E00B0F1FF3F0D
:103A68000DDC96F91E00B0F1FF3FDCBF96F91E0091
:103A7800B0F1FF3F03DC96F91E000028ECD496F85D
:103A8800200000F07F0086F8200096F92000B0F1B1
:103A9800FF3F0DDC96F92000B0F1FF3FDCBF96F93F
:103AA8002000B0F1FF3F03DC96F920000028ECD499
:103AB80040F2780CEFF31080C2F2002C012181F360
:103AC8001088BCF8021021B939884AF20253194308
:103AD8003980BCF802100131ACF8021080F310886C
:103AE800002010700121EFF3108081F31088BCF8DA
:103AF800021021B1BCF802100139ACF80210BCF870
:103B0800021029B9398841F4254121F00201398090
:103B180080F310880121EFF3108081F31088BCF83E
:103B2800061029B94AF2025239880E3211433980F7
:103B3800BCF806100131ACF8061040F6145180F3B9
:103B48001088C4F24001002088830884888408858E
:103B580088850886888608878887A1F84000A1F8A4
:103B68004400A1F84800A1F84C00A1F85000012138
:103B7800EFF3108081F31088BCF8061021B1BCF86F
:103B880006100139ACF80610BCF8061029B93988B6
:103B980041F4254121F01001398080F3108801217A
:103BA800EFF3108081F31088BCF8061029B94AF2A7
:103BB800025239880E3211433980BCF8061001319F
:103BC800ACF8061080F3108844F20400C4F2200018
:103BD8000021016041608160C1600121EFF3108024
:103BE80081F31088BCF8061021B1BCF80610013921
:103BF800ACF80610BCF8061029B9398841F42541FB
:103C080021F01001398040F2000180F31088C6F6D7
:103C18000001202021F01F01D4F8AC30A1F12002CE
:103C280040F20001C6F6000100EB5217B7EB511F36
:103C38004FF0440767F30703C4F8AC300BD90123EE
:103C480042F0010263F304010023C4F88430C4F88D
:103C58008810C4F88C2040F20001C8F2000121F05D
:103C68001F01203900EB511240F20000C8F2000099
:103C7800B2EB501F0AD9012241F0010162F304009E
:103C8800C4F88420C4F88800C4F88C1040F20000FE
:103C980040F20001C7F20000C7F2000120F01F0047
:103CA8004EF2FA38A0F120022020C4F2010800EBFD
:103CB8005213B3EB511F0BD9012342F0010263F3F6
:103CC80004010223C4F88430C4F88810C4F88C2096
:103CD8002AF01F01203900EB511240F22000C2F2F5
:103CE8000020B2EB501F0BD9012241F0010162F311
:103CF80004000322C4F88420C4F88800C4F88C1097
:103D0800BFF35F8F0520C4F88000206940F480303D
:103D18002061BFF34F8FBFF36F8F2068C00378D443
:103D280000202067BFF34F8FE16E0122C1F3C9085D
:103D3800C1F34E30CB0802EBD101A8F1010A01F022
:103D480003024FEA8A710491A8F1020100F1010E01
:103D58000391890702914FEA837CF646A8F1030193
:103D680001910EE0060000000800000003000000BA
:103D7800050000000A0000000138BEF1010E00D164
:103D880031E043F6E07101EA401B4146A2B1012A45
:103D98004CEA0B01C4F84C1251460DD00499022A82
:103DA80041EA0B01C4F84C12039905D0029941EA83
:103DB8000B01C4F84C120199B8F1030FDCD34BEA9C
:103DC8008175013105F1404685F0004305F18047D2
:103DD8000439C4F84C52C4F84C62C4F84C32C4F8E4
:103DE8004C72F5D1C8E7BFF34F8F20684EF2FA380E
:103DF80040F480302060BFF34F8FBFF36F8F42F2E3
:103E0800240640F2780CC4F20108C4F22006C2F27B
:103E1800002C46F66C054EF64C424FF0590AC0F29B
:103E2800002540F2044B4FF0010E40F20347C4F264
:103E3800010222E04CF60021C3F69A31B1FBF0F002
:103E480040F64051C0F20301B1FBF0F078B166468C
:103E580000F0E6FBB44642F224064EF64C4240F22D
:103E680003474FF0010EC4F22006C4F20102BAF172
:103E7800010A05F1080500F0BC816868584500F0A2
:103E88009380B84248D040F202418842EFD1286876
:103E9800117800F0B850B0F1807F4FEAC17040F05F
:103EA8004D8188BBEFF310808EF31088BCF80210A8
:103EB80031B9B8F800104AF202531943A8F80010B3
:103EC800BCF802100131ACF8021080F310881078A9
:103ED80040F001001070EFF310808EF31088BCF8EA
:103EE800021021B1BCF802100139ACF80210BCF87C
:103EF800021039B9B8F8001041F4254121F0020147
:103F0800A8F8001080F3108896F91C000028AED499
:103F1800307F60F07F004DE12868117800F0B850DC
:103F2800B0F1807F4FEA817040F08880002831D45A
:103F3800EFF310808EF31088BCF8021031B9B8F88E
:103F480000104AF202531943A8F80010BCF80210F6
:103F58000131ACF8021080F31088107840F00200AC
:103F68001070EFF310808EF31088BCF8021021B1A6
:103F7800BCF802100139ACF80210BCF8021039B9CB
:103F8800B8F8001041F4254121F00201A8F800100A
:103F980080F3108896F91E0000283FF568AFB07FBF
:103FA80060F07F0087E000BF2868117800F0B85003
:103FB800B0F1807F4FEA417040F07F80002831D413
:103FC800EFF310808EF31088BCF8021031B9B8F8FE
:103FD80000104AF202531943A8F80010BCF8021066
:103FE8000131ACF8021080F31088107840F004001A
:103FF8001070EFF310808EF31088BCF8021021B116
:10400800BCF802100139ACF80210BCF8021039B93A
:10401800B8F8001041F4254121F00201A8F8001079
:1040280080F3108896F9200000283FF520AF96F815
:10403800200060F07F0086F82000BCE0002831D521
:10404800EFF310808EF31088BCF8021031B9B8F87D
:1040580000104AF202531943A8F80010BCF80210E5
:104068000131ACF8021080F31088107800F0FD00E0
:104078001070EFF310808EF31088BCF8021021B195
:10408800BCF802100139ACF80210BCF8021039B9BA
:10409800B8F8001041F4254121F00201A8F80010F9
:1040A80080F3108896F91E00B0F1FF3F3FF7DFAEAE
:1040B800B07F00F07F00B0777DE0002831D5EFF3C6
:1040C80010808EF31088BCF8021031B9B8F80010CF
:1040D8004AF202531943A8F80010BCF80210013143
:1040E800ACF8021080F31088107800F0FB00107014
:1040F800EFF310808EF31088BCF8021021B1BCF8E1
:1041080002100139ACF80210BCF8021039B9B8F83D
:10411800001041F4254121F00201A8F8001080F3B5
:10412800108896F92000B0F1FF3F3FF7A0AE96F84F
:10413800200000F07F0086F820003CE088B3EFF311
:1041480010808EF31088BCF8021031B9B8F800104E
:104158004AF202531943A8F80010BCF802100131C2
:10416800ACF8021080F31088107800F0FE00107090
:10417800EFF310808EF31088BCF8021021B1BCF860
:1041880002100139ACF80210BCF8021039B9B8F8BD
:10419800001041F4254121F00201A8F8001080F335
:1041A800108896F91C00B0F1FF3F3FF760AE307FF2
:1041B80000F07F00307740F2700041F2FF11C2F248
:1041C8000020C0F27A01006888427FF633AE44F2DC
:1041D8003F21C0F20F0108444DF68361C4F21B3140
:1041E800A0FB0101880CC821484300287FF42FAEAA
:1041F8003DE640F2840CEFF31082C2F2002C01205D
:1042080080F31088DCF8001039B940F6145000210A
:10421800C4F24000017040210170DCF8001046F63D
:104228006C000131CCF8001040F60001C0F200200B
:10423800C4F2400182F3108800F110025823A64608
:1042480007E000BF01EB861074462032043B40F8BB
:10425800257052E90476FD034FEA1625F6B20CD50F
:1042680001EB851050F8264024F4803440F82640AD
:1042780027F4803440F82640744601EB8510002B63
:1042880040F8267041D052E90270FE034FEA10262A
:10429800C5B20BD501EB861050F8254024F48034C4
:1042A80040F8254027F4803440F8254001EB86107B
:1042B80040F82570D2E90070FE034FEA1026C5B217
:1042C8000BD501EB861050F8254024F4803440F8D3
:1042D800254027F4803440F8254001EB861040F84B
:1042E8002570D2E90270FE034FEA1026C5B2A9D59F
:1042F80001EB861050F8254024F4803440F825401E
:1043080027F4803440F825409CE70120EFF3108122
:1043180080F31088DCF8000020B1DCF800000138D8
:10432800CCF80000DCF8000038B940F61452002040
:10433800C4F2400210708020107081F3108840F29F
:10434800000040F20001C6F60000C6F60001091A96
:10435800FEF746FB40F2000040F20001C6F60000FE
:10436800C6F60001091AFEF73BFB40F2000040F2D6
:104378000001C8F20000C8F20001091AFEF730FB7C
:1043880040F2000040F20001C8F20000C8F200014B
:10439800091AFEF725FB40F2000040F20001C7F2BF
:1043A8000000C7F20001091AFEF71AFB40F20000EC
:1043B80040F20001C7F20000C7F20001091AFEF737
:1043C8000FFB182504E000BF043D09F1400934D073
:1043D80019F8300C012808D159F83D0C59F8392C36
:1043E80059F8351C121AFEF7E2FA19F8200C0128C0
:1043F80008D159F82D0C59F8292C59F8251C121AEE
:10440800FEF7D5FA19F8100C012808D159F81D0C37
:1044180059F8192C59F8151C121AFEF7C8FA99F808
:1044280000000128D0D159F80D0C59F8092C59F879
:10443800051C121AFEF7BBFAC6E7BFF34F8FBFF38E
:104448006F8F0020C4F83C02BFF34F8F4CF200304E
:1044580040F20331BFF36F8FC4F2000001604FF4E4
:104468004171416040F20531816040F20631C1601E
:1044780005B0BDE8F08F4CF60021C3F69A31B1FBC8
:10448800F0F040F64051C0F20301B1FBF0F008B182
:1044980000F0C6F84EF64C41C4F201019AF800004B
:1044A80001283EF460AD9AF8000001281CBF9AF874
:1044B800000001283EF457AD9AF800000128EDD11C
:1044C800FEF751BD000000004168042923D180B5E2
:1044D80040F2741E40F2F00CC2F2002EC2F2002C20
:1044E8008068DEF80010DCF800304A1C803A52EA96
:1044F8000192CEF800209A4240F2F403C2F200235F
:104508005854BDE8804018BF7047501C803850EAA6
:104518000290CCF8000070472DE9F04140F25008B5
:10452800EFF31184C2F20028002080F312880120E2
:1045380088F8180001F040FA43F680404FF0004137
:10454800CEF20000016040F27000C2F2002044F296
:10455800402184F31188C0F20F01006800EE100AB0
:1045680088425FEA2F9188F81910B8EE400A98F847
:104578001910012908D19FED281A81EE000AB6EE1C
:10458800001A30EE011A11E09FED211AB6EE002A4A
:1045980020EE011AB5EE401AF1EE10FABEEE001A3E
:1045A80022FE011A9FED1B2AA0EE021A44F6D351EF
:1045B80040F27405C1F26201C2F20025A0FB0101BC
:1045C800BDEEC10A88ED040A00278809C8F814005E
:1045D800EFF3118687F312882F6000F03DF8BFF3E0
:1045E8004F8FBFF36F8F00BFBFF34F8FBFF36F8F36
:1045F800044600F031F829682144401A286086F3FF
:104608001188C8E90077C8E90277BDE8F08100BFE2
:10461800BD378635BD37863D002474510000000043
:1046280001380028FCD1704740F28801C2F200210D
:104638000A6A1071086A816C890009D4816C890042
:104648005CBF816C5FEA810102D4816C8900F2D57C
:104658000020704700000000B0B543F27C0240F231
:104668005003CEF20002C2F20023EFF3118C0020B7
:1046780080F312881068197E012943F6C041CEF2F2
:10468800000105D10968B1F1FF3F0ADD00211EE0F4
:10469800EFF3108E72B60C68B4F1FF3F04DD002111
:1046A80013E01068012112E04FF0004041F8400C7F
:1046B8000021EFF3118081F31288D3E90045013519
:1046C800C3E9004580F3118810688EF31088D3E998
:1046D80000258018D3E902246941821A71EB04028B
:1046E80004DAD3E902018CF31188B0BDC3E90201F1
:1046F8008CF31188B0BD0000ADF5046D40F2F400F4
:104708004EF200154CF200344CF6002841F2FF1B23
:1047180044F23F2AC2F200208021CEF20005C4F202
:104728000004C3F69A38C0F27A0BC0F20F0AFEF7FB
:1047380057F940F2F00140F27412C2F20021C2F2BD
:10474800002240F288060020C2F2002608601060AD
:1047580048F6001146F63432C4F23501C0F20022A0
:10476800C6E90721B17844F2D1433070C0F2002382
:10477800C6E9093040F2B803F06201F0FC000130EC
:10478800B0700820C5F88000BFF34F8FBFF36F8F5C
:10479800E068C2F2002320F48030E060E0684EF266
:1047A8000140C021CEF200000122D9468170DE60AE
:1047B800C5F88020BFF34F8FBFF36F8F276827F4AA
:1047C80080372760276885F800131E600227C5F820
:1047D8008070BFF34F8FBFF36F8F676827F4803700
:1047E8006760676801705E600427C5F88070BFF372
:1047F8004F8FBFF36F8FA76827F48037A760A7682C
:10480800417043F20400C4F220009E60EFF3108769
:1048180082F31088016821F48001016040F2700180
:104828000068C2F2002108684DF683615845C4F259
:104838001B3109D95044A0FB0101880C0001A0EBF1
:104848009140400038B908E0B8FBF0F047F2305129
:10485800B1FBF0F008B1FFF7E3FE87F310884FF4DF
:104868008061306A002340F20017C1F61F7381602F
:104878004FF41241306AC0F20107416140F204016D
:10488800306AC2F2002109680161306A3021C160D2
:104898000021306A8161D6E90702536217634FF637
:1048A800FF73C6E902311023B161C6E90411C9F6E4
:1048B8000753936641694A0901F01F0354F8210020
:1048C80020F4803044F8210054F8210005F5C07028
:1048D8000121BFF35F8F01FA03F340F8223045F856
:1048E8002230F269D26A54F8223023F4803344F833
:1048F800223054F82230530902F01F02BFF35F8FB1
:1049080001FA02F240F8232045F82320F269D2691F
:1049180054F8223023F4803344F8223054F82230FB
:10492800530902F01F02BFF35F8F01FA02F240F849
:10493800232045F82320F269526A54F8223023F4E0
:10494800803344F8223054F82230530902F01F0211
:10495800BFF35F8F914040F8231045F8231040F2D1
:104968001141306AC0F201018160306A017FC907D4
:1049780009D1017FC90704BF017F5FEAC17102D174
:10498800017FC907F2D040F2500544F64210C2F246
:104998000025C5F243307060EFF31184002080F3E6
:1049A8001288287601F008F843F680404FF000415D
:1049B800CEF200004DF6836BC4F21B3B016040F25F
:1049C8007000C2F2002084F311880AF10101C24686
:1049D800006800EE100A88425FEA2F916976B8EE07
:1049E800400A697E012908D19FEDBB1A81EE000AB1
:1049F800B6EE001A30EE011A11E09FEDB81AB6EEC5
:104A0800002A20EE011AB5EE401AF1EE10FABEEEB9
:104A1800001A22FE011A9FEDB22AA0EE021A44F6ED
:104A2800D35140F25008C1F26201C2F20028A0FB43
:104A3800010140F27407C2F20027BDEEC10A88EDF9
:104A4800040A8809C8F81400EFF31184002585F3D7
:104A580012883D60FFF700FEBFF34F8FBFF36F8FE3
:104A680000BFBFF34F8FBFF36F8F0646FFF7F4FD0C
:104A780039683144401A386047F2073084F31188A6
:104A8800C0F20020C8E90055C8E9025501F018FE37
:104A980040F27000C2F200200068484514D944F280
:104AA8003F215746C0F20F010844A0FB0B01880CB8
:104AB80048F28041C0F21E01A0FB0101002900F06C
:104AC800EB814FF0FF3008E0BAFBF0F049F200410B
:104AD8005746C7F23571B1FBF0F044F23F2440F27B
:104AE800F005C0F20F04C2F20025FFF799FD40F26D
:104AF80074102968C2F200200068814231D149F25D
:104B0800004847F2073648F2804AC7F23578C0F2C3
:104B18000026C0F21E0A0DE0B7FBF0F0B8FBF0F07B
:104B2800FFF77EFD40F274102968C2F20020006889
:104B3800814216D1304601F0C3FD40F27000C2F246
:104B4800002000684845E7D92044A0FB0B01880CE9
:104B5800A0FB0A0111B14FF0FF30E1E70028DFD1D7
:104B6800E0E74EF614580FF6B850CEF2000801F000
:104B7800A7FDFFF771FDBFF34F8FBFF36F8F0122C2
:104B88008DF83E28D8F80020CDE9051092035CBFC7
:104B9800D8F800005FEA803040F18A8140F20800CE
:104BA800C2F20020026840F20C00C2F20020ADF808
:104BB800FC27066840F26000C2F20000ADF8FE670C
:104BC800016840F26400C2F20000ADF80018006805
:104BD800CDF8180840F21000C2F200200068002842
:104BE80008BF072007921204CDF81C0804D132042C
:104BF80008BF5FEA01420BD0079A92B2012A10D18E
:104C0800320408BF5FEA01410BD143F2154600E0C8
:104C18000026ADF8FC67ADF8FE676621ADF8001810
:104C28000796C0F3400210F001031A44C0F3800352
:104C380013444FF4FA670BA94FF00002B7FBF3F3E4
:104C4800CDF80418ADF83C280893CDF8143802D0F4
:104C58000122CDF808188307CDE9026305D5089B22
:104C680012FB03130132CDF80C385FEA407904D502
:104C7800089B12FB0311CDF81018C007CDF810904F
:104C880000F0DA814CF6CD400899C0F6CC40DDF84A
:104C98000858A1FB00010FF67040AB4600228C1E9D
:104CA80090ED001F05F1100724F0030C05EBC40379
:104CB80047F6FF7E194603EB840ADDF81C806B601B
:104CC800A9EC040F181D4BF8082FC5F800B00A9579
:104CD800E860099409E000BF00247451BD378635A7
:104CE800BD37863D043294456ED007F108009842DE
:104CF80015D20E1D564512D288EA020502F00404A8
:104D080065F3C6040A9DC7F800B0796044EA042434
:104D18002F600C80A1F802E0BB463146074607F138
:104D280008069E4217D2081D504514D242F00104CD
:104D3800C7F800B07960A1F802E088EA040504F039
:104D4800050465F3C6040A9DBB4644EA04242F60A3
:104D58000C800146374607F10800984217D20E1D0D
:104D6800564514D242F00204C7F800B07960A1F8A1
:104D780002E088EA040504F0060465F3C6040A9D07
:104D8800BB4644EA04242F600C803146074607F1ED
:104D980008009842A6D20E1D5645A3D242F003043D
:104DA800C7F800B07960A1F802E088EA040504F0C9
:104DB800070465F3C6040A9DBB4644EA04242F6031
:104DC8000C80314607468DE7099C14F0030E00F06D
:104DD8008A8007F108069E421BD201F10408D045DB
:104DE8007CD2DDF81CC002F004008CEA02040A9DA3
:104DF80064F3C600099CC7F800B02F6040EA0020A1
:104E08007960088047F6FF704880BB464146E04617
:104E18003746BEF1010F66D007F108069E421DD243
:104E280001F1040CD44518D242F00100079CC7F8E0
:104E380000B0796084EA000800F0050068F3C60055
:104E48000A9CDDF81C80BB4640EA002027600880E9
:104E580047F6FF70488061463746099CBEF1020F4D
:104E680041D007F1080098423DD2081D50453AD27A
:104E780042F00200C7F800B0796088EA000200F04A
:104E8800060062F3C6000A9A40EA0020176008800C
:104E980047F6FF70488027E044F23F2440F2F005CF
:104EA8000028C0F20F04C2F200257FF41EAE1EE6F1
:104EB800BFF34F8FBFF36F8F0020C8F83C02BFF3DA
:104EC8004F8FBFF36F8FD8F8000040F40030C8F858
:104ED8000000BFF34F8FBFF36F8F5FE6DDF81C80D4
:104EE800BEF1010F98D15F463A68EAB14CF6CD4061
:104EF800CCF6CC40A4FB00014FEA910C012100BF85
:104F080088EA01064D1C6FF39F3605F007047B689D
:104F180010466145126828BF46EA042107465980B1
:104F280029460AB12FF015C0012506E009996D0040
:104F380000294FF00001016075D06B424FF0000866
:104F480000200A9C00210A9103E000BF002C4D4676
:104F5800ECD0A2468646424608F101080421A44640
:104F68000992DCF800C0BCF1000F1BD058180328C8
:104F780016D0DCF800C0BCF1000F15D002280FD005
:104F8800DCF800C0BCF1000F10D0012808D0DCF814
:104F980000C0BCF1000F0AD0043158180428E0D131
:104FA800294606E0033902E0023900E001394FF0F2
:104FB800000CA9460CE000BF002D18BF002C1BD127
:104FC800DBF800A00139A446DE4648B3C0F800E08B
:104FD800D346644670460029EEDC012DB6DB002C72
:104FE800B4D00029E8D1D4F800C0013D002113E075
:104FF800FCA9F1D24D62503FDBF8047062687E78FC
:105008003E7056781670B2F90220B7F902709742CE
:10501800D6DDD4F800C0013DDA46A6460028D5D131
:10502800CDF828E0D4E74EF61458DDF81090CEF20B
:1050380000080A98CDF820080398002840F112814A
:105048000798029A00B2DDF80C1840EA02464FF0C1
:105058000009012E4FF0200298BF0126089F00BFCB
:1050680009F10103A2F118005843B84217D209F117
:105078000200A2F110054543BD4221D209F1030304
:10508800A2F108056B43BB421CD209F1040902FBDB
:1050980009F02032B842E3D3A9F1010913E0481E10
:1050A80009FB09FB20F00300B9F1000F00F104052A
:1050B80005EB4B0A0FD14FF0000B4FF00009BDE094
:1050C800994600E08146481E09FB09FB20F00300D1
:1050D800051D05EB4B0A0122BBF1010F5BEA82803B
:1050E800BBF1040F00F0030404D24FF00008002CB9
:1050F80065D1A3E020F00300099404380A9504352B
:105108004FF0000802EB900E0AF1040208234FF654
:10511800FF7C00BF08F1010044467043C11700EB53
:10512800114121EA0C01401A08F10201414308EB40
:10513800000701371844CE1722F8047C063801EB23
:105148001646C0B26FF30F0625F8040C891B08F148
:1051580003064E4308EB0107B81C22F8020C4FEA7D
:10516800E6785F1806EB184004F104086FF30F00A7
:10517800301A3E1F00FB08F7F6B225F8026C261815
:10518800F9171844033622F8086B07EB1141023867
:105198006FF30F017E1AC0B225F8080BA0199919F0
:1051A8000833043022F8060CC8B225F8060C0FF0B4
:1051B8004FC808F10102DDE90945002C3ED006FB85
:1051C80002F04FF6FF73012C4FEAE07100EB11413A
:1051D80021EA0301A0EB010000EB02012AF81810F4
:1051E8001144C9B225F8181028D0511C022C01FB13
:1051F80000F04FEAE07700EB174727EA030308F1CE
:105208000107A0EB030000EB01032AF8173019444B
:10521800C9B225F8171011D0911C4FF6FF734843F7
:10522800C21700EB12429A43801A08F1020208449E
:105238002AF812000844C0B225F812000AEB4B0005
:105248004EF614580138CDF8249820F00300CEF219
:105258000008DDF81090CDF82858CDF82CA80430B7
:10526800CDF83008B9F1000F4AD50898BDF8FC27E9
:10527800DDF81098411E00230FF2C86A0FF2E468A7
:105288004FF00C0B4FF02C0C002700241AE000BF45
:1052980017F001E831FE4D8F93FD800E85ED800EED
:1052A800E01905F807C0441C013202F007000BEAB8
:1052B800520658F820705AF82000E31901338B423F
:1052C800835910D2002FEFD009EB0405EE1A072EF0
:1052D800DED847F001E02E4613F8010B06F8010B63
:1052E8000FF007C0DCE708984EF61458A042CEF23B
:1052F800000805D9089909EB0400091BFDF770FBA4
:10530800DDF8180840F2500900284FF0FF3AC2F2C1
:10531800002977D11FEDCA8B00250DF2FC760120FC
:10532800B7EE009BCDF8180813E000BFFFF794F91B
:10533800D9F814200023FDF709FB001B00EE100A22
:10534800B8EE400B20EE080BB4EE490BF1EE10FA64
:1053580048DADDF8180800EB80004000CDF818089E
:10536800FFF77AF9D9F814200023FDF7EFFADDF8F2
:1053780018780446002FCDF83858CDF83458D5D0D1
:105388000121304600F022FDBDF8341800F023FD5D
:10539800ADF834084FF0FF31304600F017FDBDF886
:1053A800341800F018FD013FADF83408ADF83608A0
:1053B800BCD000BF0121304600F008FDBDF834180C
:1053C80000F009FDADF834084FF0FF31304600F029
:1053D800FDFCBDF8341800F0FEFC013FADF83408C0
:1053E800E8D1A3E7BCEEC00B0A2110EE100A012891
:1053F80098BF0120B1FBF0F0DDF8181801304843E0
:10540800CDF81808FFF728F9D9F81420002300264A
:10541800FDF79CFADDF818580446CDF83868CDF841
:105428003468A5B30DF2FC760121304600F0CEFCBD
:10543800BDF8341800F0CFFCADF834084FF0FF3158
:10544800304600F0C3FCBDF8341800F0C4FC013D40
:10545800ADF83408ADF8360819D00DF2FC7600BF67
:105468000121304600F0B2FCBDF8341800F0B3FC5E
:10547800ADF834084FF0FF31304600F0A7FCBDF816
:10548800341800F0A8FC013DADF83408E8D1FFF766
:10549800E3F8D9F8142000230027FDF757FABDF9DF
:1054A800FC27041B0021104600F09AFCBDF9FE17EA
:1054B80002460846114600F093FCBDF90018024662
:1054C8000846114600F08CFCBDF91418024608463F
:1054D800114600F085FC47F604314CF600290646D3
:1054E800C3F69A39884213DD4EF6F51086421ED06F
:1054F80048F60220864221D047F60530864240F021
:10550800808047F2FE1001250027C0F2002021E02C
:1055180041F6F200864217D044F6AF60864270D159
:1055280047F22A2002250027C0F2002012E047F2A5
:10553800781003250127C0F200200BE047F2A510E0
:105548000025C0F2002005E047F2D210042500270C
:10555800C0F2002001F0B4F8DDF81C084FF0000A92
:10556800C107ADF83CA818D040F20001BDF83628B4
:10557800C2F2000131F815309A420ED047F2B2005B
:105588000021C0F2002000F031FCBDF83C0800F119
:10559800010ADDF81C08ADF83CA8810718D540F2CF
:1055A8000A01BDF83828C2F2000131F815309A42D4
:1055B8000ED047F2E2000021C0F2002000F016FCF5
:1055C800BDF83C0800F1010ADDF81C08ADF83CA85C
:1055D800400716D540F21400BDF83A28C2F2000080
:1055E80030F815309A420CD047F281000021C0F201
:1055F800002000F0FBFBBDF83C0800F1010AADF803
:105608003CA846F6B870DDF81418C0F2002000F087
:10561800EDFB46F69F702146C0F2002000F0E6FB45
:1056280000EE104AD7A0B8EE400B9FEDBB1B20EE52
:10563800018B53EC182B00F0D9FBB5EE408BF1EE43
:1056480010FA0FDD0DF6180090ED000A46F67660A8
:10565800B8EE400BC0F2002080EE080B53EC102B84
:1056680000F0C4FBB2EE040BB4EE408BF1EE10FA7E
:1056780007DA47F21410C0F2002001F021F80AF10D
:10568800010A46F68670DDF81818C0F2002000F00E
:10569800ADFB47F2FB3546F64C70C0F20025C0F270
:1056A8000020294600F0A2FB47F2BB3446F61C70E6
:1056B800C0F20024C0F20020214600F097FB46F615
:1056C800347047F29331C0F20020C0F2002100F09C
:1056D8008DFB46F6F1703146C0F2002000F086FBE3
:1056E800DDF81C08C10723D181072ED4400708D54F
:1056F800BDF83A2847F22A00C0F20020002100F045
:1057080075FBBDF8342847F24700C0F2002000219D
:1057180000F06CFB5FEA0A4025D00FFA8AF047F2E6
:105728005B229EA1C0F20022002851EAC28041E01B
:10573800BDF8362847F20D00C0F20020002100F025
:1057480055FBDDF81C088107D0D5BDF8382847F28D
:105758006400C0F20020002100F048FBDDF81C08BE
:105768004007C5D4CDE747F2BE20C0F2002000F0C4
:10577800A7FF0FB30DF61800CDE9005490ED000A0D
:1057880047F2E130B8EE400BC0F2002080EE080B83
:1057980053EC102B00F02AFB47F2DB3047F2933131
:1057A800C0F20020C0F2002100F020FB47F22C30AC
:1057B800C0F2002000F084FF00208DF83E08D8F8E1
:1057C800000080035CBFD8F800005FEA803040F139
:1057D8008380BFF34F8FBFF36F8F282446F2005B9F
:1057E8004AF22018C4F24004C1F6CD5BC0F20708A3
:1057F800FEF732FF40F27402C2F200221268069BE2
:105808009B18059F47EBE272C51A47F22C30C0F28D
:10581800002061EB020A00F053FF47F29930C0F212
:10582800002000F0E3FA47F25210C0F2002000F026
:1058380047FF46F6366047F2C931C0F20020C0F291
:1058480000212A465346CDE9005A00F0CFFA41F22A
:10585800FF1644F23F274FF4806A4FF08065C0F28C
:105868007A06C0F20F0706E0B9FBF0F0BBFBF0F0D8
:1058780008B1FEF7D5FE40F27000C4F800A0C2F2ED
:1058880000200068B0420BD94DF683613844C4F259
:105898001B31A0FB0101880C00FB08F028B906E0C9
:1058A800B9FBF0F0BBFBF0F008B1FEF7B9FE40F22F
:1058B80070002560C2F200200068B042D4D94DF6CD
:1058C80083613844C4F21B31A0FB0101880C00FB42
:1058D80008F00028CDD1CEE7BFF34F8FBFF36F8F0D
:1058E8000020C8F83C02BFF34F8FBFF36F8FD8F882
:1058F800000040F40030C8F80000BFF34F8FBFF33A
:105908006F8F66E700BF00BF8080000000000000C6
:10591800FFFF0000FF7F0000FCA9F1D24D62503F5D
:10592800436F72656D61726B2072756E6E696E671A
:105938002C20706C6561736520776169742E2E2E3A
:105948000D00000020000020200000202000002082
:1059580030000020300000204000002040000020DF
:1059680050000020040000000400000004000000B3
:1059780008000000080000000800000008000000FF
:1059880008000000546F74616C2074696D652028EC
:1059980073656373293A2025660D0A004572726F94
:1059A80072732064657465637465640D000000009B
:1059B800FEF7A2FE0000000043F60040CEF2000011
:1059C800D0F80012490458BF704770B543F6046216
:1059D800EFF3108CCEF2000272B64FF0004311685C
:1059E80021F00101116003620366116841F00401AE
:1059F8001160C0F88030116841F002011160D0F8E0
:105A08000012C9B2022950D34FF600044FF604051C
:105A1800CFF6FF74CFF6FF754FF0080E042940F853
:105A280004E04FF01E0444514FF00305C0F88050C5
:105A38004FF002060664056037D34FF608051326B3
:105A4800CFF6FF75062946514FF60C05CFF6FF75C0
:105A580044514FF00C04C0F88040C0F840E00460A6
:105A680023D34FF610060325CFF6FF760629855176
:105A78004FF61406CFF6FF764FF01E0585514FF00E
:105A88003006C0F880604FF02005056406600CD031
:105A980008294FF04006C0F880600664066004D309
:105AA8008021C0F88010016401604EF6FC51CEF2EE
:105AB80000010E6846F0807646F444160E600364D2
:105AC80003601068002140F00100106041F20000FE
