S01B00006963755F63706B6E65745F72613874325F65702E73726563A0
S3150200000000400020C9360002A9360002C1300002B3
S31502000010D1360002D1360002D1360002D1360002B4
S31502000020000000000000000000000000D1360002BF
S31502000030612A000200000000D1360002D136000219
S31502000040D1330002F1320002C134000251350002FE
S309020000501936000253
S3150200005840F2D80144F21F70C2F20021C0F2002019
S3150200006801220A7000F0A2B844F24E704EF200164F
S315020000784CF20037C0F20020CEF20006C4F20007A6
S3150200008800F094F840F2D80446F22102C2F20024A3
S31502000098C4F20002042040F2010184F82800002379
S315020000A838693B61C0F20001C4E90B131D2184F8CB
S315020000B829101370B12111704FF0000B94F9281012
S315020000C847F8210094F9280000280AD43118C022DA
S315020000D881F8002304EB800194F8280004F1240235
S315020000E84A6344F2553140B2C0F24901616257F897
S315020000F82010012321F4803147F8201057F82010E8
S31502000108410900F01F00BFF35F8F06EB810203FA75
S3150200011800F0C2F8800146F8210044F26D50282604
S31502000128C0F20020C4F2400684F800B000F03EF89F
S3150200013841F200254CF6002846F2005A4FF4806731
S31502000148C0F27A054FF08069C3F69A38C1F6CD5ADD
S3150200015804E000BF00BF00BFC6F800902078C007C1
S31502000168FCD084F800B037606069A84214D344F220
S315020001783F21C0F20F0108444DF68361C4F21B31D8
S31502000188A0FB0101880C4AF22011C0F2070148437C
S3150200019840B9E1E700BF00BFB8FBF0F0BAFBF0F0E8
S315020001A80028D9D000F007F8D6E7D4D440F2DF3CCD
S315020001B8C0F2002C604743F2A16CC0F2002C6047E3
S315020001C800000300F12F00021130000200000000B7
S309020001D840090000D2
S315020001E0844641EA000313F0030349D1403A23D37C
S315020001F00B6803604B6843608B688360CB68C3609F
S315020002000B6903614B6943618B698361CB69C36186
S315020002100B6A03624B6A43628B6A8362CB6AC3626E
S315020002200B6B03634B6B43638B6B8363CB6BC36356
S3150200023040304031403ADBD230320BD30B68036098
S315020002404B6843608B688360CB68C36010301031A3
S31502000250103AF3D20C3205D351F8043B40F8043B72
S31502000260043AF9D2043208D0D2071CBF11F8013B76
S3150200027000F8013B01D30B8803806046704700BF3C
S31502000280082A13D38B07B1D010F00303AED0C3F103
S315020002900403D21ADB071CBF11F8013B00F8013B2D
S315020002A0A4D331F8023B20F8023B9FE7043AD9D3A4
S315020002B0013A11F8013B00F8013BF9D20B780370C1
S315020002C04B7843708B7883706046704770B48407AE
S315020002D046D0541E002A41D0CDB2034602E0621E29
S315020002E0E4B3144603F8015B9A07F8D1032C2ED91E
S315020002F0CDB245EA05250F2C45EA054519D926460C
S3150200030003F11002103E0F2E42F8105C42F80C5C0C
S3150200031042F8085C42F8045C02F11002F2D8A4F139
S31502000320100222F00F0204F00F041032032C1344C1
S315020003300DD91E462246121F032A46F8045BFAD836
S31502000340221F22F00302121D134404F003042CB1EF
S31502000350C9B21C4403F8011BA342FBD170BC70470F
S3150200036014460346C2E710B540F2DC1140F2000221
S31502000370C0F20021C0F200020446FFF731FF40F24C
S31502000380000040F20001C0F20000C0F20001204469
S3150200039000F001F810BD0A460021FFF797BF40F2B0
S315020003A00801C0F20001401A40F25001C2F20021D7
S315020003B00860704783B080B581B0844603A80EC03A
S315020003C044F65840C0F20020006803AA6146009233
S315020003D000F028F801B0BDE8804003B0704770B560
S315020003E0054644F65840C0F200200468A07880070B
S315020003F014D56668287828B12146B0470135002809
S31502000400F8D507E00A202146B047B0F1FF3FC4BF46
S31502000410002070BDA07840F00400A0704FF0FF30BD
S3150200042070BDD4D42DE9F04F99B0814680781892E8
S31502000430800740F1B58518980027D9F804808A46C6
S31502000440179011A8821D0C92421E053010920E9032
S315020004500D91514611F8010B252803D08A4638B969
S3150200046000F0A0BD9AF801500AF1020A252D06D124
S315020004704946C04701370028EBD500F08BBD002264
S3150200048000244FF0000C4FF0000B04E01AF8015B59
S31502000490002D00F02D811FFA8BF61F2E20D8A5F114
S315020004A0200010281ED8DFE810F015001D001D00E0
S315020004B018001D001D001D0014001D001D001D005A
S315020004C011001D00CC001D001D00C9004BF0020BDF
S315020004D000E0DBE74BF0040BD8E74BF0100BD5E757
S315020004E07F2E0DD8A5F13000092840D8402E80F085
S315020004F0A0800CEB8C014BF0200B00EB410CC5E706
S31502000500A5F14C002E2800F2F480DFE810F08F00EF
S31502000510F200F200F200F200F200F200F200F20043
S31502000520F200F200F200F200F200F200F200F20033
S31502000530F200F200F200F200F200F200F200F20023
S31502000540F200F200F200A400F2008F00F2009D0019
S31502000550F200F200F200F200F200F200F2002F00C6
S31502000560F200F200F200F200F2002F008EE7A5F18F
S315020005702400562800F2BD80DFE810F08600BB009A
S31502000580BB00BB00BB00BB007400BB00BB00BB00D2
S31502000590A400BB00BB00BB00BB00BB00BB00BB0092
S315020005A0BB00BB00BB00BB00BB00BB00BB00BB006B
S315020005B0BB00BB00BB00BB00BB00BB00BB00BB005B
S315020005C0BB00BB00BB00BB00BB00BB005800BB00AE
S315020005D0BB00BB00BB00BB00BB00BB00BB00BB003B
S315020005E0BB00BB00BB00BB00BB00BB00BB00BB002B
S315020005F0BB00BB00BB00BB00BB00BB00BB00BB001B
S31502000600BB00BB006D00BB005800BB006600BB0010
S31502000610BB00BB00BB00BB00BB00BB005700BB005E
S31502000620BB00BB00BB00BB0057002FE74BF4207B8F
S315020006302CE704EB840100EB410427E74BF0010BA6
S3150200064024E74BF0080B21E70BF080004BEA800011
S3150200065040F0800B1AE70BF480704BEA400040F43E
S31502000660807B13E7002A7FF411AF17983F2E00F123
S3150200067004011791006832D8B0F1FF3F32DD4BF02A
S31502000680200B0022844601E712B31898402E1790D9
S3150200069017A90D986546CDF83C90C14690465CEA8E
S315020006A0348200F083FC1798402E4246C84600F179
S315020006B0040117910068DDF83C9050EA358C54EA43
S315020006C03084E3E63F2E00F26D844BF0400BDDE60C
S315020006D0624600244FF0000C4FF0000BD6E60022D3
S315020006E00446D3E64BF0280BC0F1000C0022CDE6FF
S315020006F00025CDF83CC03AB1189817A917900D9865
S3150200070000F054FCDDF83CC0002C24EAE47E45F0FF
S31502000710200048BF2BF0400B61281CBFA0F16501E9
S31502000720022925D81799612801F1070121F007014D
S3150200073001F108021792A0EB050291ED000B0A9255
S3150200074044D15FEA4B6058BF4FF0FF3E11A8D2B2C8
S315020007507146764600F0C8FD451C4BF4C05B4FF06F
S31502000760700C4FF0010EE8B28642D8BF461E5CE01E
S31502000770A5F16301122900F20A8108230026DFE8A7
S3150200078011F03501130006010601060106011300E8
S315020007900601060106010601060161015D01060167
S315020007A006010D0106012E011FFA8BF15FEA0B60AD
S315020007B000F10C811798021D17920068CA0540F1D4
S315020007C00C81890554BF00B240B206E15FEA4B6173
S315020007D058BF4FF0060E662809D065280FD14BF494
S315020007E0805B76460EF101010023652411E04BF48D
S315020007F0005B012266241121764673460AE05FEA0F
S315020008000E61A0F10204714676464FF0000308BF5E
S315020008100121002211A8C9B2112928BF112101F014
S31502000820B6F805464FF0020EA446119B9DF8480005
S31502000830A3F10A0111F1130F38BF4FF0020EA3F113
S315020008406401089111F1C70F38BF4FF0030E0F9CD8
S31502000850C1074FD15FEA8B716FD41FFA8BF1202249
S3150200086002EAC10211F0040F5FEA1F9110F00C0FA9
S3150200087045D11BF4405F0493CDE9062140F02B825B
S31502000880012E4FF0010056EA80801FFA8BF12A06EC
S3150200089000F06D810E9BEAB2134413F8013C302B33
S315020008A040F006826B1E1A0621D02E460E9DDAB243
S315020008B0154415F8015C302D40F0F981B31E1A0675
S315020008C015D00E9DDAB2154415F8015C302D40F0B4
S315020008D0EE81F31E1A060AD00E9DDAB2154415F8F9
S315020008E0015C302D40F0E381351F2A06D2D1002566
S315020008F00022DDE12D22002110F00C0FB9D00029D3
S315020009004FF0030050EA1090844212DD0A9E0D4613
S315020009105FEA0B7117D4041B934620204946C04751
S31502000920002800F1378301370134F6D300245A46F2
S315020009300AE000240A9E49B10FE02B22002110F0A2
S315020009400C0FDCD195E7241A294631B910464946DF
S31502000950C047002800F11E8301379DF8480044F67F
S315020009607201C0F20021000744F2EE50C0F20020EC
S3150200097050EA51852878002800F0F982801B494602
S31502000980C0B2C047013701350028F3D502E3782803
S3150200099040F09880C5F188032E4653E01798011D52
S315020009A01791006844F6DA01C0F20021002851EAE4
S315020009B000855FEA4B6058BF4FF0FF3E28467146FE
S315020009C000F06AFEDDF83CC0064617E01798890576
S315020009D000F18680011D17910068C11788E04FF665
S315020009E0EF700BEA000B0A2375262BE017980126F7
S315020009F011AD011D179100688DF844005FEA0B7076
S31502000A000ED4B4450CD9202049466446C047002876
S31502000A1000F1C082A4F1010C0137B445F3D8B44603
S31502000A203744ACEB0604002E00F0A18215F8010B48
S31502000A304946C047013E0028F5D5ABE24BF0100B04
S31502000A40102378264FF6F9700BEA00025FEA0B6074
S31502000A500B960AD41798011D17910668D1050AD577
S31502000A60900554BFB6B2F6B205E0179891050AD4BE
S31502000A70011D17910668002156EA010008BF2BF0F6
S31502000A80160278D10FE00730154620F0070002461D
S31502000A90416852F8086B17922A4656EA010008BFC7
S31502000AA02BF0160267D100265FEA4B6062D5002161
S31502000AB0012C60DA4FF6E9700BEA00010B9D48063D
S31502000AC037D467E025204946C047002800F16282F4
S31502000AD028464946C047023700287FF5BAAC59E294
S31502000AE0073020F007010A46496852F8080B1792A8
S31502000AF000295A46CDF82CE048BF42F4806250EAFB
S31502000B00010322D080EAE17081EAE173B0EBE17081
S31502000B1063EBE17111AC22F010060A23224600F0C3
S31502000B206DFB3146061BDDF83CC0DDF82CE04806BD
S31502000B3030D54FF6FE70764500EA01002BDA002D1D
S31502000B4008BF21F01100714626E05FEA4B604FF0C4
S31502000B50000040F19E810021012CDBDA4FF6EE7097
S31502000B60DDF83CC000EA0B00DDF82CE014E00025BD
S31502000B7000229EE0002111AC3046164675462246FA
S31502000B8000F03CFB3146AE46DDF83CC0061B0B9D31
S31502000B904806CED4084631461FFA80FBC0060AD460
S31502000BA040F206401BEA000F5FEA0F9044185FEA24
S31502000BB00B7009D526E0002D4FF0010050EA009097
S31502000BC044185FEA0B701DD45FEACB7008D0B646B4
S31502000BD0644505DA06EB0C00A0EB040E644611E050
S31502000BE064450FDACDF82CE020204946C04700289C
S31502000BF000F1D0810F9801340137A042F4D1DDF81B
S31502000C002CE004465FEACB601BD440F206401BEAA6
S31502000C10000F26D05FEA8B7075464FF02B0058BF47
S31502000C2020205FEA4B51494648BF2D20C047002885
S31502000C3000F1B0810137AE46F3467546B64514DC7F
S31502000C401CE030204946F346C047002800F1A28145
S31502000C5035B328464946C047002800F19B81023732
S31502000C60DE46F3467546B64508DD30204946C0479E
S31502000C70002800F18F81013DB542F6DC0F985E45F2
S31502000C80A0EB040456EACB800744002E00F06F81E5
S31502000C9010984946805DC047013E0028F5D579E1A6
S31502000CA00137DE46F3467546B645DEDCE6E71D4607
S31502000CB0049BC90652EA508113F1040F08DB8342F2
S31502000CC006DA4BF4005B8B4204DAD8430E1802E0D4
S31502000CD04E1E00E00026A3F57A711FFA8BF40994E2
S31502000CE024055FEA8B400395CDE9011C05940CD4DB
S31502000CF011F5FA6F70464FF0050198BF0420002CDB
S31502000D0058BF032101EB000C03E023EAE37000F174
S31502000D10010CDDF824B0002E079A4FF000050B9661
S31502000D20CBF3001182F0010251EA06900F99831863
S31502000D306344CB1A53EAC5841BF0090F11D10A9EEC
S31502000D4084B1604475461044441A20204946C0477F
S31502000D50002800F11F8101370134F6D30024AE4684
S31502000D6000E00A9E0798CDF800E00028069805D113
S31502000D704946C047002800F10D8101370598002831
S31502000D800ED530204946C047002800F10381C6F13E
S31502000D9078004946C0B2C047002800F1FB800237FE
S31502000DA0099800070AD44CB1274430204946C04767
S31502000DB0002800F1EF80013CF7D100240998800455
S31502000DC027D49DF849004946C047002800F1E28031
S31502000DD00B98012857DB2E204946C047002800F110
S31502000DE0D9800B98384400F1020B0398C5B2002053
S31502000DF0471CAF4202D20C99085C00E030204946FB
S31502000E00C047002800F1C6800B98B8423846EFD199
S31502000E1048E0049820EAE076851B0B98C0F1000BA7
S31502000E200398C0B20F90701C06D12E204946C047C7
S31502000E30002800F1AF8001373020002D04D40F992D
S31502000E408D42BCBF0E98405D49465E4506DDC047F1
S31502000E5001350137013E0028E5D59BE0C047002851
S31502000E6000F198800999781CC90640F19180002EFC
S31502000E7040F08C802E204946C047B0F1FF3F40F338
S31502000E808980023773E00998C00604D407F1010B82
S31502000E9008E000213EE62E204946C047002879D4C4
S31502000EA007F1020B02984946801BC0B2C0470028D0
S31502000EB070D4049E2B204946002E48BF2D20C047E1
S31502000EC0002E48BF7642002864D4019810F5FA6FC6
S31502000ED015D844F6D3504946C1F26200A6FB000576
S31502000EE0302000EB9510C0B2C047002852D4A809A2
S31502000EF04FF47A7100FB11620BF1030506E00898C4
S31502000F000BF10205324610F1C80F3BD848F21F50CA
S31502000F104946C5F2EB101746A2FB0006302000EB4D
S31502000F205610C0B2C047002834D47009642100FBB1
S31502000F30117201354CF6CD404946CCF6CC401746E7
S31502000F40A2FB0006302000EBD600C0B2C047002844
S31502000F5020D4F008013500EB8000A7EB400202F135
S31502000F6030004946C0B2C047002813D46F1C012C7A
S31502000F70FFF66FAA20204946C0470137013C0028E8
S31502000F80F5D507E000980228D4D2E8E70746EEE74F
S31502000F900746ECE799F8020040F0040089F80200DF
S31502000FA04FF0FF37384619B0BDE8F08F022AB8BFB6
S31502000FB070472DE9F04F42F689084FF0010CC0F256
S31502000FC0010804464FF0010E03E05F789C1C252FB2
S31502000FD029D1234613F8015B252D01D025B90AE153
S31502000FE06778A31C252F1DD11C4614F8015B252DFD
S31502000FF001D025B9FFE05F789C1C252F13D123462B
S3150200100013F8015B252D01D025B9F4E06778A31CFE
S31502001010252F07D11C4614F8015B252DD5D0002DAE
S31502001020D7D1E8E01C464FF0000A4FF0000900262F
S3150200103004E014F8017B002F00F0A980B346BAF150
S315020010401F0F0AD8A7F12005102D09D80CFA05F5AD
S3150200105015EA080F40F07C8002E0BAF17F0F0AD849
S31502001060A7F13005092D3ED80BEB8B034AF0200A77
S3150200107005EB4306DDE7A7F14C052E2D00F288802D
S315020010805E46DFE815F0670085008500850085006D
S315020010908500850085008500850085008500850020
S315020010A08500850085008500850085008500850010
S315020010B0850085008500850085008500850077000E
S315020010C08500670085007000850085008500850023
S315020010D08500850085002F00850085008500850036
S315020010E085002F00A5E7A7F12405562D00F25080B2
S315020010F00026DFE805F0334D4D4D4D4D324D4D4D39
S31502001100324D4D4D4D4D4D4D4D4D4D4D4D4D4D4D22
S315020011104D4D4D4D4D4D4D4D4D4D4D4D4D4D2F4D15
S315020011204D4D4D4D4D4D4D4D4D4D4D4D4D4D4D4DE7
S315020011304D4D4D4D4D4D4D4D4D4D3F4D2F4D384D18
S315020011404D4D4D4D4D4D2C4D4D4D4D4D2C00FFE70A
S315020011505E466EE74AF4207AFAE76AE7B9F1000FCB
S315020011600FD1D94665E70AF080034AEA830343F0C2
S31502001170800AEDE70AF480734AEA430343F4807A6D
S31502001180E6E7F3457FF455AF6327F14600E0002713
S31502001190B9F1000F2FD0F14524D147F02003612B7E
S315020011A01CBF653B022B05D80B68073323F00703E8
S315020011B0083313E0A7F16303102B0AD8DFE803F024
S315020011C00C09090909090909090909090909090984
S315020011D00C005FEA0A6309D40B6804330EF1010EB0
S315020011E004460B609645FFF6F4AE04E00B685FEA30
S315020011F08A54DAD4F1E7BDE8F04F70472DE9F0479B
S3150200120003F01F06984691468A46054628465146E9
S315020012103246002300F06EFA044600FB16500F46D3
S31502001220A0EB0801092888BF01F13700303089F8A0
S315020012300000A81B7AF1000049D3204639463246FF
S31502001240002300F057FA054600FB16408A46A0EB3B
S315020012500801092888BF01F13700303089F80100FA
S31502001260A01B77F1000036D32846514632460023AA
S3150200127000F040FA044600FB16500F46A0EB0801A8
S31502001280092888BF01F13700303089F80200A81B0F
S315020012907AF1000023D3204639463246002300F075
S315020012A029FA054600FB16408A46A0EB08010928E2
S315020012B088BF01F13700303089F8030009F10409CB
S315020012C0A01B77F10000A1D24846BDE8F08709F1DC
S315020012D00100BDE8F08709F10200BDE8F08709F1D7
S315020012E003094846BDE8F0872DE9F04F85B05AEC70
S315020012F0103B4FEADA77CAF30A566FF31F5A0771A1
S3150200130053EA0A0408BF002E0ED040F2FF75AE4221
S315020013103CD10421002C18BF082139440171002157
S31502001320084605B0BDE8F08F002700234FF0000AFB
S315020013300029076037D40D2937D3190F00F1050BA1
S3150200134041EA0A110491190E4FEA1A5441EA0A2196
S315020013500391190D4FEA1A4641EA0A310291190C14
S315020013604FEA1A3841EA0A410191190B41EA0A5C2D
S31502001370190A41EA0A6E190941EA0A794FEA1A116B
S3150200138003F00F034FEA1A27009180E04FF6024757
S31502001390002ECFF6FF771CBFA6F2FF370AF5801A9A
S315020013A000290760C7D5002146E03326A6EB810552
S315020013B0C5F1200613274FF0020CA7EB81072CFA82
S315020013C006F401264FF0000E002F58BF0CFA07F460
S315020013D058BF06FA07FE06FA05F60CFA05F558BFD7
S315020013E0002658BF0025D5F100094FF0000868EB2A
S315020013F0040C013D64F100041D4004EA0A04751B55
S315020014007EEB040411D38C00C4F13405D4F1140428
S3150200141023FA05F7C5F120050AFA05F545EA070597
S3150200142058BF2AFA04F5EC0702D09B194AEB0E0ABA
S3150200143003EA09030AEA0C0A1F0947EA0A791F0F97
S315020014401D0B47EA0A1704971F0E45EA0A5C47EA8C
S315020014500A2703971F0D1D0A47EA0A3702971F0C30
S3150200146045EA0A6E47EA0A4700F1050B13F00F0335
S3150200147001974FEA1A174FEA1A544FEA1A464FEAE9
S315020014801A384FEA1A25009700F0B4802F46991AA7
S31502001490092B88BF01F1270303F13001817409F09A
S315020014A00F030D219D1A092B88BF05F127030C296D
S315020014B003F13003437498BF0C210EF00F039D1AFB
S315020014C0092B88BF05F127030B2903F130030374A7
S315020014D098BF0B210CF00F039D1A092B88BF05F14B
S315020014E027030A2903F13003C37398BF0A21019B1C
S315020014F03D4603F00F039F1A092B88BF07F1270306
S31502001500092903F13003837398BF0921029B03F073
S315020015100F039F1A092B88BF07F12703082903F136
S315020015203003437398BF0821039B03F00F039F1AEE
S31502001530092B88BF07F12703072903F13003037339
S3150200154098BF0721049B03F00F039F1A092B88BF3C
S3150200155007F12703062903F13003C37298BF062158
S315020015600AF00F039F1A092B88BF07F127030529E3
S3150200157003F13003837298BF0521009B03F00F032A
S315020015809F1A092B88BF07F12703042903F13003A9
S31502001590437298BF042105F00F039F1A092B88BFD7
S315020015A007F12703032903F13003037298BF0321CE
S315020015B008F00F039F1A092B88BF07F12703022998
S315020015C003F13003C37106F00F0398BF02219A1A82
S315020015D0092B88BF02F1270303F130028271012928
S315020015E098BF012104F130008BF80000084605B0CF
S315020015F0BDE8F08F19F00F0348D10C2946D21EF030
S315020016000F0345D10B2943D21CF00F0342D10A29FD
S3150200161040D2019B13F00F037FF46DAF0929BFF48B
S315020016206AAF029B13F00F037FF473AF0829BFF46E
S3150200163070AF039B13F00F037FF479AF0729BFF452
S3150200164076AF049B13F00F037FF47FAF0629BFF436
S315020016507CAF1AF00F037FF485AF0529BFF482AF82
S3150200166017F00F038CD104298AD215F00F0394D1F7
S31502001670032992D218F00F039CD102299AD206F0BE
S315020016800F0353EA0107A2D10021ABE72F4609E770
S315020016902F4614E72F461FE7844639B370B500EB91
S315020016A0010C4B1EA1F1020ECC1E0022855C85B1F7
S315020016B0934219D085186E7876B1964514D0AE78D5
S315020016C06EB1944210D0EE7866B104329142EDD1F9
S315020016D00AE000EB020C07E005F1010C04E005F15B
S315020016E0020C01E005F1030CBDE87040ACEB000012
S315020016F07047D4D440B584B002AE009600F004F828
S31502001700029A039B04B040BD2DE9F04F099D844621
S3150200171081B1C2B14BB3B1FA81F7B3FA83F6F71BC3
S31502001720202F4FD3002D18BFC5E900C1002000218C
S31502001730BDE8F08FCBB30021002D64D00020C5E9AF
S3150200174000C1BDE8F08F002B60D0002861D05F1E7B
S315020017503B4200F08580B1FA81F7B3FA83F6F71BB4
S315020017601F2FDFD207F1010C3CE0571E3A425DD033
S31502001770B1FA81F7B2FA82F6F71B07F1210CBCF136
S31502001780200F24D0BCF11F0F79D8CCF1200620FA05
S315020017900CF721FA0CF901FA06F5B0403D434FF079
S315020017A0000ABCF1010F2CD07CE0B0FBF2FC002D4C
S315020017B01EBF0CFB12000021C5E900010021604694
S315020017C0BDE8F08F07F1010CBCF1200F0AD14FF0F2
S315020017D000094FF0200C0D464FF0000ABCF1010F34
S315020017E00FD05FE0C7F11F0720FA0CF621FA0CF9B9
S315020017F001FA07F5B84035434FF0000ABCF1010F74
S3150200180050D100248FE00020BDE8F08F6046BDE88D
S31502001810F08FB1FBF3FC002D1EBF0CFB1310002151
S31502001820C5E9001000216046BDE8F08F002D1EBFFD
S3150200183000230740C5E90073012A0ED092FAA2F2EC
S315020018404F00B2FA82F202F01F03D140D8401F23A2
S31502001850934307FA03F343EA000C6046BDE8F08FB0
S31502001860002D1CBF07EA0100C5E900C093FAA3F0E8
S31502001870B0FA80F021FA00F00021BDE8F08FACF159
S315020018802007CCF140044FF0000920FA07F601FACE
S3150200189004F52E4300FA04FA21FA07F53046BCF1A4
S315020018A0010FAED02CF001070126023F4FF0000BCC
S315020018B006EB570E4FEA490444EAD5746D0045EA31
S315020018C0D0754000E743E943891843EB0708AF1A8E
S315020018D064EB0306B8F1000F56EA448457EA4585DD
S315020018E0640044EAD5746D0045EAD07540EADA70C0
S315020018F0AE1A6FEA050164EB030789184FEA400046
S315020019006FEA0401594157EA448956EA4585CC0FE4
S315020019104BEA4A010027A34640EAD170490041EA50
S31502001920D87A0FF039C85FEACC711ED06F004FEA41
S31502001930490147EAD07741EAD571B7EB020C4FEA83
S31502001940400061EB030EFD4352196FEA010653EBA9
S31502001950060240EADA705EEA41895CEA4785D10FFF
S3150200196044EA4A0200270C4692464FEADA7141EAF5
S31502001970400009994FEA4A02002918BFC1E90059F5
S3150200198040EA070122F001002043BDE8F08F2DE96D
S31502001990F04FA1B056EC108BB246C6F30A546FF361
S315020019A01F5AF50F58EA0A0708BF002C0ED040F25C
S315020019B0FF76B44215D10821002F08BF0421002466
S315020019C029440171204621B0BDE8F08FA91C01719E
S315020019D030210124417100210160204621B0BDE879
S315020019E0F08FA4F23549002CCDE9062308F0010652
S315020019F00495CDE9081006BF4FF6CC39CFF6FF792C
S31502001A000AF5801A4FEA8A0242EA9870002F159068
S31502001A105FEA0F90022C5FEA2F91B9F1000F40EABC
S31502001A2001074FEA880014900596139749D4484651
S31502001A3000F021FD0546B9F1030F88BF013D284696
S31502001A4000F027FD0DF1580B04462846594600F0D2
S31502001A500BFE1AA81CA95A460297CDE90010A5EB5F
S31502001A6009002044514600F17C034046AB4600F093
S31502001A7031FC8246152D5FD8149F4CF6CD46159D36
S31502001A801EA8CCF6CC460C4600903846294632466D
S31502001A904FF0CC3300F072FEDDE91E01820842EA05
S31502001AA0817120F0030008444042F8426AD1384668
S31502001AB0294600F0F7FC58455FEA3F901290002055
S31502001AC087E0C9F1000B584600F0DCFC044619F128
S31502001AD0010018BF013CABEB040B584600F0D9FCE1
S31502001AE016A9054658468B4600F03BFD1AA81CA9C6
S31502001AF05A460297CDE90010601B00F17D0340466D
S31502001B00514600F0E7FB04EB090B8246012C1BD879
S31502001B10089B002E069D4CF6CD46CCF6CC4608D048
S31502001B20DDE91C0201381C9062F100001D900020C4
S31502001B3013900120129050E04CF6CD460020CDE9DC
S31502001B401200CCF6CC4646E0089B4CF6CD46069DE6
S31502001B50CCF6CC463E2C25D84FF0FF30B4F120020D
S31502001B6000FA04F758BF0027149C58BF9040159AF4
S31502001B7024EA070722EA000038435FEA1F90129020
S31502001B80002011E0059888B91398C043C01965F181
S31502001B90000100F087FC58455FEA3F901390002051
S31502001BA0129017E000201290139016E047F0020000
S31502001BB0294600F077FCDDE91C124B1E62F1000596
S31502001BC0584553EA21801C9055EA22801D90002038
S31502001BD0129013902146089B069D002D0C934AD025
S31502001BE0BAF10A0071F1000001D2012037E00027A4
S31502001BF04FF00A0C02204FF064094FF47A7842F251
S31502001C00107E0A22A2FB0C4507EB870305EB430372
S31502001C10BAEB040471EB030320D3A2FB093407FBDE
S31502001C200944BAEB030371EB040314D3A2FB083491
S31502001C3007FB0844BAEB030371EB04030DD3A2FBC3
S31502001C400E23043007FB0E37BAEB020371EB0703D0
S31502001C50D8D2013802E0013000E00230089B079A30
S31502001C600BEB02073844B0EBD27FB8BFD00F8342EA
S31502001C7053EAB0800C90CDF80CB00DF1680B1D9CA8
S31502001C8016AD9BE8000B00201591149011900B9055
S31502001C902FE01599504632464FF0CC3316AD4FEA37
S31502001CA0DB04009500F06AFD1498BB46129910F009
S31502001CB0FF0FDDE916235FEA1F90014008EB88005B
S31502001CC01291404210994942B1EB400F13995FEAD3
S31502001CD01F9001401391D00840EA437101EB800046
S31502001CE0AAEB4000149011988A4601301190D80848
S31502001CF015905846214632464FF0CC330095CDF822
S31502001D0034B00E9400F03AFD4046494632464FF052
S31502001D10CC33DDE9164B0095CDE90F9800F02EFD88
S31502001D20DDE91601E20842EA4B774FEAD109C0081B
S31502001D3040EA4178B8EB070079EBDB00A9D31599A5
S31502001D40BAF10A0071F1000001D201203BE00A97C4
S31502001D5000250A2202204FF00A0C64274FF47A7EED
S31502001D60A2FB0C3605EB850406EB4406BAEB03032D
S31502001D7071EB060322D3A2FB073605FB0766BAEB15
S31502001D80030371EB060316D3A2FB0E3605FB0E66A2
S31502001D90BAEB030371EB06030FD342F2107404305D
S31502001DA0A2FB042305FB0435BAEB020371EB050320
S31502001DB0D6D2013802E0013000E002300A9F4CF62A
S31502001DC0CD46CCF6CC460C9A4AEA010313435FEAA7
S31502001DD01F93904203DD13B901200B905AE7139823
S31502001DE0C00771D0DDF8408032460F994FF0CC33F0
S31502001DF016AD0095404600F0C1FCDDE91610C8F1AB
S31502001E000003DDF848B0CA0842EA407404EB8202D5
S31502001E105242B3EB420F5FD1C208DDF84490DDF8BF
S31502001E2050C0DDE90D01904632464FF0CC33CDF875
S31502001E3050C0009500F0A2FC1599324616984FF054
S31502001E40CC3312905046179F009500F097FC4CF643
S31502001E50CD4216A8009020464146CCF6CC424FF021
S31502001E60CC33DDE91665CDF83C8000F087FCF1083D
S31502001E7041EA457E14980EEB8101A046ED0810F06A
S31502001E80FF0FAAEB410C5FEA1F90DDE916120BEA7F
S31502001E90000B12984CF6CD461595CB0843EA4274D0
S31502001EA0C00804EB830340EA47705B4209F101096B
S31502001EB016ADF908C8F10007CCF6CC46D208F246B0
S31502001EC0B7EB430FAFD00CE00DF1400BD646DDF871
S31502001ED050C09BE8000B04E0D646DDF84490DDF8DE
S31502001EE050C0159A8EEA08010F98134642401143D4
S31502001EF00B9A5FEA0F911143CA07059900295FEA17
S31502001F001F91002A04BF139A11EA02010ED05FFA4A
S31502001F108CF105295FEA0F92042962EA0B025FEA55
S31502001F209F9142EA0E0202EA010C01E04FF0010C17
S31502001F30039809EB00051EEB0C0043F10001B0F11A
S31502001F400A0271F1000201D2012338E0AE460026F0
S31502001F504FF00A0802234FF0640B4FF47A7A42F2EA
S31502001F6010790A25A5FB087206EB860402EB4402E9
S31502001F70C41B71EB02021DD3A5FB0B2406FB0B440B
S31502001F80821A71EB040212D3A5FB0A2406FB0A4449
S31502001F90821A71EB04020CD3A5FB0952043306FB29
S31502001FA00926421B71EB0602DCD2013B02E0013339
S31502001FB000E002334CF6CD467546CCF6CC460C9A7A
S31502001FC093425FEADC82012A079A3AD1069F4FB111
S31502001FD02A441A44012AD8BF0122089F974257EA87
S31502001FE0B2820C920C9A93422BDD05304CF6CD4709
S31502001FF041F10001CCF6CC474008013B40EAC170F2
S31502002000013510EB51024FEA510142F10002A2FBE7
S31502002010077626F0030707EB96074FF0CC36D21B5E
S31502002020821A4CF6CD40CCF6CC4061F10001A2FBFF
S31502002030000702FB06724CF6CD46CCF6CC4601FBF7
S3150200204006210C9A934253EAB2822BB214B223446B
S31502002050A3F10108012CC0F2348102F00303099AAC
S31502002060CDF84880042C02F105091193149402D28A
S315020020704FF0000AA9E0E31A2244149C02F1040874
S315020020804FF0000A13936422002383460F46FFF79C
S3150200209031FB420800F0010042EAC17212EB510123
S315020020A041F10001A1FB062323F0030202EB930296
S315020020B00023891A4FF47A7240EA4100394640F009
S315020020C0300015905846FFF715FB42084CF6CD46F0
S315020020D042EAC172CCF6CC4612EB510100F0010085
S315020020E041F100024FEA5B0141EAC77111EB570366
S315020020F043F10003A3FB066525F0030606EB9506EE
S315020021009B1B6FF00206CB1A4CF6CD41CCF6CC41A6
S31502002110A3FB011C01EB8105ABEB450545F0300540
S3150200212008F804598AEA0605159E254409F8056049
S315020021304CF6CD46CCF6CC46A2FB065626F0030557
S3150200214005EB9606A2EB06024CF6CD46CCF6CC463D
S3150200215040EA42006FF0030282EA0A0240F03000CF
S31502002160224409F802004FF0CC304FEA570203FB33
S3150200217000C062F1000202FB06004A0801F00101FA
S3150200218042EAC07212EB500040F10000A0FB0623A7
S3150200219023F0030202EB93020023801A42F210722A
S315020021A041EA40006FF0010181EA0A0140F0300085
S315020021B0214409F8010058463946FFF79BFA0AF10D
S315020021C0040A139A52457FF45EAFDDF844E0DDF867
S315020021D04880149CBEF1000F73D042084CF6CD47DE
S315020021E042EAC172CCF6CC4712EB51036FEA0A05FA
S315020021F043F100032544A3FB077626F0030707EB0A
S3150200220096074E08DB1BD31A4CF6CD42CCF6CC42CF
S3150200221066F1000CA3FB0227BEF1010F02EB820658
S31502002220A0EB460646F0300609F8056049D04FF0A5
S31502002230CC364CF6CD4503FB06734CF6CD47CCF6B1
S31502002240CC47CCF6CC450CFB0733570802F001020B
S3150200225047EAC37717EB53034CF6CD4743F1000326
S31502002260CCF6CC47BEF1020FA3FB077626F0030796
S3150200227007EB9607A3EB070342EA4302A4EB0A0322
S3150200228003EB090642F0300206F8022C19D064224A
S315020022900023FFF72FFA420800F0010042EAC1725A
S315020022A012EB510141F10001A1FB052323F00302C8
S315020022B002EB9302891A40EA410040F0300006F828
S315020022C0030C099804990171C0F80080204621B0D8
S315020022D0BDE8F08F2DE9F04F8BB0490041EAD0748A
S315020022E005931646D2E9002345002846214608AF43
S315020022F0009700F043FAD6E90223834606A88946E8
S31502002300009028462146DDE9087A00F037FA10EBFC
S315020023100708DDE906234AEB010ADDE90801571C35
S31502002320059C43F10005B8EB00007AEB0100A4F12D
S31502002330410455EA338357EA328296E8830017EB63
S315020023400807F568049445EB0A0510EB0B0059EBF8
S315020023500100009457F10000CDE9062345F1000182
S31502002360571C43F10005B0EB080471EB0A04CDF8E3
S315020023700CB055EA338357EA3282CDF8089000F062
S315020023801BFADDE91429169BC2E9000143B3D6E91B
S3150200239000C1D6E902560398B8EB0505DDE9062326
S315020023A06AEB06066C1E66F10007B0EB0C0002989B
S315020023B0DDF810B08841CDF800B054EA358057EA0E
S315020023C03681571E63F10006B8EB00057AEB01056C
S315020023D057EA328256EA338300F0EEF95F463EE070
S315020023E0DDE906204FEA4804D6E900EC019005989B
S315020023F0D6E90276A0F14005029800954FEA4A0511
S31502002400039945EAD87544EAD0744300E71B65EBA5
S315020024100606B7F1010B43EAD17366F10000DEEB63
S31502002420410173EB0C0150EA36815BEA3780B4EB6B
S315020024300803019F75EB0A035FEA2F937F0043EAC5
S31502002440420347EAD2775A1E67F10006241A8D41E3
S3150200245052EA338256EA378300F0AEF9049FDDE989
S315020024600623C9E9000140465146009700F0A4F947
S315020024700BB0BDE8F08F43F24141C0F2010148437F
S31502002480800C704742F6FB61C0F20B014843000D17
S31502002490704749F24F31C0F212014843012101EB64
S315020024A0D04070472DE9F04F4CF6CD4E45F6294403
S315020024B042F6F50A47F6D50847F6916943F2343BE8
S315020024C002460020CCF6CC4E4FF03333CCF28F24AA
S315020024D0C8F65C7AC2F2E968C3F6FB29C3F2333B5B
S315020024E0A2FB0E5C4FF0CC3702FB07C7D5F13335A2
S315020024F001FB0E7773EB07072ED3A2FB047502FBD3
S315020025000A55D7F1333701FB045573EB050722D37E
S31502002510A2FB087540F63106C1F6AC4602FB06552B
S31502002520D7F1333701FB085573EB050716D3A2FB28
S3150200253009754CF67066CDF28826043002FB065207
S3150200254001FB0921B7EB0B0271F133323A46C7D3CD
S315020025500138BDE8F08F0130BDE8F08F0230BDE8EA
S31502002560F08F2DE9F04F87B005464EF64F40C4F680
S31502002570C4608B46A5FB0001C8081A2100FB01F6C0
S3150200258044F61811C0F2002101EB0010B54209D140
S3150200259090E80E00C0688BE80E00CBF80C0007B07E
S315020025A0BDE8F08FD0E9009244F6E811C0F20021AE
S315020025B00192D0E90223A81B51F8307001EBC0004A
S315020025C0446804A800903846214600F0D7F8019BDB
S315020025D0824602A888460090384621464A4600F0BE
S315020025E0CDF881460191DDE90201002210EB0A07CE
S315020025F058EB010842F10000012806D1DDE9040189
S315020026000130049041F1000005902846FFF741FF92
S3150200261004463046FFF73DFF0199241A48463A46DA
S315020026204346009400F0C8F86FF0030244F6B8235C
S3150200263002EA9502C0F200239A581E2303EA4503D2
S31502002640DA4002F003068019DDE9042341F10001B4
S31502002650CBE9000138464146009400F0ADF8CBE9DB
S31502002660020107B0BDE8F08F2DE9F04F87B08B4627
S315020026704EF64F4105461930C4F6C461A0FB01016E
S31502002680C8081A2100FB01F644F61031C0F20021F7
S3150200269001EB0010AE4209D190E80E00C0688BE84B
S315020026A00E00CBF80C0007B0BDE8F08FD0E900A20F
S315020026B044F6E811C0F200210192D0E90223701B10
S315020026C051F8307001EBC000446804A80090384607
S315020026D0214600F053F8804602A80090BAF10102A2
S315020026E001988946214660F10003384600F046F813
S315020026F004468A46DDE90201002210EB080751EB87
S31502002700090842F10000012806D1DDE90401013081
S31502002710049041F1000005903046FFF7BAFE0646E6
S315020027202846FFF7B6FE361A204651463A46434633
S31502002730009600F041F86FF0030244F6004302EA05
S315020027409502C0F200239A581E2303EA4503DA4093
S3150200275002F003054019DDE9042341F100010130CD
S3150200276041F10001CBE9000138464146009600F0EE
S3150200277023F8CBE9020107B0BDE8F08FF0B5A2FB62
S3150200278001CEA2FB0075A3FB011415EB0C05DDF8C7
S3150200279014C051EB0E06294644F100043246E3FB0F
S315020027A00012A3FB0003401956EB030044F100009C
S315020027B0CCE900203846F0BD10B5DDF808C0CCF1F2
S315020027C0400ECEF1200420FA0CF003FA0EF322FAA0
S315020027D004F42343DCF1200458BF02FA04F302FA9C
S315020027E00EF201FA04F440EA040058BF0022BCF1DA
S315020027F0200458BF21FA04F021FA0CF158BF002137
S315020028001043194310BDD4D4F0B581B040F2D806B6
S31502002810EFF31184C2F20026002585F31288012007
S3150200282086F8600000F0A8F943F680404FF00041B8
S31502002830CEF200009FED261A016044F2402184F395
S315020028401188C0F20F01706900EE100A88425FEA31
S315020028502F9186F86110B8EE400A96F8611080EE64
S31502002860012A81EE000A00299FED1A1A44F6D35175
S3150200287002FE000AC1F26201B6EE002AA0FB0101C5
S31502002880A0EE012A8809BDEEC20A86ED160AF06597
S31502002890EFF3118785F31288756000F01DF8BFF318
S315020028A04F8FBFF36F8F00BFBFF34F8FBFF36F8F93
S315020028B0044600F011F871682144401A706087F3EB
S315020028C01188C6E91255C6E9145501B0F0BD00BF1C
S315020028D00024744900008047B0B543F27C0240F2FE
S315020028E0D803CEF20002C2F20023EFF3118C0020CD
S315020028F080F31288106893F86010012943F6C041EC
S31502002900CEF2000108D10968B1F1FF3F10DD0021C6
S3150200291025E000BF00BF00BFEFF3108E72B60C6851
S31502002920B4F1FF3F08DD002117E000BF00BF00BF82
S315020029301068012113E000BF4FF0004041F8400C3F
S315020029400021EFF3118081F31288D3E91245013594
S31502002950C3E9124580F3118810688EF31088D3E913
S3150200296012258018D3E914246941821A71EB0402F4
S3150200297006DAD3E914018CF31188B0BD00BF00BF9B
S31502002980C3E914018CF31188B0BDD4D4D4D4D4D401
S31502002990F0B581B040F2D806EFF31184C2F20026F8
S315020029A0002585F3128886F8605000F0E5F843F6B4
S315020029B080404FF00041CEF200009FED261A0160E2
S315020029C044F2402184F31188C0F20F01706900EECF
S315020029D0100A88425FEA2F9186F86110B8EE400A23
S315020029E096F8611080EE012A81EE000A00299FED19
S315020029F01A1A44F6D35102FE000AC1F26201B6EE79
S31502002A00002AA0FB0101A0EE012A8809BDEEC20A36
S31502002A1086ED160AF065EFF3118785F31288756065
S31502002A20FFF75AFFBFF34F8FBFF36F8F00BFBFF39E
S31502002A304F8FBFF36F8F0446FFF74EFF7168214435
S31502002A40401A706087F31188C6E91255C6E9145513
S31502002A5001B0F0BD0024744900008047D4D4D4D418
S31502002A6010B54EF63050CEF200000068800647D50B
S31502002A7043F68040CEF20000016CB1F1FF3F07DD64
S31502002A80D0F88011C9B202291AD239E000BF00BFBC
S31502002A9040F2D80C4FF00041C2F2002C0160EFF375
S31502002AA01181002282F31288DCE912320132CCE96A
S31502002AB0123281F31188D0F88011C9B202291FD3CC
S31502002AC0026892070AD540F2401C0222C2F2002C8A
S31502002AD00260DCE900320132CCE9003204290FD36C
S31502002AE0026812070AD540F2401C0822C2F2002CE4
S31502002AF00260DCE902320132CCE90232062903D253
S31502002B0010BD00BF00BF00BF026892060AD540F2A0
S31502002B10401C2022C2F2002C0260DCE9043201329F
S31502002B20CCE90432062908BF10BD08294FF0010C72
S31502002B305CEA3C9E40F24011C2F200210623F646B0
S31502002B4001F1180208E000BF01330832BEF1010E9E
S31502002B5002D1D5E700BF00BF0CFA03F1046C0C42A8
S31502002B60F2D00160D2E9001411F5803144F100047B
S31502002B70C2E90014E8E7D4D443F60040CEF20000DE
S31502002B80D0F80012490458BF704770B543F6046284
S31502002B90EFF3108CCEF2000272B64FF000431168CA
S31502002BA021F00101116003620366116841F004011C
S31502002BB01160C0F88030116841F002011160D0F84E
S31502002BC00012C9B2022954D34FF600044FF6040587
S31502002BD0CFF6FF74CFF6FF754FF0080E042940F8C2
S31502002BE004E04FF01E0444514FF00305C0F8805034
S31502002BF04FF00206066405603BD34FF6080513261E
S31502002C00CFF6FF75062946514FF60C05CFF6FF752E
S31502002C1044514FF00C04C0F88040C0F840E0046014
S31502002C2027D34FF610060325CFF6FF7606298551E0
S31502002C304FF61406CFF6FF764FF01E0585514FF07C
S31502002C403006C0F880604FF020050564066010D09B
S31502002C5008294FF0010151EA319E062400BF00BF48
S31502002C6001FA04F50134C0F88050056405600FF0DE
S31502002C7009C84EF6FC51CEF200010E6846F0807687
S31502002C8046F444160E60036403601068002140F0A7
S31502002C900100106041F20000CEF2000001608CF3E8
S31502002CA0108870BDD4D4D4D42DE9F04381B040F25B
S31502002CB054004EF200184CF20036C2F20020802177
S31502002CC0CEF20008C4F20006FDF765FB40F240159D
S31502002CD040F2D809C2F200250021284648F6001221
S31502002CE044F67043C2F2002900F8281FC4F23502E6
S31502002CF0C0F20023C0E90832827842F6B174C9F8FC
S31502002D000810C9F80C10C0F20024C0E90A41016398
S31502002D1002F0FC01013181700821C8F88010BFF36E
S31502002D204F8FBFF36F8F4EF20142F168CEF200026F
S31502002D3021F48031F160C023F1689370C9F8400034
S31502002D400121C8F88010BFF34F8FBFF36F8F34682D
S31502002D5024F480343460346888F80033C9F83400C7
S31502002D600224C8F88040BFF34F8FBFF36F8F746899
S31502002D7024F48034746074681370C9F8380004242B
S31502002D80C8F88040BFF34F8FBFF36F8FB46824F447
S31502002D908034B460B4685370C9F83C0043F204004E
S31502002DA0EFF31084C4F2200081F31088016821F445
S31502002DB08001016041F200210068C0F27A01D9F86F
S31502002DC01400884214D344F23F21C0F20F01084492
S31502002DD04DF68361C4F21B31A0FB0101880C000190
S31502002DE0A0EB9140400070B90FE000BF00BF00BFEA
S31502002DF04CF60021C3F69A31B1FBF0F047F230519E
S31502002E00B1FBF0F008B100F04BFC84F310884FF4EC
S31502002E108061E86C002281604FF41241E86C4161E6
S31502002E2040F21001E86CC2F2002109680161E86C07
S31502002E303021C1600021E86CC1F61F718261E86C25
S31502002E40416240F20011E86CC0F201010163A96C13
S31502002E50C5E90E22C5E91022CB692A635A7C92B3D0
S31502002E604EF2540CC4F2010C9CF8003003F00F042D
S31502002E70022C05D8012303FA04F411E000BF00BFB7
S31502002E80E31E052B08D244F66874C0F2002454F8F7
S31502002E90234005E000BF00BFA4F1080310249C40B4
S31502002EA09CF8013040F22007C2F2002703F00F031C
S31502002EB057F82330D9F814707A43B3FBF4F3B2FB14
S31502002EC0F3F201322A6310234FF6FF72C9F6075353
S31502002ED0AA86836691F905104A0901F01F0356F87E
S31502002EE0210020F4803046F8210056F8210008F52A
S31502002EF0C0700121BFF35F8F01FA03F340F822305D
S31502002F0048F82230AA6C92F90B2056F8223023F4A4
S31502002F10803346F8223056F82230530902F01F0257
S31502002F20BFF35F8F01FA02F240F8232048F823200C
S31502002F30AA6C92F9072056F8223023F4803346F819
S31502002F40223056F82230530902F01F02BFF35F8F78
S31502002F5001FA02F240F8232048F82320AA6C92F9DB
S31502002F60092056F8223023F4803346F8223056F8E8
S31502002F702230530902F01F02BFF35F8F914040F8DF
S31502002F80231048F8231040F21141E86CC0F2010107
S31502002F908160E86C00BF00BF017FC907FCD044F620
S31502002FA04210C5F24330E86201B0BDE8F083D4D4E2
S31502002FB0017904291AD140F2D80C8068C2F2002C99
S31502002FC0DCE902314A1C803A52EA0192CCF80C2022
S31502002FD09A4240F25403C2F20023585418BF704773
S31502002FE0501C803850EA0290CCF808007047D4D4BE
S31502002FF040F24011C2F20021CA6C1071C86C00BFC7
S31502003000816C8900FCD500207047D4D4D4D4D4D4A2
S315020030102DE9F04182B040F2D807C2F20027D7E983
S315020030200250854205D100BF00BFD7E90250854252
S31502003030FAD0A84210D940F254010138C2F2002156
S31502003040F860495D8DF807109DF8070002B0BDE8EB
S31502003050F08100BF00BF00BF401BC5F18004803075
S3150200306040F25400C2F200200DF1070800EB050100
S31502003070404622465FEA0F96FDF7B2F8A6420BD209
S31502003080A819B0F1800150EA1180B8609DF80700D6
S3150200309002B0BDE8F08100BF361B40F2540108EBD6
S315020030A00400C2F200213246FDF79AF87019B860A0
S315020030B09DF8070002B0BDE8F081D4D4D4D4D4D4AC
S315020030C0B0B544F2A06072B64EF62855C0F20020A2
S315020030D0CEF20005FDF783F96868002808D468680F
S315020030E040000BD544F67600C0F2002004E000BF93
S315020030F044F22360C0F20020FDF771F944F6E100C4
S31502003100EFF30884C0F20020FDF769F944F240703B
S315020031102168C0F20020FDF74DF944F2CF606168E4
S31502003120C0F20020FDF746F944F2F250A168C0F25F
S315020031300020FDF73FF944F6CC00E168C0F200201A
S31502003140FDF738F944F2BB502169C0F20020FDF7C1
S3150200315031F944F664006169C0F20020FDF72AF9EC
S3150200316044F2DA40A169C0F20020FDF723F944F2E5
S31502003170E840E169C0F20020FDF71CF944F2006064
S31502003180C0F20020FDF72BF944F2C9502968C0F2BB
S315020031900020FDF70FF944F63F0055F8241CC0F253
S315020031A00020FDF707F944F62B006968C0F20020FB
S315020031B0FDF700F944F2F640C0F20020FDF70FF9E0
S315020031C044F2AC50EFF30581C0F20020FDF7F2F8AD
S315020031D02868800118D42868C0011ED42868C00255
S315020031E024D42868000349D4286840034FD42868A9
S315020031F0800355D42868C0035BD42868C00561D40F
S3150200320000BEB0BD00BF00BF44F2DD60C0F20020C8
S31502003210FDF7E5F82868C001E0D544F2FD60C0F28A
S315020032200020FDF7DCF82868C002DAD544F2806097
S31502003230C0F20020FDF7D3F844F219502146C0F23D
S315020032400020FDF7B7F844F65300EFF30A81C0F207
S315020032500020FDF7AFF844F60410EFF30981C0F23F
S315020032600020FDF7A7F844F2DD50EFF30B81C0F220
S315020032700020FDF79FF828680003B5D544F24160A7
S31502003280C0F20020FDF7ABF828684003AFD544F240
S315020032902A50C0F20020FDF7A2F828688003A9D5BB
S315020032A044F26160C0F20020FDF799F82868C00375
S315020032B0A3D544F6A500C0F20020FDF790F82868D1
S315020032C0C0059DD544F24650C0F20020FDF787F8AE
S315020032D000BEB0BDD4D4D4D4FFF7E6FCFFF758FB4A
S315020032E001F0F6F8D4D4D4D4FFF7F6FFD4D4D4D46C
S315020032F0B0B584B04FF07041EFF3038001EB00608C
S315020033004CF200328115C4F2000240F2D805C2F234
S3150200331000258B5805EBA05023F480338B50895837
S31502003320446B206A00690028606905D010B304B0B6
S31502003330B0BD00BF00BF00BFE0B1A07800F003003F
S315020033400228206908D10088616A20F4DC404860BE
S3150200335005E000BF00BF00BF616A00780871A0786F
S31502003360226900F003016069401A6061114421611B
S315020033700028DCD1616A02228D68A06862F31555C5
S3150200338010B100F08DF9616A8D60A06A00284FF0D5
S3150200339000002061CBD0E06A30B190E82E008DE8C3
S315020033A02E0002E000BF00BF6846216A097801606C
S315020033B00021816080210171216BC160A16A884769
S315020033C0E06A00281CBF9DE82E002EC004B0B0BDE6
S315020033D010B586B04FF07041EFF3038001EB006049
S315020033E04CF200328115C4F2000240F2D804C2F255
S315020033F000248B5804EBA05023F480338B50895859
S31502003400446BA07800F00302606A022A24D10168A4
S315020034106FF35F21E069019118B3A06901A9FCF776
S31502003420DFFEA078D4E9061200F003000144101A68
S31502003430C4E9061040D1A06A00283DD0E06A38B33C
S31502003440D0E900C2D0E90231CDE90431CDE902C2A8
S315020034501FE000BF00BF00BF0178E06901910028AC
S31502003460DBD1A06A40B3E06A50B1D0E900CED0E920
S315020034700223CDE90423CDE902CE02E000BF00BF5C
S3150200348002A8226A127881600260042107E000BF66
S3150200349002A8216A09780160002181600121017177
S315020034A0216BC160A16A8847E06A28B102AC1ECCD2
S315020034B0016042608360C46006B010BDD4D4D4D427
S315020034C0B0B584B04FF07041EFF3038001EB0060BA
S315020034D040F2D801C2F200214FF6EF7301EBA05180
S315020034E0CFF6CF7304164D6B696A8A681A408A60F2
S315020034F0A96AF9B1E86A58B1D0E900C2D0E9023145
S31502003500CDE90231CDE900C203E000BF00BF00BF32
S315020035106846296A097801600021816002210171E9
S31502003520296BC160A96A8847E86A00281CBF9DE822
S315020035302E002EC04CF20030C4F2000050F82410C7
S3150200354021F4803140F8241050F8240004B0B0BDB4
S3150200355070B584B04FF07041EFF3038001EB006069
S3150200356040F2D801C2F2002101EBA0514C6BA178C6
S31502003570636A01F00301022906D1D3F800C06FF392
S315020035805F2C03E000BF00BF93F800C09A6C2025B1
S31502003590082105EAD2454FF0100E01EA12611EEA31
S315020035A0126229440A4403D0996C090458BF403276
S315020035B0996E051641F0C8519966A16AE9B1E06AA9
S315020035C050B1D0E900E3D0E90216CDE90216CDE901
S315020035D000E302E000BF00BF6846216A0978C0F82E
S315020035E008C001600271216BC160A16A8847E06A66
S315020035F000281CBF9DE84E004EC04CF20030C4F2BB
S31502003600000050F8251021F4803140F8251050F8BA
S31502003610250004B070BDD4D470B582B04FF07041AD
S31502003620EFF3038001EB006140F2D800C2F2002002
S315020036303C2300EBA1504CF20034C4F200040D16F8
S31502003640406B427903EA92031A44C323C0F2400351
S3150200365063F31F2249F60053CFF6FF73D25C02F0E2
S315020036600306032E07D054F8251021F4803144F8BE
S31502003670251054F82510816829B14279C068009056
S31502003680684601928847032E07D154F8250020F494
S31502003690803044F8250054F8250002B070BDD4D419
S315020036A001380028FCD170474CF22010C4F2000009
S315020036B050F8201C0268114040F8101C00BF00BFE1
S315020036C002680A42FCD1704700F00AF8FFF70CFEC6
S315020036D000BE7047D4D4D4D4D4D4D4D4D4D4D4D47D
S315020036E02DE9F04F83B04EF6145840F20120CEF287
S315020036F00008C0F20E004EF2000BC8F80000CEF22F
S31502003700010BBFF34F8FBFF36F8F58F8141CC1F331
S31502003710035001285FEA1F9211F00F0F5FEA0F9123
S315020037201142DBF8001013D1022811D241F0040035
S31502003730CBF800004EF20800BFF34F8FCEF2000026
S31502003740BFF36F8F016841F48031016004E000BF6E
S3150200375021F00400CBF80000BFF34F8F4EF2FA328D
S315020037604FF47000BFF36F8FC8F8740040F2000088
S31502003770C4F20102C0F2002048F80C0C4AF20250D0
S31502003780CFF6FF7040F220090FF624510130108067
S31502003790C2F200290FF6285091ED001F4EF2550A8B
S315020037A009F1200389ED001FC4F2010A48F2004123
S315020037B090ED001F43F6000044F25532C1F69C40DC
S315020037C089ED041FC1F2D771C1F2DE3207C31AF8BE
S315020037D02F0C3AF8311C01F00F02A2F1080103295D
S315020037E036D8DFE801F00529111D00BF00BF00BF72
S315020037F04AF6AB2159F82000CAF6AA21A0FB01011C
S31502003800480828E000BF00BF4AF6AB2159F820005D
S31502003810CAF6AA21A0FB0101C8081CE000BF00BF2E
S315020038204AF6AB2159F82000CAF6AA21A0FB0101EB
S31502003830080910E000BF00BF4AF6AB2159F8200084
S31502003840CAF6AA21A0FB0101880804E000BF00BF56
S3150200385059F82000D04040F2D8064EF60045C2F292
S315020038600026C4F201050A214EF64C4770614FF656
S315020038705060CFF6FF70C4F20107295409208AF876
S315020038804D00287818B917F84B0C800737D02878DE
S3150200389088BB41F2FF1101202870C0F27A017069DB
S315020038A0884211D944F23F21C0F20F0108444DF675
S315020038B08361C4F21B31A0FB0101880CC821484375
S315020038C078B915E000BF00BF4CF60021C3F69A3165
S315020038D0B1FBF0F040F64051C0F20301B1FBF0F04B
S315020038E030B1FFF7DDFE40F2D806C2F2002600BF75
S315020038F028780128FCD1002007F84B0C28700020FC
S315020039000AF8230C00BF00BF1AF8190C0007FBD5F2
S3150200391042F602314FF60210CAF8730040F24150E5
S315020039202AF8070C0020C0F201010AF80B0CCAF8AB
S31502003930571040F283412AF8091CBFF34F8FBFF399
S315020039406F8FD8F8001021F40031C8F80010C8F8BB
S315020039503C02BFF34F8FBFF36F8FDBF8000020F4FA
S315020039604050CBF80000BFF34F8FBFF36F8F1AF8AA
S31502003970410C00F0F80001300AF8410C00BF00BF0C
S315020039801AF8410CC006FBD4DBF8000040F44050A4
S31502003990CBF80000BFF34F8FBFF36F8FD8F800004C
S315020039A0800314D4BFF34F8FBFF36F8F0020C8F884
S315020039B03C02BFF34F8FBFF36F8FD8F8000040F47D
S315020039C00030C8F80000BFF34F8FBFF36F8F00209F
S315020039D00AF82B0C00BF00BF1AF8190C8006FBD59B
S315020039E04CF200040020C4F21304207020782078E0
S315020039F020786068C82807D0C820C1F6006000BFDA
S31502003A0060606168C829FBD1A068642808D0642078
S31502003A10CEF2001000BF00BFA060A1686429FBD1EE
S31502003A2049F69820C9F689004AF8350C48F680000E
S31502003A302AF8310C05200AF82F0C1AF82F0C3AF83E
S31502003A40311C01F00F02A2F10801032934D8DFE884
S31502003A5001F003270F1B00BF4AF6AB2159F82000DD
S31502003A60CAF6AA21A0FB0101480828E000BF00BF50
S31502003A704AF6AB2159F82000CAF6AA21A0FB010199
S31502003A80C8081CE000BF00BF4AF6AB2159F8200067
S31502003A90CAF6AA21A0FB0101080910E000BF00BF77
S31502003AA04AF6AB2159F82000CAF6AA21A0FB010169
S31502003AB0880804E000BF00BF59F82000D04041F258
S31502003AC0FF117061C0F27A01884211D944F23F2196
S31502003AD0C0F20F0108444DF68361C4F21B31A0FB0C
S31502003AE00101880C0001A0EB9140400058B910E09A
S31502003AF04CF60021C3F69A31B1FBF0F047F2305191
S31502003B00B1FBF0F028B1FFF7CBFD40F2D806C2F2C6
S31502003B10002660686FF39F20652801D3012020707C
S31502003B201AF82F0C3AF8311C01F00F02A2F1080123
S31502003B30032935D8DFE801F00428101C00BF00BFB6
S31502003B404AF6AB2159F82000CAF6AA21A0FB0101C8
S31502003B50480828E000BF00BF4AF6AB2159F820000A
S31502003B60CAF6AA21A0FB0101C8081CE000BF00BFDB
S31502003B704AF6AB2159F82000CAF6AA21A0FB010198
S31502003B80080910E000BF00BF4AF6AB2159F8200031
S31502003B90CAF6AA21A0FB0101880804E000BF00BF03
S31502003BA059F82000D04042F200027061C4F20002CD
S31502003BB04AF2025001384FF4254110800120BFF32A
S31502003BC05F8F1072BFF35F8F11800AF8020C9AF8AA
S31502003BD01F0040F040008AF81F0000BF00BF00BF70
S31502003BE09AF91F00B0F1FF3FFADC07208AF81700A6
S31502003BF048208AF81F0008208AF81F0000BF00BF6D
S31502003C009AF91F000028FBD49AF8000040F0400001
S31502003C108AF8000000BF00BF9AF90000B0F1FF3F2A
S31502003C20FADC02200AF8010CC8208AF800009AF889
S31502003C30000000F0BF008AF8000000BF00BF00BF0E
S31502003C409AF900000028FBD49AF8020040F04000DE
S31502003C508AF8020000BF00BF9AF90200B0F1FF3FE6
S31502003C60FADC00208AF80100C7208AF802009AF8D6
S31502003C70020000F0BF008AF8020000BF00BF00BFCA
S31502003C809AF902000028FBD44EF2FA334FF425408B
S31502003C90C4F201034AF202510022188019804FF63B
S31502003CA0B061CFF6FF716A54188040F20000C2F28A
S31502003CB0000080F30A88DBF80000800728D558F850
S31502003CC00C0CB0F1007F23D1DBF810004FF4007129
S31502003CD0C0F3C300DBF8142001FA00F3C2F3C300F9
S31502003CE081400020DA08CB080146074642F005C0AB
S31502003CF0E7E802010FF005C04EF64C47C4F2010791
S31502003D004FF0005243F005C0E2E802010FF005C091
S31502003D1044F6A4700B24C0F2002000F1040B5D46A9
S31502003D2006E000BF00BF00BF013C05F10C050FD045
S31502003D3068790028F8D155E90101091AFCF72BFB2D
S31502003D4040F2D806C2F20026EEE700BF00BF00BF6F
S31502003D5045F22800C846C0F20020192400F10809DD
S31502003D604D4605E000BF00BF013C05F110050FD02E
S31502003D7068790028F8D155E902022968121AFCF777
S31502003D802FFA40F2D806C2F20026EDE700BF00BFC6
S31502003D901AF82F0C3AF8311C01F00F02A2F10801B1
S31502003DA0032939D841F2FF13C0F27A03DFE801F0A2
S31502003DB00428101C00BF00BF4AF6AB2158F82000A9
S31502003DC0CAF6AA21A0FB010148082CE000BF00BFE9
S31502003DD04AF6AB2158F82000CAF6AA21A0FB010137
S31502003DE0C80820E000BF00BF4AF6AB2158F8200001
S31502003DF0CAF6AA21A0FB0101080914E000BF00BF10
S31502003E004AF6AB2158F82000CAF6AA21A0FB010106
S31502003E10880808E000BF00BF58F8200041F2FF13EF
S31502003E20D040C0F27A0342F224047061C4F2200444
S31502003E3000204EF614582071CEF20008706998429E
S31502003E4012D944F23F21C0F20F0108444DF68361B4
S31502003E50C4F21B31A0FB0101880CC821484380B97A
S31502003E6015E000BF00BF00BF4CF60021C3F69A3131
S31502003E70B1FBF0F040F64051C0F20301B1FBF0F0A5
S31502003E8028B1FFF70DFC40F2D806C2F20026002048
S31502003E90207000BF00BF00BF207808B12FF005C018
S31502003EA0207840F00200207020788007FCD40020A1
S31502003EB004F8020C00BF00BF14F8020C08B12FF080
S31502003EC005C84FF0030E002004F11C0500BF00BF19
S31502003ED015F8101001F07F0105F8101000BF00BFA1
S31502003EE015F910100029FBD401300FF00FC801217B
S31502003EF0EFF3108081F31088718B41B94EF2FA32DA
S31502003F004AF20253C4F20102118819431180718BDD
S31502003F100131718380F31088002038700121EFF39C
S31502003F20108081F31088718B11B1718B0139718305
S31502003F30718B49B94EF2FA32C4F20102118841F488
S31502003F40254121F00201118080F310880121EFF34F
S31502003F50108081F31088F18B49B94EF2FA334AF296
S31502003F600252C4F201030E32198811431980F18BF1
S31502003F704FF00E0E0131F18380F3108840F6145093
S31502003F80C4F240001C30002120F8041B0FF005C0CB
S31502003F900121EFF3108081F31088F18B11B1F18BBF
S31502003FA00139F183F18B49B94EF2FA32C4F20102B8
S31502003FB0118841F4254121F01001118080F3108807
S31502003FC00121EFF3108081F31088F18B49B94EF28B
S31502003FD0FA334AF20252C4F201030E32198811432D
S31502003FE01980F18B0131F18380F3108844F20400C9
S31502003FF0C4F220000021016041608160C16001219C
S31502004000EFF3108081F31088F18B11B1F18B013936
S31502004010F1830195F18B49B94EF2FA32C4F20102EB
S31502004020118841F4254121F01001118080F3108896
S315020040300B244FF4807503E0013C0BF10C0B0BD003
S315020040409BF80500B5EB002FF6D15BE90101091AD1
S31502004050FCF7A1F9F0E700BF19244FF4807503E0DD
S31502004060013C09F110090FD099F80500B5EB002FB4
S31502004070F6D159E90202D9F80010121AFCF7B0F883
S31502004080EEE700BF00BF00BF40F29C14C2F200245C
S315020040902046FCF768F92046FCF781F9BFF34F8FFB
S315020040A0BFF36F8F0020C8F83C0245F2142045F298
S315020040B01821C0F20020C0F20021BFF34F8F081A68
S315020040C0BFF36F8F8410012C0BDB45F21425C0F26F
S315020040D0002500BF00BF00BF55F8040B8047013C16
S315020040E0FAD140F2D80341F2FF1500214FF0010A3E
S315020040F0C2F20023C0F27A0507E000BF00BF00BF8C
S31502004100029901315B2900F0E38044F6904044F6BF
S315020041107C74C0F200204FF0000900EBC10BC0F224
S315020041200024019E0291BBF8048007E000BF00BF95
S3150200413009F101090236B9F1030FE1D034F8020B95
S315020041408045F5D1DBF800003A7800F0B8510AFA5A
S3150200415009F0B1F1807F00EA020109D100295BD0A2
S3150200416096F90000002840F19280E1E700BF00BF07
S31502004170B1B3EFF310818AF310885A8B82B94EF2EB
S31502004180FA354AF20257C4F201052A883A434EF634
S315020041904C472A8041F2FF15C4F20107C0F27A05A4
S315020041A05A8B01325A8381F31088397821EA00004A
S315020041B03870EFF310808AF31088598B11B1598B3E
S315020041C001395983598B49B94EF2FA32C4F20102C6
S315020041D0118841F4254121F00201118080F31088F3
S315020041E096F90000B0F1FF3FA2DC307800F07F00C4
S315020041F030705869A84251D84CF60021C3F69A315C
S31502004200B1FBF0F040F64051C0F20301B1FBF0F011
S31502004210002854D18CE700BFEFF310818AF310888F
S315020042205A8B82B94EF2FA354AF20257C4F20105A6
S315020042302A883A434EF64C472A8041F2FF15C4F2C9
S315020042400107C0F27A055A8B01325A8381F310882C
S31502004250397808433870EFF310808AF31088598B47
S3150200426011B1598B01395983598B49B94EF2FA3238
S31502004270C4F20102118841F4254121F002011180A4
S3150200428080F3108896F9000000283FF551AF307888
S3150200429040F0800030705869A842ADD944F23F21FF
S315020042A0C0F20F0108444DF68361C4F21B31A0FB34
S315020042B00101880CC821484300283FF439AFFFF7B3
S315020042C0EFF940F2D803C2F2002331E700BF00BF84
S315020042D00121EFF3108081F31088196939B940F68C
S315020042E014520021C4F24002117040211170196962
S315020042F04FF05B0E0131196180F3108844F690414C
S31502004300F64640F60000C0F20021C4F24000043135
S315020043100EE000BF00BF00BF00EB8717083147F869
S315020043202420BEF1010E03D11AE000BF00BF00BF78
S315020043300E8851F8042CD7034FEA1627F4B2EBD5B0
S3150200434000EB871656F8245025F4803546F824509B
S3150200435022F4803546F82450DEE700BF00BF00BFD6
S315020043600121EFF3108081F310884EF61454196977
S31502004370CEF2000411B1196901391961196939B905
S3150200438040F614520021C4F24002117080211170CD
S3150200439080F310884FF0050E42F20000C4F20000CE
S315020043A045F2B81100F52340C0F2002100BF00BF5C
S315020043B031F8022B40F8042B0FF007C0D4F8AC00FA
S315020043C0442161F30700C4F8AC00E06FC0F3072094
S315020043D040B344F684710022C0F200210027043162
S315020043E0002300BF00BF00BF0D68202D13D351F874
S315020043F0046C25F01F0526F01F06203DB5420AD3A0
S31502004400013345F0010546F00106C4F88470C4F88C
S315020044108860C4F88C50022A04D8DFB2013208310F
S31502004420B842E1D8BFF35F8F0520C4F88000206947
S3150200443040F480302061BFF34F8FBFF36F8F206847
S31502004440C0032FD400202067BFF34F8FE16E43F6DF
S31502004450E073C1F34E30CA08C1F3C9014F1C91077C
S31502004460420100BF00BF00BF02EA030647F001E0B7
S315020044700E4400BF00BF00BFC4F84C6206F14046BE
S315020044800FF007C00028A0F10100A2F12002EBD133
S31502004490BFF34F8F206840F480302060BFF34F8F08
S315020044A0BFF36F8F03B0BDE8F08F00BF00BF00BF40
S315020044B0006CDC0200127A000080000000366E01F9
S315020044C0008000000046C32300CA9A3BAA02E50FF9
S315020044D040F2190CC0F2000C604750433A202030DB
S315020044E078253038580D0A005053523A2030782534
S315020044F03038580D0A003D3D3D3D3D3D3D3D204F86
S3150200450074686572205265676973746572203D3DF1
S315020045103D3D3D3D3D3D0D0A004D53503A20202084
S31502004520203078253038580D0A00436865636B657C
S3150200453064204572726F723A20496E76616C6964C4
S315020045402050430D0A00436865636B65642045721B
S31502004550726F723A20496E737472756374696F6E04
S3150200456020427573204572726F720D0A000D0A2A77
S315020045702A5072657373202755534552204B45596D
S315020045802720627574746F6E20746F207472696767
S31502004590676572206578746572616E6C20696E74E7
S315020045A06572727570742E202A2A0D004950535274
S315020045B03A203078253038580D0A005231323A20E6
S315020045C03078253038580D0A005343422D3E435366
S315020045D046523A203078253038580D0A005053504A
S315020045E04C494D3A203078253038580D0A00696E0C
S315020045F0660052323A20203078253038580D0A00AB
S315020046003D3D3D3D3D3D3D3D3D20534342205265AE
S31502004610676973746572203D3D3D3D3D3D3D3D3DBF
S315020046200D0A00486172644661756C74206F63639B
S3150200463075727265642062792044454255470D0AB7
S3150200464000436865636B6564204572726F723A2037
S315020046504E6F20436F70726F636573736F720D0ACC
S3150200466000436865636B6564204572726F723A2017
S31502004670496E76616C69642053746174650D0A0033
S31502004680436865636B6564204572726F723A2053A4
S315020046907461636B204F766572666C6F770D0A00E4
S315020046A03D3D3D3D3D3D3D3D3D3D3D3D3D3D3D204F
S315020046B0496E20486172644661756C74203D3D3DC9
S315020046C03D3D3D3D3D3D3D3D3D3D3D3D0D0A00529D
S315020046D0313A20203078253038580D0A0043686573
S315020046E0636B6564204572726F723A20446976691B
S315020046F06465204279205A65726F0D0A0043686527
S31502004700636B6564204572726F723A20556E616CF6
S3150200471069676E6564204163636573730D0A000DF4
S315020047200A2A2A456E7465722065787465726E610E
S315020047306C20696E74657272757074202A2A0D0077
S3150200474052303A20203078253038580D0A000D0AAA
S3150200475054686973206578616D706C652070726F3C
S315020047606A6563742064656D6F6E737472617465D5
S3150200477073207468652066756E6374696F6E616C0A
S31502004780697479206F66204943552064726976659B
S31502004790722E0D0A4F6E207072657373696E6720F2
S315020047A0746865207573657220707573682062750A
S315020047B074746F6E2C20616E2065787465726E61FA
S315020047C06C20495251206973207472696767657259
S315020047D065642C200D0A77686963682074726967BC
S315020047E0676572206F6E2D626F617264204C45445C
S315020047F020626C696E6B206F6E63652074696D65ED
S315020048002E0D0A416E64207072696E743A2A2A4528
S315020048106E7465722065787465726E616C20696E5D
S31502004820746572727570742A2A0D005343422D3EC6
S31502004830484653523A203078253038580D0A0053EC
S3150200484043422D3E494353523A2030782530385858
S315020048500D0A004D53504C494D3A203078253038D8
S31502004860580D0A004C523A20203078253038580D1F
S315020048700A006E616E00486172644661756C74204E
S315020048806F63637572726564206279206F746865FE
S315020048907220657863657074696F6E20666F7263E5
S315020048A065640D0A00436865636B65642045727230
S315020048B06F723A20556E646566696E656420496E4C
S315020048C0737472756374696F6E0D0A0052333A20FF
S315020048D0203078253038580D0A00286E756C6C2900
S315020048E0003D3D3D3D3D3D3D3D3D3D204D5350202E
S315020048F0537461636B20203D3D3D3D3D3D3D3D3D55
S315020049003D0D0A005053503A2020202030782530A1
S3150200491038580D0A00D4D4D400000000000000006C
S31502004920000000000000001000000000000000006F
S31502004930B9340332B7F4AD1410DB1AB30892540E2D
S315020049400D307D951447BA1A66088F4D26ADC66D91
S31502004950F598BF85E2B74511CA96853D92BD1DEB16
S31502004960FCA11860DCEF52163C92AE220BB8C1B421
S31502004970839D2D5B0562DA1C304C7E8F4E8BB25BBB
S3150200498016F4529F8B56A512FBD4827643ED8AF01B
S315020049908FE7F9311565191850F19BD94A13EEB410
S315020049A0284CF0A686C1251F035FC270CB9E49160E
S315020049B0E642889C44EB2014B0650836AD6EA585A8
S315020049C085F0CA14E2FD031A0B899979D5B13D091E
S315020049D0D8DA973A35EBCF10AC363F5E73BB38CF99
S315020049E03E6752FA44AFBA1501000000000000000B
S315020049F00500000000000000190000000000000091
S31502004A007D000000000000007102000000000000AE
S31502004A10350C000000000000093D00000000000007
S31502004A202D31010000000000E1F505000000000044
S31502004A3065CD1D0000000000F9029500000000008F
S31502004A40DD0EE90200000000514A8D0E0000000052
S31502004A509573C24800000000E941CC6B01000000DA
S31502004A608D49FD1A07000000C16FF286230000007F
S31502004A70C52EBCA2B1000000D9E9AC2D7803000016
S31502004A803D9160E45811000031D6E275BC56000033
S31502004A90F52E6E4DAEB10100C9EA2683677808008D
S31502004AA0ED95C28F055A2A00A1EDCCCE1BC2D300CA
S31502004AB025A4000A8BCA22040000000000000000A0
S31502004AC000000000000000000000004095596959EE
S31502004AD0555554551555555604051541105455400E
S31502004AE045515544404550445055554500400040B7
S31502004AF04004449665555655454045545141154026
S31502004B00559155555555405105010000D4D4D4D47C
S31502004B10010000000000000000000000000000206C
S31502004B20345065C05FC9A652BB13CBAEC440C2188F
S31502004B3006C8DF7100D5A87CF56F0FDA58FC27137B
S31502004B406E4756357D24206502C7E768E48CA41DAE
S31502004B50E9E60268D7CD39617977FCC2405BEF1688
S31502004B60798CDE43FFA751F991F3B278F5BDBE11F8
S31502004B70E857E9D6E8BEE87BB054AC8F848D751B46
S31502004B80EA23A499E9F9D38BB7A3714061DA3E15FA
S31502004B90CEE33ECB73F948088C97B427D51B701029
S31502004BA0A2BFEFB9EB8532154DB44DB49BBB6F195D
S31502004BB096B6076CF8E7EEAD36D9B4F59135AE1375
S31502004BC0222218AF4E6A684D91DAAA3D4F40741EF2
S31502004BD09FBD9EE006A1C09857C2A7FDA40E9017DE
S31502004BE00E7D497173E3208FB220D87605143B12ED
S31502004BF0853D7434811343B0AD297A5F27F4351CA1
S31502004C00544554544555050400100410140440003C
S31502004C1000000140555515415404000044000100AE
S31502004C200000004041000044504445505400555590
S31502004C305455655100400040010000010005010085
S31502004C401154515154555505001541500000044068
S31502004C50100104050000000000000022000100000F
S31502004C60100000220F00FFFF0000000101000000FB
S31502004C70090200000C000C010C020C0300000000EB
S31502004C8000000000B12F0002000000005C4C000290
S31502004C900008011C000100000008011C01010000BF
S31502004CA00008011C030100000000010305010000C9
S31502004CB00004011C0701000010400000080100006A
S31502004CC0040C00000A010000000C01150B01000093
S31502004CD0000C010B0C010000000C010B0D01000081
S31502004CE0000C010B0E010000000C010B0F0100006D
S31502004CF00040000000020000104000000102000017
S31502004D000000010305020000000001050802000080
S31502004D100004010509020000000801000A02000061
S31502004D20000001000B020000000001000C0200005E
S31502004D30000001000D020000000001000E0200004A
S31502004D40000001000F020000000C010B000300002E
S31502004D50000C010B01030000000C010B0203000012
S31502004D6010400000030300000000011307040000C6
S31502004D7000040113080400004004010709040000AE
S31502004D80400401070A040000000C010B03050000A1
S31502004D90000C010B04050000000C010B05050000C8
S31502004DA0000C010B06050000000C010B07050000B4
S31502004DB0000C010B08050000000C010B09050000A0
S31502004DC0000C010B0A0500000404000006060000A0
S31502004DD0000C010B07060000000C010B0806000080
S31502004DE0000C010B09060000000C010B0A0600006C
S31502004DF0000C010B0B060000000C010B0C06000058
S31502004E00000C010B0D060000000C010B0E06000043
S31502004E10000C010B0F0600000008011C030800002D
S31502004E200008011C08080000000C010B0D08000018
S31502004E30000C01130E080000000C01130F080000FD
S31502004E40000C010B000A0000000C010B010A000015
S31502004E50000C010B020A0000000C010B030A000001
S31502004E60000C010B040A0000000C010B050A0000ED
S31502004E70000C010B060A0000000C010B080A0000D8
S31502004E80000C010B090A0000000C010B0A0A0000C3
S31502004E90000C010B0B0A0000000C010B0C0A0000AF
S31502004EA0000C010B0D0A0000000C010B0E0A00009B
S31502004EB00008010B0F0A0000000C010B000C000099
S31502004EC0000C010B010C0000000C010B020C00008F
S31502004ED0000C010B030C0000000C010B040C00007B
S31502004EE0000C010B050C0000000C010B060C000067
S31502004EF0000C010B070C0000000C010B080C000053
S31502004F00000C010B090C0000000C010B0A0C00003E
S31502004F10000C010B0B0C0000000C010B0C0C00002A
S31502004F20000C010B0D0C0000000C010B0E0C000016
S31502004F30000C010B000D0000000C0115010D000014
S31502004F40000C0115020D0000000C0115030D0000F6
S31502004F50000C0115040D000000080115050D0000E6
S31502004F6010000115070D00000600000008000000F1
S31502004F7003000000050000000A000000020403040A
S31502004F800404D4D400000068000000680000008019
S31502004F900000008000000070000000702000002267
S31502004FA02000002200000068000000680001000DD9
S31502004FB000000068000000680001000D000000808B
S31502004FC00000008000010008000000800000008050
S31502004FD00001000800000070000000700001000AD5
S31502004FE000000070000000700001000A700100005D
S31502004FF07001000001000005004000200040002072
S31502005000010000042000002220000022000000030C
S31502005010500000229C010022000000039C01002295
S315020050209C010022000000030000006800000068E6
S31502005030000000900001090D0000006800000068F1
S315020050400000007800010B0D0000006800000068F7
S31502005050000000270001020D000000680000006841
S31502005060540000020001010D0000008000000080D3
S315020050700000009000010908000000800000008086
S315020050800000007800010B0800000080000000808C
S3150200509000000027000102080000008000000080D6
S315020050A054000002000101080000007000000070B8
S315020050B0000000900001090A000000700000007064
S315020050C00000007800010B0A00000070000000706A
S315020050D0000000270001020A0000007000000070B4
S315020050E0540000020001010A000000000000000056
S315020050F00000009001010905000000000000000008
S315020051000000007801010B0500000000000000000D
S3150200511000000027010002050000000070010000E7
S3150200512058000002010001050000002000000020D6
S315020051300000009001010904000000200000002088
S315020051400000007801010B0400000020000000208E
S3150200515000000027010002040000002000000020D9
S31502005160C801000201000104000000220000002222
S315020051700000009000010903000000220000002246
S315020051800000007800010B0300000022000000224C
S315020051900000002700000203000000221400002283
S315020051A0C8010002000001039C0100229C010022AA
S315020051B0DC010002000001030303040305030603E6
S315020051C01E00D4D400000506362E352E3000427558
S315020051D0696C7420776974682052656E65736173B1
S315020051E020416476616E63656420466C6578696207
S315020051F06C6520536F667477617265205061636BCC
S315020052006167652076657273696F6E20362E352E5C
S30702005210300064
S30902005214092800025B
S30902C9F040FFFFFFFFFF
S30902C9F044EFFFFFFF0B
S30902C9F0C0FFFFFFFD81
S30902C9F0C4FFFFFFFF7B
S30902C9F120000000001A
S30902C9F1240000000016
S705020036C9F9
