:020000040200F8
:10000000A0040022A148000271470002F121000271
:10001000B1480002B1480002B1480002B1480002F4
:10002000000000000000000000000000B1480002D5
:10003000D909000200000000B1480002B1480002E6
:1000400031320002613100020933000291330002B3
:0C0050007940000259380002B13900026A
:10005C0001000000000003002925000249250002D0
:08006C00000000004009000043
:1000800083B0B0B581B0044605A840F2D045C2F2B5
:1000900000250EC005AB4FF4807128462246009320
:1000A00006F0B9F9287878B147F6A0410135C0F2D9
:1000B00000210C6800BF00BF214604F0F7FF15F8CF
:1000C000010B08B12FF009C001B0BDE8B04003B08A
:1000D0007047D4D4D4D4D4D401460078002808BFC3
:1000E0007047B0B547F6A0424D1CC0F2002214681C
:1000F000214604F0DBFF15F8010B08B12FF009C011
:10010000BDE8B0407047D4D483B070B581B0044628
:1001100005A840F2D045C2F200250EC005AB4FF451
:10012000807128462246009306F075F947F6A041F3
:100130002878C0F200210C6850B1013500BF00BF23
:10014000214604F0B3FF15F8010B08B12FF009C0E8
:1001500047F2CA600226C0F20020451C0D2000BFF5
:10016000214604F0A3FF15F8010B013EF8D101B0C0
:10017000BDE8704003B0704782B080B582B08C4655
:100180000146CDE9042304AB00206246019300F050
:1001900007F802B0BDE8804002B07047D4D4D4D490
:1001A0002DE9F04383B00F46054602A801A9984601
:1001B000914602F0EDFA47F2E050DDE90121C0F28C
:1001C0000020FFF75DFF47F6A040C0F20020046862
:1001D000DFE805F00232122247F258400626C0F24C
:1001E0000020451C442000BF214604F05FFF15F8A5
:1001F000010B013EF8D12EE047F249600626C0F21D
:100200000020451C572000BF214604F04FFF15F881
:10021000010B013EF8D11EE047F6A1000626C0F210
:100220000020451C452000BF214604F03FFF15F883
:10023000010B013EF8D10EE047F214400626C0F251
:100240000020451C492000BF214604F02FFF15F86F
:10025000010B013EF8D17FB1387848B17D1C00BF59
:10026000214604F023FF15F8010B08B12FF009C057
:100270002020214604F01AFF47F66D100426C0F234
:100280000020451C3D2000BF214604F00FFF15F85B
:10029000010B013EF8D140F2D0474FF48071C2F219
:1002A00000274A463846434606F0B5F840F20000BB
:1002B000C2F2002001783878D1B148B17D1C00BF6E
:1002C000214604F0F3FE15F8010B08B12FF009C028
:1002D00047F2CA600226C0F20020451C0D2000BF74
:1002E000214604F0E3FE15F8010B013EF8D10BE0C6
:1002F00050B17D1C00BF00BF214604F0D7FE15F8A9
:10030000010B08B12FF009C003B0BDE8F083D4D4CD
:1003100082B080B582B08C460146CDE9042304AB9F
:10032000022062460193FFF73BFF02B0BDE8804028
:1003300002B07047D4D4D4D482B080B582B08C4699
:100340000146CDE9042304AB032062460193FFF785
:1003500027FF02B0BDE8804002B07047D4D4D4D4A7
:100360002DE9F04385B040F2D05604A9C2F2002630
:1003700005460027ADF8107037708DF8127001F047
:1003800057F848B1044647F2FC6047F24051C0F2CA
:100390000020C0F20021D2E000978DF80C70CDE96A
:1003A000017701208DF802006946284601F068F8BF
:1003B00048B1044647F2FC6047F26831C0F20020C1
:1003C000C0F20021BBE00121284601F069FB48B1E1
:1003D000044647F2FC6047F6F721C0F20020C0F265
:1003E0000021ACE0284600F0DFFE48B1044647F2A9
:1003F000FC6047F63F01C0F20020C0F200219EE001
:100400004021284600F02CFF48B1044647F2FC602A
:1004100047F26951C0F20020C0F200218FE00021B4
:10042000284600F0E1FF48B1044647F2FC6047F27D
:100430004471C0F20020C0F2002180E040F2D450AC
:100440000121C2F200206C6901700A21284600F0E7
:10045000E3FE002C044640B147F2FC6047F69511DC
:10046000C0F20020C0F2002169E00A21284600F015
:1004700097FF48B1044647F2FC6047F20971C0F2A9
:100480000020C0F200215AE0284600F011FE48B1D9
:10049000044647F2FC6047F28D31C0F20020C0F202
:1004A00000214CE0284600F0FFFE48B1044647F228
:1004B000FC6047F60C41C0F20020C0F200213EE093
:1004C000284601F055F848B1044647F2FC6047F66B
:1004D0009121C0F20020C0F2002130E047F6BC407C
:1004E000C0F20020006803F063FD47F2FC6847F2A9
:1004F00066790027C0F20028C0F20029307830B9B0
:100500000A20012104F0F0F830780128F8D12846BB
:10051000377001F005FA0446B0F1FF3F07DD0CB17A
:100520002FF015C040464946FFF7F2FEE6E747F2D6
:10053000FC6047F6A801C0F20020C0F2002122466C
:10054000FFF7FAFE204605B0BDE8F083D4D4D4D43A
:100550002DE9F0412DED028B96B040F2D85140F6D6
:10056000FF73C2F2002140F2D457C2F2002740F2DA
:10057000F4540A68C2F2002401320A60EDEE103A27
:1005800040F2DC5371FE4D0F98ED030FC2F20023D1
:100590003F7871FE4D0F93ED003F002F22EF400892
:1005A00071FE4D0F83ED001F40F2E853C2F20023AD
:1005B00031FE4D8F98ED060F93ED003F22EF40087E
:1005C00071FE4D0F83ED001F18BF3227B0F91200E6
:1005D000BA4222681044206040F0CE8000200860BB
:1005E00047F2CD6047F6BE21C0F20020C0F20021E4
:1005F000FFF7C2FD47F2E420C0F2002004F081FDC5
:100600004FF0030E40F2E85840F2DC56C2F20028E8
:10061000C2F2002648F21F503146C5F2EB104246A6
:100620000B68156853FB00F355FB00F51F1107EB32
:10063000D37341F8043B2B1103EBD57342F8043B11
:100640000FF013C0216851FB00F0011101EBD070D5
:10065000206047F6893096E80E00C0F2002004F0D2
:100660003BFD47F6FD0098E80E00C0F2002004F0C4
:1006700033FD47F231302168C0F2002004F02CFD38
:1006800047F65F00C0F2002004F03BFD4FF0030E80
:100690009FED3D0B04A89FED3E1B0AA910AA33460F
:1006A0009FED3D2B45469FED3E3B00BF00BF00BF89
:1006B00053F8047B04EE107AB8EEC44B55F8047B73
:1006C00024EE004B24EE014BA2EC024B04EE107A18
:1006D000B8EEC44B24EE024BA1EC024B24EE034BCC
:1006E000A0EC024B0FF01DC094ED000A10A8B8EE6C
:1006F000C00BB6EE001BB3EE098B00EE018B90EC45
:10070000060B53EC102B47F25060C0F200208DED29
:10071000001B8DED022B04F0DFFC0AA890EC060B09
:1007200053EC102B47F2EB50C0F200208DED001B74
:100730008DED022B04F0D0FC04A890EC060B53ECDA
:10074000102B47F20D50C0F200208DED001B8DEDF7
:10075000022B04F0C1FC53EC182B47F63920C0F2F1
:10076000002004F0B9FC0020C6E90000B060C8F821
:100770000800C8E90000206016B0BDEC028BBDE89F
:10078000F08100BF00BF00BF000000000000203F5C
:1007900005A3923A019D2340000000000040AF3FB6
:1007A00011DD52A246DF913F40F2D0500121C2F24A
:1007B000002001707047D4D480B500F039FA40F2BF
:1007C000006CEFF3118EC2F2002C002383F3128829
:1007D000DCE90032C0185141013041F10001CCE99F
:1007E00000018EF3118880BD7047D4D4D4D4D4D402
:1007F0002DE9F0410020EFF3118880F3128800F01A
:100800001BFA40F200670446C2F200270D463A7E0A
:10081000012A0ED100F058F958B300F00DFA044641
:100820000D4600F005FA00196941441C41F100052C
:100830001FE0EFF3108672B600F046F9B8B100F091
:100840004BF900F0F5F90022EFF3118382F31288DF
:10085000D7E9002580186941013041F10001C7E95D
:10086000000183F3118800F0E7F904460D4686F392
:100870001088D7E900010019D7E902236941821ADB
:1008800071EB030205DAD7E9020188F31188BDE8AC
:10089000F081C7E9020188F31188BDE8F081D4D462
:1008A0002DE9F04381B040F20067EFF31185C2F209
:1008B00000274FF0000989F31288387600F014F908
:1008C000804600F009F985F3118800F0B1F900F0D5
:1008D000A7F944F2402100EE100AC0F20F01B8EE71
:1008E000400A9FED241A40F2F85688425FEA2F91A1
:1008F000797680EE012A797E81EE000A9FED1E1A3C
:10090000C2F20026002944F6D351C1F2620102FE70
:10091000000AA0FB0101B6EE002AA0EE012A880918
:10092000BDEEC20A87ED040A7861EFF3118489F302
:100930001288C6F80090FFF75BFFBFF34F8FBFF33D
:100940006F8F00BFBFF34F8FBFF36F8F0546FFF769
:100950004FFF31682944401A306084F31188C7E999
:100960000099C7E90299FFF73FFF404601B0BDE893
:10097000F08300BF0024744900008047D4D4D4D44D
:100980000120FFF78DBFD4D480B540F20062C2F2DF
:100990000022537E012B0CD1126986464FEAE27C7D
:1009A000A0FB02030EFB0C3301FB023150EA2F4186
:1009B00080BD50EA0F411269D31704F007F980BDDA
:1009C00080B540F200620023C2F20022526904F0B6
:1009D000FDF880BDD4D4D4D400F002B8D4D4D4D49B
:1009E00010B54EF63050CEF200000068800631D5CA
:1009F00043F68044CEF20004206CB0F1FF3F04DCEB
:100A00004FF000402060FFF7D7FED4F88001C0B25D
:100A100002281FD3216889070AD50221216040F2EC
:100A20002061C2F20021D1E900230133C1E9002392
:100A300004280FD3216809070AD50821216040F254
:100A40002061C2F20021D1E902230133C1E902236E
:100A5000062800D210BD216889060AD52021216010
:100A600040F22061C2F20021D1E904230133C1E93F
:100A70000423062808BF10BD08284FF0010C5CEACB
:100A80003C9E40F22061C2F200210622F646183157
:100A900008E000BF00BF00BF01320831BEF1010E07
:100AA00000D1D7E70CFA02F3206C1842F4D023608F
:100AB000D1E9000310F5803043F10003C1E90003E0
:100AC000EAE7D4D4D4D4D4D443F6C040CEF2000064
:100AD0000068C00F7047D4D443F680404FF0004107
:100AE000CEF200000160704743F60041CEF20001F3
:100AF000D1F80002420440F18E80F0B543F6046361
:100B0000EFF3108CCEF2000372B64FF000461A6875
:100B100022F001021A600E620E661A6842F00402A8
:100B20001A60C1F880601A6842F002021A60D1F8B7
:100B30000022D2B2022A54D34FF600054FF6040425
:100B4000CFF6FF75CFF6FF744FF0080E042A41F878
:100B500005E04FF01E050D514FF00304C1F8804031
:100B60004FF002070F640C603BD34FF608041327C5
:100B7000CFF6FF74062A0F514FF60C04CFF6FF7420
:100B80000D514FF00C04C1F88040C1F840E00C60FA
:100B900027D34FF610070325CFF6FF77062ACD514E
:100BA0004FF61407CFF6FF774FF01E05CD514FF0EB
:100BB0003007C1F880704FF020050D640F6010D031
:100BC000082A4FF0010252EA329E062400BF00BFFD
:100BD00002FA04F50134C1F880500D640D600FF085
:100BE00009C84EF6FC52CEF20002176847F0807733
:100BF00047F4441717600E640E601968002241F034
:100C00000101196041F20001CEF200010A608CF38B
:100C10001088BDE8F040C0F380307047D4D4D4D4FD
:100C200041F6A040C2F2002000687047D4D4D4D46A
:100C30004FF0FF300021704743F27C000021CEF2DC
:100C4000000000687047D4D42DE9F04F87B090467B
:100C50000E46814600204F6806AA752101238DF8B3
:100C60001800B8479DF8182047F61B3047F66B313F
:100C7000C0F20020C0F20021FFF77EFA41F25801D5
:100C8000484604F029F97068002800F0B080B06888
:100C9000002800F0AC80484696E8BE00BEC040F692
:100CA000B83001F095FD002089F81C004846C9F8CD
:100CB000208000F0A5F847F61B340546C0F200245A
:100CC00047F63C41C0F2002120462A46FFF754FA7D
:100CD000484600F029F947F61B2140EA0502C0F218
:100CE000002120460592FFF747FA484601F0B8F97F
:100CF0000DF11A0704900321012248463B4601F0FA
:100D000047F89DF81A10039001223B4601F08F002E
:100D10008DF81A000321484601F0A2F80290002144
:100D2000012248463B4601F033F89DF81A10019025
:100D300001223B4601F0FD008DF81A0000214846D3
:100D400001F08EF80746484601F0E2F90DF11B0666
:100D50008046002101224846334601F019F89DF8EB
:100D60001B1004460122334641F008008DF81B0099
:100D70000021484601F074F882460121484600F0FF
:100D80008FFE0DF1190683460221012248463346A3
:100D900000F0FEFF9DF8191005460122334641F090
:100DA00001008DF819000221484601F059F8DDE9EB
:100DB00003211143029A1143019A1143394341EA35
:100DC0000801214341EA0A0141EA0B012943084392
:100DD000059940EA010447F2E34147F61B30C0F2AF
:100DE0000021C0F200202246FFF7C6F901E04FF0D3
:100DF000FF34204607B0BDE8F08FD4D4D4D4D4D487
:100E00002DE9F04381B036250446C0F201050DF10D
:100E1000030700208DF8030005F14601012220465A
:100E20003B4601F01DF8064605F14301012220462C
:100E30003B4601F015F8616903296FD840EA0609BD
:100E40000420DFE801F0021A19420DF10306012225
:100E500020462946334600F09BFF9DF803100746C5
:100E60000122334601F0F3008DF8030020462946A5
:100E700000F0F6FF384323E000200DF103088DF861
:100E800003004FF0011101222046434600F0E8FF25
:100E9000013D0746012220462946434600F078FFDF
:100EA0009DF8031006460122434641F003008DF8E9
:100EB00003002046294600F0D3FF47EA0601084315
:100EC00040EA090001B0BDE8F0830DF103030122FF
:100ED0002046294600F05CFF9DF8032040EA090601
:100EE00047F6241047F64C31C0F20020C0F2002132
:100EF000FFF742F99DF8031030464D29E2D04D210D
:100F00008DF803100DF10303012206462046294601
:100F100000F0A6FF304301B0BDE8F0836FF00A0097
:100F200001B0BDE8F083D4D42DE9F04F81B040F298
:100F300004090DF10103C0F20109012249460446EA
:100F400041F2440500278DF801708DF8007000F023
:100F50001FFF61690646013909F10108012906D818
:100F60006B4601222046414600F012FF06438DF8F1
:100F700002700DF1020709F17801012220463B467B
:100F800004EB050A00F06CFF40EA060509F1750163
:100F9000012220463B4600F063FF054310208DF8F8
:100FA0000200A9F10201012220463B4600F058FF51
:100FB00045EA00064FF4FA6001F00AFC47F2787542
:100FC00047F28E41C0F20025C0F200212846FFF70B
:100FD000D3F809F17101012220463B4600F0D8FE0A
:100FE0009DF8022047F66B31C0F200212846FFF73A
:100FF000C3F847F28C512846C0F20021FFF7BCF835
:101000000DF1010301222046494600F029FF6169E4
:1010100046EA000B0139012907D86B460122204618
:10102000414600F01DFF4BEA000B47F2787047F293
:10103000BE31C0F20020C0F20021FFF79DF820462B
:10104000FFF7DEFE804609F136010DF102030122B1
:10105000204600F09DFE9DF802600746204600F005
:10106000CBFD054600208AF80000AAF8020009F12D
:1010700031010DF103030122204680EF7F0E8AED3E
:10108000011F00F085FE28B99DF8031001F0100142
:101090008AF8011048EA0B01102E41EA070118BF37
:1010A00061F00B012943084301B0BDE8F08FD4D4AF
:1010B0002DE9F04F81B040F21F0B0DF10203C0F299
:1010C000010B01225946044600F062FE9DF80280A1
:1010D000054608F00B01022936D10BF102010DF192
:1010E00001030122204600F053FE9DF80110064640
:1010F00001F00F010539092906D847F66440C0F20E
:10110000002050F8219003E04CF20049C0F2090998
:101110000DF1030A012220465946534600F038FEDD
:101120009DF8031007460122534641F080008DF8D8
:1011300003002046594600F093FE46EA07010843A3
:101140000543484601F044FB0DF10206012220460A
:101150005946334600F01CFE9DF802100746012256
:10116000334641F003008DF802002046594600F056
:1011700077FE0646C82001F02BFB5FEA88700AD193
:1011800041F247000444207828B101F019FBC4F86B
:101190000900C4F80D1047EA0500304301B0BDE86E
:1011A000F08FD4D4D4D4D4D470B582B00446022500
:1011B00004208DF807002046C0F2010500F050FF22
:1011C00006460DF1070301222046294600F048FE9D
:1011D00006430A2001F0FCFA3046AEB99DF807102C
:1011E00011F0040110D00DF1070600BF00BF00BFD1
:1011F000012220462946334600F0CAFD20B99DF859
:10120000071011F00401F3D10546204600F080FFDD
:10121000284302B070BDD4D42DE9F04182B040F231
:1012200021080DF10707C0F201080C4601224146D2
:101230003B46054600F0ACFD9DF80710064601222E
:101240003B4601F0F000414620438DF80700284658
:1012500000F006FE304302B0BDE8F081D4D4D4D40F
:101260002DE9F04182B040F221080DF10707C0F2EC
:1012700001080C46012241463B46054600F088FD28
:101280009DF80710064601223B4601F09F004146AB
:1012900020438DF80700284600F0E2FD304302B0FD
:1012A000BDE8F081D4D4D4D42DE9F04F81B040F220
:1012B0001F0B0DF10203C0F2010B01225946044637
:1012C00000F066FD9DF80280054608F00B0102293A
:1012D00036D10BF102010DF101030122204600F08D
:1012E00057FD9DF80110064601F00F010539092947
:1012F00006D847F66440C0F2002050F8219003E081
:101300004CF20049C0F209090DF1030A01222046FE
:101310005946534600F03CFD9DF803100746012254
:10132000534641F080008DF803002046594600F0F6
:1013300097FD46EA070108430543484601F048FA8D
:101340000DF10206012220465946334600F020FDE9
:101350009DF8021007460122334641F00C008DF83B
:1013600002002046594600F07BFD0646C82001F0E9
:101370002FFA18F00C0F0AD141F2470004442078EC
:1013800028B101F01DFAC4F80100C4F8051047EABD
:101390000500304301B0BDE8F08FD4D4D4D4D4D408
:1013A0002DE9F04182B040F220080DF10707C0F2AC
:1013B00001080C46012241463B46054600F0E8FC88
:1013C0009DF80710064601223B4601F0F000414619
:1013D00020438DF80700284600F042FD304302B05C
:1013E000BDE8F081D4D4D4D42DE9F04182B040F2EC
:1013F00020080DF10707C0F201080C460122414602
:101400003B46054600F0C4FC9DF807100646012245
:101410003B4601F09F00414620438DF807002846D7
:1014200000F01EFD304302B0BDE8F081D4D4D4D426
:10143000F0B581B006260DF10307C0F201060D4696
:10144000012231463B46044600F0A2FC9DF8031001
:101450002A786B7801F0F8011143AA780546194300
:101460003B4642EA01008DF8030001222046314646
:1014700000F0F6FC284301B0F0BDD4D4D4D4D4D4C9
:101480002DE9F04381B040F22B080DF10209C0F2C2
:1014900001080E46022241464B46044600F078FC05
:1014A0009DF8021007467278B37801F0B1003178E8
:1014B000F578002918BF4030002A18BF0830002BEB
:1014C0009DF8031018BF0430002D327918BF40F08A
:1014D0000200737901F0F001002A18BF0831002BD7
:1014E0005FEA0F92B3798DF80200F0791144002B76
:1014F0004FF0020218BF02310028204618BF043105
:101500008DF8031041464B4600F0AAFC40EA07055F
:101510002F21012220464B4600F03AFC9DF8021094
:1015200045EA0007307A727A01F00701B37A0028A1
:1015300018BF61F07F01002AF07A18BF4031002BFC
:10154000327B18BF20310028204618BF41F010011F
:10155000002A4FF0010218BF41F008018DF8021077
:101560002F214B4600F07CFC384301B0BDE8F083EE
:101570002DE9F0438DB009250DF13303C0F20105CB
:10158000012205F13001044600F002FC10B10DB05B
:10159000BDE8F0839DF83300C00703D100200DB0F3
:1015A000BDE8F0830DF1060302222046294600F033
:1015B000EFFB41F245069DF806209DF80730814675
:1015C000A15D0DF12D0704EB0608102952EA0381F5
:1015D00053EA02823B46D0B2062240EA0120ADF82F
:1015E0001A00A91C204600F0D3FBA15D7A1D10292A
:1015F00007F104010AD1BDF82D609DF82F709DF808
:10160000303036BA4FEA164C164607E0BDF82DC00A
:101610009DF82F309DF830700E461146097849EA42
:101620000009307843EA0722ADF81020062240EA8C
:10163000012005F108010DF12705ADF81200204643
:101640002B46ADF80EC000F0A3FB98F800106E1DFD
:10165000102905F1040109D1BDF827209DF8295072
:101660009DF82A7012BA130C324607E0BDF82730F5
:101670009DF829709DF82A500A4631460978ADF840
:1016800014301378226A40EA0900002A47EA052745
:10169000ADF8167043EA0121ADF818103FF477AFAA
:1016A00002A904460846904720460DB0BDE8F083E5
:1016B0002DE9F041002313600D78802D00F02B817F
:1016C0006BB2002B14D441F24503402D00EB030410
:1016D0004FF0010010D2AB0637D4EB065FD40B56A7
:1016E000451C538213F1800769D00820106067E021
:1016F0004FF0FF30BDE8F0812378102B50EA0093C3
:1017000050EA1090CB5C085C40EA0320D08020783F
:1017100010284FF0030050EA009350EA1090CB5C81
:10172000085C40EA03201081207810284FF0050063
:1017300050EA009350EA1090CB5C085C40EA03202A
:1017400050810D780720AB06C7D523780F180630D7
:10175000102B57EA079357EA17961B78367846EA14
:10176000032393812378102B4FF0020353EA03964F
:1017700053EA1393BE5DFB5C43EA0623D3812378CF
:10178000102B4FF0040353EA039653EA1393BE5D04
:10179000FB5C43EA062313820D78EB069FD5237882
:1017A0000F18851C102B57EA079357EA17971B78D9
:1017B0003F7847EA03235382B3F5004F95D10020C9
:1017C0000B7813F00C0F13D023784F190235102B20
:1017D00057EA079357EA17971B783F7847EA03239E
:1017E00093800B785F0703D540F0040010600B78FE
:1017F0005F0644D5D788B7F5004F40D01789B7F5B5
:10180000004F3CD05789B7F5004F38D0264656F8E0
:101810000B3F776867EA03031BB940F001001060D3
:101820001BE01746884600F0CBFF3A46D6E9007326
:101830008C46C01B42F210776CEB0303C01B414681
:1018400073F1000009D30878400706D400204FF058
:10185000FF33C6E900301068DFE70B781068C70770
:1018600018BF13F010070AD04B5D4F191B091375F1
:101870007B781B095375BB781B0993750B789F0602
:1018800048D59789B7F5004F44D0D789B7F5004FB1
:1018900040D0178AB7F5004F3CD054F8037F6668F4
:1018A00066EA07071FB940F00200106020E05B07FE
:1018B0001ED40E46174600F083FFD4E90023801A99
:1018C00041F26F129941C0F20102101A4FF000006C
:1018D00070EB010109D24FF0FF31C4E90010386804
:1018E0003A4640F00200386001E03A463868314636
:1018F00080070FD50878C0060CD5485D294400F054
:101900000F00D075487800F00F001076887800F04E
:101910000F00507600231846BDE8F081D4D4D4D40B
:101920002DE9F04788B041F246013A26C0F201069F
:101930000DF11F0310F801900122314604460025E5
:10194000ADF81C5000F024FA9DF81F1011F0060F9E
:1019500000F0A0800746204600F082FB40EA070521
:10196000F11C07AB0222204600F012FA054304D016
:10197000204600F0CDFB05438CE040F24868C2F2FF
:101980000028D8E90001013041F10001C8E9000157
:10199000FEF72EFFFEF7F8FF1427BDF81C2040F2DB
:1019A0005065B9F1000FC2F2002504F1240908BF07
:1019B00010277A43C5E90001711D20464B4600F00F
:1019C000E7F98246FEF714FFFEF7DEFFD5E90023B4
:1019D00040F25865C2F20025801A9941D5E90026E7
:1019E0008018D8E90023714182F06402C5E9000142
:1019F0001A4313D1642200230026C8E9006603F0CD
:101A0000E5F8024647F6C32047F62831C0F2002029
:101A1000C0F20021FEF7B0FBC5E90066BAF1000F85
:101A20000AD02046FFF7C0FB0546204600F070FBB9
:101A3000284340EA0A052DE0BDF81C00C0B100258E
:101A4000E846002607E000BFBDF81C00013517FA84
:101A500086F685420CD219FA86F120464246FFF7F7
:101A600027FE68B9216A0029EED040468847EBE797
:101A7000204600F04DFB00280BD4BDF81C5009E0B7
:101A80002046FFF791FB204600F042FB4FF0FF3568
:101A900000E00546284608B0BDE8F087D4D4D4D489
:101AA0002DE9F04381B041F247020D4604468154CE
:101AB00000F0D6FA002D62D0012D40F0938040F264
:101AC00028080DF10309C0F20108012208F10D07F1
:101AD000204639464B46012600F05AF99DF803107E
:101AE000054601224B4601F09F00394640308DF8F3
:101AF0000300204600F0B4F9054301222046414688
:101B00004B4600F045F99DF80310054301224B4672
:101B100001F0FC00414602308DF80300204600F041
:101B20009FF905430021012220464B4600F030F981
:101B30009DF80310054301224B4641F001008DF84A
:101B400003000021204600F08BF90543012101220A
:101B500020464B4600F01CF99DF803100543012276
:101B60004B4601F0D000012127308DF803002046BC
:101B700000F076F945EA000708F1010526E040F299
:101B800028080DF10306C0F2010801222046414653
:101B90003346012500F0FCF89DF8031007460122AA
:101BA000334641F001008DF803002046414600F025
:101BB00057F90743012101222046334600F0E8F897
:101BC0009DF803600743042060F302060DF1030350
:101BD0000122204629468DF8036000F041F947EACA
:101BE000000501E04FF0FF35204600F091FA284350
:101BF00001B0BDE8F083D4D460B370B50446C068CA
:101C000058B304F1180265681F2101232046A84734
:101C100005460028E06818BF6FF00205F8B104F12E
:101C20001902D4F804C0202101232046E047E168CE
:101C3000002818BF6FF0020599B104F11A02D4F818
:101C400004C0212101232046E047002818BF6FF07F
:101C5000020008E06FF00A0070476FF0040565F0BD
:101C600004056FF00400054304F11B020021204627
:101C7000002600F005F82843267770BDD4D4D4D4CC
:101C80002DE9F04182B090460F4604460E0A8DF8C9
:101C9000056000F0E5F9002E064610D0206958B125
:101CA000A5680DF105027C2101232046A8470028E4
:101CB00018BF6FF0020001E06FF0040006432069D6
:101CC0008DF8067058B1A7680DF106027D21012339
:101CD0002046B847002818BF6FF0020001E06FF0FF
:101CE000040006430A2000F073FDE06850B1676805
:101CF0007E21012320464246B847002818BF6FF0D6
:101D0000020001E06FF0040046EA00050A2000F03E
:101D10005FFD9DF80500A8B1206900284FF0000084
:101D20008DF806000BD0A7680DF106027C21012377
:101D30002046B847002818BF6FF0020001E06FF09E
:101D400004000543217F207E012913D1216900F081
:101D5000EF008DF80700207681B1A7680DF107022A
:101D60001F2101232046B847217F002818BF6FF0AC
:101D7000020006E0C0F30010013802E06FF004003A
:101D8000012128430139217702B0BDE8F081D4D484
:101D90002DE9F04F85B00028029142D01646002A66
:101DA00042D0074640F21F0B40F221091D4607F1C1
:101DB0001A044FF0000AC0F2010BC0F20109DDF86D
:101DC00008801B30019007F11900049007F11800FA
:101DD000039008E0019800782870013E05F10105A4
:101DE00008F1010836D0D84506DCB8F1000FF1D073
:101DF000D8450398EFD008E0C8452046EBD0202016
:101E0000C0F2010080450498E5D00298C0030ED4CA
:101E10001FFA88F138462A46FFF732FF4AEA000ADD
:101E2000DBE76FF00A0A15E04FF0000A12E0F868ED
:101E3000864202D96FF004000AE07C685FFA88F1FC
:101E400038462A463346A047002818BF6FF00200E4
:101E50004AEA000A504605B0BDE8F08FD4D4D4D485
:101E60002DE9F04F89B0002800F0D6800446002A02
:101E700000F0D5801F268B46C0F201061746984613
:101E80004FF0000A04F11B00039004F11A000690C1
:101E900004F11900059004F11800049001F4803059
:101EA000079000910292019312E000BF00BF00BFB3
:101EB000C0F300100138217F28434AEA000A0139A3
:101EC0002177013F08F101080BF1010B00F0A08020
:101ED000B34509DCBBF1000F13D0B345049811D012
:101EE00013E000BF00BF00BF2120C0F20100834506
:101EF000069807D02020C0F201008345059801D044
:101F000003E0039898F80010017007980028D8D1D2
:101F10004FEA1B208DF82100204600F0A1F89DF823
:101F2000211081460029216912D061B1A56879216B
:101F3000012320460DF12102A847002818BF6FF0A9
:101F40000200216902E06FF00400002149EA000963
:101F50008DF822B0C1B1A5687A21012320460DF188
:101F60002202A8472169002818BF69F0020969B157
:101F7000A5687B21012320464246A8470546002844
:101F800018BF6FF0020503E069F004096FF0040563
:101F90000A2000F01DFC9DF8210098B1206900285E
:101FA0004FF000008DF822000FD0A56879210123A1
:101FB00020460DF12202A8470546002818BF6FF001
:101FC000020504E045EA090501E06FF00405217F00
:101FD000207E1F260129C0F201067FF469AF216926
:101FE00000F0EF008DF82300207671B1A6681F2164
:101FF000012320460DF12302B0471F260028C0F21E
:10200000010618BF6FF0020055E76FF0040052E7B9
:10201000029ADDE9001307E06FF00A0A19E04FF0B9
:10202000000A01F480300790079890B1206982423D
:1020300002D96FF004000AE01646A768C9B220462C
:102040001A463346B847002818BF6FF002004AEA24
:10205000000A504609B0BDE8F08FD4D4D4D4D4D40B
:1020600070B12DE9F04782B0017F0446007E51B186
:10207000C0F3001001380131217702B0BDE8F087CC
:102080006FF00A007047216940F010008DF80700DA
:10209000207699B3A7680DF107021F21012320467E
:1020A000B84720B16FF0020002B0BDE8F08700F041
:1020B00087FB44F2402905460E464FF000080DF11B
:1020C000070AC0F20F0900BFE068B8B167680021D5
:1020D000012320465246B8470028E3D100F070FBA8
:1020E000401BB141B9EB000078EB01000BD39DF828
:1020F00007000007E8D5217F0020BCE76FF004004F
:1021000002B0BDE8F0876FF0030002B0BDE8F087D1
:10211000D8B1027F017E012A1AD110B582B00269BE
:1021200001F0EF018DF807100176AAB1D0F808C0D0
:102130000DF107021F2101230446E0470146204616
:10214000002918BF6FF0020108E06FF00A00704725
:10215000C1F30011013904E06FF0040102B0BDE8E1
:102160001040027F013A027708467047D4D4D4D495
:1021700010B540F26064A821C2F20024204602F0AB
:10218000ABFE03202061606147F63F1040F208710A
:10219000C0F20020A061C2F20021E1614FF4806131
:1021A00021620021A1626162E16240F6083220668C
:1021B0004FF0100E47F68C40C2F200226266C4F85F
:1021C00068E02167E1666167BFF35F8FC0F20020BE
:1021D0000F3000BF00BF00BF10F8011904F8011B49
:1021E0000FF007C0BFF35F8F10BDD4D4D4D4D4D4C4
:1021F00070B547F6B03072B64EF62856C0F20020E1
:10220000CEF20006FDF768FF47F2CA60C0F2002078
:10221000FDF762FF7068002807D47068400010D591
:1022200047F2A970C0F2002003E047F28D70C0F2BF
:102230000020FDF751FF47F2CA60C0F20020FDF711
:102240004BFF47F2D670EFF30884C0F20020FDF791
:1022500043FF47F2CA65C0F200252846FDF73CFF60
:1022600047F283602168C0F20020FDF74DFF47F67A
:1022700072106168C0F20020FDF746FF47F205309A
:10228000A168C0F20020FDF73FFF47F2B440E168CB
:10229000C0F20020FDF738FF47F28F602169C0F2DD
:1022A0000020FDF731FF47F29B606169C0F200201A
:1022B000FDF72AFF47F2A760A169C0F20020FDF7F1
:1022C00023FF47F25F40E169C0F20020FDF71CFFE9
:1022D00047F2C040C0F20020FDF7FEFE2846FDF7A1
:1022E000FBFE47F2AC503168C0F20020FDF70CFF56
:1022F00047F6582056F8241CC0F20020FDF704FFD2
:1023000047F21B407168C0F20020FDF7FDFE47F266
:102310006B40C0F20020FDF7DFFE2846FDF7DCFE33
:1023200047F2F770EFF30581C0F20020FDF7ECFEF5
:10233000306880010BD547F60400C0F20020FDF79D
:10234000CBFE47F2CA60C0F20020FDF7C5FE306840
:10235000C0010BD547F6D000C0F20020FDF7BCFE4F
:1023600047F2CA60C0F20020FDF7B6FE3068C00236
:102370002AD547F66A20C0F20020FDF7ADFE47F2ED
:10238000CA60C0F20020FDF7A7FE47F6BE10214646
:10239000C0F20020FDF7B8FE47F67A30EFF30A816D
:1023A000C0F20020FDF7B0FE47F24A30EFF309819A
:1023B000C0F20020FDF7A8FE47F2BE50EFF30B81FC
:1023C000C0F20020FDF7A0FE306800030BD547F6F1
:1023D0007100C0F20020FDF77FFE47F2CA60C0F234
:1023E0000020FDF779FE306840030BD547F6DF305B
:1023F000C0F20020FDF770FE47F2CA60C0F2002074
:10240000FDF76AFE306880030BD547F62200C0F264
:102410000020FDF761FE47F2CA60C0F20020FDF720
:102420005BFE3068C0030BD547F64810C0F20020B1
:10243000FDF752FE47F2CA60C0F20020FDF74CFEE5
:102440003068800515D547F6CD10C0F20020FDF7A5
:1024500043FE47F2CA60C0F20020FDF73DFE30683F
:10246000000406D547F6F3103169C0F20020FDF7ED
:102470004BFE3068C0050BD547F2EF30C0F20020AC
:10248000FDF72AFE47F2CA60C0F20020FDF724FEE5
:1024900000BE70BDD4D4D4D480B540F220008021D9
:1024A000C2F2002002F018FD40F6183C47F64450F6
:1024B00040F61C32C2F2002CC0F20020C2F2002210
:1024C0000023CCF80030D0E900011360BDE8804063
:1024D00000F01EBBD4D4D4D40179042923D140F612
:1024E0001C3140F22003C2F200218068C2F20023B6
:1024F0000A6898540868013008600868802801D18B
:102500000020086040F618300968C2F20020026816
:10251000914208D10168013101600168802918BF2A
:10252000704700210160704747F64451C0F2002116
:1025300009684A6A1071486A816C8900FCD50020DC
:102540007047D4D4D4D4D4D42DE9F04182B040F62D
:10255000183640F61C37C2F20026C2F2002700BF30
:1025600030683968884201D100BFF9E730683968BE
:10257000884213D238683168884240F220013068BE
:10258000C2F200215FEA0F9401440DF107002246D8
:1025900002F0A6FC30682044306003E030683968FF
:1025A000884204D19DF8070002B0BDE8F081306890
:1025B0003968081A40F2200210F1800530685FEA9D
:1025C0000F94C0F180003168C2F200221144A04291
:1025D0001DD230680DF10708C0F18002404602F0BC
:1025E0007FFC002D6FF07F0050EA009031680022E0
:1025F0000844316832603A68824252EA3084A8EB7B
:10260000010040F220018030C2F20021BFE70DF14D
:102610000700224602F064FC3068204430603068D5
:102620008028BFD10020B7E700200024FEF738F94A
:10263000FFF79EFDFFF730FF47F23170C0F2002038
:1026400002F05FFD47F63420C0F2002002F059FD91
:1026500047F68F0047F60B21C0F20020C0F20021A0
:1026600002F03AFD00F0C8F847F6BC40C0F2002086
:10267000D0E9000101F054FC40F6203142F2217013
:10268000C2F2002142F25972C0F20020C0F20022D0
:102690007E23C1E9004040F63830C1E9022340F210
:1026A0005152C2F20020C0F20022C1E90434FEF708
:1026B000CBFA58B1024647F6112047F21C61C0F22E
:1026C0000020C0F20021FDF737FE05E040F638306B
:1026D000C2F20020FDF744FE47F6C840C0F20020D9
:1026E000046800BF00BF00BF4FF48571012220467F
:1026F00001F0C2FA4FF4FA704FF47A7101F0F4FF6E
:102700004FF485710022204601F0B6FA4FF4FA70BA
:102710004FF47A7101F0E8FFE6E7D4D4D4D4D4D4EE
:1027200010B582B01446682008229BB2009323465D
:1027300000F07AF8044650B147F2397047F22D4163
:10274000C0F20020C0F200212246FDF7F5FD204630
:1027500002B010BDD4D4D4D410B582B014466820D1
:1027600008229BB20093234600F01EF9044650B1A4
:1027700047F65F3047F67E11C0F20020C0F200211C
:102780002246FDF7D9FD204602B010BDD4D4D4D4E2
:10279000F0B581B00C460546FEF72AF8FEF710F9B1
:1027A0004FF47A72002306464FF47A7702F00EFA5D
:1027B00000FB17612860216001B0F0BDD4D4D4D4EF
:1027C00080B5FEF715F8BDE88040FEF7DDB8D4D43B
:1027D000012101F089BFD4D4022818BF704741F607
:1027E000A43048F24801C2F20020C0F2002101F0FA
:1027F0007BB9D4D4D4D4D4D410B547F60451C0F2A4
:10280000002107C912689047044647F6882047F61A
:10281000F001C0F20020C0F200212246FDF7ACFC1E
:10282000204610BDD4D4D4D42DE9F04782B09846C8
:102830000D460146082A18BF102A5DD141F6AC307A
:1028400047F60454C2F20020C0F2002440688842D7
:1028500006D0A3682068164601221B6998473246B5
:1028600041F69037082AC2F200274FF00000387076
:1028700001D1012204E0280A8DF807500222054602
:10288000D4F80890D4F800A00DF106010123D9F87E
:10289000086050468DF80650B04760B1064647F2D2
:1028A000593047F21131C0F20020C0F20021324607
:1028B000FDF742FD5FE04FF2C0250A9ECFF6FC75A2
:1028C0002C4600BF00BF00BF3878C00621D438783E
:1028D000C00743D10120012101F006FF0134F3D3E9
:1028E00047F2593047F24341C0F20020C0F20021C4
:1028F000FDF722FD14263EE047F2593047F2B3615E
:10290000C0F20020C0F200212A46FDF715FD062680
:1029100031E000203870D9F8044000235046414689
:102920003246A047A8B1064647F2593047F2DD616A
:10293000C0F20020C0F20021B9E700BF00BF00BF15
:102940003878C0071BD10120012101F0CDFE0135EF
:102950001ED238780007F3D500260CE047F2593034
:1029600047F2CD51C0F20020C0F20021FDF7E4FC97
:10297000387800F00106304602B0BDE8F08747F233
:10298000593047F6F931C0F20020C0F20021EDE7DE
:1029900047F2593047F6DE21C0F20020C0F2002194
:1029A000A6E7D4D4D4D4D4D42DE9F041A0B041F6D4
:1029B000AC371C46C2F200270E467F688742174696
:1029C0000AD0054647F60450C0F200200122816873
:1029D00000680B692946984741F69035DDF89880E4
:1029E000C2F20025082F4FF00000287009D18DF8A1
:1029F00000606E46B8F1800F06F1010012D37F220D
:102A000009E070BA6E46B8F17F0FADF8000006F12C
:102A1000020010D37E22214602F062FA47F60450EB
:102A2000802210E02146424602F05AFA47F604504E
:102A300008F1010207E02146424602F051FA47F64A
:102A4000045008F10202C0F20020816800688F681B
:102A500000233146B847044670B147F2FD4047F2C3
:102A60001131C0F20020C0F200212246FDF764FCC3
:102A7000204620B0BDE8F0814FF2C024CFF6FC74B0
:102A80002878C00614D42878C00713D1012001216A
:102A900001F02AFE0134F3D347F2FD4047F24341EF
:102AA000C0F20020C0F20021FDF746FC1424DFE74D
:102AB0000024DDE747F2FD4047F2CD51C0F200208F
:102AC000C0F20021FDF738FC287800F00104CFE7C0
:102AD00000790138C1B2022988BF704741F69032AF
:102AE000C00040F60101C2F20022C0B2C0F21001E3
:102AF00021FA00F01178084310707047D4D4D4D470
:102B000080B5FFF791FD002080BDD4D4D4D4D4D4B7
:102B10002DE9F0470D46097848F200020446C4F258
:102B2000350202EB01206062002020702562A2784D
:102B30006969A162A969C4E90B0122F00300D5F813
:102B40001C80411CA170697811B940F00200A0708E
:102B500095F90B204EF20019CEF20009012650091A
:102B600002F01F034CF2003AA97A09EB800006FA42
:102B700003F3C4F2000A4EF6185CC0F88030CEF2BF
:102B8000000CBFF34F8FBFF36F8F5AF82230002A2B
:102B900023F480334AF822304FEA01115AF82230E8
:102BA00004D409EB020383F8001304E002F00F03DE
:102BB000634403F8041C41F678410120C2F200216D
:102BC00041F8224095F90520530902F01F06B04054
:102BD0002E7909EB8303002AC3F880004FEA06131D
:102BE000BFF34F8FBFF36F8F5AF8220020F480306D
:102BF0004AF822005AF8220004D409EB020080F8B7
:102C0000003304E002F00F00604400F8043C41F897
:102C10002240012695F90720500902F01F0306FA09
:102C200003F3AE7909EB8000002AC0F880304FEA48
:102C30000613BFF34F8FBFF36F8F5AF8220020F4B3
:102C400080304AF822005AF8220004D409EB02002E
:102C500080F8003304E002F00F00604400F8043C08
:102C600041F82240012695F90920500902F01F037E
:102C700006FA03F32E7A09EB8000002AC0F88030B0
:102C80004FEA0613BFF34F8FBFF36F8F5AF822003E
:102C900020F480304AF822005AF8220004D409EBCC
:102CA000020080F8003304E002F00F00604400F8F6
:102CB000043C41F822400120EFF3108680F3108895
:102CC00028784FF0004121FA00F043F20401C4F2E9
:102CD00020010A6822EA0000086008681E2001211D
:102CE00001F002FD86F310884FF48061606A4FF4B2
:102CF00080428160E869E9786E78437802EA813140
:102D0000077866F30921DA03437B92B207F00307E1
:102D100003F00103114441EA4352636A42EA076245
:102D2000416802F580525A61027802F0FE03022BDC
:102D300007D14FF60471022ACFF6007108BF203187
:102D400000E00968626A11610C22017BAB78877828
:102D500062F39F014FF44072022B08BF4FF4807260
:102D6000002B07F00103676A18BF114341EA0371A2
:102D7000F960626A002191612A78092A04D8626A9E
:102D80000023C1F61F735362B0F80F20807B636A83
:102D900040EA022041F60172C0F21F02104018639F
:102DA000206AC4E90411C4E90611C569A160687C00
:102DB00050B34EF25400C4F20100017801F00F014B
:102DC000022901D801220BE0CA1E052A06D248F2C8
:102DD0009001C0F2002151F8226003E0083910226E
:102DE00002FA01F6407800F00F0001F02DFC41F6E8
:102DF000A042697CC2F20022B0FBF6F01268514397
:102E0000B1FBF0F00130A060606AB8F80A1010223F
:102E1000A181C9F607528266206A90F905104A0915
:102E200001F01F035AF8210020F480304AF82100F5
:102E30005AF8210009F5C0700121BFF35F8F01FA34
:102E400003F340F8223049F82230226A92F90B202D
:102E50005AF8223023F480334AF822305AF82230CC
:102E6000530902F01F02BFF35F8F01FA02F240F82C
:102E7000232049F82320226A92F907205AF82230A9
:102E800023F480334AF822305AF82230530902F0F2
:102E90001F02BFF35F8F01FA02F240F8232049F8C6
:102EA0002320226A92F909205AF8223023F4803331
:102EB0004AF822305AF82230530902F01F02BFF3B9
:102EC0005F8F914040F8231049F8231040F21141E0
:102ED000606AC0F201018160606A00BF00BF00BF8C
:102EE000017FC907FCD044F642110020C5F24331EE
:102EF0006160BDE8F087D4D403460020C3E9061220
:102F00007047D4D4D4D4D4D4D0F824C0DCF808305A
:102F100023F44013CCF80830D0F824C000BF00BF21
:102F2000DCF848305B00FBD5DCF8083023F01003F8
:102F3000CCF80830D0F824C09CF81C30DB06FBD459
:102F4000C0E904120020DCF8081041F01011CCF8A0
:102F500008107047D4D4D4D42DE9F0410446406A17
:102F60004FF6EE7288468668CFF6CE7232408260A7
:102F7000206A00222261C769A260787C50B34EF2B9
:102F80005400C4F20100017801F00F01022901D8B8
:102F900001220BE0CA1E052A06D248F29001C0F2B7
:102FA000002151F8225003E00839102202FA01F5FD
:102FB000407800F00F0001F047FB41F6A042797C19
:102FC000C2F20022B0FBF5F012685143B1FBF0F001
:102FD0000130A060606AD8F8001026F44012016148
:102FE0000020616A8A60BDE8F081D4D4D4D4D4D4FE
:102FF00000204FF0FF32C1E900227047D4D4D4D46E
:103000008A0703D40622C90715D116E0426A9368DD
:1030100023F440139360426A936C5B00FCD5936881
:1030200023F010039360426A137FDB06FCD4002276
:103030004261C90701D00022C26110467047D4D452
:10304000844681620020CCE90B327047D4D4D4D4BA
:1030500044F642124168C5F2433291426DD1B0B597
:10306000416A8A6822F440128A60416A8A6822F0C2
:1030700010028A60416A00BF0A7FD206FCD4016A4E
:103080004EF2801CCEF2000C054691F907104A0959
:1030900001F01F03012101FA03F34CF82230BFF3C2
:1030A0004F8FBFF36F8F026A92F90920530902F024
:1030B0001F0201FA02F24CF82320BFF34F8FBFF337
:1030C0006F8F426A936823F480339360026A92F9A7
:1030D0000520530902F01F0201FA02F24CF82320E6
:1030E000BFF34F8FBFF36F8F026A92F90B20530922
:1030F00002F01F0201FA02F24CF8232043F204020C
:10310000BFF34F8FBFF36F8FEFF3108481F31088FD
:10311000016AC4F220024FF0004C1E2009781368A7
:103120002CFA01F1194311601168012101F0DCFA58
:1031300084F3108800206860B0BD07207047D4D4A5
:103140000246C069086000200021D1617047D4D4D4
:1031500006207047D4D4D4D406207047D4D4D4D415
:10316000B0B584B04FF07041EFF3038001EB006025
:103170004CF200318015C4F20001425822F4803232
:10318000425041F678424158C2F200221458206A57
:1031900000690028606902D0E0B104B0B0BDC8B1D8
:1031A000A07800F003000228206905D10088616A38
:1031B00020F4DC40486002E0616A00780871A07881
:1031C000226900F003016069401A606111442161C5
:1031D0000028E2D1616A02228D68A06862F3155569
:1031E00010B101F0C1FA616A8D60A06A00284FF049
:1031F00000002061D1D0E06A20B190E82E008DE877
:103200002E0000E06846216A097801600021816093
:1032100080210171216BC160A16A8847E06A0028A2
:103220001CBF9DE82E002EC004B0B0BDD4D4D4D4B1
:1032300010B586B04FF07041EFF3038001EB0060F2
:103240004CF200318015C4F20001425822F4803261
:10325000425041F678424158C2F200221458A078F8
:1032600000F00302606A022A03D101686FF35F2154
:1032700000E00178E0690191D0B1A06901A901F0F5
:103280002FFEA078D4E9061200F003000144101AC2
:10329000C4E9061034D1A06A90B3E06AE0B1D0E985
:1032A00000C2D0E90231CDE90431CDE902C214E017
:1032B000A06A28B3E06A40B1D0E900CED0E9022389
:1032C000CDE90423CDE902CE00E002A8226A1278FB
:1032D00081600260042106E002A8216A0978016089
:1032E0000021816001210171216BC160A16A8847C1
:1032F000E06A28B102AC1ECC016042608360C46009
:1033000006B010BDD4D4D4D4B0B584B04FF0704161
:10331000EFF3038001EB006041F678428115C2F2C1
:1033200000224FF6EF7304165558CFF6CF73696A33
:103330008A681A408A60A96AE1B1E86A40B1D0E9B6
:1033400000C2D0E90231CDE90231CDE900C200E08E
:103350006846296A097801600021816002210171B3
:10336000296BC160A96A8847E86A00281CBF9DE8EC
:103370002E002EC04CF20030C4F2000050F8241091
:1033800021F4803140F8241050F8240004B0B0BD7E
:1033900070B584B04FF07041EFF3038001EB006033
:1033A00041F678428115C2F200225458A178636A2E
:1033B00001F00301022904D1D3F800C06FF35F2CA0
:1033C00001E093F800C09A6C2025082105EAD24557
:1033D0004FF0100E01EA12611EEA126229440A44FB
:1033E00003D0996C090458BF4032996E051641F01C
:1033F000C8519966A16AD9B1E06A40B1D0E900E349
:10340000D0E90216CDE90216CDE900E300E06846F6
:10341000216A0978C0F808C001600271216BC1609F
:10342000A16A8847E06A00281CBF9DE84E004EC094
:103430004CF20030C4F2000050F8251021F4803125
:1034400040F8251050F8250004B070BDD4D4D4D471
:10345000F0B581B00D46097848F200020446C4F286
:103460003502002602EB0120206125604FF000416B
:10347000A8686060287B2072E8696063286AE0635E
:10348000A6630120EFF3108780F31088287821FAD3
:1034900000F043F20401C4F220010A6822EA0000AD
:1034A000086008681E20012101F01EF987F31088CA
:1034B00020682169406A8E60216900BF00BF00BF9B
:1034C0000A7F0AB12FF005C0027948F21813C0F242
:1034D000070363F35F120A628179226940F20023D5
:1034E000C0F2040343EAC111516101784278837844
:1034F000C778120242EA0141226941EA035141EAD6
:10350000076104311161407921694FF0805242EA2C
:103510000060C86020691021C9F603518166082146
:103520002069C1664EF2001095F90F30697BCEF22A
:103530000000002B4FEA011103D4C21882F80013D7
:1035400007E003F00F024EF61857043ACEF20007D8
:10355000D15541F6784C4CF20031C2F2002CC4F245
:10356000000101224CF8234051F8237027F48037E2
:1035700041F8237051F823705F0903F01F03BFF374
:103580005F8F00EB87069A40C6F8802140F827201D
:1035900095F910306A7B002B4FEA021503D4C2184C
:1035A00082F8005307E003F00F024EF61857043A72
:1035B000CEF20007D5554CF82340012751F82320BF
:1035C00022F4803241F8232051F82310590903F0E6
:1035D0001F03BFF35F8F00EB810207FA03F3C2F80A
:1035E000803140F821300020C4E9060040F27D31EE
:1035F000C4E9080084F82D0084F82E0084F82F0018
:1036000084F83000E16001B0F0BDD4D4D4D4D4D477
:1036100080F82E30037AC0E90612012B08D1017917
:103620004FF48073A0F829304900013180F8281048
:10363000012180F82D100023C0E9082390F82A20EA
:1036400080F82C3080F82B2080F82F3080F8313033
:1036500080F8333090F82D20012A40F2110208BF83
:1036600080F831100169C0F230028A60016900BF40
:103670000A7F112AFCD190F83020CAB1002280F8CC
:10368000302090F82A20012A4FF0280252EA0292B4
:10369000825C62F0FF024A6090F82B1090F82C20B8
:1036A000013980F82B10511C80F82C100020704735
:1036B000086A20F4710000F5A2000862002070473B
:1036C00080F82E30037AC0E90612012B07D1017968
:1036D0004FF48073A0F82930490080F828100021A9
:1036E00080F82D10C0E9082190F82A2080F82C10CD
:1036F00080F82B2080F82F1080F8311080F83310DC
:1037000090F82D10012902D1012180F831100169B2
:103710001122C0F230028A60016900BF00BF00BF01
:103720000A7F112AFCD190F83020CAB1002280F81B
:10373000302090F82A20012A4FF0280252EA029203
:10374000825C62F0FF024A6090F82B1090F82C2007
:10375000013980F82B10511C80F82C100020704784
:10376000086A20F4710000F5A2000862002070478A
:103770000146006900228260086900BF00BF00BFE7
:10378000027F0AB12FF005C0026A42F470020262A1
:10379000002081F8300081F82E00CA69C1E90802D2
:1037A00091F82A2081F82C207047D4D4D4D4D4D4D2
:1037B0000346002059601A727047D4D4D4D4D4D4AC
:1037C000844641630020CCE90E327047D4D4D4D46F
:1037D00040F27D32C06890425FEA1F9200200A707A
:1037E0007047D4D4D4D4D4D410B5016900228A60EF
:1037F000016900BF00BF00BF0A7F0AB12FF005C0FA
:103800000A6A42F470020A62002180F8301080F8DF
:103810002E10C16090F82A2080F82C20C269C0E9DF
:1038200008120121EFF3108481F31088006843F23D
:103830000401C4F220014FF0004200780B6822FA24
:1038400000F01843086008681E20012100F04CFFBA
:1038500084F31088002010BD4FF07041EFF3038017
:1038600001EB00604CF200328015C4F20002835874
:1038700023F4803383508058EFF3038001EB006022
:1038800041F678418015C2F2002108580169CA6CDE
:10389000D2071CD190F82C2090F82A3093422AD1DC
:1038A000026A002A4FD090F82D30002B5DD090F89E
:1038B0003130012B66D1012A4FF0000280F831200F
:1038C0006DD00A6A22F400520A62016A64E090F83C
:1038D0002D20012A03D190F83120012A28D100227D
:1038E0000262012280F82F20086A20F4740000F59B
:1038F000A8000862704790F82D30022A08D1DA0734
:1039000006D0086A20F4720000F5A400086270472F
:1039100090F8282062F0FF024A6090F82B1090F88F
:103920002C20013980F82B10511C80F82C10704786
:1039300009688269436AD1540169D0E90823013AD0
:103940000133C0E908230A6A90F82E3022F470028D
:10395000012B06D142F4A4020A62012180F8301042
:10396000704742F4A80008627047D0F818C0436A54
:10397000013A1CF803C00133C0E908236CF0FF00D2
:103980004860704709688269436AD154D0E90812D7
:1039900001390132C0E908120129016904D10A6A1A
:1039A00042F400520A6201694FF0FF3048607047EC
:1039B00010B582B04FF07041EFF3038001EB00606F
:1039C00041F678418015C2F200210C580821206987
:1039D000C16694F82F0001280BD12069016A41F4D7
:1039E00070010162A06B38B3D0E90012CDE900127A
:1039F00023E094F82C0094F82A1081420ED1206A1A
:103A0000002841D194F82D1094F830202069012A23
:103A1000026A4BD122F47002026255E0D8B194F8E8
:103A20002D1002284FF000001BD1C9071CBF94F8CD
:103A3000290040F0010014E06846E16B01600121BB
:103A40000171616B8847A06B00281CBFDDE9001283
:103A5000C0E9001218E001294FF0280050EA009058
:103A6000205C216960F0FF000A6A22F470020A6299
:103A70002169486094F82B0094F82C10013884F8E0
:103A80002B00481C84F82C004FF07041EFF30380AA
:103A900001EB00604CF200318015C4F20001425885
:103AA00022F480324250405802B010BD42F47002FD
:103AB00002622069826822F011028260206900BFE0
:103AC000027F0AB12FF005C0A06B81F0030120B185
:103AD000D0E90023CDE9002300E06846E26B0260F4
:103AE000AEE7D4D4D4D4D4D480B545F25422C5F2B0
:103AF0004F020260084600F037F9002080BDD4D4A0
:103B00000146002000220A607047D4D4D4D4D4D413
:103B100080B5084600F028F9002080BDD4D4D4D464
:103B200070B586B001A8049003A814460D46ADF800
:103B3000081001920126ADF80C6000F07DF941F605
:103B40007440EFF31081C2F2002086F310880268FF
:103B50003AB940F614520023C4F2400213704023D5
:103B6000137002680132026081F31088E10340F6AD
:103B700000014FEA1522C4F2400101D4EBB20CE07F
:103B800001EB8216EBB256F8235025F4803546F847
:103B9000235024F4803546F8235001EB8211012292
:103BA00041F82340EFF3108182F31088026812B1CC
:103BB0000268013A0260006838B940F614500022E9
:103BC000C4F2400002708022027081F3108800204D
:103BD00006B070BDD4D4D4D404200023C4F2400075
:103BE000CFF6FF7340EAD100C9B220F01B00006895
:103BF00043EA104020FA01F1002001F001011170A8
:103C00007047D4D4D4D4D4D410B56FF00100CBB263
:103C100000EAD11001210C2401FA03FE0101C4F2D3
:103C2000400444EA001C4FF48030012A625800FA34
:103C300003F004D122EA000040EA0E0203E022EA87
:103C40000E0141EA00020020CCF8002010BDD4D4BF
:103C50006FF03F00CBB200EA910040F6000100EBAC
:103C60008300C4F2400141580020C1F340011170AB
:103C70007047D4D4D4D4D4D410B5CBB2012098405A
:103C80006FF0010E84B20EEAD110002A40F2080251
:103C90004FF4803C4FEA0011C4F240024FF00000A4
:103CA00008BF0CFA03F4545010BDD4D4D4D4D4D4E7
:103CB00080B56FF0010040F2000C00EAD110C4F2B0
:103CC000400C010103EA020E62EA03025CF8010003
:103CD0004EEA000E002002EA0E024CF8012080BDE0
:103CE0006FF0010000EAD11004210001C4F240018C
:103CF00009580020090C11807047D4D4D4D4D4D4EE
:103D00006FF0010003EA020C00EAD11023EA02017D
:103D10000C230201C4F2400300204CEA01419950F7
:103D20007047D4D4D4D4D4D46FF00100042300EA73
:103D3000D110C4F24003010100205958118070478E
:103D40006FF0010003EA020C00EAD11023EA02013D
:103D500008230201C4F2400300204CEA01419950BB
:103D60007047D4D4D4D4D4D470B5044600F064F8E9
:103D700041F6744CEFF31081C2F2002C012080F365
:103D80001088DCF8000038B940F614500022C4F264
:103D90004000027040220270DCF800000130CCF8D4
:103DA000000081F31088208830B340F6000E002117
:103DB000C4F2400E08E000BF0EEB8010013140F865
:103DC00022302088814217D2606800EBC10250F88F
:103DD00031309288D8034FEA1220D2B2ECD50EEBE4
:103DE000801555F8226026F4803645F8226023F4C9
:103DF000803645F82260DFE70120EFF3108180F381
:103E00001088DCF8000020B1DCF800000138CCF8A4
:103E10000000DCF8000010B181F3108870BD40F69E
:103E200014500022C4F2400002708022027081F31C
:103E3000108870BDD4D4D4D42DE9F04F81B004469D
:103E40000088002867D04EF64C4B0025C4F2010BC9
:103E50004FF0010A04E000BF2088013585425AD2A4
:103E600048F2F80642F240080027C0F20026C4F2E9
:103E700020080CE000BF00BF88F80000C820012126
:103E800000F032FC013708F10208032FE4D060682B
:103E900036F8021B00EBC50082888A42F2D1006826
:103EA0009BF8001000F0B8500AFA07F9B0F1807FD3
:103EB00009EA010018D158B9012000F0C9FC9BF8AB
:103EC000000040EA09008BF80000012000F094FC9B
:103ED00098F900000028D5D498F8000040F0800040
:103EE000CAE700BF00BF00BF58B1012000F0B0FC1E
:103EF0009BF8000020EA09008BF80000012000F088
:103F00007BFC98F90000B0F1FF3FBBDC98F80000A3
:103F100000F07F00B0E701B0BDE8F08FD4D4D4D476
:103F2000F0B591F902304CF2003CC4F2000C037180
:103F30004FF0000E3C245CF823704CF823E08B68B3
:103F40008360CB68C3600B78C325C0F24005437122
:103F500004EA930402461C4465F31F2449F6005505
:103F6000CFF6FF7504F805E00B794879CE78C001EB
:103F700040EA03103043605592F904004CF8207079
:103F800092F9040000280CD44EF2004341F6784721
:103F90004978CEF20003C2F200270901C15447F864
:103FA000202044F255310020C0F249011160F0BDDB
:103FB00090F904004CF20031C4F200014EF2001CF2
:103FC000CEF2000C51F8202022F4803241F820205B
:103FD00051F82010410900F01F0001220CEB810371
:103FE00002FA00F0BFF35F8FC3F880014CF82100A4
:103FF00000207047D4D4D4D490F904004EF280133A
:10400000CEF20003012200F01F01400902FA01F183
:1040100043F820100020BFF34F8FBFF36F8F70471E
:1040200003460020C3E902127047D4D4D4D4D4D4B8
:10403000014690F90400002818D44EF2801C00F0CC
:104040001F024009CEF2000C012303FA02F24CF8E1
:104050002020BFF34F8FBFF36F8F91F9040041F61B
:104060007842C2F20022002342F8203000200022D1
:104070000A607047D4D4D4D470B582B04FF0704188
:10408000EFF3038001EB006141F678428815C2F23C
:1040900000223C234CF200341058C4F200040D16E8
:1040A000427903EA92031A44C323C0F2400363F344
:1040B0001F2249F60053CFF6FF73D25C02F00306CD
:1040C000032E07D054F8251021F4803144F8251030
:1040D00054F82510816829B14279C068009068467B
:1040E00001928847032E07D154F8250020F4803030
:1040F00044F8250054F8250002B070BDD4D4D4D4BF
:104100004EF22401C4F201018878098801F00F02FF
:10411000A2F1080103293BD8DFE801F0022C101EB0
:1041200040F2A041C2F2002151F820004AF6AB2132
:10413000CAF6AA21A0FB0101480830E040F2A041E4
:10414000C2F2002151F820004AF6AB21CAF6AA219A
:10415000A0FB0101C80822E040F2A041C2F2002108
:1041600051F820004AF6AB21CAF6AA21A0FB0101B2
:10417000080914E040F2A041C2F2002151F82000E9
:104180004AF6AB21CAF6AA21A0FB0101880806E085
:1041900040F2A041C2F2002151F82000D04041F687
:1041A000A041C2F2002108607047D4D4D4D4D4D442
:1041B0002DE9F0470FF268404EF2FA3840F2A0467F
:1041C000C4F201084AF2015190ED001FC2F200262C
:1041D0000FF25C40CFF6FF714EF255050231A8F8A0
:1041E000001086ED001F06F12003C4F2010590EDDA
:1041F000001F44F255304CF20021C1F2DE3041F68E
:10420000004286ED041FC0F6EB31C0F64E6207C3D4
:1042100015F82F0C35F8311C01F00F02A2F108013E
:1042200003292BD8DFE801F002200C164AF6AB2157
:1042300056F82000CAF6AA21A0FB0101480820E098
:104240004AF6AB2156F82000CAF6AA21A0FB0101CC
:10425000C80816E04AF6AB2156F82000CAF6AA2193
:10426000A0FB010108090CE04AF6AB2156F820003A
:10427000CAF6AA21A0FB0101880802E056F8200036
:10428000D04041F6A04A4EF60044C2F2002AC4F2E1
:1042900001040A214EF60147CAF800004FF65060AB
:1042A000CFF6FF70C4F201072154092085F84D00B4
:1042B000207818B93878800700F0AC81207850B9A0
:1042C00001202070C820012100F00EFA00BF00BFBD
:1042D00020780128FCD10020387020704AF2015962
:1042E000002005F8230C00BF15F8190C0007FBD5BA
:1042F0004EF6145049F20251C5F8731040F2514184
:1043000025F8071C002205F80B2C4FF60211C5F802
:10431000571040F2415125F8091CCEF20000BFF3BE
:104320004F8FBFF36F8F03684EF2000123F4003309
:104330000360C0F83C22CEF20101BFF34F8FBFF300
:104340006F8F0A6822F440520A60BFF34F8FBFF3A9
:104350006F8F15F8412C02F0F802013205F8412C5C
:1043600015F8412CD206FBD40A6842F440520A6088
:10437000BFF34F8FBFF36F8F0168890312D4BFF370
:104380004F8FBFF36F8F0021C0F83C12BFF34F8FE8
:10439000BFF36F8F016841F400310160BFF34F8FAD
:1043A000BFF36F8F002005F82B0C00BF00BF00BFCC
:1043B00015F8190C8006FBD54CF200040020C4F25D
:1043C000130420702078207820786068FA2807D0BD
:1043D000FA20C1F6006000BF60606168FA29FBD175
:1043E000A0687D2808D07D20CEF2001000BF00BF5D
:1043F000A060A1687D29FBD143F23240C3F22320A3
:1044000045F8350C42F2201025F8310C052005F84E
:104410002F0C15F82F0C35F8311C01F00F02A2F10A
:10442000080103292BD8DFE801F002200C164AF618
:10443000AB2156F82000CAF6AA21A0FB01014808CA
:1044400020E04AF6AB2156F82000CAF6AA21A0FBCC
:104450000101C80816E04AF6AB2156F82000CAF65A
:10446000AA21A0FB010108090CE04AF6AB2156F88D
:104470002000CAF6AA21A0FB0101880802E056F834
:104480002000D040CAF800001E200121012700F0C2
:104490002BF960686FF39F20652828BF277015F8F7
:1044A0002F0C35F8311C01F00F02A2F1080103298D
:1044B0002BD8DFE801F002200C164AF6AB2156F8A3
:1044C0002000CAF6AA21A0FB0101480820E04AF614
:1044D000AB2156F82000CAF6AA21A0FB0101C808AA
:1044E00016E04AF6AB2156F82000CAF6AA21A0FB36
:1044F000010108090CE04AF6AB2156F82000CAF683
:10450000AA21A0FB0101880802E056F82000D04053
:1045100042F20001CAF80000C4F200010120A1F833
:104520000090BFF35F8F08724FF42540BFF35F8F99
:10453000088095F8850040F0400085F8850000BFB0
:1045400095F98500B0F1FF3FFADC052085F87F0082
:10455000C72085F8850095F8850000F0BF0085F834
:10456000850000BF00BF00BF95F985000028FBD47F
:10457000012005F8020CE87F40F04000E87700BF1A
:1045800095F91F00B0F1FF3FFADC0620E8754A20DC
:10459000E8770A20E87700BF95F91F000028FBD4D0
:1045A000287840F04000287095F90000B0F1FF3FF6
:1045B000FADC012005F8010CCA202870287800F0E8
:1045C000BF00287000BF00BF95F900000028FBD491
:1045D00095F8220040F0400085F8220000BF00BF9F
:1045E00095F92200B0F1FF3FFADC0220A876CA203C
:1045F00085F8220095F8220000F0BF0085F822001F
:1046000095F922000028FBD44FF42540A8F80000BB
:10461000BDE8F0874FF47A7000F012F85EE600BF54
:10462000006CDC0200127A000080000000366E018F
:104630000080000000CA9A3B0046C3230084D717BD
:104640007047D4D4D4D4D4D440F2A041C2F20021D3
:1046500051F820007047D4D4B0B542F22404C820E9
:10466000C4F2200401210025257100F03DF82570D9
:10467000207808B12FF005C0207840F002002070AB
:1046800020788007FCD4002004F8020C00BF00BF93
:1046900014F8020C08B12FF005C84FF0030E0020EB
:1046A00004F11C0100BF00BF11F8102002F07F02CE
:1046B00001F8102000BF00BF11F91020002AFBD420
:1046C00001300FF00FC8012000F0C2F84EF64C4147
:1046D0000120C4F2010100220A70BDE8B04000F0E0
:1046E0008BB8D4D4D4D4D4D441F6A04241F2002320
:1046F000C2F20022C0F27A03484312689A420FD3F2
:1047000044F23F21C0F20F0111444DF68362C4F21E
:104710001B32A1FB0212910CA0FB0101C9B11DE0EB
:104720004CF60021C3F69A31B1FBF2F148F638128B
:10473000C0F24102904205D24FF47A725043B0FB6E
:10474000F1F006E0B0FBF1F0904207D24FF47A713D
:104750004843002808BF704700F006B84FF0FF300C
:1047600000F002B8D4D4D4D401380028FCD170476A
:10477000F0B581B04CF2201541F62047C4F2000597
:104780000024C2F2002755F8200C296801EA00062F
:1047900006E000BF00BF00BF01340437152C09D06C
:1047A00026FA04F0C007F7D039680029F4D0204673
:1047B0008847F1E745F8106C28683042FCD101B019
:1047C000F0BDD4D4D4D4D4D480B54FF0070E4CF27D
:1047D000003048F25401C4F20000C0F2002100BFD2
:1047E00031F8022B002A18BF026004300FF009C014
:1047F00080BDD4D4D4D4D4D4EFF31081012282F379
:10480000108841F69442C2F2002232F8103023B1EF
:1048100032F81030013B22F8103032F8102012B17B
:1048200081F3108870474EF2FA3248F2603CC4F2CD
:104830000102C0F2002C13883CF8100043F4254319
:1048400023EA0000108081F310887047D4D4D4D4B8
:1048500010B5EFF31081012282F3108841F69442E3
:10486000C2F2002232F8103083B94EF2FA3E48F21A
:10487000603CC4F2010EC0F2002CBEF800403CF8CF
:104880001030234343F42543AEF8003032F81030A3
:10489000013322F8103081F3108810BDD4D4D4D461
:1048A00000F00AF8FEF72CF9FEE7D4D4D4D4D4D41F
:1048B00000BE7047D4D4D4D42DE9F04381B04EF675
:1048C000085840F20120CEF20008C0F20E004EF26D
:1048D0000004C8F80C00CEF20104BFF34F8FBFF301
:1048E0006F8F58F8081CC1F3035001285FEA1F922C
:1048F00011F00F0F5FEA0F911142216811D10228C8
:104900000FD241F0040020604EF20800BFF34F8F39
:10491000CEF20000BFF36F8F016841F48031016077
:1049200002E021F004002060BFF34F8FBFF36F8FD0
:104930004FF4700040F20001C8F880000020C0F27F
:104940000021C8F800100025FDF746FFFFF730FCF6
:104950004EF2FA304EF6B022C4F20100C4F2010267
:104960004AF20251018015704FF425410180012067
:10497000FDF732FF40F2A000C2F2002080F30A8867
:104980002068800724D5D8F80000B0F1007F1FD13F
:1049900020694FF40071C0F3C300626901FA00F3AB
:1049A000C2F3C30081400020DA08CB080146074665
:1049B00042F007C000BF00BFE7E802010FF005C0EA
:1049C0004FF0005243F005C0E2E802010FF005C0CD
:1049D00048F23414C0F20024276897B160683E465C
:1049E000051D05E000BF00BF013E05F10C0508D024
:1049F00068790028F8D155E90101091A00F06CFA2C
:104A0000F2E7D4F80890B9F1000F13D0E0684E46F1
:104A100000F1080504E000BF013E05F1100509D0D2
:104A200068790028F8D155E902022968121A00F0C5
:104A300057FAF1E7FFF764FBFFF70EFE0320FFF7DD
:104A400007FF4FF00E0E40F63050C4F24000002138
:104A500020F8041B0FF005C04EF210150320C4F21D
:104A60000105FFF7C9FE0320FFF7F2FE44F2040040
:104A70000021C4F22000016041608160C160032018
:104A8000FFF7BAFED5F8C802800714D42878A0B181
:104A90000120FFF7DDFE00BF95F9000010F1410F86
:104AA000FADC0020287000BF28783F28FCD80120BD
:104AB000FFF7A2FE01E0D5F8C802D5F8C80240070A
:104AC00015D42879A8B10120FFF7C2FE00BF00BFAE
:104AD00095F9040010F1410FFADC0020287100BFA5
:104AE00028793F28FCD80120FFF786FE01E0D5F8A1
:104AF000C8020220FDF770FEA7B160684FF480760F
:104B0000051D05E000BF00BF013F05F10C0509D000
:104B10006879B6EB002FF7D155E90101091A00F0C9
:104B2000DBF9F1E7B9F1000F16D0E0684FF48075BA
:104B300000F1080405E000BFB9F1010904F1100417
:104B40000AD06079B5EB002FF6D154E90202216852
:104B5000121A00F0C5F9EFE741F6A844C2F20024AA
:104B6000204600F080FA204600F095FABFF34F8F00
:104B7000BFF36F8F0020C8F8480248F2007048F277
:104B80000471C0F20020C0F20021BFF34F8F081A59
:104B9000BFF36F8F8410012C0BDB48F20075C0F25D
:104BA000002500BF00BF00BF55F8040B8047013C43
:104BB000FAD1FFF709FE002001B0BDE8F04300F094
:104BC00003B8D4D4D4D4D4D47047D4D440B584B0AA
:104BD00002AE009600F004F8029A039B04B040BDB8
:104BE000B0B584B00D4602A980EAE57000911C467C
:104BF00082EAE37285EAE571B0EBE57061EBE5719D
:104C000083EAE373B2EBE47263EBE47300F017F84A
:104C1000DDE90223DDF820C083EAE57382EAE5726C
:104C2000B2EBE57263EBE573CCE90023E21782EAAD
:104C3000E57250405140801A914104B0B0BD2DE959
:104C4000F04F099D844681B1C2B14BB3B1FA81F7EF
:104C5000B3FA83F6F71B202F4FD3002D18BFC5E9F9
:104C600000C100200021BDE8F08FCBB30021002D52
:104C700064D00020C5E900C1BDE8F08F002B60D0F2
:104C8000002861D05F1E3B4200F08580B1FA81F7B9
:104C9000B3FA83F6F71B1F2FDFD207F1010C3CE0BC
:104CA000571E3A425DD0B1FA81F7B2FA82F6F71B8D
:104CB00007F1210CBCF1200F24D0BCF11F0F79D8D3
:104CC000CCF1200620FA0CF721FA0CF901FA06F5CE
:104CD000B0403D434FF0000ABCF1010F2CD07CE006
:104CE000B0FBF2FC002D1EBF0CFB12000021C5E939
:104CF000000100216046BDE8F08F07F1010CBCF116
:104D0000200F0AD14FF000094FF0200C0D464FF054
:104D1000000ABCF1010F0FD05FE0C7F11F0720FAB6
:104D20000CF621FA0CF901FA07F5B84035434FF0BB
:104D3000000ABCF1010F50D100248FE00020BDE833
:104D4000F08F6046BDE8F08FB1FBF3FC002D1EBF75
:104D50000CFB13100021C5E9001000216046BDE8DE
:104D6000F08F002D1EBF00230740C5E90073012A04
:104D70000ED092FAA2F24F00B2FA82F202F01F03B2
:104D8000D140D8401F23934307FA03F343EA000CB2
:104D90006046BDE8F08F002D1CBF07EA0100C5E9A1
:104DA00000C093FAA3F0B0FA80F021FA00F00021DD
:104DB000BDE8F08FACF12007CCF140044FF00009C2
:104DC00020FA07F601FA04F52E4300FA04FA21FA54
:104DD00007F53046BCF1010FAED02CF001070126DB
:104DE000023F4FF0000B06EB570E4FEA490444EA2E
:104DF000D5746D0045EAD0754000E743E943891852
:104E000043EB0708AF1A64EB0306B8F1000F56EA4C
:104E1000448457EA4585640044EAD5746D0045EA48
:104E2000D07540EADA70AE1A6FEA050164EB030749
:104E300089184FEA40006FEA0401594157EA448952
:104E400056EA4585CC0F4BEA4A010027A34640EAC3
:104E5000D170490041EAD87A0FF039C85FEACC71C5
:104E60001ED06F004FEA490147EAD07741EAD57179
:104E7000B7EB020C4FEA400061EB030EFD43521901
:104E80006FEA010653EB060240EADA705EEA4189F6
:104E90005CEA4785D10F44EA4A0200270C46924655
:104EA0004FEADA7141EA400009994FEA4A020029C3
:104EB00018BFC1E9005940EA070122F00100204370
:104EC000BDE8F08F40B584B002AE0096FFF7B7FEA4
:104ED000029A039B04B040BD0A46002100F076B858
:104EE000844641EA000313F0030349D1403A23D337
:104EF0000B6803604B6843608B688360CB68C3605A
:104F00000B6903614B6943618B698361CB69C36141
:104F10000B6A03624B6A43628B6A8362CB6AC36229
:104F20000B6B03634B6B43638B6B8363CB6BC36311
:104F300040304031403ADBD230320BD30B68036053
:104F40004B6843608B688360CB68C360103010315E
:104F5000103AF3D20C3205D351F8043B40F8043B2D
:104F6000043AF9D2043208D0D2071CBF11F8013B31
:104F700000F8013B01D30B8803806046704700BFF7
:104F8000082A13D38B07B1D010F00303AED0C3F1BE
:104F90000403D21ADB071CBF11F8013B00F8013BE8
:104FA000A4D331F8023B20F8023B9FE7043AD9D35F
:104FB000013A11F8013B00F8013BF9D20B7803707C
:104FC0004B7843708B7883706046704770B4840769
:104FD00046D0541E002A41D0CDB2034602E0621EE4
:104FE000E4B3144603F8015B9A07F8D1032C2ED9D9
:104FF000CDB245EA05250F2C45EA054519D92646C7
:1050000003F11002103E0F2E42F8105C42F80C5CC7
:1050100042F8085C42F8045C02F11002F2D8A4F1F4
:10502000100222F00F0204F00F041032032C13447C
:105030000DD91E462246121F032A46F8045BFAD8F1
:10504000221F22F00302121D134404F003042CB1AA
:10505000C9B21C4403F8011BA342FBD170BC7047CA
:1050600014460346C2E710B540F2740140F2000254
:10507000C0F20021C0F200020446FFF731FF40F207
:10508000000040F20001C0F20000C0F20001204424
:10509000FFF722FF10BD40F20801C0F20001401AE4
:1050A00041F6A441C2F2002108607047B0B58A7889
:1050B00092070DD5C4B24A6820460D469047B0F11C
:1050C000FF3F01DD2046B0BDA87840F00400A87085
:1050D0004FF0FF342046B0BD83B080B581B0844628
:1050E00003A80EC047F6A040C0F20020006803AA43
:1050F0006146009200F028F801B0BDE8804003B09E
:10510000704770B5054647F6A040C0F2002004681D
:10511000A078800714D56668287828B12146B04762
:1051200001350028F8D507E00A202146B047B0F144
:10513000FF3FC4BF002070BDA07840F00400A07005
:105140004FF0FF3070BDD4D42DE9F04F99B08146B7
:1051500080781892800740F1B58518980027D9F813
:1051600004808A46179011A8821D0C92421E0530B9
:1051700010920E900D91514611F8010B252803D085
:105180008A4638B900F0A0BD9AF801500AF1020A27
:10519000252D06D14946C04701370028EBD500F040
:1051A0008BBD002200244FF0000C4FF0000B04E0F8
:1051B0001AF8015B002D00F02D811FFA8BF61F2ECF
:1051C00020D8A5F1200010281ED8DFE810F0150027
:1051D0001D001D0018001D001D001D0014001D00F5
:1051E0001D001D0011001D00CC001D001D00C90088
:1051F0004BF0020B00E0DBE74BF0040BD8E74BF081
:10520000100BD5E77F2E0DD8A5F13000092840D826
:10521000402E80F0A0800CEB8C014BF0200B00EBBB
:10522000410CC5E7A5F14C002E2800F2F480DFE820
:1052300010F08F00F200F200F200F200F200F20033
:10524000F200F200F200F200F200F200F200F200CE
:10525000F200F200F200F200F200F200F200F200BE
:10526000F200F200F200F200F200A400F2008F005F
:10527000F2009D00F200F200F200F200F200F200F3
:10528000F2002F00F200F200F200F200F2002F0014
:105290008EE7A5F12400562800F2BD80DFE810F06B
:1052A0008600BB00BB00BB00BB00BB007400BB00A2
:1052B000BB00BB00A400BB00BB00BB00BB00BB002D
:1052C000BB00BB00BB00BB00BB00BB00BB00BB0006
:1052D000BB00BB00BB00BB00BB00BB00BB00BB00F6
:1052E000BB00BB00BB00BB00BB00BB00BB00BB00E6
:1052F0005800BB00BB00BB00BB00BB00BB00BB0039
:10530000BB00BB00BB00BB00BB00BB00BB00BB00C5
:10531000BB00BB00BB00BB00BB00BB00BB00BB00B5
:10532000BB00BB00BB00BB006D00BB005800BB0056
:105330006600BB00BB00BB00BB00BB00BB00BB00EA
:105340005700BB00BB00BB00BB00BB0057002FE7F2
:105350004BF4207B2CE704EB840100EB410427E7AE
:105360004BF0010B24E74BF0080B21E70BF080001A
:105370004BEA800040F0800B1AE70BF480704BEA98
:10538000400040F4807B13E7002A7FF411AF1798A8
:105390003F2E00F104011791006832D8B0F1FF3FB1
:1053A00032DD4BF0200B0022844601E712B318983F
:1053B000402E179017A90D986546CDF83C90C14630
:1053C00090465CEA348200F083FC1798402E4246F7
:1053D000C84600F1040117910068DDF83C9050EADE
:1053E000358C54EA3084E3E63F2E00F26D844BF0B6
:1053F000400BDDE6624600244FF0000C4FF0000B3E
:10540000D6E600220446D3E64BF0280BC0F1000C90
:105410000022CDE60025CDF83CC03AB1189817A976
:1054200017900D9800F054FCDDF83CC0002C24EAE5
:10543000E47E45F0200048BF2BF0400B61281CBFE4
:10544000A0F16501022925D81799612801F107010A
:1054500021F0070101F108021792A0EB050291ED7E
:10546000000B0A9244D15FEA4B6058BF4FF0FF3EF9
:1054700011A8D2B27146764600F0C8FD451C4BF427
:10548000C05B4FF0700C4FF0010EE8B28642D8BFFF
:10549000461E5CE0A5F16301122900F20A8108238F
:1054A0000026DFE811F035011300060106010601B0
:1054B000060113000601060106010601060161014D
:1054C0005D01060106010D0106012E011FFA8BF197
:1054D0005FEA0B6000F10C811798021D17920068BB
:1054E000CA0540F10C81890554BF00B240B206E103
:1054F0005FEA4B6158BF4FF0060E662809D0652859
:105500000FD14BF4805B76460EF101010023652438
:1055100011E04BF4005B01226624112176467346AC
:105520000AE05FEA0E61A0F10204714676464FF090
:10553000000308BF0121002211A8C9B2112928BF08
:10554000112100F093FF05464FF0020EA446119B77
:105550009DF84800A3F10A0111F1130F38BF4FF075
:10556000020EA3F16401089111F1C70F38BF4FF08B
:10557000030E0F9CC1074FD15FEA8B716FD41FFAE6
:105580008BF1202202EAC10211F0040F5FEA1F91A1
:1055900010F00C0F45D11BF4405F0493CDE90621B8
:1055A00040F02B82012E4FF0010056EA80801FFA56
:1055B0008BF12A0600F06D810E9BEAB2134413F8BA
:1055C000013C302B40F006826B1E1A0621D02E467D
:1055D0000E9DDAB2154415F8015C302D40F0F981CA
:1055E000B31E1A0615D00E9DDAB2154415F8015CEB
:1055F000302D40F0EE81F31E1A060AD00E9DDAB26D
:10560000154415F8015C302D40F0E381351F2A0662
:10561000D2D100250022DDE12D22002110F00C0F57
:10562000B9D000294FF0030050EA1090844212DDF7
:105630000A9E0D465FEA0B7117D4041B9346202087
:105640004946C047002800F1378301370134F6D3BB
:1056500000245A460AE000240A9E49B10FE02B229A
:10566000002110F00C0FDCD195E7241A294631B93E
:1056700010464946C047002800F11E8301379DF8B7
:10568000480047F6F321C0F20021000747F24560C9
:10569000C0F2002050EA51852878002800F0F982F5
:1056A000801B4946C0B2C047013701350028F3D5F9
:1056B00002E3782840F09880C5F188032E4653E035
:1056C0001798011D1791006847F65B41C0F2002151
:1056D000002851EA00855FEA4B6058BF4FF0FF3E5B
:1056E0002846714600F06AFEDDF83CC0064617E029
:1056F0001798890500F18680011D17910068C11770
:1057000088E04FF6EF700BEA000B0A2375262BE0BA
:105710001798012611AD011D179100688DF84400FE
:105720005FEA0B700ED4B4450CD92020494664467C
:10573000C047002800F1C082A4F1010C0137B44534
:10574000F3D8B4463744ACEB0604002E00F0A18237
:1057500015F8010B4946C047013E0028F5D5ABE2DC
:105760004BF0100B102378264FF6F9700BEA00026D
:105770005FEA0B600B960AD41798011D1791066813
:10578000D1050AD5900554BFB6B2F6B205E0179818
:1057900091050AD4011D17910668002156EA0100FF
:1057A00008BF2BF0160278D10FE00730154620F025
:1057B00007000246416852F8086B17922A4656EADB
:1057C000010008BF2BF0160267D100265FEA4B608C
:1057D00062D50021012C60DA4FF6E9700BEA000176
:1057E0000B9D480637D467E025204946C04700286E
:1057F00000F1628228464946C047023700287FF5FB
:10580000BAAC59E2073020F007010A46496852F85D
:10581000080B179200295A46CDF82CE048BF42F4F5
:10582000806250EA010322D080EAE17081EAE173EC
:10583000B0EBE17063EBE17111AC22F010060A23CA
:10584000224600F06DFB3146061BDDF83CC0DDF85A
:105850002CE0480630D54FF6FE70764500EA010090
:105860002BDA002D08BF21F01100714626E05FEA17
:105870004B604FF0000040F19E810021012CDBDAEB
:105880004FF6EE70DDF83CC000EA0B00DDF82CE0CE
:1058900014E0002500229EE0002111AC304616469F
:1058A0007546224600F03CFB3146AE46DDF83CC072
:1058B000061B0B9D4806CED4084631461FFA80FBD6
:1058C000C0060AD440F206401BEA000F5FEA0F90C0
:1058D00044185FEA0B7009D526E0002D4FF0010057
:1058E00050EA009044185FEA0B701DD45FEACB7059
:1058F00008D0B646644505DA06EB0C00A0EB040EB2
:10590000644611E064450FDACDF82CE020204946CA
:10591000C047002800F1D0810F9801340137A04220
:10592000F4D1DDF82CE004465FEACB601BD440F2F2
:1059300006401BEA000F26D05FEA8B7075464FF0D9
:105940002B0058BF20205FEA4B51494648BF2D200D
:10595000C047002800F1B0810137AE46F3467546D6
:10596000B64514DC1CE030204946F346C047002809
:1059700000F1A28135B328464946C047002800F10E
:105980009B810237DE46F3467546B64508DD30207A
:105990004946C047002800F18F81013DB542F6DC41
:1059A0000F985E45A0EB040456EACB800744002E16
:1059B00000F06F8110984946805DC047013E002885
:1059C000F5D579E10137DE46F3467546B645DEDCAE
:1059D000E6E71D46049BC90652EA508113F1040F05
:1059E00008DB834206DA4BF4005B8B4204DAD843CF
:1059F0000E1802E04E1E00E00026A3F57A711FFA91
:105A00008BF4099424055FEA8B400395CDE9011CD2
:105A100005940CD411F5FA6F70464FF0050198BF4C
:105A20000420002C58BF032101EB000C03E023EA03
:105A3000E37000F1010CDDF824B0002E079A4FF05E
:105A400000050B96CBF3001182F0010251EA06909B
:105A50000F9983186344CB1A53EAC5841BF0090FCE
:105A600011D10A9E84B1604475461044441A202026
:105A70004946C047002800F11F8101370134F6D3A1
:105A80000024AE4600E00A9E0798CDF800E000280A
:105A9000069805D14946C047002800F10D8101371D
:105AA000059800280ED530204946C047002800F14F
:105AB0000381C6F178004946C0B2C047002800F112
:105AC000FB800237099800070AD44CB127443020E4
:105AD0004946C047002800F1EF80013CF7D100247F
