:020000040200F8
:1000000000040022D11D0002A91B0002E11D000214
:10001000E11D0002E11D0002E11D0002E11D0002E0
:10002000000000000000000000000000E11D0002D0
:10003000E11D000200000000E11D0002E11D0002C0
:04004000810E00022B
:1000480080B586B042F2C841C0F200210591086827
:10005800496800F0DDFB0598006800F0F9FBFFE750
:1000680042F24440C0F20020019000684FF48571CC
:100078000291012200F008F94FF4FA7004904FF44D
:100088007A71039101F014FD019802990068002229
:1000980000F0FAF80399049801F00AFDE0E7D4D4D7
:1000A80080B582B001900198007938BBFFE742F231
:1000B8004440C0F20020006840F605410DF10302FB
:1000C80000F0D2F89DF8030001280BD1FFE742F2B7
:1000D8004440C0F20020006840F60F41002200F0C2
:1000E800D3F80AE042F24440C0F20020006840F62B
:1000F8000F41012200F0C8F8FFE7FFE702B080BD1A
:1001080080B582B08DF807009DF8070008B9FFE7B1
:10011800FFE79DF8070002280BD1FFE740F22C40CB
:10012800C2F2002042F2C471C0F2002100F010F8BF
:10013800FFE702B080BDD4D480B582B00020009023
:100148000190FFF77DFF009802B080BDD4D4D4D4CD
:1001580080B584B00390029103980190019945F20B
:100168005420C5F24F000860029800F07DF9002085
:1001780004B080BDD4D4D4D482B00190019800904A
:1001880000990020086002B07047D4D4D4D4D4D4E5
:1001980080B582B001900091009800F065F90020C8
:1001A80002B080BDD4D4D4D480B588B00790ADF85F
:1001B8001A100592BDF81A00ADF8040005980090D1
:1001C8000120ADF808006846039002A800F078F90D
:1001D80000F036FABDF81A00059900F05DFA00F053
:1001E80093FA002008B080BD85B00490ADF80E10D9
:1001F80002929DF80F100020C4F2400040EA41101E
:10020800009000984068000CADF806009DF80E10AC
:1002180001208840ADF80400BDF80600C043BDF8D1
:100228000410084204D1FFE702990120087003E096
:10023800029900200870FFE7002005B07047D4D469
:1002480080B582B00190ADF802108DF80120BDF89C
:10025800021021F0FF00C9B29DF8012000F0A0FAB9
:10026800002002B080BDD4D480B584B00390ADF82E
:100278000A100192BDF80A0000F07AFA0199087094
:10028800002004B080BDD4D486B00590ADF812101B
:100298008DF811200020ADF80E00ADF80C009DF887
:1002A80013000002ADF80A009DF81200ADF808002E
:1002B800BDF8081001208840ADF806009DF811002F
:1002C80028B9FFE7BDF80600ADF80C0004E0BDF85A
:1002D8000600ADF80E00FFE79DF80B100020C4F2F1
:1002E800400040EA41100090BDF80C10BDF80E0027
:1002F80040EA014000998860002006B07047D4D4D5
:1003080088B00790ADF81A10ADF81820ADF816307F
:100318009DF81B100020C4F2400040EA41100090F4
:10032800009800680490BDF81800BDF81610084041
:100338000390BDF81810BDF8160088430290049881
:100348000190039901980843019002990198884304
:100358000190019800990860002008B07047D4D433
:1003680084B00390ADF80A1001929DF80B1000209C
:10037800C4F2400040EA4110009000984068000C28
:1003880001990880002004B07047D4D4D4D4D4D4C0
:1003980085B00490ADF80E10ADF80C20ADF80A3019
:1003A800BDF80C00BDF80A100840ADF80800BDF80B
:1003B8000C10BDF80A008843ADF806009DF80F1030
:1003C8000020C4F2400040EA41100090BDF8061039
:1003D800BDF8080040EA01400099C860002005B057
:1003E8007047D4D4D4D4D4D484B00390ADF80A10D0
:1003F80001929DF80B100020C4F2400040EA411021
:1004080000900098406801990880002004B0704767
:1004180085B00490ADF80E10ADF80C20ADF80A3098
:10042800BDF80C00BDF80A100840ADF80800BDF88A
:100438000C10BDF80A008843ADF806009DF80F10AF
:100448000020C4F2400040EA41100090BDF80610B8
:10045800BDF8080040EA014000998860002005B016
:100468007047D4D4D4D4D4D480B584B0039003983E
:1004780000F026F80398019000F0E2F80020ADF8AB
:100488000A00FFE7BDF80A0001990988884212DAD4
:10049800FFE701984168BDF80A2001EBC200808897
:1004A80051F8321000F0F8F8FFE7BDF80A00013003
:1004B800ADF80A00E6E700F027F904B080BDD4D40F
:1004C80080B588B007904EF20000C4F20100049095
:1004D80042F20000C4F22000039000200690FFE7DB
:1004E800069807990988884280F0A780FFE70020CE
:1004F8000590FFE70598022800F29A80FFE7079821
:100508004068069900EBC1008088059A42F6080108
:10051800C0F2002131F81210884240F08480FFE7D1
:1005280007984068069950F8310000F0F85002909A
:100538000298B0F1807F05D0FFE70298B0F1106F04
:1005480038D1FFE7049890F84C0C059A01219140A6
:100558000840000688B9FFE70120019001F0F4FB8C
:100568000198059900FA01F3049A92F84C1C194372
:1005780082F84C1C01F0A0FB00E0FFE70398059906
:1005880000EB410090F840100020B0EBD11F0FD1D4
:10059800FFE70398059900EB410191F8400040F00E
:1005A800800081F84000C820012101F081FA00E0B4
:1005B800FFE737E0049890F84C0C059A0121914028
:1005C8000840C0B2012811DBFFE70120009001F0CC
:1005D800BBFB0098059900FA01F3049A92F84C1CA9
:1005E800994382F84C1C01F067FB00E0FFE7039891
:1005F800059900EB410090F84000C00901280FDB85
:10060800FFE70398059900EB410191F8400000F0DD
:100618007F0081F84000C820012101F049FA00E07C
:10062800FFE7FFE7FFE7FFE705980130059061E77F
:10063800FFE706980130069052E708B080BDD4D491
:1006480084B000200090EFF3108001900198009092
:1006580001200390039880F3108840F2A840C2F26A
:100668000020006848B9FFE740F61451C4F2400181
:100678000020087040200870FFE740F2A841C2F24D
:10068800002108680130086000980290029880F301
:10069800108804B07047D4D482B0ADF80600009139
:1006A8009DF80200C007E8B1FFE7BDF806206FF02B
:1006B8003F0101EA9200D2B200EB820340F6000249
:1006C800C4F24002985820F480309850009820F4E2
:1006D8008030BDF8063001EA9301DBB201EB8301FB
:1006E8008850FFE70098BDF806206FF03F0101EA47
:1006F8009201D2B201EB820140F60002C4F240023C
:10070800885002B07047D4D484B000200090EFF332
:10071800108001900198009001200390039880F3C5
:10072800108840F2A840C2F20020006840B1FFE7FC
:1007380040F2A841C2F20021086801380860FFE7CA
:1007480040F2A840C2F20020006848B9FFE740F62E
:100758001451C4F240010020087080200870FFE79F
:1007680000980290029880F3108804B07047D4D49F
:1007780081B0ADF80200BDF802106FF03F0000EA4A
:100788009100C9B200EB810040F60001C4F24001BB
:100798004058C0F3400001B07047D4D4D4D4D4D466
:1007A80085B0ADF81200ADF810108DF80F209DF847
:1007B80013100020C4F2400040EA41100290BDF836
:1007C80010100120884001900298C06800909DF8A0
:1007D8000F0001280AD1FFE70199009820EA01409B
:1007E8000090019900980843009009E00199009849
:1007F800884300900199009840EA01400090FFE783
:1008080000980299C86005B07047D4D4D4D4D4D421
:1008180080B584B003900291039801900298017CFE
:10082800012088400199C8600198029900F088F970
:100838000198029900F0B0F9019945F25400C0F20C
:1008480047000860002004B080BDD4D4D4D4D4D4E8
:1008580082B001900198009000988168C068486053
:10086800002002B07047D4D482B001900198009063
:1008780000988168C0688860002002B07047D4D4AE
:1008880082B001900198009000988168C068C860A3
:10089800002002B07047D4D480B588B0079007987C
:1008A800069006984068C06905904FF00040049093
:1008B80003900290059841680498084304900598AD
:1008C80081680398084303900598C1680298084313
:1008D8000290069800F07CFA0190039806998968BE
:1008E8004861029806998968886104980699896818
:1008F8000861059800690699896848620598406901
:100908000699896888620698019941F4254100F0A2
:1009180067FA002008B080BD80B584B003900398C2
:100928000290029800F054FA0190029800F060FAE0
:100938000298019941F4254100F052FA002004B0D0
:1009480080BDD4D4D4D4D4D480B586B005900491D5
:1009580005980390039800F03BFA02900498013838
:100968000190019803998968886603988068C06A2D
:10097800C00748B9FFE70198039989684866039852
:100988008168C068C860FFE70398029941F425416F
:1009980000F026FA002006B080BDD4D4D4D4D4D434
:1009A80083B0029001910092062003B07047D4D41E
:1009B80080B58AB0099008918DF81F200998069093
:1009C800069800F005FA05900898013803900698F3
:1009D80080684C3004909DF81F00032803D1FFE77E
:1009E800042002900EE09DF81F00042803D1FFE7C1
:1009F8000320019003E09DF81F000190FFE7019894
:100A08000290FFE703980499029A41F82200069899
:100A1800059941F4254100F0E3F900200AB080BDB2
:100A280080B586B005900491059803900398806876
:100A3800406E0290029801300190019804998860F4
:100A4800039800F0EDF904994860049901200870B2
:100A5800002006B080BDD4D483B0029001910298E2
:100A6800009000988068C06A00F001000199087140
:100A780000988068806C01990860002003B0704776
:100A880085B0049003910292019304980090039812
:100A98000099486102980099C86101980099886195
:100AA800002005B07047D4D480B586B0059005986D
:100AB800049000200090039004984068C069029058
:100AC8000498406890F9120000F0BEF9029890F975
:100AD800280000F0B9F9029890F9290000F0B4F95B
:100AE800029890F92A0000F0AFF9029890F92B00CB
:100AF80000F0AAF9029890F92C0000F0A5F90298E4
:100B080090F92D0000F0A0F9009804990860049865
:100B180000F05EF901460098019104998A68C96855
:100B280091600499896848630498019941F42541C2
:100B380000F056F9039806B080BDD4D4D4D4D4D4E8
:100B480083B00290019101980299486002990120AE
:100B5800087402988089800420B1FFE70299002078
:100B68000874FFE70198017C42F20000C4F23200E9
:100B780000EB012000900098029988600198406974
:100B880002994861019880690299C8610299002018
:100B9800886103B07047D4D480B58EB00A900991AB
:100BA8000998C069089043F61071C4F23201012017
:100BB800086000210791EFF310810B910B990791C1
:100BC8000D900D9880F310880998007C042808D3AC
:100BD800FFE70998007C092803D8FFE70420009064
:100BE80003E00998007C0090FFE70098C0F11F001F
:100BF800012101FA00F343F21000C4F22000026858
:100C08009A43026000681E2000F052FF07980C907B
:100C18000C9880F310880A9881684FF42540086082
:100C28000A9881680020C8620A998968C8630A9985
:100C3800896888640998007A06900698C005059026
:100C4800099840680138049009980078032805D16C
:100C5800FFE7059840F480300590FFE705980A996A
:100C68008968C8620A9800F0C3F8089880690A99E8
:100C78008968C8610898C0690A99896808620498EF
:100C88000A998968886604980A99896848660020DC
:100C980003900898006D02900A9800F0F9F90998F5
:100CA800017C01208840800428B1FFE70A98816808
:100CB80000204864FFE70A988168002088630A9941
:100CC8008968C1F888000898006D78B9FFE7089826
:100CD80090F82010029840EA41300290089890F865
:100CE8002110029840EA41700290FFE74FF4AA00F1
:100CF8000190089890F8480020B1FFE74FF4A00051
:100D08000190FFE701980A998968086402980A998E
:100D180089684863089991F8540091F855100001C2
:100D280040EA41120A988168C86A1043C862039869
:100D380040F003000A9989680863039840F00100AD
:100D48000A99896808630A988168C068C8600A981F
:100D58004AF2015100F044F8099991F91200497CCE
:100D68000A9A00F0D5F9089991F9280091F822100B
:100D78000A9A00F0CDF9089991F9290091F8231001
:100D88000A9A00F0C5F9089991F92A0091F82410F7
:100D98000A9A00F0BDF9089991F92B0091F82510ED
:100DA8000A9A00F0B5F9089991F92C0091F82610E3
:100DB8000A9A00F0ADF9089991F92D0091F82710D9
:100DC8000A9A00F0A5F90EB080BDD4D4D4D4D4D4F6
:100DD80081B00090002001B07047D4D4D4D4D4D4CA
:100DE80082B00190009102B07047D4D4D4D4D4D446
:100DF80081B00090009881684FF000400861009928
:100E0800896848610099896888610098816800202C
:100E1800486200998968886201B07047D4D4D4D4F4
:100E280080B584B0039003988068C06AC0F3C3504B
:100E38008DF80B00002000F01BFA019001989DF836
:100E48000B10C84004B080BD80B582B08DF8070093
:100E58009DF9070000280AD4FFE79DF9070000F074
:100E6800EBF99DF90700002100F0C2F9FFE702B095
:100E780080BDD4D4D4D4D4D480B584B000F06CF878
:100E88008DF80F009DF90F0000F072F89DF90F0022
:100E980000F086F8029002984068C06901900298B4
:100EA8004068007801284AD1FFE70298FFF790FFD1
:100EB800009002988168C068886002988168002064
:100EC800886402998968C8640299896808650298E3
:100ED800009941F42541FFF783FF9DF90F0000F0C9
:100EE8006FF8019890F84800C00730B1FFE7019803
:100EF80090F9280000F084F8FFE7019890F848007E
:100F08008007002806D5FFE7019890F9290000F02E
:100F180077F8FFE7019890F92A0000F071F8019836
:100F280090F92B0000F06CF8019890F92C0000F073
:100F380067F8019890F92D0000F062F8FFE7029831
:100F4800406930B1FFE702980022114600F068F8C6
:100F5800FFE704B080BDD4D482B0EFF303800190E2
:100F6800019800900098103840B202B07047D4D46D
:100F780081B08DF803009DF903204CF20030C4F2D3
:100F8800000050F8221021F4803140F822109DF919
:100F9800031050F8210001B07047D4D4D4D4D4D46D
:100FA80081B08DF803009DF9031040F2AC40C2F205
:100FB800002050F8210001B07047D4D4D4D4D4D440
:100FC80080B582B08DF807009DF90700FFF7D0FFC4
:100FD800BFF35F8F9DF907000090009800F01F0194
:100FE800012088409DF907104A094EF28021CEF26F
:100FF800000141F8220002B080BDD4D4D4D4D4D4A6
:1010080080B582B08DF807009DF90700002805D447
:10101800FFE79DF90700FFF7D3FFFFE702B080BDA8
:1010280080B588B007908DF81B10059207988069E5
:101038000190019818B9FFE702A8019007E0019A0A
:10104800106851689268049203910290FFE79DF836
:101058001B00019908710598019988600798C06973
:10106800019908600798416901988847079880693D
:1010780048B1FFE7079881690298039A049B8B603F
:101088004A600860FFE708B080BDD4D4D4D4D4D473
:1010980087B0069006984068C069059000200490C3
:1010A800FFE70498052831D8FFE7059890F848002D
:1010B8000499C840C00720B3FFE70599049801EBDD
:1010C8008001096B01390291069989684C310391B5
:1010D800032803D1FFE7042001900CE004980428BA
:1010E80003D1FFE70320009002E004980090FFE797
:1010F80000980190FFE702980399019A41F82200AD
:10110800FFE7FFE7049801300490CAE707B070478B
:1011180080B584B08DF80F00029101929DF90F00FF
:10112800002807D4FFE79DF90F000299019A00F003
:1011380003F8FFE704B080BD80B584B08DF80F00D8
:10114800029101929DF90F000299019A00F008F8A6
:101158009DF90F0000F018F804B080BDD4D4D4D4A1
:1011680080B584B08DF80F00029101929DF90F00AF
:10117800029900F019F89DF90F00019900F038F86C
:1011880004B080BDD4D4D4D480B582B08DF8070023
:101198009DF90700FFF714FF9DF9070000F038F8E4
:1011A80002B080BDD4D4D4D482B08DF807000091A9
:1011B8009DF9070000280AD4FFE7009800019DF96F
:1011C80007104EF20042CEF2000288540BE000985D
:1011D80000019DF8071001F00F014EF61452CEF2EF
:1011E80000028854FFE702B07047D4D4D4D4D4D4D2
:1011F80082B08DF80700009100989DF9072040F211
:10120800AC41C2F2002141F8220002B07047D4D4A8
:1012180082B08DF807009DF907000090009901F051
:101228001F02012090404A094EF20011CEF200013F
:1012380041F8220002B0704782B08DF807009DF98E
:1012480007000090009800F01F01012088409DF9D8
:1012580007104A094EF28011CEF2000141F822002F
:10126800BFF34F8FBFF36F8F02B07047D4D4D4D47D
:1012780087B08DF817009DF81700FF2803D1FFE706
:101288000020069066E04EF22000C4F201000068DB
:10129800049004989DF81710C84000F00F000390C0
:1012A8009DF81700202807D1FFE740F2BC40C2F2A2
:1012B8000020006806904DE04EF22400C4F20100C0
:1012C800008800F00F000290029803990843000775
:1012D800002834D5FFE79DF808000007002807D547
:1012E800FFE7029800F0070103208840019004E01E
:1012F8000299012088400190FFE7019802909DF82B
:101308000C000007002807D5FFE7039800F0070145
:1013180003208840009004E0039901208840009051
:10132800FFE70098039040F2BC40C2F2002000683A
:10133800029948430399B0FBF1F006900AE040F2A5
:10134800BC40C2F200200068029988400399C84056
:101358000690FFE7069807B07047D4D4D4D4D4D405
:1013680082B04EF22600C4F20100007801904EF2DD
:101378002400C4F20100008800F00F008DF803007B
:101388009DF803008DF802009DF80200082814D18A
:10139800FFE7019940F20040C2F2002050F8210016
:1013A8004AF6AB21CAF6AA21A0FB0110400840F278
:1013B800BC41C2F2002108605DE09DF802000928E6
:1013C80014D1FFE7019940F20040C2F2002050F822
:1013D80021004AF6AB21CAF6AA21A0FB0110800819
:1013E80040F2BC41C2F20021086043E09DF80200CF
:1013F8000A2814D1FFE7019940F20040C2F2002008
:1014080050F821004AF6AB21CAF6AA21A0FB011028
:10141800C00840F2BC41C2F20021086029E09DF8F2
:1014280002000B2814D1FFE7019940F20040C2F2F4
:10143800002050F821004AF6AB21CAF6AA21A0FBE9
:101448000110000940F2BC41C2F2002108600FE01F
:10145800019940F20040C2F2002050F821009DF8A6
:101468000210C84040F2BC41C2F200210860FFE708
:10147800FFE7FFE7FFE702B07047D4D4D4D4D4D451
:101488004CF20000C4F213000021017001780178C9
:1014980000787047D4D4D4D481B04CF20400C4F29C
:1014A800130000686FF39F2000900098652807D309
:1014B800FFE74CF20001C4F2130101200870FFE7B6
:1014C80001B07047D4D4D4D483B00290019102986B
:1014D800B0F5004F03D8FFE7002000900EE0029817
:1014E80044F23F21C0F20F0108444DF68361C4F273
:1014F8001B31A0FB0110800C0090FFE7FFE700986C
:101508004CF20401C4F213010968884209D0FFE7CC
:10151800009840F0F0504CF20401C4F21301086046
:10152800EDE70198B0F5004F03D8FFE700200090E1
:101538000EE0019844F23F21C0F20F0108444DF635
:101548008361C4F21B31A0FB0110800C0090FFE7FF
:10155800FFE700984CF20801C4F2130109688842B9
:1015680009D0FFE7009840F061404CF20801C4F24E
:1015780013010860EDE703B07047D4D4D4D4D4D4B1
:1015880080B582B04EF2FA31C4F201014AF203503A
:10159800088000F01DF94EF65021C4F201010A201E
:1015A80008704EF2A201C4F201010920087000F08F
:1015B8004BF94EF23201C4F2010100200870FFE736
:1015C8004EF23C00C4F201000078C008C00708B918
:1015D800FFE7F5E74EF2C801C4F2010149F20250F3
:1015E80008604EF24E01C4F2010140F251400880F9
:1015F8004EF24A01C4F20101002008704EF2AC021A
:10160800C4F201024FF6021111604EF24C02C4F20C
:10161800010240F241511180BFF34F8FBFF36F8F2A
:101628004EF61452CEF20002116821F40031116016
:101638004EF65071CEF200010860BFF34F8FBFF332
:101648006F8F4EF20001CEF20101086820F440507D
:101658000860BFF34F8FBFF36F8F4EF21401C4F2CF
:101668000101087800F0F80001300870FFE74EF239
:101678001400C4F2010000780009C00708B1FFE7B0
:10168800F5E74EF20001CEF20101086840F440503F
:101698000860BFF34F8FBFF36F8F4EF61450CEF232
:1016A800000000688003002801D5FFE71AE0BFF3B7
:1016B8004F8FBFF36F8F4EF65071CEF200010020AE
:1016C8000860BFF34F8FBFF36F8F4EF61451CEF201
:1016D8000001086840F400300860BFF34F8FBFF383
:1016E8006F8FFFE74EF22A01C4F201010020087053
:1016F800FFE74EF23C00C4F2010000784009C00741
:1017080008B9FFE7F5E700F0DFF84EF2DA00C4F2B7
:1017180001004EF2D401C4F201010522072300F0B2
:101728001BF94EF25301C4F20101012008704EF278
:101738007401C4F20101087840F040000870FFE726
:101748004EF27400C4F2010001780120B0EBD11F01
:1017580001D0FFE7F4E74EF26C01C4F20101062064
:1017680008704EF27401C4F201014A2008700A2080
:101778000870FFE74EF27400C4F2010001780020FF
:10178800B0EBD11F01D0FFE7F4E74EF25500C4F2E9
:1017980001004EF25401C4F2010101220A2301930F
:1017A80000F0DAF8019B4EF27700C4F201004EF225
:1017B8006F01C4F20101022200F0CEF84EF2FA31B4
:1017C800C4F201014FF42540088002B080BDD4D492
:1017D80080B540F20041C2F2002146F60040C0F256
:1017E800DC20086041F20020C0F27A0048604FF423
:1017F8000040886043F20062C0F26E12CA6008615D
:101808004CF60020C3F69A30486148F20040C1F215
:10181800D770C86144F25530C1F2DE30086244F234
:101828000060C2F2C33088614CF20020C0F6EB3091
:10183800486241F60040C0F64E608862FFF790FDAE
:1018480080BDD4D4D4D4D4D480B54EF60040C4F2EC
:101858000100007840B9FFE74EF60140C4F20100EC
:101868000078800738B3FFE74EF60040C4F2010065
:101878000078A0B9FFE74EF60040C4F2010001214C
:101888000170C82000F014F9FFE74EF60040C4F2DA
:1018980001000078012801D0FFE7F6E7FFE74EF6E0
:1018A8000141C4F20101002008704EF60041C4F263
:1018B8000101087004E04FF47A7000F07DF8FFE74A
:1018C80080BDD4D4D4D4D4D480B582B0FFF7D8FDA9
:1018D8004BF28020C0F6E66045F64011C0F2737105
:1018E800FFF7F2FD4EF22001C4F2010143F232404B
:1018F800C3F2232008604EF22401C4F2010142F22F
:10190800201008804EF22601C4F20101052008705B
:10191800FFF726FD1E200121019100F0C9F8FFF70D
:10192800BBFDFFF71DFD019842F20001C4F2000162
:101938004AF201520A80BFF35F8F42F20802C4F2F2
:1019480000021070BFF35F8F4FF42540088002B08B
:1019580080BDD4D4D4D4D4D483B0029001918DF86E
:1019680003208DF802300299087840F04000087092
:10197800FFE7029801780120B0EBD11F01D0FFE703
:10198800F7E79DF80300019908709DF8020040F000
:10199800C000029908700299087800F0BF0008702A
:1019A800FFE7029801780020B0EBD11F01D0FFE7D4
:1019B800F7E703B07047D4D481B0009001B0704706
:1019C80080B584B042F22801C4F2200100200290C0
:1019D8000870C820012100F06BF8029842F2240137
:1019E800C4F220010870FFE742F22400C4F220008C
:1019F800007808B1FFE7F7E742F22401C4F22001BA
:101A0800087840F002000870FFE742F22400C4F2B0
:101A1800200000784008C00708B1FFE7F5E742F268
:101A28002201C4F2200100200870FFE742F22200E0
:101A3800C4F22000007808B1FFE7F7E700208DF82E
:101A48000F00FFE79DF80F00022822D8FFE79DF856
:101A58000F2042F24001C4F2200111F8120000F0F8
:101A68007F0001F81200FFE79DF80F1042F24000D6
:101A7800C4F2200010F811100020B0EBD11F01D0E3
:101A8800FFE7F1E7FFE79DF80F0001308DF80F0041
:101A9800D8E70120019000F057F901984EF64C4222
:101AA800C4F201020021117000F006F904B080BDF3
:101AB80080B58CB00B900A91002008900B980A9979
:101AC8004843079040F2BC40C2F2002000680990E9
:101AD800099841F20021C0F27A0188421FD3FFE73A
:101AE800099844F23F21C0F20F0108444DF6836182
:101AF800C4F21B31A0FB0110800C069007980699D0
:101B0800A0FB010105910490059820B1FFE74FF073
:101B1800FF30089002E004980890FFE731E0099947
:101B28004CF60020C3F69A30B0FBF1F0029007980B
:101B38004FF47A71A0FB010101910090019840B91E
:101B4800FFE700980299B0FBF1F003900398089022
:101B580016E007980299B0FBF1F0079007984FF448
:101B68007A71A0FB010101910090019818B9FFE773
:101B78000098089003E04FF0FF300890FFE7FFE778
:101B8800FFE7089820B1FFE7089800F005F8FFE79D
:101B98000CB080BDD4D4D4D401380028FCD170470F
:101BA80080B584B04CF20010C4F2000000680390C5
:101BB8004CF22010C4F2000000680399084002901B
:101BC80000208DF80700FFE79DF80700142813DCB4
:101BD800FFE702989DF80710C840C00728B1FFE743
:101BE8009DF8070000F01CF8FFE7FFE79DF80700E5
:101BF80001308DF80700E7E702984CF21011C4F2A3
:101C080000010860FFE74CF22010C4F200000068F1
:101C18000299084201D0FFE7F5E704B080BDD4D4AB
:101C280080B582B08DF807009DF8071040F2544047
:101C3800C2F2002050F8210050B1FFE79DF80700DC
:101C480040F25441C2F2002151F820108847FFE7C2
:101C580002B080BDD4D4D4D482B060200190019861
:101C6800022803D3FFE701200190FFE7002000903E
:101C7800FFE70098019988421CD2FFE7009942F2D9
:101C8800D070C0F2002030F8110070B1FFE7009A60
:101C980042F2D070C0F2002030F812004CF200314D
:101CA800C4F2000141F82200FFE7FFE70098013085
:101CB8000090DEE702B0704785B08DF8070000207D
:101CC8000090EFF310800290029800900120049099
:101CD800049880F310889DF8071040F2B040C2F2D3
:101CE800002030F8110060B1FFE79DF8072040F2AE
:101CF800B041C2F2002131F81200013821F8120077
:101D0800FFE79DF8071040F2B040C2F2002030F81B
:101D1800110090B9FFE74EF2FA31C4F201010888C8
:101D280040F425409DF8073042F69022C0F2002288
:101D380032F8132090430880FFE700980390039837
:101D480080F3108805B0704785B08DF80700002033
:101D58000090EFF310800290029800900120049008
:101D6800049880F310889DF8071040F2B040C2F242
:101D7800002030F8110090B9FFE74EF2FA31C4F2B2
:101D8800010108889DF8073042F69022C0F200222F
:101D980032F81320104340F425400880FFE79DF8EF
:101DA800072040F2B041C2F2002131F812000130A0
:101DB80021F8120000980390039880F3108805B06A
:101DC8007047D4D4D4D4D4D480B500F009F8FEF741
:101DD800B3F9FFE7FEE7D4D400BE7047D4D4D4D417
:101DE80080B590B04EF61451CEF2000140F20120B9
:101DF800C0F20E000860BFF34F8FBFF36F8F4EF62F
:101E08000050CEF2000000680E900E98C0F3035008
:101E18000D900E9800F00F000C900D98012803D13A
:101E2800FFE70C9820B9FFE70D9802280DD3FFE7CC
:101E38004EF20001CEF20101086820F004000860AB
:101E4800BFF34F8FBFF36F8F18E04EF20001CEF251
:101E58000101086840F004000860BFF34F8FBFF32A
:101E68006F8F4EF20801CEF20001086840F480300E
:101E78000860BFF34F8FBFF36F8FFFE74EF68851AF
:101E8800CEF200014FF47000086040F20000C0F28A
:101E980000204EF60851CEF200010860002006909E
:101EA800FEF72EF9FFF76CFB06984EF2FA31C4F2F2
:101EB80001014AF202520A804EF6B022C4F201022F
:101EC80010704FF4254008800120FEF719F940F200
:101ED8000000C2F200200F900F9880F30A884EF29B
:101EE8000000CEF2010000688007002837D5FFE720
:101EF8004EF60850CEF200000068B0F1007F2ED1F7
:101F0800FFE74EF21000CEF20100006800F0780002
:101F1800092101EBD002012000FA02F2D2080B924B
:101F28004EF21402CEF20102126802F0780201EBBE
:101F3800D2018840C0080A900B98694608600023BF
:101F4800059318461A4600F00FF9059B0A9869464A
:101F580008604FF000501A4600F006F9FFE700202D
:101F6800049000F019F9FFF7FBF9FFF729FD0320AA
:101F7800FFF7EAFE04980990FFE709980D280DD8A5
:101F8800FFE7099A40F63051C4F24001002021F8D9
:101F98002200FFE7099801300990EEE7032003903B
:101FA800FFF78AFE0398FFF7CFFE039844F2040276
:101FB800C4F220020021116044F20802C4F2200297
:101FC800116044F20C02C4F22002116044F21002C3
:101FD800C4F220021160FFF76FFE4EF2D830C4F24F
:101FE800010000684008C00760B1FFE74EF2D83032
:101FF800C4F2010000684008C00770B3FFE7012081
:1020080058BBFFE74EF21010C4F20100007820B36D
:10201800FFE70120FFF798FEFFE74EF21010C4F229
:102028000100007800F0C000802801D0FFE7F4E745
:102038004EF21011C4F2010100200870FFE74EF2C1
:102048001010C4F20100007810F0C00F01D0FFE7B3
:10205800F5E70120FFF730FEFFE74EF2D830C4F273
:10206800010000688008C00760B1FFE74EF2D83071
:10207800C4F2010000688008C00770B3FFE70120C0
:1020880058BBFFE74EF21410C4F20100007820B3E9
:10209800FFE70120FFF758FEFFE74EF21410C4F2E5
:1020A8000100007800F0C000802801D0FFE7F4E7C5
:1020B8004EF21411C4F2010100200870FFE74EF23D
:1020C8001410C4F20100007810F0C00F01D0FFE72F
:1020D800F5E70120FFF7F0FDFFE70220FEF710F813
:1020E800012000F059F840F2C440C2F200200290EA
:1020F80000F081F9029800F096F9BFF34F8FBFF313
:102108006F8F4EF65071CEF2000100200860BFF3C9
:102118004F8FBFF36F8F42F6EA22C0F2002242F6D9
:10212800EA21C0F20021891A891008910790FFE777
:102138000798089988420DDAFFE7079942F6EA20DE
:10214800C0F2002050F821008047FFE707980130CF
:102158000790EDE7FFF780FD002000F081F810B050
:1021680080BDD4D4D4D4D4D480B584B00699039097
:102178000193009203980699009ADDF804C063461B
:1021880041F007C000BF00BFE0E802230FF005C020
:10219800039004B080BDD4D480B584B003900020EF
:1021A8000290FFE7029842F66401C0F20021096834
:1021B800884225D2FFE7039842F66401C0F2002165
:1021C8004968029A02EB420201EB8201497A88428D
:1021D80011D1FFE742F66400C0F20020406802997E
:1021E80001EB410200EB820150F822004968091A0C
:1021F80000F03AF8FFE7FFE7029801300290D1E7D4
:1022080000200190FFE7019842F66401C0F2002126
:102218008968884222D2FFE7039842F66401C0F237
:102228000021C968019A01EB0211497B884210D14B
:10223800FFE742F66400C0F20020C068019A00EB94
:102248000211120180584A688968121A00F010F8C1
:10225800FFE7FFE7019801300190D4E704B080BDA3
:1022680081B0009001B070470A46002100F076B8AE
:10227800844641EA000313F0030349D1403A23D3CB
:102288000B6803604B6843608B688360CB68C360EE
:102298000B6903614B6943618B698361CB69C361D6
:1022A8000B6A03624B6A43628B6A8362CB6AC362BE
:1022B8000B6B03634B6B43638B6B8363CB6BC363A6
:1022C80040304031403ADBD230320BD30B680360E8
:1022D8004B6843608B688360CB68C36010301031F3
:1022E800103AF3D20C3205D351F8043B40F8043BC2
:1022F800043AF9D2043208D0D2071CBF11F8013BC6
:1023080000F8013B01D30B8803806046704700BF8B
:10231800082A13D38B07B1D010F00303AED0C3F152
:102328000403D21ADB071CBF11F8013B00F8013B7C
:10233800A4D331F8023B20F8023B9FE7043AD9D3F3
:10234800013A11F8013B00F8013BF9D20B78037010
:102358004B7843708B7883706046704770B48407FD
:1023680046D0541E002A41D0CDB2034602E0621E78
:10237800E4B3144603F8015B9A07F8D1032C2ED96D
:10238800CDB245EA05250F2C45EA054519D926465B
:1023980003F11002103E0F2E42F8105C42F80C5C5C
:1023A80042F8085C42F8045C02F11002F2D8A4F189
:1023B800100222F00F0204F00F041032032C134411
:1023C8000DD91E462246121F032A46F8045BFAD886
:1023D800221F22F00302121D134404F003042CB13F
:1023E800C9B21C4403F8011BA342FBD170BC70475F
:1023F80014460346C2E710B540F2440140F2000219
:10240800C0F20021C0F200020446FFF731FF40F29B
:10241800000040F20001C0F20000C0F200012044B8
:10242800FFF722FF10BD40F20801C0F20001401A78
:1024380040F2C041C2F20021086070472C0400221B
:10244800C4270002D427000200000000000000009A
:102458000000000000000000000000000000000074
:1024680000000000000000000000FFFFFFFFFFFF6A
:10247800DFDFDFDFDFDF000000000000000000001A
:102488000000000000000000000000000000000044
:102498000000000000000000000000000000000034
:1024A8000000000020A107000000000090D00300F9
:1024B800000F0000A90000020000000050240002E4
:1024C80034040022A824000210280002040000009E
:1024D8000C000000040000000D0000000008011CB2
:1024E800000100000008011C010100000008011C97
:1024F800030100000004011C070100001040000057
:1025080008010000040C00000A010000000C01157D
:102518000B010000000C010B0C010000000C010B6A
:102528000D010000000C010B0E010000000C010B56
:102538000F010000004000000002000010400000F1
:102548000102000000000105080200000004010566
:1025580009020000000801000A0200000000010052
:102568000B020000000001000C0200000000010046
:102578000D020000000001000E0200000000010032
:102588000F020000000C010B00030000000C010BFF
:1025980001030000000C010B0203000010400000C2
:1025A80003030000000001140704000000000114E8
:1025B8000804000040040107090400004004010762
:1025C8000A0400000000011F0B0400001040000076
:1025D8000C040000000C010B03050000000C010BAB
:1025E80004050000000C010B05050000000C010BA0
:1025F80006050000000C010B07050000000C010B8C
:1026080008050000000C010B09050000000C010B77
:102618000A0500000504000006060000000C010B76
:1026280007060000000C010B08060000000C010B57
:1026380009060000000C010B0A060000000C010B43
:102648000B060000000C010B0C060000000C010B2F
:102658000D060000000C010B0E060000000C010B1B
:102668000F0600000008011C030800000008011CF8
:1026780008080000000C010B0D0800000000011301
:102688000E080000000001130F080000000C010BE9
:10269800000A0000000C010B010A0000000C010BED
:1026A800020A0000000C010B030A0000000C010BD9
:1026B800040A0000000C010B050A0000000C010BC5
:1026C800060A0000000C010B080A0000000C010BB0
:1026D800090A0000000C010B0A0A0000000C010B9B
:1026E8000B0A0000000C010B0C0A0000000C010B87
:1026F8000D0A0000000C010B0E0A00000008010B77
:102708000F0A0000000C010B000C0000000C010B6C
:10271800010C0000000C010B020C0000000C010B66
:10272800030C0000000C010B040C0000000C010B52
:10273800050C0000000C010B060C0000000C010B3E
:10274800070C0000000C010B080C0000000C010B2A
:10275800090C0000000C010B0A0C0000000C010B16
:102768000B0C0000000C010B0C0C0000000C010B02
:102778000D0C0000000C010B0E0C00000400000002
:102788000F0C0000000C010B000D0000000C0115DF
:10279800010D0000000C0115020D0000000C0115D0
:1027A800030D0000000C0115040D000000080115C0
:1027B800050D000010000115070D00005E00000067
:1027C800D4240002000000008701D4D4590100027B
:1027D8008101000299010002B1010002F101000229
:1027E800490200027102000291020002090300027C
:1027F8006903000299030002F103000219040002B0
:10280800020403040404D4D419080002590800027D
:102818007108000289080002A108000221090002CB
:1028280051090002A9090002B9090002290A000297
:10283800610A0002890A0002B10A00020000006869
:1028480000000068000000800000008000000070A8
:102858000000007000000022000000220B000000B1
:102868007C28000219000000002900020400000072
:102878004428000200000068000000680001000D04
:1028880000000068000000680001000D00000080E2
:1028980000000080000100080000008000000080A7
:1028A8000001000800000070000000700001000A2C
:1028B80000000070000000700001000A0000000025
:1028C80000000000010000050000002000000020BA
:1028D80001000004000000220000002200000003A4
:1028E8002C040022C404002200000003C4040022B7
:1028F800C404002200000003000000680000006813
:10290800000000900001090D000000680000006848
:102918000000007800010B0D00000068000000684E
:10292800000000270001020D000000680000006898
:10293800440000020001010D00000080000000803A
:1029480000000090000109080000008000000080DD
:102958000000007800010B080000008000000080E3
:10296800000000270001020800000080000000802D
:10297800440000020001010800000070000000701F
:10298800000000900001090A0000007000000070BB
:102998000000007800010B0A0000007000000070C1
:1029A800000000270001020A00000070000000700B
:1029B800440000020001010A0000000000000000BD
:1029C800000000900101090500000000000000005F
:1029D8000000007801010B05000000000000000065
:1029E80000000027010002050000000000000000B0
:1029F8004400000201000105000000200000002042
:102A080000000090010109040000002000000020DF
:102A18000000007801010B040000002000000020E5
:102A28000000002701000204000000200000002030
:102A380044000002010001040000002200000022FE
:102A4800000000900001090300000022000000229D
:102A58000000007800010B030000002200000022A3
:102A680000000027000002030000002200000022EE
:102A78004400000200000103C4040022C404002230
:102A880044000002000001030100020008001000D9
:102A98002000D4D400000406362E342E30004275AF
:102AA800696C7420776974682052656E6573617308
:102AB80020416476616E63656420466C657869625E
:102AC8006C6520536F667477617265205061636B23
:102AD8006167652076657273696F6E20362E342EB5
:022AE8003000BC
:0200000402C92F
:04F04000FFFFFFFFD0
:04F04400EFFFFFFFDC
:04F0C000FFFFFFFD52
:04F0C400FFFFFFFF4C
:04F1200000000000EB
:04F1240000000000E7
:0400000502001DD107
:00000001FF
