S01B00006167745F63706B6E65745F72613874325F65702E73726563A5
S3150200000000400020C93C0002A93C0002593300020C
S31502000010D13C0002D13C0002D13C0002D13C00029C
S31502000020000000000000000000000000D13C0002B9
S31502000030012D000200000000D13C0002D13C00026A
S31502000040713600029135000261370002F137000273
S30D02000050093C0002093C000212
S315020000580079002818BF704710B540F2701E0820B4
S31502000068C2F2002E9EF80C40DEF80810002C18BFCB
S315020000780C2000BF00BF00BF0B5C83EA5303DB07FB
S31502000088FAD10B5C44B10A6840F2081C9A07C2F21C
S31502000098002C09D520E000BF0A8840F2081C9A07FE
S315020000A8C2F2002C18D400BF0A5C82EA5202D207B6
S315020000B8FAD1DEF804301A78012A16D11A7CDEF84B
S315020000C810300CEB8202D361A3F1010264B10A601B
S315020000D80BE000BF00BF00BF02208CF80100BDE89C
S315020000E81040704700BF00BF0A80F1220A5401205F
S315020000F88CF80100BDE81040704700BF00BF00BF82
S3150200010840F21001C2F200210A7882F001020A7056
S315020001180079002818BF704708782821C4F24001E0
S3150200012800284FF4806008BF4FF08060086070476F
S3150200013886B00020CDE90400CDE90200CDE9000031
S3150200014845F27A10C0F2002000F06AF940F27018FF
S3150200015845F2AC71C2F20028C0F2002108F120056E
S31502000168284600F062F945F284714046C0F2002141
S3150200017800F05BF944F6BE60C0F2002000F05AF9BE
S3150200018844F67660C0F2002000F054F903A9284626
S3150200019800F055F998F82C10049A0823D8F8280084
S315020001A8002918BF0C2300BFC75C87EA5707FF0759
S315020001B8FAD14FF47A7344F6D3555A43C1F262051B
S315020001C840F2081A0029A2FB0523D8F82420C2F215
S315020001D8002A4FF0FF314FEA9317C8F83070127CA5
S315020001E801EB93110AEB8202D76101D0016000E0AC
S315020001F801806946404600F022F998F80C10019AE7
S315020002080823D8F80800002918BF0C2300BF00BF2E
S31502000218C75C87EA5707FF07FAD1C823002903FBF9
S3150200022802F24FF0FF31A2FB0523D8F804204FEA69
S315020002389317C8F81070127C01EB93110AEB82022D
S31502000248D76101D0016000E0018044F64470C0F233
S31502000258002000F0EFF844F625694FF0000BC0F2D3
S31502000268002900BF00BF00BFDAE90201884204D0B4
S3150200027800F0EAF80120CAF81000DAF8100001289E
S315020002880ED09AF80000012800F08E809AF8010034
S31502000298012800F096809AF801000228E4D1ACE021
S315020002A8CAF810B0082298F80C00D8F808300028C6
S315020002B818BF0C2200BF00BF995C81EA5101C90729
S315020002C8FAD19F5C20B1186803E000BF00BF00BFE7
S315020002D8188898F82C600820D8F82810002E18BF1D
S315020002E80C2000BF00BF00BF0D5C85EA5505ED076F
S315020002F8FAD10D5C26B10C68AD0721D403E000BF24
S315020003080C88AD071CD4BF072ED400BF00BF00BFA0
S315020003180A5C82EA5202D207FAD1D8F82420137864
S31502000328012B36D1127CD8F830300AEB8202D3611F
S31502000338A3F1010266B30A602BE000BF00BF00BF4B
S315020003480A5C82EA5202D207FAD1F0220A5445F22C
S315020003589F00C0F2002000F063F89AF80000012816
S315020003687FF494AF20E000BF985C80EA5000C00793
S31502000378FAD1F020985444F6C870C0F2002000F072
S315020003884FF89AF8000001287FF480AF0CE000BF0E
S315020003980A80F1220A5401208AF800009AF800001D
S315020003A801287FF473AF00BF44F6A5708AF800B03F
S315020003B8C0F2002000F03EF89AF8010001287FF406
S315020003C86AAF48468AF801B000F034F845F21A30A6
S315020003D8C0F2002000F02EF845F23F30C0F20020AD
S315020003E800F028F845F25F00C0F2002000F018F885
S315020003F89AF8010002287FF437AF48468AF801B016
S3150200040800F00EF845F2C930C0F2002000F012F8EA
S3150200041844F62170C0F2002000F002F824E7D4D492
S3150200042840F27F6CC0F2002C604743F6B90CC0F26A
S31502000438002C604740F2556CC0F2002C604743F628
S31502000448592CC0F2002C604742F6497CC0F2002CB7
S307020004586047F3
S3150200045C0000030089320002A932000200000000EB
S30D0200046C010000004009000036
S31502000480844641EA000313F0030349D1403A23D3D9
S315020004900B6803604B6843608B688360CB68C360FC
S315020004A00B6903614B6943618B698361CB69C361E4
S315020004B00B6A03624B6A43628B6A8362CB6AC362CC
S315020004C00B6B03634B6B43638B6B8363CB6BC363B4
S315020004D040304031403ADBD230320BD30B680360F6
S315020004E04B6843608B688360CB68C3601030103101
S315020004F0103AF3D20C3205D351F8043B40F8043BD0
S31502000500043AF9D2043208D0D2071CBF11F8013BD3
S3150200051000F8013B01D30B8803806046704700BF99
S31502000520082A13D38B07B1D010F00303AED0C3F160
S315020005300403D21ADB071CBF11F8013B00F8013B8A
S31502000540A4D331F8023B20F8023B9FE7043AD9D301
S31502000550013A11F8013B00F8013BF9D20B7803701E
S315020005604B7843708B7883706046704770B484070B
S3150200057046D0541E002A41D0CDB2034602E0621E86
S31502000580E4B3144603F8015B9A07F8D1032C2ED97B
S31502000590CDB245EA05250F2C45EA054519D9264669
S315020005A003F11002103E0F2E42F8105C42F80C5C6A
S315020005B042F8085C42F8045C02F11002F2D8A4F197
S315020005C0100222F00F0204F00F041032032C13441F
S315020005D00DD91E462246121F032A46F8045BFAD894
S315020005E0221F22F00302121D134404F003042CB14D
S315020005F0C9B21C4403F8011BA342FBD170BC70476D
S3150200060014460346C2E710B540F2744140F20002B6
S31502000610C0F20021C0F200020446FFF731FF40F2A9
S31502000620000040F20001C0F20000C0F200012044C6
S3150200063000F001F810BD0A460021FFF797BF40F20D
S315020006400801C0F20001401A40F25001C2F2002134
S315020006500860704783B080B581B0844603A80EC097
S3150200066045F27870C0F20020006803AA6146009243
S3150200067000F028F801B0BDE8804003B0704770B5BD
S31502000680054645F27870C0F200200468A07880071B
S3150200069014D56668287828B12146B0470135002866
S315020006A0F8D507E00A202146B047B0F1FF3FC4BFA4
S315020006B0002070BDA07840F00400A0704FF0FF301B
S315020006C070BDD4D42DE9F04F99B081468078189246
S315020006D0800740F1B58518980027D9F804808A4624
S315020006E0179011A8821D0C92421E053010920E9090
S315020006F00D91514611F8010B252803D08A4638B9C7
S3150200070000F0A0BD9AF801500AF1020A252D06D181
S315020007104946C04701370028EBD500F08BBD0022C1
S3150200072000244FF0000C4FF0000B04E01AF8015BB6
S31502000730002D00F02D811FFA8BF61F2E20D8A5F171
S31502000740200010281ED8DFE810F015001D001D003D
S3150200075018001D001D001D0014001D001D001D00B7
S3150200076011001D00CC001D001D00C9004BF0020B3C
S3150200077000E0DBE74BF0040BD8E74BF0100BD5E7B4
S315020007807F2E0DD8A5F13000092840D8402E80F0E2
S31502000790A0800CEB8C014BF0200B00EB410CC5E763
S315020007A0A5F14C002E2800F2F480DFE810F08F004D
S315020007B0F200F200F200F200F200F200F200F200A1
S315020007C0F200F200F200F200F200F200F200F20091
S315020007D0F200F200F200F200F200F200F200F20081
S315020007E0F200F200F200A400F2008F00F2009D0077
S315020007F0F200F200F200F200F200F200F2002F0024
S31502000800F200F200F200F200F2002F008EE7A5F1EC
S315020008102400562800F2BD80DFE810F08600BB00F7
S31502000820BB00BB00BB00BB007400BB00BB00BB002F
S31502000830A400BB00BB00BB00BB00BB00BB00BB00EF
S31502000840BB00BB00BB00BB00BB00BB00BB00BB00C8
S31502000850BB00BB00BB00BB00BB00BB00BB00BB00B8
S31502000860BB00BB00BB00BB00BB00BB005800BB000B
S31502000870BB00BB00BB00BB00BB00BB00BB00BB0098
S31502000880BB00BB00BB00BB00BB00BB00BB00BB0088
S31502000890BB00BB00BB00BB00BB00BB00BB00BB0078
S315020008A0BB00BB006D00BB005800BB006600BB006E
S315020008B0BB00BB00BB00BB00BB00BB005700BB00BC
S315020008C0BB00BB00BB00BB0057002FE74BF4207BED
S315020008D02CE704EB840100EB410427E74BF0010B04
S315020008E024E74BF0080B21E70BF080004BEA80006F
S315020008F040F0800B1AE70BF480704BEA400040F49C
S31502000900807B13E7002A7FF411AF17983F2E00F180
S3150200091004011791006832D8B0F1FF3F32DD4BF087
S31502000920200B0022844601E712B31898402E179036
S3150200093017A90D986546CDF83C90C14690465CEAEB
S31502000940348200F083FC1798402E4246C84600F1D6
S31502000950040117910068DDF83C9050EA358C54EAA0
S315020009603084E3E63F2E00F26D844BF0400BDDE669
S31502000970624600244FF0000C4FF0000BD6E6002230
S315020009800446D3E64BF0280BC0F1000C0022CDE65C
S315020009900025CDF83CC03AB1189817A917900D98C2
S315020009A000F054FCDDF83CC0002C24EAE47E45F05D
S315020009B0200048BF2BF0400B61281CBFA0F1650147
S315020009C0022925D81799612801F1070121F00701AB
S315020009D001F108021792A0EB050291ED000B0A92B3
S315020009E044D15FEA4B6058BF4FF0FF3E11A8D2B226
S315020009F07146764600F0C8FD451C4BF4C05B4FF0CD
S31502000A00700C4FF0010EE8B28642D8BF461E5CE07B
S31502000A10A5F16301122900F20A8108230026DFE804
S31502000A2011F0350113000601060106010601130045
S31502000A300601060106010601060161015D010601C4
S31502000A4006010D0106012E011FFA8BF15FEA0B600A
S31502000A5000F10C811798021D17920068CA0540F131
S31502000A600C81890554BF00B240B206E15FEA4B61D0
S31502000A7058BF4FF0060E662809D065280FD14BF4F1
S31502000A80805B76460EF101010023652411E04BF4EA
S31502000A90005B012266241121764673460AE05FEA6C
S31502000AA00E61A0F10204714676464FF0000308BFBC
S31502000AB00121002211A8C9B2112928BF112101F072
S31502000AC0B6F805464FF0020EA446119B9DF8480063
S31502000AD0A3F10A0111F1130F38BF4FF0020EA3F171
S31502000AE06401089111F1C70F38BF4FF0030E0F9C36
S31502000AF0C1074FD15FEA8B716FD41FFA8BF12022A7
S31502000B0002EAC10211F0040F5FEA1F9110F00C0F06
S31502000B1045D11BF4405F0493CDE9062140F02B82B8
S31502000B20012E4FF0010056EA80801FFA8BF12A0649
S31502000B3000F06D810E9BEAB2134413F8013C302B90
S31502000B4040F006826B1E1A0621D02E460E9DDAB2A0
S31502000B50154415F8015C302D40F0F981B31E1A06D2
S31502000B6015D00E9DDAB2154415F8015C302D40F011
S31502000B70EE81F31E1A060AD00E9DDAB2154415F856
S31502000B80015C302D40F0E381351F2A06D2D10025C3
S31502000B900022DDE12D22002110F00C0FB9D0002930
S31502000BA04FF0030050EA1090844212DD0A9E0D4671
S31502000BB05FEA0B7117D4041B934620204946C047AF
S31502000BC0002800F1378301370134F6D300245A4650
S31502000BD00AE000240A9E49B10FE02B22002110F000
S31502000BE00C0FDCD195E7241A294631B9104649463D
S31502000BF0C047002800F11E8301379DF8480045F2E0
S31502000C001631C0F20021000744F67070C0F20020CF
S31502000C1050EA51852878002800F0F982801B49465F
S31502000C20C0B2C047013701350028F3D502E3782860
S31502000C3040F09880C5F188032E4653E01798011DAF
S31502000C401791006845F2F631C0F20021002851EAF8
S31502000C5000855FEA4B6058BF4FF0FF3E284671465B
S31502000C6000F06AFEDDF83CC0064617E017988905D3
S31502000C7000F18680011D17910068C11788E04FF6C2
S31502000C80EF700BEA000B0A2375262BE01798012654
S31502000C9011AD011D179100688DF844005FEA0B70D3
S31502000CA00ED4B4450CD9202049466446C0470028D4
S31502000CB000F1C082A4F1010C0137B445F3D8B44661
S31502000CC03744ACEB0604002E00F0A18215F8010BA6
S31502000CD04946C047013E0028F5D5ABE24BF0100B62
S31502000CE0102378264FF6F9700BEA00025FEA0B60D2
S31502000CF00B960AD41798011D17910668D1050AD5D5
S31502000D00900554BFB6B2F6B205E0179891050AD41B
S31502000D10011D17910668002156EA010008BF2BF053
S31502000D20160278D10FE00730154620F0070002467A
S31502000D30416852F8086B17922A4656EA010008BF24
S31502000D402BF0160267D100265FEA4B6062D50021BE
S31502000D50012C60DA4FF6E9700BEA00010B9D48069A
S31502000D6037D467E025204946C047002800F1628251
S31502000D7028464946C047023700287FF5BAAC59E2F1
S31502000D80073020F007010A46496852F8080B179205
S31502000D9000295A46CDF82CE048BF42F4806250EA58
S31502000DA0010322D080EAE17081EAE173B0EBE170DF
S31502000DB063EBE17111AC22F010060A23224600F021
S31502000DC06DFB3146061BDDF83CC0DDF82CE048061B
S31502000DD030D54FF6FE70764500EA01002BDA002D7B
S31502000DE008BF21F01100714626E05FEA4B604FF022
S31502000DF0000040F19E810021012CDBDA4FF6EE70F5
S31502000E00DDF83CC000EA0B00DDF82CE014E000251A
S31502000E1000229EE0002111AC304616467546224657
S31502000E2000F03CFB3146AE46DDF83CC0061B0B9D8E
S31502000E304806CED4084631461FFA80FBC0060AD4BD
S31502000E4040F206401BEA000F5FEA0F9044185FEA81
S31502000E500B7009D526E0002D4FF0010050EA0090F4
S31502000E6044185FEA0B701DD45FEACB7008D0B64611
S31502000E70644505DA06EB0C00A0EB040E644611E0AD
S31502000E8064450FDACDF82CE020204946C0470028F9
S31502000E9000F1D0810F9801340137A042F4D1DDF878
S31502000EA02CE004465FEACB601BD440F206401BEA04
S31502000EB0000F26D05FEA8B7075464FF02B0058BFA5
S31502000EC020205FEA4B51494648BF2D20C0470028E3
S31502000ED000F1B0810137AE46F3467546B64514DCDD
S31502000EE01CE030204946F346C047002800F1A281A3
S31502000EF035B328464946C047002800F19B81023790
S31502000F00DE46F3467546B64508DD30204946C047FB
S31502000F10002800F18F81013DB542F6DC0F985E454F
S31502000F20A0EB040456EACB800744002E00F06F8142
S31502000F3010984946805DC047013E0028F5D579E103
S31502000F400137DE46F3467546B645DEDCE6E71D4664
S31502000F50049BC90652EA508113F1040F08DB83424F
S31502000F6006DA4BF4005B8B4204DAD8430E1802E031
S31502000F704E1E00E00026A3F57A711FFA8BF409943F
S31502000F8024055FEA8B400395CDE9011C05940CD438
S31502000F9011F5FA6F70464FF0050198BF0420002C38
S31502000FA058BF032101EB000C03E023EAE37000F1D2
S31502000FB0010CDDF824B0002E079A4FF000050B96BF
S31502000FC0CBF3001182F0010251EA06900F998318C1
S31502000FD06344CB1A53EAC5841BF0090F11D10A9E4A
S31502000FE084B1604475461044441A20204946C047DD
S31502000FF0002800F11F8101370134F6D30024AE46E2
S3150200100000E00A9E0798CDF800E00028069805D170
S315020010104946C047002800F10D810137059800288E
S315020010200ED530204946C047002800F10381C6F19B
S3150200103078004946C0B2C047002800F1FB8002375B
S31502001040099800070AD44CB1274430204946C047C4
S31502001050002800F1EF80013CF7D1002409988004B2
S3150200106027D49DF849004946C047002800F1E2808E
S315020010700B98012857DB2E204946C047002800F16D
S31502001080D9800B98384400F1020B0398C5B20020B0
S31502001090471CAF4202D20C99085C00E03020494658
S315020010A0C047002800F1C6800B98B8423846EFD1F7
S315020010B048E0049820EAE076851B0B98C0F1000B05
S315020010C00398C0B20F90701C06D12E204946C04725
S315020010D0002800F1AF8001373020002D04D40F998B
S315020010E08D42BCBF0E98405D49465E4506DDC0474F
S315020010F001350137013E0028E5D59BE0C0470028AF
S3150200110000F198800999781CC90640F19180002E59
S3150200111040F08C802E204946C047B0F1FF3F40F395
S315020011208980023773E00998C00604D407F1010BDF
S3150200113008E000213EE62E204946C047002879D421
S3150200114007F1020B02984946801BC0B2C04700282D
S3150200115070D4049E2B204946002E48BF2D20C0473E
S31502001160002E48BF7642002864D4019810F5FA6F23
S3150200117015D844F6D3504946C1F26200A6FB0005D3
S31502001180302000EB9510C0B2C047002852D4A809FF
S315020011904FF47A7100FB11620BF1030506E0089821
S315020011A00BF10205324610F1C80F3BD848F21F5028
S315020011B04946C5F2EB101746A2FB0006302000EBAB
S315020011C05610C0B2C047002834D47009642100FB0F
S315020011D0117201354CF6CD404946CCF6CC40174645
S315020011E0A2FB0006302000EBD600C0B2C0470028A2
S315020011F020D4F008013500EB8000A7EB400202F193
S3150200120030004946C0B2C047002813D46F1C012CD7
S31502001210FFF66FAA20204946C0470137013C002845
S31502001220F5D507E000980228D4D2E8E70746EEE7AC
S315020012300746ECE799F8020040F0040089F802003C
S315020012404FF0FF37384619B0BDE8F08F022AB8BF13
S3150200125070472DE9F04F42F689084FF0010CC0F2B3
S31502001260010804464FF0010E03E05F789C1C252F0F
S3150200127029D1234613F8015B252D01D025B90AE1B0
S315020012806778A31C252F1DD11C4614F8015B252D5A
S3150200129001D025B9FFE05F789C1C252F13D1234688
S315020012A013F8015B252D01D025B9F4E06778A31C5C
S315020012B0252F07D11C4614F8015B252DD5D0002D0C
S315020012C0D7D1E8E01C464FF0000A4FF0000900268D
S315020012D004E014F8017B002F00F0A980B346BAF1AE
S315020012E01F0F0AD8A7F12005102D09D80CFA05F50B
S315020012F015EA080F40F07C8002E0BAF17F0F0AD8A7
S31502001300A7F13005092D3ED80BEB8B034AF0200AD4
S3150200131005EB4306DDE7A7F14C052E2D00F288808A
S315020013205E46DFE815F067008500850085008500CA
S31502001330850085008500850085008500850085007D
S31502001340850085008500850085008500850085006D
S31502001350850085008500850085008500850077006B
S315020013608500670085007000850085008500850080
S315020013708500850085002F00850085008500850093
S3150200138085002F00A5E7A7F12405562D00F250800F
S315020013900026DFE805F0334D4D4D4D4D324D4D4D96
S315020013A0324D4D4D4D4D4D4D4D4D4D4D4D4D4D4D80
S315020013B04D4D4D4D4D4D4D4D4D4D4D4D4D4D2F4D73
S315020013C04D4D4D4D4D4D4D4D4D4D4D4D4D4D4D4D45
S315020013D04D4D4D4D4D4D4D4D4D4D3F4D2F4D384D76
S315020013E04D4D4D4D4D4D2C4D4D4D4D4D2C00FFE768
S315020013F05E466EE74AF4207AFAE76AE7B9F1000F29
S315020014000FD1D94665E70AF080034AEA830343F01F
S31502001410800AEDE70AF480734AEA430343F4807ACA
S31502001420E6E7F3457FF455AF6327F14600E0002770
S31502001430B9F1000F2FD0F14524D147F02003612BDB
S315020014401CBF653B022B05D80B68073323F0070345
S31502001450083313E0A7F16303102B0AD8DFE803F081
S315020014600C090909090909090909090909090909E1
S315020014700C005FEA0A6309D40B6804330EF1010E0D
S3150200148004460B609645FFF6F4AE04E00B685FEA8D
S315020014908A54DAD4F1E7BDE8F04F70472DE9F047F8
S315020014A003F01F06984691468A4605462846514647
S315020014B03246002300F06EFA044600FB16500F4631
S315020014C0A0EB0801092888BF01F13700303089F8FE
S315020014D00000A81B7AF1000049D32046394632465D
S315020014E0002300F057FA054600FB16408A46A0EB99
S315020014F00801092888BF01F13700303089F8010058
S31502001500A01B77F1000036D3284651463246002307
S3150200151000F040FA044600FB16500F46A0EB080105
S31502001520092888BF01F13700303089F80200A81B6C
S315020015307AF1000023D3204639463246002300F0D2
S3150200154029FA054600FB16408A46A0EB080109283F
S3150200155088BF01F13700303089F8030009F1040928
S31502001560A01B77F10000A1D24846BDE8F08709F139
S315020015700100BDE8F08709F10200BDE8F08709F134
S3150200158003094846BDE8F0872DE9F04F85B05AECCD
S31502001590103B4FEADA77CAF30A566FF31F5A0771FE
S315020015A053EA0A0408BF002E0ED040F2FF75AE427F
S315020015B03CD10421002C18BF0821394401710021B5
S315020015C0084605B0BDE8F08F002700234FF0000A59
S315020015D00029076037D40D2937D3190F00F1050BFF
S315020015E041EA0A110491190E4FEA1A5441EA0A21F4
S315020015F00391190D4FEA1A4641EA0A310291190C72
S315020016004FEA1A3841EA0A410191190B41EA0A5C8A
S31502001610190A41EA0A6E190941EA0A794FEA1A11C8
S3150200162003F00F034FEA1A27009180E04FF60247B4
S31502001630002ECFF6FF771CBFA6F2FF370AF5801AF7
S3150200164000290760C7D5002146E03326A6EB8105AF
S31502001650C5F1200613274FF0020CA7EB81072CFADF
S3150200166006F401264FF0000E002F58BF0CFA07F4BD
S3150200167058BF06FA07FE06FA05F60CFA05F558BF34
S31502001680002658BF0025D5F100094FF0000868EB87
S31502001690040C013D64F100041D4004EA0A04751BB2
S315020016A07EEB040411D38C00C4F13405D4F1140486
S315020016B023FA05F7C5F120050AFA05F545EA0705F5
S315020016C058BF2AFA04F5EC0702D09B194AEB0E0A18
S315020016D003EA09030AEA0C0A1F0947EA0A791F0FF5
S315020016E01D0B47EA0A1704971F0E45EA0A5C47EAEA
S315020016F00A2703971F0D1D0A47EA0A3702971F0C8E
S3150200170045EA0A6E47EA0A4700F1050B13F00F0392
S3150200171001974FEA1A174FEA1A544FEA1A464FEA46
S315020017201A384FEA1A25009700F0B4802F46991A04
S31502001730092B88BF01F1270303F13001817409F0F7
S315020017400F030D219D1A092B88BF05F127030C29CA
S3150200175003F13003437498BF0C210EF00F039D1A58
S31502001760092B88BF05F127030B2903F13003037404
S3150200177098BF0B210CF00F039D1A092B88BF05F1A8
S3150200178027030A2903F13003C37398BF0A21019B79
S315020017903D4603F00F039F1A092B88BF07F1270363
S315020017A0092903F13003837398BF0921029B03F0D1
S315020017B00F039F1A092B88BF07F12703082903F194
S315020017C03003437398BF0821039B03F00F039F1A4C
S315020017D0092B88BF07F12703072903F13003037397
S315020017E098BF0721049B03F00F039F1A092B88BF9A
S315020017F007F12703062903F13003C37298BF0621B6
S315020018000AF00F039F1A092B88BF07F12703052940
S3150200181003F13003837298BF0521009B03F00F0387
S315020018209F1A092B88BF07F12703042903F1300306
S31502001830437298BF042105F00F039F1A092B88BF34
S3150200184007F12703032903F13003037298BF03212B
S3150200185008F00F039F1A092B88BF07F127030229F5
S3150200186003F13003C37106F00F0398BF02219A1ADF
S31502001870092B88BF02F1270303F130028271012985
S3150200188098BF012104F130008BF80000084605B02C
S31502001890BDE8F08F19F00F0348D10C2946D21EF08D
S315020018A00F0345D10B2943D21CF00F0342D10A295B
S315020018B040D2019B13F00F037FF46DAF0929BFF4E9
S315020018C06AAF029B13F00F037FF473AF0829BFF4CC
S315020018D070AF039B13F00F037FF479AF0729BFF4B0
S315020018E076AF049B13F00F037FF47FAF0629BFF494
S315020018F07CAF1AF00F037FF485AF0529BFF482AFE0
S3150200190017F00F038CD104298AD215F00F0394D154
S31502001910032992D218F00F039CD102299AD206F01B
S315020019200F0353EA0107A2D10021ABE72F4609E7CD
S315020019302F4614E72F461FE7844639B370B500EBEE
S31502001940010C4B1EA1F1020ECC1E0022855C85B154
S31502001950934219D085186E7876B1964514D0AE7832
S315020019606EB1944210D0EE7866B104329142EDD156
S315020019700AE000EB020C07E005F1010C04E005F1B8
S31502001980020C01E005F1030CBDE87040ACEB00006F
S315020019907047D4D440B584B002AE009600F004F885
S315020019A0029A039B04B040BD2DE9F04F099D84467F
S315020019B081B1C2B14BB3B1FA81F7B3FA83F6F71B21
S315020019C0202F4FD3002D18BFC5E900C100200021EA
S315020019D0BDE8F08FCBB30021002D64D00020C5E90D
S315020019E000C1BDE8F08F002B60D0002861D05F1ED9
S315020019F03B4200F08580B1FA81F7B3FA83F6F71B12
S31502001A001F2FDFD207F1010C3CE0571E3A425DD090
S31502001A10B1FA81F7B2FA82F6F71B07F1210CBCF193
S31502001A20200F24D0BCF11F0F79D8CCF1200620FA62
S31502001A300CF721FA0CF901FA06F5B0403D434FF0D6
S31502001A40000ABCF1010F2CD07CE0B0FBF2FC002DA9
S31502001A501EBF0CFB12000021C5E9000100216046F1
S31502001A60BDE8F08F07F1010CBCF1200F0AD14FF04F
S31502001A7000094FF0200C0D464FF0000ABCF1010F91
S31502001A800FD05FE0C7F11F0720FA0CF621FA0CF916
S31502001A9001FA07F5B84035434FF0000ABCF1010FD1
S31502001AA050D100248FE00020BDE8F08F6046BDE8EB
S31502001AB0F08FB1FBF3FC002D1EBF0CFB13100021AF
S31502001AC0C5E9001000216046BDE8F08F002D1EBF5B
S31502001AD000230740C5E90073012A0ED092FAA2F24A
S31502001AE04F00B2FA82F202F01F03D140D8401F2300
S31502001AF0934307FA03F343EA000C6046BDE8F08F0E
S31502001B00002D1CBF07EA0100C5E900C093FAA3F045
S31502001B10B0FA80F021FA00F00021BDE8F08FACF1B6
S31502001B202007CCF140044FF0000920FA07F601FA2B
S31502001B3004F52E4300FA04FA21FA07F53046BCF101
S31502001B40010FAED02CF001070126023F4FF0000B29
S31502001B5006EB570E4FEA490444EAD5746D0045EA8E
S31502001B60D0754000E743E943891843EB0708AF1AEB
S31502001B7064EB0306B8F1000F56EA448457EA45853A
S31502001B80640044EAD5746D0045EAD07540EADA701D
S31502001B90AE1A6FEA050164EB030789184FEA4000A3
S31502001BA06FEA0401594157EA448956EA4585CC0F42
S31502001BB04BEA4A010027A34640EAD170490041EAAE
S31502001BC0D87A0FF039C85FEACC711ED06F004FEA9F
S31502001BD0490147EAD07741EAD571B7EB020C4FEAE1
S31502001BE0400061EB030EFD4352196FEA010653EB07
S31502001BF0060240EADA705EEA41895CEA4785D10F5D
S31502001C0044EA4A0200270C4692464FEADA7141EA52
S31502001C10400009994FEA4A02002918BFC1E9005952
S31502001C2040EA070122F001002043BDE8F08F2DE9CA
S31502001C30F04FA1B056EC108BB246C6F30A546FF3BE
S31502001C401F5AF50F58EA0A0708BF002C0ED040F2B9
S31502001C50FF76B44215D10821002F08BF04210024C3
S31502001C6029440171204621B0BDE8F08FA91C0171FB
S31502001C7030210124417100210160204621B0BDE8D6
S31502001C80F08FA4F23549002CCDE9062308F00106AF
S31502001C900495CDE9081006BF4FF6CC39CFF6FF7989
S31502001CA00AF5801A4FEA8A0242EA9870002F1590C6
S31502001CB05FEA0F90022C5FEA2F91B9F1000F40EA1A
S31502001CC001074FEA880014900596139749D44846AF
S31502001CD000F021FD0546B9F1030F88BF013D2846F4
S31502001CE000F027FD0DF1580B04462846594600F030
S31502001CF00BFE1AA81CA95A460297CDE90010A5EBBD
S31502001D0009002044514600F17C034046AB4600F0F0
S31502001D1031FC8246152D5FD8149F4CF6CD46159D93
S31502001D201EA8CCF6CC460C460090384629463246CA
S31502001D304FF0CC3300F072FEDDE91E01820842EA62
S31502001D40817120F0030008444042F8426AD13846C5
S31502001D50294600F0F7FC58455FEA3F9012900020B2
S31502001D6087E0C9F1000B584600F0DCFC044619F185
S31502001D70010018BF013CABEB040B584600F0D9FC3E
S31502001D8016A9054658468B4600F03BFD1AA81CA923
S31502001D905A460297CDE90010601B00F17D034046CA
S31502001DA0514600F0E7FB04EB090B8246012C1BD8D7
S31502001DB0089B002E069D4CF6CD46CCF6CC4608D0A6
S31502001DC0DDE91C0201381C9062F100001D90002022
S31502001DD013900120129050E04CF6CD460020CDE93A
S31502001DE01200CCF6CC4646E0089B4CF6CD46069D44
S31502001DF0CCF6CC463E2C25D84FF0FF30B4F120026B
S31502001E0000FA04F758BF0027149C58BF9040159A51
S31502001E1024EA070722EA000038435FEA1F9012907D
S31502001E20002011E0059888B91398C043C01965F1DE
S31502001E30000100F087FC58455FEA3F9013900020AE
S31502001E40129017E000201290139016E047F002005D
S31502001E50294600F077FCDDE91C124B1E62F10005F3
S31502001E60584553EA21801C9055EA22801D90002095
S31502001E70129013902146089B069D002D0C934AD082
S31502001E80BAF10A0071F1000001D2012037E0002701
S31502001E904FF00A0C02204FF064094FF47A7842F2AE
S31502001EA0107E0A22A2FB0C4507EB870305EB4303D0
S31502001EB0BAEB040471EB030320D3A2FB093407FB3C
S31502001EC00944BAEB030371EB040314D3A2FB0834EF
S31502001ED007FB0844BAEB030371EB04030DD3A2FB21
S31502001EE00E23043007FB0E37BAEB020371EB07032E
S31502001EF0D8D2013802E0013000E00230089B079A8E
S31502001F000BEB02073844B0EBD27FB8BFD00F834247
S31502001F1053EAB0800C90CDF80CB00DF1680B1D9C05
S31502001F2016AD9BE8000B00201591149011900B90B2
S31502001F302FE01599504632464FF0CC3316AD4FEA94
S31502001F40DB04009500F06AFD1498BB46129910F066
S31502001F50FF0FDDE916235FEA1F90014008EB8800B8
S31502001F601291404210994942B1EB400F13995FEA30
S31502001F701F9001401391D00840EA437101EB8000A3
S31502001F80AAEB4000149011988A4601301190D808A5
S31502001F9015905846214632464FF0CC330095CDF87F
S31502001FA034B00E9400F03AFD4046494632464FF0B0
S31502001FB0CC33DDE9164B0095CDE90F9800F02EFDE6
S31502001FC0DDE91601E20842EA4B774FEAD109C00879
S31502001FD040EA4178B8EB070079EBDB00A9D3159903
S31502001FE0BAF10A0071F1000001D201203BE00A9722
S31502001FF000250A2202204FF00A0C64274FF47A7E4B
S31502002000A2FB0C3605EB850406EB4406BAEB03038A
S3150200201071EB060322D3A2FB073605FB0766BAEB72
S31502002020030371EB060316D3A2FB0E3605FB0E66FF
S31502002030BAEB030371EB06030FD342F210740430BA
S31502002040A2FB042305FB0435BAEB020371EB05037D
S31502002050D6D2013802E0013000E002300A9F4CF687
S31502002060CD46CCF6CC460C9A4AEA010313435FEA04
S315020020701F93904203DD13B901200B905AE7139880
S31502002080C00771D0DDF8408032460F994FF0CC334D
S3150200209016AD0095404600F0C1FCDDE91610C8F108
S315020020A00003DDF848B0CA0842EA407404EB820233
S315020020B05242B3EB420F5FD1C208DDF84490DDF81D
S315020020C050C0DDE90D01904632464FF0CC33CDF8D3
S315020020D050C0009500F0A2FC1599324616984FF0B2
S315020020E0CC3312905046179F009500F097FC4CF6A1
S315020020F0CD4216A8009020464146CCF6CC424FF07F
S31502002100CC33DDE91665CDF83C8000F087FCF1089A
S3150200211041EA457E14980EEB8101A046ED0810F0C7
S31502002120FF0FAAEB410C5FEA1F90DDE916120BEADC
S31502002130000B12984CF6CD461595CB0843EA42742D
S31502002140C00804EB830340EA47705B4209F10109C8
S3150200215016ADF908C8F10007CCF6CC46D208F2460D
S31502002160B7EB430FAFD00CE00DF1400BD646DDF8CE
S3150200217050C09BE8000B04E0D646DDF84490DDF83B
S3150200218050C0159A8EEA08010F9813464240114331
S315020021900B9A5FEA0F911143CA07059900295FEA74
S315020021A01F91002A04BF139A11EA02010ED05FFAA8
S315020021B08CF105295FEA0F92042962EA0B025FEAB3
S315020021C09F9142EA0E0202EA010C01E04FF0010C75
S315020021D0039809EB00051EEB0C0043F10001B0F178
S315020021E00A0271F1000201D2012338E0AE4600264E
S315020021F04FF00A0802234FF0640B4FF47A7A42F248
S3150200220010790A25A5FB087206EB860402EB440246
S31502002210C41B71EB02021DD3A5FB0B2406FB0B4468
S31502002220821A71EB040212D3A5FB0A2406FB0A44A6
S31502002230821A71EB04020CD3A5FB0952043306FB86
S315020022400926421B71EB0602DCD2013B02E0013396
S3150200225000E002334CF6CD467546CCF6CC460C9AD7
S3150200226093425FEADC82012A079A3AD1069F4FB16E
S315020022702A441A44012AD8BF0122089F974257EAE4
S31502002280B2820C920C9A93422BDD05304CF6CD4766
S3150200229041F10001CCF6CC474008013B40EAC1704F
S315020022A0013510EB51024FEA510142F10002A2FB45
S315020022B0077626F0030707EB96074FF0CC36D21BBC
S315020022C0821A4CF6CD40CCF6CC4061F10001A2FB5D
S315020022D0000702FB06724CF6CD46CCF6CC4601FB55
S315020022E006210C9A934253EAB2822BB214B22344C9
S315020022F0A3F10108012CC0F2348102F00303099A0A
S31502002300CDF84880042C02F105091193149402D2E7
S315020023104FF0000AA9E0E31A2244149C02F10408D1
S315020023204FF0000A13936422002383460F46FFF7F9
S3150200233031FB420800F0010042EAC17212EB510180
S3150200234041F10001A1FB062323F0030202EB9302F3
S315020023500023891A4FF47A7240EA4100394640F066
S31502002360300015905846FFF715FB42084CF6CD464D
S3150200237042EAC172CCF6CC4612EB510100F00100E2
S3150200238041F100024FEA5B0141EAC77111EB5703C3
S3150200239043F10003A3FB066525F0030606EB95064B
S315020023A09B1B6FF00206CB1A4CF6CD41CCF6CC4104
S315020023B0A3FB011C01EB8105ABEB450545F030059E
S315020023C008F804598AEA0605159E254409F80560A7
S315020023D04CF6CD46CCF6CC46A2FB065626F00305B5
S315020023E005EB9606A2EB06024CF6CD46CCF6CC469B
S315020023F040EA42006FF0030282EA0A0240F030002D
S31502002400224409F802004FF0CC304FEA570203FB90
S3150200241000C062F1000202FB06004A0801F0010157
S3150200242042EAC07212EB500040F10000A0FB062304
S3150200243023F0030202EB93020023801A42F2107287
S3150200244041EA40006FF0010181EA0A0140F03000E2
S31502002450214409F8010058463946FFF79BFA0AF16A
S31502002460040A139A52457FF45EAFDDF844E0DDF8C4
S315020024704880149CBEF1000F73D042084CF6CD473B
S3150200248042EAC172CCF6CC4712EB51036FEA0A0557
S3150200249043F100032544A3FB077626F0030707EB67
S315020024A096074E08DB1BD31A4CF6CD42CCF6CC422D
S315020024B066F1000CA3FB0227BEF1010F02EB8206B6
S315020024C0A0EB460646F0300609F8056049D04FF003
S315020024D0CC364CF6CD4503FB06734CF6CD47CCF60F
S315020024E0CC47CCF6CC450CFB0733570802F0010269
S315020024F047EAC37717EB53034CF6CD4743F1000384
S31502002500CCF6CC47BEF1020FA3FB077626F00307F3
S3150200251007EB9607A3EB070342EA4302A4EB0A037F
S3150200252003EB090642F0300206F8022C19D06422A7
S315020025300023FFF72FFA420800F0010042EAC172B7
S3150200254012EB510141F10001A1FB052323F0030225
S3150200255002EB9302891A40EA410040F0300006F885
S31502002560030C099804990171C0F80080204621B035
S31502002570BDE8F08F2DE9F04F8BB0490041EAD074E7
S3150200258005931646D2E9002345002846214608AFA0
S31502002590009700F043FAD6E90223834606A8894645
S315020025A0009028462146DDE9087A00F037FA10EB5A
S315020025B00708DDE906234AEB010ADDE90801571C93
S315020025C0059C43F10005B8EB00007AEB0100A4F18B
S315020025D0410455EA338357EA328296E8830017EBC1
S315020025E00807F568049445EB0A0510EB0B0059EB56
S315020025F00100009457F10000CDE9062345F10001E0
S31502002600571C43F10005B0EB080471EB0A04CDF840
S315020026100CB055EA338357EA3282CDF8089000F0BF
S315020026201BFADDE91429169BC2E9000143B3D6E978
S3150200263000C1D6E902560398B8EB0505DDE9062383
S315020026406AEB06066C1E66F10007B0EB0C000298F8
S31502002650DDF810B08841CDF800B054EA358057EA6B
S315020026603681571E63F10006B8EB00057AEB0105C9
S3150200267057EA328256EA338300F0EEF95F463EE0CD
S31502002680DDE906204FEA4804D6E900EC01900598F8
S31502002690D6E90276A0F14005029800954FEA4A056E
S315020026A0039945EAD87544EAD0744300E71B65EB03
S315020026B00606B7F1010B43EAD17366F10000DEEBC1
S315020026C0410173EB0C0150EA36815BEA3780B4EBC9
S315020026D00803019F75EB0A035FEA2F937F0043EA23
S315020026E0420347EAD2775A1E67F10006241A8D4141
S315020026F052EA338256EA378300F0AEF9049FDDE9E7
S315020027000623C9E9000140465146009700F0A4F9A4
S315020027100BB0BDE8F08F43F24141C0F201014843DC
S31502002720800C704742F6FB61C0F20B014843000D74
S31502002730704749F24F31C0F212014843012101EBC1
S31502002740D04070472DE9F04F4CF6CD4E45F6294460
S3150200275042F6F50A47F6D50847F6916943F2343B45
S3150200276002460020CCF6CC4E4FF03333CCF28F2407
S31502002770C8F65C7AC2F2E968C3F6FB29C3F2333BB8
S31502002780A2FB0E5C4FF0CC3702FB07C7D5F13335FF
S3150200279001FB0E7773EB07072ED3A2FB047502FB30
S315020027A00A55D7F1333701FB045573EB050722D3DC
S315020027B0A2FB087540F63106C1F6AC4602FB065589
S315020027C0D7F1333701FB085573EB050716D3A2FB86
S315020027D009754CF67066CDF28826043002FB065265
S315020027E001FB0921B7EB0B0271F133323A46C7D32B
S315020027F00138BDE8F08F0130BDE8F08F0230BDE848
S31502002800F08F2DE9F04F87B005464EF64F40C4F6DD
S31502002810C4608B46A5FB0001C8081A2100FB01F61D
S3150200282045F23841C0F2002101EB0010B54209D150
S3150200283090E80E00C0688BE80E00CBF80C0007B0DB
S31502002840BDE8F08FD0E9009245F20851C0F20021AE
S315020028500192D0E90223A81B51F8307001EBC000A7
S31502002860446804A800903846214600F0D7F8019B38
S31502002870824602A888460090384621464A4600F01B
S31502002880CDF881460191DDE90201002210EB0A072B
S3150200289058EB010842F10000012806D1DDE90401E6
S315020028A00130049041F1000005902846FFF741FFF0
S315020028B004463046FFF73DFF0199241A48463A4638
S315020028C04346009400F0C8F86FF0030245F2D8536D
S315020028D002EA9502C0F200239A581E2303EA450330
S315020028E0DA4002F003068019DDE9042341F1000112
S315020028F0CBE9000138464146009400F0ADF8CBE939
S31502002900020107B0BDE8F08F2DE9F04F87B08B4684
S315020029104EF64F4105461930C4F6C461A0FB0101CB
S31502002920C8081A2100FB01F645F23061C0F2002107
S3150200293001EB0010AE4209D190E80E00C0688BE8A8
S315020029400E00CBF80C0007B0BDE8F08FD0E900A26C
S3150200295045F20851C0F200210192D0E90223701B10
S3150200296051F8307001EBC000446804A80090384664
S31502002970214600F053F8804602A80090BAF10102FF
S3150200298001988946214660F10003384600F046F870
S3150200299004468A46DDE90201002210EB080751EBE4
S315020029A0090842F10000012806D1DDE904010130DF
S315020029B0049041F1000005903046FFF7BAFE064644
S315020029C02846FFF7B6FE361A204651463A46434691
S315020029D0009600F041F86FF0030245F2207302EA16
S315020029E09502C0F200239A581E2303EA4503DA40F1
S315020029F002F003054019DDE9042341F1000101302B
S31502002A0041F10001CBE9000138464146009600F04B
S31502002A1023F8CBE9020107B0BDE8F08FF0B5A2FBBF
S31502002A2001CEA2FB0075A3FB011415EB0C05DDF824
S31502002A3014C051EB0E06294644F100043246E3FB6C
S31502002A400012A3FB0003401956EB030044F10000F9
S31502002A50CCE900203846F0BD10B5DDF808C0CCF14F
S31502002A60400ECEF1200420FA0CF003FA0EF322FAFD
S31502002A7004F42343DCF1200458BF02FA04F302FAF9
S31502002A800EF201FA04F440EA040058BF0022BCF137
S31502002A90200458BF21FA04F021FA0CF158BF002194
S31502002AA01043194310BDD4D4F0B581B040F20816D4
S31502002AB0EFF31184C2F20026002585F31288012065
S31502002AC086F8600000F0A8F943F680404FF0004116
S31502002AD0CEF200009FED261A016044F2402184F3F3
S31502002AE01188C0F20F01B06900EE100A88425FEA4F
S31502002AF02F9186F86110B8EE400A96F8611080EEC2
S31502002B00012A81EE000A00299FED1A1A44F6D351D2
S31502002B1002FE000AC1F26201B6EE002AA0FB010122
S31502002B20A0EE012A8809BDEEC20A86ED160AF065F4
S31502002B30EFF3118785F31288756000F01DF8BFF375
S31502002B404F8FBFF36F8F00BFBFF34F8FBFF36F8FF0
S31502002B50044600F011F871682144401A706087F348
S31502002B601188C6E91255C6E9145501B0F0BD00BF79
S31502002B700024744900008047B0B543F27C0240F25B
S31502002B800813CEF20002C2F20023EFF3118C0020EA
S31502002B9080F31288106893F86010012943F6C04149
S31502002BA0CEF2000108D10968B1F1FF3F10DD002124
S31502002BB025E000BF00BF00BFEFF3108E72B60C68AF
S31502002BC0B4F1FF3F08DD002117E000BF00BF00BFE0
S31502002BD01068012113E000BF4FF0004041F8400C9D
S31502002BE00021EFF3118081F31288D3E912450135F2
S31502002BF0C3E9124580F3118810688EF31088D3E971
S31502002C0012258018D3E914246941821A71EB040251
S31502002C1006DAD3E914018CF31188B0BD00BF00BFF8
S31502002C20C3E914018CF31188B0BDD4D4D4D4D4D45E
S31502002C30F0B581B040F20816EFF31184C2F2002615
S31502002C40002585F3128886F8605000F0E5F843F611
S31502002C5080404FF00041CEF200009FED261A01603F
S31502002C6044F2402184F31188C0F20F01B06900EEEC
S31502002C70100A88425FEA2F9186F86110B8EE400A80
S31502002C8096F8611080EE012A81EE000A00299FED76
S31502002C901A1A44F6D35102FE000AC1F26201B6EED6
S31502002CA0002AA0FB0101A0EE012A8809BDEEC20A94
S31502002CB086ED160AF065EFF3118785F312887560C3
S31502002CC0FFF75AFFBFF34F8FBFF36F8F00BFBFF3FC
S31502002CD04F8FBFF36F8F0446FFF74EFF7168214493
S31502002CE0401A706087F31188C6E91255C6E9145571
S31502002CF001B0F0BD0024744900008047D4D4D4D476
S31502002D0010B54EF63050CEF200000068800647D568
S31502002D1043F68040CEF20000016CB1F1FF3F07DDC1
S31502002D20D0F88011C9B202291AD239E000BF00BF19
S31502002D3040F2081C4FF00041C2F2002C0160EFF392
S31502002D401181002282F31288DCE912320132CCE9C7
S31502002D50123281F31188D0F88011C9B202291FD329
S31502002D60026892070AD540F2701C0222C2F2002CB7
S31502002D700260DCE910320132CCE9103204290FD3A9
S31502002D80026812070AD540F2701C0822C2F2002C11
S31502002D900260DCE912320132CCE91232062903D290
S31502002DA010BD00BF00BF00BF026892060AD540F2FE
S31502002DB0701C2022C2F2002C0260DCE914320132BD
S31502002DC0CCE91432062908BF10BD08294FF0010CC0
S31502002DD05CEA3C9E40F27011C2F200210623F646DE
S31502002DE001F1580208E000BF01330832BEF1010EBC
S31502002DF002D1D5E700BF00BF0CFA03F1046C0C4206
S31502002E00F2D00160D2E9001411F5803144F10004D8
S31502002E10C2E90014E8E7D4D443F60040CEF200003B
S31502002E20D0F80012490458BF704770B543F60462E1
S31502002E30EFF3108CCEF2000272B64FF00043116827
S31502002E4021F00101116003620366116841F0040179
S31502002E501160C0F88030116841F002011160D0F8AB
S31502002E600012C9B2022954D34FF600044FF60405E4
S31502002E70CFF6FF74CFF6FF754FF0080E042940F81F
S31502002E8004E04FF01E0444514FF00305C0F8805091
S31502002E904FF00206066405603BD34FF6080513267B
S31502002EA0CFF6FF75062946514FF60C05CFF6FF758C
S31502002EB044514FF00C04C0F88040C0F840E0046072
S31502002EC027D34FF610060325CFF6FF76062985513E
S31502002ED04FF61406CFF6FF764FF01E0585514FF0DA
S31502002EE03006C0F880604FF020050564066010D0F9
S31502002EF008294FF0010151EA319E062400BF00BFA6
S31502002F0001FA04F50134C0F88050056405600FF03B
S31502002F1009C84EF6FC51CEF200010E6846F08076E4
S31502002F2046F444160E60036403601068002140F004
S31502002F300100106041F20000CEF2000001608CF345
S31502002F40108870BDD4D4D4D42DE9F04381B040F2B8
S31502002F5054004EF200184CF20036C2F200208021D4
S31502002F60CEF20008C4F20006FDF765FB40F2D40576
S31502002F7040F20819C2F2002548F6001145F2E07245
S31502002F80C2F20029C4F23501C0F20022C5E90821C5
S31502002F90A97843F249230020C9E90200C0F20023BE
S31502002FA028702863C5E90A3001F0FC000130A870D8
S31502002FB00820C8F88000BFF34F8FBFF36F8F4EF221
S31502002FC00141F068CEF2000120F48030F060C022A8
S31502002FD0F0688A70C9F83C500120C8F88000BFF337
S31502002FE04F8FBFF36F8F336823F4803333603368B8
S31502002FF088F80023C9F830500223C8F88030BFF39E
S315020030004F8FBFF36F8F736823F4803373607368D7
S315020030100A70C9F834500423C8F88030BFF34F8FC2
S31502003020BFF36F8FB36823F48033B360B3684A701B
S31502003030C9F83850EFF3108480F3108843F2040085
S31502003040C4F22000016821F48001016041F20021EE
S315020030500068C0F27A01D9F81800884214D344F203
S315020030603F21C0F20F0108444DF68361C4F21B31C1
S31502003070A0FB0101880C0001A0EB9140400070B951
S315020030800FE000BF00BF00BF4CF60021C3F69A3125
S31502003090B1FBF0F047F23051B1FBF0F008B100F0AD
S315020030A0FFFD84F310884FF48061686A00230022D2
S315020030B081604FF41241686AC1F61F72416140F2A3
S315020030C01401686AC2F2002109680161686A302146
S315020030D0C160686A8361696A286A4A6240F20012BC
S315020030E0696AC0F201020A63EB61C2692B61C5E932
S315020030F00533527CAB6092B34EF2540CC4F2010C0F
S315020031009CF8003003F00F04022C05D8012303FAC1
S3150200311004F411E000BF00BFE31E052B08D245F6FA
S315020031201454C0F2002454F8234005E000BF00BF47
S31502003130A4F1080310249C409CF8013040F22007B9
S31502003140C2F2002703F00F0357F82330D9F818709C
S315020031507A43B3FBF4F3B2FBF3F20132AA60102313
S315020031604FF6FF72C9F60753AA818B6690F90510CE
S315020031704A0901F01F0356F8210020F4803046F870
S31502003180210056F8210008F5C0700121BFF35F8FB8
S3150200319001FA03F340F8223048F822302A6A92F9FB
S315020031A00B2056F8223023F4803346F8223056F8A4
S315020031B02230530902F01F02BFF35F8F01FA02F2B7
S315020031C040F8232048F823202A6A92F9072056F865
S315020031D0223023F4803346F8223056F8223053093F
S315020031E002F01F02BFF35F8F01FA02F240F82320BA
S315020031F048F823202A6A92F9092056F8223023F445
S31502003200803346F8223056F82230530902F01F0264
S31502003210BFF35F8F914040F8231048F8231040F225
S315020032201141686AC0F201018160686A00BF00BF8D
S31502003230017FC907FCD044F64210C5F243306860EC
S3150200324001B0BDE8F083D4D4017904291AD140F241
S31502003250081C8068C2F2002CDCE902314A1C803A62
S3150200326052EA0192CCF80C209A4240F25403C2F27E
S315020032700023585418BF7047501C803850EA0290F9
S31502003280CCF808007047D4D440F2D401C2F200212F
S315020032904A6A1071486A00BF816C8900FCD5002019
S315020032A07047D4D4D4D4D4D42DE9F04182B040F2BC
S315020032B00817C2F20027D7E90250854205D100BF9E
S315020032C000BFD7E902508542FAD0A84210D940F28F
S315020032D054010138C2F20021F860495D8DF80710E9
S315020032E09DF8070002B0BDE8F08100BF00BF00BF35
S315020032F0401BC5F18004803040F25400C2F2002027
S315020033000DF1070800EB0501404622465FEA0F96DB
S31502003310FDF7B6F8A6420BD2A819B0F1800150EA21
S315020033201180B8609DF8070002B0BDE8F08100BFC9
S31502003330361B40F2540108EB0400C2F20021324669
S31502003340FDF79EF87019B8609DF8070002B0BDE857
S31502003350F081D4D4D4D4D4D4B0B545F2D90072B65F
S315020033604EF62855C0F20020CEF20005FDF787F989
S315020033706868002808D4686840000BD545F26530B5
S31502003380C0F2002004E000BF45F20200C0F20020B5
S31502003390FDF775F945F2FD30EFF30884C0F200201F
S315020033A0FDF76DF945F258102168C0F20020FDF7CD
S315020033B051F945F208106168C0F20020FDF74AF99A
S315020033C044F67470A168C0F20020FDF743F945F295
S315020033D0BB30E168C0F20020FDF73CF944F6EE602E
S315020033E02169C0F20020FDF735F945F2083061691E
S315020033F0C0F20020FDF72EF944F6E650A169C0F2AC
S315020034000020FDF727F944F6F450E169C0F20020E6
S31502003410FDF720F944F68270C0F20020FDF72FF97D
S3150200342044F6FC602968C0F20020FDF713F945F264
S31502003430E32055F8241CC0F20020FDF70BF945F2F3
S3150200344066106968C0F20020FDF704F944F60260CE
S31502003450C0F20020FDF713F944F6DF60EFF30581B1
S31502003460C0F20020FDF7F6F82868800118D4286813
S31502003470C0011ED42868C00224D42868000349D497
S31502003480286840034FD42868800355D42868C003AF
S315020034905BD42868C00561D400BEB0BD00BF00BFC2
S315020034A045F21610C0F20020FDF7E9F82868C001BF
S315020034B0E0D545F23610C0F20020FDF7E0F82868A4
S315020034C0C002DAD545F27F00C0F20020FDF7D7F838
S315020034D044F649602146C0F20020FDF7BBF845F2EA
S315020034E0F720EFF30A81C0F20020FDF7B3F845F2A8
S315020034F02040EFF30981C0F20020FDF7ABF844F655
S315020035001070EFF30B81C0F20020FDF7A3F82868D4
S315020035100003B5D545F22000C0F20020FDF7AFF852
S3150200352028684003AFD544F65A60C0F20020FDF782
S31502003530A6F828688003A9D545F24000C0F200200B
S31502003540FDF79DF82868C003A3D545F29430C0F272
S315020035500020FDF794F82868C0059DD544F69760CB
S31502003560C0F20020FDF78BF800BEB0BDD4D4D4D48F
S31502003570FFF7EAFCFFF75CFB28204FF48061C4F2F8
S315020035804000016001F02AFCFFF7F2FFD4D4D4D444
S31502003590B0B584B04FF07041EFF3038001EB0060E9
S315020035A04CF200328115C4F2000240F20815C2F252
S315020035B000258B5805EBA05023F480338B50895895
S315020035C0046B206A00690028606905D010B304B054
S315020035D0B0BD00BF00BF00BFE0B1A07800F003009D
S315020035E00228206908D10088616A20F4DC4048601C
S315020035F005E000BF00BF00BF616A00780871A078CD
S31502003600226900F003016069401A60611144216178
S315020036100028DCD1616A02228D68A06862F3155522
S3150200362010B100F03DFB616A8D60A06A00284FF080
S3150200363000002061CBD0E06A30B190E82E008DE820
S315020036402E0002E000BF00BF6846216A09780160C9
S315020036500021816080210171216BC160A16A8847C6
S31502003660E06A00281CBF9DE82E002EC004B0B0BD43
S3150200367010B586B04FF07041EFF3038001EB0060A6
S315020036804CF200328115C4F2000240F20814C2F272
S3150200369000248B5804EBA05023F480338B508958B6
S315020036A0046BA07800F00302606A022A24D1016842
S315020036B06FF35F21E069019118B3A06901A9FCF7D4
S315020036C0DFFEA078D4E9061200F003000144101AC6
S315020036D0C4E9061040D1A06A00283DD0E06A38B39A
S315020036E0D0E900C2D0E90231CDE90431CDE902C206
S315020036F01FE000BF00BF00BF0178E069019100280A
S31502003700DBD1A06A40B3E06A50B1D0E900CED0E97D
S315020037100223CDE90423CDE902CE02E000BF00BFB9
S3150200372002A8226A127881600260042107E000BFC3
S3150200373002A8216A097801600021816001210171D4
S31502003740216BC160A16A8847E06A28B102AC1ECC2F
S31502003750016042608360C46006B010BDD4D4D4D484
S31502003760B0B584B04FF07041EFF3038001EB006017
S3150200377040F20811C2F200214FF6EF7301EBA0519D
S31502003780CFF6CF7304160D6B696A8A681A408A608F
S31502003790A96AF9B1E86A58B1D0E900C2D0E90231A2
S315020037A0CDE90231CDE900C203E000BF00BF00BF90
S315020037B06846296A09780160002181600221017147
S315020037C0296BC160A96A8847E86A00281CBF9DE880
S315020037D02E002EC04CF20030C4F2000050F8241025
S315020037E021F4803140F8241050F8240004B0B0BD12
S315020037F070B584B04FF07041EFF3038001EB0060C7
S3150200380040F20811C2F2002101EBA0510C6BA17823
S31502003810636A01F00301022906D1D3F800C06FF3EF
S315020038205F2C03E000BF00BF93F800C09A6C20250E
S31502003830082105EAD2454FF0100E01EA12611EEA8E
S31502003840126229440A4403D0996C090458BF4032D3
S31502003850996E051641F0C8519966A16AE9B1E06A06
S3150200386050B1D0E900E3D0E90216CDE90216CDE95E
S3150200387000E302E000BF00BF6846216A0978C0F88B
S3150200388008C001600271216BC160A16A8847E06AC3
S3150200389000281CBF9DE84E004EC04CF20030C4F218
S315020038A0000050F8251021F4803140F8251050F818
S315020038B0250004B070BDD4D42DE9F0410446416020
S315020038C000200D46207340F20818087C41F20001E0
S315020038D0C4F22201C2F2002801EB0027A7600120F0
S315020038E0EFF3108680F31088297CC1F10501884028
S315020038F043F20C01C4F220010A6822EA00000860C1
S31502003900086841F20021C0F27A01D8F8180088420C
S3150200391012D344F23F21C0F20F0108444DF68361EF
S31502003920C4F21B31A0FB0101880C0001A0EB9140FF
S31502003930400060B90DE000BF4CF60021C3F69A3193
S31502003940B1FBF0F047F23051B1FBF0F008B100F0F4
S31502003950A7F986F310880020387200BF00BF00BFA7
S31502003960387A8007FCD44FF0000C87F80AC0E86961
S31502003970277BA3680678C2780179502E05D03EB916
S31502003980287A48B1202686EA0016002006E000BF03
S31502003990287A03E000BF00BF00200026002F4FF068
S315020039A0080718BF0C2702F007023B44324319717D
S315020039B083F806C05A709870606869682161007C55
S315020039C008EB8000C161207B0128A1F1010007D12B
S315020039D0A168086095F91200002807D52CE000BFFF
S315020039E0A168088095F91200002825D44EF200112C
S315020039F06A7CCEF2000108EB80074318120183F8B5
S31502003A0000234CF20032C4F200023C63012752F852
S31502003A10203023F4803342F8203052F82020420925
S31502003A2000F01F00BFF35F8F01EB820307FA00F07D
S31502003A30C3F8800141F8220068696061A869002123
S31502003A40A16144F25471C0F24101E0612160BDE816
S31502003A50F081D4D4D4D4D4D42DE9F041027B836846
S31502003A60002A4FF0080218BF0C2200BF00BF00BF99
S31502003A709C5C84EA5404E407FAD102698A604268CB
S31502003A80D3691B78502B2FD1127C40F2081CC2F24C
S31502003A90002C013AD2B20CEB8202D269002A53D030
S31502003AA0037B8068002B4FF0080318BF0C230344E6
S31502003AB013F8FF0CC0F3021003284DD84EF220046F
S31502003AC0C4F201042568A488C5F3032E44EA15232B
S31502003AD004F00F041B076FD4DCF81830A34023FA56
S31502003AE00EF382E000BF00BF027B8068002A4FF01F
S31502003AF0080218BF0C2202445078C0F302100328B1
S31502003B001AD84EF22002C4F2010213689288C3F355
S31502003B10032C42EA132702F00F023F0724D440F295
S31502003B200813C2F200239B6903FA02F222FA0CF28C
S31502003B3036E000BF00BF00BF90784FF4004200F0AD
S31502003B40070031E000BF00BF002048600020087077
S31502003B50BDE8F08100BF00BFA3F580704FF40043BB
S31502003B60807800F0070044E002F00707032606FA11
S31502003B7007F701251C0A082A38BF05FA02F704F0DE
S31502003B80070240F20814C2F2002406FA02F21B05EA
S31502003B90A66906FB07F358BF05FA0CF2B3FBF2F26D
S31502003BA0002818BF80F0020022FA00F048600020C8
S31502003BB00870BDE8F08100BF04F0070303262F0A50
S31502003BC006FA03F34FF00108082C38BF08FA04F38B
S31502003BD007F00704DCF818707B4306FA04F42E0596
S31502003BE058BF08FA0EF4B3FBF4F3002818BF80F0AE
S31502003BF0020023FA00F0B0FBF2F0486000200870E1
S31502003C00BDE8F081D4D4D4D470B584B04FF07041FD
S31502003C10EFF3038001EB00604CF200328115C4F22F
S31502003C20000240F208160824C2F200268B5806EB60
S31502003C30A05023F480338B508958066B307B0028C2
S31502003C40D6E9010518BF0C24295D0078012804D1A4
S31502003C5001F0F001F420285529557069A8B1B06920
S31502003C60D0B1D0E900C382680392CDE901C38906C7
S31502003C7001D500210171F169016071698847B06956
S31502003C8010B101AB0ECB0EC0295D01F00F00285515
S31502003C9004B070BD00BF00BF01A88906E9D4EAE7F7
S31502003CA001380028FCD170474CF22010C4F2000003
S31502003CB050F8201C0268114040F8101C00BF00BFDB
S31502003CC002680A42FCD1704700F00AF8FFF75CFC72
S31502003CD000BE7047D4D4D4D4D4D4D4D4D4D4D4D477
S31502003CE02DE9F04F83B04EF6145440F20120CEF285
S31502003CF00004C0F20E004EF200062060CEF201066B
S31502003D00BFF34F8FBFF36F8F54F8141CC1F30350E8
S31502003D1001285FEA1F9211F00F0F5FEA0F9111421D
S31502003D20316811D102280FD241F0040030604EF200
S31502003D300800BFF34F8FCEF20000BFF36F8F01680A
S31502003D4041F48031016002E021F004003060BFF3EB
S31502003D504F8F4EF2FA324FF47000BFF36F8F6067E7
S31502003D6040F20000C4F20102C0F2002044F80C0C3A
S31502003D704AF20250CFF6FF7040F220070FF6C0411A
S31502003D8001301080C2F200270FF6C44091ED001FE9
S31502003D904EF2550A07F1200387ED001FC4F2010A0D
S31502003DA048F2004190ED001F43F6000044F25532FE
S31502003DB0C1F69C4087ED041FC1F2D771C1F2DE3213
S31502003DC007C31AF82F0C3AF8311C01F00F02A2F1C0
S31502003DD00801032934D8DFE801F003270F1B00BFCF
S31502003DE04AF6AB2157F82000CAF6AA21A0FB010128
S31502003DF0480828E000BF00BF4AF6AB2157F820006A
S31502003E00CAF6AA21A0FB0101C8081CE000BF00BF38
S31502003E104AF6AB2157F82000CAF6AA21A0FB0101F7
S31502003E20080910E000BF00BF4AF6AB2157F8200090
S31502003E30CAF6AA21A0FB0101880804E000BF00BF60
S31502003E4057F82000D04040F2081C4EF60045C2F258
S31502003E50002CC4F201050A214EF64C49CCF8180092
S31502003E604FF65060CFF6FF704DF68368C4F2010933
S31502003E70C4F21B38295409208AF84D00287818B94B
S31502003E8019F84B0C800732D0287860BB41F2FF113B
S31502003E9001202870C0F27A01DCF8180088420BD99A
S31502003EA044F23F21C0F20F010844A0FB0801880C2E
S31502003EB0C821484368B913E04CF60021C3F69A318B
S31502003EC0B1FBF0F040F64051C0F20301B1FBF0F055
S31502003ED030B1FFF7E5FE40F2081CC2F2002C00BF2B
S31502003EE028780128FCD1002009F84B0C2870002004
S31502003EF00AF8230C00BF00BF1AF8190C0007FBD5FD
S31502003F0042F602314FF60210CAF8730040F24150EF
S31502003F102AF8070C0020C0F201010AF80B0CCAF8B5
S31502003F20571040F283412AF8091C41F2FF13BFF3EE
S31502003F304F8FBFF36F8F2168C0F27A0321F40031ED
S31502003F402160C4F83C02BFF34F8FBFF36F8F306816
S31502003F5020F440503060BFF34F8FBFF36F8F1AF8D3
S31502003F60410C00F0F80001300AF8410C00BF00BF16
S31502003F701AF8410CC006FBD4306840F44050306059
S31502003F80BFF34F8FBFF36F8F2068800312D4BFF346
S31502003F904F8FBFF36F8F0020C4F83C02BFF34F8FE1
S31502003FA0BFF36F8F206840F400302060BFF34F8F5D
S31502003FB0BFF36F8F00200AF82B0C00BF00BF00BFB3
S31502003FC01AF8190C8006FBD54CF200040020C4F244
S31502003FD0130420702078207820786068C82807D0DB
S31502003FE0C820C1F6006000BF60606168C829FBD1C5
S31502003FF0A068642808D06420CEF2001000BF00BF7B
S31502004000A060A1686429FBD149F69820C9F6890007
S315020040104AF8350C48F680002AF8310C05200AF8D1
S315020040202F0C1AF82F0C3AF8311C01F00F02A2F1EC
S315020040300801032950D8DFE801F00333132300BF38
S315020040404AF6AB2157F82000CAF6AA21A0FB0101C5
S3150200405048089842CCF818002FD844E000BF00BFA9
S315020040604AF6AB2157F82000CAF6AA21A0FB0101A5
S31502004070C8089842CCF818001FD834E000BF00BF29
S315020040804AF6AB2157F82000CAF6AA21A0FB010185
S3150200409008099842CCF818000FD824E000BF00BFE8
S315020040A04AF6AB2157F82000CAF6AA21A0FB010165
S315020040B088089842CCF8180015D944F23F21C0F27C
S315020040C00F010844A0FB0801880C0001A0EB9140F7
S315020040D0400098B918E000BF57F82000D040984237
S315020040E0CCF81800E9D84CF60021C3F69A31B1FB98
S315020040F0F0F047F23051B1FBF0F028B1FFF7D0FDF6
S3150200410040F2081CC2F2002C60686FF39F206528FB
S3150200411001D3012020701AF82F0C3AF8311C01F055
S315020041200F02A2F10801032936D8DFE801F00529BA
S31502004130111D00BF00BF00BF4AF6AB2157F8200091
S31502004140CAF6AA21A0FB0101480828E000BF00BF69
S315020041504AF6AB2157F82000CAF6AA21A0FB0101B4
S31502004160C8081CE000BF00BF4AF6AB2157F8200082
S31502004170CAF6AA21A0FB0101080910E000BF00BF90
S315020041804AF6AB2157F82000CAF6AA21A0FB010184
S31502004190880804E000BF00BF57F82000D04042F272
S315020041A00001CCF81800C4F200014AF202500138AC
S315020041B008800120BFF35F8F08724FF42540BFF3DA
S315020041C05F8F08809AF8850040F040008AF88500E3
S315020041D09AF98500B0F1FF3FFADC01208AF87F00E8
S315020041E0C7208AF885009AF8850000F0BF008AF891
S315020041F0850000BF00BF00BF9AF985000028FBD4E6
S3150200420001200AF8020C9AF81F0040F040008AF8D2
S315020042101F0000BF00BF00BF9AF91F00B0F1FF3FA9
S31502004220FADC07208AF8170048208AF81F000820BF
S315020042308AF81F0000BF00BF9AF91F000028FBD4AE
S315020042404EF2FA3143F20406C4F20101C4F2200628
S315020042504FF0010B002508884FF4803702904AF28E
S31502004260025001244FF00009013008800BE000BF24
S315020042700BFA09F088F310880543E0074FF00109AD
S315020042804FF000043CD007FA09F031680142F4D13C
S31502004290EFF310888BF310883168084341F2FF115F
S315020042A03060C0F27A013068DCF81800884213D90F
S315020042B044F23F21C0F20F0108444DF68361C4F275
S315020042C01B31A0FB0101880C0001A0EB91404000CC
S315020042D070B9CDE700BF00BF4CF60021C3F69A3194
S315020042E0B1FBF0F047F23051B1FBF0F00028BFD03D
S315020042F0FFF7D6FC40F2081CC2F2002CB8E700BF5A
S315020043009AF8200040F22001C2F2002100F00F00CC
S3150200431051F820009AF8181001F00F01022907D867
S3150200432001224DF6836302FA01F1C4F21B3313E054
S31502004330CA1E4DF68363052AC4F21B3308D245F61C
S315020043401451C0F2002151F8221005E000BF00BF4F
S315020043500839102202FA01F1B0FBF1F0DCF818106C
S31502004360A0FB030241F2FF10C0F27A0081424FEA3B
S3150200437092400DD944F23F22C0F20F021144A1FB32
S315020043800312910C4843400070B913E000BF00BF0E
S315020043904CF60022C3F69A32B2FBF1F14FF4FA62FE
S315020043A05043B0FBF1F028B1FFF77AFC40F2081C4B
S315020043B0C2F2002C9AF8200040F040008AF8200051
S315020043C09AF92000B0F1FF3FFADC01208AF81800C2
S315020043D04A208AF820000A208AF8200000BF00BF7F
S315020043E09AF920000028FBD400204FF0010B4FF46D
S315020043F0803947F2305801240AE000BF00BF00BFEF
S3150200440087F31088E0074FF001004FF000043FD019
S3150200441025FA00F1C907F5D0EFF310878BF3108860
S3150200442009FA00F0316821EA000041F2FF1130601A
S31502004430C0F27A013068DCF81800884214D944F2D6
S315020044403F21C0F20F0108444DF68361C4F21B31CD
S31502004450A0FB0101880C0001A0EB9140400068B965
S31502004460CEE700BF00BF00BF4CF60021C3F69A316B
S31502004470B1FBF0F0B8FBF0F00028C1D0FFF710FC5A
S3150200448040F2081CC2F2002CBAE700BF00BF00BF10
S315020044904EF2FA310298C4F2010140F42540088036
S315020044A09AF8000040F040008AF8000000BF00BF02
S315020044B09AF90000B0F1FF3FFADC02200AF8010C7B
S315020044C0C8208AF800009AF800004EF614534EF2FD
S315020044D000064EF60045CEF20003CEF20106C4F205
S315020044E0010500F0BF008AF8000000BF00BF00BF50
S315020044F09AF900000028FBD49AF8020040F0400026
S315020045008AF8020000BF00BF9AF90200B0F1FF3F2D
S31502004510FADC00208AF80100C7208AF802009AF81D
S31502004520020000F0BF008AF8020000BF00BF00BF11
S315020045309AF902000028FBD44EF2FA374FF42540CE
S31502004540C4F201074AF202510022388039804FF63E
S31502004550B061CFF6FF716A54388040F20000C2F2B1
S31502004560000080F30A883068800725D553F80C0CC2
S31502004570B0F1007F20D130694FF40071C0F3C3005F
S31502004580726901FA00F3C2F3C30081400020DA081F
S31502004590CB080146074642F007C800BF00BF00BF6E
S315020045A0E7E802010FF005C04FF0005243F005C0E4
S315020045B0E2E802010FF005C045F600304EF64C4720
S315020045C0C0F200200B2400F1040BC4F201075D4681
S315020045D006E000BF00BF00BF013C05F10C050FD08D
S315020045E068790028F8D155E90101091AFCF723F880
S315020045F040F2081CC2F2002CEEE700BF00BF00BF6B
S3150200460045F684301924C0F2002000F108094D460F
S3150200461006E000BF00BF00BF013C05F110050FD048
S3150200462068790028F8D155E902022968121AFBF7BF
S3150200463027FF40F2081CC2F2002CEDE700BF00BFC4
S315020046401AF82F0C3AF8311C01F00F02A2F10801F8
S31502004650032949D841F2FF13C0F27A03DFE801F0D9
S315020046600434142400BF00BF40F22001C2F200212C
S3150200467051F820004AF6AB21CAF6AA21A0FB010195
S3150200468048083CE000BF00BF40F22001C2F2002110
S3150200469051F820004AF6AB21CAF6AA21A0FB010175
S315020046A0C8082CE000BF00BF40F22001C2F2002180
S315020046B051F820004AF6AB21CAF6AA21A0FB010155
S315020046C008091CE000BF00BF40F22001C2F200212F
S315020046D051F820004AF6AB21CAF6AA21A0FB010135
S315020046E088080CE000BF00BF40F2200141F2FF1330
S315020046F0C2F20021C0F27A0351F82000D04042F201
S315020047002404CCF81800C4F2200400202071DCF83E
S315020047101800984210D944F23F21C0F20F01084412
S315020047204DF68361C4F21B31A0FB0101880CC8213E
S31502004730484370B913E000BF4CF60021C3F69A3124
S31502004740B1FBF0F040F64051C0F20301B1FBF0F0CC
S3150200475028B1FFF7A5FA40F2081CC2F2002C00208D
S31502004760207000BF00BF00BF207808B12FF005C03F
S31502004770207840F00200207020788007FCD40020C8
S3150200478004F8020C00BF00BF14F8020C08B12FF0A7
S3150200479005C84FF0030E002004F11C0600BF00BF3F
S315020047A016F8101001F07F0106F8101000BF00BFC6
S315020047B016F910100029FBD401300FF00FC80121A1
S315020047C0EFF3108081F31088BCF8261041B94EF23F
S315020047D0FA324AF20253C4F20102118819431180D5
S315020047E0BCF826100131ACF8261080F310880020A0
S315020047F038700121EFF3108081F31088BCF826107F
S3150200480021B1BCF826100139ACF82610BCF82610E6
S3150200481049B94EF2FA32C4F20102118841F4254135
S3150200482021F00201118080F310880121EFF310803C
S3150200483081F31088BCF82A1049B94EF2FA334AF2CB
S315020048400252C4F201030E32198811431980BCF8D0
S315020048502A104FF00E0E0131ACF82A1080F31088A0
S3150200486040F61450C4F240001C30002100BF00BFC5
S3150200487020F8041B0FF005C00121EFF3108081F32D
S315020048801088BCF82A1021B1BCF82A100139ACF8FC
S315020048902A10BCF82A1049B94EF2FA32C4F20102C1
S315020048A0118841F4254121F01001118080F310880E
S315020048B00121EFF3108081F31088BCF82A1049B960
S315020048C04EF2FA334AF20252C4F201030E32198848
S315020048D011431980BCF82A100131ACF82A1080F372
S315020048E0108844F20400C4F22000002101604160F5
S315020048F08160C1600121EFF3108081F31088BCF85A
S315020049002A1021B1BCF82A100139ACF82A10BCF8D9
S315020049102A1049B94EF2FA32C4F20102118841F460
S31502004920254121F01001118080F310880B244FF4E9
S31502004930807505E000BF00BF013C0BF10C0B0BD0EC
S315020049409BF80500B5EB002FF6D15BE90101091AC8
S31502004950FBF771FEF0E700BF19244FF4807503E000
S31502004960013C09F110090FD099F80500B5EB002FAB
S31502004970F6D159E90202D9F80010121AFBF780FDA6
S31502004980EEE700BF00BF00BF40F2D814C2F2002417
S315020049902046FBF738FE2046FBF751FE4EF6145131
S315020049A00020CEF20001BFF34F8FBFF36F8FC1F825
S315020049B03C0245F6845045F68851C0F20020C0F20A
S315020049C00021BFF34F8F081ABFF36F8F8410012C9B
S315020049D00BDB45F68455C0F2002500BF00BF00BFC1
S315020049E055F8040B8047013CFAD140F2081341F214
S315020049F0FF1500214FF0010AC2F20023C0F27A0528
S31502004A00019607E000BF00BF0299019E01315B29B2
S31502004A1000F0F68045F6000045F6D824C0F20020E4
S31502004A204FF0000900EBC10BC0F200240291BBF863
S31502004A3004801BE000BF00BF00BF00BF00BF00BF75
S31502004A40006CDC0200127A000080000000366E0163
S31502004A50008000000046C32300CA9A3BAA02E50F63
S31502004A6009F101090236B9F1030FCDD034F8020B70
S31502004A708045F5D1DBF800003A7800F0B8510AFA21
S31502004A8009F0B1F1807F00EA020109D100295BD069
S31502004A9096F90000002840F19280E1E700BF00BFCE
S31502004AA0B1B3EFF310818AF31088DA8C82B94EF231
S31502004AB0FA354AF20257C4F201052A883A434EF6FB
S31502004AC04C472A8041F2FF15C4F20107C0F27A056B
S31502004AD0DA8C0132DA8481F31088397821EA00000F
S31502004AE03870EFF310808AF31088D98C11B1D98C03
S31502004AF00139D984D98C49B94EF2FA32C4F201028B
S31502004B00118841F4254121F00201118080F31088B9
S31502004B1096F90000B0F1FF3FA2DC307800F07F008A
S31502004B2030709869A84251D84CF60021C3F69A31E2
S31502004B30B1FBF0F040F64051C0F20301B1FBF0F0D8
S31502004B40002854D18CE700BFEFF310818AF3108856
S31502004B50DA8C82B94EF2FA354AF20257C4F20105EC
S31502004B602A883A434EF64C472A8041F2FF15C4F290
S31502004B700107C0F27A05DA8C0132DA8481F31088F1
S31502004B80397808433870EFF310808AF31088D98C8D
S31502004B9011B1D98C0139D984D98C49B94EF2FA327C
S31502004BA0C4F20102118841F4254121F0020111806B
S31502004BB080F3108896F9000000283FF551AF30784F
S31502004BC040F0800030709869A842ADD944F23F2186
S31502004BD0C0F20F0108444DF68361C4F21B31A0FBFB
S31502004BE00101880CC821484300283FF439AFFFF77A
S31502004BF057F840F20813C2F2002331E700BF00BFA4
S31502004C000121EFF3108081F31088596939B940F612
S31502004C1014520021C4F240021170402111705969E8
S31502004C204FF05B0E0131596180F3108845F60000A2
S31502004C30F64640F6000CC0F200204EF61454C4F2BA
S31502004C40400C011DCEF200040EE000BF00BF00BF03
S31502004C500CEB8717083147F82020BEF1010E03D16D
S31502004C601AE000BF00BF00BF088851F8042CD70322
S31502004C704FEA1027C0B2EBD50CEB871656F8205038
S31502004C8025F4803546F8205022F4803546F8205027
S31502004C90DEE700BF00BF00BF0121EFF3108081F302
S31502004CA01088596911B1596901395961596939B976
S31502004CB040F614520021C4F2400211708021117094
S31502004CC080F310884FF0060E42F20000C4F2000094
S31502004CD045F6285100F52340C0F2002100BF00BF6F
S31502004CE031F8022B40F8042B0FF007C0D4F8AC00C1
S31502004CF0442161F30700C4F8AC00E06FC0F307205B
S31502004D0040B345F6E0210022C0F20021002704311B
S31502004D10002300BF00BF00BF0D68202D13D351F83A
S31502004D20046C25F01F0526F01F06203DB5420AD366
S31502004D30013345F0010546F00106C4F88470C4F853
S31502004D408860C4F88C50022A04D8DFB201320831D6
S31502004D50B842E1D8BFF35F8F0520C4F8800020690E
S31502004D6040F480302061BFF34F8FBFF36F8F20680E
S31502004D70C0032FD400202067BFF34F8FE16E43F6A6
S31502004D80E073C1F34E30CA08C1F3C9014F1C910743
S31502004D90420100BF00BF00BF02EA030647F001E07E
S31502004DA00E4400BF00BF00BFC4F84C6206F1404685
S31502004DB00FF007C00028A0F10100A2F12002EBD1FA
S31502004DC0BFF34F8F206840F480302060BFF34F8FCF
S31502004DD0BFF36F8F03B0BDE8F08FD4D440F2E10C7D
S31502004DE0C0F2000C604750433A2020307825303814
S31502004DF0580D0A005053523A203078253038580D53
S31502004E000A003D3D3D3D3D3D3D3D204F7468657286
S31502004E10205265676973746572203D3D3D3D3D3D97
S31502004E203D3D0D0A000D0A0D0A4F6E652D53686F42
S31502004E3074206D6F6465204147542074696D6572F4
S31502004E4020656C6170736564004D53503A202020D2
S31502004E50203078253038580D0A00436865636B6543
S31502004E6064204572726F723A20496E76616C69648B
S31502004E702050430D0A000D0A506572696F6469631A
S31502004E80206D6F646520706572696F642073657446
S31502004E903A203230303A00436865636B65642045D8
S31502004EA072726F723A20496E737472756374696FA7
S31502004EB06E20427573204572726F720D0A000D0ADA
S31502004EC04F6E652D53686F74206D6F646520706533
S31502004ED072696F64207365743A203130303000494C
S31502004EE05053523A203078253038580D0A00523144
S31502004EF0323A203078253038580D0A005343422D75
S31502004F003E435346523A203078253038580D0A002F
S31502004F105053504C494D3A203078253038580D0AB6
S31502004F20000D0A456E74657220616E79206B657993
S31502004F3020746F2073746F70207468652074696DB5
S31502004F4065720D000D0A456E74657220616E7920D8
S31502004F506B657920746F207374617274206F72208E
S31502004F6073746F70207468652074696D657273005E
S31502004F70696E660052323A20203078253038580D54
S31502004F800A003D3D3D3D3D3D3D3D3D2053434220D2
S31502004F905265676973746572203D3D3D3D3D3D3DF9
S31502004FA03D3D0D0A000D0A414754302069732045E4
S31502004FB06E61626C656420696E204F6E652D536862
S31502004FC06F74206D6F6465000D0A506572696F64B7
S31502004FD069632074696D65722073746F707065649D
S31502004FE02E20456E74657220616E79206B6579207C
S31502004FF0746F2073746172742074696D6572732E96
S315020050000D00486172644661756C74206F63637546
S31502005010727265642062792044454255470D0A0042
S31502005020436865636B6564204572726F723A204EFF
S315020050306F20436F70726F636573736F720D0A0030
S31502005040436865636B6564204572726F723A2049E4
S315020050506E76616C69642053746174650D0A000D85
S315020050600A456E74657220616E79206B65792074CB
S315020050706F2073746F702074696D6572730D0043CF
S315020050806865636B6564204572726F723A20537469
S3150200509061636B204F766572666C6F770D0A000D41
S315020050A00A4F6E652D53686F742074696D657220A0
S315020050B073746F707065642E20456E74657220611C
S315020050C06E79206B657920746F2073746172742017
S315020050D074696D6572732E0D003D3D3D3D3D3D3D4E
S315020050E03D3D3D3D3D3D3D3D20496E20486172645A
S315020050F04661756C74203D3D3D3D3D3D3D3D3D3D2A
S315020051003D3D3D3D3D0D0A0052313A202030782585
S315020051103038580D0A00436865636B656420457232
S31502005120726F723A20446976696465204279205A20
S3150200513065726F0D0A00436865636B65642045728C
S31502005140726F723A20556E616C69676E65642041B2
S3150200515063636573730D0A0052303A202030782556
S315020051603038580D0A005343422D3E484653523AB0
S31502005170203078253038580D0A000D0A54686973B4
S31502005180206578616D706C652070726F6A656374F4
S315020051902064656D6F6E73747261746573207468D2
S315020051A0652066756E6374696F6E616C69747920C9
S315020051B06F662041475420696E20506572696F649C
S315020051C06963206D6F646520616E64204F6E652D84
S315020051D053686F74206D6F64652E0D0A4F6E2070D2
S315020051E0726F766964696E6720616E7920696E7086
S315020051F07574206F6E207468652052545420566967
S31502005200657765722C20414754206368616E6E652E
S315020052106C20302073746172747320696E204F6E35
S31502005220652D53686F74206D6F64652E2041475457
S31502005230206368616E6E656C20310D0A737461724B
S31502005240747320696E20506572696F646963206D9C
S315020052506F6465207768656E2041475420636861F4
S315020052606E6E656C203020657870697265732E20CB
S3150200527054696D657220696E20506572696F646942
S3150200528063206D6F6465206578706972657320703E
S315020052906572696F646963616C6C790D0A61742069
S315020052A0612074696D6520706572696F6420737020
S315020052B0656369666965642062792074686520752C
S315020052C073657220616E6420746F67676C65732004
S315020052D0746865206F6E2D626F617264204C45445E
S315020052E02E0D005343422D3E494353523A20307805
S315020052F0253038580D0A004D53504C494D3A20304E
S3150200530078253038580D0A004C523A20203078253C
S315020053103038580D0A006E616E000D0A0D0A4147BB
S31502005320543120697320456E61626C656420696E32
S3150200533020506572696F646963206D6F6465000D44
S315020053400A4C45442077696C6C20746F67676C65FC
S3150200535020666F72207365742074696D65207065AE
S3150200536072696F6400486172644661756C74206F7D
S3150200537063637572726564206279206F7468657200
S3150200538020657863657074696F6E20666F726365F7
S31502005390640D0A00436865636B6564204572726F2B
S315020053A0723A20556E646566696E656420496E734D
S315020053B07472756374696F6E0D0A0052333A202057
S315020053C03078253038580D0A000D0A0D0A41475427
S315020053D03120697320616C72656164792072756E21
S315020053E06E696E6720696E20506572696F646963C3
S315020053F0206D6F646500286E756C6C29003D3D3D1D
S315020054003D3D3D3D3D3D3D204D535020537461632E
S315020054106B20203D3D3D3D3D3D3D3D3D3D0D0A0060
S315020054205053503A202020203078253038580D0A23
S3150200543000D4D4D4D4D4D4D4000000000000000098
S315020054400000000000000010000000000000000044
S31502005450B9340332B7F4AD1410DB1AB30892540E02
S315020054600D307D951447BA1A66088F4D26ADC66D66
S31502005470F598BF85E2B74511CA96853D92BD1DEBEB
S31502005480FCA11860DCEF52163C92AE220BB8C1B4F6
S31502005490839D2D5B0562DA1C304C7E8F4E8BB25B90
S315020054A016F4529F8B56A512FBD4827643ED8AF0F0
S315020054B08FE7F9311565191850F19BD94A13EEB4E5
S315020054C0284CF0A686C1251F035FC270CB9E4916E3
S315020054D0E642889C44EB2014B0650836AD6EA5857D
S315020054E085F0CA14E2FD031A0B899979D5B13D09F3
S315020054F0D8DA973A35EBCF10AC363F5E73BB38CF6E
