:020000040200F8
:10000000A0040022913B0002613A0002A13B0002E1
:10001000A13B0002A13B0002A13B0002A13B000268
:10002000000000000000000000000000A13B0002F2
:100030004904000200000000A13B0002A13B0002B5
:10004000912D0002C12C0002692E0002F12E000247
:100050000100000000000300C9070002E9070002D8
:0800600000000000400900004F
:1000700083B0B0B581B0044605A840F2D045C2F2C5
:1000800000250EC005AB4FF4807128462246009330
:1000900005F039FB287878B146F2E8610135C0F205
:1000A00000210C6800BF00BF214604F077F915F865
:1000B000010B08B12FF009C001B0BDE8B04003B09A
:1000C0007047D4D4D4D4D4D42DE9F04383B00F46B0
:1000D000054602A801A99846914600F03DFC46F26B
:1000E000FD50DDE90121C0F20020FFF7C1FF46F21B
:1000F000E860C0F200200468DFE805F00232122256
:1001000046F2E9500626C0F20020451C442000BFFC
:10011000214604F043F915F8010B013EF8D12EE019
:1001200046F21C600626C0F20020451C572000BF86
:10013000214604F033F915F8010B013EF8D11EE019
:1001400046F26C600626C0F20020451C452000BF28
:10015000214604F023F915F8010B013EF8D10EE019
:1001600046F2E2500626C0F20020451C492000BF9E
:10017000214604F013F915F8010B013EF8D17FB1C7
:10018000387848B17D1C00BF214604F007F915F806
:10019000010B08B12FF009C02020214604F0FEF821
:1001A00046F289600426C0F20020451C3D2000BFB5
:1001B000214604F0F3F815F8010B013EF8D140F2A6
:1001C000D0474FF48071C2F200274A463846434672
:1001D00005F099FA40F20000C2F200200178387868
:1001E000D1B148B17D1C00BF214604F0D7F815F805
:1001F000010B08B12FF009C046F244600226C0F29C
:100200000020451C0D2000BF214604F0C7F815F85A
:10021000010B013EF8D10BE050B17D1C00BF00BFC7
:10022000214604F0BBF815F8010B08B12FF009C006
:1002300003B0BDE8F083D4D482B080B582B08C46E0
:100240000146CDE9042304AB032062460193FFF786
:100250003BFF02B0BDE8804002B07047D4D4D4D494
:1002600080B500F01DFA40F2D85CEFF3118EC2F2B7
:10027000002C002383F31288DCE90032C0185141BE
:10028000013041F10001CCE900018EF3118880BDFD
:100290007047D4D4D4D4D4D42DE9F0410020EFF366
:1002A000118880F3128800F0FFF940F2D857044615
:1002B000C2F200270D463A7E012A0ED100F03CF929
:1002C00058B300F0F1F904460D4600F0E9F90019C1
:1002D0006941441C41F100051FE0EFF3108672B63E
:1002E00000F02AF9B8B100F02FF900F0D9F9002296
:1002F000EFF3118382F31288D7E900258018694152
:10030000013041F10001C7E9000183F3118800F0D9
:10031000CBF904460D4686F31088D7E90001001991
:10032000D7E902236941821A71EB030205DAD7E9A2
:10033000020188F31188BDE8F081C7E9020188F362
:100340001188BDE8F081D4D42DE9F04381B040F2AA
:10035000D857EFF31185C2F200274FF0000989F357
:100360001288387600F0F8F8804600F0EDF885F352
:10037000118800F095F900F08BF944F2402100EE6D
:10038000100AC0F20F01B8EE400A9FED241A40F2A5
:10039000D05688425FEA2F91797680EE012A797EE5
:1003A00081EE000A9FED1E1AC2F20026002944F6D3
:1003B000D351C1F2620102FE000AA0FB0101B6EEB8
:1003C000002AA0EE012A8809BDEEC20A87ED040AC0
:1003D0007861EFF3118489F31288C6F80090FFF773
:1003E0005BFFBFF34F8FBFF36F8F00BFBFF34F8F24
:1003F000BFF36F8F0546FFF74FFF31682944401A5E
:10040000306084F31188C7E90099C7E90299FFF7C2
:100410003FFF404601B0BDE8F08300BF00247449AF
:1004200000008047D4D4D4D40120FFF78DBFD4D4AA
:1004300080B540F2D8520023C2F20022526903F084
:100440003DFD80BDD4D4D4D400F002B8D4D4D4D4EB
:1004500010B54EF63050CEF200000068800631D55F
:1004600043F68044CEF20004206CB0F1FF3F04DC80
:100470004FF000402060FFF7F3FED4F88001C0B2D7
:1004800002281FD3216889070AD50221216040F282
:10049000F851C2F20021D1E900230133C1E9002360
:1004A00004280FD3216809070AD50821216040F2EA
:1004B000F851C2F20021D1E902230133C1E902233C
:1004C000062800D210BD216889060AD520212160A6
:1004D00040F2F851C2F20021D1E904230133C1E90D
:1004E0000423062808BF10BD08284FF0010C5CEA61
:1004F0003C9E40F2F851C2F200210622F646183125
:1005000008E000BF00BF00BF01320831BEF1010E9C
:1005100000D1D7E70CFA02F3206C1842F4D0236024
:10052000D1E9000310F5803043F10003C1E9000375
:10053000EAE7D4D4D4D4D4D443F6C040CEF20000F9
:100540000068C00F7047D4D443F680404FF000419C
:10055000CEF200000160704743F60041CEF2000188
:10056000D1F80002420440F18E80F0B543F60463F6
:10057000EFF3108CCEF2000372B64FF000461A680B
:1005800022F001021A600E620E661A6842F004023E
:100590001A60C1F880601A6842F002021A60D1F84D
:1005A0000022D2B2022A54D34FF600054FF60404BB
:1005B000CFF6FF75CFF6FF744FF0080E042A41F80E
:1005C00005E04FF01E050D514FF00304C1F88040C7
:1005D0004FF002070F640C603BD34FF6080413275B
:1005E000CFF6FF74062A0F514FF60C04CFF6FF74B6
:1005F0000D514FF00C04C1F88040C1F840E00C6090
:1006000027D34FF610070325CFF6FF77062ACD51E3
:100610004FF61407CFF6FF774FF01E05CD514FF080
:100620003007C1F880704FF020050D640F6010D0C6
:10063000082A4FF0010252EA329E062400BF00BF92
:1006400002FA04F50134C1F880500D640D600FF01A
:1006500009C84EF6FC52CEF20002176847F08077C8
:1006600047F4441717600E640E601968002241F0C9
:100670000101196041F20001CEF200010A608CF321
:100680001088BDE8F040C0F380307047D4D4D4D493
:1006900040F6A830C2F2002000687047D4D4D4D409
:1006A0004FF0FF300021704743F27C000021CEF272
:1006B000000000687047D4D410B540F22064A8212F
:1006C000C2F20024204603F07FFD03202061606118
:1006D00046F2806040F2C861C0F20020A061C2F220
:1006E0000021E1614FF4806121620021A162616219
:1006F000E16240F6C82220664FF0100E46F2D76045
:10070000C2F200226266C4F868E02167E1666167B0
:10071000BFF35F8FC0F200200F3000BF00BF00BFEB
:1007200010F8011904F8011B0FF007C0BFF35F8F29
:1007300010BDD4D4D4D4D4D480B540F220008021CC
:10074000C2F2002003F040FD40F6D82C46F22C7097
:1007500040F6DC22C2F2002CC0F20020C2F20022DD
:100760000023CCF80030D0E900011360BDE88040E0
:1007700001F07EBFD4D4D4D40179042923D140F62A
:10078000DC2140F22003C2F200218068C2F2002383
:100790000A6898540868013008600868802801D108
:1007A0000020086040F6D8200968C2F200200268E4
:1007B000914208D10168013101600168802918BFA8
:1007C000704700210160704746F22C71C0F2002191
:1007D00009684A6A1071486A816C8900FCD500205A
:1007E0007047D4D4D4D4D4D42DE9F04182B040F6AB
:1007F000D82640F6DC27C2F20026C2F2002700BF4E
:1008000030683968884201D100BFF9E7306839683B
:10081000884213D238683168884240F2200130683B
:10082000C2F200215FEA0F9401440DF10700224655
:1008300003F0CEFC30682044306003E03068396853
:10084000884204D19DF8070002B0BDE8F08130680D
:100850003968081A40F2200210F1800530685FEA1A
:100860000F94C0F180003168C2F200221144A0420E
:100870001DD230680DF10708C0F18002404603F038
:10088000A7FC002D6FF07F0050EA00903168002235
:100890000844316832603A68824252EA3084A8EBF8
:1008A000010040F220018030C2F20021BFE70DF1CB
:1008B0000700224603F08CFC30682044306030682A
:1008C0008028BFD10020B7E784B00020FFF73CFDAF
:1008D000FFF7F2FEFFF730FF46F25160C0F2002052
:1008E00003F087FD46F2B160C0F2002003F081FD05
:1008F00000F0D6F846F2EC6046F2BA65C0F200208D
:100900000DF10C0802AE01AF0468C0F2002500BF73
:100910004FF485710122204602F012FC4FF4FA7068
:100920004FF47A7103F058F84FF485710022204695
:1009300002F006FC4FF4FA704FF47A7103F04CF8B1
:10094000404631463A4600F02FF803992846DDE943
:10095000013203F039FDDBE7F0B581B00C46054606
:10096000FFF79AFCFFF764FD4FF47A720023064606
:100970004FF47A7703F0A2FA00FB17612860216038
:1009800001B0F0BDD4D4D4D4022818BF704740F6CB
:10099000F82046F62021C2F20020C0F2002102F029
:1009A00007BBD4D4D4D4D4D42DE9F04186B00646C4
:1009B00040F6E02090460D46C2F200203021182279
:1009C000082308270DF10F04CDE9004701F07CFD55
:1009D00060B1074646F2356046F22361C0F200205E
:1009E000C0F200213A46FFF727FC53E09DF80F00C4
:1009F00040060BD446F2356046F24761C0F2002053
:100A0000C0F20021FFF718FC122743E040F6E02077
:100A10003021C2F20020002208230927CDE9004737
:100A200001F08AFC48B1074646F2356046F208619B
:100A3000C0F20020C0F20021D4E79DF80F009DF81D
:100A400010109DF811209DF812709DF815300003CC
:100A5000120340EA011E40F2000C9DF813409DF87D
:100A6000141042EA07129DF816709DF81700CFF691
:100A7000F87C24034CEA1313734444EA01113360F5
:100A80004CEA17134CEA101000271A442A60084455
:100A9000C8F80000384606B0BDE8F081D4D4D4D4FC
:100AA000B0B584B040F6E02040F20141C2F200202F
:100AB00039220823082581804FF480618181022139
:100AC000016130210DF10F04CDE9004501F0FCFC7E
:100AD000B0B1044646F2D45046F22361C0F2002081
:100AE000C0F200212246FFF7A7FB46F2F05046F283
:100AF0007361C0F20020C0F20021FFF79DFB67E0A8
:100B00009DF80F40102C58D140F6E0203021C2F261
:100B100000201C22082308258024CDE9004500F090
:100B200087FE00283FD119204FF47A7102F054FF5C
:100B300040F6E0203021C2F200201A22082364246B
:100B4000CDE9004500F074FE68BB40F6E02030219E
:100B5000C2F200201B2208230825E024CDE900452D
:100B600000F066FEF8B940F6E0203021C2F2002025
:100B70001C2208230224CDE9004500F059FE90B95B
:100B80000A204FF47A7102F027FF40F6E02030216E
:100B9000C2F200201D22082308251924CDE90045B2
:100BA00000F046FEB8B1044646F2F05046F25961F4
:100BB000C0F20020C0F2002107E046F2F05046F2F9
:100BC0008E61C0F20020C0F200212246FFF734FB04
:100BD000204604B0B0BD0024FAE7D4D4D4D4D4D491
:100BE0002DE9F04381B040F6F42140F61459C2F2E9
:100BF000002140F6000840F6883604460978C4F221
:100C00004009C4F24008C2F20026C8075ED00121A4
:100C1000EFF3108081F31088316829B9002189F839
:100C20000010402189F800103168542201313160F0
:100C300080F310886FF03F01A08801EA9001C0B2F4
:100C4000414441F820200121EFF3108081F3108806
:100C5000316811B1316801393160316829B9002139
:100C600089F80010802189F8001080F31088012194
:100C7000EFF3108081F31088316829B9002189F8D9
:100C80000010402189F8001031680131316080F393
:100C900010886FF03F01A08901EA9001C0B2414481
:100CA00041F820200121EFF3108081F31088316892
:100CB00011B1316801393160316829B9002189F8F1
:100CC0000010802189F8001080F310880121EFF3D3
:100CD000108081F31088316829B9002189F800104B
:100CE000402189F80010316843F6FA77013131600C
:100CF00080F310886FF03F01A089CFF6FE7701EAFC
:100D00009001C0B2414451F820203A40053241F8E8
:100D100020200121EFF3108081F31088316811B198
:100D2000316801393160316829B9002189F8001032
:100D3000802189F8001080F310880121EFF31080E2
:100D400081F31088316829B9002189F80010402109
:100D500089F8001031680131316080F310886FF03C
:100D60003F01A08801EA9001C0B2414451F820201F
:100D70003A4042F0050241F820200121EFF31080B3
:100D800081F31088316811B13168013931603168FF
:100D900029B9002189F80010802189F8001080F31A
:100DA000108801212069012502F016FEEFF3108062
:100DB00085F31088316829B9002189F80010402195
:100DC00089F8001031680131316080F310886FF0CC
:100DD0003F01A08901EA9001C0B2414451F82020AE
:100DE0003A4042F0040241F820200121EFF3108044
:100DF00081F31088316811B131680139316031688F
:100E000029B9002189F80010802189F8001080F3A9
:100E1000108801212069012502F0DEFDEFF310802A
:100E200085F31088316829B9002189F80010402124
:100E300089F8001031680131316080F310886FF05B
:100E40003F01A08801EA9001C0B2414451F820203E
:100E50003A4042F0040241F820200121EFF31080D3
:100E600081F31088316811B131680139316031681E
:100E700029B9002189F80010802189F8001080F339
:100E8000108801B0BDE8F0832DE9F04F81B040F645
:100E9000F42240F6145BC2F2002240F688370C467A
:100EA00005461278C4F2400BC2F20027D00767D083
:100EB0000121EFF3108081F31088396829B90021EE
:100EC0008BF8001040218BF80010396840F60002C2
:100ED0000131396080F310886FF03F01A888C4F2B7
:100EE000400201EA9001C0B21144542241F820208E
:100EF0000121EFF3108081F31088396811B139684E
:100F000001393960396829B900218BF80010802136
:100F10008BF8001080F310880121EFF3108081F32B
:100F20001088396829B900218BF8001040218BF80E
:100F30000010396840F600020131396080F31088F2
:100F40006FF03F01A889C4F2400201EA9001C0B2EB
:100F50001144542241F820200121EFF3108081F345
:100F60001088396811B1396801393960396829B98F
:100F700000218BF8001080218BF8001080F310887E
:100F80000121EFF3108081F31088396829B900211D
:100F90008BF8001040218BF80010396840F60002F1
:100FA0000131396080F310886FF03F01A888C4F2E6
:100FB000400243F6FA7901EA9001C0B21144CFF63B
:100FC000FE7951F8202002EA0902043241F820207B
:100FD0000121EFF3108081F31088396811B139686D
:100FE00001393960396829B900218BF80010802156
:100FF0008BF8001080F3108801266FF03F084FF047
:10100000000A0EE000BF00BF80F31088022001211B
:10101000640002F0E1FCBAF1070F0AF1010A80F066
:10102000DE8061B2EFF3108086F31088B1F1FF3FEC
:10103000396831DD29B900218BF8001040218BF887
:101040000010396840F600020131396080F31088E1
:10105000C4F24002A88908EA9001C0B2114451F8D4
:10106000202002EA090242F0040241F82020EFF3B6
:10107000108086F31088396811B1396801393960F8
:10108000396829B900218BF8001080218BF80010F5
:1010900080F3108830E000BF29B900218BF80010E0
:1010A00040218BF80010396840F6000201313960A8
:1010B00080F31088C4F24002A88908EA9001C0B207
:1010C000114451F8202002EA090242F0050241F8D9
:1010D0002020EFF3108086F31088396811B1396849
:1010E00001393960396829B900218BF80010802155
:1010F0008BF8001080F310880220012102F06CFCB4
:10110000EFF3108086F31088396829B900218BF835
:10111000001040218BF80010396840F600020131C0
:10112000396080F31088C4F24002A88808EA900170
:10113000C0B2114451F8202002EA090242F005022F
:1011400041F82020EFF3108086F31088396811B140
:10115000396801393960396829B900218BF80010E4
:1011600080218BF8001080F310880220012102F00A
:1011700033FCEFF3108086F31088396829B9002119
:101180008BF8001040218BF80010396840F60002FF
:101190000131396080F31088C4F24002A88808EA5F
:1011A0009001C0B2114451F8202002EA090242F035
:1011B000040241F82020EFF3108086F3108839688C
:1011C00011B1396801393960396800297FF41CAFE1
:1011D00000218BF8001080218BF8001014E701B07B
:1011E000BDE8F08FD4D4D4D42DE9F04740F6F421F3
:1011F00040F61459C2F2002140F6000A40F6883643
:1012000004460978C4F24009C4F2400AC2F200263A
:10121000C8075ED00121EFF3108081F31088316898
:1012200029B9002189F80010402189F8001031689F
:1012300054220131316080F310886FF03F01A088A3
:1012400001EA9001C0B2514441F820200121EFF39E
:10125000108081F31088316811B131680139316033
:10126000316829B9002189F80010802189F800101F
:1012700080F310880121EFF3108081F3108831682A
:1012800029B9002189F80010402189F8001031683F
:101290000131316080F310886FF03F01A08901EACD
:1012A0009001C0B2514441F820200121EFF3108099
:1012B00081F31088316811B13168013931603168CA
:1012C00029B9002189F80010802189F8001080F3E5
:1012D00010880121EFF3108081F31088316829B95B
:1012E000002189F80010402189F80010316843F688
:1012F000FA780131316080F310886FF03F01A089E6
:10130000CFF6FE7801EA9001C0B2514451F8202096
:1013100002EA0802053241F820200121EFF3108093
:1013200081F31088316811B1316801393160316859
:1013300029B9002189F80010802189F8001080F374
:10134000108802200121012502F046FBEFF31080F6
:1013500085F31088316829B9002189F800104021EF
:1013600089F8001031680131316080F310886FF026
:101370003F01A08801EA9001C0B2514451F82020F9
:1013800002EA080242F0050241F820200121EFF3B1
:10139000108081F31088316811B1316801393160F2
:1013A000316829B9002189F80010802189F80010DE
:1013B00080F3108804200121012502F00DFBEFF3DA
:1013C000108085F31088316829B9002189F8001050
:1013D000402189F80010316810220131316080F31A
:1013E00010886FF03F01A08901EA9001C0B251441A
:1013F00041F820200121EFF3108081F3108831683B
:1014000011B1316801393160316829B9002189F899
:101410000010802189F8001080F3108840F2D17507
:101420006FF03F0700BF00BFA08907EA9001C0B27C
:10143000514451F8200080073BD50120012102F0E2
:10144000CBFA013DF0D10121EFF3108081F3108838
:10145000316829B9002189F80010402189F800106D
:10146000316854220131316080F310886FF03F0100
:10147000A08901EA9001C0B2514441F82020012125
:10148000EFF3108081F31088316811B131680139B0
:101490003160316829B9002189F80010802189F86C
:1014A000001080F31088204600F06EF80120BDE89F
:1014B000F0870121EFF3108081F31088316829B99A
:1014C000002189F80010402189F800103168542269
:1014D0000131316080F310886FF03F01A08901EA8B
:1014E0009001C0B2514441F820200121EFF3108057
:1014F00081F31088316811B1316801393160316888
:1015000029B9002189F80010802189F8001080F3A2
:1015100010880121EFF3108081F31088316829B918
:10152000002189F80010402189F80010316801314C
:10153000316080F310886FF03F01A08801EA9001CC
:10154000C0B2514451F8202002EA080242F00402DD
:1015500041F820200121EFF3108081F310883168D9
:1015600011B1316801393160316829B9002189F838
:101570000010802189F8001080F310880020BDE859
:10158000F087D4D4D4D4D4D42DE9F04381B040F63C
:10159000F42140F61459C2F2002140F6000840F64A
:1015A000883604460978C4F24009C4F24008C2F201
:1015B0000026C8075ED00121EFF3108081F3108868
:1015C000316829B9002189F80010402189F80010FC
:1015D000316854220131316080F310886FF03F018F
:1015E000A08801EA9001C0B2414441F820200121C5
:1015F000EFF3108081F31088316811B1316801393F
:101600003160316829B9002189F80010802189F8FA
:10161000001080F310880121EFF3108081F310880F
:10162000316829B9002189F80010402189F800109B
:1016300031680131316080F310886FF03F01A0897B
:1016400001EA9001C0B2414441F820200121EFF3AA
:10165000108081F31088316811B13168013931602F
:10166000316829B9002189F80010802189F800101B
:1016700080F310880121EFF3108081F31088316826
:1016800029B9002189F80010402189F8001031683B
:1016900043F6FA770131316080F310886FF03F0133
:1016A000A088CFF6FE7701EA9001C0B2414451F81C
:1016B00020203A40043241F820200121EFF310802D
:1016C00081F31088316811B13168013931603168B6
:1016D00029B9002189F80010802189F8001080F3D1
:1016E00010880121EFF3108081F31088316829B947
:1016F000002189F80010402189F80010316801317B
:10170000316080F310886FF03F01A08901EA9001F9
:10171000C0B2414451F820203A4042F0040241F85E
:1017200020200121EFF3108081F31088316811B17E
:10173000316801393160316829B9002189F8001018
:10174000802189F8001080F310880121206901258B
:1017500002F042F9EFF3108085F31088316829B95F
:10176000002189F80010402189F80010316801310A
:10177000316080F310886FF03F01A08801EA90018A
:10178000C0B2414451F820203A4042F0050241F8ED
:1017900020200121EFF3108081F31088316811B10E
:1017A000316801393160316829B9002189F80010A8
:1017B000802189F8001080F310880121EFF3108058
:1017C00081F31088316829B9002189F8001040217F
:1017D00089F8001031680131316080F310886FF0B2
:1017E0003F01A08901EA9001C0B2414451F8202094
:1017F0003A4042F0050241F820200121EFF3108029
:1018000081F31088316811B1316801393160316874
:1018100029B9002189F80010802189F8001080F38F
:1018200010880121206901B0BDE8F04302F0D4B86E
:101830002DE9F04381B040F68835EFF31086C2F20F
:101840000025012787F3108804462F6840F61450BE
:10185000002F994690460F46C4F2400003D1002164
:1018600001704021017029686FF03F020131296049
:1018700086F31088A188CBB202EA910101EB8302C2
:1018800040F60001C4F24001542353500123EFF30A
:10189000108283F310882B6813B12B68013B2B60F7
:1018A0002B681BB9002303708023037082F3108818
:1018B0000123EFF3108283F310882B681BB90023F8
:1018C0000370402303702B6801332B6082F3108870
:1018D0006FF03F03A28903EA9203D2B21944542362
:1018E00041F822300122EFF3108182F310882A6838
:1018F00012B12A68013A2A602A681AB900220270D5
:101900008022027040F6F42081F31088C2F2002099
:10191000017801F0FE0101702046FFF761F97800BF
:10192000C1B22046FFF7B0FA2046FFF75DFC18B1C0
:10193000012001B0BDE8F083B9F1080F08D04FEAEB
:1019400018212046FFF7A0FA2046FFF74DFC40B9CA
:101950005FFA88F12046FFF797FA2046FFF744FC2C
:1019600018B1022001B0BDE8F0830998089D08284D
:1019700007D0290A2046FFF787FA2046FFF734FCF4
:1019800038B9E9B22046FFF77FFA2046FFF72CFC72
:1019900018B1032001B0BDE8F0832046FFF7F4FD45
:1019A000002001B0BDE8F0832DE9F04F81B040F692
:1019B000F42240F68837C2F200220446C2F2002721
:1019C00000911278D0076FD00121EFF3108081F3DE
:1019D0001088396839B940F614520021C4F2400227
:1019E000117040211170396840F6000201313960F0
:1019F00080F310886FF03F01A088C4F2400201EA32
:101A00009001C0B21144542241F820200121EFF38B
:101A1000108081F31088396811B139680139396053
:101A2000396839B940F614520021C4F240021170ED
:101A30008021117080F310880121EFF3108081F371
:101A40001088396839B940F614520021C4F24002B6
:101A5000117040211170396840F60002013139607F
:101A600080F310886FF03F01A089C4F2400201EAC0
:101A70009001C0B21144542241F820200121EFF31B
:101A8000108081F31088396811B1396801393960E3
:101A9000396839B940F614520021C4F2400211707D
:101AA0008021117080F310880121EFF3108081F301
:101AB0001088396839B940F614520021C4F2400246
:101AC000117040211170396840F60002013139600F
:101AD00080F310886FF03F01A089C4F2400201EA50
:101AE0009001C0B21144102241F820200121EFF3EF
:101AF000108081F31088396811B139680139396073
:101B0000396839B940F614520021C4F2400211700C
:101B10008021117080F310884FF0000B4FF0010806
:101B20006FF03F09802500264FF0000A1BE000BF40
:101B300080F3108840F60002A089C4F2400209EA4E
:101B40009001C0B2114451F820000121C0F34000BF
:101B500040EA4606012001F03FFFBAF1070F0AF103
:101B6000010A80F07B80EFF3108088F310883968D9
:101B700039B940F614514022C4F2400181F800B056
:101B80000A70396840F600020131396080F310882C
:101B9000C4F24002A08843F6FA73CFF6FE7309EA56
:101BA0009001C0B2114451F820201A4042F00402C2
:101BB00041F82020EFF3108088F31088396811B1C4
:101BC000396801393960396831B940F61451C4F2C5
:101BD000400181F800B00D7080F3108802200121CF
:101BE00001F0FAFEEFF3108088F31088396839B9F4
:101BF00040F614514022C4F2400181F800B00A704E
:101C0000396840F600020131396080F31088C4F26F
:101C10004002A08843F6FA73CFF6FE7309EA9001FA
:101C2000C0B2114451F820201A4042F0050241F898
:101C30002020EFF3108088F31088396811B13968DB
:101C400001393960396800297FF472AF40F61451C8
:101C5000C4F2400181F800B00D7069E70121EFF393
:101C6000108081F31088396839B940F61452002188
:101C7000C4F24002117040211170396840F6000230
:101C80000131396080F310886FF03F01A088C4F201
:101C9000400243F6FA7301EA9001C0B21144CFF654
:101CA000FE7351F820201A4042F0040241F820202F
:101CB0000121EFF3108081F31088396811B1396880
:101CC00001393960396839B940F614520021C4F23B
:101CD000400211708021117080F310880121EFF310
:101CE000108081F31088396839B940F61452002108
:101CF000C4F24002117040211170396840F60002B0
:101D00000131396080F310886FF03F01A089C4F27F
:101D1000400201EA9001C0B21144542241F820204F
:101D20000121EFF3108081F31088396811B139680F
:101D300001393960396839B940F614520021C4F2CA
:101D4000400211708021117080F3108840F6F42059
:101D5000C2F200200099002900784FEAC07000F01C
:101D6000738100286FD00121EFF3108081F3108878
:101D7000396839B940F614520021C4F2400211709A
:101D800040211170396840F600020131396080F35A
:101D900010886FF03F01A088C4F2400201EA900170
:101DA000C0B21144542241F820200121EFF31080E9
:101DB00081F31088396811B139680139396039689F
:101DC00039B940F614520021C4F24002117080214A
:101DD000117080F310880121EFF3108081F31088D7
:101DE000396839B940F614520021C4F2400211702A
:101DF00040211170396840F600020131396080F3EA
:101E000010886FF03F01A089C4F2400201EA9001FE
:101E1000C0B21144542241F820200121EFF3108078
:101E200081F31088396811B139680139396039682E
:101E300039B940F614520021C4F2400211708021D9
:101E4000117080F310880121EFF3108081F3108866
:101E5000396839B940F614520021C4F240021170B9
:101E600040211170396840F600020131396080F379
:101E700010886FF03F01A088C4F2400201EA90018F
:101E8000C0B2114451F820201A4042F0040241F837
:101E900020200121EFF3108081F31088396811B1FF
:101EA000396801393960396839B940F6145200216E
:101EB000C4F2400211708021117080F3108801215A
:101EC000EFF3108081F31088396839B940F6145265
:101ED0000021C4F24002117040211170396840F6AF
:101EE00000020131396080F310886FF03F01A08952
:101EF000C4F2400201EA9001C0B2114451F820201E
:101F00001A4042F0040241F820200121EFF3108032
:101F100081F31088396811B139680139396039683D
:101F200039B940F614520021C4F2400211708021E8
:101F3000117080F3108802200121012501F04CFD71
:101F4000EFF3108085F31088396839B940F61452E0
:101F50000021C4F24002117040211170396840F62E
:101F600000020131396080F310886FF03F01A088D2
:101F7000C4F2400243F6FA7301EA9001C0B2114480
:101F8000CFF6FE7351F820201A4042F0050241F8C6
:101F900020200121EFF3108081F31088396811B1FE
:101FA000396801393960396839B940F6145200216D
:101FB000C4F2400211708021117080F31088022059
:101FC0000121012501F008FDEFF3108085F3108851
:101FD000396839B940F614520021C4F24002117038
:101FE00040211170396840F600020131396080F3F8
:101FF00010886FF03F01A088C4F2400243F6FA73E4
:1020000001EA9001C0B21144CFF6FE7351F82020CE
:102010001A4042F0040241F820200121EFF3108021
:1020200081F31088396811B139680139396039682C
:1020300039B940F614520021C4F2400211708021D7
:10204000117080F3108871E100286FD00121EFF347
:10205000108081F31088396839B940F61452002194
:10206000C4F24002117040211170396840F600023C
:102070000131396080F310886FF03F01A088C4F20D
:10208000400201EA9001C0B21144542241F82020DC
:102090000121EFF3108081F31088396811B139689C
:1020A00001393960396839B940F614520021C4F257
:1020B000400211708021117080F310880121EFF32C
:1020C000108081F31088396839B940F61452002124
:1020D000C4F24002117040211170396840F60002CC
:1020E0000131396080F310886FF03F01A089C4F29C
:1020F000400201EA9001C0B21144542241F820206C
:102100000121EFF3108081F31088396811B139682B
:1021100001393960396839B940F614520021C4F2E6
:10212000400211708021117080F310880121EFF3BB
:10213000108081F31088396839B940F614520021B3
:10214000C4F24002117040211170396840F600025B
:102150000131396080F310886FF03F01A088C4F22C
:10216000400201EA9001C0B2114451F820201A4007
:1021700042F0040241F820200121EFF3108081F3A6
:102180001088396811B1396801393960396839B94D
:1021900040F614520021C4F24002117080211170E7
:1021A00080F310880121EFF3108081F310883968E3
:1021B00039B940F614520021C4F240021170402196
:1021C0001170396840F600020131396080F31088DF
:1021D0006FF03F01A089C4F2400201EA9001C0B251
:1021E000114451F820201A4042F0050241F8202005
:1021F0000121EFF3108081F31088396811B139683B
:1022000001393960396839B940F614520021C4F2F5
:10221000400211708021117080F31088022001218A
:10222000012501F0D9FBEFF3108085F310883968A0
:1022300039B940F614520021C4F240021170402115
:102240001170396840F600020131396080F310885E
:102250006FF03F01A088C4F2400243F6FA7301EA2E
:102260009001C0B21144CFF6FE7351F820201A40FD
:1022700042F0050241F820200121EFF3108081F3A4
:102280001088396811B1396801393960396839B94C
:1022900040F614520021C4F24002117080211170E6
:1022A00080F3108802200121012501F095FBEFF356
:1022B000108085F31088396839B940F6145200212E
:1022C000C4F24002117040211170396840F60002DA
:1022D0000131396080F310886FF03F01A088C4F2AB
:1022E000400243F6FA7301EA9001C0B21144CFF6FE
:1022F000FE7351F820201A4042F0040241F82020D9
:102300000121EFF3108081F31088396811B1396829
:1023100001393960396839B940F614520021C4F2E4
:10232000400211708021117080F31088F0B201B06A
:10233000BDE8F08FD4D4D4D42DE9F04381B040F679
:102340008835EFF31086C2F20025012787F3108845
:1023500004462F6840F61450002F994690460F46C9
:10236000C4F2400003D100210170402101702968AE
:102370006FF03F020131296086F31088A188CBB24B
:1023800002EA910101EB830240F60001C4F2400130
:10239000542353500123EFF3108283F310882B68EA
:1023A00013B12B68013B2B602B681BB90023037012
:1023B0008023037082F310880123EFF3108283F3EC
:1023C00010882B681BB900230370402303702B680F
:1023D00001332B6082F310886FF03F03A28903EA78
:1023E0009203D2B21944542341F822300122EFF370
:1023F000108182F310882A6812B12A68013A2A6093
:102400002A681AB9002202708022027040F6F42075
:1024100081F31088C2F20020017801F0FE01017002
:102420002046FEF7DDFB7D002046E9B2FEF72CFDDD
:102430002046FEF7D9FE18B1012001B0BDE8F083B7
:10244000B9F1100F0AD0B9F1080F10D004252046B9
:10245000FFF79AF8284601B0BDE8F0834FEA18214B
:102460002046FEF711FD2046FEF7BEFE40B95FFA9A
:1024700088F12046FEF708FD2046FEF7B5FE18B1AC
:10248000022001B0BDE8F0832046FEF7A9FB45F02D
:102490000100C1B22046FEF7F7FC2046FEF7A4FE7D
:1024A00018B1032001B0BDE8F083099D55B1089E25
:1024B000012D5FEA0F912046FFF776FA013D06F8FD
:1024C000010BF5D10025C2E72DE9F04381B040F6BC
:1024D0008835EFF31086C2F20025012787F31088B4
:1024E00004462F6840F61450002F994690460F4638
:1024F000C4F2400003D1002101704021017029681D
:102500006FF03F020131296086F31088A188CBB2B9
:1025100002EA910101EB830240F60001C4F240019E
:10252000542353500123EFF3108283F310882B6858
:1025300013B12B68013B2B602B681BB90023037080
:102540008023037082F310880123EFF3108283F35A
:1025500010882B681BB900230370402303702B687D
:1025600001332B6082F310886FF03F03A28903EAE6
:102570009203D2B21944542341F822300122EFF3DE
:10258000108182F310882A6812B12A68013A2A6001
:102590002A681AB9002202708022027040F6F420E4
:1025A00081F31088C2F20020017801F0FE01017071
:1025B0002046FEF715FB7D002046E9B2FEF764FCDD
:1025C0002046FEF711FE18B1012001B0BDE8F083EE
:1025D000B9F1080F08D04FEA18212046FEF754FC45
:1025E0002046FEF701FE40B95FFA88F12046FEF76B
:1025F0004BFC2046FEF7F8FD18B1022001B0BDE803
:10260000F0832046FEF7ECFA45F00100C1B2204607
:10261000FEF73AFC2046FEF7E7FD18B1032001B0B3
:10262000BDE8F0830998089D082805D100212046BF
:10263000FFF7BAF9287009E001212046FFF7B4F945
:10264000287000212046FFF7AFF968702046FEF79A
:102650009BFF002001B0BDE8F083D4D4D4D4D4D4FF
:1026600080B5FEF731F9002080BDD4D4D4D4D4D4C1
:102670002DE9F0470D46097848F200020446C4F2FD
:10268000350202EB01206062002020702562A278F2
:102690006969A162A969C4E90B0122F00300D5F8B8
:1026A0001C80411CA170697811B940F00200A07033
:1026B00095F90B204EF20019CEF2000901265009BF
:1026C00002F01F034CF2003AA97A09EB800006FAE7
:1026D00003F3C4F2000A4EF6185CC0F88030CEF264
:1026E000000CBFF34F8FBFF36F8F5AF82230002AD0
:1026F00023F480334AF822304FEA01115AF822308D
:1027000004D409EB020383F8001304E002F00F0382
:10271000634403F8041C40F68C310120C2F200210E
:1027200041F8224095F90520530902F01F06B040F8
:102730002E7909EB8303002AC3F880004FEA0613C1
:10274000BFF34F8FBFF36F8F5AF8220020F4803011
:102750004AF822005AF8220004D409EB020080F85B
:10276000003304E002F00F00604400F8043C41F83C
:102770002240012695F90720500902F01F0306FAAE
:1027800003F3AE7909EB8000002AC0F880304FEAED
:102790000613BFF34F8FBFF36F8F5AF8220020F458
:1027A00080304AF822005AF8220004D409EB0200D3
:1027B00080F8003304E002F00F00604400F8043CAD
:1027C00041F82240012695F90920500902F01F0323
:1027D00006FA03F32E7A09EB8000002AC0F8803055
:1027E0004FEA0613BFF34F8FBFF36F8F5AF82200E3
:1027F00020F480304AF822005AF8220004D409EB71
:10280000020080F8003304E002F00F00604400F89A
:10281000043C41F822400120EFF3108680F3108839
:1028200028784FF0004121FA00F043F20401C4F28D
:1028300020010A6822EA0000086008681E200121C1
:1028400001F0CAF886F310884FF48061606A4FF493
:1028500080428160E869E9786E78437802EA8131E4
:10286000077866F30921DA03437B92B207F0030786
:1028700003F00103114441EA4352636A42EA0762EA
:10288000416802F580525A61027802F0FE03022B81
:1028900007D14FF60471022ACFF6007108BF20312C
:1028A00000E00968626A11610C22017BAB788778CD
:1028B00062F39F014FF44072022B08BF4FF4807205
:1028C000002B07F00103676A18BF114341EA037147
:1028D000F960626A002191612A78092A04D8626A43
:1028E0000023C1F61F735362B0F80F20807B636A28
:1028F00040EA022041F60172C0F21F021040186344
:10290000206AC4E90411C4E90611C569A160687CA4
:1029100050B34EF25400C4F20100017801F00F01EF
:10292000022901D801220BE0CA1E052A06D246F66A
:102930006021C0F2002151F8226003E00839102222
:1029400002FA01F6407800F00F0000F0F5FF40F6C3
:10295000A832697CC2F20022B0FBF6F01268514343
:10296000B1FBF0F00130A060606AB8F80A101022E4
:10297000A181C9F607528266206A90F905104A09BA
:1029800001F01F035AF8210020F480304AF821009A
:102990005AF8210009F5C0700121BFF35F8F01FAD9
:1029A00003F340F8223049F82230226A92F90B20D2
:1029B0005AF8223023F480334AF822305AF8223071
:1029C000530902F01F02BFF35F8F01FA02F240F8D1
:1029D000232049F82320226A92F907205AF822304E
:1029E00023F480334AF822305AF82230530902F097
:1029F0001F02BFF35F8F01FA02F240F8232049F86B
:102A00002320226A92F909205AF8223023F48033D5
:102A10004AF822305AF82230530902F01F02BFF35D
:102A20005F8F914040F8231049F8231040F2114184
:102A3000606AC0F201018160606A00BF00BF00BF30
:102A4000017FC907FCD044F642110020C5F2433192
:102A50006160BDE8F087D4D403460020C3E90612C4
:102A60007047D4D4D4D4D4D4D0F824C0DCF80830FF
:102A700023F44013CCF80830D0F824C000BF00BFC6
:102A8000DCF848305B00FBD5DCF8083023F010039D
:102A9000CCF80830D0F824C09CF81C30DB06FBD4FE
:102AA000C0E904120020DCF8081041F01011CCF845
:102AB00008107047D4D4D4D42DE9F0410446406ABC
:102AC0004FF6EE7288468668CFF6CE72324082604C
:102AD000206A00222261C769A260787C50B34EF25E
:102AE0005400C4F20100017801F00F01022901D85D
:102AF00001220BE0CA1E052A06D246F66021C0F26A
:102B0000002151F8225003E00839102202FA01F5A1
:102B1000407800F00F0000F00FFF40F6A832797CFB
:102B2000C2F20022B0FBF5F012685143B1FBF0F0A5
:102B30000130A060606AD8F8001026F440120161EC
:102B40000020616A8A60BDE8F081D4D4D4D4D4D4A2
:102B500000204FF0FF32C1E900227047D4D4D4D412
:102B60008A0703D40622C90715D116E0426A936882
:102B700023F440139360426A936C5B00FCD5936826
:102B800023F010039360426A137FDB06FCD400221B
:102B90004261C90701D00022C26110467047D4D4F7
:102BA000844681620020CCE90B327047D4D4D4D45F
:102BB00044F642124168C5F2433291426DD1B0B53C
:102BC000416A8A6822F440128A60416A8A6822F067
:102BD00010028A60416A00BF0A7FD206FCD4016AF3
:102BE0004EF2801CCEF2000C054691F907104A09FE
:102BF00001F01F03012101FA03F34CF82230BFF367
:102C00004F8FBFF36F8F026A92F90920530902F0C8
:102C10001F0201FA02F24CF82320BFF34F8FBFF3DB
:102C20006F8F426A936823F480339360026A92F94B
:102C30000520530902F01F0201FA02F24CF823208A
:102C4000BFF34F8FBFF36F8F026A92F90B205309C6
:102C500002F01F0201FA02F24CF8232043F20402B0
:102C6000BFF34F8FBFF36F8FEFF3108481F31088A2
:102C7000016AC4F220024FF0004C1E20097813684C
:102C80002CFA01F1194311601168012100F0A4FE32
:102C900084F3108800206860B0BD07207047D4D44A
:102CA0000246C069086000200021D1617047D4D479
:102CB00006207047D4D4D4D406207047D4D4D4D4BA
:102CC000B0B584B04FF07041EFF3038001EB0060CA
:102CD0004CF200318015C4F20001425822F48032D7
:102CE000425040F68C324158C2F200221458206AF9
:102CF00000690028606902D0E0B104B0B0BDC8B17D
:102D0000A07800F003000228206905D10088616ADC
:102D100020F4DC40486002E0616A00780871A07825
:102D2000226900F003016069401A60611144216169
:102D30000028E2D1616A02228D68A06862F315550D
:102D400010B100F089FE616A8D60A06A00284FF022
:102D500000002061D1D0E06A20B190E82E008DE81B
:102D60002E0000E06846216A097801600021816038
:102D700080210171216BC160A16A8847E06A002847
:102D80001CBF9DE82E002EC004B0B0BDD4D4D4D456
:102D900010B586B04FF07041EFF3038001EB006097
:102DA0004CF200318015C4F20001425822F4803206
:102DB000425040F68C324158C2F200221458A0789A
:102DC00000F00302606A022A03D101686FF35F21F9
:102DD00000E00178E0690191D0B1A06901A901F09A
:102DE000F7F9A078D4E9061200F003000144101AA4
:102DF000C4E9061034D1A06A90B3E06AE0B1D0E92A
:102E000000C2D0E90231CDE90431CDE902C214E0BB
:102E1000A06A28B3E06A40B1D0E900CED0E902232D
:102E2000CDE90423CDE902CE00E002A8226A12789F
:102E300081600260042106E002A8216A097801602D
:102E40000021816001210171216BC160A16A884765
:102E5000E06A28B102AC1ECC016042608360C460AD
:102E600006B010BDD4D4D4D4B0B584B04FF0704106
:102E7000EFF3038001EB006040F68C328115C2F263
:102E800000224FF6EF7304165558CFF6CF73696AD8
:102E90008A681A408A60A96AE1B1E86A40B1D0E95B
:102EA00000C2D0E90231CDE90231CDE900C200E033
:102EB0006846296A09780160002181600221017158
:102EC000296BC160A96A8847E86A00281CBF9DE891
:102ED0002E002EC04CF20030C4F2000050F8241036
:102EE00021F4803140F8241050F8240004B0B0BD23
:102EF00070B584B04FF07041EFF3038001EB0060D8
:102F000040F68C328115C2F200225458A178636ACF
:102F100001F00301022904D1D3F800C06FF35F2C44
:102F200001E093F800C09A6C2025082105EAD245FB
:102F30004FF0100E01EA12611EEA126229440A449F
:102F400003D0996C090458BF4032996E051641F0C0
:102F5000C8519966A16AD9B1E06A40B1D0E900E3ED
:102F6000D0E90216CDE90216CDE900E300E068469B
:102F7000216A0978C0F808C001600271216BC16044
:102F8000A16A8847E06A00281CBF9DE84E004EC039
:102F90004CF20030C4F2000050F8251021F48031CA
:102FA00040F8251050F8250004B070BDD4D4D4D416
:102FB00080B545F25422C5F24F020260084600F087
:102FC00037F9002080BDD4D40146002000220A60D9
:102FD0007047D4D4D4D4D4D480B5084600F028F9AE
:102FE000002080BDD4D4D4D470B586B001A804909C
:102FF00003A814460D46ADF8081001920126ADF85D
:103000000C6000F07DF940F68830EFF31081C2F2D9
:10301000002086F3108802683AB940F61452002363
:10302000C4F2400213704023137002680132026040
:1030300081F31088E10340F600014FEA1522C4F243
:10304000400101D4EBB20CE001EB8216EBB256F872
:10305000235025F4803546F8235024F4803546F873
:10306000235001EB8211012241F82340EFF310813C
:1030700082F31088026812B10268013A02600068A7
:1030800038B940F614500022C4F240000270802289
:10309000027081F31088002006B070BDD4D4D4D45F
:1030A00004200023C4F24000CFF6FF7340EAD100B1
:1030B000C9B220F01B00006843EA104020FA01F179
:1030C000002001F0010111707047D4D4D4D4D4D4BD
:1030D00010B56FF00100CBB200EAD11001210C2431
:1030E00001FA03FE0101C4F2400444EA001C4FF45B
:1030F0008030012A625800FA03F004D122EA00006D
:1031000040EA0E0203E022EA0E0141EA000200203A
:10311000CCF8002010BDD4D46FF03F00CBB200EA51
:10312000910040F6000100EB8300C4F240014158D9
:103130000020C1F3400111707047D4D4D4D4D4D44A
:1031400010B5CBB2012098406FF0010E84B20EEAA8
:10315000D110002A40F208024FF4803C4FEA0011DF
:10316000C4F240024FF0000008BF0CFA03F45450C0
:1031700010BDD4D4D4D4D4D480B56FF0010040F2C3
:10318000000C00EAD110C4F2400C010103EA020E67
:1031900062EA03025CF801004EEA000E002002EA37
:1031A0000E024CF8012080BD6FF0010000EAD11042
:1031B00004210001C4F2400109580020090C1180CB
:1031C0007047D4D4D4D4D4D46FF0010003EA020CF5
:1031D00000EAD11023EA02010C230201C4F24003E9
:1031E00000204CEA014199507047D4D4D4D4D4D4AF
:1031F0006FF00100042300EAD110C4F24003010182
:1032000000205958118070476FF0010003EA020C4A
:1032100000EAD11023EA020108230201C4F24003AC
:1032200000204CEA014199507047D4D4D4D4D4D46E
:1032300070B5044600F064F840F6883CEFF3108166
:10324000C2F2002C012080F31088DCF8000038B9AD
:1032500040F614500022C4F2400002704022027076
:10326000DCF800000130CCF8000081F310882088E1
:1032700030B340F6000E0021C4F2400E08E000BF5B
:103280000EEB8010013140F822302088814217D2A5
:10329000606800EBC10250F831309288D8034FEAE1
:1032A0001220D2B2ECD50EEB801555F8226026F430
:1032B000803645F8226023F4803645F82260DFE747
:1032C0000120EFF3108180F31088DCF8000020B1BA
:1032D000DCF800000138CCF80000DCF8000010B188
:1032E00081F3108870BD40F614500022C4F24000F3
:1032F00002708022027081F3108870BDD4D4D4D4BF
:103300002DE9F04F81B004460088002867D04EF6C2
:103310004C4B0025C4F2010B4FF0010A04E000BF42
:103320002088013585425AD246F6A82642F2400846
:103330000027C0F20026C4F220080CE000BF00BF46
:1033400088F80000C820012100F046FB013708F191
:103350000208032FE4D0606836F8021B00EBC500BA
:1033600082888A42F2D100689BF8001000F0B850C1
:103370000AFA07F9B0F1807F09EA010018D158B9BB
:10338000012000F0DDFB9BF8000040EA09008BF80B
:103390000000012000F0A8FB98F900000028D5D417
:1033A00098F8000040F08000CAE700BF00BF00BFEF
:1033B00058B1012000F0C4FB9BF8000020EA09008E
:1033C0008BF80000012000F08FFB98F90000B0F1AD
:1033D000FF3FBBDC98F8000000F07F00B0E701B0D1
:1033E000BDE8F08FD4D4D4D44EF22401C4F201014C
:1033F0008878098801F00F02A2F1080103293BD85F
:10340000DFE801F0022C101E40F2A041C2F20021C0
:1034100051F820004AF6AB21CAF6AA21A0FB01010F
:10342000480830E040F2A041C2F2002151F82000EB
:103430004AF6AB21CAF6AA21A0FB0101C80822E086
:1034400040F2A041C2F2002151F820004AF6AB211F
:10345000CAF6AA21A0FB0101080914E040F2A0412C
:10346000C2F2002151F820004AF6AB21CAF6AA2187
:10347000A0FB0101880806E040F2A041C2F2002151
:1034800051F82000D04040F6A831C2F20021086077
:103490007047D4D4D4D4D4D4D4D4D4D4D4D4D4D4DD
:1034A0002DE9F0470FF268404EF2FA3840F2A0469C
:1034B000C4F201084AF2015190ED001FC2F2002649
:1034C0000FF25C40CFF6FF714EF255050231A8F8BD
:1034D000001086ED001F06F12003C4F2010590EDF7
:1034E000001F44F255304CF20021C1F2DE3041F6AB
:1034F000004286ED041FC0F6EB31C0F64E6207C3F2
:1035000015F82F0C35F8311C01F00F02A2F108015B
:1035100003292BD8DFE801F002200C164AF6AB2174
:1035200056F82000CAF6AA21A0FB0101480820E0B5
:103530004AF6AB2156F82000CAF6AA21A0FB0101E9
:10354000C80816E04AF6AB2156F82000CAF6AA21B0
:10355000A0FB010108090CE04AF6AB2156F8200057
:10356000CAF6AA21A0FB0101880802E056F8200053
:10357000D04040F6A83A4EF60044C2F2002AC4F207
:1035800001040A214EF60147CAF800004FF65060C8
:10359000CFF6FF70C4F201072154092085F84D00D1
:1035A000207818B93878800700F0AC81207850B9BD
:1035B00001202070C820012100F00EFA00BF00BFDA
:1035C00020780128FCD10020387020704AF201597F
:1035D000002005F8230C00BF15F8190C0007FBD5D7
:1035E0004EF6145049F20251C5F8731040F25141A1
:1035F00025F8071C002205F80B2C4FF60211C5F820
:10360000571040F2415125F8091CCEF20000BFF3DB
:103610004F8FBFF36F8F03684EF2000123F4003326
:103620000360C0F83C22CEF20101BFF34F8FBFF31D
:103630006F8F0A6822F440520A60BFF34F8FBFF3C6
:103640006F8F15F8412C02F0F802013205F8412C79
:1036500015F8412CD206FBD40A6842F440520A60A5
:10366000BFF34F8FBFF36F8F0168890312D4BFF38D
:103670004F8FBFF36F8F0021C0F83C12BFF34F8F05
:10368000BFF36F8F016841F400310160BFF34F8FCA
:10369000BFF36F8F002005F82B0C00BF00BF00BFE9
:1036A00015F8190C8006FBD54CF200040020C4F27A
:1036B000130420702078207820786068FA2807D0DA
:1036C000FA20C1F6006000BF60606168FA29FBD192
:1036D000A0687D2808D07D20CEF2001000BF00BF7A
:1036E000A060A1687D29FBD143F23240C3F22320C0
:1036F00045F8350C42F2201025F8310C052005F86C
:103700002F0C15F82F0C35F8311C01F00F02A2F127
:10371000080103292BD8DFE801F002200C164AF635
:10372000AB2156F82000CAF6AA21A0FB01014808E7
:1037300020E04AF6AB2156F82000CAF6AA21A0FBE9
:103740000101C80816E04AF6AB2156F82000CAF677
:10375000AA21A0FB010108090CE04AF6AB2156F8AA
:103760002000CAF6AA21A0FB0101880802E056F851
:103770002000D040CAF800001E200121012700F0DF
:103780002BF960686FF39F20652828BF277015F814
:103790002F0C35F8311C01F00F02A2F108010329AA
:1037A0002BD8DFE801F002200C164AF6AB2156F8C0
:1037B0002000CAF6AA21A0FB0101480820E04AF631
:1037C000AB2156F82000CAF6AA21A0FB0101C808C7
:1037D00016E04AF6AB2156F82000CAF6AA21A0FB53
:1037E000010108090CE04AF6AB2156F82000CAF6A0
:1037F000AA21A0FB0101880802E056F82000D04071
:1038000042F20001CAF80000C4F200010120A1F850
:103810000090BFF35F8F08724FF42540BFF35F8FB6
:10382000088095F8850040F0400085F8850000BFCD
:1038300095F98500B0F1FF3FFADC052085F87F009F
:10384000C72085F8850095F8850000F0BF0085F851
:10385000850000BF00BF00BF95F985000028FBD49C
:10386000012005F8020CE87F40F04000E87700BF37
:1038700095F91F00B0F1FF3FFADC0620E8754A20F9
:10388000E8770A20E87700BF95F91F000028FBD4ED
:10389000287840F04000287095F90000B0F1FF3F13
:1038A000FADC012005F8010CCA202870287800F005
:1038B000BF00287000BF00BF95F900000028FBD4AE
:1038C00095F8220040F0400085F8220000BF00BFBC
:1038D00095F92200B0F1FF3FFADC0220A876CA2059
:1038E00085F8220095F8220000F0BF0085F822003C
:1038F00095F922000028FBD44FF42540A8F80000D9
:10390000BDE8F0874FF47A7000F012F85EE600BF71
:10391000006CDC0200127A000080000000366E01AC
:103920000080000000CA9A3B0046C3230084D717DA
:103930007047D4D4D4D4D4D440F2A041C2F20021F0
:1039400051F820007047D4D4B0B542F22404C82006
:10395000C4F2200401210025257100F03DF82570F6
:10396000207808B12FF005C0207840F002002070C8
:1039700020788007FCD4002004F8020C00BF00BFB0
:1039800014F8020C08B12FF005C84FF0030E002008
:1039900004F11C0100BF00BF11F8102002F07F02EB
:1039A00001F8102000BF00BF11F91020002AFBD43D
:1039B00001300FF00FC8012000F0C2F84EF64C4164
:1039C0000120C4F2010100220A70BDE8B04000F0FD
:1039D0008BB8D4D4D4D4D4D440F6A83241F2002346
:1039E000C2F20022C0F27A03484312689A420FD30F
:1039F00044F23F21C0F20F0111444DF68362C4F23C
:103A00001B32A1FB0212910CA0FB0101C9B11DE008
:103A10004CF60021C3F69A31B1FBF2F148F63812A8
:103A2000C0F24102904205D24FF47A725043B0FB8B
:103A3000F1F006E0B0FBF1F0904207D24FF47A715A
:103A40004843002808BF704700F006B84FF0FF3029
:103A500000F002B8D4D4D4D401380028FCD1704787
:103A6000F0B581B04CF2201540F63437C4F20005B1
:103A70000024C2F2002755F8200C296801EA00064C
:103A800006E000BF00BF00BF01340437152C09D089
:103A900026FA04F0C007F7D039680029F4D0204690
:103AA0008847F1E745F8106C28683042FCD101B036
:103AB000F0BDD4D4D4D4D4D480B54FF0040E4CF29D
:103AC000003046F62C21C4F20000C0F2002100BFF5
:103AD00031F8022B002A18BF026004300FF009C031
:103AE00080BDD4D4D4D4D4D4EFF31081012282F396
:103AF000108840F69C32C2F2002232F8103023B116
:103B000032F81030013B22F8103032F8102012B198
:103B100081F3108870474EF2FA3246F6FC4CC4F23C
:103B20000102C0F2002C13883CF8100043F4254336
:103B300023EA0000108081F310887047D4D4D4D4D5
:103B400010B5EFF31081012282F3108840F69C3209
:103B5000C2F2002232F8103083B94EF2FA3E46F635
:103B6000FC4CC4F2010EC0F2002CBEF800403CF840
:103B70001030234343F42543AEF8003032F81030C0
:103B8000013322F8103081F3108810BDD4D4D4D47E
:103B900000F00AF8FEF764FDFEE7D4D4D4D4D4D400
:103BA00000BE7047D4D4D4D42DE9F04381B04EF692
:103BB000085840F20120CEF20008C0F20E004EF28A
:103BC0000004C8F80C00CEF20104BFF34F8FBFF31E
:103BD0006F8F58F8081CC1F3035001285FEA1F9249
:103BE00011F00F0F5FEA0F911142216811D10228E5
:103BF0000FD241F0040020604EF20800BFF34F8F57
:103C0000CEF20000BFF36F8F016841F48031016094
:103C100002E021F004002060BFF34F8FBFF36F8FED
:103C20004FF4700040F20001C8F880000020C0F29C
:103C30000021C8F800100025FCF7A6FEFFF730FCB5
:103C40004EF2FA304EF6B022C4F20100C4F2010284
:103C50004AF20251018015704FF425410180012084
:103C6000FCF792FE40F2A000C2F2002080F30A8826
:103C70002068800724D5D8F80000B0F1007F1FD15C
:103C800020694FF40071C0F3C300626901FA00F3C8
:103C9000C2F3C30081400020DA08CB080146074682
:103CA00042F007C000BF00BFE7E802010FF005C007
:103CB0004FF0005243F005C0E2E802010FF005C0EA
:103CC00046F6D024C0F20024276897B160683E46CB
:103CD000051D05E000BF00BF013E05F10C0508D041
:103CE00068790028F8D155E90101091A00F06CFA49
:103CF000F2E7D4F80890B9F1000F13D0E0684E460F
:103D000000F1080504E000BF013E05F1100509D0EF
:103D100068790028F8D155E902022968121A00F0E2
:103D200057FAF1E7FFF760FBFFF70EFE0320FFF7FE
:103D300007FF4FF00E0E40F63050C4F24000002155
:103D400020F8041B0FF005C04EF210150320C4F23A
:103D50000105FFF7C9FE0320FFF7F2FE44F204005D
:103D60000021C4F22000016041608160C160032035
:103D7000FFF7BAFED5F8C802800714D42878A0B19E
:103D80000120FFF7DDFE00BF95F9000010F1410FA3
:103D9000FADC0020287000BF28783F28FCD80120DA
:103DA000FFF7A2FE01E0D5F8C802D5F8C802400727
:103DB00015D42879A8B10120FFF7C2FE00BF00BFCB
:103DC00095F9040010F1410FFADC0020287100BFC2
:103DD00028793F28FCD80120FFF786FE01E0D5F8BE
:103DE000C8020220FCF7D0FDA7B160684FF48076CE
:103DF000051D05E000BF00BF013F05F10C0509D01E
:103E00006879B6EB002FF7D155E90101091A00F0E6
:103E1000DBF9F1E7B9F1000F16D0E0684FF48075D7
:103E200000F1080405E000BFB9F1010904F1100434
:103E30000AD06079B5EB002FF6D154E9020221686F
:103E4000121A00F0C5F9EFE740F6B034C2F20024D0
:103E5000204600F080FA204600F095FABFF34F8F1D
:103E6000BFF36F8F0020C8F8480247F2980047F26E
:103E70009C01C0F20020C0F20021BFF34F8F081A4E
:103E8000BFF36F8F8410012C0BDB47F29805C0F253
:103E9000002500BF00BF00BF55F8040B8047013C60
:103EA000FAD1FFF709FE002001B0BDE8F04300F0B1
:103EB00003B8D4D4D4D4D4D47047D4D440B584B0C7
:103EC00002AE009600F004F8029A039B04B040BDD5
:103ED000B0B584B00D4602A980EAE57000911C4699
:103EE00082EAE37285EAE571B0EBE57061EBE571BA
:103EF00083EAE373B2EBE47263EBE47300F017F868
:103F0000DDE90223DDF820C083EAE57382EAE57289
:103F1000B2EBE57263EBE573CCE90023E21782EACA
:103F2000E57250405140801A914104B0B0BD2DE976
:103F3000F04F099D844681B1C2B14BB3B1FA81F70C
:103F4000B3FA83F6F71B202F4FD3002D18BFC5E916
:103F500000C100200021BDE8F08FCBB30021002D6F
:103F600064D00020C5E900C1BDE8F08F002B60D00F
:103F7000002861D05F1E3B4200F08580B1FA81F7D6
:103F8000B3FA83F6F71B1F2FDFD207F1010C3CE0D9
:103F9000571E3A425DD0B1FA81F7B2FA82F6F71BAA
:103FA00007F1210CBCF1200F24D0BCF11F0F79D8F0
:103FB000CCF1200620FA0CF721FA0CF901FA06F5EB
:103FC000B0403D434FF0000ABCF1010F2CD07CE023
:103FD000B0FBF2FC002D1EBF0CFB12000021C5E956
:103FE000000100216046BDE8F08F07F1010CBCF133
:103FF000200F0AD14FF000094FF0200C0D464FF072
:10400000000ABCF1010F0FD05FE0C7F11F0720FAD3
:104010000CF621FA0CF901FA07F5B84035434FF0D8
:10402000000ABCF1010F50D100248FE00020BDE850
:10403000F08F6046BDE8F08FB1FBF3FC002D1EBF92
:104040000CFB13100021C5E9001000216046BDE8FB
:10405000F08F002D1EBF00230740C5E90073012A21
:104060000ED092FAA2F24F00B2FA82F202F01F03CF
:10407000D140D8401F23934307FA03F343EA000CCF
:104080006046BDE8F08F002D1CBF07EA0100C5E9BE
:1040900000C093FAA3F0B0FA80F021FA00F00021FA
:1040A000BDE8F08FACF12007CCF140044FF00009DF
:1040B00020FA07F601FA04F52E4300FA04FA21FA71
:1040C00007F53046BCF1010FAED02CF001070126F8
:1040D000023F4FF0000B06EB570E4FEA490444EA4B
:1040E000D5746D0045EAD0754000E743E94389186F
:1040F00043EB0708AF1A64EB0306B8F1000F56EA6A
:10410000448457EA4585640044EAD5746D0045EA65
:10411000D07540EADA70AE1A6FEA050164EB030766
:1041200089184FEA40006FEA0401594157EA44896F
:1041300056EA4585CC0F4BEA4A010027A34640EAE0
:10414000D170490041EAD87A0FF039C85FEACC71E2
:104150001ED06F004FEA490147EAD07741EAD57196
:10416000B7EB020C4FEA400061EB030EFD4352191E
:104170006FEA010653EB060240EADA705EEA418913
:104180005CEA4785D10F44EA4A0200270C46924672
:104190004FEADA7141EA400009994FEA4A020029E0
:1041A00018BFC1E9005940EA070122F0010020438D
:1041B000BDE8F08F40B584B002AE0096FFF7B7FEC1
:1041C000029A039B04B040BD0A46002100F076B875
:1041D000844641EA000313F0030349D1403A23D354
:1041E0000B6803604B6843608B688360CB68C36077
:1041F0000B6903614B6943618B698361CB69C3615F
:104200000B6A03624B6A43628B6A8362CB6AC36246
:104210000B6B03634B6B43638B6B8363CB6BC3632E
:1042200040304031403ADBD230320BD30B68036070
:104230004B6843608B688360CB68C360103010317B
:10424000103AF3D20C3205D351F8043B40F8043B4A
:10425000043AF9D2043208D0D2071CBF11F8013B4E
:1042600000F8013B01D30B8803806046704700BF14
:10427000082A13D38B07B1D010F00303AED0C3F1DB
:104280000403D21ADB071CBF11F8013B00F8013B05
:10429000A4D331F8023B20F8023B9FE7043AD9D37C
:1042A000013A11F8013B00F8013BF9D20B78037099
:1042B0004B7843708B7883706046704770B4840786
:1042C00046D0541E002A41D0CDB2034602E0621E01
:1042D000E4B3144603F8015B9A07F8D1032C2ED9F6
:1042E000CDB245EA05250F2C45EA054519D92646E4
:1042F00003F11002103E0F2E42F8105C42F80C5CE5
:1043000042F8085C42F8045C02F11002F2D8A4F111
:10431000100222F00F0204F00F041032032C134499
:104320000DD91E462246121F032A46F8045BFAD80E
:10433000221F22F00302121D134404F003042CB1C7
:10434000C9B21C4403F8011BA342FBD170BC7047E7
:1043500014460346C2E710B540F2680140F200027D
:10436000C0F20021C0F200020446FFF731FF40F224
:10437000000040F20001C0F20000C0F20001204441
:10438000FFF722FF10BD40F20801C0F20001401A01
:1043900040F6AC31C2F2002108607047B0B58A78AF
:1043A00092070DD5C4B24A6820460D469047B0F139
:1043B000FF3F01DD2046B0BDA87840F00400A870A2
:1043C0004FF0FF342046B0BD83B080B581B0844645
:1043D00003A80EC046F2E860C0F20020006803AAFD
:1043E0006146009200F028F801B0BDE8804003B0BB
:1043F000704770B5054646F2E860C0F200200468D8
:10440000A078800714D56668287828B12146B0477F
:1044100001350028F8D507E00A202146B047B0F161
:10442000FF3FC4BF002070BDA07840F00400A07022
:104430004FF0FF3070BDD4D42DE9F04F99B08146D4
:1044400080781892800740F1B58518980027D9F830
:1044500004808A46179011A8821D0C92421E0530D6
:1044600010920E900D91514611F8010B252803D0A2
:104470008A4638B900F0A0BD9AF801500AF1020A44
:10448000252D06D14946C04701370028EBD500F05D
:104490008BBD002200244FF0000C4FF0000B04E015
:1044A0001AF8015B002D00F02D811FFA8BF61F2EEC
:1044B00020D8A5F1200010281ED8DFE810F0150044
:1044C0001D001D0018001D001D001D0014001D0012
:1044D0001D001D0011001D00CC001D001D00C900A5
:1044E0004BF0020B00E0DBE74BF0040BD8E74BF09E
:1044F000100BD5E77F2E0DD8A5F13000092840D844
:10450000402E80F0A0800CEB8C014BF0200B00EBD8
:10451000410CC5E7A5F14C002E2800F2F480DFE83D
:1045200010F08F00F200F200F200F200F200F20050
:10453000F200F200F200F200F200F200F200F200EB
:10454000F200F200F200F200F200F200F200F200DB
:10455000F200F200F200F200F200A400F2008F007C
:10456000F2009D00F200F200F200F200F200F20010
:10457000F2002F00F200F200F200F200F2002F0031
:104580008EE7A5F12400562800F2BD80DFE810F088
:104590008600BB00BB00BB00BB00BB007400BB00BF
:1045A000BB00BB00A400BB00BB00BB00BB00BB004A
:1045B000BB00BB00BB00BB00BB00BB00BB00BB0023
:1045C000BB00BB00BB00BB00BB00BB00BB00BB0013
:1045D000BB00BB00BB00BB00BB00BB00BB00BB0003
:1045E0005800BB00BB00BB00BB00BB00BB00BB0056
:1045F000BB00BB00BB00BB00BB00BB00BB00BB00E3
:10460000BB00BB00BB00BB00BB00BB00BB00BB00D2
:10461000BB00BB00BB00BB006D00BB005800BB0073
:104620006600BB00BB00BB00BB00BB00BB00BB0007
:104630005700BB00BB00BB00BB00BB0057002FE70F
:104640004BF4207B2CE704EB840100EB410427E7CB
:104650004BF0010B24E74BF0080B21E70BF0800037
:104660004BEA800040F0800B1AE70BF480704BEAB5
:10467000400040F4807B13E7002A7FF411AF1798C5
:104680003F2E00F104011791006832D8B0F1FF3FCE
:1046900032DD4BF0200B0022844601E712B318985C
:1046A000402E179017A90D986546CDF83C90C1464D
:1046B00090465CEA348200F083FC1798402E424614
:1046C000C84600F1040117910068DDF83C9050EAFB
:1046D000358C54EA3084E3E63F2E00F26D844BF0D3
:1046E000400BDDE6624600244FF0000C4FF0000B5B
:1046F000D6E600220446D3E64BF0280BC0F1000CAE
:104700000022CDE60025CDF83CC03AB1189817A993
:1047100017900D9800F054FCDDF83CC0002C24EA02
:10472000E47E45F0200048BF2BF0400B61281CBF01
:10473000A0F16501022925D81799612801F1070127
:1047400021F0070101F108021792A0EB050291ED9B
:10475000000B0A9244D15FEA4B6058BF4FF0FF3E16
:1047600011A8D2B27146764600F0C8FD451C4BF444
:10477000C05B4FF0700C4FF0010EE8B28642D8BF1C
:10478000461E5CE0A5F16301122900F20A810823AC
:104790000026DFE811F035011300060106010601CD
:1047A000060113000601060106010601060161016A
:1047B0005D01060106010D0106012E011FFA8BF1B4
:1047C0005FEA0B6000F10C811798021D17920068D8
:1047D000CA0540F10C81890554BF00B240B206E120
:1047E0005FEA4B6158BF4FF0060E662809D0652876
:1047F0000FD14BF4805B76460EF101010023652456
:1048000011E04BF4005B01226624112176467346C9
:104810000AE05FEA0E61A0F10204714676464FF0AD
:10482000000308BF0121002211A8C9B2112928BF25
:10483000112100F093FF05464FF0020EA446119B94
:104840009DF84800A3F10A0111F1130F38BF4FF092
:10485000020EA3F16401089111F1C70F38BF4FF0A8
:10486000030E0F9CC1074FD15FEA8B716FD41FFA03
:104870008BF1202202EAC10211F0040F5FEA1F91BE
:1048800010F00C0F45D11BF4405F0493CDE90621D5
:1048900040F02B82012E4FF0010056EA80801FFA73
:1048A0008BF12A0600F06D810E9BEAB2134413F8D7
:1048B000013C302B40F006826B1E1A0621D02E469A
:1048C0000E9DDAB2154415F8015C302D40F0F981E7
:1048D000B31E1A0615D00E9DDAB2154415F8015C08
:1048E000302D40F0EE81F31E1A060AD00E9DDAB28A
:1048F000154415F8015C302D40F0E381351F2A0680
:10490000D2D100250022DDE12D22002110F00C0F74
:10491000B9D000294FF0030050EA1090844212DD14
:104920000A9E0D465FEA0B7117D4041B93462020A4
:104930004946C047002800F1378301370134F6D3D8
:1049400000245A460AE000240A9E49B10FE02B22B7
:10495000002110F00C0FDCD195E7241A294631B95B
:1049600010464946C047002800F11E8301379DF8D4
:10497000480046F2B661C0F20021000746F2186016
:10498000C0F2002050EA51852878002800F0F98212
:10499000801B4946C0B2C047013701350028F3D516
:1049A00002E3782840F09880C5F188032E4653E052
:1049B0001798011D1791006846F2D061C0F20021DE
:1049C000002851EA00855FEA4B6058BF4FF0FF3E78
:1049D0002846714600F06AFEDDF83CC0064617E046
:1049E0001798890500F18680011D17910068C1178D
:1049F00088E04FF6EF700BEA000B0A2375262BE0D8
:104A00001798012611AD011D179100688DF844001B
:104A10005FEA0B700ED4B4450CD920204946644699
:104A2000C047002800F1C082A4F1010C0137B44551
:104A3000F3D8B4463744ACEB0604002E00F0A18254
:104A400015F8010B4946C047013E0028F5D5ABE2F9
:104A50004BF0100B102378264FF6F9700BEA00028A
:104A60005FEA0B600B960AD41798011D1791066830
:104A7000D1050AD5900554BFB6B2F6B205E0179835
:104A800091050AD4011D17910668002156EA01001C
:104A900008BF2BF0160278D10FE00730154620F042
:104AA00007000246416852F8086B17922A4656EAF8
:104AB000010008BF2BF0160267D100265FEA4B60A9
:104AC00062D50021012C60DA4FF6E9700BEA000193
:104AD0000B9D480637D467E025204946C04700288B
:104AE00000F1628228464946C047023700287FF518
:104AF000BAAC59E2073020F007010A46496852F87B
:104B0000080B179200295A46CDF82CE048BF42F412
:104B1000806250EA010322D080EAE17081EAE17309
:104B2000B0EBE17063EBE17111AC22F010060A23E7
:104B3000224600F06DFB3146061BDDF83CC0DDF877
:104B40002CE0480630D54FF6FE70764500EA0100AD
:104B50002BDA002D08BF21F01100714626E05FEA34
:104B60004B604FF0000040F19E810021012CDBDA08
:104B70004FF6EE70DDF83CC000EA0B00DDF82CE0EB
:104B800014E0002500229EE0002111AC30461646BC
:104B90007546224600F03CFB3146AE46DDF83CC08F
:104BA000061B0B9D4806CED4084631461FFA80FBF3
:104BB000C0060AD440F206401BEA000F5FEA0F90DD
:104BC00044185FEA0B7009D526E0002D4FF0010074
:104BD00050EA009044185FEA0B701DD45FEACB7076
:104BE00008D0B646644505DA06EB0C00A0EB040ECF
:104BF000644611E064450FDACDF82CE020204946E8
:104C0000C047002800F1D0810F9801340137A0423D
:104C1000F4D1DDF82CE004465FEACB601BD440F20F
:104C200006401BEA000F26D05FEA8B7075464FF0F6
:104C30002B0058BF20205FEA4B51494648BF2D202A
:104C4000C047002800F1B0810137AE46F3467546F3
:104C5000B64514DC1CE030204946F346C047002826
:104C600000F1A28135B328464946C047002800F12B
:104C70009B810237DE46F3467546B64508DD302097
:104C80004946C047002800F18F81013DB542F6DC5E
:104C90000F985E45A0EB040456EACB800744002E33
:104CA00000F06F8110984946805DC047013E0028A2
:104CB000F5D579E10137DE46F3467546B645DEDCCB
:104CC000E6E71D46049BC90652EA508113F1040F22
:104CD00008DB834206DA4BF4005B8B4204DAD843EC
:104CE0000E1802E04E1E00E00026A3F57A711FFAAE
:104CF0008BF4099424055FEA8B400395CDE9011CF0
:104D000005940CD411F5FA6F70464FF0050198BF69
:104D10000420002C58BF032101EB000C03E023EA20
:104D2000E37000F1010CDDF824B0002E079A4FF07B
:104D300000050B96CBF3001182F0010251EA0690B8
:104D40000F9983186344CB1A53EAC5841BF0090FEB
:104D500011D10A9E84B1604475461044441A202043
:104D60004946C047002800F11F8101370134F6D3BE
:104D70000024AE4600E00A9E0798CDF800E0002827
:104D8000069805D14946C047002800F10D8101373A
:104D9000059800280ED530204946C047002800F16C
:104DA0000381C6F178004946C0B2C047002800F12F
:104DB000FB800237099800070AD44CB12744302001
:104DC0004946C047002800F1EF80013CF7D100249C
:104DD0000998800427D49DF849004946C047002817
:104DE00000F1E2800B98012857DB2E204946C0478E
:104DF000002800F1D9800B98384400F1020B039889
:104E0000C5B20020471CAF4202D20C99085C00E0FA
:104E100030204946C047002800F1C6800B98B842B0
:104E20003846EFD148E0049820EAE076851B0B98DD
:104E3000C0F1000B0398C0B20F90701C06D12E2059
:104E40004946C047002800F1AF8001373020002DCF
:104E500004D40F998D42BCBF0E98405D49465E4513
:104E600006DDC04701350137013E0028E5D59BE04E
:104E7000C047002800F198800999781CC90640F1C4
:104E80009180002E40F08C802E204946C047B0F122
:104E9000FF3F40F38980023773E00998C00604D4CD
:104EA00007F1010B08E000213EE62E204946C047ED
:104EB000002879D407F1020B02984946801BC0B242
:104EC000C047002870D4049E2B204946002E48BFBE
:104ED0002D20C047002E48BF7642002864D4019898
:104EE00010F5FA6F15D844F6D3504946C1F2620066
:104EF000A6FB0005302000EB9510C0B2C04700288B
:104F000052D4A8094FF47A7100FB11620BF103052A
:104F100006E008980BF10205324610F1C80F3BD8A5
:104F200048F21F504946C5F2EB101746A2FB000697
:104F3000302000EB5610C0B2C047002834D47009AE
:104F4000642100FB117201354CF6CD404946CCF688
:104F5000CC401746A2FB0006302000EBD600C0B2C2
:104F6000C047002820D4F008013500EB8000A7EBF3
:104F7000400202F130004946C0B2C047002813D4B5
:104F80006F1C012CFFF66FAA20204946C04701374D
:104F9000013C0028F5D507E000980228D4D2E8E7C4
:104FA0000746EEE70746ECE799F8020040F00400F8
:104FB00089F802004FF0FF37384619B0BDE8F08F8E
:104FC000022AB8BF70472DE9F04F42F689084FF02A
:104FD000010CC0F2010804464FF0010E03E05F78B7
:104FE0009C1C252F29D1234613F8015B252D01D0C8
:104FF00025B90AE16778A31C252F1DD11C4614F89A
:10500000015B252D01D025B9FFE05F789C1C252F81
:1050100013D1234613F8015B252D01D025B9F4E007
:105020006778A31C252F07D11C4614F8015B252D9A
:10503000D5D0002DD7D1E8E01C464FF0000A4FF044
:105040000009002604E014F8017B002F00F0A9807D
:10505000B346BAF11F0F0AD8A7F12005102D09D8C1
:105060000CFA05F515EA080F40F07C8002E0BAF171
:105070007F0F0AD8A7F13005092D3ED80BEB8B0323
:105080004AF0200A05EB4306DDE7A7F14C052E2D7B
:1050900000F288805E46DFE815F067008500850035
:1050A00085008500850085008500850085008500D8
:1050B00085008500850085008500850085008500C8
:1050C00085008500850085008500850085008500B8
:1050D00085007700850067008500700085008500E9
:1050E000850085008500850085002F0085008500EE
:1050F0008500850085002F00A5E7A7F12405562D22
:1051000000F250800026DFE805F0334D4D4D4D4D47
:10511000324D4D4D324D4D4D4D4D4D4D4D4D4D4DF5
:105120004D4D4D4D4D4D4D4D4D4D4D4D4D4D4D4DAF
:105130004D4D2F4D4D4D4D4D4D4D4D4D4D4D4D4DBD
:105140004D4D4D4D4D4D4D4D4D4D4D4D4D4D3F4D9D
:105150002F4D384D4D4D4D4D4D4D2C4D4D4D4D4DD3
:105160002C00FFE75E466EE74AF4207AFAE76AE72A
:10517000B9F1000F0FD1D94665E70AF080034AEA7A
:10518000830343F0800AEDE70AF480734AEA43039D
:1051900043F4807AE6E7F3457FF455AF6327F146A1
:1051A00000E00027B9F1000F2FD0F14524D147F0DE
:1051B0002003612B1CBF653B022B05D80B6807330E
:1051C00023F00703083313E0A7F16303102B0AD879
:1051D000DFE803F00C0909090909090909090909A6
:1051E000090909090C005FEA0A6309D40B68043352
:1051F0000EF1010E04460B609645FFF6F4AE04E096
:105200000B685FEA8A54DAD4F1E7BDE8F04F7047E3
:105210002DE9F04703F01F06984691468A46054659
:105220002846514632460023FEF7C4FF044600FBE1
:1052300016500F46A0EB0801092888BF01F137007E
:10524000303089F80000A81B7AF1000049D32046CD
:10525000394632460023FEF7ADFF054600FB1640F7
:105260008A46A0EB0801092888BF01F137003030D9
:1052700089F80100A01B77F1000036D3284651467B
:1052800032460023FEF796FF044600FB16500F46F9
:10529000A0EB0801092888BF01F13700303089F8F8
:1052A0000200A81B7AF1000023D32046394632467B
:1052B0000023FEF77FFF054600FB16408A46A0EB61
:1052C0000801092888BF01F13700303089F8030050
:1052D00009F10409A01B77F10000A1D24846BDE8FE
:1052E000F08709F10100BDE8F08709F10200BDE88F
:1052F000F08709F103094846BDE8F0872DE9F04F32
:1053000085B05AEC103B4FEADA77CAF30A566FF3CE
:105310001F5A077153EA0A0408BF002E0ED040F24C
:10532000FF75AE423CD10421002C18BF082139443E
:1053300001710021084605B0BDE8F08F0027002369
:105340004FF0000A0029076037D40D2937D3190F11
:1053500000F1050B41EA0A110491190E4FEA1A54A3
:1053600041EA0A210391190D4FEA1A4641EA0A312E
:105370000291190C4FEA1A3841EA0A410191190BBE
:1053800041EA0A5C190A41EA0A6E190941EA0A79F6
:105390004FEA1A1103F00F034FEA1A27009180E039
:1053A0004FF60247002ECFF6FF771CBFA6F2FF375D
:1053B0000AF5801A00290760C7D5002146E0332688
:1053C000A6EB8105C5F1200613274FF0020CA7EBD1
:1053D00081072CFA06F401264FF0000E002F58BF6B
:1053E0000CFA07F458BF06FA07FE06FA05F60CFA9F
:1053F00005F558BF002658BF0025D5F100094FF02C
:10540000000868EB040C013D64F100041D4004EA4F
:105410000A04751B7EEB040411D38C00C4F134051F
:10542000D4F1140423FA05F7C5F120050AFA05F5AD
:1054300045EA070558BF2AFA04F5EC0702D09B1984
:105440004AEB0E0A03EA09030AEA0C0A1F0947EAB3
:105450000A791F0F1D0B47EA0A1704971F0E45EA2A
:105460000A5C47EA0A2703971F0D1D0A47EA0A3715
:1054700002971F0C45EA0A6E47EA0A4700F1050B3E
:1054800013F00F0301974FEA1A174FEA1A544FEA25
:105490001A464FEA1A384FEA1A25009700F0B480EE
:1054A0002F46991A092B88BF01F1270303F1300118
:1054B000817409F00F030D219D1A092B88BF05F196
:1054C00027030C2903F13003437498BF0C210EF01D
:1054D0000F039D1A092B88BF05F127030B2903F140
:1054E0003003037498BF0B210CF00F039D1A092B96
:1054F00088BF05F127030A2903F13003C37398BF5E
:105500000A21019B3D4603F00F039F1A092B88BF18
:1055100007F12703092903F13003837398BF092199
:10552000029B03F00F039F1A092B88BF07F1270383
:10553000082903F13003437398BF0821039B03F04C
:105540000F039F1A092B88BF07F12703072903F1CF
:105550003003037398BF0721049B03F00F039F1AC6
:10556000092B88BF07F12703062903F13003C37213
:1055700098BF06210AF00F039F1A092B88BF07F175
:105580002703052903F13003837298BF0521009B8F
:1055900003F00F039F1A092B88BF07F12703042983
:1055A00003F13003437298BF042105F00F039F1AE3
:1055B000092B88BF07F12703032903F13003037286
:1055C00098BF032108F00F039F1A092B88BF07F12A
:1055D0002703022903F13003C37106F00F0398BFBC
:1055E00002219A1A092B88BF02F1270303F1300226
:1055F0008271012998BF012104F130008BF800006D
:10560000084605B0BDE8F08F19F00F0348D10C290A
:1056100046D21EF00F0345D10B2943D21CF00F03D5
:1056200042D10A2940D2019B13F00F037FF46DAFE2
:105630000929BFF46AAF029B13F00F037FF473AF25
:105640000829BFF470AF039B13F00F037FF479AF09
:105650000729BFF476AF049B13F00F037FF47FAFED
:105660000629BFF47CAF1AF00F037FF485AF05293C
:10567000BFF482AF17F00F038CD104298AD215F042
:105680000F0394D1032992D218F00F039CD1022961
:105690009AD206F00F0353EA0107A2D10021ABE72B
:1056A0002F4609E72F4614E72F461FE7844639B3F4
:1056B00070B500EB010C4B1EA1F1020ECC1E0022B6
:1056C000855C85B1934219D085186E7876B1964580
:1056D00014D0AE786EB1944210D0EE7866B1043238
:1056E0009142EDD10AE000EB020C07E005F1010C5C
:1056F00004E005F1020C01E005F1030CBDE8704087
:10570000ACEB00007047B0B588B00C4645F24D7167
:10571000C0F20021002501914FF4003100910119E0
:10572000CDE90655002C0490CDE9025518BF481E5E
:1057300048BF00200590114668461A46FEF77CFED9
:10574000002C1CBF04990D7008B0B0BDD1E9042332
:105750009A421EBF531C0B61107070472DE9F04F29
:10576000A1B056EC108BB246C6F30A546FF31F5A21
:10577000F50F58EA0A0708BF002C0ED040F2FF765A
:10578000B44215D10821002F08BF04210024294468
:105790000171204621B0BDE8F08FA91C01713021B4
:1057A0000124417100210160204621B0BDE8F08F45
:1057B000A4F23549002CCDE9062308F00106049532
:1057C000CDE9081006BF4FF6CC39CFF6FF790AF5C0
:1057D000801A4FEA8A0242EA9870002F15905FEA19
:1057E0000F90022C5FEA2F91B9F1000F40EA0107F8
:1057F0004FEA880014900596139749D4484600F064
:1058000021FD0546B9F1030F88BF013D284600F090
:1058100027FD0DF1580B04462846594600F00BFEB3
:105820001AA81CA95A460297CDE90010A5EB090059
:105830002044514600F17C034046AB4600F031FC69
:105840008246152D5FD8149F4CF6CD46159D1EA897
:10585000CCF6CC460C4600903846294632464FF0EE
:10586000CC3300F072FEDDE91E01820842EA81714C
:1058700020F0030008444042F8426AD138462946E5
:1058800000F0F7FC58455FEA3F901290002087E057
:10589000C9F1000B584600F0DCFC044619F1010088
:1058A00018BF013CABEB040B584600F0D9FC16A91D
:1058B000054658468B4600F03BFD1AA81CA95A46DF
:1058C0000297CDE90010601B00F17D034046514670
:1058D00000F0E7FB04EB090B8246012C1BD8089B68
:1058E000002E069D4CF6CD46CCF6CC4608D0DDE920
:1058F0001C0201381C9062F100001D9000201390E2
:105900000120129050E04CF6CD460020CDE9120067
:10591000CCF6CC4646E0089B4CF6CD46069DCCF630
:10592000CC463E2C25D84FF0FF30B4F1200200FACF
:1059300004F758BF0027149C58BF9040159A24EADA
:10594000070722EA000038435FEA1F901290002008
:1059500011E0059888B91398C043C01965F100019A
:1059600000F087FC58455FEA3F90139000201290AA
:1059700017E000201290139016E047F0020029462D
:1059800000F077FCDDE91C124B1E62F10005584562
:1059900053EA21801C9055EA22801D90002012902D
:1059A00013902146089B069D002D0C934AD0BAF116
:1059B0000A0071F1000001D2012037E000274FF00A
:1059C0000A0C02204FF064094FF47A7842F2107EFC
:1059D0000A22A2FB0C4507EB870305EB4303BAEB56
:1059E000040471EB030320D3A2FB093407FB094431
:1059F000BAEB030371EB040314D3A2FB083407FBD7
:105A00000844BAEB030371EB04030DD3A2FB0E238E
:105A1000043007FB0E37BAEB020371EB0703D8D251
:105A2000013802E0013000E00230089B079A0BEBDE
:105A300002073844B0EBD27FB8BFD00F834253EA9D
:105A4000B0800C90CDF80CB00DF1680B1D9C16AD1C
:105A50009BE8000B00201591149011900B902FE003
:105A60001599504632464FF0CC3316AD4FEADB0461
:105A7000009500F06AFD1498BB46129910F0FF0FD4
:105A8000DDE916235FEA1F90014008EB88001291C0
:105A9000404210994942B1EB400F13995FEA1F90C1
:105AA00001401391D00840EA437101EB8000AAEB5A
:105AB0004000149011988A4601301190D808159032
:105AC0005846214632464FF0CC330095CDF834B0DD
:105AD0000E9400F03AFD4046494632464FF0CC3332
