S01C00007363695F6932635F63706B5F72613874325F65702E737265638B
S3150200000008400020E9480002C9480002212D0002EA
S31502000010F1480002F1480002F1480002F1480002EC
S31502000020000000000000000000000000F14800028D
S31502000030C929000200000000F1480002F14800024E
S31502000040393E0002613D0002213F0002A93F000243
S3150200005071400002E14100023143000219450002EB
S30D02000060514600022947000285
S31502000068002808BF704740F200010079C2F2000179
S315020000784870704700BF00BF017A40F20000C2F222
S3150200008800000429817044F20800C2F2000007D079
S31502000098052918BF70470630002102E000BF00BFDD
S315020000A8012140F240120623C2F2002282F84910C8
S315020000B80021C2E90D03C2E90F3182F84B10106B19
S315020000C8037943F010030371106B037903F0F70306
S315020000D80371106B037903F0EF03037182F84C1076
S307020000E8704757
S30D020000EC020000000000000002
S315020000F400000300512C0002712C000200000000D3
S3090200010440090000A6
S31502000110844641EA000313F0030349D1403A23D34C
S315020001200B6803604B6843608B688360CB68C3606F
S315020001300B6903614B6943618B698361CB69C36157
S315020001400B6A03624B6A43628B6A8362CB6AC3623F
S315020001500B6B03634B6B43638B6B8363CB6BC36327
S3150200016040304031403ADBD230320BD30B68036069
S315020001704B6843608B688360CB68C3601030103174
S31502000180103AF3D20C3205D351F8043B40F8043B43
S31502000190043AF9D2043208D0D2071CBF11F8013B47
S315020001A000F8013B01D30B8803806046704700BF0D
S315020001B0082A13D38B07B1D010F00303AED0C3F1D4
S315020001C00403D21ADB071CBF11F8013B00F8013BFE
S315020001D0A4D331F8023B20F8023B9FE7043AD9D375
S315020001E0013A11F8013B00F8013BF9D20B78037092
S315020001F04B7843708B7883706046704770B484077F
S3150200020046D0541E002A41D0CDB2034602E0621EF9
S31502000210E4B3144603F8015B9A07F8D1032C2ED9EE
S31502000220CDB245EA05250F2C45EA054519D92646DC
S3150200023003F11002103E0F2E42F8105C42F80C5CDD
S3150200024042F8085C42F8045C02F11002F2D8A4F10A
S31502000250100222F00F0204F00F041032032C134492
S315020002600DD91E462246121F032A46F8045BFAD807
S31502000270221F22F00302121D134404F003042CB1C0
S31502000280C9B21C4403F8011BA342FBD170BC7047E0
S3150200029014460346C2E72DE9F041042A03D2134667
S315020002A0844633B928E041EA00039B072AD0134665
S315020002B08446581EA3F10208A3F1030E00240D5D25
S315020002C01CF80460AE421AD1A04215D00CEB04070A
S315020002D00A1955787E78AE4211D1A0450CD0957890
S315020002E0BE78AE420BD1A64506D0D578FE78AE4290
S315020002F005D10434A342E2D10020BDE8F081701B8F
S31502000300BDE8F0814FF0000E044651F80E3050F869
S315020003100E709F422DD1131F01EB0E0504F1040C42
S31502000320042B2BD300EB0E06D5F8048077684745DD
S3150200033026D1A2F1080304F1080C042B22D3D5F826
S315020003400880B768474520D1A2F10C0304F10C0CD2
S31502000350042B1DD3EF68F668BE421CD1103A0EF18B
S31502000360100E1034032AD0D800EB0E0C714413463B
S3150200037097E700EB0E0C714413469AE7291D90E7A6
S31502000380291D96E705F108018BE705F1080190E7BB
S3150200039005F10C0185E705F10C018AE710B540F27B
S315020003A0081140F20002C0F20021C0F20002044627
S315020003B0FFF7AEFE40F2000040F20001C0F200007C
S315020003C0C0F20001204400F001F810BD0A460021E7
S315020003D0FFF714BF40F20801C0F20001401A40F2D2
S315020003E05001C2F200210860704783B080B581B027
S315020003F0844603A80EC046F21000C0F20020006830
S3150200040003AA6146009200F027F801B0BDE88040D9
S3150200041003B0704770B5054646F21000C0F20020E0
S315020004200468A078800714D56668287828B1214622
S31502000430B04701350028F8D507E00A202146B04723
S31502000440B0F1FF3FC4BF002070BDA07840F00400A9
S31502000450A0704FF0FF3070BD2DE9F04F99B0814684
S3150200046080781892800740F1B58518980027D9F848
S3150200047004808A46179011A8821D0C92421E0530EE
S3150200048010920E900D91514611F8010B252803D0BA
S315020004908A4638B900F0A0BD9AF801500AF1020A5C
S315020004A0252D06D14946C04701370028EBD500F075
S315020004B08BBD002200244FF0000C4FF0000B04E02D
S315020004C01AF8015B002D00F02D811FFA8BF61F2E04
S315020004D020D8A5F1200010281ED8DFE810F015005C
S315020004E01D001D0018001D001D001D0014001D002A
S315020004F01D001D0011001D00CC001D001D00C900BD
S315020005004BF0020B00E0DBE74BF0040BD8E74BF0B5
S31502000510100BD5E77F2E0DD8A5F13000092840D85B
S31502000520402E80F0A0800CEB8C014BF0200B00EBF0
S31502000530410CC5E7A5F14C002E2800F2F480DFE855
S3150200054010F08F00F200F200F200F200F200F20068
S31502000550F200F200F200F200F200F200F200F20003
S31502000560F200F200F200F200F200F200F200F200F3
S31502000570F200F200F200F200F200A400F2008F0094
S31502000580F2009D00F200F200F200F200F200F20028
S31502000590F2002F00F200F200F200F200F2002F0049
S315020005A08EE7A5F12400562800F2BD80DFE810F0A0
S315020005B08600BB00BB00BB00BB00BB007400BB00D7
S315020005C0BB00BB00A400BB00BB00BB00BB00BB0062
S315020005D0BB00BB00BB00BB00BB00BB00BB00BB003B
S315020005E0BB00BB00BB00BB00BB00BB00BB00BB002B
S315020005F0BB00BB00BB00BB00BB00BB00BB00BB001B
S315020006005800BB00BB00BB00BB00BB00BB00BB006D
S31502000610BB00BB00BB00BB00BB00BB00BB00BB00FA
S31502000620BB00BB00BB00BB00BB00BB00BB00BB00EA
S31502000630BB00BB00BB00BB006D00BB005800BB008B
S315020006406600BB00BB00BB00BB00BB00BB00BB001F
S315020006505700BB00BB00BB00BB00BB0057002FE727
S315020006604BF4207B2CE704EB840100EB410427E7E3
S315020006704BF0010B24E74BF0080B21E70BF080004F
S315020006804BEA800040F0800B1AE70BF480704BEACD
S31502000690400040F4807B13E7002A7FF411AF1798DD
S315020006A03F2E00F104011791006832D8B0F1FF3FE6
S315020006B032DD4BF0200B0022844601E712B3189874
S315020006C0402E179017A90D986546CDF83C90C14665
S315020006D090465CEA348200F083FC1798402E42462C
S315020006E0C84600F1040117910068DDF83C9050EA13
S315020006F0358C54EA3084E3E63F2E00F26D844BF0EB
S31502000700400BDDE6624600244FF0000C4FF0000B72
S31502000710D6E600220446D3E64BF0280BC0F1000CC5
S315020007200022CDE60025CDF83CC03AB1189817A9AB
S3150200073017900D9800F054FCDDF83CC0002C24EA1A
S31502000740E47E45F0200048BF2BF0400B61281CBF19
S31502000750A0F16501022925D81799612801F107013F
S3150200076021F0070101F108021792A0EB050291EDB3
S31502000770000B0A9244D15FEA4B6058BF4FF0FF3E2E
S3150200078011A8D2B27146764600F0C8FD451C4BF45C
S31502000790C05B4FF0700C4FF0010EE8B28642D8BF34
S315020007A0461E5CE0A5F16301122900F20A810823C4
S315020007B00026DFE811F035011300060106010601E5
S315020007C00601130006010601060106010601610182
S315020007D05D01060106010D0106012E011FFA8BF1CC
S315020007E05FEA0B6000F10C811798021D17920068F0
S315020007F0CA0540F10C81890554BF00B240B206E138
S315020008005FEA4B6158BF4FF0060E662809D065288D
S315020008100FD14BF4805B76460EF10101002365246D
S3150200082011E04BF4005B01226624112176467346E1
S315020008300AE05FEA0E61A0F10204714676464FF0C5
S31502000840000308BF0121002211A8C9B2112928BF3D
S31502000850112101F0B6F805464FF0020EA446119B8F
S315020008609DF84800A3F10A0111F1130F38BF4FF0AA
S31502000870020EA3F16401089111F1C70F38BF4FF0C0
S31502000880030E0F9CC1074FD15FEA8B716FD41FFA1B
S315020008908BF1202202EAC10211F0040F5FEA1F91D6
S315020008A010F00C0F45D11BF4405F0493CDE90621ED
S315020008B040F02B82012E4FF0010056EA80801FFA8B
S315020008C08BF12A0600F06D810E9BEAB2134413F8EF
S315020008D0013C302B40F006826B1E1A0621D02E46B2
S315020008E00E9DDAB2154415F8015C302D40F0F981FF
S315020008F0B31E1A0615D00E9DDAB2154415F8015C20
S31502000900302D40F0EE81F31E1A060AD00E9DDAB2A1
S31502000910154415F8015C302D40F0E381351F2A0697
S31502000920D2D100250022DDE12D22002110F00C0F8C
S31502000930B9D000294FF0030050EA1090844212DD2C
S315020009400A9E0D465FEA0B7117D4041B93462020BC
S315020009504946C047002800F1378301370134F6D3F0
S3150200096000245A460AE000240A9E49B10FE02B22CF
S31502000970002110F00C0FDCD195E7241A294631B973
S3150200098010464946C047002800F11E8301379DF8EC
S31502000990480045F6FE31C0F20021000745F6D900AF
S315020009A0C0F2002050EA51852878002800F0F9822A
S315020009B0801B4946C0B2C047013701350028F3D52E
S315020009C002E3782840F09880C5F188032E4653E06A
S315020009D01798011D1791006845F66641C0F200217D
S315020009E0002851EA00855FEA4B6058BF4FF0FF3E90
S315020009F02846714600F06AFEDDF83CC0064617E05E
S31502000A001798890500F18680011D17910068C117A4
S31502000A1088E04FF6EF700BEA000B0A2375262BE0EF
S31502000A201798012611AD011D179100688DF8440033
S31502000A305FEA0B700ED4B4450CD9202049466446B1
S31502000A40C047002800F1C082A4F1010C0137B44569
S31502000A50F3D8B4463744ACEB0604002E00F0A1826C
S31502000A6015F8010B4946C047013E0028F5D5ABE211
S31502000A704BF0100B102378264FF6F9700BEA0002A2
S31502000A805FEA0B600B960AD41798011D1791066848
S31502000A90D1050AD5900554BFB6B2F6B205E017984D
S31502000AA091050AD4011D17910668002156EA010034
S31502000AB008BF2BF0160278D10FE00730154620F05A
S31502000AC007000246416852F8086B17922A4656EA10
S31502000AD0010008BF2BF0160267D100265FEA4B60C1
S31502000AE062D50021012C60DA4FF6E9700BEA0001AB
S31502000AF00B9D480637D467E025204946C0470028A3
S31502000B0000F1628228464946C047023700287FF52F
S31502000B10BAAC59E2073020F007010A46496852F892
S31502000B20080B179200295A46CDF82CE048BF42F42A
S31502000B30806250EA010322D080EAE17081EAE17321
S31502000B40B0EBE17063EBE17111AC22F010060A23FF
S31502000B50224600F06DFB3146061BDDF83CC0DDF88F
S31502000B602CE0480630D54FF6FE70764500EA0100C5
S31502000B702BDA002D08BF21F01100714626E05FEA4C
S31502000B804B604FF0000040F19E810021012CDBDA20
S31502000B904FF6EE70DDF83CC000EA0B00DDF82CE003
S31502000BA014E0002500229EE0002111AC30461646D4
S31502000BB07546224600F03CFB3146AE46DDF83CC0A7
S31502000BC0061B0B9D4806CED4084631461FFA80FB0B
S31502000BD0C0060AD440F206401BEA000F5FEA0F90F5
S31502000BE044185FEA0B7009D526E0002D4FF001008C
S31502000BF050EA009044185FEA0B701DD45FEACB708E
S31502000C0008D0B646644505DA06EB0C00A0EB040EE6
S31502000C10644611E064450FDACDF82CE020204946FF
S31502000C20C047002800F1D0810F9801340137A04255
S31502000C30F4D1DDF82CE004465FEACB601BD440F227
S31502000C4006401BEA000F26D05FEA8B7075464FF00E
S31502000C502B0058BF20205FEA4B51494648BF2D2042
S31502000C60C047002800F1B0810137AE46F34675460B
S31502000C70B64514DC1CE030204946F346C04700283E
S31502000C8000F1A28135B328464946C047002800F143
S31502000C909B810237DE46F3467546B64508DD3020AF
S31502000CA04946C047002800F18F81013DB542F6DC76
S31502000CB00F985E45A0EB040456EACB800744002E4B
S31502000CC000F06F8110984946805DC047013E0028BA
S31502000CD0F5D579E10137DE46F3467546B645DEDCE3
S31502000CE0E6E71D46049BC90652EA508113F1040F3A
S31502000CF008DB834206DA4BF4005B8B4204DAD84304
S31502000D000E1802E04E1E00E00026A3F57A711FFAC5
S31502000D108BF4099424055FEA8B400395CDE9011C07
S31502000D2005940CD411F5FA6F70464FF0050198BF81
S31502000D300420002C58BF032101EB000C03E023EA38
S31502000D40E37000F1010CDDF824B0002E079A4FF093
S31502000D5000050B96CBF3001182F0010251EA0690D0
S31502000D600F9983186344CB1A53EAC5841BF0090F03
S31502000D7011D10A9E84B1604475461044441A20205B
S31502000D804946C047002800F11F8101370134F6D3D6
S31502000D900024AE4600E00A9E0798CDF800E000283F
S31502000DA0069805D14946C047002800F10D81013752
S31502000DB0059800280ED530204946C047002800F184
S31502000DC00381C6F178004946C0B2C047002800F147
S31502000DD0FB800237099800070AD44CB12744302019
S31502000DE04946C047002800F1EF80013CF7D10024B4
S31502000DF00998800427D49DF849004946C04700282F
S31502000E0000F1E2800B98012857DB2E204946C047A5
S31502000E10002800F1D9800B98384400F1020B0398A0
S31502000E20C5B20020471CAF4202D20C99085C00E012
S31502000E3030204946C047002800F1C6800B98B842C8
S31502000E403846EFD148E0049820EAE076851B0B98F5
S31502000E50C0F1000B0398C0B20F90701C06D12E2071
S31502000E604946C047002800F1AF8001373020002DE7
S31502000E7004D40F998D42BCBF0E98405D49465E452B
S31502000E8006DDC04701350137013E0028E5D59BE066
S31502000E90C047002800F198800999781CC90640F1DC
S31502000EA09180002E40F08C802E204946C047B0F13A
S31502000EB0FF3F40F38980023773E00998C00604D4E5
S31502000EC007F1010B08E000213EE62E204946C04705
S31502000ED0002879D407F1020B02984946801BC0B25A
S31502000EE0C047002870D4049E2B204946002E48BFD6
S31502000EF02D20C047002E48BF7642002864D40198B0
S31502000F0010F5FA6F15D844F6D3504946C1F262007D
S31502000F10A6FB0005302000EB9510C0B2C0470028A2
S31502000F2052D4A8094FF47A7100FB11620BF1030542
S31502000F3006E008980BF10205324610F1C80F3BD8BD
S31502000F4048F21F504946C5F2EB101746A2FB0006AF
S31502000F50302000EB5610C0B2C047002834D47009C6
S31502000F60642100FB117201354CF6CD404946CCF6A0
S31502000F70CC401746A2FB0006302000EBD600C0B2DA
S31502000F80C047002820D4F008013500EB8000A7EB0B
S31502000F90400202F130004946C0B2C047002813D4CD
S31502000FA06F1C012CFFF66FAA20204946C047013765
S31502000FB0013C0028F5D507E000980228D4D2E8E7DC
S31502000FC00746EEE70746ECE799F8020040F0040010
S31502000FD089F802004FF0FF37384619B0BDE8F08FA6
S31502000FE0022AB8BF70472DE9F04F42F689084FF042
S31502000FF0010CC0F2010804464FF0010E03E05F78CF
S315020010009C1C252F29D1234613F8015B252D01D0DF
S3150200101025B90AE16778A31C252F1DD11C4614F8B1
S31502001020015B252D01D025B9FFE05F789C1C252F99
S3150200103013D1234613F8015B252D01D025B9F4E01F
S315020010406778A31C252F07D11C4614F8015B252DB2
S31502001050D5D0002DD7D1E8E01C464FF0000A4FF05C
S315020010600009002604E014F8017B002F00F0A98095
S31502001070B346BAF11F0F0AD8A7F12005102D09D8D9
S315020010800CFA05F515EA080F40F07C8002E0BAF189
S315020010907F0F0AD8A7F13005092D3ED80BEB8B033B
S315020010A04AF0200A05EB4306DDE7A7F14C052E2D93
S315020010B000F288805E46DFE815F06700850085004D
S315020010C085008500850085008500850085008500F0
S315020010D085008500850085008500850085008500E0
S315020010E085008500850085008500850085008500D0
S315020010F08500770085006700850070008500850001
S31502001100850085008500850085002F008500850005
S315020011108500850085002F00A5E7A7F12405562D39
S3150200112000F250800026DFE805F0334D4D4D4D4D5F
S31502001130324D4D4D324D4D4D4D4D4D4D4D4D4D4D0D
S315020011404D4D4D4D4D4D4D4D4D4D4D4D4D4D4D4DC7
S315020011504D4D2F4D4D4D4D4D4D4D4D4D4D4D4D4DD5
S315020011604D4D4D4D4D4D4D4D4D4D4D4D4D4D3F4DB5
S315020011702F4D384D4D4D4D4D4D4D2C4D4D4D4D4DEB
S315020011802C00FFE75E466EE74AF4207AFAE76AE742
S31502001190B9F1000F0FD1D94665E70AF080034AEA92
S315020011A0830343F0800AEDE70AF480734AEA4303B5
S315020011B043F4807AE6E7F3457FF455AF6327F146B9
S315020011C000E00027B9F1000F2FD0F14524D147F0F6
S315020011D02003612B1CBF653B022B05D80B68073326
S315020011E023F00703083313E0A7F16303102B0AD891
S315020011F0DFE803F00C0909090909090909090909BE
S31502001200090909090C005FEA0A6309D40B68043369
S315020012100EF1010E04460B609645FFF6F4AE04E0AD
S315020012200B685FEA8A54DAD4F1E7BDE8F04F7047FB
S315020012302DE9F04703F01F06984691468A46054671
S31502001240284651463246002300F06EFA044600FB59
S3150200125016500F46A0EB0801092888BF01F1370096
S31502001260303089F80000A81B7AF1000049D32046E5
S3150200127039463246002300F057FA054600FB16406F
S315020012808A46A0EB0801092888BF01F137003030F1
S3150200129089F80100A01B77F1000036D32846514693
S315020012A03246002300F040FA044600FB16500F4671
S315020012B0A0EB0801092888BF01F13700303089F810
S315020012C00200A81B7AF1000023D320463946324693
S315020012D0002300F029FA054600FB16408A46A0EBD9
S315020012E00801092888BF01F13700303089F8030068
S315020012F009F10409A01B77F10000A1D24846BDE816
S31502001300F08709F10100BDE8F08709F10200BDE8A6
S31502001310F08709F103094846BDE8F0872DE9F04F49
S3150200132085B05AEC103B4FEADA77CAF30A566FF3E6
S315020013301F5A077153EA0A0408BF002E0ED040F264
S31502001340FF75AE423CD10421002C18BF0821394456
S3150200135001710021084605B0BDE8F08F0027002381
S315020013604FF0000A0029076037D40D2937D3190F29
S3150200137000F1050B41EA0A110491190E4FEA1A54BB
S3150200138041EA0A210391190D4FEA1A4641EA0A3146
S315020013900291190C4FEA1A3841EA0A410191190BD6
S315020013A041EA0A5C190A41EA0A6E190941EA0A790E
S315020013B04FEA1A1103F00F034FEA1A27009180E051
S315020013C04FF60247002ECFF6FF771CBFA6F2FF3775
S315020013D00AF5801A00290760C7D5002146E03326A0
S315020013E0A6EB8105C5F1200613274FF0020CA7EBE9
S315020013F081072CFA06F401264FF0000E002F58BF83
S315020014000CFA07F458BF06FA07FE06FA05F60CFAB6
S3150200141005F558BF002658BF0025D5F100094FF043
S31502001420000868EB040C013D64F100041D4004EA67
S315020014300A04751B7EEB040411D38C00C4F1340537
S31502001440D4F1140423FA05F7C5F120050AFA05F5C5
S3150200145045EA070558BF2AFA04F5EC0702D09B199C
S315020014604AEB0E0A03EA09030AEA0C0A1F0947EACB
S315020014700A791F0F1D0B47EA0A1704971F0E45EA42
S315020014800A5C47EA0A2703971F0D1D0A47EA0A372D
S3150200149002971F0C45EA0A6E47EA0A4700F1050B56
S315020014A013F00F0301974FEA1A174FEA1A544FEA3D
S315020014B01A464FEA1A384FEA1A25009700F0B48006
S315020014C02F46991A092B88BF01F1270303F1300130
S315020014D0817409F00F030D219D1A092B88BF05F1AE
S315020014E027030C2903F13003437498BF0C210EF035
S315020014F00F039D1A092B88BF05F127030B2903F158
S315020015003003037498BF0B210CF00F039D1A092BAD
S3150200151088BF05F127030A2903F13003C37398BF75
S315020015200A21019B3D4603F00F039F1A092B88BF30
S3150200153007F12703092903F13003837398BF0921B1
S31502001540029B03F00F039F1A092B88BF07F127039B
S31502001550082903F13003437398BF0821039B03F064
S315020015600F039F1A092B88BF07F12703072903F1E7
S315020015703003037398BF0721049B03F00F039F1ADE
S31502001580092B88BF07F12703062903F13003C3722B
S3150200159098BF06210AF00F039F1A092B88BF07F18D
S315020015A02703052903F13003837298BF0521009BA7
S315020015B003F00F039F1A092B88BF07F1270304299B
S315020015C003F13003437298BF042105F00F039F1AFB
S315020015D0092B88BF07F12703032903F1300303729E
S315020015E098BF032108F00F039F1A092B88BF07F142
S315020015F02703022903F13003C37106F00F0398BFD4
S3150200160002219A1A092B88BF02F1270303F130023D
S315020016108271012998BF012104F130008BF8000084
S31502001620084605B0BDE8F08F19F00F0348D10C2922
S3150200163046D21EF00F0345D10B2943D21CF00F03ED
S3150200164042D10A2940D2019B13F00F037FF46DAFFA
S315020016500929BFF46AAF029B13F00F037FF473AF3D
S315020016600829BFF470AF039B13F00F037FF479AF21
S315020016700729BFF476AF049B13F00F037FF47FAF05
S315020016800629BFF47CAF1AF00F037FF485AF052954
S31502001690BFF482AF17F00F038CD104298AD215F05A
S315020016A00F0394D1032992D218F00F039CD1022979
S315020016B09AD206F00F0353EA0107A2D10021ABE743
S315020016C02F4609E72F4614E72F461FE7844639B30C
S315020016D070B500EB010C4B1EA1F1020ECC1E0022CE
S315020016E0855C85B1934219D085186E7876B1964598
S315020016F014D0AE786EB1944210D0EE7866B1043250
S315020017009142EDD10AE000EB020C07E005F1010C73
S3150200171004E005F1020C01E005F1030CBDE870409E
S31502001720ACEB00007047D4D440B584B002AE00964C
S3150200173000F004F8029A039B04B040BD2DE9F04F75
S31502001740099D844681B1C2B14BB3B1FA81F7B3FAAE
S3150200175083F6F71B202F4FD3002D18BFC5E900C112
S3150200176000200021BDE8F08FCBB30021002D64D00C
S315020017700020C5E900C1BDE8F08F002B60D000282B
S3150200178061D05F1E3B4200F08580B1FA81F7B3FA61
S3150200179083F6F71B1F2FDFD207F1010C3CE0571E21
S315020017A03A425DD0B1FA81F7B2FA82F6F71B07F137
S315020017B0210CBCF1200F24D0BCF11F0F79D8CCF13B
S315020017C0200620FA0CF721FA0CF901FA06F5B040C8
S315020017D03D434FF0000ABCF1010F2CD07CE0B0FB78
S315020017E0F2FC002D1EBF0CFB12000021C5E9000110
S315020017F000216046BDE8F08F07F1010CBCF1200F15
S315020018000AD14FF000094FF0200C0D464FF0000AA6
S31502001810BCF1010F0FD05FE0C7F11F0720FA0CF6EB
S3150200182021FA0CF901FA07F5B84035434FF0000AE0
S31502001830BCF1010F50D100248FE00020BDE8F08FEB
S315020018406046BDE8F08FB1FBF3FC002D1EBF0CFB1A
S3150200185013100021C5E9001000216046BDE8F08F93
S31502001860002D1EBF00230740C5E90073012A0ED0D2
S3150200187092FAA2F24F00B2FA82F202F01F03D140AC
S31502001880D8401F23934307FA03F343EA000C60464A
S31502001890BDE8F08F002D1CBF07EA0100C5E900C0B4
S315020018A093FAA3F0B0FA80F021FA00F00021BDE825
S315020018B0F08FACF12007CCF140044FF0000920FA7A
S315020018C007F601FA04F52E4300FA04FA21FA07F59F
S315020018D03046BCF1010FAED02CF001070126023FC3
S315020018E04FF0000B06EB570E4FEA490444EAD57453
S315020018F06D0045EAD0754000E743E943891843EB9A
S315020019000708AF1A64EB0306B8F1000F56EA4484DF
S3150200191057EA4585640044EAD5746D0045EAD075F8
S3150200192040EADA70AE1A6FEA050164EB030789181A
S315020019304FEA40006FEA0401594157EA448956EAE0
S315020019404585CC0F4BEA4A010027A34640EAD170EF
S31502001950490041EAD87A0FF039C85FEACC711ED045
S315020019606F004FEA490147EAD07741EAD571B7EBF2
S31502001970020C4FEA400061EB030EFD4352196FEA77
S31502001980010653EB060240EADA705EEA41895CEA36
S315020019904785D10F44EA4A0200270C4692464FEA8F
S315020019A0DA7141EA400009994FEA4A02002918BF52
S315020019B0C1E9005940EA070122F001002043BDE8CF
S315020019C0F08F2DE9F04FA1B056EC108BB246C6F35C
S315020019D00A546FF31F5AF50F58EA0A0708BF002C7C
S315020019E00ED040F2FF76B44215D10821002F08BF6F
S315020019F00421002429440171204621B0BDE8F08F5C
S31502001A00A91C017130210124417100210160204687
S31502001A1021B0BDE8F08FA4F23549002CCDE90623AA
S31502001A2008F001060495CDE9081006BF4FF6CC3939
S31502001A30CFF6FF790AF5801A4FEA8A0242EA9870CF
S31502001A40002F15905FEA0F90022C5FEA2F91B9F1F1
S31502001A50000F40EA01074FEA880014900596139793
S31502001A6049D4484600F021FD0546B9F1030F88BF67
S31502001A70013D284600F027FD0DF1580B0446284685
S31502001A80594600F00BFE1AA81CA95A460297CDE940
S31502001A900010A5EB09002044514600F17C034046A4
S31502001AA0AB4600F031FC8246152D5FD8149F4CF6EA
S31502001AB0CD46159D1EA8CCF6CC460C46009038465F
S31502001AC0294632464FF0CC3300F072FEDDE91E01A4
S31502001AD0820842EA817120F0030008444042F8423B
S31502001AE06AD13846294600F0F7FC58455FEA3F902E
S31502001AF01290002087E0C9F1000B584600F0DCFC8A
S31502001B00044619F1010018BF013CABEB040B584621
S31502001B1000F0D9FC16A9054658468B4600F03BFD57
S31502001B201AA81CA95A460297CDE90010601B00F1BB
S31502001B307D034046514600F0E7FB04EB090B824663
S31502001B40012C1BD8089B002E069D4CF6CD46CCF6E2
S31502001B50CC4608D0DDE91C0201381C9062F1000077
S31502001B601D90002013900120129050E04CF6CD46B5
S31502001B700020CDE91200CCF6CC4646E0089B4CF696
S31502001B80CD46069DCCF6CC463E2C25D84FF0FF30EE
S31502001B90B4F1200200FA04F758BF0027149C58BF7C
S31502001BA09040159A24EA070722EA000038435FEAC2
S31502001BB01F901290002011E0059888B91398C0432F
S31502001BC0C01965F1000100F087FC58455FEA3F90B5
S31502001BD013900020129017E000201290139016E046
S31502001BE047F00200294600F077FCDDE91C124B1E85
S31502001BF062F10005584553EA21801C9055EA22807D
S31502001C001D900020129013902146089B069D002DE0
S31502001C100C934AD0BAF10A0071F1000001D20120F8
S31502001C2037E000274FF00A0C02204FF064094FF408
S31502001C307A7842F2107E0A22A2FB0C4507EB870352
S31502001C4005EB4303BAEB040471EB030320D3A2FBB7
S31502001C50093407FB0944BAEB030371EB040314D3FB
S31502001C60A2FB083407FB0844BAEB030371EB040337
S31502001C700DD3A2FB0E23043007FB0E37BAEB020389
S31502001C8071EB0703D8D2013802E0013000E00230DE
S31502001C90089B079A0BEB02073844B0EBD27FB8BF1A
S31502001CA0D00F834253EAB0800C90CDF80CB00DF100
S31502001CB0680B1D9C16AD9BE8000B00201591149035
S31502001CC011900B902FE01599504632464FF0CC33C7
S31502001CD016AD4FEADB04009500F06AFD1498BB4688
S31502001CE0129910F0FF0FDDE916235FEA1F900140FB
S31502001CF008EB88001291404210994942B1EB400F1D
S31502001D0013995FEA1F9001401391D00840EA43718C
S31502001D1001EB8000AAEB4000149011988A4601302C
S31502001D201190D80815905846214632464FF0CC33CA
S31502001D300095CDF834B00E9400F03AFD404649467F
S31502001D4032464FF0CC33DDE9164B0095CDE90F98BC
S31502001D5000F02EFDDDE91601E20842EA4B774FEA72
S31502001D60D109C00840EA4178B8EB070079EBDB00FD
S31502001D70A9D31599BAF10A0071F1000001D2012026
S31502001D803BE00A9700250A2202204FF00A0C64273C
S31502001D904FF47A7EA2FB0C3605EB850406EB44066D
S31502001DA0BAEB030371EB060322D3A2FB073605FB4C
S31502001DB00766BAEB030371EB060316D3A2FB0E36D4
S31502001DC005FB0E66BAEB030371EB06030FD342F271
S31502001DD010740430A2FB042305FB0435BAEB02039C
S31502001DE071EB0503D6D2013802E0013000E0023081
S31502001DF00A9F4CF6CD46CCF6CC460C9A4AEA01032B
S31502001E0013435FEA1F93904203DD13B901200B903F
S31502001E105AE71398C00771D0DDF8408032460F9911
S31502001E204FF0CC3316AD0095404600F0C1FCDDE91B
S31502001E301610C8F10003DDF848B0CA0842EA407439
S31502001E4004EB82025242B3EB420F5FD1C208DDF8C5
S31502001E504490DDF850C0DDE90D01904632464FF060
S31502001E60CC33CDF850C0009500F0A2FC159932464D
S31502001E7016984FF0CC3312905046179F009500F0FB
S31502001E8097FC4CF6CD4216A8009020464146CCF669
S31502001E90CC424FF0CC33DDE91665CDF83C8000F03C
S31502001EA087FCF10841EA457E14980EEB8101A046B3
S31502001EB0ED0810F0FF0FAAEB410C5FEA1F90DDE977
S31502001EC016120BEA000B12984CF6CD461595CB0866
S31502001ED043EA4274C00804EB830340EA47705B425C
S31502001EE009F1010916ADF908C8F10007CCF6CC468E
S31502001EF0D208F246B7EB430FAFD00CE00DF1400B20
S31502001F00D646DDF850C09BE8000B04E0D646DDF865
S31502001F104490DDF850C0159A8EEA08010F981346D0
S31502001F20424011430B9A5FEA0F911143CA07059982
S31502001F3000295FEA1F91002A04BF139A11EA0201DF
S31502001F400ED05FFA8CF105295FEA0F92042962EA44
S31502001F500B025FEA9F9142EA0E0202EA010C01E0DD
S31502001F604FF0010C039809EB00051EEB0C0043F140
S31502001F700001B0F10A0271F1000201D2012338E038
S31502001F80AE4600264FF00A0802234FF0640B4FF4C8
S31502001F907A7A42F210790A25A5FB087206EB8604C4
S31502001FA002EB4402C41B71EB02021DD3A5FB0B24F8
S31502001FB006FB0B44821A71EB040212D3A5FB0A2418
S31502001FC006FB0A44821A71EB04020CD3A5FB0952E2
S31502001FD0043306FB0926421B71EB0602DCD2013BE7
S31502001FE002E0013300E002334CF6CD467546CCF6EC
S31502001FF0CC460C9A93425FEADC82012A079A3AD1CE
S31502002000069F4FB12A441A44012AD8BF0122089FCB
S31502002010974257EAB2820C920C9A93422BDD053014
S315020020204CF6CD4741F10001CCF6CC474008013BC6
S3150200203040EAC170013510EB51024FEA510142F1FB
S315020020400002A2FB077626F0030707EB96074FF07E
S31502002050CC36D21B821A4CF6CD40CCF6CC4061F17E
S315020020600001A2FB000702FB06724CF6CD46CCF637
S31502002070CC4601FB06210C9A934253EAB2822BB25A
S3150200208014B22344A3F10108012CC0F2348102F0F8
S315020020900303099ACDF84880042C02F1050911932D
S315020020A0149402D24FF0000AA9E0E31A2244149CC7
S315020020B002F104084FF0000A1393642200238346B8
S315020020C00F46FFF731FB420800F0010042EAC172F7
S315020020D012EB510141F10001A1FB062323F0030299
S315020020E002EB93020023891A4FF47A7240EA410006
S315020020F0394640F0300015905846FFF715FB420866
S315020021004CF6CD4642EAC172CCF6CC4612EB5101F0
S3150200211000F0010041F100024FEA5B0141EAC7719A
S3150200212011EB570343F10003A3FB066525F00306F3
S3150200213006EB95069B1B6FF00206CB1A4CF6CD41B9
S31502002140CCF6CC41A3FB011C01EB8105ABEB4505AB
S3150200215045F0300508F804598AEA0605159E254415
S3150200216009F805604CF6CD46CCF6CC46A2FB0656DF
S3150200217026F0030505EB9606A2EB06024CF6CD46C3
S31502002180CCF6CC4640EA42006FF0030282EA0A022B
S3150200219040F03000224409F802004FF0CC304FEAFA
S315020021A0570203FB00C062F1000202FB06004A0866
S315020021B001F0010142EAC07212EB500040F1000048
S315020021C0A0FB062323F0030202EB93020023801AEC
S315020021D042F2107241EA40006FF0010181EA0A01FF
S315020021E040F03000214409F8010058463946FFF70D
S315020021F09BFA0AF1040A139A52457FF45EAFDDF8A0
S3150200220044E0DDF84880149CBEF1000F73D042080A
S315020022104CF6CD4742EAC172CCF6CC4712EB5103DB
S315020022206FEA0A0543F100032544A3FB077626F06D
S31502002230030707EB96074E08DB1BD31A4CF6CD4273
S31502002240CCF6CC4266F1000CA3FB0227BEF1010FCD
S3150200225002EB8206A0EB460646F0300609F8056058
S3150200226049D04FF0CC364CF6CD4503FB06734CF6FF
S31502002270CD47CCF6CC47CCF6CC450CFB07335708FA
S3150200228002F0010247EAC37717EB53034CF6CD4738
S3150200229043F10003CCF6CC47BEF1020FA3FB07764F
S315020022A026F0030707EB9607A3EB070342EA43026E
S315020022B0A4EB0A0303EB090642F0300206F8022CED
S315020022C019D064220023FFF72FFA420800F001001A
S315020022D042EAC17212EB510141F10001A1FB052351
S315020022E023F0030202EB9302891A40EA410040F00E
S315020022F0300006F8030C099804990171C0F80080B1
S31502002300204621B0BDE8F08F2DE9F04F8BB0490091
S3150200231041EAD07405931646D2E9002345002846C1
S31502002320214608AF009700F043FAD6E90223834616
S3150200233006A88946009028462146DDE9087A00F07B
S3150200234037FA10EB0708DDE906234AEB010ADDE955
S315020023500801571C059C43F10005B8EB00007AEB17
S315020023600100A4F1410455EA338357EA328296E822
S31502002370830017EB0807F568049445EB0A0510EB92
S315020023800B0059EB0100009457F10000CDE906233A
S3150200239045F10001571C43F10005B0EB080471EB4F
S315020023A00A04CDF80CB055EA338357EA3282CDF8E7
S315020023B0089000F01BFADDE91429169BC2E9000118
S315020023C043B3D6E900C1D6E902560398B8EB050530
S315020023D0DDE906236AEB06066C1E66F10007B0EB22
S315020023E00C000298DDF810B08841CDF800B054EA2E
S315020023F0358057EA3681571E63F10006B8EB0005B1
S315020024007AEB010557EA328256EA338300F0EEF997
S315020024105F463EE0DDE906204FEA4804D6E900ECD5
S3150200242001900598D6E90276A0F14005029800953A
S315020024304FEA4A05039945EAD87544EAD07443003F
S31502002440E71B65EB0606B7F1010B43EAD17366F1AA
S315020024500000DEEB410173EB0C0150EA36815BEAC8
S315020024603780B4EB0803019F75EB0A035FEA2F93EB
S315020024707F0043EA420347EAD2775A1E67F1000613
S31502002480241A8D4152EA338256EA378300F0AEF9B6
S31502002490049FDDE90623C9E900014046514600973B
S315020024A000F0A4F90BB0BDE8F08F43F24141C0F24F
S315020024B001014843800C704742F6FB61C0F20B01F2
S315020024C04843000D704749F24F31C0F212014843AA
S315020024D0012101EBD04070472DE9F04F4CF6CD4E6D
S315020024E045F6294442F6F50A47F6D50847F69169B4
S315020024F043F2343B02460020CCF6CC4E4FF0333347
S31502002500CCF28F24C8F65C7AC2F2E968C3F6FB29DC
S31502002510C3F2333BA2FB0E5C4FF0CC3702FB07C77C
S31502002520D5F1333501FB0E7773EB07072ED3A2FBEA
S31502002530047502FB0A55D7F1333701FB045573EBD9
S31502002540050722D3A2FB087540F63106C1F6AC4652
S3150200255002FB0655D7F1333701FB085573EB050726
S3150200256016D3A2FB09754CF67066CDF288260430A6
S3150200257002FB065201FB0921B7EB0B0271F1333262
S315020025803A46C7D30138BDE8F08F0130BDE8F08F77
S315020025900230BDE8F08F2DE9F04F87B005464EF6C2
S315020025A04F40C4F6C4608B46A5FB0001C8081A2139
S315020025B000FB01F645F6D041C0F2002101EB001006
S315020025C0B54209D190E80E00C0688BE80E00CBF840
S315020025D00C0007B0BDE8F08FD0E9009245F6A05195
S315020025E0C0F200210192D0E90223A81B51F83070F3
S315020025F001EBC000446804A800903846214600F06A
S31502002600D7F8019B824602A88846009038462146A2
S315020026104A4600F0CDF881460191DDE90201002229
S3150200262010EB0A0758EB010842F10000012806D117
S31502002630DDE904010130049041F1000005902846CD
S31502002640FFF741FF04463046FFF73DFF0199241A82
S3150200265048463A464346009400F0C8F86FF0030233
S3150200266045F6706302EA9502C0F200239A581E23C9
S3150200267003EA4503DA4002F003068019DDE9042382
S3150200268041F10001CBE9000138464146009400F0D1
S31502002690ADF8CBE9020107B0BDE8F08F2DE9F04FA6
S315020026A087B08B464EF64F4105461930C4F6C461D3
S315020026B0A0FB0101C8081A2100FB01F645F6C86114
S315020026C0C0F2002101EB0010AE4209D190E80E00E3
S315020026D0C0688BE80E00CBF80C0007B0BDE8F08F9F
S315020026E0D0E900A245F6A051C0F200210192D0E93C
S315020026F00223701B51F8307001EBC000446804A835
S3150200270000903846214600F053F8804602A8009011
S31502002710BAF1010201988946214660F10003384662
S3150200272000F046F804468A46DDE90201002210EB73
S31502002730080751EB090842F10000012806D1DDE93C
S3150200274004010130049041F1000005903046FFF784
S31502002750BAFE06462846FFF7B6FE361A2046514608
S315020027603A464346009600F041F86FF0030245F6FA
S31502002770B87302EA9502C0F200239A581E2303EAAE
S315020027804503DA4002F003054019DDE9042341F16D
S315020027900001013041F10001CBE900013846414612
S315020027A0009600F023F8CBE9020107B0BDE8F08FEE
S315020027B0F0B5A2FB01CEA2FB0075A3FB011415EB3B
S315020027C00C05DDF814C051EB0E06294644F100044F
S315020027D03246E3FB0012A3FB0003401956EB03004B
S315020027E044F10000CCE900203846F0BD10B5DDF812
S315020027F008C0CCF1400ECEF1200420FA0CF003FA08
S315020028000EF322FA04F42343DCF1200458BF02FA41
S3150200281004F302FA0EF201FA04F440EA040058BF85
S315020028200022BCF1200458BF21FA04F021FA0CF16F
S3150200283058BF00211043194310BDD4D4D4D4D4D4E4
S31502002840F0B581B040F2D806EFF31184C2F2002649
S31502002850002585F31288012086F8380000F040F939
S3150200286043F680404FF00041CEF200009FED261A5B
S31502002870016044F2402184F31188C0F20F013069ED
S3150200288000EE100A88425FEA2F9186F83910B8EEF8
S31502002890400A96F8391080EE012A81EE000A0029D4
S315020028A09FED1A1A44F6D35102FE000AC1F26201E2
S315020028B0B6EE002AA0FB0101A0EE012A8809BDEEB0
S315020028C0C20A86ED0C0A7063EFF3118785F312884C
S315020028D0B56000F01DF8BFF34F8FBFF36F8F00BFD7
S315020028E0BFF34F8FBFF36F8F044600F011F8B16844
S315020028F02144401AB06087F31188C6E90855C6E933
S315020029000A5501B0F0BD00BF00247449000080479B
S31502002910B0B543F27C0240F2D803CEF20002C2F214
S315020029200023EFF3118C002080F31288106893F8CD
S315020029303810012943F6C041CEF2000108D10968D8
S31502002940B1F1FF3F10DD002125E000BF00BF00BF4F
S31502002950EFF3108E72B60C68B4F1FF3F08DD00216A
S3150200296017E000BF00BF00BF1068012113E000BFDF
S315020029704FF0004041F8400C0021EFF3118081F343
S315020029801288D3E908450135C3E9084580F3118861
S3150200299010688EF31088D3E908258018D3E90A2433
S315020029A06941821A71EB040206DAD3E90A018CF351
S315020029B01188B0BD00BF00BFC3E90A018CF31188BC
S315020029C0B0BDD4D4D4D4D4D410B54EF63050CEF251
S315020029D000000068800647D543F68040CEF200002C
S315020029E0016CB1F1FF3F07DDD0F88011C9B20229AF
S315020029F01AD239E000BF00BF40F2D80C4FF00041B6
S31502002A00C2F2002C0160EFF31181002282F31288D8
S31502002A10DCE908320132CCE9083281F31188D0F8B8
S31502002A208011C9B202291FD3026892070AD540F261
S31502002A30D80C0222C2F2002C0260DCE9103201320A
S31502002A40CCE9103204290FD3026812070AD540F2E4
S31502002A50D80C0822C2F2002C0260DCE912320132E2
S31502002A60CCE91232062903D210BD00BF00BF00BF57
S31502002A70026892060AD540F2D80C2022C2F2002C35
S31502002A800260DCE914320132CCE91432062908BFAD
S31502002A9010BD08294FF0010C5CEA3C9E40F2D801B9
S31502002AA0C2F200210623F64601F1580208E000BFF1
S31502002AB001330832BEF1010E02D1D5E700BF00BFD5
S31502002AC00CFA03F1046C0C42F2D00160D2E9001454
S31502002AD011F5803144F10004C2E90014E8E7D4D4C8
S31502002AE043F60040CEF20000D0F80012490458BF67
S31502002AF0704770B543F60462EFF3108CCEF2000213
S31502002B0072B64FF00043116821F0010111600362B1
S31502002B100366116841F004011160C0F88030116843
S31502002B2041F002011160D0F80012C9B2022954D351
S31502002B304FF600044FF60405CFF6FF74CFF6FF7585
S31502002B404FF0080E042940F804E04FF01E044451E9
S31502002B504FF00305C0F880504FF002060664056088
S31502002B603BD34FF608051326CFF6FF7506294651C5
S31502002B704FF60C05CFF6FF7544514FF00C04C0F822
S31502002B808040C0F840E0046027D34FF610060325C4
S31502002B90CFF6FF76062985514FF61406CFF6FF7655
S31502002BA04FF01E0585514FF03006C0F880604FF099
S31502002BB020050564066010D008294FF0010151EA8C
S31502002BC0319E062400BF00BF01FA04F50134C0F8A5
S31502002BD08050056405600FF009C84EF6FC51CEF22E
S31502002BE000010E6846F0807646F444160E600364D1
S31502002BF003601068002140F00100106041F20000FD
S31502002C00CEF2000001608CF3108870BDD4D4D4D407
S31502002C10017904291AD140F2D80C8068C2F2002C3C
S31502002C20DCE900314A1C803A52EA0192CCF80420CF
S31502002C309A4240F25403C2F20023585418BF704716
S31502002C40501C803850EA0290CCF800007047D4D469
S31502002C5040F29C11C2F200214A6A1071486A00BF12
S31502002C60816C8900FCD500207047D4D4D4D4D4D446
S31502002C702DE9F04182B040F2D807C2F20027D7E927
S31502002C800050854205D100BF00BFD7E900508542FA
S31502002C90FAD0A84210D940F254010138C2F20021FA
S31502002CA07860495D8DF807109DF8070002B0BDE80F
S31502002CB0F08100BF00BF00BF401BC5F18004803019
S31502002CC040F25400C2F200200DF1070800EB0501A4
S31502002CD0404622465FEA0F96FDF71AFAA6420BD243
S31502002CE0A819B0F1800150EA118038609DF80700FA
S31502002CF002B0BDE8F08100BF361B40F2540108EB7A
S31502002D000400C2F200213246FDF702FA7019386059
S31502002D109DF8070002B0BDE8F081D4D4D4D4D4D44F
S31502002D20B0B545F6A81072B64EF62855C0F2002088
S31502002D30CEF20005FDF76EFB6868002808D46868C5
S31502002D4040000BD545F60240C0F2002004E000BF69
S31502002D5045F60E10C0F20020FDF75CFB45F66D400D
S31502002D60EFF30884C0F20020FDF754FB45F6CF20AE
S31502002D702168C0F20020FDF738FB45F6D7106168DE
S31502002D80C0F20020FDF731FB45F6DD00A168C0F276
S31502002D900020FDF72AFB45F65840E168C0F2002004
S31502002DA0FDF723FB45F617002169C0F20020FDF767
S31502002DB01CFB45F667306169C0F20020FDF715FB82
S31502002DC045F2B060A169C0F20020FDF70EFB45F2A4
S31502002DD0BE60E169C0F20020FDF707FB45F6EB0095
S31502002DE0C0F20020FDF716FB45F625002968C0F261
S31502002DF00020FDF7FAFA45F6423055F8241CC0F2D7
S31502002E000020FDF7F2FA45F6DD206968C0F20020DF
S31502002E10FDF7EBFA45F2CC60C0F20020FDF7FAFAB4
S31502002E2045F26170EFF30581C0F20020FDF7DDFA8D
S31502002E302868800118D42868C0011ED42868C002F8
S31502002E4024D42868000349D4286840034FD428684C
S31502002E50800355D42868C0035BD42868C00561D4B2
S31502002E6000BEB0BD00BF00BF45F6E510C0F20020AF
S31502002E70FDF7D0FA2868C001E0D545F6AD20C0F2CC
S31502002E800020FDF7C7FA2868C002DAD545F66B10AE
S31502002E90C0F20020FDF7BEFA45F2F1602146C0F20B
S31502002EA00020FDF7A2FA45F65630EFF30A81C0F28A
S31502002EB00020FDF79AFA45F69040EFF30981C0F239
S31502002EC00020FDF792FA45F63900EFF30B81C0F2C6
S31502002ED00020FDF78AFA28680003B5D545F62C10BE
S31502002EE0C0F20020FDF796FA28684003AFD545F2F6
S31502002EF00270C0F20020FDF78DFA28688003A9D57A
S31502002F0045F64C10C0F20020FDF784FA2868C0038B
S31502002F10A3D545F63140C0F20020FDF77BFA2868BA
S31502002F20C0059DD545F21E70C0F20020FDF772FA6B
S31502002F3000BEB0BDD4D4D4D48AB040F254004EF20E
S31502002F4001484EF2001448F2000743F2040B4CF219
S31502002F5000364CF6002A41F2FF15C2F2002080210B
S31502002F60CEF20008CEF20004C4F23507C4F2200BFA
S31502002F70C4F20006C3F69A3AC0F27A05FDF726FABB
S31502002F8007F5106140F29C17C2F2002740F2D809F9
S31502002F9046F28402C2F20029C0F20022C7E90821E1
S31502002FA0B97842F611430020C9E900003870C0F230
S31502002FB00023C7E90A3040F24013386301F0FC00EF
S31502002FC00130B8700820C4F88000BFF34F8FBFF3FA
S31502002FD06F8FF068C2F2002320F48030F060F06850
S31502002FE0C02088F80200DF600121C4F88010B446D0
S31502002FF0BFF34F8FBFF36F8F326822F48032326095
S31502003000326884F800031F600222C4F88020BFF3EE
S315020030104F8FBFF36F8F726822F4803272607268CC
S3150200302088F800005F600422C4F88020BFF34F8F47
S31502003030BFF36F8FB26822F48032B260B26888F84A
S3150200304001009F60EFF3108681F31088DBF8000021
S315020030504DF6836120F48000CBF80000DBF8000017
S31502003060D9F81000C4F21B31A8420DD944F23F2A06
S31502003070C0F20F0A5044A0FB0101880C0001A0EB2C
S315020030809140400058B914E0BAFBF0F047F23051D3
S3150200309044F23F2AC0F20F0AB1FBF0F048B101F048
S315020030A00FFC4CF2003C4EF20014C4F2000CCEF2BD
S315020030B0000486F310884FF48061786A00230022A8
S315020030C081604FF41241786AC1F61F72416140F283
S315020030D01001786AC2F2002109680161786A30211A
S315020030E0C160786A8361796A386A4A6240F200127C
S315020030F0796AC0F201020A63FB61C2693B61C7E9F0
S315020031000533527CBB608AB34EF25403C4F2010308
S315020031101F7807F00F07022F02D801260EE000BF24
S31502003120FE1E052E08D246F28C37C0F2002757F84B
S31502003130267005E000BF00BF083F102606FA07F713
S315020031405B7840F22006C2F2002603F00F0356F81F
S315020031502330B3FBF7F3D9F810707A4340F29C1789
S31502003160C2F20027B2FBF3F20132BA6010234FF02B
S31502003170FF32C9F60353BA8103F580228A6690F9B3
S3150200318005104A0901F01F035CF8210020F4803083
S315020031904CF821005CF8210004F5C0700121BFF350
S315020031A05F8F01FA03F340F8223044F822303A6A7C
S315020031B092F90B205CF8223023F480334CF822304B
S315020031C05CF82230530902F01F02BFF35F8F01FA47
S315020031D002F240F8232044F823203A6A92F90720A3
S315020031E05CF8223023F480334CF822305CF822302B
S315020031F0530902F01F02BFF35F8F01FA02F240F891
S31502003200232044F823203A6A92F909205CF82230F6
S3150200321023F480334CF822305CF82230530902F052
S315020032201F02BFF35F8F914040F8231044F823102A
S3150200323040F21141786AC0F201018160786A00BFEA
S31502003240017FC907FCD044F642104FF00008C5F2D0
S3150200325043307860EFF3118488F3128840F2280B2A
S3150200326089F83880C4F2400BFFF73AFC43F68040F7
S315020032704FF00041CEF200009FEDDC1A01600AF128
S31502003280010184F311880591D9F8100000EE100AA5
S3150200329088425FEA2F9189F83910B8EE400A99F808
S315020032A0391080EE012A81EE000A00299FEDD01A1C
S315020032B044F6D35102FE000AC1F26201B6EE002ABA
S315020032C0A0FB0101A0EE012A8809BDEEC20A89ED22
S315020032D00C0AC9F83400EFF3118488F31288C9F88E
S315020032E00880FFF715FBBFF34F8FBFF36F8F00BF49
S315020032F0BFF34F8FBFF36F8F0646FFF709FBD9F86F
S3150200330008103144401AC9F8080084F31188C9E943
S3150200331008884FF48060C9E90A88CBF8000045F2B4
S315020033204570C0F20020FDF775F845F6A000C0F220
S315020033300020FDF76FF845F64A00C0F20020FDF7BF
S3150200334069F845F68620C0F20020FDF763F845F6D7
S315020033509720C0F20020FDF75DF848F200004A21EE
S31502003360C4F23500786446F24800C7F87080C0F2AD
S315020033700020C7E90D0140F201010120C0F200015F
S31502003380C7E91A1843F2040187F83C00C4F2200187
S31502003390EFF3108480F31088086820F0004008607C
S315020033A00868D9F81000A84212D944F23F284DF60F
S315020033B08361C0F20F08C4F21B314044A0FB010135
S315020033C0880C0001A0EB914040000FE000BF00BF57
S315020033D04CF6002144F23F28C3F69A31C0F20F0898
S315020033E0B1FBF0F047F23051B1FBF0F040F2401E73
S315020033F040F29C16C2F2002EC2F2002628B101F05B
S315020034005FFA40F2401EC2F2002E84F310880022B8
S31502003410706B716C406A8A60716C00BF00BF00BF3E
S315020034200A7F0AB12FF005C0027948F21813C0F2DA
S3150200343007034CF2003C63F35F120A62827940F2A0
S315020034400023C0F20403C4F2000C4EF2001443EA55
S31502003450C2124A61027843788778C6781B02CEF296
S31502003460000443EA024240F29C1342EA0752C2F2C5
S31502003470002342EA06624EF2014604320A614079AC
S31502003480596C4FF08052CEF2000642EA0060C860E4
S31502003490586C102203F13401C9F6035282660822DF
S315020034A0C266C020F070CEF81010DCF8102022F4AC
S315020034B08032CCF81020DCF81020BFF35F8F102288
S315020034C0C4F8802122603071CEF8141040F27D31AA
S315020034D0DCF8140020F48030CCF81400DCF8140078
S315020034E0BFF35F8F2020C4F8800120600020C3E96B
S315020034F01300C3E9150083F8610083F8620083F8BC
S31502003500630083F8640019644EF20021C4F22501B7
S31502003510CEF8301046F21801CEF85800C0F200215B
S31502003520CEF8281040F21901C0F20001CEE91410BB
S3150200353043F204010120C4F22001EFF3108680F366
S315020035401088086820F0800008600868D9F8100022
S31502003550A8420DD94DF683614044C4F21B31A0FB4B
S315020035600101880C0001A0EB9140400058B918E017
S315020035704CF60021C3F69A31B1FBF0F047F2305116
S31502003580B1FBF0F068B101F09BF940F2401E4CF23B
S31502003590003C4EF20014C2F2002EC4F2000CCEF22F
S315020035A0000486F3108800218EF84B10DEF82800FE
S315020035B0DEF83020406A80781170DEF83010402242
S315020035C00A70DEF8301000BF0A785206FCD5C02217
S315020035D00A70DEF828108A7A012A0DD1DEF8302028
S315020035E00023D3720A7A52000FE000BF0024744906
S315020035F00000804700BF00BF0A890623DEF830704C
S3150200360003EAD2120132FA720A7ADEF830307D27E4
S3150200361000289A72C97ADEF830204FEAC10101F118
S3150200362001019171DEF830104FF00602CA70DEF821
S315020036302810DEF830204B6808BF5D27059EB3428E
S3150200364008BF803757714A6ADEF83030527842F046
S31502003650E0021A74496A0822097861F306129A701E
S31502003660DEF828100122C0FA52F0DEF83020897CFA
S3150200367040EA81101071DEF83000A021C1719F214D
S31502003680DEF830000170DEF8280090F90F20417C48
S315020036904EF61850002ACEF200004FEA011103D46A
S315020036A0A31883F8001304E002F00F03034403F89F
S315020036B0041C0EF128014EF822105CF82230012675
S315020036C023F480334CF822305CF82230530902F09E
S315020036D01F02BFF35F8F04EB830706FA02F2C7F8F5
S315020036E0802144F82320DEF8283093F90D201B7C34
S315020036F0002A4FEA031303D4A71887F8003304E01D
S3150200370002F00F07074407F8043C4EF822105CF853
S31502003710223023F480334CF822305CF822305309ED
S3150200372002F01F02BFF35F8F04EB830706FA02F271
S31502003730C7F8802144F82320DEF8283093F90E20BA
S315020037401B7C002A4FEA031306D4A71887F8003316
S3150200375007E000BF00BF00BF02F00F07074407F8EB
S31502003760043C4EF822105CF8223023F480334CF8E5
S3150200377022305CF82230530902F01F02BFF35F8F3A
S3150200378004EB830706FA02F2C7F8802144F82320E5
S31502003790DEF8283093F90C201B7C002A4FEA03132B
S315020037A006D4A01880F8003307E000BF00BF00BFB0
S315020037B002F00F07384400F8043C4EF822100123A9
S315020037C05CF8220020F480304CF822005CF82200DB
S315020037D0500902F01F02BFF35F8F04EB800103FA68
S315020037E002F2C1F8802144F2533144F8202000202D
S315020037F08EF84C00C4F63211CEF82C1002218EF847
S3150200380049108EF84A008EF84800CEF84400CEE9F8
S315020038100D00CEE90F0045F67900C0F20020FCF754
S31502003820F9FD48F2804449F200464DF68367D9F81D
S315020038301010C0F21E04C7F23576C4F21B370FE031
S315020038404CF60020C3F69A30B0FBF1F0B6FBF0F06E
S3150200385001F036F8D9F81010D9E90002904213D1D6
S31502003860A942EDD901EB0800A0FB0702900CA0FBD0
S3150200387004022AB14FF0FF30EAE700BF00BF00BFE3
S315020038800028E5D1E8E700BF45F68B10C0F200201C
S31502003890FCF7C0FDFFF73CF8CDE9031040F2000843
S315020038A0BFF34F8FBFF36F8F4CF6002440F29C1785
S315020038B0C2F200080026C3F69A34C2F2002714E0C8
S315020038C045F6BC30C0F2002040F29C17C2F2002737
S315020038D0FCF7A0FD45F6A140C0F20020FCF79AFDD8
S315020038E0032E06F1010680F0BB8198F8000001283C
S315020038F032D00228F4D144F208010120C2F20001BA
S3150200390088F800004FF08060CBF800005020ADF838
S315020039101C0042F21000C4F230000690002008603B
S31502003920888088F8010088F8020087F8620097F814
S315020039303C0006A901284FF00600C7E913103BD147
S3150200394097F838004FF48071A7F85D10400087F8A9
S315020039505C00012032E000BF44F208020220C2F2FB
S31502003960000288F800004FF08060CBF80000106873
S31502003970C2F8060090880021ADF824100891508103
S3150200398088F8011088F8021087F8621097F83C0050
S315020039900621012808A8C7E9130140F0958097F887
S315020039A038004FF48071A7F85D104000013087F8A7
S315020039B05C0001208AE000BF97F85E00002187F8CC
S315020039C0611087F860100622C7E9152187F85F00A3
S315020039D087F8631087F8651087F8671097F8610013
S315020039E0012802D1012087F86500786C1121C0F206
S315020039F030018160786C00BF017F1129FCD197F8F4
S31502003A006410E9B1002187F8641097F85E10012965
S31502003A104FF0280151EA0191394491F8341061F0CE
S31502003A20FF01416097F85F0097F86010013887F848
S31502003A305F00481C87F8600008E000BF00BF00BFB7
S31502003A40016A21F4710101F5A20101624FF47A774C
S31502003A500EE000BF00BF00BFB4FBF0F00599B1FB5A
S31502003A60F0F008B100F02CFF013F380400F0C480EA
S31502003A7098F80100032804D198F80200022800F001
S31502003A80C38098F8020001281CBF98F8010001289B
S31502003A903FF416AFD8F80400002840F08980D9F820
S31502003AA01000A842D8D94DF683615044C4F21B31A6
S31502003AB0A0FB0101880C4FF47A7148430028D1D14A
S31502003AC0D2E700BF00BF00BF97F85E00012187F86A
S31502003AD06110002187F860100622C7E9152187F8D0
S31502003AE05F0087F8631087F8651087F8671097F804
S31502003AF06100012802D1012087F86500786C112146
S31502003B00C0F230018160786C017F1129FCD197F8EF
S31502003B106410E9B1002187F8641097F85E10012954
S31502003B204FF0280151EA0191394491F8341061F0BD
S31502003B30FF01416097F85F0097F86010013887F837
S31502003B405F00481C87F8600008E000BF00BF00BFA6
S31502003B50016A21F4710101F5A20101624FF6FF70BB
S31502003B6098F80110022903D198F80210032963D0AC
S31502003B7098F8021001291CBF98F8011001290BD0F0
S31502003B80D8F8041041BB01380104E9D145F60520F5
S31502003B90C0F2002004E000BF45F64B20C0F2002030
S31502003BA0FCF738FC45F2A370C0F2002096E600BF8F
S31502003BB0D8F8040040F29C1700284FF00000C8F81D
S31502003BC0040045F6A140C0F20020C2F200277FF4AD
S31502003BD085AE28E000BF00BFD8F8040000284FF0E9
S31502003BE00000C8F8040045F2A370C0F200207FF47A
S31502003BF075AE2CE000BF00BF45F2D170C0F20020C6
S31502003C0062E600BF00BF00BF44F208000622C2F20D
S31502003C10000006A9FCF73FFB40F29C170028C2F2FF
S31502003C2000277FF457AE4FF48060CBF8000045F6CC
S31502003C30F120C0F2002051E644F208000622C2F248
S31502003C400000811D08A8FCF726FB0028AAD14FF424
S31502003C508060CBF8000045F27070C0F200203DE6AD
S31502003C60BFF34F8FBFF36F8F46F200584AF220160A
S31502003C70C1F6CD58C0F20706FEF74AFED9F808206B
S31502003C80049B9B18039F47EBE272C41A45F2EF604E
S31502003C90C0F2002061EB0207FCF7BCFB45F62530BB
S31502003CA0C0F20020FCF7A1FB45F69630C0F20020D8
S31502003CB0FCF7B0FB45F6753045F63E31C0F2002002
S31502003CC0C0F2002122463B46CDE90047FCF78DFBB8
S31502003CD04FF480674FF080640DE000BF00BF00BF65
S31502003CE04CF60021C3F69A31B1FBF0F0B8FBF0F0C6
S31502003CF008B100F0E5FDCBF80070D9F81000A84233
S31502003D000AD94DF683615044C4F21B31A0FB01016E
S31502003D10880C704348B90AE04CF60021C3F69A3182
S31502003D20B1FBF0F0B8FBF0F008B100F0C9FDCBF83A
S31502003D300040D9F81000A842D2D94DF6836150440A
S31502003D40C4F21B31A0FB0101880C70430028D0D1BC
S31502003D50D1E7D4D4D4D4D4D4FFF7EEF8D4D4D4D47F
S31502003D60B0B584B04FF07041EFF3038001EB006011
S31502003D704CF200318015C4F20001425822F480321E
S31502003D80425040F240124158C2F200221458206AB0
S31502003D9000690028606903D000B304B0B0BD00BF5B
S31502003DA0E0B1A07800F003000228206908D100885B
S31502003DB0616A20F4DC40486005E000BF00BF00BF36
S31502003DC0616A00780871A078226900F003016069CF
S31502003DD0401A6061114421610028DED1616A022223
S31502003DE08D68A06862F3155510B100F069FD616A2D
S31502003DF08D60A06A00284FF000002061CDD0E06AF5
S31502003E0030B190E82E008DE82E0002E000BF00BF20
S31502003E106846216A0978016000218160802101716A
S31502003E20216BC160A16A8847E06A00281CBF9DE831
S31502003E302E002EC004B0B0BD10B586B04FF0704152
S31502003E40EFF3038001EB00604CF200318015C4F2FF
S31502003E500001425822F48032425040F24012415848
S31502003E60C2F200221458A07800F00302606A022A05
S31502003E7022D101686FF35F21E069019108B3A0695D
S31502003E8001A9FCF745F9A078D4E9061200F003006F
S31502003E900144101AC4E906103ED1A06A00283BD09C
S31502003EA0E06A28B3D0E900C2D0E90231CDE9043193
S31502003EB0CDE902C21DE000BF0178E0690191002848
S31502003EC0DDD1A06A40B3E06A50B1D0E900CED0E9B4
S31502003ED00223CDE90423CDE902CE02E000BF00BFF2
S31502003EE002A8226A127881600260042107E000BFFC
S31502003EF002A8216A0978016000218160012101710D
S31502003F00216BC160A16A8847E06A28B102AC1ECC67
S31502003F10016042608360C46006B010BDD4D4D4D4BC
S31502003F20B0B584B04FF07041EFF3038001EB00604F
S31502003F3040F240128115C2F200224FF6EF730416C8
S31502003F405558CFF6CF73696A8A681A408A60A96A99
S31502003F50E1B1E86A40B1D0E900C2D0E90231CDE967
S31502003F600231CDE900C200E06846296A097801609B
S31502003F700021816002210171296BC160A96A88470B
S31502003F80E86A00281CBF9DE82E002EC04CF20030C5
S31502003F90C4F2000050F8241021F4803140F82410B5
S31502003FA050F8240004B0B0BD70B584B04FF0704133
S31502003FB0EFF3038001EB006040F240128115C2F27A
S31502003FC000225458A178636A01F00301022907D13D
S31502003FD0D3F800C06FF35F2C04E000BF00BF00BF40
S31502003FE093F800C09A6C2025082105EAD2454FF0C5
S31502003FF0100E01EA12611EEA126229440A4403D033
S31502004000996C090458BF4032996E051641F0C851A1
S315020040109966A16AE9B1E06A50B1D0E900E3D0E954
S315020040200216CDE90216CDE900E302E000BF00BFA9
S315020040306846216A0978C0F808C001600271216BDE
S31502004040C160A16A8847E06A00281CBF9DE84E004D
S315020040504EC04CF20030C4F2000050F8251021F494
S31502004060803140F8251050F8250004B070BDD4D434
S315020040704FF07041EFF3038001EB00604CF2003227
S315020040808015C4F20002835823F48033835080588B
S31502004090EFF3038001EB006040F240118015C2F29B
S315020040A0002108580169CA6CD2071DD190F82C204C
S315020040B090F82A3093422BD1026A002A53D090F804
S315020040C02D30002B64D090F83130012B70D1012AAB
S315020040D04FF0000280F8312077D00A6A22F40052AB
S315020040E00A62016A6EE000BF90F82D20012A03D110
S315020040F090F83120012A2BD100220262012280F897
S315020041002F20086A20F4740000F5A80008627047A0
S3150200411090F82D30022A0BD1DA0709D0086A20F46A
S31502004120720000F5A4000862704700BF00BF00BF1E
S3150200413090F8282062F0FF024A6090F82B1090F85F
S315020041402C20013980F82B10511C80F82C10704756
S3150200415009688269436AD1540169D0E90823013AA0
S315020041600133C0E908230A6A90F82E3022F470025D
S31502004170012B09D142F4A4020A62012180F830100F
S31502004180704700BF00BF00BF42F4A8000862704734
S31502004190D0F818C0436A013A1CF803C00133C0E9DB
S315020041A008236CF0FF004860704700BF00BF00BFE5
S315020041B009688269436AD154D0E908120139013289
S315020041C0C0E908120129016904D10A6A42F40052BF
S315020041D00A6201694FF0FF3048607047D4D4D4D4E4
S315020041E010B582B04FF07041EFF3038001EB00602F
S315020041F040F240118015C2F200210C5808212069B4
S31502004200C16694F82F0001280ED12069016A41F493
S3150200421070010162A06B78B3D0E90012CDE90012F9
S315020042202BE000BF00BF00BF94F82C0094F82A10C0
S31502004230814211D1206A002847D194F82D1094F8B2
S3150200424030202069012A026A52D122F470020262E7
S315020042505EE000BF00BF00BFF0B194F82D10022847
S315020042604FF000001ED1C9071CBF94F8290040F088
S31502004270010017E000BF00BF6846E16B0160012143
S315020042800171616B8847A06B00281CBFDDE9001233
S31502004290C0E9001219E000BF01294FF0280050EAD8
S315020042A00090205C216960F0FF000A6A22F4700225
S315020042B00A622169486094F82B0094F82C100138A0
S315020042C084F82B00481C84F82C004FF07041EFF361
S315020042D0038001EB00604CF200318015C4F200014C
S315020042E0425822F480324250405802B010BD00BFFC
S315020042F042F4700202622069826822F01102826030
S31502004300206900BF00BF00BF027F0AB12FF005C0BF
S31502004310A06B81F0030138B1D0E90023CDE9002377
S3150200432003E000BF00BF00BF6846E26B0260A7E77A
S31502004330B0B584B04FF07041EFF3038001EB00603B
S315020043404CF200328015C4F20002835823F4803303
S3150200435083508058EFF3038001EB006040F2401176
S315020043608015C2F200210C5894F8220020B394F86A
S315020043702000002869D1A0680122017A84F8202051
S31502004380B322C271022084F82100A068090742798B
S3150200439002F0FE0141714FF00801E06A58BF0421A4
S315020043A0E26948B3D0E900C583680393CDE901C544
S315020043B023E000BF00BF00BF012084F82200A068EE
S315020043C0C17C8DF804102168897A012903D19DF8F0
S315020043D00410C90704D1F32103E000BF00BF00BFE8
S315020043E0F721427A11404172A068AC21C17104B032
S315020043F0B0BD00BF00BF00BF01A842600172216BC1
S315020044000160A16A8847E06A10B101AB0ECB0EC00B
S31502004410A0680621C170A068417941F0010141718D
S3150200442094F82100012833D194F8230068B994F84E
S31502004430210020B9A068417A01F0F3014172A06817
S31502004440BF21C171012084F82300216900294BD0C4
S31502004450A069814214D1022084F82100A068417922
S3150200446001F0FE014171E06AE169C8B10DF1040C87
S3150200447090E82C008CE82C0013E000BF00BF00BFC0
S31502004480D4E90212431CC97CA361115425E000BF82
S3150200449094F8210021690029DAD125E000BF00BF86
S315020044A001A8416006250572216B0160A16A884751
S315020044B0E06A10B101AB0ECB0EC0A068C570A06851
S315020044C0417941F001014171206968B1D4E90201E3
S315020044D0C07CA269531CA3618854E0690130E06183
S315020044E004B0B0BD00BF00BFA068C17C8DF8041047
S315020044F09DF80410017941F010010171A06801795B
S3150200450041F008010171A068017901F0EF01017122
S3150200451004B0B0BDD4D4D4D470B584B04FF07041D9
S31502004520EFF3038001EB00604CF200368015C4F213
S315020045300006825922F4803282518059EFF30380B9
S3150200454001EB006040F240118015C2F200210C58C6
S3150200455094F82000002842D1012084F82000A068A7
S31502004560B321C171022084F82100A068417901F0CB
S31502004570FE014171E06AE16930B10DF1040C90E887
S315020045802C008CE82C0000E001A841600521017294
S31502004590216B0160A16A8847E06A10B101AB0ECBBC
S315020045A00EC0A0680621C170A068417941F00101E0
S315020045B0417194F8210094F8210080B994F82300FF
S315020045C068B994F8210020B9A068417A01F0F30194
S315020045D04172A068BF21C171012084F8230094F8BA
S315020045E0210008B104B070BDA0692169814223D1BE
S315020045F0206890F90E0056F8201021F4803146F812
S31502004600201056F82000206890F90E0000280BD4DE
S315020046104EF2802300F01F014009CEF20003012270
S3150200462002FA01F143F82010A068C17941F0400175
S31502004630C17104B070BD00BFD4E90212105C887467
S31502004640D4E9060101300131C4E9060104B070BDA6
S3150200465010B584B04FF07041EFF3038001EB0060B8
S3150200466040F240118015C2F200210C58A06801796F
S31502004670490736D4022184F82110417901F0FE015E
S315020046804171E06AE16938B1D0E900C382680392F8
S31502004690CDE901C301E000BF01A841600721017213
S315020046A0216B0160A16A8847E06A10B101AB0ECBAB
S315020046B00EC0A0680621C170A068417941F00101CF
S315020046C0417194F821000028A0680AD1E168A26924
S315020046D0895C8174D4E90612A06801310132C4E909
S315020046E00612C17901F0BF01C171A0686FF0BE0167
S315020046F0C279520603D5002901F10101F8D14FF022
S315020047007041EFF3038001EB00604CF2003180153B
S31502004710C4F20001425822F480324250405804B09A
S3150200472010BDD4D4D4D4D4D410B584B04FF07041D3
S31502004730EFF3038001EB006040F240118015C2F2F4
S3150200474000210C58A068417A8A0715D0002184F806
S315020047502410A022C27184F8201084F82210A068C6
S31502004760427902F0FE02427194F824000128A06800
S3150200477022D1417225E000BF01F01F0111F00C0F9A
S315020047803AD0012184F8241094F8211001293FD14E
S3150200479001794FF0020C41F010010171A068017914
S315020047A001F0F7010171A068017901F0EF010171D1
S315020047B0A06836E000BF00BFC0210170A0689F213B
S315020047C00170D4F81CC00020E061022084F82100A8
S315020047D0E06A48B1D0E9002381680391CDE901235B
S315020047E003E000BF00BF00BF01A8C0F804C001215A
S315020047F0017246E000BF00BF00294DD0C17C8DF892
S3150200480004109DF80410C17901F0EF01C17143E073
S31502004810A16922698A4202D9E1690139E1614FF04F
S31502004820030CA022C271002084F8200084F8220022
S31502004830A268537903F0FE03537194F82420012AE7
S31502004840A26801D1507204E0C0201070A0689F22B5
S315020048500270D4F81CE00020E061022084F82100F6
S31502004860E06A48B1D0E9003182680392CDE90131AC
S3150200487003E000BF00BF00BF01A8C0F804E080F853
S3150200488008C0216B0160A16A8847E06A20B101ABCA
S315020048900ECB0160426083604FF07041EFF30380FC
S315020048A001EB00604CF200318015C4F2000142585F
S315020048B022F480324250405804B010BDD4D4D4D42D
S315020048C001380028FCD170474CF22010C4F20000D7
S315020048D050F8201C0268114040F8101C00BF00BFAF
S315020048E002680A42FCD1704700F00AF8FFF734FA70
S315020048F000BE7047D4D4D4D4D4D4D4D4D4D4D4D44B
S315020049002DE9F04F83B04EF6145840F20120CEF254
S315020049100008C0F20E004EF2000BC8F80000CEF2FC
S31502004920010BBFF34F8FBFF36F8F58F8141CC1F3FF
S31502004930035001285FEA1F9211F00F0F5FEA0F91F1
S315020049401142DBF8001013D1022811D241F0040003
S31502004950CBF800004EF20800BFF34F8FCEF20000F4
S31502004960BFF36F8F016841F48031016004E000BF3C
S3150200497021F00400CBF80000BFF34F8F4EF2FA325B
S315020049804FF47000BFF36F8FC8F8740040F2000056
S31502004990C4F20102C0F2002048F80C0C4AF202509E
S315020049A0CFF6FF7040F220090FF6E4410130108085
S315020049B0C2F200290FF6E84091ED001F4EF2550AA9
S315020049C009F1200389ED001FC4F2010A48F20041F1
S315020049D090ED001F43F6000044F25532C1F69C40AA
S315020049E089ED041FC1F2D771C1F2DE3207C31AF88C
S315020049F02F0C3AF8311C01F00F02A2F1080103292B
S31502004A0036D8DFE801F00529111D00BF00BF00BF3F
S31502004A104AF6AB2159F82000CAF6AA21A0FB0101E9
S31502004A20480828E000BF00BF4AF6AB2159F820002B
S31502004A30CAF6AA21A0FB0101C8081CE000BF00BFFC
S31502004A404AF6AB2159F82000CAF6AA21A0FB0101B9
S31502004A50080910E000BF00BF4AF6AB2159F8200052
S31502004A60CAF6AA21A0FB0101880804E000BF00BF24
S31502004A7059F82000D04040F2D8064EF60045C2F260
S31502004A800026C4F201050A214EF64C4730614FF664
S31502004A905060CFF6FF70C4F20107295409208AF844
S31502004AA04D00287818B917F84B0C800737D02878AC
S31502004AB088BB41F2FF1101202870C0F27A013069E9
S31502004AC0884211D944F23F21C0F20F0108444DF643
S31502004AD08361C4F21B31A0FB0101880CC821484343
S31502004AE078B915E000BF00BF4CF60021C3F69A3133
S31502004AF0B1FBF0F040F64051C0F20301B1FBF0F019
S31502004B0030B1FFF7DDFE40F2D806C2F2002600BF42
S31502004B1028780128FCD1002007F84B0C28700020C9
S31502004B200AF8230C00BF00BF1AF8190C0007FBD5C0
S31502004B3042F602314FF60210CAF8730040F24150B3
S31502004B402AF8070C0020C0F201010AF80B0CCAF879
S31502004B50571040F283412AF8091CBFF34F8FBFF367
S31502004B606F8FD8F8001021F40031C8F80010C8F889
S31502004B703C02BFF34F8FBFF36F8FDBF8000020F4C8
S31502004B804050CBF80000BFF34F8FBFF36F8F1AF878
S31502004B90410C00F0F80001300AF8410C00BF00BFDA
S31502004BA01AF8410CC006FBD4DBF8000040F4405072
S31502004BB0CBF80000BFF34F8FBFF36F8FD8F800001A
S31502004BC0800314D4BFF34F8FBFF36F8F0020C8F852
S31502004BD03C02BFF34F8FBFF36F8FD8F8000040F44B
S31502004BE00030C8F80000BFF34F8FBFF36F8F00206D
S31502004BF00AF82B0C00BF00BF1AF8190C8006FBD569
S31502004C004CF200040020C4F21304207020782078AD
S31502004C1020786068C82807D0C820C1F6006000BFA7
S31502004C2060606168C829FBD1A068642808D0642046
S31502004C30CEF2001000BF00BFA060A1686429FBD1BC
S31502004C4049F69820C9F689004AF8350C48F68000DC
S31502004C502AF8310C05200AF82F0C1AF82F0C3AF80C
S31502004C60311C01F00F02A2F10801032934D8DFE852
S31502004C7001F003270F1B00BF4AF6AB2159F82000AB
S31502004C80CAF6AA21A0FB0101480828E000BF00BF1E
S31502004C904AF6AB2159F82000CAF6AA21A0FB010167
S31502004CA0C8081CE000BF00BF4AF6AB2159F8200035
S31502004CB0CAF6AA21A0FB0101080910E000BF00BF45
S31502004CC04AF6AB2159F82000CAF6AA21A0FB010137
S31502004CD0880804E000BF00BF59F82000D04041F226
S31502004CE0FF113061C0F27A01884211D944F23F21A4
S31502004CF0C0F20F0108444DF68361C4F21B31A0FBDA
S31502004D000101880C0001A0EB9140400058B910E067
S31502004D104CF60021C3F69A31B1FBF0F047F230515E
S31502004D20B1FBF0F028B1FFF7CBFD40F2D806C2F294
S31502004D30002660686FF39F20652801D3012020704A
S31502004D401AF82F0C3AF8311C01F00F02A2F10801F1
S31502004D50032935D8DFE801F00428101C00BF00BF84
S31502004D604AF6AB2159F82000CAF6AA21A0FB010196
S31502004D70480828E000BF00BF4AF6AB2159F82000D8
S31502004D80CAF6AA21A0FB0101C8081CE000BF00BFA9
S31502004D904AF6AB2159F82000CAF6AA21A0FB010166
S31502004DA0080910E000BF00BF4AF6AB2159F82000FF
S31502004DB0CAF6AA21A0FB0101880804E000BF00BFD1
S31502004DC059F82000D04042F200023061C4F20002DB
S31502004DD04AF2025001384FF4254110800120BFF3F8
S31502004DE05F8F1072BFF35F8F11800AF8020C9AF878
S31502004DF01F0040F040008AF81F0000BF00BF00BF3E
S31502004E009AF91F00B0F1FF3FFADC07208AF8170073
S31502004E1048208AF81F0008208AF81F0000BF00BF3A
S31502004E209AF91F000028FBD49AF8000040F04000CF
S31502004E308AF8000000BF00BF9AF90000B0F1FF3FF8
S31502004E40FADC02200AF8010CC8208AF800009AF857
S31502004E50000000F0BF008AF8000000BF00BF00BFDC
S31502004E609AF900000028FBD44EF2FA334FF425409B
S31502004E70C4F201034AF202510022188019804FF649
S31502004E80B061CFF6FF716A54188040F20800C2F290
S31502004E90000080F30A88DBF80000800728D558F85E
S31502004EA00C0CB0F1007F23D1DBF810004FF4007137
S31502004EB0C0F3C300DBF8142001FA00F3C2F3C30007
S31502004EC081400020DA08CB080146074642F005C0B9
S31502004ED0E7E802010FF005C04EF64C47C4F201079F
S31502004EE04FF0005243F005C0E2E802010FF005C0A0
S31502004EF046F2C8300B24C0F2002000F1040B5D46D6
S31502004F0006E000BF00BF00BF013C05F10C050FD053
S31502004F1068790028F8D155E90101091AFBF756FA12
S31502004F2040F2D806C2F20026EEE700BF00BF00BF7D
S31502004F3046F24C40C846C0F20020192400F1080986
S31502004F404D4605E000BF00BF013C05F110050FD03C
S31502004F5068790028F8D155E902022968121AFBF786
S31502004F60D7F840F2D806C2F20026EDE700BF00BF2E
S31502004F701AF82F0C3AF8311C01F00F02A2F10801BF
S31502004F80032939D841F2FF13C0F27A03DFE801F0B0
S31502004F900428101C00BF00BF4AF6AB2158F82000B7
S31502004FA0CAF6AA21A0FB010148082CE000BF00BFF7
S31502004FB04AF6AB2158F82000CAF6AA21A0FB010145
S31502004FC0C80820E000BF00BF4AF6AB2158F820000F
S31502004FD0CAF6AA21A0FB0101080914E000BF00BF1E
S31502004FE04AF6AB2158F82000CAF6AA21A0FB010115
S31502004FF0880808E000BF00BF58F8200041F2FF13FE
S31502005000D040C0F27A0342F224043061C4F2200492
S3150200501000204EF614582071CEF2000830699842EC
S3150200502012D944F23F21C0F20F0108444DF68361C2
S31502005030C4F21B31A0FB0101880CC821484380B988
S3150200504015E000BF00BF00BF4CF60021C3F69A313F
S31502005050B1FBF0F040F64051C0F20301B1FBF0F0B3
S3150200506028B1FFF72DFC40F2D806C2F20026002036
S31502005070207000BF00BF00BF207808B12FF005C026
S31502005080207840F00200207020788007FCD40020AF
S3150200509004F8020C00BF00BF14F8020C08B12FF08E
S315020050A005C84FF0030E002004F11C0500BF00BF27
S315020050B015F8101001F07F0105F8101000BF00BFAF
S315020050C015F910100029FBD401300FF00FC8012189
S315020050D0EFF3108081F31088F18A41B94EF2FA3269
S315020050E04AF20253C4F20102118819431180F18A6D
S315020050F00131F18280F31088002038700121EFF32C
S31502005100108081F31088F18A11B1F18A0139F18296
S31502005110F18A49B94EF2FA32C4F20102118841F417
S31502005120254121F00201118080F310880121EFF35D
S31502005130108081F31088718B49B94EF2FA334AF224
S315020051400252C4F201030E32198811431980718B7F
S315020051504FF00E0E0131718380F3108840F6145021
S31502005160C4F240001C30002120F8041B0FF005C0D9
S315020051700121EFF3108081F31088718B11B1718BCD
S3150200518001397183718B49B94EF2FA32C4F20102C6
S31502005190118841F4254121F01001118080F3108815
S315020051A00121EFF3108081F31088718B49B94EF219
S315020051B0FA334AF20252C4F201030E32198811433B
S315020051C01980718B0131718380F3108844F20400D7
S315020051D0C4F220000021016041608160C1600121AA
S315020051E0EFF3108081F31088718B11B1718B013945
S315020051F071830195718B49B94EF2FA32C4F20102FA
S31502005200118841F4254121F01001118080F31088A4
S315020052100B244FF4807503E0013C0BF10C0B0BD011
S315020052209BF80500B5EB002FF6D15BE90101091ADF
S31502005230FBF7CCF8F0E700BF19244FF4807503E0C2
S31502005240013C09F110090FD099F80500B5EB002FC2
S31502005250F6D159E90202D9F80010121AFAF758FFE4
S31502005260EEE700BF00BF00BF40F21024C2F20024E6
S315020052702046FBF793F82046FBF7ACF8BFF34F8FB7
S31502005280BFF36F8F0020C8F83C0246F2406046F238
S315020052904461C0F20020C0F20021BFF34F8F081A0A
S315020052A0BFF36F8F8410012C0BDB46F24065C0F210
S315020052B0002500BF00BF00BF55F8040B8047013C24
S315020052C0FAD140F2D80341F2FF1500214FF0010A4C
S315020052D0C2F20023C0F27A0507E000BF00BF00BF9A
S315020052E0029901315D2900F0E38046F2A40046F2FC
S315020052F0A034C0F200204FF0000900EBC10BC0F24F
S315020053000024019E0291BBF8048007E000BF00BFA3
S3150200531009F101090236B9F1030FE1D034F8020BA3
S315020053208045F5D1DBF800003A7800F0B8510AFA68
S3150200533009F0B1F1807F00EA020109D100295BD0B0
S3150200534096F90000002840F19280E1E700BF00BF15
S31502005350B1B3EFF310818AF31088DA8A82B94EF27A
S31502005360FA354AF20257C4F201052A883A434EF642
S315020053704C472A8041F2FF15C4F20107C0F27A05B2
S31502005380DA8A0132DA8281F31088397821EA00005A
S315020053903870EFF310808AF31088D98A11B1D98A4E
S315020053A00139D982D98A49B94EF2FA32C4F20102D6
S315020053B0118841F4254121F00201118080F3108801
S315020053C096F90000B0F1FF3FA2DC307800F07F00D2
S315020053D030701869A84251D84CF60021C3F69A31AA
S315020053E0B1FBF0F040F64051C0F20301B1FBF0F020
S315020053F0002854D18CE700BFEFF310818AF310889E
S31502005400DA8A82B94EF2FA354AF20257C4F2010535
S315020054102A883A434EF64C472A8041F2FF15C4F2D7
S315020054200107C0F27A05DA8A0132DA8281F310883C
S31502005430397808433870EFF310808AF31088D98AD6
S3150200544011B1D98A0139D982D98A49B94EF2FA32C9
S31502005450C4F20102118841F4254121F002011180B2
S3150200546080F3108896F9000000283FF551AF307896
S3150200547040F0800030701869A842ADD944F23F214D
S31502005480C0F20F0108444DF68361C4F21B31A0FB42
S315020054900101880CC821484300283FF439AFFFF7C1
S315020054A00FFA40F2D803C2F2002331E700BF00BF71
S315020054B00121EFF3108081F31088D96839B940F6DB
S315020054C014520021C4F24002117040211170D968B1
S315020054D04FF05D0E0131D96080F3108846F2A401C7
S315020054E0F64640F60000C0F20021C4F24000043144
S315020054F00EE000BF00BF00BF00EB8717083147F878
